:104000000080002011D10000F9D00000F9D000009C
:1040100000000000000000000000000000000000A0
:10402000000000000000000000000000F9D00000C7
:104030000000000000000000F9D0000065D1000081
:10404000F9D00000F9D00000F9D00000F9D000004C
:104050009DCC0000F9D00000F9D00000FDD0000098
:10406000F9D00000B1AC0000F9D00000F9D0000098
:1040700029760000F9D00000C1AC0000F9D00000A2
:10408000F9D00000F9D00000F9D00000F9D000000C
:10409000C9B30000F9D00000F9D00000F9D0000049
:1040A000F9D00000F9D00000F9D00000F9D00000EC
:1040B0000000000010B5064C2378002B07D1054BFB
:1040C000002B02D0044800E000BF0123237010BD84
:1040D000E00000200000000030400100044B10B55B
:1040E000002B03D00349044800E000BF10BDC046C8
:1040F00000000000E40000203040010073B59D4C3A
:104100000500200005F052FE0023681E23610328ED
:1041100000D92BE1984D0AF033FD026AC6D49749C5
:10412000974805F04FFA974E9749002800D19749D4
:1041300030000DF00FFE2900200008F099FE944990
:10414000200008F07AFE3100200008F091FE91492D
:10415000200008F072FE904B022518680BF0A6FDB7
:104160000A220100200008F0D4FE8C49200008F04B
:1041700064FE8B4B18680DF0E1FB009502000B000C
:10418000200008F0ADFF8749200008F056FE864B5E
:1041900018680DF0D3FB009502000B00200008F01A
:1041A0009FFF8249200008F048FE814B18680BF001
:1041B0007DFD0A220100200008F0A7FE7D492000B5
:1041C00008F056FE7C49200008F037FE7B4B18684B
:1041D0000BF06CFD0A220100200008F096FE7849E1
:1041E000200008F045FE200006F0B4F873BD290059
:1041F000200008F03DFE7349200008F01EFE724BBF
:10420000022518680DF09AFB009502000B002000B3
:1042100008F060FF6D49200008F02AFE6C4920007C
:1042200008F00BFE6B4B18680DF088FB0095020040
:104230000B00200008F04EFF6749200008F018FE30
:104240006649200008F0F9FD654B18680DF076FB13
:10425000009502000B00200008F03CFF614920009F
:1042600008F006FE6049200008F0E7FD5F4B0A22D7
:1042700019682000013908F04CFE5D49200008F063
:10428000DCFD5C4B1D8808F07BFFFA215A4B89004E
:104290001B68C01A0AF07EFC0A22291A200008F0C6
:1042A00042FE56499CE72900200008F0E1FD290064
:1042B000200008F0DDFD5249200008F0D9FD29005A
:1042C0008EE72900200008F0D3FD4E49200008F0B9
:1042D000B4FD4D4B022518680DF030FB009502002F
:1042E0000B00200008F0F6FE4849200008F0C0FD51
:1042F0004749200008F0A1FD464B0A22197820000A
:1043000008F021FE4449200008F097FD434B18684F
:104310000DF014FB009502000B00200008F0DAFEFF
:104320003F49200008F0A4FD3E49200008F085FD2B
:1043300000213D4B0A225956200008F0E6FD3B497A
:10434000200008F095FD3A49200008F076FD0A2289
:104350005821200008F001FE3649200008F088FDB1
:104360003549200008F069FD344939E734493548BA
:1043700037E7C046480100207B1F01004C040000C5
:104380003C03002019010020B01D0100AC1D0100FC
:10439000B61D0100C11D010068070020CC1D0100F1
:1043A0005C070020D71D010060070020E21D01000E
:1043B0005407002006010020ED1D01006C070020BD
:1043C00012010020F81D01007407002021270100C0
:1043D000021E010070070020100100200C1E0100C9
:1043E00064070020161E01001A1E01003C00002078
:1043F000241E010026000020200000202E1E0100A7
:10440000391E01004E1E01002C000020591E010023
:104410005D1E010038000020F61F0100280000206A
:10442000681E01006C1E010035000020771E01008F
:104430007B1E0100861E01008D1E0100FC00002075
:10444000981E0100AC0E0020F7B50125224C009506
:104450002B003C220221200005F0BAFC002804D1E8
:104460001E491F4808F0FAFCFEE7200005F09EFCFC
:104470002000290006F017FC1A4B1B4863611B4BF8
:104480001B4F1B781B4E1C4D1C4C002B13D11C4981
:104490000DF060FC1B4938000DF05CFC1A4930003F
:1044A0000DF058FC194928000DF054FC1849200063
:1044B0000DF050FCF7BD17490DF04CFC16493800C3
:1044C0000DF048FC154930000DF044FC144928005B
:1044D0000DF040FC1349EAE748010020A01E01004E
:1044E000AC0E002001000100060100202C0300207A
:1044F00012010020100100200B010020FC00002010
:10450000BA1E0100BD1E0100C31E0100C51E010030
:10451000C91E0100D01E0100D41E01001428010094
:10452000D91E0100DD1E01000123084810B50371EA
:104530009033FF33C380803B03810223FF334381E9
:1045400005F0ACFA642008F051FE10BDE80600202A
:10455000F8B5224C200005F048F9214D28602000D4
:1045600005F062F91F4E3060200005F07CF91E4B0B
:104570002D681E4F041C18603968281C0AF0D0FCF6
:10458000002801D03D6006E0194F281C39680AF068
:10459000DBFC0028F6D13568164E281C31680AF07D
:1045A000BFFC002801D0356006E0134E281C31689E
:1045B0000AF0CAFC0028F6D1104D201C29680AF028
:1045C000AFFC002801D02C6006E00D4D201C2968AE
:1045D0000AF0BAFC0028F6D1F8BDC046E806002073
:1045E00024010020280100202C010020300300209D
:1045F000200300203403002024030020380300207F
:1046000028030020F0B5514C87B05149200008F034
:1046100010FC002305934F4B0A27049308234E4DAB
:104620000393DB1901930B3B0093029702334B4A30
:104630004B49280000F0D2FE061E10D14949200047
:1046400008F00CFC484B01221968280000F03AFEE3
:104650000C300ED14549200008F000FCFEE744492B
:10466000200008F0E6FB3A003100200008F051FC81
:10467000FEE7404B2800196801F02EFC083004D1F9
:104680003D49200008F0EAFBFEE73C4B2800197882
:1046900001F0A4FC093004D13949200008F0DEFB08
:1046A000FEE7384B2800197801F0B8FC0A3004D135
:1046B0003549200008F0D2FBFEE7344B442219783C
:1046C000280001F0CCFC002804D03149200008F07B
:1046D000C5FBFEE72F49280001F01CF8113004D17A
:1046E0002D492E4808F0BAFBFEE700212C4B28008C
:1046F000595600F041FE0D3004D12A49200008F03F
:10470000ADFBFEE7284B2800198801F0C5FC1230EC
:1047100004D12649200008F0A1FBFEE7244B254ADE
:104720001978012328000093234B01F073FD234BDC
:10473000984204D12249200008F090FBFEE721496D
:10474000200008F08BFB07B0F0BDC046AC0E002087
:10475000DC200100CDCCCC3FBC0100200000FA429F
:104760000000D943F72001002C0000200E21010099
:1047700000210100280000203D2101003800002018
:104780006C2101000C000020A22101003900002052
:10479000D321010000000C43EC210100DC090020C2
:1047A000350000201F2201003600002051220100A8
:1047B000040000200F1D00002110000043FDFFFF3A
:1047C00086220100AF22010070B51D24200008F0F0
:1047D000CBFE0BF08BFA051C200008F0C5FE0BF099
:1047E00085FA291C0AF0FAFB051C200008F0BCFE23
:1047F0000BF07CFA291C0AF0F1FB0D490AF088FD48
:104800000DF09CF80B4A0C4B0CF020FA00220B4BDD
:104810000CF01CFA0DF0E4F809490AF079FD094999
:10482000051C0AF091FB0028D0D1281C70BDC046A1
:10483000000040406666666666660A400000503FBB
:10484000CA261B3E0000A041F7B5704B704C1B7888
:10485000704D714E71492000002B00D0B1E004F082
:1048600081FE0BF043FA6E490AF052FD6B49286055
:10487000200004F0BFFE0BF039FA6A490AF020FF6D
:104880003060694802F02CFC684B644918602000D5
:1048900004F040FE0BF02AFA65490AF039FD654B39
:1048A0005E491860200004F049FE0BF01FFA6049D1
:1048B0000AF02EFD604B59491860200004F06AFE92
:1048C0000BF05EFA81215D4BC90518600AF03CFBD4
:1048D00000280AD02B685A4F181C396801930AF037
:1048E00033FB002801D0019B3B604C49200004F0C1
:1048F00099FE54490AF0D8F90BF0F8F9524B1860B8
:10490000FFF762FF514B1860474802F021FC0CF0A2
:10491000A9FF4F4B00220BF08FFD0DF061F84D4BBE
:104920004D4C18602168071C0AF0FAFA002800D0E4
:1049300027604A4B1B78002B42D03E4B484C1B68EB
:10494000276223603C4B1B6863602B68A3603B4B72
:104950001B68E3603C4B1B682361336863613B4B1E
:104960001B68A361314B1B68E3613E4B1B686362AC
:104970003D4B1B68A3623D4B1B68E3623C4B1B68CD
:1049800023633C4B1B6863633B4B1B68A3633B4B3C
:104990001B68E3633A4B1B6823643A4B1B686364F0
:1049A000274B1B68A3642C4B1B68E364364B1868C9
:1049B0000BF09CF9354B206518880BF0E1F9606528
:1049C000F7BD04F0CFFD0CF04DFF314A314B0CF038
:1049D0003DF90022304B0BF02FFD0DF001F80F498F
:1049E0002860200004F006FE0BF080F92B490AF045
:1049F00067FE30600C4802F073FB29490AF060FE44
:104A00008421C9050AF0EAFA3EE7C0462C030020DB
:104A10003C030020540700206C0700204C040000D9
:104A200000007A44FAED6B3B300100207007002053
:104A30008096184B5C070020600700206807002064
:104A40001C030020A08601005807002074070020E6
:104A5000000059406407002030000020240000209E
:104A6000FC06002024010020280100202C01002049
:104A70003003002020030020340300202403002002
:104A800038030020280300203C0000203A000020CA
:104A9000984B4FFD283F0A4000408F40A099123BA1
:104AA0006666E63F37B5244C2449200008F0D6F965
:104AB0002349200008F0BDF9224B022518680CF0AC
:104AC0003DFF009502000B00200008F003FB1E498B
:104AD000200008F0AEF91D4B18680CF02FFF009570
:104AE00002000B00200008F0F5FA1949200008F038
:104AF000A0F9184B0A221978200008F020FA16496C
:104B0000200008F096F90021144B0A225956200083
:104B100008F0FBF91249200008F08BF90A2258210D
:104B2000200008F01AFA0F49200008F097F90E4902
:104B3000200008F093F937BDAC0E0020941F01004F
:104B4000EA1F01002C000020F11F010028000020B6
:104B500001200100380000200B200100350000205A
:104B600015200100861E010029200100F8B5544BD4
:104B70001D780A2D02D90123524A1370524B18682E
:104B80000CF0DCFE514A524B06000F000AF0ACF963
:104B9000504C002800D17CE04C4A4F4B300039008B
:104BA0000AF08EF9002800D173E04C4B23602800F6
:104BB0000CF092FE0B0080210200C905002008F0D5
:104BC000D1FE474B06000F00186846490AF078FDF1
:104BD0000CF0B4FE02000B00300039000BF02CFC8E
:104BE0000CF0FEFE061C0020354B3F4A1D783F4B63
:104BF000126818563E4B58301B78C0005BB21B0140
:104C0000C0181C30AB00C31A0120821A1330504365
:104C1000181A0BF0B5F8071C00202A4B1856400054
:104C2000281A80000BF062F8011C381C0AF070FB97
:104C300008F04EFE2F4B051C18780BF057F8291C76
:104C40000AF03EFD0BF032F8C3430500DB171D40B0
:104C5000294B18880BF04AF828490AF0BFF9311C93
:104C60000AF02EFD071C280008300BF03FF8311C1D
:104C70000AF026FD011C381C0AF0B0F921680AF080
:104C800047FB0BF013F81E4B1A88824200DA18809B
:104C9000F8BD1C4A1C4B300039000AF025F90028E9
:104CA0000BD0184A194B300039000AF009F90028D6
:104CB00003D0174B074A136079E7164BFAE7C04653
:104CC00038000020180300202C0000209A999999A0
:104CD00099258B401800002099298B406F12833A48
:104CE0002800002000007A44B4010020B90100200F
:104CF000040000200C000020360000200000884046
:104D00002600002033333333332B8B40332D8B403D
:104D1000CDCCCC3D0AD7233C70B50E4D0E4A0821B0
:104D2000280004F00FFB0D4C002804D10C49200092
:104D300008F094F870BD0B49200008F07AF8064995
:104D4000280004F037FB0A220100200008F0FBF8DD
:104D5000F0E7C0463C0300204C040000AC0E0020ED
:104D60007E200100AC2001001FB5282008F090FA39
:104D700002230400032200930821073300F004FA01
:104D80002100114800F094FA104802F067FC104826
:104D900002F0D8F8192200210E4804F068FC0E4BEE
:104DA0000E4C02930E4B4022019301235B42009371
:104DB00080210C4B200004F0E1FE0B4A0B4920003F
:104DC00008F07EFD1FBDC046BC0100203C03002052
:104DD00030010020E8060020A086010048010020E4
:104DE000801A0600A007002000000020E19B0000C0
:104DF00073B5204C2049200008F01BF81F4E0023FB
:104E000058221F49300001F05DFB051E20D11D49CD
:104E1000200008F023F81C49200008F00AF83000B0
:104E200000F074FB0CF08AFD0B00022102000091DF
:104E3000200008F04FF91549200008F00FF8300065
:104E4000012100F0F5FC124A13680133136073BDB1
:104E5000031D01D10F49EFE70F49431DECD00F4966
:104E6000200007F0E6FF0A222900200008F051F890
:104E7000E5E7C046AC0E0020341F0100BC01002055
:104E8000FC060020F7200100681F01007C1F0100C4
:104E90003C000020811F01008B1F01000021010048
:104EA00070B5FFF791FC444B19680AF04DF80028E3
:104EB00000D17DE0414C4249200004F097FA0028DF
:104EC00015D03F49200004F07DFB00280FD03C495D
:104ED000200004F05FFB032809D93A4C2378002B0B
:104EE00005D13949394807F0B9FF01232370FFF78D
:104EF000ABFCFFF72DFB08F043F9354D2B68C01ACA
:104F0000344B1A68FA239B00534398420BD9324C16
:104F10002068FFF7F3F808F033F9236828600133BD
:104F2000032B43D023602D4B1B78002B3DD008F082
:104F300027F92B4C2B4E23683288C01AFA239B008A
:104F40005343984231D90320FFF7D8F8FFF750FFB9
:104F5000FFF7A8FD08F014F9234B20601C682349D3
:104F6000201C09F0FBFF002807D02149201C09F074
:104F7000E1FF002801D0FFF7F9FDFA20800008F0DA
:104F800035F90220FFF7BAF808F0FAF80F4C28605C
:104F90001849200007F04DFF31880A22200007F051
:104FA000B4FF2000144907F059FF70BD0123B9E791
:104FB00012490648F7E7C046080000203C030020DD
:104FC0004C040000B8010020D1220100AC0E0020EA
:104FD0001C000020100000201400002024000020ED
:104FE00020000020260000202C00002000C0574494
:104FF00000805944DE220100EA220100FA22010069
:1050000070B500210C2008F069FB642008F0EEF870
:105010001B4D280002F03EF903211A4802F004F863
:105020001949280002F056F9184C422229002000A4
:1050300004F08AF8002804D11549164807F00EFF3D
:10504000FEE7154A0021200004F00DF9124A002164
:10505000200004F00FF9FA220121200004F0FCF8EE
:105060000E4B0D4A1978200004F00CF90A49200073
:1050700004F042F90849200004F086F870BDC046EB
:10508000A007002030010020801A06003C03002009
:10509000E61E0100AC0E00204C040000340000208D
:1050A00070B51920022108F0CDFA192008F042FB52
:1050B000002800D1FEE72A4808F098F801210C20CA
:1050C00008F0C0FA00210C2008F008FBE121254C73
:1050D0004902200006F0EEF908F052F8050008F049
:1050E0004FF8214B401B984204D8200006F032FBB9
:1050F0000028F4D0200007F0A9FE1C49200007F08A
:10510000ADFE200007F0A2FE1949200007F0A6FE20
:10511000FFF778FAFFF7C6FC1649200007F09EFE5D
:10512000FFF76EFFFA20C00008F060F8124B1B7802
:10513000002B05D01149200007F090FEFFF7ECFD91
:105140000F49200007F08AFEFFF7EEF9FFF77CF920
:105150000420FEF7D3FF0B4808F048F870BDC046A6
:1051600088130000AC0E0020871300002B230100E1
:10517000342301004C2301000500002073230100AB
:105180008E230100581B0000F7B51D0008AB1B78EB
:1051900004000F00160000210322083001930CF0D8
:1051A00016FD802222736A4610491279616101213D
:1051B00000236274FF226018E372A773E6732574FC
:1051C000A27423766176C377A01CC277E01CC277F5
:1051D00023609623064A9B0162626360054A064B80
:1051E0002000E26161732381FEBDC04680841E0001
:1051F000983A0000780700200D0A000010B5FF283B
:1052000001D008F01FFA10BD10B5FF2801D008F03A
:1052100065FA10BD10B50400002902D0012910D094
:1052200010BD807B0121FFF7E9FFA07B0121FFF783
:10523000EBFF637B002BF3D0E0690368DB6A9847E0
:10524000EEE7437B002BEBD0006861680368DB6905
:105250009847E5E710B50023FF2802D008F06AFA66
:105260000300180010BD10B507F0EDFF10BD10B51C
:1052700007F0BCFF10BD10B507F0DAFF10BD10B588
:1052800007F07EFF10BD10B507F080FF10BD70B5B0
:10529000431CDB7F04001500002B08D0831CD87F43
:1052A0000334FFF7B1FFE07F2900FFF7ADFF70BDCA
:1052B00010B5040000F0CEF8014B2000236010BDB3
:1052C000B823010073B50C1C06002049201C1500F2
:1052D00009F044FE002835D01D49201C09F02AFEA3
:1052E00000282FD0002D0ED01A49201C09F02CFECA
:1052F00001AD00280CD0184B2B802900300000F0A5
:10530000A8FB002803D1211C300000F06DFB76BD06
:105310001249201C09F018FE002801D0104BEBE7C1
:105320001049201C09F010FE002801D00E4BE3E7C5
:105330000E49201C09F008FE002801D00C4BDBE7C9
:105340000C4BD9E70C204042E1E7C0460000164371
:105350000000704400006144E1E9FFFF0080544414
:10536000D7DBFFFF00804044C1C5FFFF0000E643DC
:105370007581FFFF6B6F0000F0B5CDB22B001133CC
:10538000DBB285B00400272B23D80F2600236E4400
:10539000337032000133104900F07EF9002816D135
:1053A00001270200009707230421200000F0D2FA11
:1053B00000280CD104222900200000F053FB002813
:1053C00005D13B0032000449200000F091F905B0FE
:1053D000F0BD0D204042FAE7E7080000F0B50400F8
:1053E00087B00E1C111C1A000CAB1B780DA805937E
:1053F00011AB1B780EAD0FAF00782D783F8803936B
:10540000109B009002930197059B20006DB201F064
:105410007FFB00280FD10122311C2000FFF752FF33
:10542000002808D129002000FFF7A6FF002802D19C
:10543000200000F09BF907B0F0BD70477047FC30CA
:1054400010B5806A00220121FFF721FF01204042B0
:1054500010BD000070B504000D00FF22104901F0DE
:10546000E7FB104B9A210833236023000022012020
:10547000FC334900DA621A635A6360541031DA630C
:105480001A645A646252023162540231625200213B
:105490009D622000196559659A65DA6570BDC04640
:1054A0000024743FF023010070B50400FC34A36AAB
:1054B0000E0005000121187CFFF7A0FEA36A002161
:1054C000187CFFF7A1FE0120FFF7D1FEA36A01219E
:1054D000187CFFF799FE002E12D0FFF7D0FE0600D1
:1054E0002B6828005B689847041E09D0FFF7C7FEA9
:1054F000054B801B984204D80A20FFF7B8FEEFE75F
:105500000024200070BDC046B70B0000FC30406D89
:1055100070470000F0B589B01F0010AB1B78160073
:10552000029311AB1B78019005930300FC339A6A38
:105530000491130006A91433D46921CB21C10021A1
:10554000907BFFF761FEFFF79AFE0390019DFC350B
:10555000AB6A587CFFF77EFE00280FD0FFF783FE72
:10556000FFF78DFE039BC01A129B9842EED3AB6AE5
:105570000121987BFFF748FE444882E023680699A2
:10558000DB69079A20009847049DAE192368B5424D
:1055900005D029789B68200098470135F6E7002F51
:1055A00041D00E270E9D029BEE182368AE4257D0C5
:1055B0009B6829782000984703003B40062B23D1A5
:1055C0000625236820001B6A9847019C0121FC34B2
:1055D000A36A987BFFF718FE059B002B42D00120A1
:1055E000FFF749FEFFF74BFE0600A36A587CFFF762
:1055F00031FE002836D0FFF736FEFFF740FE129B43
:10560000801B9842F1D3B7E7082B01D10825D8E7D2
:105610000A2B01D10A25D4E70138C0B20135FD2893
:10562000C3D9FF25CDE79B683900200098470E239A
:105630000340062BC4D0082BE8D00A2BEAD001384F
:10564000C0B2FD28EDD80F9D029BEE182368B5422D
:1056500006D09B6800212000984728700135F5E7A7
:105660000025AEE7082D0ED003D8062D84D00020EB
:1056700007E00A2D04D0FF2DF9D10220404200E0BE
:10568000034809B0F0BD0348FBE7C0463FFDFFFFFC
:105690003DFDFFFF3EFDFFFF30B51D2589B007AC86
:1056A0002570A1700D0A07496570049102930121CC
:1056B000002303910192009303222100FFF72AFFA8
:1056C00009B030BD8813000070B586B00AAC2478EC
:1056D0000BAD2D7802940024044E0093049603959C
:1056E00001940123FFF716FF06B070BD8813000078
:1056F00030B50D2585B003AC2570A1700D0A0121D0
:10570000657001910093210013000322FFF7DCFF75
:1057100005B030BD73B50C1C06000021201C09F03B
:105720001DFC002818D00E49201C09F003FC00289D
:1057300012D06B46201CDD1D0CF000F90022094B35
:105740000AF07AFE09F02CFC012328702A00064991
:105750003000FFF7CDFF76BD11204042FBE7C04689
:1057600000000C4300000440E708000037B56B461A
:10577000DC1D002322002370084901330500FFF7D8
:105780008BFF002809D11E2322780449134323707C
:10579000220001232800FFF7ABFF3EBDD808000020
:1057A00073B56B46DC1D00230E002370220001330D
:1057B0000A490500FFF770FF00280BD12278042367
:1057C000002E08D19A4322700123220003492800A9
:1057D000FFF78EFF76BD13432370F5E73607000011
:1057E00030B585B003AC63700E250123257001939D
:1057F00000920B0002222100FFF766FF05B030BDCA
:1058000030B589B00D000CA90C781F2169440D70CA
:1058100002930023054D01930133009204950394F4
:105820001A00FFF777FE09B030BDC04688130000AC
:105830000300002230B5FC3385B004000D00986AE7
:105840001100FFF724FD0F226A44002D0FD004231E
:10585000137000238421009320000133FFF7D0FF51
:1058600004000120FFF703FD200005B030BD1570D6
:10587000EFE70300002230B5FC3385B004000D00D3
:10588000986A1100FFF703FD012303AA1570802118
:1058900000932000FFF7B4FF05B030BD10B5002124
:1058A000FFF7E7FF10BD1FB50F226A44002907D19B
:1058B000117001239D210093FFF7A2FF05B000BDE9
:1058C00001231370F5E71FB50B0C03AA13700B0A25
:1058D000537001239170009383210233FFF790FFEF
:1058E00005B000BD1FB50B0C03AA13700B0A537053
:1058F00001239170009382210233FFF781FF05B0ED
:1059000000BD0000F7B5002410490500FFF7EAFFCD
:105910000A20FFF7ACFC26006B46DF1D00233A008F
:105920003B700B4901332800FFF7B6FE01223B789C
:105930001340A340A4181E43F6B2082CECD12B68E8
:1059400028005B6898473000FEBDC046FFFFFF009F
:105950001908000030B585B008AC257803AC637039
:1059600001232170A270E57022000093952103337A
:10597000FFF746FF05B030BD7FB508AC258802AC07
:105980006170E27063710E0A110A1A0A2B0AA37180
:105990000123A17022712670E57100930733220064
:1059A0001900FFF72DFF04B070BD1FB50B0A03AA45
:1059B0001370012351700093DB181900FFF720FFCB
:1059C00005B000BD1FB50B0E03AA13700B0C53706E
:1059D0000B0A93700123D170009386210333FFF7E4
:1059E0000FFF05B000BD000010B50400081C982191
:1059F000C90509F065FE0BF0A1FF0022044B0BF076
:105A000025F909F0CDFA01002000FFF7DBFF10BDFA
:105A10000000A03F030030B5FC330D0085B004004A
:105A200001220021986AFFF732FC002D0AD10023E1
:105A300003AA137001330093D1212000FFF7E0FE89
:105A400005B030BD29002000FFF7BCFF0028EED0D4
:105A5000F6E7012307B50A0000939821DB18FFF74A
:105A6000CFFE0EBD1FB5012303AC217062708E21E5
:105A700000932200DB18FFF7C3FE04B010BDF0B5A1
:105A800087B002929A222C2503935200825C0CABC1
:105A900004000F001B78FF35002A28D02A23012696
:105AA000FF33C35C300098400AF06AF92300FC33EE
:105AB000596B09F02DFC8321C90509F04FFA002824
:105AC00013D066556B461B7A05AA53706B461B7B39
:105AD00017709370635D8B21D370012320000093B6
:105AE0000333FFF78DFE07B0F0BD6055EAE743557D
:105AF000E8E77FB5089D02AC23712B0C63712B0A7C
:105B0000A37101230E0C26700E0AA170E27066705C
:105B1000E571220000938B210733FFF771FE04B07B
:105B200070BDF0B587B003930CAB1F780DAB1D783B
:105B30000E00290004000292FFF732FE002812D165
:105B400004AA330A13706B461B7B5670D3706B46E6
:105B50001B7A97701371012355718C2100932000DB
:105B60000533FFF74DFE07B0F0BDF0B58BB010ACBC
:105B7000267811AC24780393049412AC257813ACE6
:105B800024780B0A059414AC277807AC23706B4675
:105B90001B7B6170E3706B461B7DE271A3716B46EA
:105BA0001B7CA7702372012326716571220000936C
:105BB0008C210833FFF724FE0BB0F0BD1FB5012385
:105BC00003AC217062708F2100932200DB18FFF775
:105BD00017FE04B010BD1FB5012303AA1170009376
:105BE0009621FFF70DFE05B000BD10B50021FFF7AF
:105BF000F2FF10BD10B50121FFF7EDFF10BD1FB57D
:105C0000002303AA13800133009307210133FFF718
:105C1000F7FD05B000BD00000022F0B50F0087B011
:105C200011000600FFF7CAFF041E54D104AD2F7007
:105C300001272A0000973B008A213000FFF7E0FD92
:105C4000041E48D120232A002B70932100973B008B
:105C50003000FFF7D5FD041E3DD103232B702A230E
:105C6000FF33F35CA8800D336B700A23A8716B803F
:105C70002A000097033B88213000FFF7C1FD041E76
:105C800029D116493000FFF790FE230003900094BD
:105C9000220021003000FFF76FFE039B03431CB27C
:105CA000002C18D17F232A002B70892100973B00FC
:105CB0003000FFF7A5FD041E0DD10520FFF7D7FA30
:105CC0003300FC339B6A587CFFF7C4FA002802D0EB
:105CD000FFF7C9FAF4E7200007B0F0BDFF030000AA
:105CE00070B586B00AAC0BAD24782D7801930023F3
:105CF000044E0395049602940093FFF70BFC06B044
:105D000070BDC046881300001FB51E240B0003A9F8
:105D10000C801D3C009201940222FFF7E1FF04B0C9
:105D200010BD000030B589B00D000CA90C781F2102
:105D300069440D7002930023044D0192049503946D
:105D400000930122FFF7E6FB09B030BD8813000085
:105D50001FB5002303AC23800133009322000133DD
:105D60001321FFF7DFFF207804B010BD1FB500231B
:105D700003AC238001330093220001331221FFF78B
:105D8000D1FF237860781B02184304B010BD0000D7
:105D9000F7B5036801915B68050016009847041E7B
:105DA0001ED12800FFF7E2FF60232700184200D031
:105DB000073FFF2E05D12B6801219B6A28009847D9
:105DC0000600F2B201992800FFF79EFF041E07D1DA
:105DD00004492800FFF7E9FD0400002F00D03C0033
:105DE0002000FEBDFF0300001FB50F24FF236C44FD
:105DF0002370FE3B009322001121FFF793FF2078D0
:105E000004B010BD002330B587B0009302222649AC
:105E10000400FFF7B1FD051E22D1020001002000A1
:105E2000FFF7CCFE051E1BD120492000FFF7BDFD6A
:105E30002000FFF7D9FF012815D123002E2096223C
:105E40002100FC33FF30DB6D205C5200FE31098EF7
:105E5000DBB20090A25C01952000FFF762FE050016
:105E6000280007B030BD00281BD105300490FA305F
:105E700003904730205C442302904620FF30205C92
:105E8000A1220190A220A4214000205CFF335200F7
:105E900049000090E35CA25C615A2000FFF765FEB8
:105EA000DDE701256D42DBE762020000FF03000031
:105EB00070B504000D00FFF7A5FF00280AD12300EC
:105EC000FC3302000121986AFFF7E1F92900200064
:105ED000FFF708FD70BD000073B504000D1CFFF74F
:105EE00083FF0600012800D06EE00021281C09F085
:105EF00035F800281BD03649281C09F01BF800286B
:105F000015D0FC21281C890509F0DAFB0BF016FDE1
:105F1000304A314B09F074FF09F042F8C0B20F2843
:105F200042D00ED8052824D003D803281CD008203E
:105F30004BE0072821D00A28F9D1942309225B00DD
:105F400015E03E2838D007D8142831D01F28EED1CC
:105F5000942303225B000AE07D2831D0FA28E6D1A1
:105F6000942306225B0002E0942300225B00E254AB
:105F700006E0942308225B00F9E794235B00E654D3
:105F800023002C20FC335D63942295232A21FF30CB
:105F9000205C5B005200FF310090E35CA25C615C1E
:105FA0002000FFF76CFD76BD942302225B00DEE744
:105FB00094230A225B00DAE7942304225B00D6E7ED
:105FC000942305225B00D2E714204042EBE7C04651
:105FD0000000FF437B14AE47E17A843F37B50400ED
:105FE0000D00FFF701FF012813D16B1F072B13D8FA
:105FF0002A232C219422FF33E554FF31615C0133C5
:1060000052000091E35CA25C29002000FFF737FDFD
:106010003EBD14204042FBE70920FBE737B50500F1
:106020000C00FFF7E1FE012814D1631F032B14D8E5
:1060300095222C202A21231F5200DBB2AB54FF30C3
:10604000285C023AFF310090AA5C695C2800FFF7E7
:1060500016FD3EBD14204042FBE70A20FBE773B566
:1060600005000C001600FFF7BFFE012811D10F211B
:10607000230030098B430E40E821034301AA240189
:10608000137034430223C90028005470FFF730FB1B
:1060900076BD14204042FBE730B587B004000D0008
:1060A000FFF7A2FE012814D123000021FE331D8634
:1060B000023BDB6D01912E219622FF31615C520083
:1060C0000091DBB2A25C29002000FFF72AFD07B097
:1060D00030BD00281CD10521A42304915B00FA31B6
:1060E000E55203914731615C442302914621FF311F
:1060F000615CA1220191A2214900615CFF33520041
:106100000091E35CA25C29002000FFF72EFDDEE792
:1061100001204042DBE70000F7B504000D1CFFF74B
:1061200063FE002837D10021281C08F0F9FE002862
:1061300000D01B4D281C0BF001FC1A4A1A4B06001C
:106140000F0008F0D1FE002828D01849281C08F0BC
:10615000F1FE002822D00022154B300039000AF051
:1061600075FD83230022DB050AF070FD0022114B30
:106170000AF062F908F014FF2100A0234222FC314A
:1061800008645B000090FF32E35CA25CC96B2000F6
:10619000FFF7AFFCFEBD14204042FBE76620FBE7A3
:1061A0009A99193F333333333333E33F0000484385
:1061B00000408F4080847E4137B504000D00FFF71A
:1061C00013FE002820D1042D21D842222800FF32BE
:1061D00008F0D6FC03121416180000232100A35463
:1061E000A023FC31086C5B000090E35CA25CC96BEF
:1061F0002000FFF77EFC3EBD0823EFE70923EDE713
:106200000A23EBE70B23E9E714204042F3E76A2077
:10621000FBE70000F0B58BB0079310AB04000D0056
:1062200017001E78FFF7E0FD002851D1012D40D066
:10623000002D03D0022D44D0344838E0A1230122A0
:106240005B00E25405200490FA3003904730205C54
:10625000442302904620FF30205CA1220190A2201E
:10626000A4214000205CFF33520049000090E35C11
:10627000A25C615A2000FFF778FC002817D109AD15
:106280003B0A2B702A000223214920006F70FFF780
:106290002FFA00280BD1079B2A001B0A2B706B4694
:1062A0001B7F1C496B7020000223FFF721FA0BB003
:1062B000F0BDA1235B00002E01D00422C1E7E6540B
:1062C000C0E7A12306225B00002EBAD1E554B9E74E
:1062D000012818D196225200002D12D0A05423007C
:1062E00021000020FC33FE31DB6D098E01902E2051
:1062F000FF30205CDBB20090A25C2000FFF711FCB5
:10630000D5E7A554EBE701204042D0E743FDFFFF6E
:10631000BC060000BE060000F0B58BB004000D0006
:106320000792FFF761FD002850D14627FF37002D67
:106330001AD14423A122A42105300490FA30E55556
:1063400003904730FF3352004900205CE35CA25CBD
:10635000615A02900195A2204000205C009020002C
:10636000FFF703FC0BB0F0BD0126D72109ADE655C0
:1063700033002A00C9002000FFF78EF90028F1D170
:10638000079A2B781212B34316401E436B46D7214F
:106390001B7F2A006B70C900022320002E70FFF7BC
:1063A000A7F90028DED14423A122A42105300490BE
:1063B000FA3003904730205CFF330290E05D5200DA
:1063C0004900E35CA25C615A0190C4E7142040429A
:1063D000C8E780224B1E994110B5C9B25200FFF7A1
:1063E0009BFF10BDF7B5040000912600FFF7FCFCF1
:1063F000FC36012851D12A23FF33E55C2D48A84003
:1064000009F0BEFC2C49071C706B09F059F9011CFE
:10641000381C08F07DFF08F0ABFD6B1F0600012B58
:1064200038D800221927254BA9009E4202D92900FD
:106430003E3189002E23FF33E05CC9B24342434121
:10644000584214230340962001934000205C009B97
:106450004000C0184000451BAD00019BAD18ED1871
:106460002DB2281C002D00DA00204B1E00B2C018EF
:1064700008F01AFC95235B0082B2E05CFE34043025
:106480005043238E800008339B00DF19C7197743E0
:10649000B808FEBD08221127C5E7009BF56BD800A0
:1064A00068430BF019FA0022054B0AF0CFFB08F005
:1064B00077FDEEE710270000000020417F3E00003E
:1064C0000000503FF0B585B00293036804005B689C
:1064D0000E0017009847002867D1FF2F67D82000CB
:1064E000FFF782FC01282ED139002000FFF77AFF48
:1064F000032358434308019323683A00DD683100C1
:10650000029B2000A84700284FD1FEF7BCFE0500E3
:106510002600FC36B36AD87BFEF79CFE00281BD110
:10652000FEF7A1FEFEF7AFFE019B401B9842EFD99C
:1065300021492000FFF739FA236820005B6898475B
:106540000520404231E0002833D139002000FFF718
:1065500049FF05234343CEE7FEF795FE019038003F
:106560000BF0BAF90022154B0AF070FB019B029068
:106570000391581B09F004FC0BF0E0F90022104BCA
:1065800009F05AFF02000B000298039909F054FF2A
:106590000BF026FA084970652000FFF706FA00287C
:1065A00003D1236820005B68984705B0F0BD042044
:1065B000C7E70120C5E7C046FF03000000002040F8
:1065C00080842E41F7B56B46DC1D0023220023702A
:1065D000164901330500FFF75FF8002820D1280095
:1065E000FFF702FC01281CD12B00FC33586B0BF089
:1065F000A5F900220E4B0AF09BFD49004F080D4AF9
:106600000D4B390008F05CFC00280AD004222378E6
:10661000934323702200012304492800FFF768F800
:10662000FEBD042322781343F3E7C0468908000027
:1066300000407F40FCA9F1D24D62503FF0B505000B
:1066400087B00F001600FF2A75D8A2235B00C35C39
:10665000002B01D0FF2A6ED02800FFF7C5FB0128D0
:106660004AD129000020FE31098E01902E20962269
:10667000FF30285C52000090F3B2AA5C2800FFF7BC
:1066800050FA041E59D10090030001222D49280020
:10669000FFF772F9041E50D1020001002800FFF735
:1066A0008DFA041E49D10300F2B239002800FFF729
:1066B00097F8041E41D124492800FFF776F9041EFB
:1066C0003BD12800FFF77EFF041E36D12E00FC369A
:1066D00001000122B06AFEF7DAFD21002800FFF771
:1066E000F2F8041E29D1B36A587CFEF7B3FD0028E6
:1066F00023D0FEF7B8FDF6E7002821D1053004903D
:10670000F0B20390A3204000285C4423029046206E
:10671000FF30285CA1220190A220A4214000285C27
:10672000FF33520049000090EB5CAA5C695A2800D4
:10673000FFF71BFAA5E704246442200007B0F0BD70
:106740000124F9E701020000FF0300002E2373B5C6
:10675000FF33C35C0400012B02D01420404276BDFD
:10676000FFF742FB06000128F7D16B4692219A1DE4
:1067700000230901137003002000FEF7B9FF002871
:10678000EDD16B46DD1DD8712A0033000849200089
:10679000FEF782FF0028E2D102232A78044913433E
:1067A0002B702A0033002000FEF7A2FFD7E7C04677
:1067B00044090000F7B5036801915B680400150007
:1067C0009847002800D082E02000FFF70DFB012849
:1067D00047D12A23FF33E35C984009F0D1FA230024
:1067E000FC33596B08F094FD0BF0A8F800223F4BE6
:1067F0000AF02CFA00223E4B0AF028FA08F0D0FBEF
:10680000060009F0BDFA0BF099F80022394B09F0A7
:1068100013FE08F0C5FB01002000FFF749FB00282C
:1068200055D1FEF730FD07002300FC339B6AD87B6F
:10683000FEF710FD00283FD1FEF715FDFEF723FD02
:10684000C01B8642F0D22000FFF780FF2A492000BB
:10685000FFF7ABF8236820005B68984706204042AA
:1068600035E000283FD1281E00D1FF200BF034F87E
:106870000022224B0AF0EAF92300FC330600D86B11
:106880000F0009F07DFA0BF059F802000B00002010
:106890001B4909F0D1FD0BF0A3F80BF04FF80200F3
:1068A0000B003000390009F0C7FD0022154B0AF03B
:1068B000CDF90022144B9FE72E23FF33E35C012B1D
:1068C00006D023682A001B69019920009847FEBD65
:1068D0002000FFF789FA0128F3D12000FFF736FFE7
:1068E0000028EED0F3E70120B9E7C0460000594088
:1068F00000408F4000402F40FF0300000000204078
:106900008084CE4180842E41000014401FB50024B5
:10691000012303AA148017210093DB18FFF702FA62
:10692000200004B010BD0000F0B5036889B05B68BA
:10693000039004920E1C98470398FFF7E7FF830625
:1069400002D50398FFF75BF9700040080AF0F6FFE4
:106950005F4A604B08F0B4FA0590002805D0012189
:106960000398FEF7A1FD09B0F0BD301C0AF0E6FF68
:10697000594A5A4B04000D000AF0DAFB49004F084F
:10698000534A544B390008F09BFA002820D06A463D
:10699000127D07AB1A70049809F0F2F90AF0CEFFE5
:1069A00000224F4B09F048FD08F0FAFA07AA030C41
:1069B0005370030A9370039B0499FC339965012378
:1069C000D0709721009303980333FEF719FFCAE7AD
:1069D000444A454B200029000AF0AAFB49004F0811
:1069E0003B4A3C4B390008F06BFA002802D007AB59
:1069F0000122CFE73D4A3E4B200029000AF098FBD8
:106A000049004F08324A334B390008F059FA002840
:106A100002D007AB0222BDE72F4A364B20002900E7
:106A20000AF086FB49004F08294A2A4B390008F032
:106A300047FA002802D007AB0322ABE7294A2E4BC6
:106A4000200029000AF074FB49004F08204A214B1E
:106A5000390008F035FA002802D007AB042299E784
:106A60001D4A264B200029000AF062FB49004F080E
:106A7000174A184B390008F023FA002802D007AB58
:106A8000052287E700221E4B200029000AF050FB58
:106A900049004F080E4A0F4B390008F011FA002840
:106AA00002D007AB062275E7164A174B20002900D3
:106AB0000AF03EFB49004F08054A064B390008F032
:106AC000FFF9002802D007AB072263E70F484AE727
:106AD000FCA9F1D24D62503F9A9999999999F93F41
:106AE00000402F40333333333333FB3FCDCCCCCC5A
:106AF000CCCCFC3F99990140333303409999054030
:106B0000000008406666666666660A4041FDFFFF53
:106B1000F0B5050087B003930CAB1B78FC350493EC
:106B20000DAB1B88040002930FAB1B780F1CA86AE7
:106B3000002101920593FEF76DFBAB6A0021D87B23
:106B4000FEF75CFBAB6A0021587CFEF757FB6A46F8
:106B50002A231279FF336F63E2540422013BE2548B
:106B60006A4623001289FE331A8600220126AA658E
:106B700003329A85DE85FF233100EB652000FEF7A6
:106B800093FC00284AD1236820005B6898470028BE
:106B900044D131002000FFF73FF800283ED100210A
:106BA0000E9808F0D1F9002831D101992000FFF7A3
:106BB00015FA002832D1391C2000FFF78DF9002882
:106BC0002CD103992000FFF729FA002826D144226E
:106BD00004992000FFF743FA00281FD102992000F2
:106BE000FFF75AFA002819D10F492000FEF792FD4D
:106BF000002813D101212000FEF755FE00280DD1F9
:106C0000059B2000002B0BD0FEF7EFFF06E0074AA4
:106C10000E992000FFF788FE0028C6D007B0F0BD0F
:106C2000FEF7E8FFFAE7C046000070428813000054
:106C3000034B416003600023826083817047C0463C
:106C40003824010070B506000C008D18AC4207D046
:106C5000336821789B683000984720700134F5E74D
:106C600070BD7047704710B50400406804F022F909
:106C70000023237610BD10B5406804F08DF910BDD7
:106C8000F8B5050040680C0004F048F92B68E7B23D
:106C9000260A9B68012810D139002800FF27984751
:106CA0002B68BC4304439B683100280098470302CB
:106CB00020003840184380B2F8BD310028009847C2
:106CC000FF262B680002344004439B6839002800EB
:106CD0009847B4432043EEE710B5040006F0DCFA11
:106CE000200010BD10B54B1C0BD0102909D0EFF3BC
:106CF000108472B6102905DD02234376002C00D1E2
:106D000062B610BD0123427E1A43427618224A43DE
:106D10000449891816228A569340C2691343C361F5
:106D2000ECE7C046FC3801004B1C17D0102915D0E9
:106D3000437E9B0712D4EFF3108272B618234B43A5
:106D40000749C9180123897D49B28B40C16999431C
:106D5000C16100D14176002A00D162B67047C046B9
:106D6000FC380100437E002B05D09A0704D5837EB2
:106D7000002B00D062B67047DB07FCD5C369024A1E
:106D80009BB2D360F7E7C04600180040037E002B9B
:106D900004D143768376C3610133037670470000E4
:106DA0007FB5036902AE04000D00029172608B4250
:106DB00003D1828AB3889A4226D02000062231006D
:106DC00010300AF0FBFE606804F08BF87379E17A0A
:106DD000013B581E8341227B00936068002304F02E
:106DE0006BFA33790021013BDBB2022B01D8074A51
:106DF000D15C074B2A009D4200D91A00606804F05C
:106E000041F8606804F063F87FBDC046702401005B
:106E1000001BB70070B518260400FFF7B7FF33005A
:106E20000821207A0D4D4343EB18595606F09AFC81
:106E300033000821A07A4343EB18595606F092FC20
:106E40000821607A4643AD19695606F08BFC044B65
:106E5000200006CBFFF7A4FF70BDC046FC38010040
:106E60009807002007B5437E00910192002B07D0C0
:106E70009A070AD5EFF310835A425341837672B6CC
:106E80000099019AFFF78CFF07BDDB07F8D5C369AE
:106E9000014A9BB29360F3E70018004010B54068C8
:106EA000002903D1013104F025F810BD0021FAE7D3
:106EB00010B50300032908D8080007F061FE020797
:106EC000090B0021586804F047F810BD0121F9E7CB
:106ED0000221F7E70321F5E710B54068032900D840
:106EE000042104F021F810BD0E490F4B10B501220A
:106EF0000B6000234A710B710C490D480831016089
:106F00000C49427541600C49C27201811421036130
:106F100081720375094A0A490376037306F0D0FCAF
:106F200010BDC0469807002000093D0074240100F0
:106F300078070020840E00201215000000000020B9
:106F4000656C00007047030010B5C48A091B848A71
:106F50000E22805E4C431021595EE4130919C002D1
:106F600007F0A2FE001910BD70B50E001500084C08
:106F70007721200000F052F93100200000F06BFA78
:106F80002900200000F067FA200000F053F970BDDE
:106F9000A007002070B50D000E4C7721200000F0F6
:106FA0003DF92900200000F056FA200000F042F9D7
:106FB0002000772100F032F901227721200000F033
:106FC00027F9200000F0A0FA0500200000F032F9B7
:106FD000E8B270BDA007002070B50C00114D7721FC
:106FE000280000F01BF92100280000F034FA2800E6
:106FF00000F020F92800772100F010F90222772113
:10700000280000F005F9280000F07EFA84B228007C
:1070100000F07AFA2402044324B2280000F00AF9AE
:10702000A0B270BDA007002010B50B1C04000329FE
:1070300000D903232370224800F02CF9D02120002E
:10704000FFF7A8FF0023552837D1AA212000FFF71A
:10705000C3FFAC2160802000FFF7BEFFAE21A080FF
:107060002000FFF7B9FFB021E0802000FFF7B4FF58
:10707000B22160822000FFF7AFFFB421A082200080
:10708000FFF7AAFFB621E0822000FFF7A5FFB82195
:1070900020812000FFF7A0FFBA2160812000FFF7C8
:1070A0009BFFBC21A0812000FFF796FFBE21E0815D
:1070B0002000FFF791FF01232082180010BDC04679
:1070C000A007002010B504002E22F421FFF74CFF8A
:1070D000052006F08BF8F6212000FFF77DFF10BD9C
:1070E00010B50400FFF7EEFF01002000FFF72BFFB3
:1070F0000830001108F0FAFD014908F009F910BD47
:107100000000204170B504000278F421920134326D
:10711000D2B2FFF729FF23780520002B06D00820E4
:10712000012B03D00E20022B00D01A2006F05EF8AF
:10713000F6212000FFF750FFF82105022000FFF79D
:1071400029FF0823227828439B1AD84070BD0000ED
:10715000F8B50500FFF7B6FF06002800FFF7D2FFDD
:10716000310004002800FFF7EEFE234B2E78C018F4
:10717000020042430623E95E0827EB5F12134143F6
:10718000534349131B14C918802302311B02891071
:10719000C9186B8A59430A27EB5FC90B534304276D
:1071A000EA5FDB125043C0121B1802202A5E9200D5
:1071B0009B18B34003220233D8171040C3180F485E
:1071C0009B10F040E41A6043002810DB400007F0F9
:1071D000E1FC03125B430A4A5A430A4B121443432D
:1071E0001B149B18084A9B181B111818F8BD07F0B0
:1071F000D1FC4000EDE7C04660F0FFFF50C3000047
:10720000DE0B000043E3FFFFCF0E000000207047BD
:1072100010B503689C6B0123A04710BD8C2300228E
:107220009B00C154103BC3185A609A60DA60012376
:107230008375704710B5036801211B6B984710BD1B
:10724000F8B505000E0017000024BC4208D02B68DA
:10725000315D1B6828009847002801D00134F4E70D
:107260002000F8BDFC30406A704770478E239B00B9
:10727000C15070478D239B00C15070470300FC3301
:107280005A6A002A03D01B6AC018007E704701208A
:107290004042FBE770B5060018250C49006904F070
:1072A00055F8306903F092FE2B000821307D084C20
:1072B0004343E318595606F055FA0821707D4543BB
:1072C0006419615606F04EFA70BDC046A0860100F2
:1072D000FC38010070B504000D00006903F08BFE5E
:1072E0002900206904F032F8206903F06FFE70BDB8
:1072F00010B5006903F07FFE10BD0000F7B50193E3
:10730000FA238026002504009B008360134B76003F
:1073100008330F00456029000092036032001830E6
:107320000AF055FC23002000FC332530DD613200DB
:107330001D6229005D62FF300AF049FC88239B0032
:10734000E3185D609D60DD606B461B7827612375E7
:107350006B461B79A57520006375FEBDB024010046
:1073600070B506001825006903F0CBFF306903F003
:107370002DFE2B000821307D064C4343E31859565F
:1073800006F0F0F90821707D45436419615606F056
:10739000E9F970BDFC38010010B50022FFF7E0FFED
:1073A00010BD0300802210B5FC33DC68520094420B
:1073B00008D05A6881545A680132D2B25A60DA68E9
:1073C0000132DA6010BDF7B50400171E019302D137
:1073D00000252800FEBD03000022FC33DA611A629A
:1073E0005A620069013203F039FE061EF0D0230014
:1073F00020691833009303F0C4FE01000098FFF7E2
:10740000D0FF01252069BD4214D003F098FE00286A
:107410000FD0206903F002FE0221206903F008FE6C
:10742000206903F0AEFE01000098FFF7BAFF0135B6
:10743000E8E70600206903F0E8FD019B002B06D079
:10744000002E06D00321206903F0F2FDC1E7002ED3
:10745000BFD1013DBDE7002310B5827D9A420CD01B
:10746000882292008218D46880225200944204D06C
:107470002530FF30FFF795FF0123180010BD0300F2
:10748000FC33DA68002A09D09A68805C9A68013275
:10749000D2B29A60DA68013ADA607047012040425D
:1074A000FBE700228C2370B59B00827504000E0060
:1074B000C15C006903F0D2FD002806D103212069D8
:1074C00003F0B6FD0225280070BD88239B00E31859
:1074D000DD68002D11D020002530FF302569FFF731
:1074E000CEFFC1B2280003F0FBFD0028EDD103213F
:1074F000206903F09DFD0325E5E7002EE3D003217D
:10750000206903F095FDDEE710B51830FFF7B7FFEF
:1075100010BD70B50400006903F008FE002815D006
:10752000206903F01AFE002811D0206903F076FDCF
:107530000321206903F07CFD8E239B00E558002D7C
:1075400035D10023FC34E3612362636270BD20699E
:1075500003F00DFE002809D0206903F003FE002887
:1075600004D0206903F008FE0028DED0206903F073
:10757000FEFD002821D1206903F0EAFD0028E5D0B6
:10758000206903F0F9FD002833D088239B00E3181D
:10759000DB68FF21002B05D020002530FF30FFF7EE
:1075A0006EFFC1B2206903F0B3FDA075CEE723687A
:1075B00020001B699847A847C3E7206903F02EFD08
:1075C0002069032103F034FD206903F0D5FD002874
:1075D000BCD0882300229B00E3185A609A60DA60CE
:1075E0000123A3758D239B00E3589342AED09847A7
:1075F000ACE72300FC335A6A802320695B009A427F
:1076000006D103F002FD0321206903F011FD9DE77F
:1076100003F0B7FD010020001830FFF7C2FE20691B
:1076200003F0FCFCEFE7000010B50248FFF771FF24
:1076300010BDC046A007002010B51123102202493A
:107640000248FFF75BFE10BD7C0E0020A007002063
:1076500010B50368C9B21B68984710BD202302000B
:1076600003700023F43210B513808D224221920062
:107670008354344A8354344A83540A328350083240
:107680008154324A8354324A83540732FF32835042
:10769000043283502F4A81180E32FF328150043257
:1076A000835202222C4942542C4942540131435006
:1076B000043143502A4944181C31FF3144500431ED
:1076C000435228494254284942540131435004311D
:1076D0004350264944182B31445004314352244925
:1076E00042542449425401314354234942546421B1
:1076F000224A8154023283500432835401222049A9
:1077000042542049435420494254891843541F4944
:1077100042541F4943541F494254891843541E4937
:1077200042541E4943541E494254EA229200835255
:107730000371E62308219B00C21813798B43137150
:1077400010BDC046350200003602000049020000AC
:107750004A0200004B0200005E0300005F030000CD
:107760004D0200006E0300006F0300004D03000097
:107770007E0300007F0300008103000082030000FD
:10778000890300008A0300008B0300008D030000C2
:107790008E0300008F03000091030000920300009D
:1077A00093030000902310B59B00C058002802D01E
:1077B00003681B68984710BD704770B5050004004A
:1077C000EA20F4352B888000012B14D1C0260A0250
:1077D000B6003240225201332B802000FFF7ECFF2D
:1077E000EA239B002A88E35A9A4203D18D23002280
:1077F0009B00E25470BD022BEDD1225A0A4306329F
:10780000E8E7F0B58E2592260400AD004059B60099
:10781000036887B0DB6A0F00A15D9847FF216059BC
:10782000FFF716FF6059002103681B6B9847019012
:10783000002802D00C2007B0F0BD6059A15D03689C
:10784000DB6A98476059B52103681B6898476059FF
:10785000622103681B6898476059397803681B6880
:1078600098476059797803681B689847B9786059D8
:10787000FFF7EEFE798860590912FFF7E9FE6059BB
:10788000019903681B6B98470028D3D17B8803902C
:1078900001930596059A6059A15C0368019ADB6A19
:1078A000012A2AD96A4616792278B24200D9321CB6
:1078B000D2B20492984700266B461B8A6059029305
:1078C0000299B3B202688B4207D20399BB685B1876
:1078D000995D136898470136EEE7136B00219847CE
:1078E0000028A7D1029A039B944663449BB203935A
:1078F000019B9E1AB3B20193CCE79847019B012BE1
:1079000005D16059019A0368B9685B689847605966
:10791000397B03681B6898476059797B03681B684B
:107920009847605903685B6B9847002800D182E74D
:1079300080E7F8B58F2406000D00A4000059B5219A
:10794000036800271B6898473059622103681B6849
:1079500098473059297803681B68984730596978E7
:1079600003681B6898473059A97803681B689847D3
:10797000305969880368090A1B68984730596A8832
:1079800003681B68BA4204DDAA68D15D98470137D5
:10799000F4E7297B98473059697B03681B6898474F
:1079A000F8BD70B50E784D7848887519EDB22C1871
:1079B000E4B20212A218D3B20022751964190B7333
:1079C0001B194B7393B298420AD98B680C7B9B5C52
:1079D00001321B194C7BDBB20B731B194B73F1E7A4
:1079E00070BD0000044BC25C8918C9B2C154034B7E
:1079F000C25C8918C15470479603000097030000C9
:107A0000F8B53A4B0400C35C0F00002B6DD09125F4
:107A1000AD003749405905F00CFA3B78012B34D1C1
:107A20003449605905F005FA9125AD003249605995
:107A300005F0FFF93B88314A93423AD13049605909
:107A400005F0F7F99125AD002E49605905F0F1F9DF
:107A500079881022605905F058FAE0239B00E65C13
:107A6000002E39D12849605905F0E3F97B88605927
:107A7000B34235DD254905F0DCF9BB681022995D7C
:107A8000605905F05CFA0136F0E76059052B01D129
:107A90001F49C7E71F49062BC4D01F490A2BC1D075
:107AA0001E4905F0C6F939781022605905F047FAE9
:107AB000BAE71B4A6059934201D11A49C0E71A4AF2
:107AC0001A499342BCD0154905F0B3F979781022D0
:107AD000605905F034FAB5E71549605905F0A9F980
:107AE00091239B00E05805F0B1F9F8BD4902000070
:107AF0001A2701001F2701002F270100010700009E
:107B000034270100422701004B270100F520010026
:107B100023270100272701002B270100A6250100AC
:107B20000608000038270100060900003D27010073
:107B3000552701000A4B4118CB181878094B000251
:107B4000CB181B781B041843074BCB181B78184322
:107B500094239B00C9180B781B0618437047C04636
:107B60004E0200004F0200004D020000F8B50D78F3
:107B70000400012D03D0282D00D103E2F8BDFF2021
:107B80000B68E64A8343934200D021E100212000A4
:107B9000FFF7D0FF2300D033186000212000FFF74B
:107BA000C9FFFA21890007F07BF823007833198098
:107BB000DB4B2000E25CDB4B1202E35C0827134343
:107BC0002200703213802300D74A7233A25C102641
:107BD0001A7095229200A25C5A70D44AA25C9A70E4
:107BE000D34AA25CDA70D34AA25C1A7196239B0036
:107BF000E35C220019005B0880322B4029401170A1
:107C000053701021FFF796FF2300CB4AE067A25C78
:107C1000AD331A70C94B2200E35C8232190029404F
:107C2000117021005A082A4083310A7022009911EC
:107C3000AE325B0911702B402A3A1370992223004F
:107C40009200A25CAC331A7018212000FFF772FF7B
:107C500023008C3318601C212000FFF76BFF2300EA
:107C60008833186020212000FFF764FF2300903341
:107C7000186024212000FFF75DFF23009433186073
:107C800028212000FFF756FF2300983318602C218D
:107C90002000FFF74FFF23009C33186030212000A5
:107CA000FFF748FF2300A033186034212000FFF7BE
:107CB00041FF2300A433186038212000FFF73AFF6A
:107CC0002300A83318603C212000FFF733FF230076
:107CD000B033186040212000FFF72CFF2300B4339D
:107CE000186044212000FFF725FF2300B8331860F7
:107CF00048212000FFF71EFF2300BC331860904B83
:107D00005421E25C8F4B1202E35C200013432200FB
:107D1000C03213808C4BE35C2B409370FFF70AFF5B
:107D20002300C4331860894B0221E25C884B1202A5
:107D3000E35C202013432200C8321380AA239B0057
:107D4000E25C844B1202E35C13432200CA321380CC
:107D5000E62304229B00E35C2B430B4313433B438A
:107D600033430343001884460343C0380343E620EB
:107D7000800023542418202063782B430B431343A3
:107D80003B433343034360460343C03803436370BC
:107D9000A378A0302B430B4313433B4333430343AC
:107DA00060460343C0380343A370E378A0302B43FD
:107DB0000B4313431F4363463E4306431E4323794D
:107DC000A0381D43294330430A43E0702271D5E6B1
:107DD000614A93425DD104212000FFF7ABFE2300EE
:107DE000D033186008212000FFF7A4FE2300D83309
:107DF00018600C212000FFF79DFE2300D43318608B
:107E000010212000FFF796FE2300DC3318601421B8
:107E10002000FFF78FFE2300504AE0331860A25C79
:107E200012335A704E4A1C21A25C20001A704D4A2F
:107E3000023BA25CE8261A709A229200A25C0427F8
:107E40005A70FFF777FE2300E833186020212000E6
:107E5000FFF770FE2300EC3318600823B600A15D25
:107E6000A01942782943394319431A43DB181A43AE
:107E70000E3B1A430E330B4320213A4349422A4317
:107E80000B43A3554270E6229200A35C1D43A55408
:107E900074E6354A934200D070E6214BE25C214BF8
:107EA0001202E35C13432200F632138095239B00F9
:107EB000E25C1D4B1202E35C13432200F832138094
:107EC0001B4BE25C194B1202E35C13432200FA32B3
:107ED000138096239B00E25C164B1202E35C134373
:107EE0002200FC321380214B214AE35CA25C1B027E
:107EF0001A432300FE331A8097229200A15C1D4A88
:107F00000902A25C0A435A801B4AA15C1B4A09026F
:107F1000A25C0A439A801A4BE0542FE600075C00EB
:107F200052020000510200005302000055020000FE
:107F300056020000570200006102000062020000C9
:107F40009A020000990200009B020000A6020000B5
:107F5000A5020000A7020000001424006502000032
:107F60006602000067020000000412005A020000CE
:107F7000590200005B0200005E0200005D0200008A
:107F8000A2030000FF220B689343A24A934234D11C
:107F90000021FFF7CFFDD4235B00E0500821200033
:107FA000FFF7C8FDD6235B00E0500C212000FFF74F
:107FB000C1FDD8235B00E05010212000FFF7BAFD7F
:107FC000DA235B00E05014212000FFF7B3FDDC232F
:107FD0005B00E05018212000FFF7ACFDDE235B00C2
:107FE000E0501C212000FFF7A5FDE02301225B00EB
:107FF000E050E533FF33E254C0E5874A934253D162
:108000000821FFF797FDE6235B00E0500C212000DC
:10801000FFF790FDE8235B00E05010212000FFF700
:1080200089FDEA235B00E05014212000FFF782FD68
:10803000EC235B00E05018212000FFF77BFDEE23CE
:108040005B00E0501C212000FFF774FDF0235B0073
:10805000E05020212000FFF76DFDF2235B00E0508F
:1080600000212000FFF766FD0123E221020A1A40E9
:1080700049006254C621420A1A40FF316254820A02
:108080001A40C9186254C821C20A1A40FF3162540A
:10809000020B1A40C9186254CA22400BFF32184022
:1080A000A0545E4AA35469E59022D203934200D0C3
:1080B00064E50021FFF73EFDF4235B00E050584BE0
:1080C0000C21E25C574B1202E35C20001343F622C2
:1080D0005200A352544BE25C653BE2546633E25CCF
:1080E000F023FF33E254514BE25C653BE254504BCA
:1080F000E25CF223FF33E2544E4BE25C653BE25418
:10810000FFF718FDFC235B00E0504B4B1421E25CB1
:10811000613BE2542000FFF70DFD81239B00E050FE
:1081200018212000FFF706FD82239B00E0501C2150
:108130002000FFF7FFFC83239B00E050202120005C
:10814000FFF7F8FC84239B00E05024212000FFF778
:10815000F1FC85239B00E05029002000FFF7EAFC9A
:1081600086239B00E0502C212000FFF7E3FC8723AF
:108170009B00E05030212000FFF7DCFC88239B00AF
:10818000E05034212000FFF7D5FC89239B00E0500C
:1081900038212000FFF7CEFC8A239B00E0503C21D1
:1081A0002000FFF7C7FC8B239B00E05040212000FC
:1081B000FFF7C0FC8C239B00E0502833E35C0122D6
:1081C0001800F4211040FF316054FA205908114082
:1081D00040002154F6219B081340FF316354174B94
:1081E000FE21E35CFF31180010406054FF20590865
:1081F0001140400021549908114811402154D908D8
:108200001140801821541B090E49134063540E4B32
:10821000F1E6C0460001200000022400A503000092
:1082200052020000510200005302000055020000FB
:1082300056020000570200005D0200005E020000CE
:10824000FF01000001020000A6030000F7B51500C1
:108250000222009308AB1E78994B0400C35C0F0008
:108260000192002B02D10133FF3301936B88AA885E
:108270000333934203DB39002000FFF7B3FBAB88E5
:10828000002B02D12F70002671E0012B01D16F70FD
:10829000F9E7022B01D16F80F5E76A88032B03D140
:1082A0003F023A436A80EEE7111D8B4201D12F73E2
:1082B000E9E70532934200D089E18D2300226F73F4
:1082C0009B00804FE254A889E15B2B78884200D064
:1082D0001CE10132AA73009A934268D16A78B242D3
:1082E00065D10123EB73784BE35C002B36D09126EC
:1082F000B6007649A05904F09CFD0A226988A0596D
:1083000004F003FE7249A05904F093FD29002000F7
:10831000FFF776FBAB7B012B03D16E49A05904F02C
:108320009DFD6D4BE35C012B05D191239B006B49B7
:10833000E05804F093FDEB7B012B05D191239B00CA
:108340006749E05804F08AFD664BE35C012B05D1D8
:1083500091239B006449E05804F080FDE0239B00DA
:10836000E65C002E8FD129002000FFF7FFFBAB88D1
:1083700001339BB2AB80002E03D180225200934286
:1083800014D18D2300229B00E2544F4BE35C9342B7
:1083900003D1564BE35C934208D091239B00E058F5
:1083A0005349002E00D1534904F058FDF7BD062172
:1083B0002A88FF318A422CD1AA680098117881421C
:1083C00003D15278B24200D18BE7009A934200D099
:1083D00089E76B78072B44D1320009339A43042A8A
:1083E00000D080E7384BE35C002BB7D0912742499F
:1083F000BF00E05904F01DFD10223100E05904F0E7
:108400009EFD3E49E05904F014FD69781022E059C0
:1084100024E0052AD9D1AA68009811788142D4D1E4
:108420005278B242D1D10323EB73274BE35C002B8C
:1084300000D193E79126B6003149A05904F0F9FC28
:10844000AB6810221978A05904F079FD2D49A05984
:1084500004F0EFFC1022AB68A059597804F073FDCA
:1084600041E7142B05D1072EBCD0042E00D03AE7EB
:10847000B8E7042B05D1072EB4D0142E00D032E774
:10848000B0E7012B0DD1320001339A4300D02AE727
:108490000D4BE35C002B00D160E791271A49BF0028
:1084A000A7E7022B03D1012E00D91CE7F0E7002B30
:1084B00000D018E7731E012B00D914E7E8E7C04687
:1084C000810300009603000049020000F625010028
:1084D00007260100132601005E0300002726010085
:1084E0003B2601005F030000552601004A02000000
:1084F000CD260100F126010067250100A925010014
:108500003825010097250100B9250100AA73009ABA
:10851000934251D16A78B2424ED10023EB73394B6A
:10852000E35C002B04D1384BE35C002B00D1AAE6BE
:108530009126B6003549A05904F07BFC3449A05976
:1085400004F077FC297B0A22A05904F0F8FC314999
:10855000A05904F06EFC697B0A22A05904F0EFFCDC
:108560002D49A05904F065FCE15D0A22A05904F0F0
:10857000E6FC2A49A05904F05CFC294B0A22E15C84
:10858000A05904F0DCFCA05904F060FC2549A05976
:1085900004F04FFC2449A05904F04BFC69880A22DE
:1085A000A05904F0B2FC2149A05904F042FC290072
:1085B0002000FFF725FA66E6052BB0D1AB680099DD
:1085C0001A788A42ABD15B78B342A8D1A5E71849A3
:1085D0002888EA88884200D10022E0218900665C70
:1085E000002E00D04FE6D91E914200DC4BE6043B42
:1085F0009B1A019A934202D2AA68D754B7E6012681
:10860000B5E6C046490200004A0200006F2601009C
:10861000802601008D2601009A260100AE26010069
:1086200097030000C2260100002601000726010072
:1086300001070000F0B587B003930CAB1F788D23C2
:1086400002929B00C25C04000D00012A0ED8B529DD
:1086500026D1E5210022890042520221C154413332
:10866000FF33C2520C33C254B54BC1548D22920019
:10867000A15C022900D099E1E5239B00E35A002B7D
:108680001AD1B52D01D00023A354AD4BE35C012BCF
:1086900000D077E1D422039B00979200A21876E1E4
:1086A0000122242906D0D329E0D102000021F4328E
:1086B00011800322E254D9E7012B02D1622DE2D1CD
:1086C000E3E7022B0ED1DC229200A55400229D4943
:1086D0006252223962529C4AA354029BDA889B4B15
:1086E000E252D2E7032B00D07FE0DC23984A9B00C4
:1086F000A554E35C052BC8D00399994243D1BD42F0
:108700000ED100238E4963546946029B097B197080
:10871000A35C029A5370DD239B00E35A9380B4E775
:10872000072D2AD110223900914304292BD1002290
:1087300083496254029A1370854BE35C5370DD23C6
:108740009B00E35A9380834BE35C002B9DD09126E2
:108750008149B600A05904F06CFB10223900A059E1
:1087600004F0EDFB7D49A05904F063FB784B102227
:10877000E15CA05904F0E7FB87E7142D08D1072F2F
:10878000D5D0042FD3D0E02301229B00E2547CE714
:10879000042D04D1072FCAD0142FF4D1C7E7012D1F
:1087A00018D1022239009143EDD10022644962546C
:1087B000029A1370664BE35C5370DD239B00E35A0F
:1087C0009380644BE35C002B00D15EE79126644903
:1087D000B600BFE7022D02D1012FD4D8E5E7002D66
:1087E000D1D17A1E012ACED8DFE7042B02D15D4B0E
:1087F000E5524AE7052B05D15A492A02635A134329
:10880000635242E7062B27D1564BE35A002B1ED169
:10881000504BE35C002B16D09126B6005249A0596C
:1088200004F007FBDC239B00E15C1022A05904F05C
:1088300086FB4E49A05904F0FCFA454B1022E15C3E
:10884000A05904F080FBDF239B00E5541DE7DE23E5
:108850009B00E3581D7018E7072B00D015E7414A2D
:10886000A35A0492002B36D1414BE554344BE35CC0
:10887000022B00D009E7DC239B00E15C052900D036
:1088800090E00833E35803981A78824200D089E0D8
:108890005A78BA4200D085E0049AA25A022A24D11A
:1088A0000120274EA055D420800021542849605C27
:1088B0003049605430496252DD229200A15A203A78
:1088C000A1520432A1581B780B70A3582032A25831
:1088D00052785A70D9E6012B02D1DF239B00C4E7FE
:1088E000DE239B00E3585D70C0E71A4BE35C002B6E
:1088F00058D09126B6002149A05904F09AFADE23F7
:108900009B00E258A05905921178102204F017FB41
:108910001649A05904F08DFADE239B00E35810227B
:108920005978A05904F00BFB1549A05904F081FABD
:10893000049B0A22E15AA05904F0EBFAA5E6C046CE
:1089400081030000960300007E0300007603000010
:108950007103000049020000CA2C0100A925010092
:10896000092D010072030000432D0100A125010023
:108970007D0300005103000052030000732D01002D
:10898000A32D0100002B0DD1039B029A0097290013
:108990002000FFF75BFCE5229200A35A0133A352AB
:1089A00007B0F0BD0097039BDC2276E6012904D1D5
:1089B00029002000FEF7F6FEF2E70329F0D1290096
:1089C0002000FEF7FAFEEBE7F0B587B00400059350
:1089D0000391049204F0D4FBE1239B00E358C01AF6
:1089E000764BE35C984200D2D3E08E269225B60007
:1089F000A059AD000368615DDB6A9847FD21A0596D
:108A0000FEF726FEA059002103681B6B984700283B
:108A100002D0002007B0F0BDA059615D03680222BA
:108A2000DB6B9847A05903681B699847002805D15C
:108A3000634BE35C002B1BD0624914E0A059036830
:108A40005B6998470500A05903685B699847C0B205
:108A5000FF2813D15A4BE35C002B03D15A4BE35C44
:108A6000002B05D0594991239B00E05804F0F6F9FA
:108A700004F086FBE1239B00E050CAE72D02284367
:108A800000B285B2002DD3D0002814DA4C4B6D040F
:108A9000E35C6D0C002B03D14B4BE35C002B7AD0D5
:108AA0009126B6004A49A05904F0C3F90A222900C8
:108AB000A05904F02EFA642D6FD9414BE35C002BD2
:108AC0000ED09126B6004349A05904F0B2F929000E
:108AD0000A22A05904F019FA3F49A05904F0BEF93E
:108AE0008E27BF00002D54D09223E0599B00E15CFB
:108AF0000368DB6A9847FF21E059FEF7A9FDE059BA
:108B0000002103681B6B9847002800D081E722787A
:108B1000131CAA4200D92B1C9BB202939223E0594A
:108B20009B00E15C0368029ADB6B9847E05903689D
:108B30001B699847002800D16BE70026029B9E42E4
:108B400024D0E05903685B699847C1B2002E13D165
:108B50007F2911D11A4BE35C002B03D11A4BE35C44
:108B6000002B05D091239B001C49E05804F076F9B6
:108B7000052004F03BFBD1E7059B039A00932000FE
:108B8000049B0136FFF756FDB6B2D7E7AD1BADB279
:108B9000A8E701203EE7642DA2D8094BE35C002B37
:108BA0009ED09126B6000E49A05904F042F9290042
:108BB0000A22A05904F0A9F90A498EE782030000AD
:108BC00049020000162801004A020000E8270100BF
:108BD0003E2801006428010084280100AC2801001F
:108BE00094280100861E0100F0B58F2504001600B0
:108BF0001F0085B00391AD00605903681B69984759
:108C000000280BD0605903685B6998470097C1B290
:108C10003300039A2000FFF70DFDEDE7012005B0BA
:108C2000F0BD000070B504000748255C002D03D19D
:108C30002000FFF7C9FE70BD0020012DFBD12000F0
:108C4000FFF7D2FFF7E7C04636020000F0B585B067
:108C50001F000AAB1B881600039302238B4A8B73F9
:108C600083548B4A040083548A4ACB7383548A4AC0
:108C70000D00835404F084FA864B0090019304F0B5
:108C80007FFA009BC01A039B984200D3B2E03B00DE
:108C9000320029002000FFF7C5FF002800D1A4E022
:108CA000019BEA7BE35C012A26D1012B5ED1A87BE4
:108CB000297801283DD1B1423BD16878B84238D1FA
:108CC000764BE35C002B03D10B25280005B0F0BDEB
:108CD00091257349AD00605904F0ABF8665904F072
:108CE0004FFA009B0A22C11A300004F01CF96D49AA
:108CF000605904F0B3F8E7E7022A28D1012B35D1F7
:108D0000664B0A25E35C002BDFD091266649B6004E
:108D1000A05904F08EF8A75904F032FA009B0A22F9
:108D2000C11A380004F0FFF85E49A05904F096F823
:108D3000CBE7B14202D16978B9420AD0574B0D2531
:108D4000E35C002BC1D091265849B600E0E7012B27
:108D50000CD1E989002900D087E0504B0225E35C63
:108D6000002BB2D091265249B600D1E7032B08D18F
:108D70004A4B0425E35C002BA7D091264D49B60051
:108D8000C6E7012A73D1002B11D1AB7B012B2CD16B
:108D90002B78B34229D16B78BB4226D13F4BE35CA1
:108DA000002B00D190E791254349AD0093E7022BBA
:108DB0001BD13A4BE35C002B17D091239B003F491A
:108DC000E05804F036F891239B00E258029204F038
:108DD000D7F9009A811A0A22029804F0A4F8912384
:108DE0009B003749E05804F039F8FA20400004F0BD
:108DF0001FFA44E7294BEA7BE35C012A20D1019A60
:108E0000A25C022A1CD1AA7B012A19D12A78B2427B
:108E100016D16A78BA4213D1002B00D154E79125BC
:108E2000AD002849605904F004F8665904F0A8F927
:108E3000009B0A22C11A300004F075F8224957E756
:108E40000325002B00D140E79126B6001F49A05909
:108E500003F0EFFFA75904F093F9009B0A22C11A0F
:108E6000380004F060F81A495FE7012ABDD0002AF3
:108E7000BBD1002BB9D1094B0125E35C002B00D1FC
:108E800023E791261349B60042E7C0465E0300007F
:108E90007E0300005F0300007F0300004902000022
:108EA000E428010021290100272901005829010097
:108EB0008A290100B0290100EB2901006B2A010079
:108EC000912A0100A92A0100DC2A0100E42A0100FC
:108ED000072B01002A2A0100F7B51E0008AB1B88EA
:108EE0001700019302233F4A8B7383543E4A0400C8
:108EF00083543E4ACB7383543D4A0D00835404F09F
:108F00003FF9009004F03CF9009BC01A019B984285
:108F100051D233003A0029002000FFF783FE0028D9
:108F200044D00223EA89FF339A421FD12B78BB42F7
:108F30001CD16B78B34219D12E4B0B25E35C002B6F
:108F400012D091262C49B600A05903F072FFA75900
:108F500004F016F9009B0A22C11A380003F0E3FF5F
:108F60002649A05903F07AFF2800FEBDEB7B012BB8
:108F70000ED12B78BB4202D16B78B34216D01D4B79
:108F80000D25E35C002BEFD091261D49B600DBE7F1
:108F90001C498A420AD0002B08D1164B0225E35CFB
:108FA000002BE1D091261849B600CDE7FA20400009
:108FB00004F03EF9A6E70F4B0325E35C002BD3D06A
:108FC0009126B6001149A05903F033FFA75904F0C8
:108FD000D7F8009B0A22C11A380003F0A4FF0C49FD
:108FE000BFE7C0465E0300007E0300005F03000091
:108FF0007F030000490200000E2B0100212901001F
:10900000482B0100010200007C2B0100B52B010060
:10901000DA2B0100F0B5040085B017000D00FEF753
:10902000C0FC2A4BE25C0393002A08D0053B284988
:10903000E05803F0FEFE29002000FEF7E1FC254B7E
:10904000E35C002B13D13A0029002000FEF7D9FB86
:10905000061E12D0039BE35C002B05D091239B00DE
:109060001D49E05803F0FAFE300005B0F0BD012BB9
:1090700003D129002000FEF75CFC0026B742F3D0A4
:10908000039B2A78E35C062A10D1B34205D09123D2
:109090009B001249E05803F0E1FE6B782A780097B4
:1090A00029002000FFF7D2FD0600DDE7002B05D0E8
:1090B00091239B000A49E05803F0D0FE6B782A7890
:1090C000009729002000FFF707FFEDE749020000A5
:1090D0006727010036020000722701008A2701007D
:1090E000B0270100F8B5154B0500C45C0E00002C3C
:1090F00013D0D823124A9B00EA500022114B2800BB
:10910000EA52063BE9183200FFF784FFFD240B38D2
:10911000204044426041C0B2F8BD8E279223BF0078
:10912000C0599B00E95C0368DB6A9847E85903680B
:109130005B6B98470028DCD02000EDE7360200008A
:10914000060800006603000010B5040000200C4B68
:10915000E0540233E1501033E2540A492000FFF793
:10916000C1FF002801D0012010BD06492000FFF7F3
:10917000B9FF0028F7D103492000FFF7B3FFF3E759
:10918000360200004C040000F8B5D8230A0010494C
:109190009B00C15000230F49DA24435219000E4EA0
:1091A000A400875B0559BB4203DAE9540133DBB203
:1091B000F7E7FF232B7101594B71D8239B00C1188E
:1091C000FFF728FF0A3843425841C0B2F8BDC046F5
:1091D00006090C006603000062030000D82310B5E6
:1091E000084C9B00C4500024074BC452074BC15489
:1091F0001433FF33C118FFF70DFF0B3843425841BA
:10920000C0B210BD06000100660300004D02000060
:1092100070B516001A0004001D00FFF7DFFF0028DC
:1092200013D0D823094A9B00E2500022084B2000AB
:10923000E252084B2A00E6540633FF33E118FFF7E9
:10924000E9FE0A3843425841C0B270BD060014001E
:10925000660300005B02000010B513000A00002145
:10926000FFF7D6FF10BD10B513000A000121FFF76C
:10927000CFFF10BD10B513000A000221FFF7C8FF91
:1092800010BD0000F8B50400FA200F00800089002E
:10929000160005F009FD134B134AE054223BE2503F
:1092A0000022124B2000E252063BE5183200290052
:1092B000FFF7B0FE030000200B2B12D1FA2039007B
:1092C000800005F0F1FC0A4B3200E054094B00121B
:1092D000E05429002000FFF79DFE0A384342584120
:1092E000C0B2F8BD8203000006080000660300005B
:1092F0004D0200004E020000D82370B500240A0081
:109300000C499B00C1500C4B0500C452063BC118D0
:10931000FFF780FE0B280AD1FA20084B084AEB5CC5
:10932000A95C1B021943800005F0BEFCC4B22000FA
:1093300070BDC04606080000660300004E02000033
:109340004D020000D823F7B500241700134A9B00F4
:10935000C250134B0191C452063BC6183A0031006B
:109360000500FFF757FE0B2816D101220D4B3100E7
:10937000EA546A460C4B1279EC540C4B2800EA5420
:1093800024220B4BEA52064B3A00EC52FFF742FE06
:109390000A3844424441E4B22000FEBD06240000E5
:1093A000660300004D0200004E0200004F02000064
:1093B00062030000D8230A0009499B0010B5C15080
:1093C0000021084B0400C152063BC118FFF722FEE2
:1093D000FF230B2801D1044BE35C180010BDC046ED
:1093E00006240000660300004F020000F8B5E223E7
:1093F0009B00C55C3B4F04000E00C35D002D24D0D4
:10940000394A855C002D15D0002B05D091239B0097
:109410003649C05803F022FDD8239B00E1180122F1
:1094200007232000FFF7FEFB314BE55C6D07ED0FD6
:109430002800F8BD002B01D10025F9E72D49912323
:109440009B00E05803F00AFDF2E7002B05D09123C2
:109450009B002949C05803F001FDD8229200110059
:10946000264B6118A35020003200FFF7D3FD060001
:109470000B282AD0E75D0D2815D1D8239B00E35C8B
:10948000012B0AD11D00002FD2D091239B001C4933
:10949000E05803F0E3FC3D00CAE7282B17D1002F6A
:1094A000CAD01849CBE7002FC6D09127BF00164974
:1094B000E05903F0BEFCE05914490D2E02D8144BBC
:1094C000B600F15803F0D4FCB2E70125B0E7002F55
:1094D000B2D09127BF000C49E05903F0AAFCE05933
:1094E000EDE7C0464902000089030000F52B0100AA
:1094F000990300000B2C0100242C0100010700003F
:10950000342C0100782C0100BA2C0100D92701006D
:109510000025010010B5084B0400C35C7F2B01D867
:10952000FFF764FFE6237B219B00E2185378883421
:109530000B405370206810BD9903000010B5084B14
:109540000400C35C5B0601D4FFF750FFE623BB2198
:109550009B00E21853788C340B405370206810BD88
:109560009903000010B50A4B0400C35CDB0701D46B
:10957000FFF73CFFE62301219B00E3189A78903423
:109580008A439A705A7803318A435A70206810BD12
:109590009A03000010B50A4B0400C35C7F2B01D86E
:1095A000FFF724FFE6237F219B00E3189A78AC3471
:1095B0000A409A705A787B398A435A70207810BDD5
:1095C0009A03000010B50A4B0400C35CDB0701D40A
:1095D000FFF70CFFE62301219B00E318DA78AD3496
:1095E0008A43DA705A7803318A435A70207810BD62
:1095F0009B03000010B50A4B0400C35C5B0701D459
:10960000FFF7F4FEE62304219B00E318DA78B03478
:109610008A43DA705A788A435A70206810BDC0466F
:109620009B03000010B50A4B0400C35C1B0701D468
:10963000FFF7DCFEE62308219B00E318DA78B43458
:109640008A43DA705A7804398A435A70206810BD08
:109650009B030000192343700F3B837001700029A6
:1096600001D1427070470129FCD18270FAE710B530
:109670000400FFF7EFFF02233222FF33A380638150
:109680000023E280D0322281EE3A2000A381A2732F
:109690002382638210BD0000030010B51B7A08000E
:1096A000042B12D003D8022B09D000200CE0082B89
:1096B0000FD0102BF9D106F019FB084902E006F093
:1096C00015FB074905F024FE10BD06F00FFB054908
:1096D000F8E706F00BFB0449F4E7C0460000A0449D
:1096E00000CC79460000F54500B07245F7B500930F
:1096F000037807000C001500002B03D0012B25D0A8
:10970000002548E0254E41783000FDF787FD802197
:1097100030002943FDF79FFE3000FDF78BFD01254A
:10972000002838D17978009A3000FDF771FD009B50
:10973000E5183000FDF796FD0028E1D0AC42DFD0FF
:109740003000FDF7E1FE20700134F2E7807800215F
:1097500003F0C4FFC02100262943114D2800FDF766
:109760008AFA009BE3180193019B9C420AD00021D6
:109770002800FDF780FAFF2801D10136F6B22070EB
:109780000134F1E7009B00259E4200D10535B878F1
:10979000012103F0A3FF2800FEBDC046A007002062
:1097A0007807002037B50C0001AD29000223FFF730
:1097B0009DFF6A782B781202134323803EBD37B594
:1097C0006B469D1D282229000400FFF7EBFF0028AF
:1097D00004D0052805D1238A013323820023E85EC3
:1097E0003EBD638A01336382F8E710B50400FFF7DA
:1097F000E6FF01002000FFF74FFF10BD37B56B46B5
:109800009D1D2A2229000400FFF7CCFF002804D068
:10981000052805D1238A013323820023E85E3EBD5B
:10982000638A01336382F8E710B50400FFF7E6FFAF
:1098300001002000FFF730FF10BD37B56B469D1DBE
:109840002C2229000400FFF7ADFF002804D00528D2
:1098500005D1238A013323820023E85E3EBD638A5B
:1098600001336382F8E710B50400FFF7E6FF01005B
:109870002000FFF711FF10BDF7B505780700019133
:109880001400002D03D0012D1FD0002434E01C4D06
:1098900041782800FDF7C2FC21002800FDF7DBFD20
:1098A0002800FDF7C7FC441EA0417978C4B201220C
:1098B0002800FDF7ADFC2800FDF7D4FC00281BD0E4
:1098C0002800FDF721FEC6B2F5E78078002103F0FD
:1098D00005FF80210B4E21433000FDF7CCF900211C
:1098E0003000FDF7C8F929000600B87803F0F6FE4D
:1098F0000024FF2E00D10534019B20001E70FEBD08
:10990000A00700207807002073B505780400002D1B
:109910001BD0012D1DD06B46991D00230B70194BD8
:109920000A78013B0132D2B29BB20A70002BF7D108
:109930006B46DD1D29000F222000FFF79DFF2878D0
:109940003338431E9841C0B276BD0F48FDF7A2FCE4
:10995000E1E72900807803F075FE2900A07803F084
:10996000BDFE0A4E3000FDF755FA30000C21FDF720
:10997000B3FA29003000FDF791FA03213000FDF71A
:1099800097FAC8E710270000A007002078070020FA
:10999000F8B5057804000F001600002D03D0012D46
:1099A00015D0002012E0124C41782000FDF736FC63
:1099B00039002000FDF74FFD31002000FDF74BFD81
:1099C0002000FDF737FC431E9841C0B2F8BD8078F7
:1099D000002103F083FE39000648FDF74CF9310001
:1099E0000448FDF748F9A078290003F077FED8E78E
:1099F000A00700207807002070B5402504004279B8
:109A000003799201DB012A401A43D2B21F21FFF7EA
:109A1000BFFFE388322B09D029D8203D0A2B05D07F
:109A20001035192B02D0203D012B27D10423022011
:109A30000121E27A92001A40A37A5B0003401A43A4
:109A4000637A2A430B401A431F312000FFF7A0FF1F
:109A5000237A3022023BDBB2062B01D80D4AD25CBE
:109A6000882323211A432000FFF792FF70BD602551
:109A7000C82BDBD004D8103D642BD7D07025D5E798
:109A8000C8228025D2009342D0D0034A1035934299
:109A9000CCD0F3E77B2E01008813000070B50400E2
:109AA000FFF732FF05002000FFF7A6FF280070BD7A
:109AB0007047F0B500291BDB0C25445F8C4217DD95
:109AC000002A15DB0E25445F944211DD847E022CB2
:109AD0000FD0032C16D0012C04D1D2430489A41832
