:1040000000800020F5DE0000DDDE0000DDDE0000C7
:1040100000000000000000000000000000000000A0
:10402000000000000000000000000000DDDE0000D5
:104030000000000000000000DDDE000049DF00009D
:10404000DDDE0000DDDE0000DDDE0000DDDE000084
:10405000C9D80000DDDE0000DDDE0000E1DE00008A
:10406000DDDE000049B80000DDDE0000DDDE00001E
:10407000C5870000DDDE000059B80000DDDE00006D
:10408000DDDE0000DDDE0000DDDE0000DDDE000044
:10409000C5BE0000DDDE0000DDDE0000DDDE00006C
:1040A000DDDE0000DDDE0000DDDE0000DDDE000024
:1040B0000000000010B5064C2378002B07D1054BFB
:1040C000002B02D0044800E000BF0123237010BD84
:1040D0002802002000000000005A0100044B10B527
:1040E000002B03D00349044800E000BF10BDC046C8
:1040F000000000002C020020005A0100034B1B7836
:10410000002B02D00122024B1A70704704000020DD
:10411000800A0020002905D07F220B7A93430028D3
:1041200001D10B727047042213430B720860F9E748
:1041300010B50023884207D0984207D001330029E8
:1041400002D00EF09DF80300180010BD01235B4261
:10415000FAE70A21435E0200181E01D01B01D018A5
:10416000704770B50D00041E09D0C1682800FFF724
:10417000DFFF002803D02000FFF7EBFFF3E720006C
:1041800070BD01604160002900D089180023816062
:10419000C160037470474A688B681032934204D23E
:1041A00001230B74002318007047103B8B60002B19
:1041B000F9D04268002A08D0991A091151810022C9
:1041C00043605A811A72DA60EDE70360F7E7021E76
:1041D00007D07F21037A00200B40043B012B00D83D
:1041E00010687047F7B5037804000D002B2B1DD025
:1041F0002D2B1CD10127013423781A00303A092ACB
:1042000002D92E2B00D0C9E000200A26644922786A
:104210001300303BDBB2092B0BD8884211D8DA43AC
:10422000704382420DD3C0180134F0E701340027F7
:10423000E2E7002A05D1002F18D080231B06984200
:1042400009D90026574B98421AD90A2101360AF09B
:104250003BFA76B2F6E77F222B7A404293431A006C
:104260000A2313432B7228603800FEBD7F222B7A6D
:10427000286093431A00082313432B720127F3E7A6
:1042800023781A00303A092A03D8013676B201346D
:10429000F6E72E2B0FD10A21434A01342378303B15
:1042A000DBB2092B07D8904203D84843013E1818C7
:1042B00076B20134F2E7202322789A430023452A7C
:1042C0003AD162782D2A1FD10234013301930023A1
:1042D00021783039CAB2092A2AD80A225343CB1886
:1042E000F118262922DD019A2B7A7F20002A11D08D
:1042F0000024002F01D0802424060C2183430B438B
:104300002B722C60019FAFE72B2A01D00134DDE72F
:104310000234DBE7002F06D024490C2283431343E9
:104320002B722960AAE7FF21C905F6E70134CFE720
:10433000019A002A00D05B422478002C2ED1F61876
:104340000BF0B8FA002E1ADD01231E4204D0184AE1
:10435000A300D1580AF04EFF01347610E4B2002ECB
:10436000F2D1002F02D080231B06C0187F222B7AA7
:10437000286093431A000C2313432B727EE7764286
:10438000002EEED001231E4204D00A4AA300D158C9
:104390000AF030FF01347610E4B2F1E7002763E75A
:1043A00099999919FFFF7F00CBCC0C00000080FF8A
:1043B000C0390100A8390100426810B5002A08D0B0
:1043C0008368C468A34205D30023012243600368C5
:1043D0001A7410BD5C1C8460D154FAE710B51D201E
:1043E00009F0B4FF04001D2009F0B0FF24181D20BF
:1043F00009F0ACFF20180BF013FA0E490AF022FD69
:104400000D490AF0F7FEEA2189050AF0F3FE0B498F
:104410000AF018FD0021041C0AF01CFB002807D13B
:104420000749201C0AF02AFB002801D1201C10BDDE
:104430000024FBE70000404033335340CA261B3EB4
:1044400033334B4170B5FFF7C9FF24490AF0D2FE60
:104450000AF028FB224B1870224B1B78002B35D01A
:10446000214C6421200007F0EBF8204D002832D0C9
:104470001F49200007F0D0F900282CD01C4920004B
:1044800007F0B2F9032826D91949200007F06CF982
:10449000184B17491860200007F07AF9164B144999
:1044A0001860200007F088F9144B98420FDB144B7A
:1044B00098420EDCFA2189000AF090F900B2114B03
:1044C0000B491880200007F08FF9287070BD0E4846
:1044D000F5E70E48F3E700232B70F7E70000A04153
:1044E000DE050020D5020020E0050020980900200C
:1044F0004C040000900900209409002019FC0BFED8
:10450000FFFFF301DC0500200080FFFFFF7F0000BC
:104510000023F7B5144F05003A780C009A4201D0F9
:10452000124B1B68009300239A4201D0104B1B686A
:104530002E1969463000042201930DF0E5F8201D84
:10454000281801A904220DF0DFF8200008302818EF
:10455000022208490DF0D8F820003B780C30B372E5
:10456000054B1B78F372FEBD9809002090090020CE
:1045700094090020DC050020DE0500203E4B73B5C9
:104580001B78002B72D03D4C200004F0ADFA0121C5
:10459000200005F026FA00232361394B3949636175
:1045A000200009F08DFA3849200009F074FA3749E3
:1045B000200009F08FFA3649200009F06CFA354BDB
:1045C0000A221968200009F0E0FA3349200009F0B6
:1045D00062FA324B0A221968200009F0D6FA3049F3
:1045E000200009F058FA2F4B0A221978200009F010
:1045F000D8FA2D4D2000290009F04DFA2B4B1878E0
:104600000BF00EF92A490AF01DFC0CF031FF0B00EB
:10461000012102000091200009F08AFB25492000B9
:1046200009F04EFA244E3378002B20D02349200085
:1046300009F031FA3100200009F031FA2900200098
:1046400009F029FA1E4B18680BF0CAF80A2201007B
:10465000200009F08CFA1B49200009F031FA1A49B0
:10466000200009F037FA200004F012FD73BD17494D
:10467000200009F025FAF6E7D402002068020020A5
:10468000010001004F3A0100623A010005000020DC
:10469000673A0100880A00206B3A0100840A002072
:1046A000703A010098090020F0590100DE05002051
:1046B0000000A04121490100D6020020743A010007
:1046C000F00200207A3A0100F80200207E3A010050
:1046D000002310B50004014309489A0012588A4289
:1046E0000CD00133082BF8D1064A13789C002150D6
:1046F0000721002001330B40137010BD0120FCE79F
:104700004802002044020020F7B51F0008AB20CB70
:1047100004001B781C48009201930E000DF0BAFDB6
:10472000C4232370C33B6370019BC2B2002B01D032
:1047300080231E43154BA6701B88C6B2E3701B1264
:1047400023716B4620001B78E2716371009B32007D
:104750001B12A3710C4908300CF0D6FF002F08D0B3
:10476000002D06D03000083020182A0039000CF047
:10477000CBFF2800019B08308019002B03D00100DB
:104780002000FFF7C5FEFEBD050000208C090020BB
:1047900070B530C80E00A5420AD921003068FFF775
:1047A000C7FC002805D023780134002BFBD1F2E7A9
:1047B0000024200070BD73B5056886686C6801A987
:1047C00028000194FFF7E4FF002802D12000A61979
:1047D0006E6076BDF0B5002787B000900C000291A6
:1047E0000392B9422ED0059005A910001600FFF7DC
:1047F000CFFF0500B8421CD100980DF04BFD03001F
:1048000075680133B268EB180190934207D9012310
:1048100033747F22237A00279343237212E073605C
:10482000002DF6D0019A009928000CF06DFF019B35
:10483000EF547F22237A012793431A000523134361
:1048400023722560380007B0F0BD1FB5040001A831
:1048500009F0DFFA01A9200009F0DBFA01A809F04C
:104860006DFA200004B010BDF0B589B00C1E0291A5
:10487000039212D0010005A8170009F0CAFA059B9F
:104880000093079B0193009B002B08D17F22237A82
:104890009343237205A809F051FA09B0F0BD3D68B1
:1048A0007E68AE4212D9009BAB4224D0002D06D0C8
:1048B000019A290018000DF0F4FC00281BD02B00F1
:1048C0001A7801331D00002AFAD1EAE7019BBA6881
:1048D0000133F318934202D901233B74D6E77B607E
:1048E000002ED3D0019A009930000CF00DFF002368
:1048F0003500019AB3547F22237A256093431A002E
:10490000032313432372079B6360C3E770B505005D
:104910000C001600081E0FD02868FFF722FC0028A4
:104920000AD131002800FFF736FC002804D07F228E
:10493000037AC4601340037270BD70B50300007A3F
:104940007F2504002C4005D1A8435F3D2843187201
:104950001C605C6020201C7A0440201E02D01800DD
:10496000FFF7D4FF70BD70B50D00040028001100E2
:1049700014302A00FFF7E1FF002809D07F22037AD4
:1049800093431A0020231343037200230360436000
:1049900020606560200070BD10B5002801D0FFF7D1
:1049A000B5FF10BD10B50200037A20200340181E89
:1049B00002D01068FFF7D5FB10BD437E002B06D157
:1049C00043695A1C42611B78037601234376007EBB
:1049D000704710B504002000FFF7EFFF0A2806D843
:1049E000092808D2002809D0012020740CE00D28E5
:1049F00001D02028F8D100236376ECE7237C6034D3
:104A00005A1E93410133237010BD1FB57F2203004E
:104A1000007A1040043808282ED809F04BFE0F0FFA
:104A2000052D082D0D2D1A00187804B010BD18683A
:104A3000C343DB171840F8E71868F6E71868002347
:104A400001AC23722100FFF7CDFB2000FFF7DDFF53
:104A5000EBE7CF211C680906201C0AF019F8002892
:104A6000E3D09E21201CC90509F0FEFF0028DCD000
:104A7000201C0AF0B5FED8E70020D6E770B5040088
:104A80000D00FFF79AFF0023A84201D1637601339E
:104A9000180070BD2F2815D90123392803D95E28A5
:104AA00003D97A2803D81800704740280AD901236F
:104AB0005A28F8D9002301222D38C0B282425B4126
:104AC000DBB2F0E701232B28F4D1ECE737B5002364
:104AD0006A460C001370C3B27F2809D85370951C26
:104AE000013D297800292ED02000FFF765FCF7E76B
:104AF0003F2180226D460B405242134380096B7068
:104B000085B2C3B21F2D05D8403213436A46937055
:104B1000D51CE5E76D460B4000041343800DAB70D8
:104B2000C3B20F2805DC202252421343EB7001ADC3
:104B3000D6E71940102380115B420A431843EA70FC
:104B400028710535CCE737BDF7B505000027FFF71D
:104B500034FF6F7601902800FFF72FFF0024019BA0
:104B600001006C76834258D0A04204D10223603504
:104B700000202B70FEBD5C284BD12800FFF71DFFE5
:104B80000028F3D02B4B752839D104266C762800E9
:104B9000FFF713FF0028E9D0402806D83038C0B20C
:104BA0000F2806D960350323E2E7202398433738DE
:104BB000F5E700232401013E0443F6B2A4B26B766C
:104BC0009E42E4D1A0239B01E3181B4A9BB293426F
:104BD00002D8A405A70DBEE790239B01E3189BB262
:104BE0002000934206D880238005BC02800D20431C
:104BF0005B02C0182900FFF769FFACE702331A789F
:104C0000002ACFD09042F9D159780029CAD0002388
:104C10006B762800FFF7D0FB9DE728002100FFF707
:104C2000CBFB6B680120002BA4D1042260352A70D5
:104C300018009FE7ED3A0100FF030000026870B51D
:104C4000536804004360936852689B1AC360002352
:104C50008360FFF7B2FE27280DD022280BD020005A
:104C6000FFF7ABFE0600FFF715FF051E09D1032372
:104C70006034237003E02000FFF766FF0500280082
:104C800070BD0023310063762000FFF795FB200004
:104C9000FFF793FE0600FFF7FDFE011EF1D1200095
:104CA000FFF78AFB6368002BE9D10422603422708D
:104CB0001D00E4E7F7B504000D001F1CFFF789FE97
:104CC0000190002801D1002658E02000FFF775FE72
:104CD000272800D17BE01DD8222800D177E02000D2
:104CE000FFF76BFE002600900098F7B2FFF7D2FEA8
:104CF000002800D187E00136402E00D182E06A46CC
:104D0000002312786376A319DA772000FFF755FEA7
:104D10000090E9E75B2813D07B28E0D17F222B7A33
:104D2000290093431A00202313432B7200230022EF
:104D30002B606B6020003B1C00F092F806001DE029
:104D40007F222B7AFFB293431A00402313432B7226
:104D500000232B606B609F4203D1603405332370C6
:104D6000B1E763762000FFF734FE0028ABD05D2169
:104D70002000FFF783FE061E02D0019E3000FEBD1C
:104D8000E1692800FFF707FA011E03D1042360340C
:104D90002370F3E77B1E00222000FFF78BFF002823
:104DA00000D190E72000FFF714FE002800D18AE729
:104DB0005D212000FFF762FE0028DED12C212000BB
:104DC000FFF75CFE0028DBD160340323C7E72268CD
:104DD000200053686360936852689B1AE360002365
:104DE000A360FFF7B1FE061E00D16CE72000FFF7BD
:104DF000E2FC7F222B7A286093431A000523134399
:104E00002B72BBE73F270021E3190133D977631CDD
:104E1000DB7F742B0DD17F222B7A93431A0006235C
:104E200013432B7201232B70042FA6D0603402236E
:104E300095E7662B0AD17F222B7A297093431A00BB
:104E4000062313432B72052FF0D196E76E2BEBD080
:104E5000200029002030FFF7C5F90028B4D08CE7E6
:104E6000F7B5DFB204000E00002F04D10523603433
:104E7000237000250DE000234376FFF7AAFD009084
:104E80000028F6D07D212000FFF7F8FD051E26D072
:104E9000009D2800FEBD61683068FFF762F90028B8
:104EA00031D001007B1E00222000FFF703FF002805
:104EB000DFD02000FFF78DFD0028DAD07D21200013
:104EC000FFF7DCFD0028E3D12C212000FFF7D6FD01
:104ED000002814D02000FFF77CFD0028C9D0200056
:104EE000FFF7ACFE0028C4D02000FFF772FD0028B9
:104EF000BFD03A212000FFF7C1FD0028CBD103230A
:104F000060342370C5E72000FFF755FCE16901908C
:104F10003000FFF740F9002802D160340423F0E7A5
:104F20008022037A524213430372019BC360B8E7A5
:104F300010B50400006803685B6898476368181838
:104F4000606010BD70B5050008000C000DF0A2F9FE
:104F5000210002002800FFF7EBFF70BDF0B516241A
:104F600007000D000A2687B06C442800310009F0C4
:104F700031FC013C303121702800310009F0A4FBE4
:104F8000051EF2D116236B441A1B21003800FFF7CF
:104F9000CFFF07B0F0BD10B50400006803681B68C0
:104FA000984763681818606010BD000070B50D0068
:104FB000040022212000FFF7EEFF2978002909D004
:104FC0000A4B01351E78002EF4D05A788A4206D05A
:104FD0000233F7E722212000FFF7DDFF70BD5C21DF
:104FE0002000FFF7D8FF3100E4E7C046EF3A0100A8
:104FF0007F22F0B5037A8BB005000C001340062B1E
:1050000000D18FE106D8022B0DD3032B00D975E117
:1050100006CD49E10C2B24D007D8082B00D17FE125
:105020000A2B00D16FE1C44981E1202B00D146E178
:10503000402BF8D15B212000FFF7ADFF2D68002D3C
:1050400000D135E121002800FFF7D2FF2800FFF74B
:1050500080F8051E00D12BE12C212000FFF79BFFDB
:10506000EDE70668311C301C09F0EEFC0028DAD0B0
:105070000021301C09F0E8FC002809D1311C301C4B
:1050800009F046FD011C301C09F0DEFC0028CAD1E5
:105090000021301C09F0DEFC002806D02D21200064
:1050A000FFF779FF80231B06F618A449301C09F08E
:1050B000EFFC002844D00023142520270093A04BA8
:1050C000301C595909F0E4FC002809D09D4B301CD4
:1050D00059590AF08FF8009B061CF81803B2009388
:1050E000043D7F102B1DEAD103350021301C09F04F
:1050F000C5FC002828D0301C0CF0BAF9924A934B1A
:1051000009F078FC00281FD0AB0001932B061BD4BC
:105110008F4B019A311C985809F0B0FC00280AD036
:10512000874B019A301C99580AF064F8009B061CC2
:10513000D81B03B20093019B7F10013D043BE4E7C1
:10514000202705250090D0E7301C09F0ABFC062392
:105150000700804D029003936B461B7B5BB201936B
:10516000039B013BDBB20393029B092B0AD90A2163
:10517000280009F0A9FA0A210500029809F0A4FA0A
:105180000290E9E738000AF095FB011C301C0AF098
:1051900063F9061C28000AF08DFB011C301C0AF084
:1051A00029F8029009F07EFC06000AF083FB011C3E
:1051B00002980AF051F9011C09F0AAFC09F072FCEE
:1051C0008619B5420BD80026009B0137B34206D0A2
:1051D000092F04D918000127013003B200930A25D2
:1051E0002900300009F0F6FA00290CD1019B002BB0
:1051F00009DD3000290009F067FA019B0600013B38
:105200005BB20193ECE739002000FFF7A7FE019B9A
:10521000002B20D01D0008AF013D6DB2013F6B1C7B
:105220000BD030000A2109F0D5FA30313970300046
:105230000A2109F049FA0600EEE76B461B791025B2
:10524000D9432E224B1904A8C25408AB4A4220006D
:105250005918FFF76DFE009B002B2DD06521200013
:10526000FFF799FE6B461D88009B002B05DA2D2168
:105270002000FFF790FE6D42ADB216260A2704AB60
:10528000F6182800390009F0A5FA013E30313170D6
:105290002800390009F018FA85B2002DF1D1162343
:1052A000310004AA9B189A1B2000FFF741FE03E07F
:1052B0005D212000FFF76FFE60680BB0F0BD7B2121
:1052C0002000FFF768FE2D68002D15D0E96820004A
:1052D000FFF76CFE3A212000FFF75DFE2100280059
:1052E000FFF786FE2800FEF734FF051E04D02C21B0
:1052F0002000FFF750FEE7E77D21DAE70168200094
:10530000FFF754FED8E70568002D04DA2D212000B0
:10531000FFF741FE6D4229002000FFF71FFECBE79B
:105320000168F9E703780C49002B00D10B492000F4
:10533000FFF708FEC0E7C046FE3A01008096184B12
:10534000C0390100A8390100F168E388B5F8E43EEE
:105350009039010040420F00033B0100083B01006F
:1053600010B51430FFF744FE10BD000070B5CEB08C
:105370000EACE02216A92000FEF703FF0023220056
:10538000674913A82377FFF7D8FA01006548FEF7AD
:10539000C1FE654D2200654913A82E78FFF7CDFAAE
:1053A000002809D07F22037A93431A00062313436F
:1053B0000372731E9E4106705D49220013A8FFF719
:1053C000BCFA2978002807D07F22037A0160934332
:1053D0001A00082313430372002969D0554B07258F
:1053E00018680BF0D9FF0022534B0AF0BFFD00955F
:1053F0000B00020005A808F03FFD0EAC05A908A8A7
:10540000FFF723FA22004D4913A8FFF796FA08A9DF
:1054100003900BA8049408F0FCFC049A03990BA8D1
:10542000FFF722FA0BA808F089FC08A808F086FC10
:1054300005A808F083FC424B18680BF0ADFF002272
:105440003D4B0AF093FD00950B00020005A808F003
:1054500013FD05A908A8FFF7F8F92200394913A898
:10546000FFF76BFA08A903900BA8049408F0D1FC8D
:105470000399049A0BA8FFF7F7F90BA808F05EFC54
:1054800008A808F05BFC05A808F058FC22002E498B
:1054900013A8FFF752FA00280AD07F222B4B0021D5
:1054A000595E037A016093431A000A23134303727F
:1054B000274B0EAC18780AF0B3F9264909F0C2FC64
:1054C0000222011C05A808F0B9FC05A908A8FFF7ED
:1054D000BCF92200204913A8FFF72FFA08A903906E
:1054E0000BA8049408F095FC049A03990BA8FFF705
:1054F000BBF90BA808F022FC08A808F01FFC05A8BF
:1055000008F01CFC0023154D0BA920000C930B95F3
:10551000FFF726FF280008F0CBFA4EB070BDC0465A
:10552000E9390100BD3A010098090020C13A0100A3
:10553000C53A010090090020D0126341CA3A010027
:1055400094090020CE3A0100D23A0100DC05002087
:10555000DE0500200000A041D63A0100C411002061
:1055600030B5B5B004ACA0220CA92000FEF709FEAE
:10557000002322001C4909A82377FFF7DEF9010068
:105580001A48FEF7C7FD2200194909A8FFF7D5F907
:1055900001001848FEF7BEFD2200174909A8FFF7D1
:1055A000CCF9002808D07F22037A93431A000C23F9
:1055B00013430372114B03602200114909A8FFF73E
:1055C000BCF9220001000F48FFF704F900230E4D3B
:1055D00002A9200003930295FFF7C2FE280008F0FD
:1055E00067FA35B030BDC046E9390100DB3A010049
:1055F000E13A0100E43A0100E83A0100CDCC66440A
:10560000FA39010005000020C411002070B5002601
:10561000AAB002AC05000AA980222000FEF7B1FD65
:1056200022000F4907A82677FFF787F901000D48E8
:10563000FEF770FD22000C4907A8FFF77EF9010074
:105640002800FEF767FD094D694620000095019688
:10565000FFF786FE280008F02BFA2AB070BDC0467E
:10566000E9390100B53A0100B93A0100C41100203E
:1056700070B59AB002AC060040220D0020000AA9C5
:10568000FEF77FFD00232200124907A82377FFF7CA
:1056900054F901003000FEF73DFD22000E4907A835
:1056A000FFF74BF9002807D07F22037A0560934368
:1056B0001A000A23134303720023084D6946200091
:1056C00001930095FFF74CFE280008F0F1F91AB09D
:1056D00070BDC046E939010024480100C411002012
:1056E0001FB5282008F0C6FC022304000093032203
:1056F0000733082100F018FF21000D4800F0ACFF2F
:105700000C4B0D4C02930D4B4022019301235B4245
:10571000009380210A4B200003F0CEF8094A0A4981
:10572000200008F0BFFF094804F066F91FBDC0461D
:1057300080040020A086010068020020801A060074
:10574000B80A0020000000201D890000E0050020AC
:105750000023F7B50F000524154E01903370154D49
:10576000280001F00DFD0F300AD0C8213220490079
:10577000013C08F0D8F8E4B208F02AFC002CEED185
:1057800000233A000199280002F0A8F800220A4BF1
:1057900004000A4928001A7001F096FD01233370B5
:1057A000002C03D1064A1368013313602000FEBDAC
:1057B0000400002080040020800A0020FFFFFF007A
:1057C000880A002030B50500BBB00C001E207821EF
:1057D00008F0A9F808F0FCFB0C4903AB0A881D701F
:1057E000013292B20A8000219C702D1224125D7049
:1057F000DC7001910431009104A80239FEF784FFA6
:10580000010004A8FFF7A4FF3BB030BD8C0A0020C4
:105810008022F0B5814C0700A54442AD92004AA910
:105820002800FEF7AEFC00232B779F4200D17C4F6F
:105830000026429B0CAC6B60EB681022AB6004A9A5
:105840002E7408A804950BF05FFF102208A9200011
:105850000BF05AFF26741197882702ABDB19667686
:10586000E56100221E7047A90A232000FFF722FAF3
:1058700002ABDB191B78B34207D1237EB34200D1C0
:10588000C1E02B7F1B0700D4BDE06648FFF7BEFEDA
:1058900007E0654928000CF0F3FC002805D1FFF76C
:1058A0005FFECB239B009D44F0BD604928000CF0B7
:1058B000E7FC061E17D15E4947A8FFF773F8FEF70D
:1058C00086FC011E02D00378002B01D15948DDE788
:1058D000594C102220000CF0F5FC2674FFF740FE16
:1058E000FEF74CFEDDE7554928000CF0C9FC031E0D
:1058F00014D153490A88013292B20A8001210090E2
:1059000001912000FEF700FF01002000FFF720FFBB
:105910000028E5D04B48FFF779FEE1E74A49280027
:105920000CF0AEFC00286CD1484947A8FFF73AF8C4
:10593000FEF74DFC464D0600290047A8FFF732F858
:10594000002806D07F22037A1340082B0AD00A2BA6
:105950000BD001256D42002E02D03378002B0FD1E1
:105960003C4893E70368002BF3DB290047A8FFF7C7
:1059700019F8002801D10500EDE7FFF746F8FAE72E
:1059800030000CF087FCB42801D933487EE7334B54
:105990001B78002B02D00023304A13700123284FBC
:1059A00000213A88013292B23A800193009033008C
:1059B0002000FEF7A9FE010006002000FFF7C8FE48
:1059C000039000281BD129002548FFF751FE012331
:1059D000224A210013703A88224B23481A80234B15
:1059E00032001D600BF090FE214B1E6008F0BAFAE9
:1059F0006A46204B127B18601F4B1A7070E71148E3
:105A000044E71E4842E71E4947A8FEF7CBFFFEF7D2
:105A1000DEFB051E00D03CE71A4837E7D4FCFFFF49
:105A2000FD3A0100D8390100EB390100FA390100D3
:105A3000F0390100F239010005000020FF390100B2
:105A40008C0A0020043A0100143A01001D3A0100BA
:105A500024480100173A0100223A01009909002068
:105A6000303A0100780A00209A090020180000202E
:105A7000740A00207C0A00207A0A0020353A0100CE
:105A8000E9390100E139010070B50F4C2378002B92
:105A900015D008F067FA0D4D2B68C01A0C4B9842D0
:105AA0000DD90C4B1A78002A0AD101321A7008F06D
:105AB00059FA094B286019680848FFF749FE70BD7C
:105AC00000232370FBE7C046990900207C0A0020D0
:105AD000C30900007A0A0020740A00209A090020F5
:105AE0000023F0B55F4A604D604C1370604AA544D6
:105AF00001212800137001F0E9FA80230600070055
:105B00005B00984200D91F0056AC3A0021002800E3
:105B100001F0FCFA0390280002F01AF90590280021
:105B200002F02CF953490690280001F0CDFB012327
:105B30004C4A1370039B002B00D08DE0072E00D839
:105B40008AE02378C42B00D086E06378012B00D054
:105B500082E02379E2781B021A43474B08921B88A4
:105B60000993934278D0E579102D75D82E00083628
:105B7000BE4271D8A37828220A936B469B181B78E3
:105B80005BB20393002B03DA2B001433BB4263D8C0
:105B90002E220CABFF329B181B7801320C930CABFE
:105BA0009B181B7823AC2A0058A920000D930BF0FA
:105BB000ABFD002356AA635594190822039952425B
:105BC000551B1432994200DB1A000E26ED19AA1A51
:105BD0000B920CAAB618109311933380039B002BE1
:105BE0003DDAFFAB7C33DD19244B0422ED1829008C
:105BF00010A80BF089FD291D042211A80BF084FDCB
:105C000029000222083130000BF07EFDAB7A0493AC
:105C1000EB7A07937F230A9D1D40022D3AD10B9BFF
:105C2000032B19D916490B78002B15D062782378ED
:105C300012021343099A9A420ED11248E278A378CD
:105C4000008812021343984206D100230B700E4BBA
:105C50000E481968FFF70CFD0D4B9D44F0BD002365
:105C60000493D6E7040000208004002084FBFFFF9B
:105C7000800A0020FFFFFF008C090020D4FCFFFFFA
:105C800099090020780A002018000020933A0100AA
:105C90007C0400000D9B08981E020C9B1E433100E3
:105CA000FEF716FD0700002D00D07BE131000898BB
:105CB000FFF788FD002FCFD10B9DB42D00D9B4255F
:105CC00028AE2A002100300000240BF01DFD8022A8
:105CD000745596AD92009EA92800FEF752FA2A004C
:105CE0009C492C779BA8FEF728FE01009A48FEF7F6
:105CF00011FA2A0099499BA8FEF71FFE2A0001000D
:105D0000169023A81795FEF765FD2A0094499BA8D5
:105D1000FEF713FE2A000100189030001995FEF7D7
:105D200059FD012205991AA808F088F81AA91DA89A
:105D3000FEF78BFD2A008B499BA8FEF7FEFD1DA9EF
:105D4000149020A8159508F064F81499159A20A8C5
:105D5000FEF78AFD20A807F0F1FF1DA807F0EEFF6F
:105D60001AA807F0EBFF012206991AA808F066F8B6
:105D70001AA91DA8FEF769FD2A007B499BA8FEF71A
:105D8000DCFD1DA9149020A8159508F042F814997F
:105D9000159A20A8FEF768FD20A807F0CFFF1DA8E0
:105DA00007F0CCFF1AA807F0C9FF039BA34200DB52
:105DB000AAE029006D4A12A8FEF7D5FD129D139C9A
:105DC0006B4922002800FEF7E7FD002808D07F225B
:105DD000037A93431A00082313430372049B03605E
:105DE000049B002B68D010980BF0D6FA0022614B70
:105DF0000AF0BCF807260B00020000961AA808F06B
:105E00003BF81AA91DA8FEF720FD22005A492800D8
:105E1000FEF7C2FD1DA9149020A8159407F0F9FF04
:105E2000159A149920A8FEF71FFD20A807F086FFF9
:105E30001DA807F083FF1AA807F080FF11980BF048
:105E4000ABFA00224B4B0AF091F800960B000200CF
:105E50001AA808F011F81AA91DA8FEF7F6FC2200EE
:105E600046492800FEF798FD1DA9149020A8159416
:105E700007F0CFFF1499159A20A8FEF7F5FC20A88B
:105E800007F05CFF1DA807F059FF1AA807F056FF9E
:105E900022003B492800FEF77FFD0E230CAA9B1829
:105EA0000021595E002807D07F22037A01609343C6
:105EB0001A000A2313430372079809F0B1FC314911
:105EC00008F0C0FF0222011C1AA807F0B7FF1AA9A8
:105ED0001DA8FEF7BAFC22002B492800FEF75CFD46
:105EE0001DA9149020A8159407F093FF1499159AF2
:105EF00020A8FEF7B9FC20A807F020FF1DA807F096
:105F00001DFF1AA807F01AFF0024204D20A996A80B
:105F100020952194FFF724FA280007F0C9FD1C4AB8
:105F20001C4D136823A901331360280010220CF0C4
:105F3000C9F92C74184D152228A928000CF0C2F9B3
:105F40006C75059A154B1A60154B069A1A60FEF788
:105F500015FB81E6E9390100973A01009A3A010000
:105F60001D3A01009F3A0100A43A0100A83A01003D
:105F7000C53A0100D0126341CA3A0100CE3A01008D
:105F8000D23A01000000A041D63A0100C41100201D
:105F9000840A0020D6020020F8020020F00200202F
:105FA000F4020020012D00D056E6002800D053E670
:105FB000A02296AC52009EA92000FEF7E2F8220033
:105FC0008F4927779BA8FEF7B8FC01008D48FEF7A4
:105FD000A1F822008C499BA8FEF7AFFC220001002B
:105FE0001A9023A81B94FEF7F5FB2A0005991DA81B
:105FF00007F024FF1DA920A8FEF727FC22008349F3
:106000009BA8FEF79AFC20A9189028A8199407F0DD
:1060100000FF1899199A28A8FEF726FC28A807F06F
:106020008DFE20A807F08AFE1DA807F087FE2A0033
:1060300006991DA807F002FF1DA920A8FEF705FC80
:10604000220073499BA8FEF778FC20A9189028A885
:10605000199407F0DEFE1899199A28A8FEF704FC97
:1060600028A807F06BFE20A807F068FE1DA807F01F
:1060700065FE039B002B00DBA9E02100654A14A804
:10608000FEF771FC149D159C634922002800FEF761
:1060900083FC002807D07F23027A9A43773B13437F
:1060A0000372049B0360049B002B68D010980BF0D4
:1060B00073F90022594B09F059FF07260B00020023
:1060C00000961DA807F0D8FE1DA920A8FEF7BDFB6D
:1060D000220053492800FEF75FFC20A9189028A849
:1060E000199407F096FE199A189928A8FEF7BCFB98
:1060F00028A807F023FE20A807F020FE1DA807F01F
:106100001DFE11980BF048F90022444B09F02EFFB8
:1061100000960B0002001DA807F0AEFE1DA920A8E6
:10612000FEF793FB22003F492800FEF735FC20A92B
:10613000189028A8199407F06CFE1899199A28A8A5
:10614000FEF792FB28A807F0F9FD20A807F0F6FD5E
:106150001DA807F0F3FD220033492800FEF71CFCC0
:106160000E230CAA9B180021595E002807D07F221D
:10617000037A016093431A000A23134303720798BA
:1061800009F04EFB294908F05DFE0222011C1DA802
:1061900007F054FE1DA920A8FEF757FB2200244952
:1061A0002800FEF7F9FB20A9189028A8199407F0F9
:1061B00030FE1899199A28A8FEF756FB28A807F070
:1061C000BDFD20A807F0BAFD1DA807F0B7FD00250A
:1061D000184C28A996A828942995FFF7C1F8200003
:1061E00007F066FC144C23A9102220000CF06AF87A
:1061F00015221249124825740CF064F8A1E6C04635
:10620000E9390100FF3901009A3A01009F3A010083
:10621000A43A0100A83A0100C53A0100D012634136
:10622000CA3A0100CE3A0100D23A01000000A04172
:10623000D63A0100C4110020D6020020AC3A010079
:10624000F8020020F8B5B32501246D00174E300088
:1062500005F0B0FF002828D0300005F0E7FFC0B2FD
:10626000134E0A2801D00D2814D1124F32683B7802
:10627000002A09D0002B09D10F488354FFF7C8FA30
:10628000002333603B70E1E7002BF9D00B48FFF7A8
:10629000BDF9F5E73368AB4204D85A1C3260064AB0
:1062A000D054D3E7034B1C70D0E7F8BDC4110020D5
:1062B000780400207C0400200E030020413A0100F5
:1062C000114B10B51B78002B01D0FFF709FCFFF72D
:1062D000B9FFFFF7D9FB07F045FE0C4A0C491368DC
:1062E0000400C31A8B4202D91060FEF7ABF8094ACA
:1062F00009491368E31A8B4204D91460FFF736F892
:10630000FEF73CF910BDC046800A0020E8020020DC
:10631000CF070000EC02002087130000E12170B5D8
:10632000490286B0694805F043FE182008F00EF8CF
:1063300005001A2008F00AF8040007F019FEA4026C
:106340006840604007F0DEFA6149012007F0EBFA8F
:106350000125604B012118800C2008F065F8002110
:106360000C2008F0ADF8642007F032FE5A4E3000E1
:1063700002F05EF85949300002F07AF8584C009566
:106380002B003C220221200002F0C0FB002813D089
:10639000544B20001D7002F0A7FB2900200003F0E1
:1063A00020FB00232361504B50496361200007F01C
:1063B00087FB200002F06CFE4D4C42223100200091
:1063C00005F090F8002816D001254A4B4A4A0021D2
:1063D00020001D7005F0EBF8474A0021200005F071
:1063E000EDF8FA222900200005F0DAF8424A0221ED
:1063F000200005F0EBF800230593404B082504939B
:106400000A2312263E4C0293033B00930395019608
:1064100002333C4A3C49200000F0B4F9002808D07F
:10642000FA24E4003948FFF7F1F8200007F0D0FD26
:10643000F8E701223649200000F018F90028EFD1D2
:106440003049200000F054FF0028E9D12900200045
:1064500000F0D0FF0028E3D10521200000F0EAFF82
:106460000028DDD144223100200001F004F800288A
:10647000D6D12849200000F025FB0028D0D11021DA
:10648000200000F04DF90028CAD12900200001F0B9
:106490000FF80028C4D101211F4B00911F4A200092
:1064A00001F0C4F80028BBD120001D4900F002FA19
:1064B0001C49200000F008FFFDF7C4FFFFF750F86B
:1064C000FEF754FFFEF75AF806B070BDC411002065
:1064D000FFFF00008C090020B80A0020801A060087
:1064E00068020020D4020020010001000E3B0100E0
:1064F000E0050020D50200204C040000CDCCCC3FAC
:10650000800400200000FA420000D943233B010030
:10651000CDCC664400000C43211000000F1D00008C
:10652000FD400000FFFFFF00F7B51D0008AB1B7822
:1065300004000F00160000210322083001930BF025
:10654000FFF8802222736A461049127961610121A5
:1065500000236274FF226018E372A773E673257448
:10656000A27423766176C377A01CC277E01CC27741
:1065700023609623064A9B0162626360054A064BCC
:106580002000E26161732381FEBDC04680841E004D
:10659000983A0000900A00200D0A000010B5FF286C
:1065A00001D007F041FF10BD10B5FF2801D007F062
:1065B00087FF10BD10B50400002902D0012910D0BA
:1065C00010BD807B0121FFF7E9FFA07B0121FFF7D0
:1065D000EBFF637B002BF3D0E0690368DB6A98472D
:1065E000EEE7437B002BEBD0006861680368DB6952
:1065F0009847E5E710B50023FF2802D007F08CFF8D
:106600000300180010BD10B507F0C6F810BD10B596
:1066100007F00BFD10BD10B507F0DAFC10BD10B58A
:1066200007F0F8FC10BD10B507F09CFC10BD10B5CC
:1066300007F09EFC10BD70B5431CDB7F0400150005
:10664000002B08D0831CD87F0334FFF7ADFFE07F19
:106650002900FFF7A9FF70BD10B5040000F0CEF8C7
:10666000014B2000236010BD403B010073B50C1CA2
:1066700006002049201C150008F00AFA002835D031
:106680001D49201C08F0F0F900282FD0002D0ED055
:106690001A49201C08F0F2F901AD00280CD0184B63
:1066A0002B802900300000F092FB002803D1211C30
:1066B000300000F057FB76BD1249201C08F0DEF9CF
:1066C000002801D0104BEBE71049201C08F0D6F948
:1066D000002801D00E4BE3E70E49201C08F0CEF94C
:1066E000002801D00C4BDBE70C4BD9E70C204042D3
:1066F000E1E7C0460000164300007044000061441A
:10670000E1E9FFFF00805444D7DBFFFF00804044F5
:10671000C1C5FFFF0000E6437581FFFF6B6F0000FE
:10672000F0B5CDB22B001133DBB285B00400272BBE
:1067300023D80F2600236E443370320001331049F2
:1067400000F082F9002816D10127020000970723E4
:106750000421200000F0BDFA00280CD104222900F9
:10676000200000F03DFB002805D13B003200044929
:10677000200000F095F905B0F0BD0D204042FAE789
:10678000E7080000F0B5040087B00E1C111C1A00C9
:106790000CAB1B780DA8059311AB1B780EAD0FAF9A
:1067A00000782D783F880393109B00900293019707
:1067B000059B20006DB201F003FC00280FD10122DF
:1067C000311C2000FFF752FF002808D129002000CB
:1067D000FFF7A6FF002802D1200000F09FF907B0C4
:1067E000F0BD70477047FC3010B5806A002201216F
:1067F000FFF721FF0120404210BD000070B50400EA
:106800000D00FF22104901F06BFC104B9A21083358
:106810002360230000220120FC334900DA621A635E
:106820005A6360541031DA631A645A646252023156
:1068300062540231625200219D622000196559653F
:106840009A65DA6570BDC0460024743F783B01004C
:1068500070B50400FC34A36A0E0005000121187C09
:10686000FFF79CFEA36A0021187CFFF79DFE012024
:10687000FFF7D1FEA36A0121187CFFF795FE002ED9
:1068800012D0FFF7D0FE06002B6828005B689847FF
:10689000041E09D0FFF7C7FE054B801B984204D8A1
:1068A0000A20FFF7B8FEEFE70024200070BDC046C5
:1068B000B70B000010B5FC30836A0422D87BFFF7C9
:1068C000A2FE10BDF0B589B01F0010AB1B781600FA
:1068D000029311AB1B78019005930300FC339A6A75
:1068E0000491130006A91433D46921CB21C10021DE
:1068F000907BFFF759FEFFF796FE0390019DFC3554
:10690000AB6A587CFFF776FE00280FD0FFF77FFEBA
:10691000FFF789FE039BC01A129B9842EED3AB6A25
:106920000121987BFFF740FE444882E023680699E6
:10693000DB69079A20009847049DAE192368B54289
:1069400005D029789B68200098470135F6E7002F8D
:1069500041D00E270E9D029BEE182368AE4257D001
:106960009B6829782000984703003B40062B23D1E1
:106970000625236820001B6A9847019C0121FC34EE
:10698000A36A987BFFF710FE059B002B42D00120E5
:10699000FFF745FEFFF747FE0600A36A587CFFF7A6
:1069A00029FE002836D0FFF732FEFFF73CFE129B8F
:1069B000801B9842F1D3B7E7082B01D10825D8E70F
:1069C0000A2B01D10A25D4E70138C0B20135FD28D0
:1069D000C3D9FF25CDE79B683900200098470E23D7
:1069E0000340062BC4D0082BE8D00A2BEAD001388C
:1069F000C0B2FD28EDD80F9D029BEE182368B5426A
:106A000006D09B6800212000984728700135F5E7E3
:106A10000025AEE7082D0ED003D8062D84D0002027
:106A200007E00A2D04D0FF2DF9D10220404200E0FA
:106A3000034809B0F0BD0348FBE7C0463FFDFFFF38
:106A40003DFDFFFF3EFDFFFF30B51D2589B007ACC2
:106A50002570A1700D0A0749657004910293012108
:106A6000002303910192009303222100FFF72AFFE4
:106A700009B030BD8813000070B586B00AAC247828
:106A80000BAD2D7802940024044E009304960395D8
:106A900001940123FFF716FF06B070BD88130000B4
:106AA00030B50D2585B003AC2570A1700D0A01210C
:106AB000657001910093210013000322FFF7DCFFB2
:106AC00005B030BD73B50C1C06000021201C07F07A
:106AD000DFFF002818D00E49201C07F0C5FF002852
:106AE00012D06B46201CDD1D0AF0C2FC0022094BAF
:106AF00009F03CFA07F0EEFF012328702A0006494E
:106B00003000FFF7CDFF76BD11204042FBE7C046C5
:106B100000000C4300000440E708000037B56B4656
:106B2000DC1D002322002370084901330500FFF714
:106B30008BFF002809D11E232278044913432370B8
:106B4000220001232800FFF7ABFF3EBDD80800005C
:106B500073B56B46DC1D00230E0023702200013349
:106B60000A490500FFF770FF00280BD122780423A3
:106B7000002E08D19A4322700123220003492800E5
:106B8000FFF78EFF76BD13432370F5E7360700004D
:106B900030B585B003AC63700E25012325700193D9
:106BA00000920B0002222100FFF766FF05B030BD06
:106BB00030B589B00D000CA90C781F2169440D7007
:106BC00002930023054D0193013300920495039431
:106BD0001A00FFF777FE09B030BDC04688130000E9
:106BE0000300002230B5FC3385B004000D00986A24
:106BF0001100FFF720FD012303AA157080210093E7
:106C00002000FFF7D5FF05B030BD10B50021FFF71C
:106C1000E7FF10BD1FB50F226A44002907D111708C
:106C200001239D210093FFF7C3FF05B000BD0123A1
:106C30001370F5E71FB50B0C03AA13700B0A537002
:106C400001239170009383210233FFF7B1FF05B058
:106C500000BD1FB50B0C03AA13700B0A5370012360
:106C60009170009382210233FFF7A2FF05B000BDAF
:106C7000F7B5002410490500FFF7EBFF0A20FFF7E6
:106C8000CAFC26006B46DF1D00233A003B700B490F
:106C900001332800FFF7D8FE01223B781340A340C0
:106CA000A4181E43F6B2082CECD12B6828005B68B0
:106CB00098473000FEBDC046FFFFFF0019080000E6
:106CC000012307B500930023C5211A00FFF770FFC9
:106CD0000EBD30B585B008AC257803AC63700123D8
:106CE0002170A270E5702200009395210333FFF715
:106CF0005FFF05B030BD7FB508AC258802AC617080
:106D0000E27063710E0A110A1A0A2B0AA371012399
:106D1000A17022712670E5710093073322001900DB
:106D2000FFF746FF04B070BD1FB50B0A03AA13702E
:106D3000012351700093DB181900FFF739FF05B0EC
:106D400000BD1FB50B0E03AA13700B0C53700B0A7A
:106D500093700123D170009386210333FFF728FF3E
:106D600005B000BD10B50400081C9821C90508F045
:106D700041FA0AF07DFB0022044B09F001FD07F007
:106D8000A9FE01002000FFF7DCFF10BD0000A03FBE
:106D9000030030B5FC330D0085B004000122002152
:106DA000986AFFF748FC002D0AD1002303AA13704C
:106DB00001330093D1212000FFF7FAFE05B030BD6A
:106DC00029002000FFF7BDFF0028EED0F6E70123E1
:106DD00007B50A0000939821DB18FFF7E9FE0EBD06
:106DE0001FB5012303AC217062708E210093220035
:106DF000DB18FFF7DDFE04B010BDF0B587B00292DE
:106E00009A222C2503935200825C0CAB04000F00E5
:106E10001B78FF35002A28D02A230126FF33C35CC4
:106E20003000984008F046FD2300FC33596B08F011
:106E300009F88321C90507F02BFE002813D06655F9
:106E40006B461B7A05AA53706B461B7B17709370B9
:106E5000635D8B21D3700123200000930333FFF780
:106E6000A7FE07B0F0BD6055EAE74355E8E77FB5F8
:106E7000089D02AC23712B0C63712B0AA3710123B3
:106E80000E0C26700E0AA170E2706670E571220089
:106E900000938B210733FFF78BFE04B070BDF0B574
:106EA00087B003930CAB1F780DAB1D780E00290043
:106EB00004000292FFF74CFE002812D104AA330A04
:106EC00013706B461B7B5670D3706B461B7A9770A2
:106ED0001371012355718C21009320000533FFF7B6
:106EE00067FE07B0F0BDF0B58BB010AC267811ACE2
:106EF00024780393049412AC257813AC24780B0AFD
:106F0000059414AC277807AC23706B461B7B61702B
:106F1000E3706B461B7DE271A3716B461B7CA7700F
:106F20002372012326716571220000938C2108339E
:106F3000FFF73EFE0BB0F0BD1FB5012303AC21707F
:106F400062708F2100932200DB18FFF731FE04B03E
:106F500010BD1FB5012303AA117000939621FFF7FE
:106F600027FE05B000BD10B50021FFF7F2FF10BDF0
:106F700010B50121FFF7EDFF10BD1FB5002303AAD7
:106F800013800133009307210133FFF711FE05B091
:106F900000BD00000022F0B50F0087B01100060010
:106FA000FFF7CAFF041E54D104AD2F7001272A0039
:106FB00000973B008A213000FFF7FAFD041E48D1FC
:106FC00020232A002B70932100973B003000FFF70D
:106FD000EFFD041E3DD103232B702A23FF33F35C06
:106FE000A8800D336B700A23A8716B802A0000976C
:106FF000033B88213000FFF7DBFD041E29D1164931
:107000003000FFF791FE230003900094220021003E
:107010003000FFF770FE039B03431CB2002C18D115
:107020007F232A002B70892100973B003000FFF757
:10703000BFFD041E0DD10520FFF7EDFA3300FC3330
:107040009B6A587CFFF7D6FA002802D0FFF7DFFAD8
:10705000F4E7200007B0F0BDFF03000070B586B074
:107060000AAC0BAD24782D7801930023044E0395D0
:10707000049602940093FFF725FC06B070BDC0464D
:10708000881300001FB51E240B0003A90C801D3CB3
:10709000009201940222FFF7E1FF04B010BD00004E
:1070A00030B589B00D000CA90C781F2169440D7012
:1070B00002930023044D019204950394009301224E
:1070C000FFF700FC09B030BD881300001FB5002396
:1070D00003AC238001330093220001331321FFF717
:1070E000DFFF207804B010BD1FB5002303AC238060
:1070F00001330093220001331221FFF7D1FF2378DF
:1071000060781B02184304B010BD0000F7B5036897
:1071100001915B68050016009847041E1ED12800E7
:10712000FFF7E2FF60232700184200D0073FFF2E41
:1071300005D12B6801219B6A280098470600F2B20E
:1071400001992800FFF79EFF041E07D1044928007B
:10715000FFF7EAFD0400002F00D03C002000FEBD38
:10716000FF0300001FB50F24FF236C442370FE3B78
:10717000009322001121FFF793FF207804B010BD87
:10718000F7B50500FFF7EEFF0700012840D12B6897
:1071900028005B689847041E2ED12E00FC360200A2
:1071A0003900B06AFFF747FAC0225200009423006A
:1071B00011002800FFF79FFD041E1DD1154928006E
:1071C000FFF7B2FD041E17D12800FFF779FD041E5A
:1071D00012D1B36AD87BFFF70DFA002802D1FFF76E
:1071E00016FAF6E72800FFF77FFFC30506D5094921
:1071F0002800FFF799FD084C2000FEBD012403067E
:1072000004D504492800FFF78FFD0F246442F3E7FB
:107210001424FBE7FF03000042FDFFFF002330B50D
:1072200087B00093022226490400FFF764FD051E83
:1072300022D1020001002000FFF77EFE051E1BD1B7
:1072400020492000FFF770FD2000FFF78BFF012889
:1072500015D123002E2096222100FC33FF30DB6D58
:10726000205C5200FE31098EDBB20090A25C0195D9
:107270002000FFF714FE0500280007B030BD0028ED
:107280001BD105300490FA3003904730205C442332
:1072900002904620FF30205CA1220190A220A42170
:1072A0004000205CFF33520049000090E35CA25C88
:1072B000615A2000FFF717FEDDE701256D42DBE78D
:1072C00062020000FF03000070B504000D00FFF72C
:1072D000A5FF00280AD12300FC3302000121986A8F
:1072E000FFF7A9F929002000FFF7B3FC70BD0000EB
:1072F00073B504000D1CFFF735FF0600012800D010
:107300006EE00021281C07F0C3FB00281BD0364983
:10731000281C07F0A9FB002815D0FC21281C890592
:1073200007F068FF0AF0A4F8304A314B08F002FB7E
:1073300007F0D0FBC0B20F2842D00ED8052824D0C9
:1073400003D803281CD008204BE0072821D00A28A6
:10735000F9D1942309225B0015E03E2838D007D8E4
:10736000142831D01F28EED1942303225B000AE0B9
:107370007D2831D0FA28E6D1942306225B0002E072
:10738000942300225B00E25406E0942308225B0071
:10739000F9E794235B00E65423002C20FC335D6363
:1073A000942295232A21FF30205C5B005200FF319C
:1073B0000090E35CA25C615C2000FFF71EFD76BDDF
:1073C000942302225B00DEE794230A225B00DAE7C3
:1073D000942304225B00D6E7942305225B00D2E7C6
:1073E00014204042EBE7C0460000FF437B14AE4749
:1073F000E17A843F37B504000D00FFF7B3FE0128A2
:1074000013D16B1F072B13D82A232C219422FF336F
:10741000E554FF31615C013352000091E35CA25CF2
:1074200029002000FFF7E9FC3EBD14204042FBE7A5
:107430000920FBE737B505000C00FFF793FE012894
:1074400014D1631F032B14D895222C202A21231F2B
:107450005200DBB2AB54FF30285C023AFF3100909F
:10746000AA5C695C2800FFF7C8FC3EBD14204042BE
:10747000FBE70A20FBE773B505000C001600FFF7D9
:1074800071FE012811D10F21230030098B430E40DA
:10749000E821034301AA2401137034430223C900E5
:1074A00028005470FFF7FCFA76BD14204042FBE739
:1074B00030B587B004000D00FFF754FE012814D149
:1074C00023000021FE331D86023BDB6D01912E213E
:1074D0009622FF31615C52000091DBB2A25C290070
:1074E0002000FFF7DCFC07B030BD00281CD10521CF
:1074F000A42304915B00FA31E55203914731615CAA
:10750000442302914621FF31615CA1220191A22115
:107510004900615CFF3352000091E35CA25C2900EA
:107520002000FFF7E0FCDEE701204042DBE700003F
:10753000F7B504000D1CFFF715FE002837D1002118
:10754000281C07F087FA002800D01B4D281C09F0E2
:107550008FFF1A4A1A4B06000F0007F05FFA002847
:1075600028D01849281C07F07FFA002822D00022D2
:10757000154B3000390009F003F983230022DB05A5
:1075800009F0FEF80022114B08F0F0FC07F0A2FA17
:107590002100A0234222FC3108645B000090FF32EE
:1075A000E35CA25CC96B2000FFF761FCFEBD142008
:1075B0004042FBE76620FBE79A99193F33333333A8
:1075C0003333E33F0000484300408F4080847E41D6
:1075D00037B504000D00FFF7C5FD002820D1042DAC
:1075E00021D842222800FF3207F064F80312141653
:1075F000180000232100A354A023FC31086C5B0079
:107600000090E35CA25CC96B2000FFF730FC3EBD3C
:107610000823EFE70923EDE70A23EBE70B23E9E76C
:1076200014204042F3E76A20FBE70000F0B58BB07E
:10763000079310AB04000D0017001E78FFF792FDB2
:10764000002851D1012D40D0002D03D0022D44D06F
:10765000344838E0A12301225B00E2540520049065
:10766000FA3003904730205C442302904620FF30DC
:10767000205CA1220190A220A4214000205CFF33C5
:10768000520049000090E35CA25C615A2000FFF7C1
:107690002AFC002817D109AD3B0A2B702A000223CF
:1076A000214920006F70FFF7FBF900280BD1079BE1
:1076B0002A001B0A2B706B461B7F1C496B70200035
:1076C0000223FFF7EDF90BB0F0BDA1235B00002E04
:1076D00001D00422C1E7E654C0E7A12306225B00E3
:1076E000002EBAD1E554B9E7012818D196225200EC
:1076F000002D12D0A054230021000020FC33FE31C5
:10770000DB6D098E01902E20FF30205CDBB20090F3
:10771000A25C2000FFF7C3FBD5E7A554EBE70120EF
:107720004042D0E743FDFFFFBC060000BE0600005C
:10773000F0B58BB004000D000792FFF713FD002891
:1077400050D14627FF37002D1AD14423A122A4216E
:1077500005300490FA30E55503904730FF3352006E
:107760004900205CE35CA25C615A02900195A22072
:107770004000205C00902000FFF7B5FB0BB0F0BD8F
:107780000126D72109ADE65533002A00C9002000A3
:10779000FFF75AF90028F1D1079A2B781212B34358
:1077A00016401E436B46D7211B7F2A006B70C90011
:1077B000022320002E70FFF773F90028DED1442346
:1077C000A122A42105300490FA3003904730205CB8
:1077D000FF330290E05D52004900E35CA25C615A15
:1077E0000190C4E714204042C8E780224B1E994113
:1077F00010B5C9B25200FFF79BFF10BDF7B50400EA
:1078000000912600FFF7AEFCFC36012851D12A2357
:10781000FF33E55C2D48A84008F04CF82C49071CC4
:10782000706B07F0E7FC011C381C07F00BFB07F03E
:1078300039F96B1F0600012B38D800221927254B78
:10784000A9009E4202D929003E3189002E23FF3330
:10785000E05CC9B24342434158421423034096209E
:1078600001934000205C009B4000C0184000451B75
:10787000AD00019BAD18ED182DB2281C002D00DACB
:1078800000204B1E00B2C01806F0A8FF95235B0035
:1078900082B2E05CFE3404305043238E8000083313
:1078A0009B00DF19C7197743B808FEBD08221127CE
:1078B000C5E7009BF56BD800684309F0A7FD0022DF
:1078C000054B08F05DFF07F005F9EEE71027000013
:1078D000000020417F3E00000000503FF0B585B021
:1078E0000293036804005B680E00170098470028A5
:1078F00067D1FF2F67D82000FFF734FC01282ED175
:1079000039002000FFF77AFF03235843430801930F
:1079100023683A00DD683100029B2000A847002858
:107920004FD1FEF784FE05002600FC36B36AD87BF3
:10793000FEF760FE00281BD1FEF769FEFEF777FE1A
:10794000019B401B9842EFD921492000FFF7ECF939
:10795000236820005B6898470520404231E00028FA
:1079600033D139002000FFF749FF05234343CEE719
:10797000FEF75DFE0190380009F048FD0022154B2E
:1079800008F0FEFE019B02900391581B07F092FF46
:1079900009F06EFD0022104B08F0E8FA02000B001F
:1079A0000298039908F0E2FA09F0B4FD08497065FD
:1079B0002000FFF7B9F9002803D1236820005B6895
:1079C000984705B0F0BD0420C7E70120C5E7C046D1
:1079D000FF0300000000204080842E41F7B56B4675
:1079E000DC1D002322002370164901330500FFF738
:1079F0002BF8002820D12800FFF7B4FB01281CD168
:107A00002B00FC33586B09F033FD00220E4B09F0BC
:107A100029F949004F080D4A0D4B390006F0EAFFDD
:107A200000280AD0042223789343237022000123E4
:107A300004492800FFF734F8FEBD042322781343DD
:107A4000F3E7C0468908000000407F40FCA9F1D25E
:107A50004D62503FF0B5050087B00F001600FF2AB9
:107A600075D8A2235B00C35C002B01D0FF2A6ED027
:107A70002800FFF777FB01284AD129000020FE31BA
:107A8000098E01902E209622FF30285C5200009033
:107A9000F3B2AA5C2800FFF702FA041E59D1009045
:107AA000030001222D492800FFF725F9041E50D1BB
:107AB000020001002800FFF73FFA041E49D103002D
:107AC000F2B239002800FFF763F8041E41D12449BF
:107AD0002800FFF729F9041E3BD12800FFF77EFF9D
:107AE000041E36D12E00FC3601000122B06AFEF7DA
:107AF000A2FD21002800FFF79DF8041E29D1B36ADA
:107B0000587CFEF777FD002823D0FEF780FDF6E7CE
:107B1000002821D105300490F0B20390A32040004A
:107B2000285C442302904620FF30285CA12201906B
:107B3000A220A4214000285CFF335200490000909D
:107B4000EB5CAA5C695A2800FFF7CDF9A5E704248D
:107B50006442200007B0F0BD0124F9E701020000F3
:107B6000FF0300002E2373B5FF33C35C0400012B19
:107B700002D01420404276BDFFF7F4FA0600012837
:107B8000F7D16B4692219A1D00230901137003005F
:107B90002000FEF785FF0028EDD16B46DD1DD87172
:107BA0002A00330008492000FEF74EFF0028E2D1EA
:107BB00002232A78044913432B702A003300200043
:107BC000FEF76EFFD7E7C04644090000F7B503682B
:107BD00001915B68040015009847002800D082E0FE
:107BE0002000FFF7BFFA012847D12A23FF33E35CC7
:107BF000984007F05FFE2300FC33596B07F022F931
:107C000009F036FC00223F4B08F0BAFD00223E4B43
:107C100008F0B6FD06F05EFF060007F04BFE09F027
:107C200027FC0022394B08F0A1F906F053FF0100B0
:107C30002000FFF749FB002855D1FEF7F8FC0700AC
:107C40002300FC339B6AD87BFEF7D4FC00283FD18D
:107C5000FEF7DDFCFEF7EBFCC01B8642F0D22000F5
:107C6000FFF780FF2A492000FFF75EF82368200015
:107C70005B6898470620404235E000283FD1281E27
:107C800000D1FF2009F0C2FB0022224B08F078FD52
:107C90002300FC330600D86B0F0007F00BFE09F041
:107CA000E7FB02000B0000201B4908F05FF909F018
:107CB00031FC09F0DDFB02000B003000390008F058
:107CC00055F90022154B08F05BFD0022144B9FE78D
:107CD0002E23FF33E35C012B06D023682A001B69A7
:107CE000019920009847FEBD2000FFF73BFA0128CC
:107CF000F3D12000FFF736FF0028EED0F3E7012094
:107D0000B9E7C0460000594000408F4000402F4076
:107D1000FF030000000020408084CE4180842E417B
:107D2000000014401FB5002303AC2380A37001336F
:107D30000093220002331421FFF7B2F92078637810
:107D400000041B021843A378184304B010BD0000C0
:107D500070B5FFF7E7FFC0B209F01EFB04008020FA
:107D600000060D180022044B2900200008F008FD31
:107D700009F0D0FB70BDC0460000E03F10B5040024
:107D8000FFF7F0F9012812D12000FFF7CBFF030A1B
:107D9000D8B21B0608D409F0FFFA0022054B08F000
:107DA000EFFC09F0B7FB10BD0138FF38F3E70248DC
:107DB000F9E7C0460000D03F0000A0C11FB5002475
:107DC000012303AA148017210093DB18FFF768F939
:107DD000200004B010BD0000F0B5036889B05B68F6
:107DE000039004920E1C98470398FFF7E7FF830661
:107DF00002D50398FFF7C1F87000400809F038FB7E
:107E00005F4A604B06F0F6FD0590002805D0012181
:107E10000398FEF71DFD09B0F0BD301C09F028FBEA
:107E2000594A5A4B04000D0008F01CFF49004F0846
:107E3000534A544B390006F0DDFD002820D06A4635
:107E4000127D07AB1A70049807F034FD09F010FB9F
:107E500000224F4B08F08AF806F03CFE07AA030CFC
:107E60005370030A9370039B0499FC3399650123B3
:107E7000D0709721009303980333FEF799FECAE769
:107E8000444A454B2000290008F0ECFE49004F0809
:107E90003B4A3C4B390006F0ADFD002802D007AB51
:107EA0000122CFE73D4A3E4B2000290008F0DAFED0
:107EB00049004F08324A334B390006F09BFD002839
:107EC00002D007AB0222BDE72F4A364B2000290023
:107ED00008F0C8FE49004F08294A2A4B390006F02D
:107EE00089FD002802D007AB0322ABE7294A2E4BBD
:107EF0002000290008F0B6FE49004F08204A214B17
:107F0000390006F077FD002802D007AB042299E77C
:107F10001D4A264B2000290008F0A4FE49004F0806
:107F2000174A184B390006F065FD002802D007AB50
:107F3000052287E700221E4B2000290008F092FE50
:107F400049004F080E4A0F4B390006F053FD002838
:107F500002D007AB062275E7164A174B200029000E
:107F600008F080FE49004F08054A064B390006F02C
:107F700041FD002802D007AB072263E70F484AE71C
:107F8000FCA9F1D24D62503F9A9999999999F93F7C
:107F900000402F40333333333333FB3FCDCCCCCC95
:107FA000CCCCFC3F9999014033330340999905406B
:107FB000000008406666666666660A4041FDFFFF8F
:107FC000F0B5050087B003930CAB1B78FC35049328
:107FD0000DAB1B88040002930FAB1B780F1CA86A23
:107FE000002101920593FEF7E5FAAB6A0021D87BE8
:107FF000FEF7D4FAAB6A0021587CFEF7CFFA6A4646
:108000002A231279FF336F63E2540422013BE254C6
:108010006A4623001289FE331A8600220126AA65C9
:1080200003329A85DE85FF233100EB652000FEF7E1
:108030000FFC00284AD1236820005B68984700287D
:1080400044D131002000FEF7A5FF00283ED10021D9
:108050000E9806F013FD002831D101992000FFF79A
:10806000C9F9002832D1391C2000FFF741F9002856
:108070002CD103992000FFF7DDF9002826D14422F6
:1080800004992000FFF7F7F900281FD1029920007A
:10809000FFF70EFA002819D10F492000FEF712FD54
:1080A000002813D101212000FEF7B4FD00280DD1D6
:1080B000059B2000002B0BD0FEF755FF06E0074A7A
:1080C0000E992000FFF788FE0028C6D007B0F0BD4B
:1080D000FEF74EFFFAE7C04600007042881300002A
:1080E000034B416003600023826083817047C04678
:1080F000C03B010070B506000C008D18AC4207D0E3
:10810000336821789B683000984720700134F5E788
:1081100070BD7047704710B50400406803F096FCCE
:108120000023237610BD10B5406803F0B4FC10BDE9
:10813000F8B5050040680C0003F0A8FC2B68E7B216
:10814000260A9B68012810D139002800FF2798478C
:108150002B68BC4304439B68310028009847030206
:1081600020003840184380B2F8BD310028009847FD
:10817000FF262B680002344004439B683900280026
:108180009847B4432043EEE710B5040005F076FFAE
:10819000200010BD10B54B1C0BD0102909D0EFF3F7
:1081A000108472B6102905DD02234376002C00D11D
:1081B00062B610BD0123427E1A43427618224A431A
:1081C0000449891816228A569340C2691343C36131
:1081D000ECE7C046845001004B1C17D0102915D085
:1081E000437E9B0712D4EFF3108272B618234B43E1
:1081F0000749C9180123897D49B28B40C169994358
:10820000C16100D14176002A00D162B67047C046F4
:1082100084500100437E002B05D09A0704D5837E4D
:10822000002B00D062B67047DB07FCD5C369024A59
:108230009BB2D360F7E7C04600180040037E002BD6
:1082400004D143768376C36101330376704700001F
:108250007FB5036902AE04000D00029172608B428B
:1082600003D1828AB3889A4226D0200006223100A8
:10827000103009F049FA606803F0FFFB7379E17A86
:10828000013B581E8341227B00936068002303F06A
:1082900091FD33790021013BDBB2022B01D8074A63
:1082A000D15C074B2A009D4200D91A00606803F098
:1082B000B5FB606803F0D7FB7FBDC046F83B01000B
:1082C000001BB70070B518260400FFF7B7FF330096
:1082D0000821207A0D4D4343EB18595606F034F926
:1082E00033000821A07A4343EB18595606F02CF9C5
:1082F0000821607A4643AD19695606F025F9044B0A
:10830000200006CBFFF7A4FF70BDC04684500100DB
:10831000B00A002007B5437E00910192002B07D0E0
:108320009A070AD5EFF310835A425341837672B607
:108330000099019AFFF78CFF07BDDB07F8D5C369E9
:10834000014A9BB29360F3E7001800400E490F4BBF
:1083500010B501220B6000234A710B710C490D48C6
:10836000083101600C49427541600C49C2720181BB
:108370001421036181720375094A0A490376037364
:1083800006F090F910BDC046B00A002000093D007B
:10839000FC3B0100900A00209C11002012150000F7
:1083A00000000020158100000020704710B5036810
:1083B0009C6B0123A04710BD8C2300229B00C1545D
:1083C000103BC3185A609A60DA60012383757047C6
:1083D00010B5036801211B6B984710BDF8B5050067
:1083E0000E0017000024BC4208D02B68315D1B68CA
:1083F00028009847002801D00134F4E72000F8BD98
:10840000FC30406A704770478E239B00C150704714
:108410008D239B00C15070470300FC335A6A002A29
:1084200003D01B6AC018007E704701204042FBE762
:1084300070B5060018250C49006903F005FD306988
:1084400003F043FB2B000821307D084C4343E31825
:10845000595606F079F80821707D45436419615634
:1084600006F072F870BDC046A0860100845001007D
:1084700070B504000D00006903F03CFB2900206981
:1084800003F0E2FC206903F020FB70BD10B5006929
:1084900003F030FB10BD0000F7B50193FA238026EE
:1084A000002504009B008360134B760008330F0007
:1084B00045602900009203603200183009F040F94D
:1084C00023002000FC332530DD6132001D622900CD
:1084D0005D62FF3009F034F988239B00E3185D608A
:1084E0009D60DD606B461B78276123756B461B79A9
:1084F000A57520006375FEBD383C010070B506000F
:108500001825006903F07BFC306903F0DEFA2B00CC
:108510000821307D064C4343E318595606F014F801
:108520000821707D45436419615606F00DF870BD51
:108530008450010010B50022FFF7E0FF10BD0300DA
:10854000802210B5FC33DC685200944208D05A688F
:1085500081545A680132D2B25A60DA680132DA6064
:1085600010BDF7B50400171E019302D100252800A5
:10857000FEBD03000022FC33DA611A625A62006910
:10858000013203F0E9FA061EF0D023002069183307
:10859000009303F074FB01000098FFF7D0FF012562
:1085A0002069BD4214D003F048FB00280FD0206999
:1085B00003F0B2FA0221206903F0B8FA206903F04F
:1085C0005EFB01000098FFF7BAFF0135E8E70600FF
:1085D000206903F099FA019B002B06D0002E06D0EB
:1085E0000321206903F0A2FAC1E7002EBFD1013DAB
:1085F000BDE7002310B5827D9A420CD088229200FC
:108600008218D46880225200944204D02530FF3072
:10861000FFF795FF0123180010BD0300FC33DA6853
:10862000002A09D09A68805C9A680132D2B29A60B6
:10863000DA68013ADA60704701204042FBE7002225
:108640008C2370B59B00827504000E00C15C00692C
:1086500003F082FA002806D10321206903F066FAAC
:108660000225280070BD88239B00E318DD68002DDB
:1086700011D020002530FF302569FFF7CEFFC1B2B1
:10868000280003F0ABFA0028EDD10321206903F0A4
:108690004DFA0325E5E7002EE3D00321206903F01E
:1086A00045FADEE710B51830FFF7B7FF10BD70B51B
:1086B0000400006903F0B8FA002815D0206903F01F
:1086C000CAFA002811D0206903F026FA0321206994
:1086D00003F02CFA8E239B00E558002D35D10023A2
:1086E000FC34E3612362636270BD206903F0BDFA6C
:1086F000002809D0206903F0B3FA002804D02069CB
:1087000003F0B8FA0028DED0206903F0AEFA0028A2
:1087100021D1206903F09AFA0028E5D0206903F0FE
:10872000A9FA002833D088239B00E318DB68FF21D7
:10873000002B05D020002530FF30FFF76EFFC1B2BF
:10874000206903F063FAA075CEE7236820001B6957
:108750009847A847C3E7206903F0DEF920690321A1
:1087600003F0E4F9206903F085FA0028BCD08823DF
:1087700000229B00E3185A609A60DA600123A37517
:108780008D239B00E3589342AED09847ACE723007B
:10879000FC335A6A802320695B009A4206D103F0B9
:1087A000B3F90321206903F0C1F99DE703F067FAEB
:1087B000010020001830FFF7C2FE206903F0ACF979
:1087C000EFE7000010B50248FFF771FF10BDC0468B
:1087D000B80A002010B51123102202490248FFF701
:1087E0005BFE10BD94110020B80A00207047F0B560
:1087F00000291BDB0C25445F8C4217DD002A15DBAA
:108800000E25445F944211DD847E022C0FD0032C90
:1088100016D0012C04D1D2430489A4180A0021B235
:10882000012B13D0002B22D0022B32D0F0BD0489B3
:10883000013C611AD443428909B2121912B2EFE71E
:108840004489013C641A110022B2E9E70725D417D4
:108850002C40A4182A4093400827C65FE4107443B4
:108860006118C46A61180A7813430B70DEE70724A5
:10887000D31723409B180826855FDB106B435918DC
:10888000C36A22405918012393401A000B7893437E
:10889000EBE70724D31723400826855F9B18DB10DE
:1088A0006B435918C36A01202240904002005918B6
:1088B0000B785A400A70B9E770B5002504001E0015
:1088C00012B204AB09B25D5700F01EFE104B083324
:1088D0002360002363629E4200D10E4E2100FF22DE
:1088E0003331A662E3620A704A708A70CA7022004D
:1088F00037321570059A2000A265069AE265064A8D
:1089000062662200643213710123537170BDC04648
:1089100028410100B80A002000093D00054B10B5B0
:10892000083304000360C06A002801D008F0D0FEBC
:10893000200010BD28410100F8B50400806A0D0038
:10894000002814D02300303319780368DB6A984775
:10895000A06A002103681B689847A06A2900036881
:108960001B689847A06A03685B6B9847F8BD226C48
:10897000216D1368606A8B431360002804D003687C
:1089800029009B689847F1E708218020E36BA26BE0
:10899000A76C166828420ED03E4316601E68E76C2E
:1089A00001393E431E601E68E76C4008BE431E60EE
:1089B0000029EDD1DAE7BE43EFE770B50400806A25
:1089C0000D00002812D00368A16D9B6A984729000A
:1089D0004D1EA9412000A631FFF7AEFFA06A002876
:1089E00012D00368E16D9B6A984770BD606A0028E9
:1089F00004D00368616EDB69A26E9847626C616D9A
:108A000013688B431360E2E7626C616D1368606A00
:108A10000B4313600028E8D003681B6A9847E4E71B
:108A2000F7B50400806A8B180D00019300282BD045
:108A30002700036830373978DB6A9847A06A00213D
:108A4000036801261B689847A06A019A036895424B
:108A500017D0FE2E0CD95B6B9847A06A3978036853
:108A60000126DB6A9847A06A002103681B689847C3
:108A7000A06A2978036801361B689847B6B20135A9
:108A8000E2E75B6B9847F7BD226C216D13688B435F
:108A90001360019BAB42F6D02B78606A00930028EC
:108AA00005D0036800999B6898470135F1E70820D5
:108AB0008026E36BA26BA76C0099BC4617680E4238
:108AC0000FD061460F4317601F68E16C01380F43F8
:108AD0001F601F68E16C76088F431F600028EAD191
:108AE000E3E761468F43EEE7072110B50A22835E74
:108AF0000733DA170A40D2180821435ED2105A43CE
:108B0000C06A002108F01CFE10BD0000F0B587B05F
:108B100004930CAB1B7804000593C36A0E00150088
:108B2000002B1BD02000FFF7DFFF0A23E25E0823A3
:108B3000E15E202A25DC203AD30F9A180B00733B04
:108B4000D90FC918012302931F3352104910019302
:108B50005333009312B209B2B04B24E00A22835E71
:108B600007220733D8171040C0180822A35EC01090
:108B7000584308F0A3FDE062031ED3D1180007B0EC
:108B8000F0BD403AD30F9A180B00523BD90FC918C9
:108B9000012302933F330193123352104910009383
:108BA0009F4B12B209B2200000F0C8FC2300313301
:108BB0001E70A06A002800D19CE0002D00D097E034
:108BC0000A23E55E203D6B1E9D413C35230030337A
:108BD0001D70059B002B00D11BE10368DB699847E2
:108BE000049B002B1BD02500002037352856002879
:108BF00015DBC0B2012105F017FC0121287805F032
:108C00005FFC012005F0E4F90021287805F058FC0C
:108C10000A2005F0DDF92878012105F051FCA06A51
:108C2000002800D1CBE00368A16D9B6A984704221D
:108C30007C492000FFF7F4FE618920000139C9B2A8
:108C4000FFF77AFE2500784904222000FFF7E8FEAE
:108C500000233135EB561421012B00D104392000BB
:108C6000FFF76AFE2600042270492000FFF7D8FEB5
:108C70008F2360363370A3686D4A022793420BD06E
:108C80006C4A934200D0A8E00022AA56CF23012AC2
:108C900000D1303B12273370DA212000FFF74CFE61
:108CA00039002000FFF748FE81212000FFF744FE35
:108CB00031782000FFF740FED9212000FFF73CFE6D
:108CC0000023EB56F121012B00D1CF392000FFF713
:108CD00033FE200006225849FFF7A2FEA06A0028B2
:108CE00000D188E00368E16D9B6A9847012345E75E
:108CF0006DB26BE72500270035352878012136371E
:108D000005F092FB3878012105F08EFB0023182135
:108D10000126EB56494D4B435A574948D201121888
:108D200022643200EB185B689A4000232265FB56F0
:108D30004B435A574349D20151181218626432000A
:108D4000EB185B68606A9A40130062650A69134316
:108D50000B61002806D0059B002B00D140E703687B
:108D6000DB6A3CE7270033373100387805F05CFBDD
:108D70002300343305931878310005F055FB0023A8
:108D80001821FB562E484B435A57EB18D2011218A4
:108D9000A26332005B689A40059BA2641B785BB2B9
:108DA0004B435A57ED186B6826499E40D201511823
:108DB000E6640B691218B343E2630B6110E7606A63
:108DC000002804D00368616EDB69A26E9847626C6C
:108DD000616D13688B43136029E71B4A0227934296
:108DE00000D059E70022AA56AF23012A00D19F3BA9
:108DF0003370022750E7626C616D1368606A0B4341
:108E000013600123002800D1B8E603681B6A984765
:108E10006CE7049B002B00D0E5E604E7483F010027
:108E2000883C0100904101009441010098410100FB
:108E300080002000800040009C410100845001001F
:108E4000104400410044004160001000F0B51400DF
:108E500005AA1688002C41DB0A25425FA2423DDDAF
:108E6000002902DA5B1800211BB20822855E5A181D
:108E7000AA4201DD6B1A1BB2002B2FDD0727E21778
:108E80003A401219D2105543C26A01203C40A0401A
:108E900069185218C0B2012E0CD0002E13D0022E29
:108EA0001CD1013B1BB2591C18D0117841401170E4
:108EB0000132F6E7013B1BB2591C0FD01178014378
:108EC00011700132F6E7C043C0B2013B1BB2591C1E
:108ED00004D01178014011700132F6E7F0BD0000B6
:108EE000F0B505AC2588002976DB0824065FB14281
:108EF00072DA002A02DA9B1800221BB20A27C45F2A
:108F0000D718A74201DDA31A1BB2002B64DDD2B231
:108F1000DCB2D30873435918C36A591807231A409F
:108F20001FD001339A1A314BD2B29B5C944254D277
:108F3000FF26171B3E413340012D06D0002D08D0DF
:108F4000022D49D10E78734001E00E7833430B7047
:108F500002E00E789E430E7094423DD30826835F54
:108F6000C918A31ADBB2072B22D9022D10D11A007F
:108F70000C78083AE4430C700825445FD2B2091912
:108F8000072AF5D80722134026D0194AD35C19E0E6
:108F90002C00621E94411A006442E4B20C7008274F
:108FA000C65F083AD2B28919072AF7D807221340B8
:108FB000002B11D00E4AD35C012D06D0002D08D015
:108FC000022D09D10A78534001E00A7813430B704F
:108FD00002E00A789A430A70F0BD012DB5D0002D49
:108FE000B7D0022DAED08919BBE7C0468041010041
:108FF0008841010037B5140006AA1588827E022A2E
:109000000DD0032A18D0012A11D1E2430489A418F3
:1090100024B20A0000952100FFF762FF0BE0E24353
:109020004489C918A418028924B2511A09B20095BA
:109030002200FFF70BFF37BD4289C918511A09B248
:10904000E7E737B5140006AA1588827E022A0DD0FC
:10905000032A18D0012A11D10289E418141B24B262
:109060000A0000952100FFF7F1FE0BE0CA430189D9
:10907000E4188918428909B2141B24B20095220011
:10908000FFF72EFF37BDCA434189891809B2E7E7C8
:10909000F7B50400806A00284DD00368A16D9B6A73
:1090A0009847052250492000FFF7BAFC218920008B
:1090B0000139C9B2FFF740FC07210A23E25EA06A2A
:1090C0000732D3170B409B182289DB1053439BB206
:1090D0000093E66A002846D02700036830373978C5
:1090E000DB6A9847A06A4021036801251B689847FE
:1090F000009BA06A013B9BB20093009A0368110099
:109100003A4A914225D0FE2D0CD95B6B9847A06A54
:10911000397803680125DB6A9847A06A4021036813
:109120001B689847A06A3178036801351B68984727
:10913000ADB20136DCE7606A002804D00368616ED6
:10914000DB69A26E9847626C616D13688B43136094
:10915000A7E75B6B9847A06A002838D00368E16DE9
:109160009B6A9847F7BD226C216D136801960B43EB
:109170001360009B013B9BB200931A001B4B9A4269
:10918000E9D0019B606A1978002806D003689B68C3
:109190009847019B01330193EBE708208025E36B9F
:1091A000A26BA76C16680D420ED0374317601E687D
:1091B000E76C01383E431E601E68E76C6D08BE43D5
:1091C0001E600028EDD1E4E7BE431660EFE7626C55
:1091D000616D1368606A0B4313600028C2D0036896
:1091E0001B6A9847BEE7C046A2410100FFFF00008E
:1091F000F0B51D0089B00EAB00241C5F0FAB1B88BF
:1092000016000693A31ADA179B18534002936B1AA1
:10921000DA179B1853400393039A029B01909342E1
:1092200005DC23002C001D0033000E001900A642AF
:1092300005DC2B000D001900230034001E00331B39
:109240009BB204934B1BDA179B18534007936B4652
:1092500010229A5ED30F9B185B10009301238D425E
:1092600021DA0593B44224DC019B039A1B689B69B5
:109270001F00029B934218DD22002900069B0198E3
:10928000B847009B079A9B1A9BB21AB20092002A19
:1092900006DA059AAD18049A2DB2D3181BB20093C2
:1092A000013424B2DEE75B42DBE7069B2A002100A3
:1092B000E5E709B0F0BD704710B504682469A04720
:1092C00010BD37B506AC258804680095A46BA0478F
:1092D00037BD37B506AC258804680095E46BA04718
:1092E00037BD73B506AC0025655F07AC26880468FA
:1092F00001960095246CA04773BDF0B516000400DC
:109300000D0085B003930AAB1F8803685B6998471B
:10931000039B2268013B9B191BB200930197976A3C
:109320002B00320029002000B84723682000DB6AA8
:10933000984705B0F0BDF0B505001C000E00170001
:1093400085B00AAB1B88013C03930368A4195B69D1
:10935000984703992A680191009723B23100946AD3
:1093600028003A00A0472B682800DB6A984705B020
:10937000F0BDF0B50E0087B003930CAB0292002253
:109380009B5E050004930DAB1B88340005930368B6
:109390005B699847039A2B68B21894420ADA059AD7
:1093A000210000921F6A029A049B28000134B847EA
:1093B00024B2EFE7DB6A2800984707B0F0BD13B589
:1093C00001910E24015F0C22835E02680091146CEF
:1093D00000221100A04713BDF0B5040015000E00D7
:1093E00087B004930CAB00229B5E05930DAB1B88EA
:1093F000039303685B699847039A236800925F6A46
:109400002A00049B31002000B847059B03995A1E8F
:109410002368009152195F6A3100049B200012B248
:10942000B847039A236800921F6A2A00059B3100FF
:109430002000B8470499039A2368013900928919DA
:1094400009B21F6A2A00059B2000B8472368200044
:10945000DB6A984707B0F0BD7047F0B585B01E00D5
:109460000AAB0027DF5F0BAB1B88140005000291DD
:1094700003930268B14210D1BC4202DC3B002700DA
:109480001C00039901340091E31B966B1BB23A0058
:1094900002992800B04705B0F0BDBC4211D1029B33
:1094A000B34202DC3300029E0293029B0399013314
:1094B00000919B1BD76B1BB2220031002800B847DC
:1094C000E9E753699847039A2B68019200979F6ACE
:1094D0002800330022000299B8472B682800DB6A75
:1094E0009847D8E70323194010B50822835E817698
:1094F0000A24025F012904D0032902D08381C2819A
:1095000010BD8281C381FBE74281C28101225242A8
:1095100042610222002310B5FF32074C0283013A58
:109520000834FF3A436004600181818103618376DE
:10953000C2760377036210BDA8460100F0B58DB076
:10954000089312AB039200229B5E0791049313AB26
:1095500000229B5E0400099314AB1B880A930368E6
:109560005B6998470722049B039FD91DCB171340C3
:109570005B18DB10059300231D0001930B92039AE7
:10958000BBB206939B1A099A1BB29A422BDD0023A9
:10959000049A93421EDA9AB202920B9A6D0099B223
:1095A000EDB2114204D1089A0199DB105218D55C32
:1095B0006BB2002B0ADA079B029A2000D1182368AD
:1095C00009B29B693A001E000A9BB047029E013611
:1095D00033B2DDE7059A019B9446069F6344013749
:1095E00001933FB2CBE723682000DB6A98470DB0B8
:1095F000F0BD0000F0B595B01D001AAB1B8804004B
:1096000005931BAB1E881CAB1B78089103931DAB05
:109610001B7804920293036A002B00D0C4E00C2252
:10962000835E8B4200DC7DE00E22835E049A9342CF
:1096300078DD0623039A53435B18002B72DD029BEF
:10964000049ADB009B18002B6CDD037F002B03D1F9
:10965000AF2D01D90135EDB2236820005B69984731
:1096600005235D430B9300230793984B5B190F93DE
:10967000079A0F9B9B5C0A936B469B8B09936B46E7
:109680009B890D936B460D9A1F8C099B5343FB18C6
:109690001BB20E9308230C930023069301220A9B0E
:1096A0002068134252D06B461A8B198A039B012BF8
:1096B0003AD1029B012B37D1099B52188569D919E0
:1096C000059B12B209B22000A847069B01335BB28A
:1096D00006930A9B5B080A930C9B013BDBB20C933D
:1096E000002BDBD1079B01335BB207930B9B013B44
:1096F000DBB20B93002BBBD1059BB3420ED0039B77
:109700002268012B3FD1029B012B3CD105370096EB
:10971000156A39B20733049A2000A847236820004D
:10972000DB6A984715B0F0BD6B460C255B5F029D68
:109730006A438A18059912B2019169460825495F62
:109740000091C5690E992000A847BEE7059BB3426A
:10975000BBD06B46198B1A8A039B012B0AD1029B43
:10976000012B07D1099B5218D91912B209B2856988
:109770003300A8E76B460C255B5F029D01966943A9
:10978000521812B2D9E76B460C215B5E05210D9889
:109790000196414302987918C0000090D56909B23A
:1097A000049A2000A847B9E71A7AAD1AEDB25A68B0
:1097B000ED001B68551913932B880993AB780D9313
:1097C000EB7811930523EB560E930623EB560F937C
:1097D000039B012B02D8029B012B56D96B463822E2
:1097E0009B5E0B936B463C229B5E0C930027236889
:1097F00020005B69984707970697119B069A9A4243
:1098000000D38BE76B461B8A00260A930C9B9B18A0
:10981000029A53430A9AD3181BB210933B000D9A35
:1098200096424BD25A1CD2B212920722134207D14F
:10983000099B0999139A0133525C9BB207920993D1
:109840006B461B7F5BB2002B17DA6B46198C039BB0
:109850002068012B1DD1029B012B1AD10A9B0F9A64
:109860009A18069BD2180E9B12B2C91883698919DF
:109870001D0009B2059B2000A847079B01365B002D
:10988000DBB20793F6B2129BC9E700230C930B934C
:10989000ACE76B460C229B5E0B9A039D92196A43C0
:1098A0008918059A09B201926A460825525F00920A
:1098B000C26920001500109AA847DEE7069D0D9B9F
:1098C0000135FF18EBB2FFB2069396E7A7410100FE
:1098D000F0B5026A85B004000B00002A34D10A29D1
:1098E00008D1437E0282DB00628A9B1863820120DA
:1098F00005B0F0BD0D29FAD0E17E007E657E00291D
:109900000ED01026A15F0626464389190C27E65F74
:10991000B14205DD1226A15F2282EA00521862825E
:109920000290E08A1221625E0190A08A1026A15F57
:10993000009003952000FFF75DFE0622237E53432F
:10994000228A9B182382D2E70A2905D100230382A9
:10995000127B437E5343C7E70D29C8D0117A8B424F
:10996000C5D3907A9842C2D3591AC9B25068C90077
:109970004518AF78002F28D0E978002925D0E17E5E
:10998000207E667E002913D005216956C9194143FE
:109990008C461021675EBC440C21675EBC4507DD28
:1099A0001227E15F00272782127B724352186282DE
:1099B0000290E08A1221625E0190A08A1027E15F86
:1099C000009003962000FFF715FE2B79227EB6E764
:1099D000002900D101310176002A00D101324276FE
:1099E000704710B50A00FFF7F3FF10BD10B503680C
:1099F000C9B21B68984710BD2023020003700023E2
:109A0000F43210B513808D22422192008354344ADF
:109A10008354344A83540A32835008328154324A80
:109A20008354324A83540732FF32835004328350C6
:109A30002F4A81180E32FF328150043283520222A3
:109A40002C4942542C494254013143500431435073
:109A50002A4944181C31FF314450043143522849EB
:109A6000425428494254013143500431435026495D
:109A700044182B3144500431435224494254244960
:109A8000425401314354234942546421224A8154AF
:109A90000232835004328354012220494254204927
:109AA000435420494254891843541F4942541F4982
:109AB00043541F494254891843541E4942541E4975
:109AC00043541E494254EA22920083520371E62312
:109AD00008219B00C21813798B43137110BDC04637
