:10400000008000203DE8000025E8000025E80000D1
:1040100000000000000000000000000000000000A0
:1040200000000000000000000000000025E8000083
:10403000000000000000000025E8000091E80000FA
:1040400025E8000025E8000025E8000025E800003C
:1040500011E2000025E8000025E8000029E8000042
:1040600025E8000091C1000025E8000025E80000D7
:10407000458F000025E80000A1C1000025E80000F0
:1040800025E8000025E8000025E8000025E80000FC
:104090000DC8000025E8000025E8000025E8000024
:1040A00025E8000025E8000025E8000025E80000DC
:1040B0000000000010B5064C2378002B07D1054BFB
:1040C000002B02D0044800E000BF0123237010BD84
:1040D0002802002000000000F8630100044B10B526
:1040E000002B03D00349044800E000BF10BDC046C8
:1040F000000000002C020020F8630100034B1B7835
:10410000002B02D00122024B1A70704704000020DD
:104110009C0A0020002905D07F220B7A93430028B7
:1041200001D10B727047042213430B720860F9E748
:10413000002907D07F220B7A086093431A000823D6
:1041400013430B727047002907D07F220B7A086057
:1041500093431A000A2313430B72704710B50023D0
:10416000884207D0984207D00133002902D00EF0D0
:104170005DFD0300180010BD01235B42FAE70A2130
:10418000435E0200181E01D01B01D018704770B5A5
:104190000D00041E09D0C1682800FFF7DFFF0028CA
:1041A00003D02000FFF7EBFFF3E7200070BD0160B4
:1041B0004160002900D0891800238160C160037428
:1041C00070474A688B681032934204D201230B7403
:1041D000002318007047103B8B60002BF9D0426819
:1041E000002A08D0991A09115181002243605A818E
:1041F0001A72DA60EDE70360F7E7021E07D07F214D
:10420000037A00200B40043B012B00D81068704754
:10421000F7B5037804000D002B2B1DD02D2B1CD1DE
:104220000127013423781A00303A092A02D92E2BAB
:1042300000D0C9E000200A26644922781300303BF0
:10424000DBB2092B0BD8884211D8DA437043824283
:104250000DD3C0180134F0E701340027E2E7002A4B
:1042600005D1002F18D080231B06984209D90026BB
:10427000574B98421AD90A2101360AF0C9FE76B284
:10428000F6E77F222B7A404293431A000A23134316
:104290002B7228603800FEBD7F222B7A2860934362
:1042A0001A00082313432B720127F3E723781A001F
:1042B000303A092A03D8013676B20134F6E72E2BBC
:1042C0000FD10A21434A01342378303BDBB2092B5A
:1042D00007D8904203D84843013E181876B20134FB
:1042E000F2E7202322789A430023452A3AD16278C4
:1042F0002D2A1FD102340133019300232178303954
:10430000CAB2092A2AD80A225343CB18F1182629FF
:1043100022DD019A2B7A7F20002A11D00024002F61
:1043200001D0802424060C2183430B432B722C6084
:10433000019FAFE72B2A01D00134DDE70234DBE730
:10434000002F06D024490C22834313432B7229608B
:10435000AAE7FF21C905F6E70134CFE7019A002A51
:1043600000D05B422478002C2ED1F6180BF046FFCB
:10437000002E1ADD01231E4204D0184AA300D15892
:104380000BF0DCFB01347610E4B2002EF2D1002FEA
:1043900002D080231B06C0187F222B7A286093430B
:1043A0001A000C2313432B727EE77642002EEED0C8
:1043B00001231E4204D00A4AA300D1580BF0BEFBD1
:1043C00001347610E4B2F1E7002763E7999999196F
:1043D000FFFF7F00CBCC0C00000080FF6C4301008E
:1043E00054430100426810B5002A08D08368C468AD
:1043F000A34205D300230122436003681A7410BD51
:104400005C1C8460D154FAE710B51D200AF042FC10
:1044100004001D200AF03EFC24181D200AF03AFC7E
:1044200020180BF0A1FE0E490BF0B0F90D490BF06E
:1044300085FBEA2189050BF081FB0B490BF0A6F9FE
:104440000021041C0AF0AAFF002807D10749201CFC
:104450000AF0B8FF002801D1201C10BD0024FBE7A2
:104460000000404033335340CA261B3E33334B4198
:10447000F8B5FFF7C9FF54490BF060FB0AF0B6FF2F
:10448000524B1870524B1B78002B0AD0514C6421B0
:10449000200007F095FC504D504E002802D12870A6
:1044A0003070F8BD4E49200007F012FE4C493070C4
:1044B000200007F0F5FD4A490700200007F020FE24
:1044C000484B47491860200007F032FE46490AF081
:1044D00029FEB42149000AF00BFF6931FF310800C1
:1044E000B42149000AF004FF404B200019803C49E8
:1044F00007F0BEFD3E4B3A491860200007F030FE41
:104500003C4B37491880200007F04EFD002826D18B
:104510000023394A13703378002B52D0032F50D91F
:104520002F49200007F064FD344B2D49186020000E
:1045300007F072FD324B2A491860200007F080FD19
:10454000304B984239DB304B984238DCFA218900F5
:104550000AF0E8FD00B22D4B2F701880A1E720492A
:10456000200007F031FD0028D2D00123224A1C4947
:104570002000137007F0B8FC254B19491880200063
:1045800007F0C2FC234B16491870200007F0CCFC42
:10459000214B13491870200007F0D6FC1F4B10491F
:1045A0001870200007F0E0FC1D4B0D49187020002A
:1045B00007F0EAFC1B4B1870ADE71B48CBE71B4824
:1045C000C9E700232B706CE70000A041DE05002046
:1045D000D5020020E4050020A4090020E305002006
:1045E0004C040000A8090020A0860100E00500207E
:1045F00090090020A2090020AC09002098090020A1
:104600009C09002019FC0BFEFFFFF301DC050020D4
:10461000AE090020A1090020E20500209409002035
:10462000A0090020A50900200080FFFFFF7F0000F7
:104630000023F7B5144F05003A780C009A4201D0D8
:10464000124B1B68009300239A4201D0104B1B6849
:104650002E1969463000042201930DF0F9FC201D4B
:10466000281801A904220DF0F3FC200008302818B6
:10467000022208490DF0ECFC20003B780C30B372AC
:10468000054B1B78F372FEBDA40900209809002099
:104690009C090020DC050020DE0500203E4B73B5A0
:1046A0001B78002B72D03D4C200004F0DDFD012171
:1046B000200005F056FD00232361394B3949636121
:1046C000200009F0A1FE3849200009F088FE374992
:1046D000200009F0A3FE3649200009F080FE354B8A
:1046E0000A221968200009F0F4FE3349200009F07D
:1046F00076FE324B0A221968200009F0EAFE3049A2
:10470000200009F06CFE2F4B0A221978200009F0D6
:10471000ECFE2D4D2000290009F061FE2B4B18788E
:104720000BF022FD2A490BF031F80DF045FB0B0090
:10473000012102000091200009F09EFF2549200080
:1047400009F062FE244E3378002B20D0234920004C
:1047500009F045FE3100200009F045FE2900200047
:1047600009F03DFE1E4B18680BF0DEFC0A2201002A
:10477000200009F0A0FE1B49200009F045FE1A495F
:10478000200009F04BFE200005F042F873BD1749E8
:10479000200009F039FEF6E7D4020020680200206C
:1047A00001000100F84301000B4401000500002056
:1047B00010440100A40A002014440100A00A0020B3
:1047C00019440100A4090020E8630100DE0500206F
:1047D0000000A0411D530100D70200201D4401002C
:1047E000F002002023440100F802002027440100C9
:1047F000002310B50004014309489A0012588A4268
:104800000CD00133082BF8D1064A13789C002150B4
:104810000721002001330B40137010BD0120FCE77D
:104820004802002044020020F7B51F0008AB20CB4F
:1048300004001B781C48009201930E000EF000FA51
:10484000C4232370C33B6370019BC2B2002B01D011
:1048500080231E43154BA6701B88C6B2E3701B1243
:1048600023716B4620001B78E2716371009B32005C
:104870001B12A3710C4908300DF0EAFB002F08D081
:10488000002D06D03000083020182A0039000DF025
:10489000DFFB2800019B08308019002B03D00100AA
:1048A0002000FFF7C5FEFEBD050000209609002090
:1048B00070B530C80E00A5420AD921003068FFF754
:1048C0004DFC002805D023780134002BFBD1F2E702
:1048D0000024200070BD73B5056886686C6801A966
:1048E00028000194FFF7E4FF002802D12000A61958
:1048F0006E6076BDF0B5002787B000900C00029185
:104900000392B9422ED0059005A910001600FFF7BA
:10491000CFFF0500B8421CD100980EF091F90300BA
:1049200075680133B268EB180190934207D90123EF
:1049300033747F22237A00279343237212E073603B
:10494000002DF6D0019A009928000DF081FB019B03
:10495000EF547F22237A012793431A000523134340
:1049600023722560380007B0F0BD0100802210B529
:10497000203192000400FFF71AFC00232000237767
:1049800010BD1FB5040001A809F0E7FE01A9200031
:1049900009F0E3FE01A809F075FE200004B010BD87
:1049A000F0B589B00C1E0291039212D0010005A847
:1049B000170009F0D2FE059B0093079B0193009B13
:1049C000002B08D17F22237A9343237205A809F094
:1049D00059FE09B0F0BD3D687E68AE4212D9009B19
:1049E000AB4224D0002D06D0019A290018000EF009
:1049F0002EF900281BD02B001A7801331D00002A45
:104A0000FAD1EAE7019BBA680133F318934202D95D
:104A100001233B74D6E77B60002ED3D0019A009926
:104A200030000DF015FB00233500019AB3547F22AE
:104A3000237A256093431A00032313432372079BB1
:104A40006360C3E770B505000C001600081E0FD0A8
:104A50002868FFF79CFB00280AD131002800FFF7E7
:104A6000B0FB002804D07F22037AC4601340037295
:104A700070BD70B50300007A7F2504002C4005D17D
:104A8000A8435F3D284318721C605C6020201C7A9C
:104A90000440201E02D01800FFF7D4FF70BD70B58F
:104AA0000D0004002800110014302A00FFF7E1FF78
:104AB000002809D07F22037A93431A00202313434E
:104AC000037200230360436020606560200070BDB6
:104AD00010B5002801D0FFF7B5FF10BD10B50200DA
:104AE000037A20200340181E02D01068FFF74FFB06
:104AF00010BD437E002B06D143695A1C42611B78CE
:104B0000037601234376007E704710B50400200031
:104B1000FFF7EFFF0A2806D8092808D2002809D095
:104B2000012020740CE00D2801D02028F8D10023AA
:104B30006376ECE7237C60345A1E93410133237083
:104B400010BD1FB57F220300007A104004380828EA
:104B50002ED80AF053FA0F0F052D082D0D2D1A002F
:104B6000187804B010BD1868C343DB171840F8E785
:104B70001868F6E71868002301AC23722100FFF7DC
:104B800047FB2000FFF7DDFFEBE7CF211C6809069C
:104B9000201C0AF021FC0028E3D09E21201CC9051E
:104BA0000AF006FC0028DCD0201C0BF0BDFAD8E788
:104BB0000020D6E770B504000D00FFF79AFF002330
:104BC000A84201D163760133180070BD2F2815D992
:104BD0000123392803D95E2803D97A2803D818007D
:104BE000704740280AD901235A28F8D90023012206
:104BF0002D38C0B282425B41DBB2F0E701232B28A3
:104C0000F4D1ECE737B500236A460C001370C3B249
:104C10007F2809D85370951C013D297800292ED092
:104C20002000FFF7DFFBF7E73F2180226D460B40B6
:104C30005242134380096B7085B2C3B21F2D05D851
:104C4000403213436A469370D51CE5E76D460B402E
:104C500000041343800DAB70C3B20F2805DC202283
:104C600052421343EB7001ADD6E719401023801177
:104C70005B420A431843EA7028710535CCE737BD1B
:104C8000F7B505000027FFF734FF6F760190280085
:104C9000FFF72FFF0024019B01006C76834258D060
:104CA000A04204D10223603500202B70FEBD5C2899
:104CB0004BD12800FFF71DFF0028F3D02B4B7528A0
:104CC00039D104266C762800FFF713FF0028E9D0BD
:104CD000402806D83038C0B20F2806D960350323E3
:104CE000E2E7202398433738F5E700232401013E0B
:104CF0000443F6B2A4B26B769E42E4D1A0239B019A
:104D0000E3181B4A9BB2934202D8A405A70DBEE745
:104D100090239B01E3189BB22000934206D8802386
:104D20008005BC02800D20435B02C0182900FFF7FC
:104D300069FFACE702331A78002ACFD09042F9D14C
:104D400059780029CAD000236B762800FFF74AFB68
:104D50009DE728002100FFF745FB6B680120002B31
:104D6000A4D1042260352A7018009FE7EB440100AB
:104D7000FF030000026870B5536804004360936845
:104D800052689B1AC36000238360FFF7B2FE272896
:104D90000DD022280BD02000FFF7ABFE0600FFF756
:104DA00015FF051E09D103236034237003E02000A2
:104DB000FFF766FF0500280070BD00233100637611
:104DC0002000FFF70FFB2000FFF793FE0600FFF720
:104DD000FDFE011EF1D12000FFF704FB6368002BEC
:104DE000E9D10422603422701D00E4E7F7B5040025
:104DF0000D001F1CFFF789FE0190002801D100263D
:104E000058E02000FFF775FE272800D17BE01DD871
:104E1000222800D177E02000FFF76BFE00260090EB
:104E20000098F7B2FFF7D2FE002800D187E00136E4
:104E3000402E00D182E06A46002312786376A319DF
:104E4000DA772000FFF755FE0090E9E75B2813D0E2
:104E50007B28E0D17F222B7A290093431A0020235C
:104E600013432B72002300222B606B6020003B1C3D
:104E700000F092F806001DE07F222B7AFFB29343E8
:104E80001A00402313432B7200232B606B609F4258
:104E900003D1603405332370B1E763762000FFF758
:104EA00034FE0028ABD05D212000FFF783FE061EF4
:104EB00002D0019E3000FEBDE1692800FFF781F9B4
:104EC000011E03D1042360342370F3E77B1E00220C
:104ED0002000FFF78BFF002800D190E72000FFF7AC
:104EE00014FE002800D18AE75D212000FFF762FE52
:104EF0000028DED12C212000FFF75CFE0028DBD14A
:104F000060340323C7E72268200053686360936816
:104F100052689B1AE3600023A360FFF7B1FE061EF0
:104F200000D16CE72000FFF7D6FC7F222B7A2860A7
:104F300093431A00052313432B72BBE73F2700213D
:104F4000E3190133D977631CDB7F742B0DD17F22EA
:104F50002B7A93431A00062313432B7201232B70E1
:104F6000042FA6D06034022395E7662B0AD17F2256
:104F70002B7A297093431A00062313432B72052FB3
:104F8000F0D196E76E2BEBD0200029002030FFF700
:104F90003FF90028B4D08CE7F7B5DFB204000E006B
:104FA000002F04D105236034237000250DE0002379
:104FB0004376FFF7AAFD00900028F6D07D2120005F
:104FC000FFF7F8FD051E26D0009D2800FEBD616894
:104FD0003068FFF7DCF8002831D001007B1E00228A
:104FE0002000FFF703FF0028DFD02000FFF78DFD32
:104FF0000028DAD07D212000FFF7DCFD0028E3D176
:105000002C212000FFF7D6FD002814D02000FFF748
:105010007CFD0028C9D02000FFF7ACFE0028C4D0DA
:105020002000FFF772FD0028BFD03A212000FFF7D3
:10503000C1FD0028CBD1032360342370C5E72000D5
:10504000FFF749FCE16901903000FFF7BAF800284A
:1050500002D160340423F0E78022037A52421343E2
:105060000372019BC360B8E710B5040000680368D1
:105070005B68984763681818606010BD70B50500DC
:1050800008000C000DF0DCFD210002002800FFF7F5
:10509000EBFF70BDF0B5162407000D000A2687B09F
:1050A0006C44280031000AF039F8013C303121709D
:1050B0002800310009F0ACFF051EF2D116236B4425
:1050C0001A1B21003800FFF7CFFF07B0F0BD10B565
:1050D0000400006803681B689847636818186060DC
:1050E00010BD000070B50D00040022212000FFF764
:1050F000EEFF2978002909D00A4B01351E78002ED1
:10510000F4D05A788A4206D00233F7E722212000F1
:10511000FFF7DDFF70BD5C212000FFF7D8FF3100F5
:10512000E4E7C046ED4401007F22F0B5037A8BB07E
:1051300005000C001340062B00D18FE106D8022B8E
:105140000DD3032B00D975E106CD49E10C2B24D0FA
:1051500007D8082B00D17FE10A2B00D16FE1C449A9
:1051600081E1202B00D146E1402BF8D15B212000CA
:10517000FFF7ADFF2D68002D00D135E1210028009B
:10518000FFF7D2FF2800FEF7FAFF051E00D12BE142
:105190002C212000FFF79BFFEDE70668311C301C37
:1051A0000AF0F6F80028DAD00021301C0AF0F0F8F6
:1051B000002809D1311C301C0AF04EF9011C301CAA
:1051C0000AF0E6F80028CAD10021301C0AF0E6F8FF
:1051D000002806D02D212000FFF779FF80231B0631
:1051E000F618A449301C0AF0F7F8002844D0002330
:1051F000142520270093A04B301C59590AF0ECF8D5
:10520000002809D09D4B301C59590AF097FC009B8F
:10521000061CF81803B20093043D7F102B1DEAD141
:1052200003350021301C0AF0CDF8002828D0301CAE
:105230000CF0C2FD924A934B0AF080F800281FD070
:10524000AB0001932B061BD48F4B019A311C98584D
:105250000AF0B8F800280AD0874B019A301C9958F8
:105260000AF06CFC009B061CD81B03B20093019B48
:105270007F10013D043BE4E7202705250090D0E79F
:10528000301C0AF0B3F806230700804D0290039308
:105290006B461B7B5BB20193039B013BDBB2039329
:1052A000029B092B0AD90A21280009F0B1FE0A2124
:1052B0000500029809F0ACFE0290E9E738000AF018
:1052C0009DFF011C301C0AF06BFD061C28000AF033
:1052D00095FF011C301C0AF031FC02900AF086F8A0
:1052E00006000AF08BFF011C02980AF059FD011C10
:1052F0000AF0B2F80AF07AF88619B5420BD80026FF
:10530000009B0137B34206D0092F04D918000127AA
:10531000013003B200930A252900300009F0FEFE97
:1053200000290CD1019B002B09DD3000290009F078
:105330006FFE019B0600013B5BB20193ECE7390075
:105340002000FFF7A7FE019B002B20D01D0008AF17
:10535000013D6DB2013F6B1C0BD030000A2109F0FA
:10536000DDFE3031397030000A2109F051FE0600AF
:10537000EEE76B461B791025D9432E224B1904A862
:10538000C25408AB4A4220005918FFF76DFE009B3B
:10539000002B2DD065212000FFF799FE6B461D885C
:1053A000009B002B05DA2D212000FFF790FE6D42B7
:1053B000ADB216260A2704ABF6182800390009F00A
:1053C000ADFE013E303131702800390009F020FE79
:1053D00085B2002DF1D11623310004AA9B189A1B27
:1053E0002000FFF741FE03E05D212000FFF76FFE84
:1053F00060680BB0F0BD7B212000FFF768FE2D68D0
:10540000002D15D0E9682000FFF76CFE3A2120003E
:10541000FFF75DFE21002800FFF786FE2800FEF75B
:10542000AEFE051E04D02C212000FFF750FEE7E75A
:105430007D21DAE701682000FFF754FED8E7056810
:10544000002D04DA2D212000FFF741FE6D422900D6
:105450002000FFF71FFECBE70168F9E703780C494E
:10546000002B00D10B492000FFF708FEC0E7C04623
:10547000FC4401008096184B6C430100544301002A
:10548000F168E388B5F8E43E3C43010040420F0078
:10549000014501000645010010B51430FFF744FE38
:1054A00010BD000030B5B5B004ACA0220CA920009E
:1054B000FEF77DFE002322001C4909A82377FFF791
:1054C000D8FA01001A48FEF725FE2200194909A85A
:1054D000FFF7CFFA01001848FEF71CFE220017491B
:1054E00009A8FFF7C6FA002808D07F22037A934361
:1054F0001A000C2313430372114B0360220011495D
:1055000009A8FFF7B6FA220001000F48FFF7F2F9E9
:1055100000230E4D02A9200003930295FFF7BCFF64
:10552000280008F069FF35B030BDC0469543010042
:10553000D9440100DF440100E2440100E6440100D7
:10554000CDCC6644A643010005000020E4110020F4
:1055500070B50026AAB002AC05000AA9802220007E
:10556000FEF725FE22000F4907A82677FFF781FAEC
:1055700001000D48FEF7CEFD22000C4907A8FFF7F9
:1055800078FA01002800FEF7C5FD094D69462000A4
:1055900000950196FFF780FF280008F02DFF2AB044
:1055A00070BDC0469543010062440100664401009D
:1055B000E411002070B59AB002AC060040220D0044
:1055C00020000AA9FEF7F3FD00232200124907A8D4
:1055D0002377FFF74EFA01003000FEF79BFD220013
:1055E0000E4907A8FFF745FA002807D07F22037A63
:1055F000056093431A000A23134303720023084DE6
:105600006946200001930095FFF746FF280008F047
:10561000F3FE1AB070BDC046954301002052010050
:10562000E411002070B5F34CA54416AC2000FFF740
:105630009CF92200F0491BA8FFF71BFA0100EF4874
:10564000FEF768FDEE4D2200EE491BA82E78FFF70D
:1056500010FA002809D07F22037A93431A00062308
:1056600013430372731E9E4106702200E6491BA875
:10567000FFF7FFF901002878FEF75AFD2200E34901
:105680001BA8FFF7F6F9E24B01001878FEF750FD72
:105690002B78002B00D1EFE0DE4B072518680CF0CB
:1056A0001FFB0022DC4B0BF005F900950B000200FC
:1056B0000AA809F085F80AA90DA8FFF762F92200E7
:1056C000D6491BA8FFF7D5F90DA9089010A8099491
:1056D00009F043F8099A089910A8FFF761F910A892
:1056E00008F0D0FF0DA808F0CDFF0AA808F0CAFF07
:1056F000CB4B18680CF0F4FA0022C74B0BF0DAF829
:1057000000950B0002000AA809F05AF80AA90DA892
:10571000FFF737F92200C3491BA8FFF7AAF90DA923
:10572000089010A8099409F018F80899099A10A887
:10573000FFF736F910A808F0A5FF0DA808F0A2FFA2
:105740000AA808F09FFF2200B7491BA8FFF791F9AC
:10575000B64B01000020185EFEF7F5FCB44B18684C
:105760000AF002FDB3490AF0E9F90122011C0AA876
:1057700009F008F80AA90DA8FFF703F92200AE49BD
:105780001BA8FFF776F90DA9089010A8099408F056
:10579000E4FF0899099A10A8FFF702F910A808F089
:1057A00071FF0DA808F06EFF0AA808F06BFF220039
:1057B000A2491BA8FFF75DF9002809D07F22A04B62
:1057C0001988037A016093431A0008231343037274
:1057D0009C4B18680AF012FD9B4909F0D7FF012283
:1057E000011C0AA808F0CEFF0AA90DA8FFF7C9F806
:1057F00016AA96491BA8FFF73CF916AB08900DA90D
:1058000010A8099308F0A9FF099A089910A8FFF7B2
:10581000C7F810A808F036FF0DA808F033FF0AA853
:1058200008F030FF8A4B18880AF09EFC89490AF07C
:1058300085F90122011C0AA808F0A4FF0AA90DA8F5
:10584000FFF79FF816AA84491BA8FFF712F916ABB9
:1058500008900DA910A8099308F07FFF0899099AEC
:1058600010A8FFF79DF810A808F00CFF0DA808F08D
:1058700009FF0AA808F006FF784B16AC1B78002B2E
:1058800021D0774A774B12781B880492764A1821E8
:10589000127810A80392754A12780292744A12780C
:1058A0000192744A12780092734A0DF06DF9220049
:1058B00072491BA8FFF7DDF822000100089010A82C
:1058C0000994FFF717F86E4B18780AF04DFC6D49F4
:1058D00009F05CFF0222011C0AA808F053FF0AA984
:1058E0000DA8FFF74EF8220067491BA8FFF7C1F883
:1058F0000DA9069010A8079408F02FFF0699079AA3
:1059000010A8FFF74DF810A808F0BCFE0DA808F08D
:10591000B9FE0AA808F0B6FE08F0C8FF220006008B
:105920005A491BA8FFF7A5F8051E0CD07F22037A61
:10593000FA2193431A0008231343037289003000AD
:1059400009F066FB2860524801F07AFF0122011C31
:105950000AA808F017FF0AA90DA8FFF712F82200FD
:105960004C491BA8FFF785F80DA9069010A80794CD
:1059700008F0F3FE0699079A10A8FFF711F810A88F
:1059800008F080FE0DA808F07DFE0AA808F07AFE57
:10599000220041491BA8FFF76CF8002809D07F229C
:1059A0003E4B1B680360037A93431A00082313439A
:1059B000037222003A491BA8FFF75BF8002809D0C0
:1059C0007F22384B1B680360037A93431A00082335
:1059D000134303720023344D10A920001193109536
:1059E000FFF75AFD280008F007FD9E239B009D4409
:1059F0005CE0C04688FDFFFF954301006A4401005A
:105A0000A40900206E4401007244010077440100A3
:105A1000E305002098090020D01263417F44010073
:105A20009C0900208344010087440100DC0500201C
:105A3000A8090020FAED6B3B8B4401009144010062
:105A4000E00500209009002000007A4498440100FD
:105A5000A20900200AD7233C9D440100AC09002084
:105A6000A5090020AE090020A0090020940900200B
:105A7000E2050020A1090020A2440100C144010068
:105A8000DE0500200000A041C5440100CA44010019
:105A900080040020CD440100D3440100A40A00206A
:105AA000D6440100A00A0020E411002070BDC046C9
:105AB0001FB5282008F082FF022304000093032270
:105AC0000733082101F0DCF821000D4801F070F9DE
:105AD0000C4B0D4C02930D4B4022019301235B4272
:105AE000009380210A4B200003F0A6FA094A0A49D4
:105AF000200009F07BFA094804F03EFB1FBDC046B8
:105B000080040020A086010068020020801A0600A0
:105B1000D40A0020000000209D900000E405002031
:105B20000023F7B50F000524154E01903370154D75
:105B3000280001F0E5FE0F300AD0C82132204900CC
:105B4000013C08F094FBE4B208F0E6FE002CEED134
:105B500000233A000199280002F080FA00220A4B43
:105B600004000A4928001A7001F06EFF0123337007
:105B7000002C03D1064A1368013313602000FEBDD8
:105B800004000020800400209C0A0020FFFFFF008A
:105B9000A40A002030B50500BBB00C001E207821FF
:105BA00008F065FB08F0B8FE0C4903AB0A881D70CD
:105BB000013292B20A8000219C702D1224125D7075
:105BC000DC7001910431009104A80239FEF72CFE2B
:105BD000010004A8FFF7A4FF3BB030BDA80A0020D5
:105BE000F0B5884C0700A54442AD2800FEF7BDFE85
:105BF000002F00D1844F0026429B0CAC6B60EB68F9
:105C00001022AB6004A92E742E7708A804950CF01E
:105C10001FFA102208A920000CF01AFA2674119716
:105C2000882702ABDB196676E56100221E7047A962
:105C30000A232000FFF7DAF802ABDB191B78B34226
:105C400007D1237EB34200D1D1E02B7F1B0700D4C4
:105C5000CDE06E48FFF77CFC07E06D4928000CF0B2
:105C6000E5FF002805D1FFF71DFCCB239B009D44D9
:105C7000F0BD684928000CF0D9FF061E17D166490F
:105C800047A8FEF72BFFFEF7B8FA011E02D00378F3
:105C9000002B01D16148DDE7614C102220000CF09F
:105CA000E7FF2674FFF7FEFBFEF7F8FCDDE75D4932
:105CB00028000CF0BBFF031E24D15B490A88013287
:105CC00092B20A800121009001912000FEF7ACFD04
:105CD00001002000FFF724FF002802D05348FFF7FF
:105CE00037FC0122524B1A7008F0E0FDFA21040043
:105CF0004901002008F0BBFA4E4BE4184E4B201827
:105D00001860D1E74D4928000CF090FF00286CD1B5
:105D10004B4947A8FEF7E2FEFEF76FFA494D060031
:105D2000290047A8FEF7DAFE002806D07F22037A72
:105D30001340082B0AD00A2B0BD001256D42002EF0
:105D400002D03378002B0FD13F4883E70368002B44
:105D5000F3DB290047A8FEF7C1FE002801D10500AA
:105D6000EDE7FEF7EEFEFAE730000CF069FFB4282D
:105D700001D936486EE7364B1B78002B02D0002342
:105D8000334A13700123284F00213A88013292B21E
:105D90003A800193009033002000FEF745FD01009A
:105DA00006002000FFF7BCFE039000281BD129004D
:105DB0002848FFF7FFFB0123254A210013703A888A
:105DC000254B26481A80264B32001D600CF040F906
:105DD000244B1E6008F06AFD6A46234B127B186054
:105DE000224B1A7060E7114834E7214832E7214915
:105DF00047A8FEF773FEFEF700FA051E00D02CE759
:105E00001D4827E7D4FCFFFFFB4401008443010049
:105E100097430100A64301009C4301009E430100FB
:105E200005000020AB430100A80A0020B043010098
:105E3000D602002060EA0000B0090020D34401002F
:105E4000C643010020520100C0430100CB430100C2
:105E5000B4090020D9430100940A0020B5090020AC
:105E600018000020900A0020980A0020960A0020BE
:105E7000DE430100954301008D43010070B50F4CD6
:105E80002378002B15D008F011FD0D4D2B68C01A9A
:105E90000C4B98420DD90C4B1A78002A0AD10132CA
:105EA0001A7008F003FD094B286019680848FFF7CD
:105EB00037FE70BD00232370FBE7C046B409002005
:105EC000980A0020C3090000960A0020900A0020CA
:105ED000B50900200023F0B55E4D5F4C5F4F604A6E
:105EE000A544012128003B70137001F09BFC802326
:105EF000060002905B00984200D9029358AC029AC7
:105F00002100280001F0C2FC0590280002F0E0FA10
:105F10000390280002F0F2FA52490490280001F0A0
:105F200093FD01233B70059B002B00D08CE0072ED6
:105F300000D889E02378C42B00D085E06378012B5A
:105F400000D081E02379E2781B021A43464B079286
:105F50001B880993934277D0E579102D74D82F00D0
:105F6000029B08379F426FD8A67873B20693002B26
:105F700004DA2B00029A1433934265D83E220AAB0E
:105F8000FF329B181B7801320A930AAB9B181B78CF
:105F900025AC2A005AA920000B930CF059F858AAF6
:105FA000D71908220023524271B26355551B14328F
:105FB000994200DB1A000E2402990E936D18AA1A5A
:105FC00008920AAAA4180F93238073B2002B3EDA1A
:105FD000FFAA843294460B0063441D00234B042225
:105FE000ED1829000EA80CF033F8291D04220FA883
:105FF0000CF02EF829002000083102220CF028F8BD
:10600000EB7AAC7A05937F253540022D3AD1089B77
:10601000032B19D916490B78002B15D07A783B78C9
:1060200012021343099A9A420ED11248FA78BB78A9
:10603000008812021343984206D100230B700E4BC6
:106040000E481968FFF7B6FA0D4B9D44F0BD0024C9
:106050000594D8E7800400207CFBFFFF04000020AB
:106060009C0A0020FFFFFF0096090020D4FCFFFFE0
:10607000B4090020940A0020180000203C440100CC
:10608000840400000B9B07981E020A9B1E433100EC
:10609000FEF7AEFB0290002D00D067E131000798BB
:1060A000FFF778FD029B002BCED1089DB42D00D9BF
:1060B000B4252AAE2A00390030000BF0C9FF0023B6
:1060C00098A87355FEF751FC98AA94499DA8FEF72D
:1060D000D0FC01009248FEF71DF898AA91499DA8AE
:1060E000FEF7C7FC98AA010025A8FEF703FC98AAB2
:1060F0008D499DA8FEF7BDFC98AA01003000FEF76F
:10610000F9FB012203991CA808F03CFB1CA91FA85D
:10611000FEF737FC98AA85499DA8FEF7AAFC98AB24
:106120001A901FA922A81B9308F017FB1A991B9A13
:1061300022A8FEF735FC22A808F0A4FA1FA808F050
:10614000A1FA1CA808F09EFA012204991CA808F0E4
:1061500019FB1CA91FA8FEF714FC98AA74499DA856
:10616000FEF787FC98AB1A901FA922A81B9308F092
:10617000F4FA1A991B9A22A8FEF712FC22A808F03A
:1061800081FA1FA808F07EFA1CA808F07BFA069B8B
:10619000002B00DB9BE0674A98A910A8FEF77FFC64
:1061A000109E119D64492A003000FEF791FC010009
:1061B0002000FDF7BDFF002C61D00E980BF090FD84
:1061C00000225E4B0AF076FB07240B0002000094CD
:1061D0001CA808F0F5FA1CA91FA8FEF7D2FB2A009C
:1061E00057493000FEF774FC1FA91A9022A81B958E
:1061F00008F0B3FA1B9A1A9922A8FEF7D1FB22A83D
:1062000008F040FA1FA808F03DFA1CA808F03AFA76
:106210000F980BF065FD0022484B0AF04BFB0094F1
:106220000B0002001CA808F0CBFA1CA91FA8FEF75F
:10623000A8FB2A0043493000FEF74AFC1FA91A9028
:1062400022A81B9508F089FA1A991B9A22A8FEF732
:10625000A7FB22A808F016FA1FA808F013FA1CA83A
:1062600008F010FA2A0038493000FEF731FC0E23FE
:106270000AAA9B1801000020185EFDF764FF05982C
:1062800009F072FF314909F081FA0222011C1CA8B1
:1062900008F078FA1CA91FA8FEF773FB2A002C4906
:1062A0003000FEF715FC1FA91A9022A81B9508F0D4
:1062B00054FA1A991B9A22A8FEF772FB22A808F03A
:1062C000E1F91FA808F0DEF91CA808F0DBF90024AA
:1062D000204D22A998A822952394FFF7DDF82800E5
:1062E00008F08AF81C4A1D4D136825A90133136074
:1062F000280010220CF0BCFC2C74194D15222AA980
:1063000028000CF0B5FC6C75039A164B1A60164BFE
:10631000049A1A60FEF7C2F996E6C046954301005A
:10632000D644010040440100C64301004544010039
:106330004A4401004E44010072440100D0126341FE
:106340007F44010083440100874401000000A04114
:10635000C5440100E4110020A00A0020D70200205B
:10636000F8020020F0020020F4020020012D00D0ED
:106370003EE1029B002B00D066E6A02298AE5200C0
:10638000A0A93000FDF713FF6B461B7A320033776C
:1063900086499DA8FEF76DFB01008548FDF7BAFE12
:1063A000320084499DA8FEF764FB3200010025A855
:1063B000FEF7A0FA2A0003991FA808F0E3F91FA925
:1063C00022A8FEF7DEFA32007B499DA8FEF751FBBA
:1063D00022A91C902AA81D9608F0BFF91C991D9AA5
:1063E0002AA8FEF7DDFA2AA808F04CF922A808F03E
:1063F00049F91FA808F046F92A0004991FA808F0D7
:10640000C1F91FA922A8FEF7BCFA32006B499DA86A
:10641000FEF72FFB22A91C902AA81D9608F09DF9D3
:106420001C991D9A2AA8FEF7BBFA2AA808F02AF997
:1064300022A808F027F91FA808F024F9069B002BD2
:1064400000DB9BE031005E4A12A8FEF728FB129E9B
:10645000139D5C492A003000FEF73AFB0100200042
:10646000FDF766FE002C61D00E980BF039FC00227F
:10647000554B0AF01FFA07240B00020000941FA8D6
:1064800008F09EF91FA922A8FEF77BFA2A004F49BF
:106490003000FEF71DFB22A91C902AA81D9508F0CC
:1064A0005CF91D9A1C992AA8FEF77AFA2AA808F026
:1064B000E9F822A808F0E6F81FA808F0E3F80F981A
:1064C0000BF00EFC0022404B0AF0F4F900940B0094
:1064D00002001FA808F074F91FA922A8FEF751FABC
:1064E0002A003B493000FEF7F3FA22A91C902AA8A3
:1064F0001D9508F032F91C991D9A2AA8FEF750FA4A
:106500002AA808F0BFF822A808F0BCF81FA808F0D5
:10651000B9F82A002F493000FEF7DAFA0E230AAA4A
:106520009B1801000020185EFDF70DFE059809F08C
:106530001BFE294909F02AF90222011C1FA808F0B4
:1065400021F91FA922A8FEF71CFA2A0023493000CE
:10655000FEF7BEFA22A91C902AA81D9508F0FDF8A6
:106560001C991D9A2AA8FEF71BFA2AA808F08AF897
:1065700022A808F087F81FA808F084F80025184C16
:106580002AA998A82A942B95FEF786FF200007F0E9
:1065900033FF144C25A9102220000CF069FB1522B2
:1065A0001149124825740CF063FBADE695430100D8
:1065B000AB43010040440100454401004A4401004E
:1065C0004E44010072440100D01263417F44010037
:1065D00083440100874401000000A041C54401003C
:1065E000E4110020D702002052440100F8020020EC
:1065F000032D00D028E5029B002B00D024E5069B4C
:10660000002B00DB20E5C02298AD5200A0A9280095
:10661000FDF7CDFD6B461B7A2A002B779B499DA881
:10662000FEF727FA01009A48FDF774FD2A00994900
:106630009DA8FEF71EFA2A0001001C9025A81D95B2
:10664000FEF758F9012203991FA808F09BF81FA92B
:1066500022A8FEF796F92A008F499DA8FEF709FAAD
:1066600022A91A902AA81B9508F077F81A991B9A64
:106670002AA8FEF795F92AA808F004F822A808F03D
:1066800001F81FA807F0FEFF012204991FA808F0D7
:1066900079F81FA922A8FEF774F92A007F499DA85E
:1066A000FEF7E7F922A91A902AA81B9508F055F8D9
:1066B0001A991B9A2AA8FEF773F92AA807F0E2FF95
:1066C00022A807F0DFFF1FA807F0DCFF2900744AAB
:1066D00014A8FEF7E4F9149E159D72492A003000B3
:1066E000FEF7F6F901002000FDF722FD002C61D035
:1066F0000E980BF0F5FA00226B4B0AF0DBF807243A
:106700000B00020000941FA808F05AF81FA922A845
:10671000FEF737F92A0065493000FEF7D9F922A9BA
:106720001A902AA81B9508F018F81B9A1A992AA8FB
:10673000FEF736F92AA807F0A5FF22A807F0A2FF66
:106740001FA807F09FFF0F980BF0CAFA0022564BC4
:106750000AF0B0F800940B0002001FA808F030F80F
:106760001FA922A8FEF70DF92A0051493000FEF7B3
:10677000AFF922A91A902AA81B9507F0EEFF1A99E3
:106780001B9A2AA8FEF70CF92AA807F07BFF22A87B
:1067900007F078FF1FA807F075FF2A004549300071
:1067A000FEF796F90E230AAA9B1801000020185E36
:1067B000FDF7C9FC059809F0D7FC3F4908F0E6FF52
:1067C0000222011C1FA807F0DDFF1FA922A8FEF767
:1067D000D8F82A0039493000FEF77AF922A91A9030
:1067E0002AA81B9507F0B9FF1A991B9A2AA8FEF749
:1067F000D7F82AA807F046FF22A807F043FF1FA8F2
:1068000007F040FF089B032B32D92D4A98A922A8F4
:10681000FEF745F9229C239D2A492A002000FEF715
:1068200057F901003878FDF783FC7E782A00264965
:1068300020007600FEF74CF9002807D07F22037A6B
:10684000066093431A000A23134303722A001F4968
:106850002000FEF73DF90100B878FDF769FC1C49FE
:106860002A002000FEF734F90100F878FDF760FCFB
:106870000023184C2AA998A82A942B93FEF70CFE03
:10688000200007F0B9FDFFF7DFFBC046954301008C
:106890005B44010040440100454401004A440100BA
:1068A0004E44010072440100D01263417F44010054
:1068B00083440100874401000000A041C544010059
:1068C000C74301008B44010091440100984401003A
:1068D00077440100E4110020F8B5B32501246D00D0
:1068E000174E300006F00AF9002828D0300006F0D4
:1068F00041F9C0B2134E0A2801D00D2814D1124F0D
:1069000032683B78002A09D0002B09D10F48835404
:10691000FFF766F9002333603B70E1E7002BF9D005
:106920000B48FEF715FEF5E73368AB4204D85A1C56
:106930003260064AD054D3E7034B1C70D0E7F8BD51
:10694000E4110020780400207C0400200E030020C5
:10695000EA43010070B5374BBAB01B78002B01D069
:10696000FFF7B8FAFFF7B8FFFFF788FA07F09EFFC6
:10697000314A324913680500C31A8B4202D91060AC
:10698000FDF776FD2E4A2F491368EB1A8B4204D986
:106990001560FEF747FEFDF781FE2B4B1B78002BA1
:1069A00045D02A4B1B78002B41D0294B1C78002C5A
:1069B0003DD1284E3368AB4239D8FA212000490135
:1069C00007F055FC244BED18244B28181B68306049
:1069D000002B05DD09202249584308F0A3FB0400E1
:1069E000FA21204B8900186808F012FB03ABFF2C3A
:1069F00000DDFF241C4A1C70128852085A70FF28C0
:106A000000D9FF20194A1A4912789870DA700A885A
:106A100004A8013292B20A80012101910331009150
:106A20000139FDF701FF010004A8FFF779F83AB03A
:106A300070BDC0469C0A0020E8020020CF0700007D
:106A4000EC02002087130000D6020020A4090020D9
:106A5000B4090020B009002060EA0000A809002065
:106A6000C409000090090020E0050020E305002093
:106A7000A80A0020E12170B5490286B0694805F0F6
:106A80003BFF182008F006F905001A2008F002F96B
:106A9000040007F011FFA4026840604007F0D6FB35
:106AA0006149012007F0E3FB0125604B01211880BB
:106AB0000C2008F05DF900210C2008F0A5F96420F5
:106AC00007F02AFF5A4E300002F072F859493000A0
:106AD00002F08EF8584C00952B003C220221200039
:106AE00002F0D4FB002813D0544B20001D7002F09C
:106AF000BBFB2900200003F034FB00232361504B33
:106B000050496361200007F07FFC200002F080FE06
:106B10004D4C42223100200005F0A4F8002816D088
:106B200001254A4B4A4A002120001D7005F0FFF85C
:106B3000474A0021200005F001F9FA22290020002F
:106B400005F0EEF8424A0221200005F0FFF800238C
:106B50000593404B082504930A2312263E4C0293CA
:106B6000033B00930395019602333C4A3C492000C5
:106B700000F0B4F9002808D0FA24E4003948FEF700
:106B8000E7FC200007F0C8FEF8E7012236492000A4
:106B900000F018F90028EFD13049200000F068FF1C
:106BA0000028E9D12900200000F0E4FF0028E3D10B
:106BB0000521200000F0FEFF0028DDD14422310035
:106BC000200001F018F80028D6D12849200000F054
:106BD00025FB0028D0D11021200000F04DF900281D
:106BE000CAD12900200001F023F80028C4D10121D6
:106BF0001F4B00911F4A200001F0D8F80028BBD19C
:106C000020001D4900F002FA1C49200000F01CFF82
:106C1000FDF72EFCFEF746FCFEF704FDFDF73EFDFA
:106C200006B070BDE4110020FFFF000096090020AF
:106C3000D40A0020801A060068020020D402002036
:106C4000010001000C450100E4050020D5020020F0
:106C50004C040000CDCCCC3F800400200000FA4260
:106C60000000D94321450100CDCC664400000C430F
:106C7000211000000F1D0000FD400000FFFFFF007D
:106C8000F7B51D0008AB1B7804000F0016000021AB
:106C90000322083001930BF0F7F9802222736A4631
:106CA000104912796161012100236274FF2260188A
:106CB000E372A773E6732574A27423766176C377B3
:106CC000A01CC277E01CC27723609623064A9B0172
:106CD00062626360054A064B2000E26161732381B2
:106CE000FEBDC04680841E00983A0000AC0A002019
:106CF0000D0A000010B5FF2801D008F039F810BDCA
:106D000010B5FF2801D008F07FF810BD10B50400C1
:106D1000002902D0012910D010BD807B0121FFF78E
:106D2000E9FFA07B0121FFF7EBFF637B002BF3D092
:106D3000E0690368DB6A9847EEE7437B002BEBD002
:106D4000006861680368DB699847E5E710B50023D0
:106D5000FF2802D008F084F80300180010BD10B519
:106D600007F0BEF910BD10B507F003FE10BD10B559
:106D700007F0D2FD10BD10B507F0F0FD10BD10B545
:106D800007F094FD10BD10B507F096FD10BD70B56D
:106D9000431CDB7F04001500002B08D0831CD87F28
:106DA0000334FFF7ADFFE07F2900FFF7A9FF70BDB7
:106DB00010B5040000F0CEF8014B2000236010BD98
:106DC0003C45010073B50C1C06002049201C150031
:106DD00008F002FB002835D01D49201C08F0E8FA15
:106DE00000282FD0002D0ED01A49201C08F0EAFAF6
:106DF00001AD00280CD0184B2B802900300000F08A
:106E000092FB002803D1211C300000F057FB76BD17
:106E10001249201C08F0D6FA002801D0104BEBE7ED
:106E20001049201C08F0CEFA002801D00E4BE3E7F1
:106E30000E49201C08F0C6FA002801D00C4BDBE7F5
:106E40000C4BD9E70C204042E1E7C0460000164356
:106E50000000704400006144E1E9FFFF00805444F9
:106E6000D7DBFFFF00804044C1C5FFFF0000E643C1
:106E70007581FFFF6B6F0000F0B5CDB22B001133B1
:106E8000DBB285B00400272B23D80F2600236E44E5
:106E9000337032000133104900F082F9002816D116
:106EA00001270200009707230421200000F0BDFA0B
:106EB00000280CD104222900200000F03DFB00280E
:106EC00005D13B0032000449200000F095F905B0DF
:106ED000F0BD0D204042FAE7E7080000F0B50400DD
:106EE00087B00E1C111C1A000CAB1B780DA8059363
:106EF00011AB1B780EAD0FAF00782D783F88039350
:106F0000109B009002930197059B20006DB201F049
:106F100017FC00280FD10122311C2000FFF752FF7F
:106F2000002808D129002000FFF7A6FF002802D181
:106F3000200000F09FF907B0F0BD70477047FC30AB
:106F400010B5806A00220121FFF721FF0120404295
:106F500010BD000070B504000D00FF22104901F0C3
:106F60007FFC104B9A21083323602300002201206C
:106F7000FC334900DA621A635A6360541031DA63F1
:106F80001A645A6462520231625402316252002120
:106F90009D622000196559659A65DA6570BDC04625
:106FA0000024743F7445010070B50400FC34A36AEA
:106FB0000E0005000121187CFFF79CFEA36A00214A
:106FC000187CFFF79DFE0120FFF7D1FEA36A012187
:106FD000187CFFF795FE002E12D0FFF7D0FE0600BA
:106FE0002B6828005B689847041E09D0FFF7C7FE8E
:106FF000054B801B984204D80A20FFF7B8FEEFE744
:107000000024200070BDC046B70B000010B5FC3056
:10701000836A0422D87BFFF7A2FE10BDF0B589B0C9
:107020001F0010AB1B781600029311AB1B78019068
:1070300005930300FC339A6A0491130006A91433E4
:10704000D46921CB21C10021907BFFF759FEFFF7C6
:1070500096FE0390019DFC35AB6A587CFFF776FEE7
:1070600000280FD0FFF77FFEFFF789FE039BC01AB1
:10707000129B9842EED3AB6A0121987BFFF740FE4A
:10708000444882E023680699DB69079A2000984704
:10709000049DAE192368B54205D029789B6820006D
:1070A00098470135F6E7002F41D00E270E9D029B31
:1070B000EE182368AE4257D09B6829782000984785
:1070C00003003B40062B23D10625236820001B6AC2
:1070D0009847019C0121FC34A36A987BFFF710FEBE
:1070E000059B002B42D00120FFF745FEFFF747FE2E
:1070F0000600A36A587CFFF729FE002836D0FFF768
:1071000032FEFFF73CFE129B801B9842F1D3B7E79B
:10711000082B01D10825D8E70A2B01D10A25D4E78D
:107120000138C0B20135FD28C3D9FF25CDE79B68E2
:107130003900200098470E230340062BC4D0082BAB
:10714000E8D00A2BEAD00138C0B2FD28EDD80F9D57
:10715000029BEE182368B54206D09B6800212000F0
:10716000984728700135F5E70025AEE7082D0ED0C9
:1071700003D8062D84D0002007E00A2D04D0FF2D6F
:10718000F9D10220404200E0034809B0F0BD0348B5
:10719000FBE7C0463FFDFFFF3DFDFFFF3EFDFFFF5C
:1071A00030B51D2589B007AC2570A1700D0A0749BF
:1071B00065700491029301210023039101920093D1
:1071C00003222100FFF72AFF09B030BD8813000019
:1071D00070B586B00AAC24780BAD2D7802940024EB
:1071E000044E00930496039501940123FFF716FFC4
:1071F00006B070BD8813000030B50D2585B003AC16
:107200002570A1700D0A0121657001910093210084
:1072100013000322FFF7DCFF05B030BD73B50C1C73
:1072200006000021201C08F0D7F8002818D00E49CD
:10723000201C08F0BDF8002812D06B46201CDD1D74
:107240000AF0BAFD0022094B09F034FB08F0E6F819
:10725000012328702A0006493000FFF7CDFF76BDD4
:1072600011204042FBE7C04600000C4300000440F0
:10727000E708000037B56B46DC1D002322002370B1
:10728000084901330500FFF78BFF002809D11E23B1
:107290002278044913432370220001232800FFF7BA
:1072A000ABFF3EBDD808000073B56B46DC1D002364
:1072B0000E002370220001330A490500FFF770FF1A
:1072C00000280BD122780423002E08D19A43227083
:1072D0000123220003492800FFF78EFF76BD1343E8
:1072E0002370F5E73607000030B585B003AC637056
:1072F0000E2501232570019300920B00022221002C
:10730000FFF766FF05B030BD30B589B00D000CA9A0
:107310000C781F2169440D7002930023054D0193E1
:1073200001330092049503941A00FFF777FE09B029
:1073300030BDC046881300000300002230B5FC3386
:1073400085B004000D00986A1100FFF720FD0123AD
:1073500003AA1570802100932000FFF7D5FF05B028
:1073600030BD10B50021FFF7E7FF10BD1FB50F229C
:107370006A44002907D1117001239D210093FFF772
:10738000C3FF05B000BD01231370F5E71FB50B0C5B
:1073900003AA13700B0A5370012391700093832189
:1073A0000233FFF7B1FF05B000BD1FB50B0C03AAF8
:1073B00013700B0A537001239170009382210233E2
:1073C000FFF7A2FF05B000BDF7B500241049050086
:1073D000FFF7EBFF0A20FFF7CAFC26006B46DF1D14
:1073E00000233A003B700B4901332800FFF7D8FE19
:1073F00001223B781340A340A4181E43F6B2082C88
:10740000ECD12B6828005B6898473000FEBDC04671
:10741000FFFFFF0019080000012307B500930023B8
:10742000C5211A00FFF770FF0EBD30B585B008AC5E
:10743000257803AC637001232170A270E5702200EF
:10744000009395210333FFF75FFF05B030BD7FB593
:1074500008AC258802AC6170E27063710E0A110AF3
:107460001A0A2B0AA3710123A17022712670E571FB
:107470000093073322001900FFF746FF04B070BDE8
:107480001FB50B0A03AA1370012351700093DB1878
:107490001900FFF739FF05B000BD1FB50B0E03AA99
:1074A00013700B0C53700B0A93700123D17000936F
:1074B00086210333FFF728FF05B000BD10B5040097
:1074C000081C9821C90508F039FB0AF075FC002258
:1074D000044B09F0F9FD07F0A1FF01002000FFF7C0
:1074E000DCFF10BD0000A03F030030B5FC330D00F1
:1074F00085B0040001220021986AFFF748FC002DA6
:107500000AD1002303AA137001330093D121200074
:10751000FFF7FAFE05B030BD29002000FFF7BDFFE0
:107520000028EED0F6E7012307B50A000093982162
:10753000DB18FFF7E9FE0EBD1FB5012303AC217078
:1075400062708E2100932200DB18FFF7DDFE04B08D
:1075500010BDF0B587B002929A222C2503935200F9
:10756000825C0CAB04000F001B78FF35002A28D08A
:107570002A230126FF33C35C3000984008F03EFE0A
:107580002300FC33596B08F001F98321C90507F08A
:1075900023FF002813D066556B461B7A05AA53704B
:1075A0006B461B7B17709370635D8B21D370012337
:1075B000200000930333FFF7A7FE07B0F0BD60552E
:1075C000EAE74355E8E77FB5089D02AC23712B0C31
:1075D00063712B0AA37101230E0C26700E0AA17091
:1075E000E2706670E571220000938B210733FFF78C
:1075F0008BFE04B070BDF0B587B003930CAB1F7861
:107600000DAB1D780E00290004000292FFF74CFE1E
:10761000002812D104AA330A13706B461B7B5670E4
:10762000D3706B461B7A97701371012355718C21AF
:10763000009320000533FFF767FE07B0F0BDF0B5FB
:107640008BB010AC267811AC24780393049412AC60
:10765000257813AC24780B0A059414AC277807AC72
:1076600023706B461B7B6170E3706B461B7DE27180
:10767000A3716B461B7CA770237201232671657171
:10768000220000938C210833FFF73EFE0BB0F0BDC3
:107690001FB5012303AC217062708F21009322007B
:1076A000DB18FFF731FE04B010BD1FB5012303AA9C
:1076B000117000939621FFF727FE05B000BD10B5AD
:1076C0000021FFF7F2FF10BD10B50121FFF7EDFF1C
:1076D00010BD1FB5002303AA1380013300930721B7
:1076E0000133FFF711FE05B000BD00000022F0B528
:1076F0000F0087B011000600FFF7CAFF041E54D127
:1077000004AD2F7001272A0000973B008A2130002A
:10771000FFF7FAFD041E48D120232A002B70932185
:1077200000973B003000FFF7EFFD041E3DD103231F
:107730002B702A23FF33F35CA8800D336B700A2370
:10774000A8716B802A000097033B88213000FFF767
:10775000DBFD041E29D116493000FFF791FE2300FE
:1077600003900094220021003000FFF770FE039B7D
:1077700003431CB2002C18D17F232A002B708921CF
:1077800000973B003000FFF7BFFD041E0DD1052020
:10779000FFF7EDFA3300FC339B6A587CFFF7D6FA0B
:1077A000002802D0FFF7DFFAF4E7200007B0F0BDB1
:1077B000FF03000070B586B00AAC0BAD24782D78BD
:1077C00001930023044E0395049602940093FFF75F
:1077D00025FC06B070BDC046881300001FB51E24EE
:1077E0000B0003A90C801D3C009201940222FFF7BC
:1077F000E1FF04B010BD000030B589B00D000CA948
:107800000C781F2169440D7002930023044D0192EE
:107810000495039400930122FFF700FC09B030BDEA
:10782000881300001FB5002303AC238001330093AD
:10783000220001331321FFF7DFFF207804B010BDD1
:107840001FB5002303AC2380A370013322000093F3
:1078500015210233FFF7D0FF207808F0CFFCBF21BD
:10786000090608F06BF904B010BD1FB5002303AC86
:10787000238001330093220001331221FFF7BCFF64
:10788000237860781B02184304B010BDF7B5036875
:1078900001915B68050016009847041E1ED1280060
:1078A000FFF7E3FF60232700184200D0073FFF2EB9
:1078B00005D12B6801219B6A280098470600F2B287
:1078C00001992800FFF78AFF041E07D10449280008
:1078D000FFF7D6FD0400002F00D03C002000FEBDC5
:1078E000FF0300001FB50F24FF236C442370FE3BF1
:1078F000009322001121FFF77FFF207804B010BD14
:10790000F7B50500FFF7EEFF0700012840D12B680F
:1079100028005B689847041E2ED12E00FC3602001A
:107920003900B06AFFF733FAC022520000942300F6
:1079300011002800FFF78BFD041E1DD115492800FA
:10794000FFF79EFD041E17D12800FFF765FD041EFA
:1079500012D1B36AD87BFFF7F9F9002802D1FFF7FB
:1079600002FAF6E72800FFF780FFC30506D50949AC
:107970002800FFF785FD084C2000FEBD012403060A
:1079800004D504492800FFF77BFD0F246442F3E788
:107990001424FBE7FF03000042FDFFFF002330B586
:1079A00087B00093022226490400FFF750FD051E10
:1079B00022D1020001002000FFF76AFE051E1BD144
:1079C00020492000FFF75CFD2000FFF78BFF012816
:1079D00015D123002E2096222100FC33FF30DB6DD1
:1079E000205C5200FE31098EDBB20090A25C019552
:1079F0002000FFF700FE0500280007B030BD00287A
:107A00001BD105300490FA3003904730205C4423AA
:107A100002904620FF30205CA1220190A220A421E8
:107A20004000205CFF33520049000090E35CA25C00
:107A3000615A2000FFF703FEDDE701256D42DBE719
:107A400062020000FF03000070B504000D00FFF7A4
:107A5000A5FF00280AD12300FC3302000121986A07
:107A6000FFF795F929002000FFF79FFC70BD00008B
:107A700073B504000D1CFFF735FF0600012800D088
:107A80006EE00021281C07F0A7FC00281BD0364917
:107A9000281C07F08DFC002815D0FC21281C890526
:107AA00008F04CF80AF088F9304A314B08F0E6FB50
:107AB00007F0B4FCC0B20F2842D00ED8052824D05D
:107AC00003D803281CD008204BE0072821D00A281F
:107AD000F9D1942309225B0015E03E2838D007D85D
:107AE000142831D01F28EED1942303225B000AE032
:107AF0007D2831D0FA28E6D1942306225B0002E0EB
:107B0000942300225B00E25406E0942308225B00E9
:107B1000F9E794235B00E65423002C20FC335D63DB
:107B2000942295232A21FF30205C5B005200FF3114
:107B30000090E35CA25C615C2000FFF70AFD76BD6B
:107B4000942302225B00DEE794230A225B00DAE73B
:107B5000942304225B00D6E7942305225B00D2E73E
:107B600014204042EBE7C0460000FF437B14AE47C1
:107B7000E17A843F37B504000D00FFF7B3FE01281A
:107B800013D16B1F072B13D82A232C219422FF33E8
:107B9000E554FF31615C013352000091E35CA25C6B
:107BA00029002000FFF7D5FC3EBD14204042FBE732
:107BB0000920FBE737B505000C00FFF793FE01280D
:107BC00014D1631F032B14D895222C202A21231FA4
:107BD0005200DBB2AB54FF30285C023AFF31009018
:107BE000AA5C695C2800FFF7B4FC3EBD142040424B
:107BF000FBE70A20FBE773B505000C001600FFF752
:107C000071FE012811D10F21230030098B430E4052
:107C1000E821034301AA2401137034430223C9005D
:107C200028005470FFF7E8FA76BD14204042FBE7C5
:107C300030B587B004000D00FFF754FE012814D1C1
:107C400023000021FE331D86023BDB6D01912E21B6
:107C50009622FF31615C52000091DBB2A25C2900E8
:107C60002000FFF7C8FC07B030BD00281CD105215B
:107C7000A42304915B00FA31E55203914731615C22
:107C8000442302914621FF31615CA1220191A2218E
:107C90004900615CFF3352000091E35CA25C290063
:107CA0002000FFF7CCFCDEE701204042DBE70000CC
:107CB000F7B504000D1CFFF715FE002837D1002191
:107CC000281C07F06BFB002800D01B4D281C0AF075
:107CD00073F81A4A1A4B06000F0007F043FB0028FE
:107CE00028D01849281C07F063FB002822D0002266
:107CF000154B3000390009F0E7F983230022DB053A
:107D000009F0E2F90022114B08F0D4FD07F086FBE0
:107D10002100A0234222FC3108645B000090FF3266
:107D2000E35CA25CC96B2000FFF74DFCFEBD142094
:107D30004042FBE76620FBE79A99193F3333333320
:107D40003333E33F0000484300408F4080847E414E
:107D500037B504000D00FFF7C5FD002820D1042D24
:107D600021D842222800FF3207F048F903121416E6
:107D7000180000232100A354A023FC31086C5B00F1
:107D80000090E35CA25CC96B2000FFF71CFC3EBDC9
:107D90000823EFE70923EDE70A23EBE70B23E9E7E5
:107DA00014204042F3E76A20FBE70000F0B58BB0F7
:107DB000079310AB04000D0017001E78FFF792FD2B
:107DC000002851D1012D40D0002D03D0022D44D0E8
:107DD000344838E0A12301225B00E25405200490DE
:107DE000FA3003904730205C442302904620FF3055
:107DF000205CA1220190A220A4214000205CFF333E
:107E0000520049000090E35CA25C615A2000FFF739
:107E100016FC002817D109AD3B0A2B702A0002235B
:107E2000214920006F70FFF7E7F900280BD1079B6D
:107E30002A001B0A2B706B461B7F1C496B702000AD
:107E40000223FFF7D9F90BB0F0BDA1235B00002E90
:107E500001D00422C1E7E654C0E7A12306225B005B
:107E6000002EBAD1E554B9E7012818D19622520064
:107E7000002D12D0A054230021000020FC33FE313D
:107E8000DB6D098E01902E20FF30205CDBB200906C
:107E9000A25C2000FFF7AFFBD5E7A554EBE701207C
:107EA0004042D0E743FDFFFFBC060000BE060000D5
:107EB000F0B58BB004000D000792FFF713FD00280A
:107EC00050D14627FF37002D1AD14423A122A421E7
:107ED00005300490FA30E55503904730FF335200E7
:107EE0004900205CE35CA25C615A02900195A220EB
:107EF0004000205C00902000FFF7A1FB0BB0F0BD1C
:107F00000126D72109ADE65533002A00C90020001B
:107F1000FFF746F90028F1D1079A2B781212B343E4
:107F200016401E436B46D7211B7F2A006B70C90089
:107F3000022320002E70FFF75FF90028DED14423D2
:107F4000A122A42105300490FA3003904730205C30
:107F5000FF330290E05D52004900E35CA25C615A8D
:107F60000190C4E714204042C8E780224B1E99418B
:107F700010B5C9B25200FFF79BFF10BDF7B5040062
:107F800000912600FFF7AEFCFC36012851D12A23D0
:107F9000FF33E55C2D48A84008F030F92C49071C58
:107FA000706B07F0CBFD011C381C07F0EFFB07F0EE
:107FB0001DFA6B1F0600012B38D800221927254B0C
:107FC000A9009E4202D929003E3189002E23FF33A9
:107FD000E05CC9B243424341584214230340962017
:107FE00001934000205C009B4000C0184000451BEE
:107FF000AD00019BAD18ED182DB2281C002D00DA44
:1080000000204B1E00B2C01807F08CF895235B00CF
:1080100082B2E05CFE3404305043238E800008338B
:108020009B00DF19C7197743B808FEBD0822112746
:10803000C5E7009BF56BD800684309F08BFE002272
:10804000054B09F041F807F0E9F9EEE710270000C9
:10805000000020417F3E00000000503FF0B585B099
:108060000293036804005B680E001700984700281D
:1080700067D1FF2F67D82000FFF734FC01282ED1ED
:1080800039002000FFF77AFF032358434308019388
:1080900023683A00DD683100029B2000A8470028D1
:1080A0004FD1FEF770FE05002600FC36B36AD87B80
:1080B000FEF74CFE00281BD1FEF755FEFEF763FECF
:1080C000019B401B9842EFD921492000FFF7D8F9C6
:1080D000236820005B6898470520404231E0002873
:1080E00033D139002000FFF749FF05234343CEE792
:1080F000FEF749FE0190380009F02CFE0022154BD6
:1081000008F0E2FF019B02900391581B08F076F8FB
:1081100009F052FE0022104B08F0CCFB02000B00CD
:108120000298039908F0C6FB09F098FE08497065AB
:108130002000FFF7A5F9002803D1236820005B6821
:10814000984705B0F0BD0420C7E70120C5E7C04649
:10815000FF0300000000204080842E41F7B56B46ED
:10816000DC1D002322002370164901330500FFF7B0
:1081700017F8002820D12800FFF7B4FB01281CD1F4
:108180002B00FC33586B09F017FE00220E4B09F050
:108190000DFA49004F080D4A0D4B390007F0CEF893
:1081A00000280AD00422237893432370220001235D
:1081B00004492800FFF720F8FEBD0423227813436A
:1081C000F3E7C0468908000000407F40FCA9F1D2D7
:1081D0004D62503FF0B5050087B00F001600FF2A32
:1081E00075D8A2235B00C35C002B01D0FF2A6ED0A0
:1081F0002800FFF777FB01284AD129000020FE3133
:10820000098E01902E209622FF30285C52000090AB
:10821000F3B2AA5C2800FFF7EEF9041E59D10090D2
:10822000030001222D492800FFF711F9041E50D147
:10823000020001002800FFF72BFA041E49D10300B9
:10824000F2B239002800FFF74FF8041E41D124494B
:108250002800FFF715F9041E3BD12800FFF77EFF29
:10826000041E36D12E00FC3601000122B06AFEF752
:108270008EFD21002800FFF789F8041E29D1B36A7A
:10828000587CFEF763FD002823D0FEF76CFDF6E76F
:10829000002821D105300490F0B20390A3204000C3
:1082A000285C442302904620FF30285CA1220190E4
:1082B000A220A4214000285CFF3352004900009016
:1082C000EB5CAA5C695A2800FFF7B9F9A5E704241A
:1082D0006442200007B0F0BD0124F9E7010200006C
:1082E000FF0300002E2373B5FF33C35C0400012B92
:1082F00002D01420404276BDFFF7F4FA06000128B0
:10830000F7D16B4692219A1D0023090113700300D7
:108310002000FEF771FF0028EDD16B46DD1DD871FE
:108320002A00330008492000FEF73AFF0028E2D176
:1083300002232A78044913432B702A0033002000BB
:10834000FEF75AFFD7E7C04644090000F7B50368B7
:1083500001915B68040015009847002800D082E076
:108360002000FFF7BFFA012847D12A23FF33E35C3F
:10837000984007F043FF2300FC33596B07F006FADF
:1083800009F01AFD00223F4B08F09EFE00223E4BF2
:1083900008F09AFE07F042F8060007F02FFF09F0F8
:1083A0000BFD0022394B08F085FA07F037F8010081
:1083B0002000FFF749FB002855D1FEF7E4FC070039
:1083C0002300FC339B6AD87BFEF7C0FC00283FD11A
:1083D000FEF7C9FCFEF7D7FCC01B8642F0D2200096
:1083E000FFF780FF2A492000FFF74AF823682000A2
:1083F0005B6898470620404235E000283FD1281EA0
:1084000000D1FF2009F0A6FC0022224B08F05CFE00
:108410002300FC330600D86B0F0007F0EFFE09F0D5
:10842000CBFC02000B0000201B4908F043FA09F0C6
:1084300015FD09F0C1FC02000B003000390008F006
:1084400039FA0022154B08F03FFE0022144B9FE73B
:108450002E23FF33E35C012B06D023682A001B691F
:10846000019920009847FEBD2000FFF73BFA012844
:10847000F3D12000FFF736FF0028EED0F3E701200C
:10848000B9E7C0460000594000408F4000402F40EF
:10849000FF030000000020408084CE4180842E41F4
:1084A000000014401FB5002303AC2380A3700133E8
:1084B0000093220002331421FFF79EF9207863789D
:1084C00000041B021843A378184304B010BD000039
:1084D00070B5FFF7E7FFC0B209F002FC040080208E
:1084E00000060D180022044B2900200008F0ECFDC6
:1084F00009F0B4FC70BDC0460000E03F10B50400B8
:10850000FFF7F0F9012812D12000FFF7CBFF030A93
:10851000D8B21B0608D409F0E3FB0022054B08F093
:10852000D3FD09F09BFC10BD0138FF38F3E702488A
:10853000F9E7C0460000D03F0000A0C11FB50024ED
:10854000012303AA148017210093DB18FFF754F9C5
:10855000200004B010BD0000F0B5036889B05B686E
:10856000039004920E1C98470398FFF7E7FF8306D9
:1085700002D50398FFF7ADF87000400809F01CFC25
:108580005F4A604B06F0DAFE0590002805D0012115
:108590000398FEF709FD09B0F0BD301C09F00CFC92
:1085A000594A5A4B04000D0009F000F849004F08E1
:1085B000534A544B390006F0C1FE002820D06A46C9
:1085C000127D07AB1A70049807F018FE09F0F4FB4F
:1085D00000224F4B08F06EF906F020FF07AA030CAB
:1085E0005370030A9370039B0499FC33996501232C
:1085F000D0709721009303980333FEF785FECAE7F6
:10860000444A454B2000290008F0D0FF49004F089C
:108610003B4A3C4B390006F091FE002802D007ABE4
:108620000122CFE73D4A3E4B2000290008F0BEFF63
:1086300049004F08324A334B390006F07FFE0028CC
:1086400002D007AB0222BDE72F4A364B200029009B
:1086500008F0ACFF49004F08294A2A4B390006F0C0
:108660006DFE002802D007AB0322ABE7294A2E4B50
:108670002000290008F09AFF49004F08204A214BAA
:10868000390006F05BFE002802D007AB042299E710
:108690001D4A264B2000290008F088FF49004F089A
:1086A000174A184B390006F049FE002802D007ABE4
:1086B000052287E700221E4B2000290008F076FFE4
:1086C00049004F080E4A0F4B390006F037FE0028CC
:1086D00002D007AB062275E7164A174B2000290087
:1086E00008F064FF49004F08054A064B390006F0C0
:1086F00025FE002802D007AB072263E70F484AE7B0
:10870000FCA9F1D24D62503F9A9999999999F93FF4
:1087100000402F40333333333333FB3FCDCCCCCC0D
:10872000CCCCFC3F999901403333034099990540E3
:10873000000008406666666666660A4041FDFFFF07
:10874000F0B5050087B003930CAB1B78FC350493A0
:108750000DAB1B88040002930FAB1B780F1CA86A9B
:10876000002101920593FEF7D1FAAB6A0021D87B74
:10877000FEF7C0FAAB6A0021587CFEF7BBFA6A46E6
:108780002A231279FF336F63E2540422013BE2543F
:108790006A4623001289FE331A8600220126AA6542
:1087A00003329A85DE85FF233100EB652000FEF75A
:1087B000FBFB00284AD1236820005B68984700280B
:1087C00044D131002000FEF791FF00283ED1002166
:1087D0000E9806F0F7FD002831D101992000FFF72F
:1087E000C9F9002832D1391C2000FFF741F90028CF
:1087F0002CD103992000FFF7DDF9002826D144226F
:1088000004992000FFF7F7F900281FD102992000F2
:10881000FFF70EFA002819D10F492000FEF7FEFCE1
:10882000002813D101212000FEF7A0FD00280DD162
:10883000059B2000002B0BD0FEF741FF06E0074A06
:108840000E992000FFF788FE0028C6D007B0F0BDC3
:10885000FEF73AFFFAE7C0460000704288130000B6
:10886000034B416003600023826083817047C046F0
:10887000BC45010070B506000C008D18AC4207D055
:10888000336821789B683000984720700134F5E701
:1088900070BD7047704710B50400406803F07AFD62
:1088A0000023237610BD10B5406803F098FD10BD7D
:1088B000F8B5050040680C0003F08CFD2B68E7B2AA
:1088C000260A9B68012810D139002800FF27984705
:1088D0002B68BC4304439B6831002800984703027F
:1088E00020003840184380B2F8BD31002800984776
:1088F000FF262B680002344004439B68390028009F
:108900009847B4432043EEE710B5040006F05AF848
:10891000200010BD10B54B1C0BD0102909D0EFF36F
:10892000108472B6102905DD02234376002C00D195
:1089300062B610BD0123427E1A43427618224A4392
:108940000449891816228A569340C2691343C361A9
:10895000ECE7C046805A01004B1C17D0102915D0F7
:10896000437E9B0712D4EFF3108272B618234B4359
:108970000749C9180123897D49B28B40C1699943D0
:10898000C16100D14176002A00D162B67047C0466D
:10899000805A0100437E002B05D09A0704D5837EC0
:1089A000002B00D062B67047DB07FCD5C369024AD2
:1089B0009BB2D360F7E7C04600180040037E002B4F
:1089C00004D143768376C361013303767047000098
:1089D0007FB5036902AE04000D00029172608B4204
:1089E00003D1828AB3889A4226D020000622310021
:1089F000103009F02DFB606803F0E3FC7379E17A35
:108A0000013B581E8341227B00936068002303F0E2
:108A100075FE33790021013BDBB2022B01D8074AF6
:108A2000D15C074B2A009D4200D91A00606803F010
:108A300099FC606803F0BBFC7FBDC046F4450100B3
:108A4000001BB70070B518260400FFF7B7FF33000E
:108A50000821207A0D4D4343EB18595606F018FAB9
:108A600033000821A07A4343EB18595606F010FA58
:108A70000821607A4643AD19695606F009FA044B9D
:108A8000200006CBFFF7A4FF70BDC046805A01004E
:108A9000CC0A002007B5437E00910192002B07D03D
:108AA0009A070AD5EFF310835A425341837672B680
:108AB0000099019AFFF78CFF07BDDB07F8D5C36962
:108AC000014A9BB29360F3E7001800400E490F4B38
:108AD00010B501220B6000234A710B710C490D483F
:108AE000083101600C49427541600C49C272018134
:108AF0001421036181720375094A0A4903760373DD
:108B000006F074FA10BDC046CC0A002000093D00F2
:108B1000F8450100AC0A0020B81100201215000031
:108B200000000020958800000020704710B5036801
:108B30009C6B0123A04710BD8C2300229B00C154D5
:108B4000103BC3185A609A60DA600123837570473E
:108B500010B5036801211B6B984710BDF8B50500DF
:108B60000E0017000024BC4208D02B68315D1B6842
:108B700028009847002801D00134F4E72000F8BD10
:108B8000FC30406A704770478E239B00C15070478D
:108B90008D239B00C15070470300FC335A6A002AA2
:108BA00003D01B6AC018007E704701204042FBE7DB
:108BB00070B5060018250C49006903F0E9FD30691D
:108BC00003F027FC2B000821307D084C4343E318B9
:108BD000595606F05DF90821707D454364196156C8
:108BE00006F056F970BDC046A0860100805A01000B
:108BF00070B504000D00006903F020FC2900206915
:108C000003F0C6FD206903F004FC70BD10B50069D7
:108C100003F014FC10BD0000F7B50193FA23802681
:108C2000002504009B008360134B760008330F007F
:108C300045602900009203603200183009F024FAE0
:108C400023002000FC332530DD6132001D62290045
:108C50005D62FF3009F018FA88239B00E3185D601D
:108C60009D60DD606B461B78276123756B461B7921
:108C7000A57520006375FEBD3446010070B5060081
:108C80001825006903F05FFD306903F0C2FB2B007B
:108C90000821307D064C4343E318595606F0F8F896
:108CA0000821707D45436419615606F0F1F870BDE6
:108CB000805A010010B50022FFF7E0FF10BD03004D
:108CC000802210B5FC33DC685200944208D05A6808
:108CD00081545A680132D2B25A60DA680132DA60DD
:108CE00010BDF7B50400171E019302D1002528001E
:108CF000FEBD03000022FC33DA611A625A62006989
:108D0000013203F0CDFB061EF0D02300206918339A
:108D1000009303F058FC01000098FFF7D0FF0125F5
:108D20002069BD4214D003F02CFC00280FD020692C
:108D300003F096FB0221206903F09CFB206903F0FD
:108D400042FC01000098FFF7BAFF0135E8E7060092
:108D5000206903F07DFB019B002B06D0002E06D07E
:108D60000321206903F086FBC1E7002EBFD1013D3E
:108D7000BDE7002310B5827D9A420CD08822920074
:108D80008218D46880225200944204D02530FF30EB
:108D9000FFF795FF0123180010BD0300FC33DA68CC
:108DA000002A09D09A68805C9A680132D2B29A602F
:108DB000DA68013ADA60704701204042FBE700229E
:108DC0008C2370B59B00827504000E00C15C0069A5
:108DD00003F066FB002806D10321206903F04AFB5B
:108DE0000225280070BD88239B00E318DD68002D54
:108DF00011D020002530FF302569FFF7CEFFC1B22A
:108E0000280003F08FFB0028EDD10321206903F037
:108E100031FB0325E5E7002EE3D00321206903F0B1
:108E200029FBDEE710B51830FFF7B7FF10BD70B5AE
:108E30000400006903F09CFB002815D0206903F0B2
:108E4000AEFB002811D0206903F00AFB0321206942
:108E500003F010FB8E239B00E558002D35D1002335
:108E6000FC34E3612362636270BD206903F0A1FBFF
:108E7000002809D0206903F097FB002804D020695E
:108E800003F09CFB0028DED0206903F092FB002851
:108E900021D1206903F07EFB0028E5D0206903F092
:108EA0008DFB002833D088239B00E318DB68FF216B
:108EB000002B05D020002530FF30FFF76EFFC1B238
:108EC000206903F047FBA075CEE7236820001B69EB
:108ED0009847A847C3E7206903F0C2FA2069032135
:108EE00003F0C8FA206903F069FB0028BCD088238E
:108EF00000229B00E3185A609A60DA600123A37590
:108F00008D239B00E3589342AED09847ACE72300F3
:108F1000FC335A6A802320695B009A4206D103F031
:108F200097FA0321206903F0A5FA9DE703F04BFBB4
:108F3000010020001830FFF7C2FE206903F090FA0C
:108F4000EFE7000010B50248FFF771FF10BDC04603
:108F5000D40A002010B51123102202490248FFF75D
:108F60005BFE10BDB0110020D40A00207047F0B5A0
:108F700000291BDB0C25445F8C4217DD002A15DB22
:108F80000E25445F944211DD847E022C0FD0032C09
:108F900016D0012C04D1D2430489A4180A0021B2AE
:108FA000012B13D0002B22D0022B32D0F0BD04892C
:108FB000013C611AD443428909B2121912B2EFE797
:108FC0004489013C641A110022B2E9E70725D4174D
:108FD0002C40A4182A4093400827C65FE41074432D
:108FE0006118C46A61180A7813430B70DEE707241E
:108FF000D31723409B180826855FDB106B43591855
:10900000C36A22405918012393401A000B789343F6
:10901000EBE70724D31723400826855F9B18DB1056
:109020006B435918C36A012022409040020059182E
:109030000B785A400A70B9E770B5002504001E008D
:1090400012B204AB09B25D5700F01EFE104B08339C
:109050002360002363629E4200D10E4E2100FF2256
:109060003331A662E3620A704A708A70CA702200C5
:1090700037321570059A2000A265069AE265064A05
:1090800062662200643213710123537170BDC046C1
:10909000244B0100D40A002000093D00054B10B507
:1090A000083304000360C06A002801D008F0B4FF50
:1090B000200010BD244B0100F8B50400806A0D00AB
:1090C000002814D02300303319780368DB6A9847EE
:1090D000A06A002103681B689847A06A29000368FA
:1090E0001B689847A06A03685B6B9847F8BD226CC1
:1090F000216D1368606A8B431360002804D00368F5
:1091000029009B689847F1E708218020E36BA26B58
:10911000A76C166828420ED03E4316601E68E76CA6
:1091200001393E431E601E68E76C4008BE431E6066
:109130000029EDD1DAE7BE43EFE770B50400806A9D
:109140000D00002812D00368A16D9B6A9847290082
:109150004D1EA9412000A631FFF7AEFFA06A0028EE
:1091600012D00368E16D9B6A984770BD606A002861
:1091700004D00368616EDB69A26E9847626C616D12
:1091800013688B431360E2E7626C616D1368606A79
:109190000B4313600028E8D003681B6A9847E4E794
:1091A000F7B50400806A8B180D00019300282BD0BE
:1091B0002700036830373978DB6A9847A06A0021B6
:1091C000036801261B689847A06A019A03689542C4
:1091D00017D0FE2E0CD95B6B9847A06A39780368CC
:1091E0000126DB6A9847A06A002103681B6898473C
:1091F000A06A2978036801361B689847B6B2013522
:10920000E2E75B6B9847F7BD226C216D13688B43D7
:109210001360019BAB42F6D02B78606A0093002864
:1092200005D0036800999B6898470135F1E708204D
:109230008026E36BA26BA76C0099BC4617680E42B0
:109240000FD061460F4317601F68E16C01380F4370
:109250001F601F68E16C76088F431F600028EAD109
:10926000E3E761468F43EEE7072110B50A22835EEC
:109270000733DA170A40D2180821435ED2105A4346
:10928000C06A002108F000FF10BD0000F0B587B0F3
:1092900004930CAB1B7804000593C36A0E00150001
:1092A000002B1BD02000FFF7DFFF0A23E25E08231C
:1092B000E15E202A25DC203AD30F9A180B00733B7D
:1092C000D90FC918012302931F335210491001937B
:1092D0005333009312B209B2B04B24E00A22835EEA
:1092E00007220733D8171040C0180822A35EC01009
:1092F000584308F087FEE062031ED3D1180007B080
:10930000F0BD403AD30F9A180B00523BD90FC91841
:10931000012302933F3301931233521049100093FB
:109320009F4B12B209B2200000F0C8FC2300313379
:109330001E70A06A002800D19CE0002D00D097E0AC
:109340000A23E55E203D6B1E9D413C3523003033F2
:109350001D70059B002B00D11BE10368DB6998475A
:10936000049B002B1BD025000020373528560028F1
:1093700015DBC0B2012105F0FBFC0121287805F0C6
:1093800043FD012005F0C8FA0021287805F03CFDD6
:109390000A2005F0C1FA2878012105F035FDA06A00
:1093A000002800D1CBE00368A16D9B6A9847042296
:1093B0007C492000FFF7F4FE618920000139C9B221
:1093C000FFF77AFE2500784904222000FFF7E8FE27
:1093D00000233135EB561421012B00D10439200034
:1093E000FFF76AFE2600042270492000FFF7D8FE2E
:1093F0008F2360363370A3686D4A022793420BD0E7
:109400006C4A934200D0A8E00022AA56CF23012A3A
:1094100000D1303B12273370DA212000FFF74CFED9
:1094200039002000FFF748FE81212000FFF744FEAD
:1094300031782000FFF740FED9212000FFF73CFEE5
:109440000023EB56F121012B00D1CF392000FFF78B
:1094500033FE200006225849FFF7A2FEA06A00282A
:1094600000D188E00368E16D9B6A9847012345E7D6
:109470006DB26BE725002700353528780121363796
:1094800005F076FC3878012105F072FC00231821E4
:109490000126EB56494D4B435A574948D201121801
:1094A00022643200EB185B689A4000232265FB5669
:1094B0004B435A574349D201511812186264320083
:1094C000EB185B68606A9A40130062650A6913438F
:1094D0000B61002806D0059B002B00D140E70368F4
:1094E000DB6A3CE7270033373100387805F040FC71
:1094F0002300343305931878310005F039FC00233C
:109500001821FB562E484B435A57EB18D20112181C
:10951000A26332005B689A40059BA2641B785BB231
:109520004B435A57ED186B6826499E40D20151189B
:10953000E6640B691218B343E2630B6110E7606ADB
:10954000002804D00368616EDB69A26E9847626CE4
:10955000616D13688B43136029E71B4A022793420E
:1095600000D059E70022AA56AF23012A00D19F3B21
:109570003370022750E7626C616D1368606A0B43B9
:1095800013600123002800D1B8E603681B6A9847DE
:109590006CE7049B002B00D0E5E604E7444901009A
:1095A000844601008C4B0100904B0100944B01005C
:1095B0008000200080004000984B0100805A01008C
:1095C000104400410044004160001000F0B5140058
:1095D00005AA1688002C41DB0A25425FA2423DDD28
:1095E000002902DA5B1800211BB20822855E5A1896
:1095F000AA4201DD6B1A1BB2002B2FDD0727E217F1
:109600003A401219D2105543C26A01203C40A04092
:1096100069185218C0B2012E0CD0002E13D0022EA1
:109620001CD1013B1BB2591C18D01178414011705C
:109630000132F6E7013B1BB2591C0FD011780143F0
:1096400011700132F6E7C043C0B2013B1BB2591C96
:1096500004D01178014011700132F6E7F0BD00002E
:10966000F0B505AC2588002976DB0824065FB142F9
:1096700072DA002A02DA9B1800221BB20A27C45FA2
:10968000D718A74201DDA31A1BB2002B64DDD2B2AA
:10969000DCB2D30873435918C36A591807231A4018
:1096A0001FD001339A1A314BD2B29B5C944254D2F0
:1096B000FF26171B3E413340012D06D0002D08D058
:1096C000022D49D10E78734001E00E7833430B70C0
:1096D00002E00E789E430E7094423DD30826835FCD
:1096E000C918A31ADBB2072B22D9022D10D11A00F8
:1096F0000C78083AE4430C700825445FD2B209198B
:10970000072AF5D80722134026D0194AD35C19E05E
:109710002C00621E94411A006442E4B20C700827C7
:10972000C65F083AD2B28919072AF7D80722134030
:10973000002B11D00E4AD35C012D06D0002D08D08D
:10974000022D09D10A78534001E00A7813430B70C7
:1097500002E00A789A430A70F0BD012DB5D0002DC1
:10976000B7D0022DAED08919BBE7C0467C4B0100B3
:10977000844B010037B5140006AA1588827E022AA0
:109780000DD0032A18D0012A11D1E2430489A4186C
:1097900024B20A0000952100FFF762FF0BE0E243CC
:1097A0004489C918A418028924B2511A09B2009533
:1097B0002200FFF70BFF37BD4289C918511A09B2C1
:1097C000E7E737B5140006AA1588827E022A0DD075
:1097D000032A18D0012A11D10289E418141B24B2DB
:1097E0000A0000952100FFF7F1FE0BE0CA43018952
:1097F000E4188918428909B2141B24B2009522008A
:10980000FFF72EFF37BDCA434189891809B2E7E740
:10981000F7B50400806A00284DD00368A16D9B6AEB
:109820009847052250492000FFF7BAFC2189200003
:109830000139C9B2FFF740FC07210A23E25EA06AA2
:109840000732D3170B409B182289DB1053439BB27E
:109850000093E66A002846D027000368303739783D
:10986000DB6A9847A06A4021036801251B68984776
:10987000009BA06A013B9BB20093009A0368110011
:109880003A4A914225D0FE2D0CD95B6B9847A06ACD
:10989000397803680125DB6A9847A06A402103688C
:1098A0001B689847A06A3178036801351B689847A0
:1098B000ADB20136DCE7606A002804D00368616E4F
:1098C000DB69A26E9847626C616D13688B4313600D
:1098D000A7E75B6B9847A06A002838D00368E16D62
:1098E0009B6A9847F7BD226C216D136801960B4364
:1098F0001360009B013B9BB200931A001B4B9A42E2
:10990000E9D0019B606A1978002806D003689B683B
:109910009847019B01330193EBE708208025E36B17
:10992000A26BA76C16680D420ED0374317601E68F5
:10993000E76C01383E431E601E68E76C6D08BE434D
:109940001E600028EDD1E4E7BE431660EFE7626CCD
:10995000616D1368606A0B4313600028C2D003680E
:109960001B6A9847BEE7C0469E4B0100FFFF000000
:10997000F0B51D0089B00EAB00241C5F0FAB1B8837
:1099800016000693A31ADA179B18534002936B1A1A
:10999000DA179B1853400393039A029B019093425A
:1099A00005DC23002C001D0033000E001900A64228
:1099B00005DC2B000D001900230034001E00331BB2
:1099C0009BB204934B1BDA179B18534007936B46CB
:1099D00010229A5ED30F9B185B10009301238D42D7
:1099E00021DA0593B44224DC019B039A1B689B692E
:1099F0001F00029B934218DD22002900069B01985C
:109A0000B847009B079A9B1A9BB21AB20092002A91
:109A100006DA059AAD18049A2DB2D3181BB200933A
:109A2000013424B2DEE75B42DBE7069B2A0021001B
:109A3000E5E709B0F0BD704710B504682469A04798
:109A400010BD37B506AC258804680095A46BA04707
:109A500037BD37B506AC258804680095E46BA04790
:109A600037BD73B506AC0025655F07AC2688046872
:109A700001960095246CA04773BDF0B51600040054
:109A80000D0085B003930AAB1F8803685B69984794
:109A9000039B2268013B9B191BB200930197976AB5
:109AA0002B00320029002000B84723682000DB6A21
:109AB000984705B0F0BDF0B505001C000E0017007A
:109AC00085B00AAB1B88013C03930368A4195B694A
:109AD000984703992A680191009723B23100946A4C
