:104000000080002041F6000029F6000029F600009B
:1040100000000000000000000000000000000000A0
:1040200000000000000000000000000029F6000071
:10403000000000000000000029F6000095F60000D6
:1040400029F6000029F6000029F6000029F60000F4
:1040500015F0000029F6000029F600002DF60000FA
:1040600029F6000095CF000029F6000029F600008F
:10407000819A000029F60000A5CF000029F6000073
:1040800029F6000029F6000029F6000029F60000B4
:1040900011D6000029F6000029F6000029F60000DC
:1040A00029F6000029F6000029F6000029F6000094
:1040B0000000000010B5064C2378002B07D1054BFB
:1040C000002B02D0044800E000BF0123237010BD84
:1040D0003002002000000000C8840100044B10B52D
:1040E000002B03D00349044800E000BF10BDC046C8
:1040F0000000000034020020C8840100034B1B783C
:10410000002B02D00122024B1A70704704000020DD
:10411000480B0020F0B505001F00140085B0009189
:1041200002920393009B002B3AD02B78FE2B0ED1EA
:10413000002F03D10398013005B0F0BD6B78013F2B
:104140002370009B01340235023B0093EAE7FF2B0A
:1041500011D16B785E1C0193B742EBDBA91C3200D6
:1041600020000FF064F8A419BF1B019E009B0336CA
:10417000AD199B1BE9E70C4A9B009B581800019363
:104180000FF04EFE06008742D4DB020001992000AA
:104190000FF04DF8009BA419BF1B0135013BD4E77C
:1041A000029BE01AC8E7C046C85A0100F0B50024D7
:1041B0001700CDB0029001910792089303930694E3
:1041C000019B002B00D1A1E0029B1B78DE00059330
:1041D000019B3000012B02DD029B58788019019D64
:1041E000022D08DD029B07259B7843400693019B27
:1041F000062B00DC1D00F1210CF070F8300004915A
:10420000F1210CF06BF806980E00F1210CF066F825
:10421000B30009938B000A93049B9B000B93002D22
:1042200048DD012D04D0022D21D0454B0A9A01E032
:10423000434B099A9E5833780493002B38D0AB42F5
:1042400032D1701C2A0002990EF0E2FF00282BD117
:10425000002C5ED00222012C00D0A2180399BB18BA
:104260008A1A002A06DC089801304DB0F0BD344BA4
:104270000B9ADFE7013A0392019A0499521B7618D0
:104280000192029A71785219197002920133002F2B
:1042900050D038001F00012C2ED1FE2303700CAB30
:1042A0001B78437000248BE7049B0233F618C2E7A7
:1042B000013DB4E76A46127D0CAB1A55019B0134EF
:1042C000013B0193029B0133029380235B009C42DC
:1042D00007D0019B002B00D072E738000233012C7D
:1042E00001D03800A31C039AFF18D31A0393BAD441
:1042F000002800D164E7CEE7FF230370631E4370FC
:1043000022000CA902300EF092FFCBE7079BF81AAF
:10431000ABE7039B002BA6DD761973783B70039BFC
:104320000137013B0393019B5B1B0193029B5B19CC
:10433000029345E780221F0052009442C9D1D0E782
:1043400004570100002905D07F220B7A93430028EF
:1043500001D10B727047042213430B720860F9E716
:10436000002907D07F220B7A086093431A000823A4
:1043700013430B727047002907D07F220B7A086025
:1043800093431A000A2313430B727047002907D086
:104390007F220B7A086093431A00082313430B72A1
:1043A000704710B50023884207D0984207D00133E8
:1043B000002902D00FF02AFD0300180010BD0123D0
:1043C0005B42FAE70A21435E0200181E01D01B017E
:1043D000D018704770B50D00041E09D0C1682800C0
:1043E000FFF7DFFF002803D02000FFF7EBFFF3E724
:1043F000200070BD01604160002900D089180023B1
:104400008160C1600374037770474A688B6810321B
:10441000934204D201230B74002318007047103B11
:104420008B60002BF9D04268002A08D0991A091134
:104430005181002243605A811A72DA60EDE703600D
:10444000F7E7021E07D07F21037A00200B40043BD0
:10445000012B00D810687047F7B5037804000D00F1
:104460002B2B1DD02D2B1CD10127013423781A00B2
:10447000303A092A02D92E2B00D0C9E000200A26A2
:10448000644922781300303BDBB2092B0BD88842F9
:1044900011D8DA43704382420DD3C0180134F0E7DB
:1044A00001340027E2E7002A05D1002F18D080232D
:1044B0001B06984209D90026574B98421AD90A215F
:1044C00001360BF085FE76B2F6E77F222B7A40426A
:1044D00093431A000A2313432B7228603800FEBD51
:1044E0007F222B7A286093431A00082313432B72F0
:1044F0000127F3E723781A00303A092A03D8013656
:1045000076B20134F6E72E2B0FD10A21434A01344B
:104510002378303BDBB2092B07D8904203D84843BD
:10452000013E181876B20134F2E7202322789A432C
:104530000023452A3AD162782D2A1FD10234013353
:104540000193002321783039CAB2092A2AD80A22D5
:104550005343CB18F118262922DD019A2B7A7F20AC
:10456000002A11D00024002F01D0802424060C2121
:1045700083430B432B722C60019FAFE72B2A01D0A2
:104580000134DDE70234DBE7002F06D024490C229A
:10459000834313432B722960AAE7FF21C905F6E77D
:1045A0000134CFE7019A002A00D05B422478002C26
:1045B0002ED1F6180CF002FF002E1ADD01231E4248
:1045C00004D0184AA300D1580CF098FB013476109F
:1045D000E4B2002EF2D1002F02D080231B06C018B7
:1045E0007F222B7A286093431A000C2313432B72EB
:1045F0007EE77642002EEED001231E4204D00A4A06
:10460000A300D1580CF07AFB01347610E4B2F1E744
:10461000002763E799999919FFFF7F00CBCC0C0025
:10462000000080FF4C55010034550100426810B570
:10463000002A08D08368C468A34205D3002301225E
:10464000436003681A7410BD5C1C8460D154FAE79F
:10465000F8B50500081C0E1C0BF0D2FB80301FDBE8
:10466000301C0BF0CDFB7F24A04203DC301C0BF090
:10467000C7FB44B200260BF01BF8184B9C461A7877
:10468000174BF1B28A420ED931000136F700083FCC
:10469000DF5BAF42F5D1C9005B189C705860F8BD74
:1046A00080246442E6E7082A06D06646511C317031
:1046B000D2009D529B18F0E701210022084BCEB298
:1046C000B446CF00D600DF199E197F687668B742DE
:1046D00000D2624601310829F1D1E9E71A0A002027
:1046E0001C0A002010B51D200BF0D6F904001D2077
:1046F0000BF0D2F924181D200BF0CEF920180CF085
:1047000013FE0E490CF022F90D490CF0F7FAEA21DC
:1047100089050CF0F3FA0B490CF018F90021041C80
:104720000BF01CFF002807D10749201C0BF02AFFC3
:10473000002801D1201C10BD0024FBE700004040F0
:1047400033335340CA261B3E33334B410023F7B566
:10475000144F05003A780C009A4201D0124B1B68A6
:10476000009300239A4201D0104B1B682E19694612
:104770003000042201930EF05AFD201D281801A9D3
:1047800004220EF054FD20000830281802220849A7
:104790000EF04DFD20003B780C30B372054B1B78BA
:1047A000F372FEBD0C0A0020FC090020000A002064
:1047B00012060020140600204C4B73B51B78002B0A
:1047C00000D18CE04A4C200005F0ECFA01212000D9
:1047D00006F065FA00232361464B474963612000D8
:1047E0000AF014FD454920000AF0FBFC4449200072
:1047F0000AF016FD434920000AF0F3FC424B0A225E
:10480000196820000AF067FD404920000AF0E9FC21
:104810003F4B0A22196820000AF05DFD3D49200047
:104820000AF0DFFC3C4B0A22197820000AF05FFDF9
:104830003A4D200029000AF0D4FC394B18780CF0CE
:1048400073FD38490CF082F80EF096FB0B00012145
:104850000200009120000AF011FE334920000AF006
:10486000C0FC324B1B78002B12D0290020000AF02C
:10487000B8FC2F4B0A210020185E0BF033FD0A22F2
:1048800001B220000AF019FD2A4920000AF0A9FC13
:1048900020000AF0B3FC284E3378002B20D02749A3
:1048A00020000AF09EFC310020000AF09EFC290046
:1048B00020000AF096FC224B18680CF015FD0A2225
:1048C000010020000AF0F9FC1E4920000AF09EFCBD
:1048D0001D4920000AF0A4FC200005F037FD73BD3F
:1048E0001A4920000AF092FCF6E7C04600030020B7
:1048F0009402002001000100F2550100055601005C
:104900000E0000200A560100500B00200E56010038
:104910004C0B0020135601000C0A00201E5F010002
:10492000140600200000A041CD73010064020020A5
:10493000140A002017560100040300201956010034
:10494000240300201F5601002C03002023560100E1
:10495000002310B50004014309489A0012588A4206
:104960000CD00133082BF8D1064A13789C00215053
:104970000721002001330B40137010BD0120FCE71C
:104980007402002070020020F0B585B001930AABDC
:1049900020CB04001F780CAB1B78204802910393B6
:1049A00016000FF03DFAC3B29C46C4232370C33BEC
:1049B0006370391E01D080214942029B6671194300
:1049C000039B36125A1E93419B010B43A370144B59
:1049D000A6711B88C6B2E3701B12237120006346C8
:1049E0003200E3710D4908300EF021FC019B002BD1
:1049F00008D0002D06D03000083020182A001900F9
:104A00000EF015FC280008308019002F03D001009B
:104A10002000FFF79BFE05B0F0BDC0460E00002051
:104A2000F809002070B530C80E00A5420AD921004F
:104A30003068FFF7B6FC002805D023780134002B3E
:104A4000FBD1F2E70024200070BD73B505688668CD
:104A50006C6801A928000194FFF7E4FF002802D147
:104A60002000A6196E6076BDF0B5002787B00090D3
:104A70000C0002910392B9422ED0059005A91000B6
:104A80001600FFF7CFFF0500B8421CD100980FF0C9
:104A9000C7F9030075680133B268EB1801909342BF
:104AA00007D9012333747F22237A0027934323728B
:104AB00012E07360002DF6D0019A009928000EF0E4
:104AC000B6FB019BEF547F22237A012793431A0000
:104AD0000523134323722560380007B0F0BD1FB5CE
:104AE000040001A80AF03BFD01A920000AF037FDEF
:104AF00001A80AF0C9FC200004B010BDF0B589B0CF
:104B00000C1E0291039212D0010005A817000AF0B2
:104B100026FD059B0093079B0193009B002B08D16A
:104B20007F22237A9343237205A80AF0ADFC09B0D3
:104B3000F0BD3D687E68AE4212D9009BAB4224D0E6
:104B4000002D06D0019A290018000FF070F90028F6
:104B50001BD02B001A7801331D00002AFAD1EAE796
:104B6000019BBA680133F318934202D901233B74C5
:104B7000D6E77B60002ED3D0019A009930000EF06A
:104B800056FB00233500019AB3547F22237A256017
:104B900093431A00032313432372079B6360C3E705
:104BA00070B505000C001600081E0FD02868FFF72E
:104BB00011FC00280AD131002800FFF726FC00284C
:104BC00004D07F22037AC4601340037270BD70B5B5
:104BD0000300007A7F2504002C4005D1A8435F3DE7
:104BE000284318721C605C6020201C7A0440201E40
:104BF00002D01800FFF7D4FF70BD70B50D0004009F
:104C00002800110014302A00FFF7E1FF002809D026
:104C10007F22037A93431A00202313430372002355
:104C20000360436020606560200070BD10B50028FF
:104C300001D0FFF7B5FF10BD10B50200037A2020A8
:104C40000340181E02D01068FFF7C4FB10BD437E5E
:104C5000002B06D143695A1C42611B78037601235D
:104C60004376007E704710B504002000FFF7EFFF89
:104C70000A2806D8092808D2002809D00120207463
:104C80000CE00D2801D02028F8D100236376ECE752
:104C9000237C60345A1E93410133237010BD1FB52D
:104CA0007F220300007A1040043808282ED80BF029
:104CB00085FA0F0F052D082D0D2D1A00187804B058
:104CC00010BD1868C343DB171840F8E71868F6E70B
:104CD0001868002301AC23722100FFF7BDFB200000
:104CE000FFF7DDFFEBE7CF211C680906201C0BF066
:104CF00053FC0028E3D09E21201CC9050BF038FC92
:104D00000028DCD0201C0CF0EFFAD8E70020D6E712
:104D100070B504000D00FFF79AFF0023A84201D1EF
:104D200063760133180070BD2F2815D90123392867
:104D300003D95E2803D97A2803D818007047402881
:104D40000AD901235A28F8D9002301222D38C0B2EC
:104D500082425B41DBB2F0E701232B28F4D1ECE780
:104D600037B500236A460C001370C3B27F2809D8F8
:104D70005370951C013D297800292ED02000FFF7A3
:104D800055FCF7E73F2180226D460B40524213430A
:104D900080096B7085B2C3B21F2D05D84032134312
:104DA0006A469370D51CE5E76D460B40000413433B
:104DB000800DAB70C3B20F2805DC20225242134392
:104DC000EB7001ADD6E71940102380115B420A4316
:104DD0001843EA7028710535CCE737BDF7B50500F3
:104DE0000027FFF734FF6F7601902800FFF72FFFB1
:104DF0000024019B01006C76834258D0A04204D16C
:104E00000223603500202B70FEBD5C284BD12800AA
:104E1000FFF71DFF0028F3D02B4B752839D104264E
:104E20006C762800FFF713FF0028E9D0402806D849
:104E30003038C0B20F2806D960350323E2E72023BB
:104E400098433738F5E700232401013E0443F6B2C6
:104E5000A4B26B769E42E4D1A0239B01E3181B4AC7
:104E60009BB2934202D8A405A70DBEE790239B01F5
:104E7000E3189BB22000934206D880238005BC0231
:104E8000800D20435B02C0182900FFF769FFACE7E3
:104E900002331A78002ACFD09042F9D159780029EC
:104EA000CAD000236B762800FFF7C0FB9DE72800DF
:104EB0002100FFF7BBFB6B680120002BA4D104226B
:104EC00060352A7018009FE7C05E0100FF030000F4
:104ED000026870B5536804004360936852689B1A77
:104EE000C36000238360FFF7B2FE27280DD022287D
:104EF0000BD02000FFF7ABFE0600FFF715FF051EE5
:104F000009D103236034237003E02000FFF766FF1C
:104F10000500280070BD0023310063762000FFF7F4
:104F200085FB2000FFF793FE0600FFF7FDFE011E44
:104F3000F1D12000FFF77AFB6368002BE9D104224E
:104F4000603422701D00E4E7F7B504000D001F1C5B
:104F5000FFF789FE0190002801D1002658E02000CB
:104F6000FFF775FE272800D17BE01DD8222800D14D
:104F700077E02000FFF76BFE002600900098F7B264
:104F8000FFF7D2FE002800D187E00136402E00D185
:104F900082E06A46002312786376A319DA7720004C
:104FA000FFF755FE0090E9E75B2813D07B28E0D19E
:104FB0007F222B7A290093431A00202313432B725C
:104FC000002300222B606B6020003B1C00F092F855
:104FD00006001DE07F222B7AFFB293431A00402384
:104FE00013432B7200232B606B609F4203D160340C
:104FF00005332370B1E763762000FFF734FE002805
:10500000ABD05D212000FFF783FE061E02D0019E7B
:105010003000FEBDE1692800FFF7F7F9011E03D15A
:10502000042360342370F3E77B1E00222000FFF787
:105030008BFF002800D190E72000FFF714FE002826
:1050400000D18AE75D212000FFF762FE0028DED153
:105050002C212000FFF75CFE0028DBD16034032305
:10506000C7E72268200053686360936852689B1A00
:10507000E3600023A360FFF7B1FE061E00D16CE7DA
:105080002000FFF7E2FC7F222B7A286093431A006E
:10509000052313432B72BBE73F270021E31901339C
:1050A000D977631CDB7F742B0DD17F222B7A93433E
:1050B0001A00062313432B7201232B70042FA6D052
:1050C0006034022395E7662B0AD17F222B7A297060
:1050D00093431A00062313432B72052FF0D196E752
:1050E0006E2BEBD0200029002030FFF7B5F9002807
:1050F000B4D08CE7F7B5DFB204000E00002F04D166
:1051000005236034237000250DE000234376FFF76C
:10511000AAFD00900028F6D07D212000FFF7F8FDC1
:10512000051E26D0009D2800FEBD61683068FFF78F
:1051300051F9002831D001007B1E00222000FFF72A
:1051400003FF0028DFD02000FFF78DFD0028DAD014
:105150007D212000FFF7DCFD0028E3D12C21200079
:10516000FFF7D6FD002814D02000FFF77CFD0028B3
:10517000C9D02000FFF7ACFE0028C4D02000FFF704
:1051800072FD0028BFD03A212000FFF7C1FD0028A2
:10519000CBD1032360342370C5E72000FFF755FC13
:1051A000E16901903000FFF730F9002802D1603446
:1051B0000423F0E78022037A524213430372019BD7
:1051C000C360B8E710B50400006803685B689847DF
:1051D00063681818606010BD70B5050008000C0009
:1051E0000EF01EFE210002002800FFF7EBFF70BD4D
:1051F000F0B5162407000D000A2687B06C4428007D
:1052000031000BF06BF8013C303121702800310087
:105210000AF0DEFF051EF2D116236B441A1B210093
:105220003800FFF7CFFF07B0F0BD10B504000068ED
:1052300003681B68984763681818606010BD000019
:1052400070B50D00040022212000FFF7EEFF297841
:10525000002909D00A4B01351E78002EF4D05A7867
:105260008A4206D00233F7E722212000FFF7DDFF54
:1052700070BD5C212000FFF7D8FF3100E4E7C04695
:10528000C25E01007F22F0B5037A8BB005000C00EE
:105290001340062B00D18FE106D8022B0DD3032B30
:1052A00000D975E106CD49E10C2B24D007D8082B95
:1052B00000D17FE10A2B00D16FE1C44981E1202BAD
:1052C00000D146E1402BF8D15B212000FFF7ADFF74
:1052D0002D68002D00D135E121002800FFF7D2FF15
:1052E0002800FFF76FF8051E00D12BE12C212000CC
:1052F000FFF79BFFEDE70668311C301C0BF028F927
:105300000028DAD00021301C0BF022F9002809D146
:10531000311C301C0BF080F9011C301C0BF018F90B
:105320000028CAD10021301C0BF018F9002806D043
:105330002D212000FFF779FF80231B06F618A449D2
:10534000301C0BF029F9002844D000231425202715
:105350000093A04B301C59590BF01EF9002809D0BE
:105360009D4B301C59590BF0C9FC009B061CF818CA
:1053700003B20093043D7F102B1DEAD103350021B9
:10538000301C0BF0FFF8002828D0301C0DF0F4FD85
:10539000924A934B0BF0B2F800281FD0AB00019358
:1053A0002B061BD48F4B019A311C98580BF0EAF84E
:1053B00000280AD0874B019A301C99580BF09EFCAC
:1053C000009B061CD81B03B20093019B7F10013D7C
:1053D000043BE4E7202705250090D0E7301C0BF0C4
:1053E000E5F806230700804D029003936B461B7B74
:1053F0005BB20193039B013BDBB20393029B092B3E
:105400000AD90A2128000AF0E3FE0A2105000298C1
:105410000AF0DEFE0290E9E738000BF0CFFF011C36
:10542000301C0BF09DFD061C28000BF0C7FF011C73
:10543000301C0BF063FC02900BF0B8F806000BF088
:10544000BDFF011C02980BF08BFD011C0BF0E4F872
:105450000BF0ACF88619B5420BD80026009B01373B
:10546000B34206D0092F04D918000127013003B236
:1054700000930A25290030000AF030FF00290CD1E2
:10548000019B002B09DD300029000AF0A1FE019BE1
:105490000600013B5BB20193ECE739002000FFF707
:1054A000A7FE019B002B20D01D0008AF013D6DB26F
:1054B000013F6B1C0BD030000A210AF00FFF303186
:1054C000397030000A210AF083FE0600EEE76B46D1
:1054D0001B791025D9432E224B1904A8C25408ABBE
:1054E0004A4220005918FFF76DFE009B002B2DD07B
:1054F00065212000FFF799FE6B461D88009B002B5D
:1055000005DA2D212000FFF790FE6D42ADB2162680
:105510000A2704ABF618280039000AF0DFFE013E26
:1055200030313170280039000AF052FE85B2002D6A
:10553000F1D11623310004AA9B189A1B2000FFF713
:1055400041FE03E05D212000FFF76FFE60680BB0B5
:10555000F0BD7B212000FFF768FE2D68002D15D0DF
:10556000E9682000FFF76CFE3A212000FFF75DFE9E
:1055700021002800FFF786FE2800FEF723FF051E06
:1055800004D02C212000FFF750FEE7E77D21DAE769
:1055900001682000FFF754FED8E70568002D04DA03
:1055A0002D212000FFF741FE6D4229002000FFF76A
:1055B0001FFECBE70168F9E703780C49002B00D107
:1055C0000B492000FFF708FEC0E7C046D15E01008E
:1055D0008096184B4C55010034550100F168E38862
:1055E000B5F8E43E1C55010040420F00D65E0100B4
:1055F000DB5E010010B51430FFF744FE10BD000063
:10560000A02270B5F64C9200A54416AC1EA920004D
:10561000FEF7F0FE2200F3491BA8FFF7D8FA0100BD
:10562000F148FEF78FFEF14D2200F1491BA82E78BC
:10563000FFF7CDFA002809D07F22037A93431A009E
:10564000062313430372731E9E4106702200E9492C
:105650001BA8FFF7BCFA01002878FEF781FE2200A4
:10566000E5491BA8FFF7B3FAE44B01001878FEF7F1
:1056700077FE2200E2491BA8FFF7A9FAE14B0100DF
:105680001878FEF76DFE2B78002B00D1E6E0DE4B9C
:10569000072518680DF004FC0022DC4B0CF0EAF939
:1056A00000950B0002000AA809F08CFF0AA90DA8BA
:1056B000FFF715FA2200D6491BA8FFF788FA0DA9B3
:1056C000089010A8099409F04AFF099A089910A8AF
:1056D000FFF714FA10A809F0D7FE0DA809F0D4FEC0
:1056E0000AA809F0D1FECB4B18680DF0D9FB0022B7
:1056F000C64B0CF0BFF900950B0002000AA809F098
:1057000061FF0AA90DA8FFF7EAF92200C2491BA808
:10571000FFF75DFA0DA9089010A8099409F01FFF82
:105720000899099A10A8FFF7E9F910A809F0ACFE4A
:105730000DA809F0A9FE0AA809F0A6FE2200B749A3
:105740001BA8FFF744FAB64B01000020185EFEF7D5
:1057500012FEB44B18680BF0E7FDB3490BF0CEFA1C
:105760000122011C0AA809F00FFF0AA90DA8FFF7E2
:10577000B6F92200AD491BA8FFF729FA0DA9089038
:1057800010A8099409F0EBFE0899099A10A8FFF7F0
:10579000B5F910A809F078FE0DA809F075FE0AA861
:1057A00009F072FE2200A2491BA8FFF710FAA14BD4
:1057B00001001888FEF7EAFD9F4B18680BF0FEFD0C
:1057C0009E490BF0C3F80122011C0AA809F0DCFE77
:1057D0000AA90DA8FFF783F9220099491BA8FFF732
:1057E000F6F90DA9089010A8099409F0B8FE099AD5
:1057F000089910A8FFF782F910A809F045FE0DA836
:1058000009F042FE0AA809F03FFE8E4B18880BF003
:105810008BFD8D490BF072FA0122011C0AA809F0D8
:10582000B3FE0AA90DA8FFF75AF9220087491BA861
:10583000FFF7CDF90DA9089010A8099409F08FFE83
:105840000899099A10A8FFF759F910A809F01CFE49
:105850000DA809F019FE0AA809F016FE7C4B1B786A
:10586000002B21D07B4A7C4B12781B8804927B4A08
:105870001821127810A80392794A12780292794A74
:1058800012780192784A12780092784A0EF06CFAF7
:1058900016AA77491BA8FFF79AF916AA01000890E3
:1058A00010A80992FFF7E0F8724B1B78002B54D038
:1058B000714B0020185E0BF037FD70490BF046F875
:1058C0000122011C0AA809F05FFE0AA90DA8FFF732
:1058D00006F916AA6A491BA8FFF779F916AB0690D4
:1058E0000DA910A8079309F03AFE079A069910A887
:1058F000FFF704F910A809F0C7FD0DA809F0C4FDD1
:105900000AA809F0C1FD5F4B18680BF057FD5E490E
:105910000BF01CF80122011C0AA809F035FE0AA9A7
:105920000DA8FFF7DCF816AA58491BA8FFF74FF996
:1059300016AB06900DA910A8079309F010FE069962
:10594000079A10A8FFF7DAF810A809F09DFD0DA836
:1059500009F09AFD0AA809F097FD4D4B1B78002B22
:1059600009D04C4916AA1BA8FFF731F94A4B010090
:105970001888FEF70BFD494B18780BF0D5FC484909
:105980000AF0E4FF0222011C0AA809F0FDFD0AA9A1
:105990000DA8FFF7A4F816AA42491BA8FFF717F9AC
:1059A00016AB06900DA910A8079309F0D8FD06992B
:1059B000079A10A8FFF7A2F810A809F065FD0DA836
:1059C00009F062FD0AA809F05FFD09F071FE16AA50
:1059D000050035491BA8FFF7FAF8041E66E0C0462B
:1059E00008FDFFFFCC5F0100695601000C0A002092
:1059F0006D56010071560100765601000E0A002016
:105A00007A56010041060020FC090020D0126341B3
:105A100082560100000A0020865601008A560100C5
:105A200012060020100A0020FAED6B3B8E56010092
:105A3000945601003E060020F009002000007A4440
:105A40009B560100060A00200AD7233CA0560100FD
:105A5000160A00200D0A0020180A0020040A00205F
:105A6000F609002040060020050A0020A556010086
:105A7000C456010064020020140A002000002041E6
:105A8000C8560100080A00200000C842CD56010097
:105A900003030020D3560100F4090020140600205F
:105AA0000000A041D7560100DC560100002C0CD0AC
:105AB0007F22037AFA2193431A00082313430372C7
:105AC000890028000AF084FB2060364802F056FC6A
:105AD0000122011C0AA809F057FD0AA90DA8FEF72A
:105AE000FEFF16AA30491BA8FFF771F816AB069007
:105AF0000DA910A8079309F032FD0699079A10A87E
:105B0000FEF7FCFF10A809F0BFFC0DA809F0BCFCD3
:105B10000AA809F0B9FC16AA24491BA8FFF757F8F0
:105B2000002809D07F22224B1B680360037A93432D
:105B30001A0008231343037216AA1E491BA8FFF775
:105B400046F8002809D07F221B4B1B680360037AAC
:105B500093431A00082313430372184B1968002952
:105B600010D06420164B1B68CB1A58430AF030FB48
:105B70001449C4B216AA1BA8FFF729F80100200097
:105B8000FEF7EEFB0023104C10A916A811931094F9
:105B9000FFF730FD200009F031FBBE239B009D4440
:105BA00070BDC046B4040020DF560100E556010078
:105BB000500B0020E85601004C0B00206C02002026
:105BC00068020020EB5601008C12002030B5B5B001
:105BD000A0220CA904A8FEF70DFC04AA214909A8DB
:105BE000FEF7F5FF01002048FEF7ACFB04AA1F49B1
:105BF00009A8FEF7ECFF01001D48FEF7A3FB04AA6D
:105C00001C4909A8FEF7E3FF002808D07F22037A89
:105C100093431A000C2313430372174B036004AA27
:105C2000164909A8FEF7D3FF04AC0100220014486E
:105C3000FEF71AFF2200134909A8FEF7C8FF124B0E
:105C400001001888FEF7A2FB0023104D02A92000D6
:105C500003930295FFF7CEFC280009F0CFFA35B088
:105C600030BDC046CC5F0100F1560100F75601007F
:105C7000FA560100FE560100CDCC66449155010054
:105C80000E000020D0720100F80900208C120020C4
:105C900010B5AAB004000AA9802202A8FEF7AAFB48
:105CA00002AA0F4907A8FEF792FF01000D48FEF770
:105CB00049FB02AA0C4907A8FEF789FF0100200052
:105CC000FEF740FB0023094C694602A801930094AB
:105CD000FFF790FC200009F091FA2AB010BDC046F1
:105CE000CC5F010061560100655601008C12002056
:105CF00030B59BB0050040220C0002A80AA9FEF7AF
:105D000079FB02AA114907A8FEF761FF01002800EC
:105D1000FEF718FB02AA0E4907A8FEF758FF002855
:105D200007D07F22037A046093431A000A231343A7
:105D300003720023074C694602A801930094FFF701
:105D400059FC200009F05AFA1BB030BDCC5F0100AD
:105D5000D07201008C1200201FB5282009F030FD00
:105D600002230400009303220733082101F026FDDB
:105D700021000E4801F0BAFD0D4B0E4C02930E4B64
:105D80004022019301235B42009380210B4B2000B2
:105D900003F0F0FE0A4A0B4920000AF029F80A48ED
:105DA00005F0ECF8094804F07FFF1FBDB4040020A3
:105DB000A086010094020020801A0600800B0020BB
:105DC00000000020D99B0000440600204C02002067
:105DD00037B51D4C1E21200003F04CFC0A21200089
:105DE00003F065FD200003F051FC051E01D00020EA
:105DF00028E001221E21200003F036FC0128F6D104
:105E0000200003F0ADFD4828F1D1104B6A46009305
:105E1000022393801E21200003F02CFC6B462000FF
:105E2000595D03F044FD2B006B445978200003F0CA
:105E30003EFD200003F02AFC0028D8D10235062DB3
:105E4000E8D101303EBDC046800B0020001001208B
:105E5000F0B54F4B87B01B78002B54D04D4D1E2111
:105E6000280003F007FC0321280003F020FD280090
:105E700003F00CFC041E46D106221E21280003F06C
:105E8000F3FB06283FD1280003F06AFD04ABE05481
:105E90000134062CF7D104AA1B7850781B02184352
:105EA000137954793C491B021C4300228B5E00B2DB
:105EB00024B2834200DD0880384D0022AB5E83426D
:105EC00000DA2880364B00269A5FA24200DD1C8053
:105ED000344A0027D65FA64200DA14800026AD5F60
:105EE00000268E5F304FA91B95290ADD0021525EE6
:105EF000019200229B5E0293029A019B9B1A952BB2
:105F000003DC00233B7007B0F0BD0BF00DFA0390EB
:105F1000A8190BF009FAFC2189050AF0EFFE011C13
:105F200003980BF01DF8051C20000BF0FDF9029AF8
:105F3000019B94466344041C18000BF0F5F9FC2106
:105F400089050AF0DBFE011C201C0BF009F8291C56
:105F500009F084FF15490AF0D1FE0021041C0AF063
:105F6000FDFA002804D0201C11490AF055FB041C3E
:105F7000FC21201C89050AF04FFB0AF017FBB42115
:105F800080B249000AF0AAF90A4B19800123B9E747
:105F900010060020800B00200A00002006000020D0
:105FA0000C0000200800002003030020E12E6542C1
:105FB0000000B443F4090020F8B5FEF793FB6649EE
:105FC0000AF09CFE0AF0F2FA644B1870644B1B78DE
:105FD000002B0FD0634C200004F034FF62490AF01C
:105FE0008DFE09F00DFF614B1880200004F062FF68
:105FF0005F4B1860FFF72CFF5E4B1B78002B15D012
:106000005D4CFA21200006F0DDFD5C4D061E0ED130
:106010002B68002B0AD009F04BFB2B68C01A584B99
:10602000984203D9574B1E70574B1E70F8BD09F0AC
:106030003FFB56492860200006F04CFF524D534963
:106040002870200006F02EFF514E5049307020007D
:1060500006F058FF4F4B4D491860200006F06AFFCC
:106060004D490AF03FF9B42149000AF021FA69319B
:10607000FF310800B42149000AF01AFA474B20000A
:106080001980424906F0F6FE454B40491860200051
:1060900006F068FF434B3D491880200006F086FE5D
:1060A000414F002825D100233B702B78354D022B22
:1060B00050D93649200006F09DFE3C4B334918600C
:1060C000200006F0ABFE3A4B30491860200006F085
:1060D000B9FE384B984239DB374B984238DCFA210D
:1060E00089000AF0FFF800B2344B188033782B7027
:1060F0009CE72649200006F069FE0028D3D0012342
:10610000224920003B7006F0F1FD2D4B1F491880FD
:10611000200006F0FBFD2B4B1C491870200006F0F8
:1061200005FE294B19491870200006F00FFE274B79
:1061300016491870200006F019FE254B13491870F7
:10614000200006F023FE234B1870AEE72248CBE771
:106150002248C9E70023CAE70000A0411406002036
:10616000640200204C02002000002041140A00209C
:10617000080A00200103002044060020200300201C
:10618000983A00000C0A0020410600204C04000050
:106190000E0A0020100A0020A08601003E06002002
:1061A000F0090020060A0020160A0020FC09002041
:1061B000000A002019FC0BFEFFFFF301120600206D
:1061C000180A0020050A002040060020F6090020D9
:1061D000040A00200D0A00200080FFFFFF7F00005E
:1061E0000023F7B50F000524154E01903370154DAF
:1061F000280002F023F90F300AD0C82132204900CC
:10620000013C08F036FFE4B209F088FA002CEED128
:1062100000233A000199280002F0BEFC00220A4B3C
:1062200004000A4928001A7002F0ACF90123337007
:10623000002C03D1064A1368013313602000FEBD11
:1062400004000020B4040020480B0020FFFFFF00E2
:10625000500B002030B50500BDB00C001E20782189
:1062600008F007FF09F05AFA0D4905AB0A881D70BE
:10627000013292B20A8000219C702D1224125D70AE
:10628000DC70029101910431009106A80239FEF7F9
:106290007BFB010006A8FFF7A3FF3DB030BDC04661
:1062A000540B00208022F0B5AD4C0700A544A0ACF3
:1062B0009200A8A92000FEF79DF8002F00D1A94F59
:1062C0000025A09B42AE6360E3681022A36004A98E
:1062D0002574257708A804940CF0A9FF102208A9BA
:1062E00030000CF0A4FF35744797B4276B467F004D
:1062F000DB197576F46100221D70A5A90A23300010
:10630000FEF722FE6B46DB191B78AB4207D1337ECA
:10631000AB4200D118E1237F1B0700D414E192485F
:10632000FFF7B6FC07E0914928000DF06FFD00284B
:1063300004D1FFF74BFC8E4B9D44F0BD8D492800E6
:106340000DF064FD041E17D18B49A5A8FEF774FC5F
:10635000FEF777F8011E02D00378002B01D18748A1
:10636000DEE7874D102228000DF072FD2C74FFF738
:106370002DFCFEF721FADEE7824928000DF046FDEC
:10638000071E10D17C49A5A8FEF756FCFEF759F868
:10639000011E7D48C4D07D4C2822200028340DF0F9
:1063A00057FD2770C7E77A4928000DF02FFD041E1E
:1063B0003DD1764F38000DF033FD051E32D001007F
:1063C00060230CAA3800FDF7F1FE00282DDD854280
:1063D0002BDD05000CAB01346E4930000A88013218
:1063E00092B20A800121029401910095FEF7CCFA45
:1063F00001003000FFF7F4FE002802D06648FFF7E6
:1064000047FC0122654B1A7009F052F9FA21040089
:106410004901002008F02DFE614BE418614B201863
:106420001860A6E73B000400D6E73B00D4E75E49CE
:1064300028000DF0EBFC002800D083E05B49A5A804
:10644000FEF7FAFBFDF7FDFF594C05002100A5A85A
:10645000FEF7F2FB002806D07F22037A1340082BB8
:106460000AD00A2B0BD001246442002D02D02B78D5
:10647000002B0FD14F4853E70368002BF3DB2100BB
:10648000A5A8FEF7D9FB002801D10400EDE7FEF72F
:1064900006FCFAE728000DF0C3FC07004648B42FBD
:1064A00000D93DE7454B1B78002B02D00023434A1F
:1064B0001370BC2332005B0039002800FDF776FE24
:1064C00000283ADD874238DD012335003C4A314E51
:1064D0001168CF193B4917600A6812180A603288A0
:1064E0000021013292B23280029301230090019385
:1064F0000CA82B00FEF748FA010005000CA8FFF7D6
:106500006FFE071E1CD121002F48FFF7F1FB01236E
:106510002A4A0CA9137032882C4B2D481A802D4B17
:106520002A001C600CF083FE2B4B1D6009F0C0F8A4
:106530002A4B18602A4B1F701BE738000023C5E761
:106540001548EDE62748EBE62749A5A8FEF774FBBA
:10655000FDF777FF051E00D0E5E62448E0E6C046DB
:106560005CFBFFFF1F6301007155010084550100B2
:10657000A404000091550100E0600100895501006C
:106580000E0000209E5501009655010015060020C2
:10659000A5550100540B0020AA550100020300205C
:1065A00060EA00005C0A0020E5560100C0550100C9
:1065B000D0720100BA550100C5550100600A0020E3
:1065C0006C02002068020020D3550100400B00201F
:1065D000610A0020200000203C0B0020440B00201A
:1065E000420B0020D8550100CC5F01007A55010014
:1065F00070B50F4C2378002B15D009F059F80D4DCC
:106600002B68C01A0C4B98420DD90C4B1A78002AF3
:106610000AD101321A7009F04BF8094B2860196849
:106620000848FFF7DDFD70BD00232370FBE7C0467F
:10663000600A0020440B0020C3090000420B002028
:106640003C0B0020610A0020F0B50024504BC9B07B
:106650001B68A34205DD09204E49584309F042FE5C
:106660000400FA214C4B8900186809F0B1FD0BAD0C
:10667000FF2C00DDFF24494B2C701B885B086B70DE
:10668000FF2800D9FF20464BA8701B780524EB702B
:1066900009F00EF80022434B06901B780BA90593D6
:1066A0001300601C0890A01C0790059EE01C099038
:1066B000D0B286421BD9052B19D8D00084463A485F
:1066C0006044060006987768C01B384FB8420CD863
:1066D000674635480133385ADBB20855089C00122A
:1066E0000855079CB0780855099C0132D9E70BAAD8
:1066F00013712F4B1B78002B1ED009222D4B00202D
:10670000185EC31793430533C0182B4B98423CDBEC
:106710002A4B7F26984203DC0A2109F0E3FD46B2AA
:10672000274B0A211868053009F052FD254A83B22B
:10673000904203D9130001E080267642224A117864
:10674000FF22002903D0214A12885208D2B2611CCC
:106750002E556B54A11C1B126B54E31CEA541C4BAA
:1067600004341A880321013292B21A800023029362
:106770000133019300942B0012A8FEF705F90100E4
:1067800012A8FFF72DFD49B0F0BD7F267642C7E77E
:10679000100A0020C4090000F00900203E06002075
:1067A000410600201A0A00201C0A0020E093040081
:1067B00064020020140A002001FBFFFFFF04000018
:1067C000080A0020FFFF000003030020F409002056
:1067D000540B00200023F0B5614D624C624F634AB8
:1067E000A544012128003B70137001F0B9FD8023FE
:1067F000060004905B00984200D9049360AC049AB0
:106800002100280001F0E0FD0390280002F0FEFBCB
:106810000790280002F010FC55490890280001F06C
:10682000B1FE01233B70039B002B00D092E0072EAA
:1068300000D88FE02378C42B00D08BE06378012B45
:1068400000D087E04B4B2779E6781B883F023E4318
:106850000B939E427ED0E579102D7BD82F00049BB0
:1068600008379F4276D8A37828220A936B469B1854
:106870001B785BB20693002B04DA2B00049A1433C6
:10688000934267D856220CABFF329B181B7801321B
:106890000C930CAB9B181B782DAC2A0062A920002E
:1068A0000D930CF0C4FC60AAD719082200230699A6
:1068B00052426355551B1432994200DB1A000E24D4
:1068C000049910936D18AA1A03920CAAA418119394
:1068D0002380069B002B40DABE23DB009B189C46DE
:1068E0000D00254B6544ED180422290010A80CF07A
:1068F0009EFC291D042211A80CF099FC29000222FB
:10690000083120000CF093FCAB7A0593EB7A3F241E
:1069100009930A9B1C40022C3AD1039B032B19D9E3
:1069200016490B78002B15D07A783B781202134366
:106930000B9A9A420ED11248FA78BB78008812025C
:106940001343984206D100230B700E4B0E48196872
:10695000FFF7CEF90D4B9D44F0BD00230593D6E71C
:10696000B4040020DCF9FFFF04000020480B0020E5
:10697000FFFFFF00F809002054FBFFFF600A002022
:10698000400B0020200000203856010024060000A3
:1069900040230A9A30001A400D9B0A921D020C9B5C
:1069A0001D432900FDF7D4FF079904903000FDF73F
:1069B0004FFE002C00D087E129003000FFF74AFC91
:1069C000049B002BC6D10A9B32AC002B00D143E1C3
:1069D000B423220003993800FDF79CFBB428B9D8F2
:1069E0006B461B7C23548022A8A99200A0A8FDF727
:1069F00001FDA0AA9F49A5A8FEF7E9F801009E485D
:106A0000FDF7A0FCA0AA9D49A5A8FEF7E0F8A0AA62
:106A100001002DA8FEF728F8A0AA9949A5A8FEF71D
:106A2000D6F801003000FDF7B1FCA0AA9549A5A851
:106A3000FEF7CDF8A0AA010032A8FEF715F8012252
:106A4000079924A808F0A0FD24A927A8FEF747F875
:106A5000A0AA8D49A5A8FEF7BAF8A0AB229027A955
:106A60002AA8239308F07BFD2299239A2AA8FEF7EF
:106A700045F82AA808F008FD27A808F005FD24A875
:106A800008F002FD0122089924A808F07DFD24A940
:106A900027A8FEF724F8A0AA7C49A5A8FEF797F836
:106AA000A0AB229027A92AA8239308F058FD229989
:106AB000239A2AA8FEF722F82AA808F0E5FC27A8BE
:106AC00008F0E2FC24A808F0DFFC069B002B00DBAA
:106AD0009CE06F4AA0A912A8FEF78FF8129D139CA4
:106AE0006C4922002800FEF7A1F801000598FDF787
:106AF00037FC059B002B61D010980CF0D1F90022D7
:106B0000654B0AF0B7FF07260B000200009624A889
:106B100008F058FD24A927A8FDF7E1FF22005F49EE
:106B20002800FEF783F827A922902AA8239408F0CA
:106B300016FD239A22992AA8FDF7E0FF2AA808F05B
:106B4000A3FC27A808F0A0FC24A808F09DFC11983D
:106B50000CF0A6F90022504B0AF08CFF00960B00B7
:106B6000020024A808F02EFD24A927A8FDF7B7FFEE
:106B700022004B492800FEF759F827A922902AA89D
:106B8000239408F0ECFC2299239A2AA8FDF7B6FF7B
:106B90002AA808F079FC27A808F076FC24A808F0B9
:106BA00073FC22003F492800FEF740F80E230CAA90
:106BB0009B1801000020185EFDF7DDFB09980AF024
:106BC000B3FB394909F0C2FE0222011C24A808F0D7
:106BD000DBFC24A927A8FDF782FF22003349280007
:106BE000FEF724F827A922902AA8239408F0B7FCDE
:106BF0002299239A2AA8FDF781FF2AA808F044FCCD
:106C000027A808F041FC24A808F03EFC0024284DE9
:106C10002AA9A0A82A952B94FEF7ECFC280008F0DE
:106C2000EDFA244A244D13682DA90133136028007E
:106C300010220DF00DF92C74204D152232A92800D8
:106C40000DF006F96C75079A1D4B1A601D4B089ADA
:106C50001A60FDF7B1FD7DE6039DB42D00D9B42582
:106C60002A00390020000CF0E2FA002232AB5A551B
:106C7000B9E6C046CC5F0100E85601003C56010071
:106C8000D0720100C0550100415601004656010076
:106C90004A56010071560100D0126341825601002C
:106CA000865601008A5601000000A041D756010017
:106CB0008C1200204C0B0020040300202C03002029
:106CC0002403002028030020012C00D076E1049B3F
:106CD000002B00D03EE6A022A8A95200A0A8FDF7F4
:106CE00089FBA0AAA249A5A8FDF771FF0100A14850
:106CF000FDF728FBA0AAA049A5A8FDF768FFA0AA58
:106D000001002DA8FDF7B0FEA0AA9C49A5A8FDF79B
:106D10005EFF01003000FDF739FB2200079927A82C
:106D200008F032FC27A92AA8FDF7D9FEA0AA9449A9
:106D3000A5A8FDF74CFF32AEA0AB24902AA93000E5
:106D4000259308F00CFC2499259A3000FDF7D6FE17
:106D5000300008F099FB2AA808F096FB27A808F055
:106D600093FB2200089927A808F00EFC27A92AA85F
:106D7000FDF7B5FEA0AA8349A5A8FDF728FFA0ABA3
:106D800024902AA93000259308F0E9FB2499259A3C
:106D90003000FDF7B3FE300008F076FB2AA808F0BB
:106DA00073FB27A808F070FB039B002B19D00A9BEC
:106DB000002B00D1CEE02823320003993800FDF7E4
:106DC000A9F9431E272B0CD86B461B7C3354A0AA71
:106DD0006D49A5A8FDF7FBFEA0AA01003000FDF754
:106DE00043FE069B002B00DB9CE0684AA0A914A888
:106DF000FDF703FF149D159C654922002800FDF74F
:106E000015FF01000598FDF7ABFA059B002B61D03B
:106E100010980CF045F800225E4B0AF02BFE072676
:106E20000B000200009624A808F0CCFB24A927A898
:106E3000FDF755FE220058492800FDF7F7FE27A967
:106E40001C902AA81D9408F08AFB1D9A1C992AA858
:106E5000FDF754FE2AA808F017FB27A808F014FB3A
:106E600024A808F011FB11980CF01AF80022494BE5
:106E70000AF000FE00960B00020024A808F0A2FB16
:106E800024A927A8FDF72BFE220044492800FDF77E
:106E9000CDFE27A91C902AA81D9408F060FB1C9920
:106EA0001D9A2AA8FDF72AFE2AA808F0EDFA27A8BD
:106EB00008F0EAFA24A808F0E7FA22003849280086
:106EC000FDF7B4FE0E230CAA9B1801000020185EEB
:106ED000FDF751FA09980AF027FA324909F036FD10
:106EE0000222011C24A808F04FFB24A927A8FDF7C3
:106EF000F6FD22002C492800FDF798FE27A91C90DA
:106F00002AA81D9408F02BFB1C991D9A2AA8FDF7AE
:106F1000F5FD2AA808F0B8FA27A808F0B5FA24A8C1
:106F200008F0B2FA0025214C2AA9A0A82A942B9592
:106F3000FEF760FB200008F061F91D4C2DA910221E
:106F400020000CF085FF15221A491B4825740CF00F
:106F50007FFF78E6039D282D00D928252A003900D7
:106F600030000CF064F9002232AB5A552FE7C046CE
:106F7000CC5F0100A55501003C560100D072010014
:106F800041560100465601009E5501004A56010037
:106F900071560100D01263418256010086560100ED
:106FA0008A5601000000A041D75601008C12002033
:106FB000040300204E5601002C030020032C00D0B7
:106FC000C8E4049B002B00D0C4E4069B002B00DB2C
:106FD000C0E4E022A8A99200A0A8FDF70BFAA0AA9D
:106FE000E349A5A8FDF7F3FD0100E248FDF7AAF982
:106FF000A0AAE149A5A8FDF7EAFDA0AC0100220086
:1070000024902DA82594FDF72FFD2200DB49A5A88B
:10701000FDF7DDFD01003000FDF7B8F90122079909
:1070200027A808F0B1FA27A92AA8FDF758FD2200E1
:10703000D349A5A8FDF7CBFD2AA9229032A8239415
:1070400008F08DFA2299239A32A8FDF757FD32A84D
:1070500008F01AFA2AA808F017FA27A808F014FA74
:107060000122089927A808F08FFA27A92AA8FDF776
:1070700036FD2200C349A5A8FDF7A9FD2AA9229043
:1070800032A8239408F06BFA2299239A32A8FDF7CC
:1070900035FD32A808F0F8F92AA808F0F5F927A874
:1070A00008F0F2F92100B84A16A8FDF7A6FD169DD2
:1070B000179CB64922002800FDF7B8FD010005988D
:1070C000FDF74EF9059B002B61D010980BF0E8FE00
:1070D0000022AF4B0AF0CEFC07260B000200009600
:1070E00027A808F06FFA27A92AA8FDF7F8FC2200C4
:1070F000A8492800FDF79AFD2AA9229032A82394D6
:1071000008F02DFA239A229932A8FDF7F7FC32A84D
:1071100008F0BAF92AA808F0B7F927A808F0B4F9D6
:1071200011980BF0BDFE0022994B0AF0A3FC0096CB
:107130000B00020027A808F045FA27A92AA8FDF7A6
:10714000CEFC220094492800FDF770FD2AA9229068
:1071500032A8239408F003FA2299239A32A8FDF763
:10716000CDFC32A808F090F92AA808F08DF927A8DC
:1071700008F08AF9220089492800FDF757FD0E23FF
:107180000CAA9B1801000020185EFDF7F4F809987E
:107190000AF0CAF8824909F0D9FB0222011C27A88B
:1071A00008F0F2F927A92AA8FDF799FC22007D49E9
:1071B0002800FDF73BFD2AA9229032A8239408F06D
:1071C000CEF92299239A32A8FDF798FC32A808F04C
:1071D0005BF92AA808F058F927A808F055F9039B8D
:1071E000042B00D827E13B7905260593002B08D016
:1071F000023E5E43039B05369E4200D922E10123F5
:107200000493694AA0A918A8FDF7F7FC189D199CDA
:10721000664922002800FDF709FD01003878FDF7D6
:107220009FF87B7822005B00614928000693FDF7F8
:10723000FDFC002808D07F22037A93431A000A231A
:1072400013430372069B036022005A492800FDF78E
:10725000EDFC0100B878FDF783F8220056492800BC
:10726000FDF7E4FC0100F878FDF77AF8049B002BA9
:1072700003D1059B002B00D0E6E0039A331D934217
:1072800059D80022BB199A569E7803925A78DB7817
:1072900036020693039B164380330FD022004749E2
:1072A0002800FDF7C3FC002808D07F22037A93430F
:1072B0001A000A2313430372039B0360002E27D096
:1072C00030000AF031F83E4909F040FB0122011C70
:1072D00027A808F059F927A92AA8FDF700FC2200E1
:1072E00038492800FDF7A2FC2AA9229032A823944D
:1072F00008F035F92299239A32A8FDF7FFFB32A84E
:1073000008F0C2F82AA808F0BFF827A808F0BCF8CF
:10731000069BFF2B0FD022002B4928005E00FDF7B3
:1073200085FC002807D07F22037A066093431A0069
:107330000A2313430372049B002B00D184E0A0AA0C
:107340002249A5A8FDF743FC041E09D07F22037A39
:1073500093431A00402313430372002303604360E6
:107360000323059A7E1D5343F318039330E0C04670
:10737000CC5F0100575601003C560100D07201005D
:1073800041560100465601004A560100715601005F
:10739000D012634182560100865601008A560100D0
:1073A0000000A041D7560100C15501008E560100D2
:1073B000945601009B5601007A560100C856010000
:1073C00000002041CD560100D35601005E56010059
:1073D000039B9E4238D0251E0ED0A0A92000FDF7A9
:1073E00014F8051E08D07F22037A93435F3A1343B3
:1073F000037200230360436077783378A0AA1B49A7
:107400003F0228001F43FDF711FC01003800FCF784
:10741000BDFFA0AA16492800B778FDF707FC002891
:1074200007D07F23027A7FB29A43753B13430372DE
:1074300007600336CCE7039B042B05D10023052608
:107440000593DEE60526DCE6A0A8037C002B01D030
:10745000FFF780FA074C32A932943393FEF7CAF84B
:10746000200007F0CBFEFFF775FAC046D07201008E
:10747000415601008C120020F8B5B32501246D009F
:10748000174E300006F03CFA002828D0300006F0F5
:1074900073FAC0B2134E0A2801D00D2814D1124F2E
:1074A00032683B78002A09D0002B09D10F48835459
:1074B000FEF7F8FE002333603B70E1E7002BF9D0C4
:1074C0000B48FEF7E5FBF5E73368AB4204D85A1CDE
:1074D0003260064AD054D3E7034B1C70D0E7F8BDA6
:1074E0008C120020AC040020B004002042030020D5
:1074F000E45501001C4B70B51B78002B01D0FFF741
:1075000069F9FFF7B9FFFFF773F808F0D1F8174AE8
:10751000174913680400C31A8B4202D91060FEF7A2
:107520004BFD144A14491368E31A8B4204D91460C2
:10753000FEF766F8FDF740F9104B1B78002B11D0D1
:107540000F4B187800280DD10E4D2B68A34209D897
:10755000FA21490107F08DFD0B4BE4182018286033
:10756000FFF772F870BDC046480B002018030020DA
:10757000CF0700001C030020871300000203002037
:10758000600A00205C0A002060EA0000E12170B57A
:10759000490286B06F4806F0B1F8182008F07CFA6E
:1075A00005001A2008F078FA040008F087F8A40211
:1075B0006840604007F04CFD6749012007F059FD25
:1075C0000125664B012118800C2008F0D3FA002118
:1075D0000C2008F01BFB642008F0A0F8604E30007F
:1075E00002F084F85F49300002F0A0F85E4C00958C
:1075F0002B003C220221200002F0E6FB002813D0E1
:107600005A4B20001D7002F0CDFB2900200003F032
:1076100046FB00232361564B56496361200007F067
:10762000F5FD200002F092FE534C42223100200072
:1076300005F01AFA002816D00125504B504A0021B7
:1076400020001D7005F075FA4D4A0021200005F05C
:1076500077FAFA222900200005F064FA484A02214C
:10766000200005F075FA0121464803F08FFB464BD8
:1076700008251870FEF7ACFB444B12261870002347
:107680000593434B434C04930A230293033B00931B
:10769000039501960233404A4049200000F0BCF9AE
:1076A000002808D0FA24E4003D48FEF7F1FA200053
:1076B00008F034F8F8E701223A49200000F020F9F8
:1076C0000028EFD13449200000F070FF0028E9D1F4
:1076D0002900200000F0ECFF0028E3D10521200064
:1076E00001F006F80028DDD144223100200001F02D
:1076F00020F80028D6D12C49200000F02DFB0028CE
:10770000D0D11021200000F055F90028CAD129005D
:10771000200001F02BF80028C4D10121234B009157
:10772000234A200001F0E0F80028BBD120002149C5
:1077300000F00AFA2049200000F024FFFEF73CFC8C
:10774000FEF744FAFDF75CFFFDF736F8FEF77CFF25
:1077500006B070BD8C120020FFFF0000F809002069
:10776000800B0020801A06009402002000030020F5
:1077700001000100E15E0100440600200103002039
:107780004C0400004C02002064020020100600207F
:10779000CDCCCC3FB40400200000FA420000D94315
:1077A000F65E0100CDCC664400000C4321100000C1
:1077B0000F1D0000FD400000FFFFFF00F7B51D009A
:1077C00008AB1B7804000F001600002103220830CC
:1077D00001930BF048FD802222736A46104912790A
:1077E0006161012100236274FF226018E372A773B4
:1077F000E6732574A27423766176C377A01CC277E2
:10780000E01CC27723609623064A9B016262636094
:10781000054A064B2000E26161732381FEBDC0462C
:1078200080841E00983A0000580B00200D0A0000CA
:1078300010B5FF2801D008F09DF910BD10B5FF2844
:1078400001D008F0E3F910BD10B50400002902D002
:10785000012910D010BD807B0121FFF7E9FFA07B3B
:107860000121FFF7EBFF637B002BF3D0E069036896
:10787000DB6A9847EEE7437B002BEBD0006861683A
:107880000368DB699847E5E710B50023FF2802D0BD
:1078900008F0E8F90300180010BD10B507F022FB4E
:1078A00010BD10B507F067FF10BD10B507F036FF2B
:1078B00010BD10B507F054FF10BD10B507F0F8FE6D
:1078C00010BD10B507F0FAFE10BD70B5431CDB7F8C
:1078D00004001500002B08D0831CD87F0334FFF769
:1078E000ADFFE07F2900FFF7A9FF70BD10B50400D0
:1078F00000F0CEF8014B2000236010BDEC650100C4
:1079000073B50C1C06002049201C150008F044FE2D
:10791000002835D01D49201C08F02AFE00282FD051
:10792000002D0ED01A49201C08F02CFE01AD0028B5
:107930000CD0184B2B802900300000F092FB00285F
:1079400003D1211C300000F057FB76BD1249201CEA
:1079500008F018FE002801D0104BEBE71049201C5E
:1079600008F010FE002801D00E4BE3E70E49201C62
:1079700008F008FE002801D00C4BDBE70C4BD9E7E0
:107980000C204042E1E7C04600001643000070446E
:1079900000006144E1E9FFFF00805444D7DBFFFFB2
:1079A00000804044C1C5FFFF0000E6437581FFFF32
:1079B0006B6F0000F0B5CDB22B001133DBB285B098
:1079C0000400272B23D80F2600236E443370320087
:1079D0000133104900F082F9002816D10127020076
:1079E000009707230421200000F0BDFA00280CD1E5
:1079F00004222900200000F03DFB002805D13B00B7
:107A000032000449200000F095F905B0F0BD0D20CA
:107A10004042FAE7E7080000F0B5040087B00E1C0A
:107A2000111C1A000CAB1B780DA8059311AB1B7829
:107A30000EAD0FAF00782D783F880393109B009018
:107A400002930197059B20006DB201F017FC0028FE
:107A50000FD10122311C2000FFF752FF002808D16E
:107A600029002000FFF7A6FF002802D1200000F027
:107A70009FF907B0F0BD70477047FC3010B5806AC1
:107A800000220121FFF721FF0120404210BD00002C
:107A900070B504000D00FF22104901F07FFC104B6F
:107AA0009A2108332360230000220120FC3349007F
:107AB000DA621A635A6360541031DA631A645A64E2
:107AC0006252023162540231625200219D622000F2
:107AD000196559659A65DA6570BDC0460024743F22
:107AE0002466010070B50400FC34A36A0E00050092
:107AF0000121187CFFF79CFEA36A0021187CFFF788
:107B00009DFE0120FFF7D1FEA36A0121187CFFF73B
:107B100095FE002E12D0FFF7D0FE06002B6828003D
:107B20005B689847041E09D0FFF7C7FE054B801B12
:107B3000984204D80A20FFF7B8FEEFE7002420009F
:107B400070BDC046B70B000010B5FC30836A04223C
:107B5000D87BFFF7A2FE10BDF0B589B01F0010ABB7
:107B60001B781600029311AB1B780190059303005C
:107B7000FC339A6A0491130006A91433D46921CB0B
:107B800021C10021907BFFF759FEFFF796FE03907D
:107B9000019DFC35AB6A587CFFF776FE00280FD0BC
:107BA000FFF77FFEFFF789FE039BC01A129B9842E6
:107BB000EED3AB6A0121987BFFF740FE444882E098
:107BC00023680699DB69079A20009847049DAE193F
:107BD0002368B54205D029789B6820009847013575
:107BE000F6E7002F41D00E270E9D029BEE1823686A
:107BF000AE4257D09B6829782000984703003B404D
:107C0000062B23D10625236820001B6A9847019C78
:107C10000121FC34A36A987BFFF710FE059B002B23
:107C200042D00120FFF745FEFFF747FE0600A36A9A
:107C3000587CFFF729FE002836D0FFF732FEFFF709
:107C40003CFE129B801B9842F1D3B7E7082B01D171
:107C50000825D8E70A2B01D10A25D4E70138C0B29C
:107C60000135FD28C3D9FF25CDE79B6839002000E9
:107C700098470E230340062BC4D0082BE8D00A2BCC
:107C8000EAD00138C0B2FD28EDD80F9D029BEE1856
:107C90002368B54206D09B680021200098472870D1
:107CA0000135F5E70025AEE7082D0ED003D8062DE7
:107CB00084D0002007E00A2D04D0FF2DF9D1022046
:107CC000404200E0034809B0F0BD0348FBE7C0466E
:107CD0003FFDFFFF3DFDFFFF3EFDFFFF30B51D25D2
:107CE00089B007AC2570A1700D0A07496570049131
:107CF00002930121002303910192009303222100AA
:107D0000FFF72AFF09B030BD8813000070B586B0B8
:107D10000AAC24780BAD2D7802940024044E009315
:107D20000496039501940123FFF716FF06B070BD7A
:107D30008813000030B50D2585B003AC2570A17007
:107D40000D0A0121657001910093210013000322A7
:107D5000FFF7DCFF05B030BD73B50C1C0600002139
:107D6000201C08F019FC002818D00E49201C08F02F
:107D7000FFFB002812D06B46201CDD1D0BF0FCF829
:107D80000022094B09F076FE08F028FC0123287038
:107D90002A0006493000FFF7CDFF76BD1120404292
:107DA000FBE7C04600000C4300000440E708000069
:107DB00037B56B46DC1D00232200237008490133D0
:107DC0000500FFF78BFF002809D11E232278044904
:107DD00013432370220001232800FFF7ABFF3EBDB1
:107DE000D808000073B56B46DC1D00230E0023701D
:107DF000220001330A490500FFF770FF00280BD16C
:107E000022780423002E08D19A43227001232200F5
:107E100003492800FFF78EFF76BD13432370F5E773
:107E20003607000030B585B003AC63700E25012322
:107E30002570019300920B0002222100FFF766FFDC
:107E400005B030BD30B589B00D000CA90C781F21EC
:107E500069440D7002930023054D01930133009294
:107E6000049503941A00FFF777FE09B030BDC046B1
:107E7000881300000300002230B5FC3385B00400F5
:107E80000D00986A1100FFF720FD012303AA157069
:107E9000802100932000FFF7D5FF05B030BD10B55D
:107EA0000021FFF7E7FF10BD1FB50F226A4400292C
:107EB00007D1117001239D210093FFF7C3FF05B087
:107EC00000BD01231370F5E71FB50B0C03AA137057
:107ED0000B0A537001239170009383210233FFF743
:107EE000B1FF05B000BD1FB50B0C03AA13700B0A40
:107EF000537001239170009382210233FFF7A2FF98
:107F000005B000BDF7B5002410490500FFF7EBFFF1
:107F10000A20FFF7CAFC26006B46DF1D00233A004B
:107F20003B700B4901332800FFF7D8FE01223B7854
:107F30001340A340A4181E43F6B2082CECD12B68C2
:107F400028005B6898473000FEBDC046FFFFFF0079
:107F500019080000012307B500930023C5211A006A
:107F6000FFF770FF0EBD30B585B008AC257803ACC7
:107F7000637001232170A270E570220000939521A7
:107F80000333FFF75FFF05B030BD7FB508AC258830
:107F900002AC6170E27063710E0A110A1A0A2B0AB0
:107FA000A3710123A17022712670E571009307333C
:107FB00022001900FFF746FF04B070BD1FB50B0A81
:107FC00003AA1370012351700093DB181900FFF707
:107FD00039FF05B000BD1FB50B0E03AA13700B0CC3
:107FE00053700B0A93700123D170009386210333E1
:107FF000FFF728FF05B000BD10B50400081C98214C
:10800000C90508F07BFE0AF0B7FF0022044B0AF016
:108010003BF908F0E3FA01002000FFF7DCFF10BD98
:108020000000A03F030030B5FC330D0085B0040014
:1080300001220021986AFFF748FC002D0AD1002395
:1080400003AA137001330093D1212000FFF7FAFE39
:1080500005B030BD29002000FFF7BDFF0028EED09D
:10806000F6E7012307B50A0000939821DB18FFF714
:10807000E9FE0EBD1FB5012303AC217062708E2195
:1080800000932200DB18FFF7DDFE04B010BDF0B551
:1080900087B002929A222C2503935200825C0CAB8B
:1080A00004000F001B78FF35002A28D02A23012660
:1080B000FF33C35C3000984009F080F92300FC33A3
:1080C000596B08F043FC8321C90508F065FA0028C4
:1080D00013D066556B461B7A05AA53706B461B7B03
:1080E00017709370635D8B21D37001232000009380
:1080F0000333FFF7A7FE07B0F0BD6055EAE743552D
:10810000E8E77FB5089D02AC23712B0C63712B0A45
:10811000A37101230E0C26700E0AA170E270667026
:10812000E571220000938B210733FFF78BFE04B02B
:1081300070BDF0B587B003930CAB1F780DAB1D7805
:108140000E00290004000292FFF74CFE002812D115
:1081500004AA330A13706B461B7B5670D3706B46B0
:108160001B7A97701371012355718C2100932000A5
:108170000533FFF767FE07B0F0BDF0B58BB010AC6C
:10818000267811AC24780393049412AC257813ACB0
:1081900024780B0A059414AC277807AC23706B463F
:1081A0001B7B6170E3706B461B7DE271A3716B46B4
:1081B0001B7CA77023720123267165712200009336
:1081C0008C210833FFF73EFE0BB0F0BD1FB5012335
:1081D00003AC217062708F2100932200DB18FFF73F
:1081E00031FE04B010BD1FB5012303AA1170009326
:1081F0009621FFF727FE05B000BD10B50021FFF75F
:10820000F2FF10BD10B50121FFF7EDFF10BD1FB546
:10821000002303AA13800133009307210133FFF7E2
:1082200011FE05B000BD00000022F0B50F0087B0C0
:1082300011000600FFF7CAFF041E54D104AD2F70D1
:1082400001272A0000973B008A213000FFF7FAFD42
:10825000041E48D120232A002B70932100973B0055
:108260003000FFF7EFFD041E3DD103232B702A23BE
:10827000FF33F35CA8800D336B700A23A8716B8009
:108280002A000097033B88213000FFF7DBFD041E26
:1082900029D116493000FFF791FE23000390009486
:1082A000220021003000FFF770FE039B03431CB245
:1082B000002C18D17F232A002B70892100973B00C6
:1082C0003000FFF7BFFD041E0DD10520FFF7EDFACA
:1082D0003300FC339B6A587CFFF7D6FA002802D0A3
:1082E000FFF7DFFAF4E7200007B0F0BDFF0300005E
:1082F00070B586B00AAC0BAD24782D7801930023BD
:10830000044E0395049602940093FFF725FC06B0F3
:1083100070BDC046881300001FB51E240B0003A9C2
:108320000C801D3C009201940222FFF7E1FF04B093
:1083300010BD000030B589B00D000CA90C781F21CC
:1083400069440D7002930023044D01920495039437
:1083500000930122FFF700FC09B030BD8813000034
:108360001FB5002303AC23800133009322000133A7
:108370001321FFF7DFFF207804B010BD1FB50023E5
:1083800003AC2380A3700133220000931521023334
:10839000FFF7D0FF207809F011F8BF21090608F097
:1083A000ADFC04B010BD1FB5002303AC2380013326
:1083B0000093220001331221FFF7BCFF237860787D
:1083C0001B02184304B010BDF7B5036801915B6848
:1083D000050016009847041E1ED12800FFF7E3FF92
:1083E00060232700184200D0073FFF2E05D12B68DD
:1083F00001219B6A280098470600F2B201992800E3
:10840000FFF78AFF041E07D104492800FFF7D6FDB5
:108410000400002F00D03C002000FEBDFF03000040
:108420001FB50F24FF236C442370FE3B00932200F2
:108430001121FFF77FFF207804B010BDF7B50500CC
:10844000FFF7EEFF0700012840D12B6828005B688A
:108450009847041E2ED12E00FC3602003900B06A67
:10846000FFF733FAC02252000094230011002800C5
:10847000FFF78BFD041E1DD115492800FFF79EFD57
:10848000041E17D12800FFF765FD041E12D1B36A40
:10849000D87BFFF7F9F9002802D1FFF702FAF6E7D7
:1084A0002800FFF780FFC30506D509492800FFF71C
:1084B00085FD084C2000FEBD0124030604D50449B7
:1084C0002800FFF77BFD0F246442F3E71424FBE749
:1084D000FF03000042FDFFFF002330B587B000938B
:1084E000022226490400FFF750FD051E22D102009A
:1084F00001002000FFF76AFE051E1BD12049200065
:10850000FFF75CFD2000FFF78BFF012815D123004A
:108510002E2096222100FC33FF30DB6D205C5200C0
:10852000FE31098EDBB20090A25C01952000FFF7BE
:1085300000FE0500280007B030BD00281BD1053023
:108540000490FA3003904730205C44230290462088
:10855000FF30205CA1220190A220A4214000205CD9
:10856000FF33520049000090E35CA25C615A200096
:10857000FFF703FEDDE701256D42DBE76202000045
:10858000FF03000070B504000D00FFF7A5FF0028F1
:108590000AD12300FC3302000121986AFFF795F904
:1085A00029002000FFF79FFC70BD000073B5040098
:1085B0000D1CFFF735FF0600012800D06EE00021FA
:1085C000281C07F0E9FF00281BD03649281C07F0BB
:1085D000CFFF002815D0FC21281C890508F08EFB50
:1085E0000AF0CAFC304A314B08F028FF07F0F6FFCA
:1085F000C0B20F2842D00ED8052824D003D80328B3
:108600001CD008204BE0072821D00A28F9D1942358
:1086100009225B0015E03E2838D007D8142831D055
:108620001F28EED1942303225B000AE07D2831D07D
:10863000FA28E6D1942306225B0002E0942300226C
:108640005B00E25406E0942308225B00F9E79423E0
:108650005B00E65423002C20FC335D6394229523B9
:108660002A21FF30205C5B005200FF310090E35C68
:10867000A25C615C2000FFF70AFD76BD9423022214
:108680005B00DEE794230A225B00DAE794230422EE
:108690005B00D6E7942305225B00D2E7142040421A
:1086A000EBE7C0460000FF437B14AE47E17A843F0E
:1086B00037B504000D00FFF7B3FE012813D16B1F7F
:1086C000072B13D82A232C219422FF33E554FF31A2
:1086D000615C013352000091E35CA25C2900200040
:1086E000FFF7D5FC3EBD14204042FBE70920FBE725
:1086F00037B505000C00FFF793FE012814D1631F66
:10870000032B14D895222C202A21231F5200DBB2E0
:10871000AB54FF30285C023AFF310090AA5C695CE0
:108720002800FFF7B4FC3EBD14204042FBE70A20BE
:10873000FBE773B505000C001600FFF771FE01287A
:1087400011D10F21230030098B430E40E821034350
:1087500001AA2401137034430223C9002800547075
:10876000FFF7E8FA76BD14204042FBE730B587B04A
:1087700004000D00FFF754FE012814D1230000214E
:10878000FE331D86023BDB6D01912E219622FF31C7
:10879000615C52000091DBB2A25C29002000FFF76F
:1087A000C8FC07B030BD00281CD10521A4230491CA
:1087B0005B00FA31E55203914731615C4423029139
:1087C0004621FF31615CA1220191A2214900615C37
:1087D000FF3352000091E35CA25C29002000FFF708
:1087E000CCFCDEE701204042DBE70000F7B50400E7
:1087F0000D1CFFF715FE002837D10021281C07F0BB
:10880000ADFE002800D01B4D281C0AF0B5FB1A4A0B
:108810001A4B06000F0007F085FE002828D01849E3
:10882000281C07F0A5FE002822D00022154B30009E
:10883000390009F029FD83230022DB0509F024FD1E
:108840000022114B09F016F907F0C8FE2100A02301
:108850004222FC3108645B000090FF32E35CA25CC2
:10886000C96B2000FFF74DFCFEBD14204042FBE722
:108870006620FBE79A99193F333333333333E33FB1
:108880000000484300408F4080847E4137B504009B
:108890000D00FFF7C5FD002820D1042D21D842226C
:1088A0002800FF3207F08AFC031214161800002378
:1088B0002100A354A023FC31086C5B000090E35C12
:1088C000A25CC96B2000FFF71CFC3EBD0823EFE74C
:1088D0000923EDE70A23EBE70B23E9E714204042E5
:1088E000F3E76A20FBE70000F0B58BB0079310AB0D
:1088F00004000D0017001E78FFF792FD002851D1EB
:10890000012D40D0002D03D0022D44D0344838E052
:10891000A12301225B00E25405200490FA30039069
:108920004730205C442302904620FF30205CA12287
:108930000190A220A4214000205CFF335200490096
:108940000090E35CA25C615A2000FFF716FC00284F
:1089500017D109AD3B0A2B702A00022321492000C0
:108960006F70FFF7E7F900280BD1079B2A001B0A5D
:108970002B706B461B7F1C496B7020000223FFF796
:10898000D9F90BB0F0BDA1235B00002E01D0042269
:10899000C1E7E654C0E7A12306225B00002EBAD14E
:1089A000E554B9E7012818D196225200002D12D0C3
:1089B000A054230021000020FC33FE31DB6D098E22
:1089C00001902E20FF30205CDBB20090A25C2000E2
:1089D000FFF7AFFBD5E7A554EBE701204042D0E716
:1089E00043FDFFFFBC060000BE060000F0B58BB0E3
:1089F00004000D000792FFF713FD002850D1462711
:108A0000FF37002D1AD14423A122A4210530049060
:108A1000FA30E55503904730FF3352004900205C9F
:108A2000E35CA25C615A02900195A2204000205CA8
:108A300000902000FFF7A1FB0BB0F0BD0126D7216D
:108A400009ADE65533002A00C9002000FFF746F9BA
:108A50000028F1D1079A2B781212B34316401E4317
:108A60006B46D7211B7F2A006B70C90002232000B0
:108A70002E70FFF75FF90028DED14423A122A42144
:108A800005300490FA3003904730205CFF330290A9
:108A9000E05D52004900E35CA25C615A0190C4E7CA
:108AA00014204042C8E780224B1E994110B5C9B23C
:108AB0005200FFF79BFF10BDF7B5040000912600A0
:108AC000FFF7AEFCFC36012851D12A23FF33E55CC9
:108AD0002D48A84008F072FC2C49071C706B08F068
:108AE0000DF9011C381C07F031FF07F05FFD6B1F0B
:108AF0000600012B38D800221927254BA9009E42D9
:108B000002D929003E3189002E23FF33E05CC9B22F
:108B100043424341584214230340962001934000AE
:108B2000205C009B4000C0184000451BAD00019B2D
:108B3000AD18ED182DB2281C002D00DA00204B1EB8
:108B400000B2C01807F0CEFB95235B0082B2E05C58
:108B5000FE3404305043238E800008339B00DF191D
:108B6000C7197743B808FEBD08221127C5E7009B47
:108B7000F56BD80068430AF0CDF90022054B09F0E7
:108B800083FB07F02BFDEEE71027000000002041DB
:108B90007F3E00000000503FF0B585B002930368AF
:108BA00004005B680E0017009847002867D1FF2F6C
:108BB00067D82000FFF734FC01282ED139002000AF
:108BC000FFF77AFF032358434308019323683A00D1
:108BD000DD683100029B2000A84700284FD1FEF736
:108BE00070FE05002600FC36B36AD87BFEF74CFE0B
:108BF00000281BD1FEF755FEFEF763FE019B401BCC
:108C00009842EFD921492000FFF7D8F923682000C6
:108C10005B6898470520404231E0002833D1390095
:108C20002000FFF749FF05234343CEE7FEF749FE47
:108C3000019038000AF06EF90022154B09F024FB70
:108C4000019B02900391581B08F0B8FB0AF094F9BD
:108C50000022104B08F00EFF02000B00029803994F
:108C600008F008FF0AF0DAF9084970652000FFF7FC
:108C7000A5F9002803D1236820005B68984705B058
:108C8000F0BD0420C7E70120C5E7C046FF03000090
:108C90000000204080842E41F7B56B46DC1D002388
:108CA00022002370164901330500FFF717F800284A
:108CB00020D12800FFF7B4FB01281CD12B00FC3386
:108CC000586B0AF059F900220E4B09F04FFD49008C
:108CD0004F080D4A0D4B390007F010FC00280AD050
:108CE000042223789343237022000123044928009F
:108CF000FFF720F8FEBD042322781343F3E7C046B4
:108D00008908000000407F40FCA9F1D24D62503F2D
:108D1000F0B5050087B00F001600FF2A75D8A22312
:108D20005B00C35C002B01D0FF2A6ED02800FFF748
:108D300077FB01284AD129000020FE31098E0190DD
:108D40002E209622FF30285C52000090F3B2AA5CDD
:108D50002800FFF7EEF9041E59D10090030001220C
:108D60002D492800FFF711F9041E50D1020001001F
:108D70002800FFF72BFA041E49D10300F2B2390094
:108D80002800FFF74FF8041E41D124492800FFF7BF
:108D900015F9041E3BD12800FFF77EFF041E36D1D3
:108DA0002E00FC3601000122B06AFEF78EFD210084
:108DB0002800FFF789F8041E29D1B36A587CFEF712
:108DC00063FD002823D0FEF76CFDF6E7002821D1D3
:108DD00005300490F0B20390A3204000285C4423A7
:108DE00002904620FF30285CA1220190A220A421FD
:108DF0004000285CFF33520049000090EB5CAA5C05
:108E0000695A2800FFF7B9F9A5E704246442200055
:108E100007B0F0BD0124F9E701020000FF030000E4
:108E20002E2373B5FF33C35C0400012B02D0142042
:108E3000404276BDFFF7F4FA06000128F7D16B46F1
:108E400092219A1D00230901137003002000FEF7F0
:108E500071FF0028EDD16B46DD1DD8712A0033006B
:108E600008492000FEF73AFF0028E2D102232A78C1
:108E7000044913432B702A0033002000FEF75AFFE9
:108E8000D7E7C04644090000F7B5036801915B6865
:108E9000040015009847002800D082E02000FFF76A
:108EA000BFFA012847D12A23FF33E35C984008F03A
:108EB00085FA2300FC33596B07F048FD0AF05CF893
:108EC00000223F4B09F0E0F900223E4B09F0DCF9AB
:108ED00007F084FB060008F071FA0AF04DF8002252
:108EE000394B08F0C7FD07F079FB01002000FFF7C0
:108EF00049FB002855D1FEF7E4FC07002300FC33B2
:108F00009B6AD87BFEF7C0FC00283FD1FEF7C9FC66
:108F1000FEF7D7FCC01B8642F0D22000FFF780FF8F
:108F20002A492000FFF74AF8236820005B68984729
:108F30000620404235E000283FD1281E00D1FF2006
:108F400009F0E8FF0022224B09F09EF92300FC33D0
:108F50000600D86B0F0008F031FA0AF00DF8020095
:108F60000B0000201B4908F085FD0AF057F80AF0B5
:108F700003F802000B003000390008F07BFD0022EE
:108F8000154B09F081F90022144B9FE72E23FF3384
:108F9000E35C012B06D023682A001B69019920009D
:108FA0009847FEBD2000FFF73BFA0128F3D12000CF
:108FB000FFF736FF0028EED0F3E70120B9E7C046FF
:108FC0000000594000408F4000402F40FF03000048
:108FD000000020408084CE4180842E410000144057
:108FE0001FB5002303AC2380A3700133009322003C
:108FF00002331421FFF79EF92078637800041B02E6
:109000001843A378184304B010BD000070B5FFF7F3
:10901000E7FFC0B209F044FF0400802000060D18ED
:109020000022044B2900200009F02EF909F0F6FF78
:1090300070BDC0460000E03F10B50400FFF7F0F936
:10904000012812D12000FFF7CBFF030AD8B21B067C
:1090500008D409F025FF0022054B09F015F909F0A5
:10906000DDFF10BD0138FF38F3E70248F9E7C046DD
:109070000000D03F0000A0C11FB50024012303AAB7
:10908000148017210093DB18FFF754F9200004B077
:1090900010BD0000F0B5036889B05B6803900492CE
:1090A0000E1C98470398FFF7E7FF830602D5039845
:1090B000FFF7ADF87000400809F05EFF5F4A604BB3
:1090C00007F01CFA0590002805D001210398FEF74F
:1090D00009FD09B0F0BD301C09F04EFF594A5A4B4A
:1090E00004000D0009F042FB49004F08534A544B5D
:1090F000390007F003FA002820D06A46127D07AB3A
:109100001A70049808F05AF909F036FF00224F4B04
:1091100008F0B0FC07F062FA07AA030C5370030AC8
:109120009370039B0499FC3399650123D0709721B8
:10913000009303980333FEF785FECAE7444A454B84
:109140002000290009F012FB49004F083B4A3C4B24
:10915000390007F0D3F9002802D007AB0122CFE78E
:109160003D4A3E4B2000290009F000FB49004F0812
:10917000324A334B390007F0C1F9002802D007AB5F
:109180000222BDE72F4A364B2000290009F0EEFAF3
:1091900049004F08294A2A4B390007F0AFF9002847
:1091A00002D007AB0322ABE7294A2E4B200029004F
:1091B00009F0DCFA49004F08204A214B390007F03A
:1091C0009DF9002802D007AB042299E71D4A264BDF
:1091D0002000290009F0CAFA49004F08174A184B25
:1091E000390007F08BF9002802D007AB052287E78A
:1091F00000221E4B2000290009F0B8FA49004F0850
:109200000E4A0F4B390007F079F9002802D007AB5E
:10921000062275E7164A174B2000290009F0A6FA26
:1092200049004F08054A064B390007F067F9002846
:1092300002D007AB072263E70F484AE7FCA9F1D247
:109240004D62503F9A9999999999F93F00402F4062
:10925000333333333333FB3FCDCCCCCCCCCCFC3F9E
:109260009999014033330340999905400000084023
:109270006666666666660A4041FDFFFFF0B505005A
:1092800087B003930CAB1B78FC3504930DAB1B88A4
:10929000040002930FAB1B780F1CA86A00210192F7
:1092A0000593FEF7D1FAAB6A0021D87BFEF7C0FA2E
:1092B000AB6A0021587CFEF7BBFA6A462A23127972
:1092C000FF336F63E2540422013BE2546A462300F9
:1092D0001289FE331A8600220126AA6503329A8576
:1092E000DE85FF233100EB652000FEF7FBFB002845
:1092F0004AD1236820005B689847002844D1310098
:109300002000FEF791FF00283ED100210E9807F0C3
:1093100039F9002831D101992000FFF7C9F9002857
:1093200032D1391C2000FFF741F900282CD10399D4
:109330002000FFF7DDF9002826D1442204992000FF
:10934000FFF7F7F900281FD102992000FFF70EFA66
:10935000002819D10F492000FEF7FEFC002813D188
:1093600001212000FEF7A0FD00280DD1059B200063
:10937000002B0BD0FEF741FF06E0074A0E992000B4
:10938000FFF788FE0028C6D007B0F0BDFEF73AFF11
:10939000FAE7C0460000704288130000034B4160AA
:1093A00003600023826083817047C0466C660100C1
:1093B00070B506000C008D18AC4207D033682178D8
:1093C0009B683000984720700134F5E770BD704706
:1093D000704710B50400406803F0DEFE00232376DA
:1093E00010BD10B5406803F0FCFE10BDF8B50500D7
:1093F00040680C0003F0F0FE2B68E7B2260A9B6879
:10940000012810D139002800FF2798472B68BC435A
:1094100004439B683100280098470302200038402D
:10942000184380B2F8BD310028009847FF262B680A
:109430000002344004439B68390028009847B44335
:109440002043EEE710B5040006F0BEF9200010BD81
:1094500010B54B1C0BD0102909D0EFF3108472B655
:10946000102905DD02234376002C00D162B610BD21
:109470000123427E1A43427618224A43044989183E
:1094800016228A569340C2691343C361ECE7C04673
:10949000307B01004B1C17D0102915D0437E9B0751
:1094A00012D4EFF3108272B618234B430749C91840
:1094B0000123897D49B28B40C1699943C16100D1C3
:1094C0004176002A00D162B67047C046307B010069
:1094D000437E002B05D09A0704D5837E002B00D055
:1094E00062B67047DB07FCD5C369024A9BB2D36002
:1094F000F7E7C04600180040037E002B04D14376F6
:109500008376C36101330376704700007FB503693A
:1095100002AE04000D00029172608B4203D1828A78
:10952000B3889A4226D0200006223100103009F07C
:109530007EFE606803F047FE7379E17A013B581EB6
:109540008341227B00936068002303F0D9FF3379C5
:109550000021013BDBB2022B01D8074AD15C074B4B
:109560002A009D4200D91A00606803F0FDFD606882
:1095700003F01FFE7FBDC046A4660100001BB700BC
:1095800070B518260400FFF7B7FF33000821207AD2
:109590000D4D4343EB18595606F07CFB3300082170
:1095A000A07A4343EB18595606F074FB0821607A01
:1095B0004643AD19695606F06DFB044B200006CBFF
:1095C000FFF7A4FF70BDC046307B0100780B002080
:1095D00007B5437E00910192002B07D09A070AD568
:1095E000EFF310835A425341837672B60099019A81
:1095F000FFF78CFF07BDDB07F8D5C369014A9BB2B3
:109600009360F3E7001800400E490F4B10B501229C
:109610000B6000234A710B710C490D480831016041
:109620000C49427541600C49C272018114210361E9
:1096300081720375094A0A490376037306F0D8FB61
:1096400010BDC046780B002000093D00A86601004F
:10965000580B0020641200201215000000000020AA
:10966000D19300000020704710B503689C6B012364
:10967000A04710BD8C2300229B00C154103BC3188F
:109680005A609A60DA6001238375704710B50368E9
:1096900001211B6B984710BDF8B505000E0017009F
:1096A0000024BC4208D02B68315D1B682800984715
:1096B000002801D00134F4E72000F8BDFC30406AF6
:1096C000704770478E239B00C15070478D239B00CD
:1096D000C15070470300FC335A6A002A03D01B6A4A
:1096E000C018007E704701204042FBE770B50600BD
:1096F00018250C49006903F04DFF306903F08BFD1C
:109700002B000821307D084C4343E318595606F0DE
:10971000C1FA0821707D45436419615606F0BAFA12
:1097200070BDC046A0860100307B010070B504000A
:109730000D00006903F084FD2900206903F02AFF71
:10974000206903F068FD70BD10B5006903F078FD75
:1097500010BD0000F7B50193FA2380260025040010
:109760009B008360134B760008330F00456029008F
:10977000009203603200183009F075FD23002000CC
:10978000FC332530DD6132001D6229005D62FF304F
:1097900009F069FD88239B00E3185D609D60DD6032
:1097A0006B461B78276123756B461B79A5752000D6
:1097B0006375FEBDE466010070B5060018250069FA
:1097C00003F0C3FE306903F026FD2B000821307D35
:1097D000064C4343E318595606F05CFA0821707DA5
:1097E00045436419615606F055FA70BD307B01009F
:1097F00010B50022FFF7E0FF10BD0300802210B576
:10980000FC33DC685200944208D05A6881545A688C
:109810000132D2B25A60DA680132DA6010BDF7B5AF
:109820000400171E019302D100252800FEBD03008D
:109830000022FC33DA611A625A620069013203F0D5
:1098400031FD061EF0D0230020691833009303F089
:10985000BCFD01000098FFF7D0FF01252069BD4243
:1098600014D003F090FD00280FD0206903F0FAFC1B
:109870000221206903F000FD206903F0A6FD01002C
:109880000098FFF7BAFF0135E8E70600206903F00A
:10989000E1FC019B002B06D0002E06D0032120699D
:1098A00003F0EAFCC1E7002EBFD1013DBDE7002374
:1098B00010B5827D9A420CD0882292008218D4681A
:1098C00080225200944204D02530FF30FFF795FFEC
:1098D0000123180010BD0300FC33DA68002A09D008
:1098E0009A68805C9A680132D2B29A60DA68013A6A
:1098F000DA60704701204042FBE700228C2370B5FC
:109900009B00827504000E00C15C006903F0CAFC74
:10991000002806D10321206903F0AEFC02252800AF
:1099200070BD88239B00E318DD68002D11D0200056
:109930002530FF302569FFF7CEFFC1B2280003F0C4
:10994000F3FC0028EDD10321206903F095FC0325E9
:10995000E5E7002EE3D00321206903F08DFCDEE76C
:1099600010B51830FFF7B7FF10BD70B504000069DF
:1099700003F000FD002815D0206903F012FD002837
:1099800011D0206903F06EFC0321206903F074FC00
:109990008E239B00E558002D35D10023FC34E36174
:1099A0002362636270BD206903F005FD002809D0C1
:1099B000206903F0FBFC002804D0206903F000FDBF
:1099C0000028DED0206903F0F6FC002821D12069B0
:1099D00003F0E2FC0028E5D0206903F0F1FC002848
:1099E00033D088239B00E318DB68FF21002B05D0D0
:1099F00020002530FF30FFF76EFFC1B2206903F071
:109A0000ABFCA075CEE7236820001B699847A847E8
:109A1000C3E7206903F026FC2069032103F02CFC36
:109A2000206903F0CDFC0028BCD0882300229B00D5
:109A3000E3185A609A60DA600123A3758D239B00B6
:109A4000E3589342AED09847ACE72300FC335A6A00
:109A5000802320695B009A4206D103F0FBFB0321BF
:109A6000206903F009FC9DE703F0AFFC0100200032
:109A70001830FFF7C2FE206903F0F4FBEFE70000A7
:109A800010B50248FFF771FF10BDC046800B0020E3
:109A900010B51123102202490248FFF75BFE10BDEA
:109AA0005C120020800B00207047F0B500291BDB02
:109AB0000C25445F8C4217DD002A15DB0E25445F20
:109AC000944211DD847E022C0FD0032C16D0012C81
:109AD00004D1D2430489A4180A0021B2012B13D067
