:10400000008000206DEE000055EE000055EE00002F
:1040100000000000000000000000000000000000A0
:1040200000000000000000000000000055EE00004D
:10403000000000000000000055EE0000C1EE00008E
:1040400055EE000055EE000055EE000055EE000064
:1040500041E8000055EE000055EE000059EE00006A
:1040600055EE0000C1C7000055EE000055EE0000FF
:104070007595000055EE0000D1C7000055EE000018
:1040800055EE000055EE000055EE000055EE000024
:104090003DCE000055EE000055EE000055EE00004C
:1040A00055EE000055EE000055EE000055EE000004
:1040B0000000000010B5064C2378002B07D1054BFB
:1040C000002B02D0044800E000BF0123237010BD84
:1040D000280200200000000068790100044B10B5A0
:1040E000002B03D00349044800E000BF10BDC046C8
:1040F000000000002C02002068790100034B1B78AF
:10410000002B02D00122024B1A70704704000020DD
:10411000140B0020F0B505001F00140085B00091BD
:1041200002920393009B002B3AD02B78FE2B0ED1EA
:10413000002F03D10398013005B0F0BD6B78013F2B
:104140002370009B01340235023B0093EAE7FF2B0A
:1041500011D16B785E1C0193B742EBDBA91C3200D6
:1041600020000EF0CAFAA419BF1B019E009B033663
:10417000AD199B1BE9E70C4A9B009B581800019363
:104180000FF0B4F806008742D4DB0200019920004A
:104190000EF0B3FA009BA419BF1B0135013BD4E715
:1041A000029BE01AC8E7C046844F0100F0B5002426
:1041B0001700CDB0029001910792089303930694E3
:1041C000019B002B00D1A1E0029B1B78DE00059330
:1041D000019B3000012B02DD029B58788019019D64
:1041E000022D08DD029B07259B7843400693019B27
:1041F000062B00DC1D00F1210BF0D6FA30000491F3
:10420000F1210BF0D1FA06980E00F1210BF0CCFA57
:10421000B30009938B000A93049B9B000B93002D22
:1042200048DD012D04D0022D21D0454B0A9A01E032
:10423000434B099A9E5833780493002B38D0AB42F5
:1042400032D1701C2A0002990EF048FA00282BD1B6
:10425000002C5ED00222012C00D0A2180399BB18BA
:104260008A1A002A06DC089801304DB0F0BD344BA4
:104270000B9ADFE7013A0392019A0499521B7618D0
:104280000192029A71785219197002920133002F2B
:1042900050D038001F00012C2ED1FE2303700CAB30
:1042A0001B78437000248BE7049B0233F618C2E7A7
:1042B000013DB4E76A46127D0CAB1A55019B0134EF
:1042C000013B0193029B0133029380235B009C42DC
:1042D00007D0019B002B00D072E738000233012C7D
:1042E00001D03800A31C039AFF18D31A0393BAD441
:1042F000002800D164E7CEE7FF230370631E4370FC
:1043000022000CA902300EF0F8F9CBE7079BF81A4F
:10431000ABE7039B002BA6DD761973783B70039BFC
:104320000137013B0393019B5B1B0193029B5B19CC
:10433000029345E780221F0052009442C9D1D0E782
:10434000C04B0100002905D07F220B7A934300283F
:1043500001D10B727047042213430B720860F9E716
:10436000002907D07F220B7A086093431A000823A4
:1043700013430B727047002907D07F220B7A086025
:1043800093431A000A2313430B727047002907D086
:104390007F220B7A086093431A00082313430B72A1
:1043A000704710B50023884207D0984207D00133E8
:1043B000002902D00EF090FF0300180010BD012369
:1043C0005B42FAE70A21435E0200181E01D01B017E
:1043D000D018704770B50D00041E09D0C1682800C0
:1043E000FFF7DFFF002803D02000FFF7EBFFF3E724
:1043F000200070BD01604160002900D089180023B1
:104400008160C160037470474A688B6810329342C0
:1044100004D201230B74002318007047103B8B60FB
:10442000002BF9D04268002A08D0991A091151814D
:10443000002243605A811A72DA60EDE70360F7E701
:10444000021E07D07F21037A00200B40043B012B82
:1044500000D8106870470000F7B5037804000D001D
:104460002B2B1DD02D2B1CD10127013423781A00B2
:10447000303A092A02D92E2B00D0C9E000200A26A2
:10448000644922781300303BDBB2092B0BD88842F9
:1044900011D8DA43704382420DD3C0180134F0E7DB
:1044A00001340027E2E7002A05D1002F18D080232D
:1044B0001B06984209D90026574B98421AD90A215F
:1044C00001360BF0EBF876B2F6E77F222B7A40420A
:1044D00093431A000A2313432B7228603800FEBD51
:1044E0007F222B7A286093431A00082313432B72F0
:1044F0000127F3E723781A00303A092A03D8013656
:1045000076B20134F6E72E2B0FD10A21434A01344B
:104510002378303BDBB2092B07D8904203D84843BD
:10452000013E181876B20134F2E7202322789A432C
:104530000023452A3AD162782D2A1FD10234013353
:104540000193002321783039CAB2092A2AD80A22D5
:104550005343CB18F118262922DD019A2B7A7F20AC
:10456000002A11D00024002F01D0802424060C2121
:1045700083430B432B722C60019FAFE72B2A01D0A2
:104580000134DDE70234DBE7002F06D024490C229A
:10459000834313432B722960AAE7FF21C905F6E77D
:1045A0000134CFE7019A002A00D05B422478002C26
:1045B0002ED1F6180CF068F9002E1ADD01231E42E8
:1045C00004D0184AA300D1580BF0FEFD0134761038
:1045D000E4B2002EF2D1002F02D080231B06C018B7
:1045E0007F222B7A286093431A000C2313432B72EB
:1045F0007EE77642002EEED001231E4204D00A4A06
:10460000A300D1580BF0E0FD01347610E4B2F1E7DD
:10461000002763E799999919FFFF7F00CBCC0C0025
:10462000000080FF184A0100004A0100426810B5EE
:10463000002A08D08368C468A34205D3002301225E
:10464000436003681A7410BD5C1C8460D154FAE79F
:10465000F8B50500081C0E1C0AF0E8FF80301FDBCF
:10466000301C0AF0E3FF7F24A04203DC301C0AF078
:10467000DDFF44B200260AF031FC184B9C461A7844
:10468000174BF1B28A420ED931000136F700083FCC
:10469000DF5BAF42F5D1C9005B189C705860F8BD74
:1046A00080246442E6E7082A06D06646511C317031
:1046B000D2009D529B18F0E701210022084BCEB298
:1046C000B446CF00D600DF199E197F687668B742DE
:1046D00000D2624601310829F1D1E9E7E40900205E
:1046E000E809002010B51D200AF0ECFD04001D2093
:1046F0000AF0E8FD24181D200AF0E4FD20180CF053
:1047000079F80E490BF088FB0D490BF05DFDEA21AD
:1047100089050BF059FD0B490BF07EFB0021041CB1
:104720000BF082F9002807D10749201C0BF090F903
:10473000002801D1201C10BD0024FBE700004040F0
:1047400033335340CA261B3E33334B41F8B5FFF792
:10475000C9FF5B490BF038FD0BF08EF9594B18700F
:10476000594B1B78002B15D0584CFA21200007F02C
:104770003FFE574D061E0ED12B68002B0AD00AF0C3
:10478000ADFB2B68C01A534B984203D9524B1E7095
:10479000524B1E70F8BD0AF0A1FB51492860200061
:1047A00007F0AEFF4D4D4E492870200007F090FFF6
:1047B0004C4E4B493070200007F0BAFF4A4B484935
:1047C0001860200007F0CCFF48490AF0F1FFB4213F
:1047D00049000BF0D3F86931FF310800B4214900DA
:1047E0000BF0CCF8424B200019803D4907F058FFF0
:1047F000404B3B491860200007F0CAFF3E4B384948
:104800001880200007F0E8FE3C4F002825D1002347
:104810003B702B78304D022B50D93149200007F0E6
:10482000FFFE374B2E491860200007F00DFF354B77
:104830002B491860200007F01BFF334B984239DBEF
:10484000324B984238DCFA2189000AF0B1FF00B2FD
:104850002F4B188033782B709CE72149200007F0FC
:10486000CBFE0028D3D001231D4920003B7007F068
:1048700053FE284B1A491880200007F05DFE264B96
:1048800017491870200007F067FE244B1449187070
:10489000200007F071FE224B11491870200007F02C
:1048A0007BFE204B0E491870200007F085FE1E4B42
:1048B0001870AEE71D48CBE71D48C9E70023CAE7DB
:1048C0000000A041EA050020DD02002018060020BB
:1048D000F8020020983A0000D809002017060020AE
:1048E0004C040000DA090020DC090020A086010049
:1048F00014060020C4090020D6090020E009002089
:10490000CC090020D009002019FC0BFEFFFFF301A9
:10491000E8050020E2090020D50900201606002045
:10492000C8090020D4090020D90900200080FFFF19
:10493000FF7F00000023F7B5144F05003A780C0004
:104940009A4201D0124B1B68009300239A4201D077
:10495000104B1B682E1969463000042201930DF09C
:10496000CCFE201D281801A904220DF0C6FE20004F
:1049700008302818022208490DF0BFFE20003B78BD
:104980000C30B372054B1B78F372FEBDD8090020C2
:10499000CC090020D0090020E8050020EA0500200D
:1049A0003E4B73B51B78002B72D03D4C200004F0B9
:1049B00073FF0121200005F0ECFE00232361394B39
:1049C0003949636120000AF037F8384920000AF0BD
:1049D0001EF8374920000AF039F8364920000AF05D
:1049E00016F8354B0A22196820000AF08AF8334974
:1049F00020000AF00CF8324B0A22196820000AF055
:104A000080F8304920000AF002F82F4B0A2219786A
:104A100020000AF082F82D4D2000290009F0F7FF50
:104A20002B4B18780BF0E6FE2A490BF0F5F90DF048
:104A300009FD0B0001210200009120000AF034F969
:104A40002549200009F0F8FF244E3378002B20D0B0
:104A50002349200009F0DBFF3100200009F0DBFFD3
:104A60002900200009F0D3FF1E4B18680BF0A2FEAE
:104A70000A22010020000AF036F81B49200009F044
:104A8000DBFF1A49200009F0E1FF200005F0D8F90A
:104A900073BD1749200009F0CFFFF6E7DC020020C4
:104AA0007002002001000100BE4A0100D14A01004D
:104AB00005000020D64A01001C0B0020DA4A010044
:104AC000180B0020DF4A0100D8090020DA5301004A
:104AD000EA0500200000A04189680100DF020020F3
:104AE000E34A0100FC020020E94A0100040300201F
:104AF000ED4A0100002310B50004014309489A0063
:104B000012588A420CD00133082BF8D1064A137888
:104B10009C0021500721002001330B40137010BD71
:104B20000120FCE7500200204C020020F0B585B0C7
:104B300001930AAB20CB04001F780CAB1B782048F4
:104B40000291039316000EF0D1FBC3B29C46C4231E
:104B50002370C33B6370391E01D080214942029B00
:104B600066711943039B36125A1E93419B010B43F6
:104B7000A370144BA6711B88C6B2E3701B1223717D
:104B8000200063463200E3710D4908300DF0B5FD99
:104B9000019B002B08D0002D06D0300008302018D3
:104BA0002A0019000DF0A9FD280008308019002FF7
:104BB00003D001002000FFF7BDFE05B0F0BDC046E8
:104BC00005000020CA09002070B530C80E00A542BB
:104BD0000AD921003068FFF7E4FB002805D02378CC
:104BE0000134002BFBD1F2E70024200070BD73B527
:104BF000056886686C6801A928000194FFF7E4FF46
:104C0000002802D12000A6196E6076BDF0B50027FD
:104C100087B000900C0002910392B9422ED005900B
:104C200005A910001600FFF7CFFF0500B8421CD100
:104C300000980EF05BFB030075680133B268EB1857
:104C40000190934207D9012333747F22237A0027EE
:104C50009343237212E07360002DF6D0019A0099FD
:104C600028000DF04AFD019BEF547F22237A012793
:104C700093431A000523134323722560380007B0BD
:104C8000F0BD0100802210B5203192000400FFF732
:104C9000B1FB00232000237710BD1FB5040001A83D
:104CA0000AF073F801A920000AF06FF801A80AF0D1
:104CB00001F8200004B010BDF0B589B00C1E0291BF
:104CC000039212D0010005A817000AF05EF8059BB8
:104CD0000093079B0193009B002B08D17F22237A2E
:104CE0009343237205A809F0E5FF09B0F0BD3D68C4
:104CF0007E68AE4212D9009BAB4224D0002D06D074
:104D0000019A290018000EF0F8FA00281BD02B0099
:104D10001A7801331D00002AFAD1EAE7019BBA682C
:104D20000133F318934202D901233B74D6E77B6029
:104D3000002ED3D0019A009930000DF0DEFC002344
:104D40003500019AB3547F22237A256093431A00D9
:104D5000032313432372079B6360C3E770B5050009
:104D60000C001600081E0FD02868FFF733FB002840
:104D70000AD131002800FFF747FB002804D07F222A
:104D8000037AC4601340037270BD70B50300007AEB
:104D90007F2504002C4005D1A8435F3D28431872AD
:104DA0001C605C6020201C7A0440201E02D0180089
:104DB000FFF7D4FF70BD70B50D000400280011008E
:104DC00014302A00FFF7E1FF002809D07F22037A80
:104DD00093431A00202313430372002303604360AC
:104DE00020606560200070BD10B5002801D0FFF77D
:104DF000B5FF10BD10B50200037A20200340181E35
:104E000002D01068FFF7E6FA10BD437E002B06D1F2
:104E100043695A1C42611B78037601234376007E66
:104E2000704710B504002000FFF7EFFF0A2806D8EE
:104E3000092808D2002809D0012020740CE00D2890
:104E400001D02028F8D100236376ECE7237C60347E
:104E50005A1E93410133237010BD1FB57F220300FA
:104E6000007A1040043808282ED80AF00DFC0F0FE5
:104E7000052D082D0D2D1A00187804B010BD1868E6
:104E8000C343DB171840F8E71868F6E718680023F3
:104E900001AC23722100FFF7DFFA2000FFF7DDFFEE
:104EA000EBE7CF211C680906201C0AF0DBFD002877
:104EB000E3D09E21201CC9050AF0C0FD0028DCD0EB
:104EC000201C0BF077FCD8E70020D6E770B5040073
:104ED0000D00FFF79AFF0023A84201D1637601334A
:104EE000180070BD2F2815D90123392803D95E2851
:104EF00003D97A2803D81800704740280AD901231B
:104F00005A28F8D9002301222D38C0B282425B41D1
:104F1000DBB2F0E701232B28F4D1ECE737B500230F
:104F20006A460C001370C3B27F2809D85370951CD1
:104F3000013D297800292ED02000FFF777FBF7E705
:104F40003F2180226D460B405242134380096B7013
:104F500085B2C3B21F2D05D8403213436A46937001
:104F6000D51CE5E76D460B4000041343800DAB7084
:104F7000C3B20F2805DC202252421343EB7001AD6F
:104F8000D6E71940102380115B420A431843EA70A8
:104F900028710535CCE737BDF7B505000027FFF7C9
:104FA00034FF6F7601902800FFF72FFF0024019B4C
:104FB00001006C76834258D0A04204D102236035B0
:104FC00000202B70FEBD5C284BD12800FFF71DFF91
:104FD0000028F3D02B4B752839D104266C76280095
:104FE000FFF713FF0028E9D0402806D83038C0B2B8
:104FF0000F2806D960350323E2E72023984337388A
:10500000F5E700232401013E0443F6B2A4B26B7617
:105010009E42E4D1A0239B01E3181B4A9BB293421A
:1050200002D8A405A70DBEE790239B01E3189BB20D
:105030002000934206D880238005BC02800D2043C7
:105040005B02C0182900FFF769FFACE702331A784A
:10505000002ACFD09042F9D159780029CAD0002334
:105060006B762800FFF7E2FA9DE728002100FFF7A2
:10507000DDFA6B680120002BA4D1042260352A7070
:1050800018009FE77C530100FF030000026870B521
:10509000536804004360936852689B1AC3600023FE
:1050A0008360FFF7B2FE27280DD022280BD0200006
:1050B000FFF7ABFE0600FFF715FF051E09D103231E
:1050C0006034237003E02000FFF766FF050028002E
:1050D00070BD0023310063762000FFF7A7FA20009F
:1050E000FFF793FE0600FFF7FDFE011EF1D1200041
:1050F000FFF79CFA6368002BE9D104226034227028
:105100001D00E4E7F7B504000D001F1CFFF789FE42
:105110000190002801D1002658E02000FFF775FE1D
:10512000272800D17BE01DD8222800D177E020007D
:10513000FFF76BFE002600900098F7B2FFF7D2FE53
:10514000002800D187E00136402E00D182E06A4677
:10515000002312786376A319DA772000FFF755FE53
:105160000090E9E75B2813D07B28E0D17F222B7ADF
:10517000290093431A00202313432B72002300229B
:105180002B606B6020003B1C00F092F806001DE0D5
:105190007F222B7AFFB293431A00402313432B72D2
:1051A00000232B606B609F4203D160340533237072
:1051B000B1E763762000FFF734FE0028ABD05D2115
:1051C0002000FFF783FE061E02D0019E3000FEBDC8
:1051D000E1692800FFF718F9011E03D104236034A8
:1051E0002370F3E77B1E00222000FFF78BFF0028CF
:1051F00000D190E72000FFF714FE002800D18AE7D5
:105200005D212000FFF762FE0028DED12C21200066
:10521000FFF75CFE0028DBD160340323C7E7226878
:10522000200053686360936852689B1AE360002310
:10523000A360FFF7B1FE061E00D16CE72000FFF768
:10524000D6FC7F222B7A286093431A000523134350
:105250002B72BBE73F270021E3190133D977631C89
:10526000DB7F742B0DD17F222B7A93431A00062308
:1052700013432B7201232B70042FA6D0603402231A
:1052800095E7662B0AD17F222B7A297093431A0067
:10529000062313432B72052FF0D196E76E2BEBD02C
:1052A000200029002030FFF7D7F80028B4D08CE781
:1052B000F7B5DFB204000E00002F04D105236034DF
:1052C000237000250DE000234376FFF7AAFD009030
:1052D0000028F6D07D212000FFF7F8FD051E26D01E
:1052E000009D2800FEBD61683068FFF773F8002854
:1052F00031D001007B1E00222000FFF703FF0028B1
:10530000DFD02000FFF78DFD0028DAD07D212000BE
:10531000FFF7DCFD0028E3D12C212000FFF7D6FDAC
:10532000002814D02000FFF77CFD0028C9D0200001
:10533000FFF7ACFE0028C4D02000FFF772FD002864
:10534000BFD03A212000FFF7C1FD0028CBD10323B5
:1053500060342370C5E72000FFF749FCE169019044
:105360003000FFF751F8002802D160340423F0E741
:105370008022037A524213430372019BC360B8E751
:1053800010B50400006803685B68984763681818E4
:10539000606010BD70B5050008000C000DF0A6FFA0
:1053A000210002002800FFF7EBFF70BDF0B51624C6
:1053B00007000D000A2687B06C44280031000AF06F
:1053C000F3F9013C30312170280031000AF066F910
:1053D000051EF2D116236B441A1B21003800FFF77B
:1053E000CFFF07B0F0BD10B50400006803681B686C
:1053F000984763681818606010BD000070B50D0014
:10540000040022212000FFF7EEFF2978002909D0AF
:105410000A4B01351E78002EF4D05A788A4206D005
:105420000233F7E722212000FFF7DDFF70BD5C218A
:105430002000FFF7D8FF3100E4E7C0467E530100AB
:105440007F22F0B5037A8BB005000C001340062BC9
:1054500000D18FE106D8022B0DD3032B00D975E1C3
:1054600006CD49E10C2B24D007D8082B00D17FE1D1
:105470000A2B00D16FE1C44981E1202B00D146E124
:10548000402BF8D15B212000FFF7ADFF2D68002DE8
:1054900000D135E121002800FFF7D2FF2800FEF7F8
:1054A00091FF051E00D12BE12C212000FFF79BFF6F
:1054B000EDE70668311C301C0AF0B0FA0028DAD09B
:1054C0000021301C0AF0AAFA002809D1311C301C36
:1054D0000AF008FB011C301C0AF0A0FA0028CAD10F
:1054E0000021301C0AF0A0FA002806D02D2120004F
:1054F000FFF779FF80231B06F618A449301C0AF039
:10550000B1FA002844D00023142520270093A04B93
:10551000301C59590AF0A6FA002809D09D4B301CBE
:1055200059590AF051FE009B061CF81803B200936B
:10553000043D7F102B1DEAD103350021301C0AF0F9
:1055400087FA002828D0301C0CF07CFF924A934B3D
:105550000AF03AFA00281FD0AB0001932B061BD4A7
:105560008F4B019A311C98580AF072FA00280AD021
:10557000874B019A301C99580AF026FE009B061CA6
:10558000D81B03B20093019B7F10013D043BE4E76D
:10559000202705250090D0E7301C0AF06DFA06237D
:1055A0000700804D029003936B461B7B5BB2019317
:1055B000039B013BDBB20393029B092B0AD90A210F
:1055C00028000AF06BF80A21050002980AF066F834
:1055D0000290E9E738000BF057F9011C301C0AF083
:1055E00025FF061C28000BF04FF9011C301C0AF0A7
:1055F000EBFD02900AF040FA06000BF045F9011CA1
:1056000002980AF013FF011C0AF06CFA0AF034FA4F
:105610008619B5420BD80026009B0137B34206D04D
:10562000092F04D918000127013003B200930A257D
:10563000290030000AF0B8F800290CD1019B002B9A
:1056400009DD300029000AF029F8019B0600013B22
:105650005BB20193ECE739002000FFF7A7FE019B46
:10566000002B20D01D0008AF013D6DB2013F6B1C27
:105670000BD030000A210AF097F830313970300031
:105680000A210AF00BF80600EEE76B461B7910259D
:10569000D9432E224B1904A8C25408AB4A42200019
:1056A0005918FFF76DFE009B002B2DD065212000BF
:1056B000FFF799FE6B461D88009B002B05DA2D2114
:1056C0002000FFF790FE6D42ADB216260A2704AB0C
:1056D000F618280039000AF067F8013E30313170C1
:1056E0002800390009F0DAFF85B2002DF1D1162328
:1056F000310004AA9B189A1B2000FFF741FE03E02B
:105700005D212000FFF76FFE60680BB0F0BD7B21CC
:105710002000FFF768FE2D68002D15D0E9682000F5
:10572000FFF76CFE3A212000FFF75DFE2100280004
:10573000FFF786FE2800FEF745FE051E04D02C214B
:105740002000FFF750FEE7E77D21DAE7016820003F
:10575000FFF754FED8E70568002D04DA2D2120005C
:10576000FFF741FE6D4229002000FFF71FFECBE747
:105770000168F9E703780C49002B00D10B492000A0
:10578000FFF708FEC0E7C0468D5301008096184B16
:10579000184A0100004A0100F168E388B5F8E43EC8
:1057A000E849010040420F00925301009753010065
:1057B00010B51430FFF744FE10BD000030B5B5B091
:1057C00004ACA0220CA92000FEF714FE0023220046
:1057D000214909A82377FFF7D8FA01001F48FEF7EF
:1057E000B1FD22001E4909A8FFF7CFFA01001D48AC
:1057F000FEF7A8FD22001C4909A8FFF7C6FA0028F9
:1058000008D07F22037A93431A000C2313430372B8
:10581000164B03602200164909A8FFF7B6FA2200CA
:1058200001001448FFF7F2F92200134909A8FFF715
:10583000ACFA124B01001888FEF7A8FD0023104DAA
:1058400002A9200003930295FFF7B2FF280009F098
:10585000EBF835B030BDC04688540100AC4B0100B8
:10586000B24B0100B54B0100B94B0100CDCC6644F1
:105870005D4A0100050000208C670100CA09002074
:105880005C12002070B50026AAB002AC05000AA97F
:1058900080222000FEF7AEFD22000F4907A82677E0
:1058A000FFF773FA01000D48FEF74CFD22000C498A
:1058B00007A8FFF76AFA01002800FEF743FD094D2B
:1058C0006946200000950196FFF772FF280009F055
:1058D000ABF82AB070BDC046885401002B4B0100C4
:1058E0002F4B01005C12002070B59AB002AC06008C
:1058F00040220D0020000AA9FEF77CFD00232200B3
:10590000124907A82377FFF740FA01003000FEF79D
:1059100019FD22000E4907A8FFF737FA002807D023
:105920007F22037A056093431A000A23134303720C
:105930000023084D6946200001930095FFF738FFCA
:10594000280009F071F81AB070BDC04688540100F3
:105950008C6701005C12002070B5F64CA54416ACB3
:105960002000FFF78EF92200F3491BA8FFF70DFA7C
:105970000100F248FEF7E6FCF14D2200F1491BA8B8
:105980002E78FFF702FA002809D07F22037A93438A
:105990001A00062313430372731E9E4106702200F1
:1059A000E9491BA8FFF7F1F901002878FEF7D8FCB8
:1059B0002200E6491BA8FFF7E8F9E54B010018783B
:1059C000FEF7CEFC2200E3491BA8FFF7DEF9E24B0D
:1059D00001001878FEF7C4FC2B78002B00D1E6E01C
:1059E000DE4B072518680CF0C1FC0022DC4B0BF0E5
:1059F000A7FA00950B0002000AA809F0F9F90AA914
:105A00000DA8FFF74AF92200D6491BA8FFF7BDF9F8
:105A10000DA9089010A8099409F0B7F9099A0899F6
:105A200010A8FFF749F910A809F044F90DA809F0EA
:105A300041F90AA809F03EF9CB4B18680CF096FC26
:105A40000022C74B0BF07CFA00950B0002000AA85D
:105A500009F0CEF90AA90DA8FFF71FF92200C349E2
:105A60001BA8FFF792F90DA9089010A8099409F056
:105A70008CF90899099A10A8FFF71EF910A809F0E7
:105A800019F90DA809F016F90AA809F013F922006E
:105A9000B7491BA8FFF779F9B64B01000020185E43
:105AA000FEF769FCB44B18680AF0A4FEB3490AF08B
:105AB0008BFB0122011C0AA809F07CF90AA90DA898
:105AC000FFF7EBF82200AE491BA8FFF75EF90DA91E
:105AD000089010A8099409F058F90899099A10A893
:105AE000FFF7EAF810A809F0E5F80DA809F0E2F8C8
:105AF0000AA809F0DFF82200A2491BA8FFF745F920
:105B0000A14B01001888FEF741FCA04B18680AF071
:105B1000BBFE9F490AF080F90122011C0AA809F086
:105B200049F90AA90DA8FFF7B8F8220099491BA85E
:105B3000FFF72BF90DA9089010A8099409F025F991
:105B4000099A089910A8FFF7B7F810A809F0B2F859
:105B50000DA809F0AFF80AA809F0ACF88E4B188828
:105B60000AF048FE8D490AF02FFB0122011C0AA809
:105B700009F020F90AA90DA8FFF78FF8220088493B
:105B80001BA8FFF702F90DA9089010A8099409F0C5
:105B9000FCF80899099A10A8FFF78EF810A809F0E8
:105BA00089F80DA809F086F80AA809F083F87D4B5A
:105BB00016AC1B78002B21D07B4A7C4B12781B88BB
:105BC00004927B4A1821127810A80392794A12781D
:105BD0000292794A12780192784A12780092784AB1
:105BE0000DF028FB220077491BA8FFF7CEF8220012
:105BF0000100089010A80994FFF708F8724B187874
:105C00000AF0F8FD71490AF007F90222011C0AA8FE
:105C100009F0D0F80AA90DA8FFF73FF822006C4957
:105C20001BA8FFF7B2F80DA9069010A8079409F079
:105C3000ACF80699079A10A8FFF73EF810A809F0EB
:105C400039F80DA809F036F80AA809F033F809F078
:105C500045F9220006005F491BA8FFF796F8051ECC
:105C60000CD07F22037AFA2193431A0008231343AE
:105C700003728900300009F011FD2860564802F0D7
:105C8000F7F80122011C0AA809F094F80AA90DA846
:105C9000FFF703F8220051491BA8FFF776F80DA97A
:105CA000069010A8079409F070F80699079A10A8B2
:105CB000FFF702F810A808F0FDFF0DA808F0FAFFA2
:105CC0000AA808F0F7FF220045491BA8FFF75DF876
:105CD000002809D07F22434B1B680360037A93435B
:105CE0001A0008231343037222003F491BA8FFF741
:105CF0004CF8002809D07F223C4B1B680360037AD4
:105D000093431A00082313430372394B196800297F
:105D100076D06420374B1B68CB1A584309F0BEFC81
:105D20003549C5B222001BA8FFF72FF80100280053
:105D300064E0C04688FDFFFF88540100334B01003A
:105D4000D8090020374B01003B4B0100404B0100BC
:105D5000DA090020444B010017060020CC0900207E
:105D6000D01263414C4B0100D0090020504B010080
:105D7000544B0100E8050020DC090020FAED6B3BE4
:105D8000584B01005E4B010014060020C40900209E
:105D900000007A44654B0100D60900200AD7233C55
:105DA0006A4B0100E0090020D9090020E209002027
:105DB000D4090020C809002016060020D5090020BB
:105DC0006F4B01008E4B0100EA0500200000A0414E
:105DD000924B0100974B01008C0400209A4B01006C
:105DE000A04B01001C0B0020A34B0100180B00204E
:105DF0004802002044020020A64B0100FEF7B0FA42
:105E00000023074D10A9200011931095FFF7D0FC37
:105E1000280008F009FE9E239B009D4470BDC046EB
:105E20005C1200201FB5282009F0E0F802230400CE
:105E3000009303220733082101F03AFA21000D48AC
:105E400001F0CEFA0C4B0D4C02930D4B4022019306
:105E500001235B42009380210A4B200003F004FCE5
:105E6000094A0A49200009F0D9FB094804F09CFCC2
:105E70001FBDC0468C040020A086010070020020D7
:105E8000801A06004C0B002000000020CD96000078
:105E9000180600200023F7B50F000524154E0190C9
:105EA0003370154D280002F043F80F300AD0C82196
:105EB00032204900013C08F0F2FCE4B209F044F859
:105EC000002CEED100233A000199280002F0DEFBFD
:105ED00000220A4B04000A4928001A7002F0CCF88C
:105EE00001233370002C03D1064A13680133136079
:105EF0002000FEBD040000208C040020140B0020B4
:105F0000FFFFFF001C0B002030B50500BDB00C00EA
:105F10001E20782108F0C3FC09F016F80D4905ABE6
:105F20000A881D70013292B20A8000219C702D12E5
:105F300024125D70DC70029101910431009106A879
:105F40000239FEF7F3FD010006A8FFF7A3FF3DB0FD
:105F500030BDC046200B0020F0B5AC4C0700A54476
:105F6000A0AC2000FEF78DFE002F00D1A84F002529
:105F7000A09B42AE6360E3681022A36004A925746D
:105F8000257708A804940CF0B8FB102208A930006B
:105F90000CF0B3FB35744797B4276B467F00DB19D1
:105FA0007576F46100221D70A5A90A233000FFF761
:105FB000A9F86B46DB191B78AB4207D1337EAB42A5
:105FC00000D118E1237F1B0700D414E19148FFF7AB
:105FD00059FC07E0904928000DF07EF9002804D113
:105FE000FFF7ECFB8D4B9D44F0BD8D4928000DF073
:105FF00073F9041E17D18B49A5A8FEF7FBFEFEF727
:106000001FFA011E02D00378002B01D18648DEE77B
:10601000864D102228000DF081F92C74FFF7CEFB7D
:10602000FEF7BEFCDEE7824928000DF055F9071E99
:1060300010D17C49A5A8FEF7DDFEFEF701FA011E8E
:106040007C48C4D07C4C2822200028340DF066F90E
:106050002770C7E7794928000DF03EF9041E3DD1AD
:10606000754F38000DF042F9051E32D00100602353
:106070000CAA3800FEF79AF800282DDD85422BDDAA
:1060800005000CAB01346E4930000A88013292B22F
:106090000A800121029401910095FEF747FD01005D
:1060A0003000FFF7F7FE002802D06648FFF7EAFB52
:1060B0000122654B1A7008F011FFFA210400490112
:1060C000002008F0ECFB614BE418614B20181860CD
:1060D000A6E73B000400D6E73B00D4E75D49280073
:1060E0000DF0FAF8002800D083E05B49A5A8FEF780
:1060F00081FEFEF7A5F9594C05002100A5A8FEF781
:1061000079FE002806D07F22037A1340082B0AD09C
:106110000A2B0BD001246442002D02D02B78002BD7
:106120000FD14F4853E70368002BF3DB2100A5A8EC
:10613000FEF760FE002801D10400EDE7FEF78DFEBA
:10614000FAE728000DF0D2F807004648B42F00D92E
:106150003DE7454B1B78002B02D00023424A1370C9
:10616000BC2332005B0039002800FEF71FF800282E
:106170003ADD874238DD012335003C4A304E116854
:10618000CF193B4917600A6812180A60328800214B
:10619000013292B2328002930123009001930CA845
:1061A0002B00FEF7C3FC010005000CA8FFF772FEF0
:1061B000071E1CD121002F48FFF796FB01232A4A16
:1061C0000CA9137032882C4B2C481A802C4B2A00B7
:1061D0001C600CF092FA2B4B1D6008F07FFE2A4BDE
:1061E00018602A4B1F701BE738000023C5E71548CD
:1061F000EDE62748EBE62749A5A8FEF7FBFDFEF7ED
:106200001FF9051E00D0E5E62348E0E65CFBFFFF32
:10621000DB5701003D4A0100504A0100A404000080
:106220005D4A01009C550100554A0100050000200F
:106230006A4A0100624A0100EB050020714A010030
:10624000200B0020764A0100DE02002060EA0000F8
:10625000280A0020A04B01008C4A01008C67010035
:10626000864A0100914A01002C0A002048020020C1
:10627000440200209F4A01000C0B00202D0A002040
:1062800018000020080B0020100B00200E0B00202F
:10629000A44A010088540100464A010070B50F4C21
:1062A0002378002B15D008F019FE0D4D2B68C01A6D
:1062B0000C4B98420DD90C4B1A78002A0AD10132A6
:1062C0001A7008F00BFE094B286019680848FFF7A0
:1062D000E1FD70BD00232370FBE7C0462C0A0020BF
:1062E000100B0020C30900000E0B0020080B00203B
:1062F0002D0A0020F0B50025314BC5B01B68AB421C
:1063000005DD09202F49584309F052FA0500FA210A
:106310002D4B8900186809F0C1F908ACFF2D00DD8C
:10632000FF252A4B25701B885B086370FF2800D966
:10633000FF20274BA0701B78E37008F0CFFD0021F1
:10634000244B0A001B7807900693052322488446B5
:1063500008A80590069EC8B286421AD9052A18D800
:106360006046CE0087197D680798401B1B4DA842E8
:106370000DD86046059D305A0132E854ED180012E0
:106380006870B878059D9E1CA8550333D2B20131C0
:10639000E0E7134922710A880EA8013292B20A80FE
:1063A0000021029101310191009302312300FEF797
:1063B000BDFB01000EA8FFF76DFD45B0F0BDC04666
:1063C000DC090020C4090000C409002014060020D4
:1063D00017060020E4090020E8090020E0930400EB
:1063E000200B00200023F0B5604D614C614F624AE4
:1063F000A544012128003B70137001F02BFD802380
:10640000060003905B00984200D903935CAC039AAA
:106410002100280001F052FD0290280002F070FBDC
:106420000690280002F082FB54490790280001F0F2
:1064300023FE01233B70029B002B00D090E0072E2F
:1064400000D88DE02378C42B00D089E06378012B3D
:1064500000D085E02779E3783F021F43484B1B8833
:1064600009939F427CD0E579102D79D82E00039BAB
:1064700008369E4274D8A37804936B461B7C5BB2AB
:106480000593002B04DA2B00039A1433934267D848
:106490004E220AABFF329B181B7801320A930AABDB
:1064A0009B181B7829AC2A005EA920000B930CF0E6
:1064B00024F95CAA961908220023059952426355D3
:1064C000551B1432994200DB1A000E2403990E93D7
:1064D0006D18AA1A02920AAAA4180F932380059B8A
:1064E000002B40DAAD23DB009B189C460D00254BAA
:1064F0006544ED18042229000EA80CF0FEF8291DB1
:1065000004220FA80CF0F9F829000222083120001B
:106510000CF0F3F8AB7A0393EB7A3F240893049BD7
:106520001C40022C3AD1029B032B19D916490B7837
:10653000002B15D07278337812021343099A9A42CD
:106540000ED11248F278B3780088120213439842B1
:1065500006D100230B700E4B0E481968FFF7C4F9E3
:106560000D4B9D44F0BD00230393D6E78C0400201F
:106570006CFAFFFF04000020140B0020FFFFFF0057
:10658000CA090020D4FBFFFF2C0A00200C0B0020BE
:1065900018000020024B0100940500004023049ADB
:1065A00038001A400B9B09921D020A9B1D432900CB
:1065B000FEF7A0FA069904903800FEF749F8002C7F
:1065C00000D083E129003800FFF79EFC049B002BDC
:1065D000C6D1099B2EAC002B00D140E1B423220090
:1065E00002993000FDF796FDB428B9D86B461B7CA4
:1065F00023549CA8FEF745FB9CAA9F49A1A8FEF73F
:10660000C4FB01009D48FDF79DFE9CAA9C49A1A8E2
:10661000FEF7BBFB9CAA010029A8FEF7F7FA9CAA8B
:106620009849A1A8FEF7B1FB01003800FDF7AEFEC6
:106630009CAA9549A1A8FEF7A8FB9CAA01002EA838
:10664000FEF7E4FA0122069920A808F0B3FB20A97E
:1066500023A8FEF722FB9CAA8C49A1A8FEF795FB74
:106660009CAB1E9023A926A81F9308F08EFB1E99B1
:106670001F9A26A8FEF720FB26A808F01BFB23A8DC
:1066800008F018FB20A808F015FB0122079920A8A4
:1066900008F090FB20A923A8FEF7FFFA9CAA7C49EA
:1066A000A1A8FEF772FB9CAB1E9023A926A81F93FE
:1066B00008F06BFB1E991F9A26A8FEF7FDFA26A884
:1066C00008F0F8FA23A808F0F5FA20A808F0F2FA82
:1066D000059B002B00DB9CE06E4A9CA910A8FEF7EE
:1066E0006AFB109D119C6C4922002800FEF77CFB80
:1066F00001000398FDF734FE039B002B61D00E9838
:106700000BF034FE0022654B0AF01AFC07260B0042
:106710000200009620A808F06BFB20A923A8FEF732
:10672000BCFA22005E492800FEF75EFB23A91E90FA
:1067300026A81F9408F029FB1F9A1E9926A8FEF789
:10674000BBFA26A808F0B6FA23A808F0B3FA20A8E6
:1067500008F0B0FA0F980BF009FE00224F4B0AF038
:10676000EFFB00960B00020020A808F041FB20A9D7
:1067700023A8FEF792FA22004A492800FEF734FBCC
:1067800023A91E9026A81F9408F0FFFA1E991F9AAD
:1067900026A8FEF791FA26A808F08CFA23A808F09C
:1067A00089FA20A808F086FA22003F492800FEF75F
:1067B0001BFB0E230AAA9B1801000020185EFDF7A0
:1067C000DAFD08980AF016F8384909F025FB02228C
:1067D000011C20A808F0EEFA20A923A8FEF75DFA14
:1067E000220033492800FEF7FFFA23A91E9026A8AD
:1067F0001F9408F0CAFA1E991F9A26A8FEF75CFAA1
:1068000026A808F057FA23A808F054FA20A808F0A0
:1068100051FA0024274D26A99CA826952794FEF717
:10682000C7FF280008F000F9234A244D136829A95E
:1068300001331360280010220CF070FD2C74204DE1
:1068400015222EA928000CF069FD6C75069A1D4BC7
:106850001A601D4B079A1A60FEF7A2F880E6029DA7
:10686000B42D00D9B4252A00310020000BF045FFDB
:1068700000222EAB5A55BCE688540100A34B010000
:10688000064B01008C6701008C4A01000B4B010094
:10689000104B0100144B01003B4B0100D01263412F
:1068A0004C4B0100504B0100544B01000000A04133
:1068B000924B01005C120020180B0020DF02002028
:1068C00004030020FC02002000030020012C00D063
:1068D0007EE1049B002B00D042E6A0229CAD52003A
:1068E000A4A92800FDF786FD6B461B7C2A002B77A8
:1068F000A449A1A8FEF749FA0100A348FDF722FD2B
:106900002A00A249A1A8FEF740FA2A00010029A8FE
:10691000FEF77CF92A009E49A1A8FEF736FA01008D
:106920003800FDF733FD2200069923A808F042FA4B
:1069300023A926A8FEF7B1F92A009649A1A8FEF7D7
:1069400024FA2EAF209026A93800219508F01DFAD0
:106950002099219A3800FEF7AFF9380008F0AAF91B
:1069600026A808F0A7F923A808F0A4F9220007999F
:1069700023A808F01FFA23A926A8FEF78EF92A00FB
:106980008549A1A8FEF701FA26A920903800219593
:1069900008F0FBF92099219A3800FEF78DF93800AC
:1069A00008F088F926A808F085F923A808F082F9EC
:1069B000029B002B19D0099B002B00D1CEE028238D
:1069C0003A0002993000FDF7A5FB431E272B0CD897
:1069D0006B461B7C2A003B547049A1A8FEF7D5F9F1
:1069E0002A0001003800FEF711F9059B002B00DB9F
:1069F0009CE06B4A9CA912A8FEF7DDF9129D139C3E
:106A0000684922002800FEF7EFF901000398FDF71E
:106A1000A7FC039B002B61D00E980BF0A7FC002273
:106A2000614B0AF08DFA07260B000200009620A8A1
:106A300008F0DEF920A923A8FEF72FF922005B4910
:106A40002800FEF7D1F923A9189026A8199408F078
:106A50009CF9199A189926A8FEF72EF926A808F08D
:106A600029F923A808F026F920A808F023F90F989F
:106A70000BF07CFC00224C4B0AF062FA00960B00F3
:106A8000020020A808F0B4F920A923A8FEF705F910
:106A9000220047492800FEF7A7F923A9189026A845
:106AA000199408F072F91899199A26A8FEF704F9B2
:106AB00026A808F0FFF823A808F0FCF820A808F0A2
:106AC000F9F822003B492800FEF78EF90E230AAAA6
:106AD0009B1801000020185EFDF74DFC089809F096
:106AE00089FE354909F098F90222011C20A808F016
:106AF00061F920A923A8FEF7D0F822002F49280029
:106B0000FEF772F923A9189026A8199408F03DF908
:106B10001899199A26A8FEF7CFF826A808F0CAF8FF
:106B200023A808F0C7F820A808F0C4F80025244CD2
:106B300026A99CA826942795FEF73AFE200007F088
:106B400073FF204C29A9102220000CF0E7FB15222E
:106B50001D491E4825740CF0E1FB77E6029D282DA7
:106B600000D928252A00310038000BF0C6FD00228C
:106B70002EAB5A5509499CAAA1A8FEF706F99CAA72
:106B800001002FE788540100714A0100064B010003
:106B90008C6701000B4B0100104B01006A4A010099
:106BA000144B01003B4B0100D01263414C4B0100E0
:106BB000504B0100544B01000000A041924B0100DA
:106BC0005C120020DF020020184B010004030020AB
:106BD000032C00D0C4E4049B002B00D0C0E4059B30
:106BE000002B00DBBCE4C0229CAC9200A4A92000D6
:106BF000FDF700FC6B461B7C22002377CB49A1A844
:106C0000FEF7C3F80100CA48FDF79CFB2200C94902
:106C1000A1A8FEF7BAF822000100209029A821942B
:106C2000FDF7F4FF2200C449A1A8FEF7AEF8010069
:106C30003800FDF7ABFB0122069923A808F0BAF84B
:106C400023A926A8FEF729F82200BC49A1A8FEF72F
:106C50009CF826A91E902EA81F9408F096F81E995D
:106C60001F9A2EA8FEF728F82EA808F023F826A8C9
:106C700008F020F823A808F01DF80122079923A89E
:106C800008F098F823A926A8FEF707F82200AC49D7
:106C9000A1A8FEF77AF826A91E902EA81F9408F046
:106CA00074F81E991F9A2EA8FEF706F82EA808F071
:106CB00001F826A807F0FEFF23A807F0FBFF21003C
:106CC000A04A14A8FEF777F8149D159C9E4922004F
:106CD0002800FEF789F801000398FDF741FB039BAC
:106CE000002B61D00E980BF041FB0022974B0AF06D
:106CF00027F907270B000200009723A808F078F86F
:106D000023A926A8FDF7C9FF220091492800FEF714
:106D10006BF826A91E902EA81F9408F036F81F9A2B
:106D20001E992EA8FDF7C8FF2EA807F0C3FF26A8BE
:106D300007F0C0FF23A807F0BDFF0F980BF016FB6C
:106D40000022824B0AF0FCF800970B00020023A8F7
:106D500008F04EF823A926A8FDF79FFF22007D49E1
:106D60002800FEF741F826A91E902EA81F9408F0CF
:106D70000CF81E991F9A2EA8FDF79EFF2EA807F06B
:106D800099FF26A807F096FF23A807F093FF22009B
:106D900071492800FEF728F80E230AAA9B18010063
:106DA0000020185EFDF7E7FA089809F023FD6B490B
:106DB00009F032F80222011C23A807F0FBFF23A9E7
:106DC00026A8FDF76AFF220065492800FEF70CF8A7
:106DD00026A91E902EA81F9407F0D7FF1E991F9A70
:106DE0002EA8FDF769FF2EA807F064FF26A807F07C
:106DF00061FF23A807F05EFF029B032B00D887E00A
:106E0000584A9CA926A8FDF7D6FF269C279D5649DF
:106E10002A002000FDF7E8FF01003078FDF7A0FA16
:106E200077782A00514920007F00FDF7DDFF002818
:106E300007D07F22037A076093431A000A23134383
:106E400003722A004A492000FDF7CEFF0100B07806
:106E5000FDF786FA2A0047492000FDF7C5FF01002B
:106E6000F078FDF77DFA029B042B51D03579002D87
:106E70004ED003236B43029A0533934248D89CAA11
:106E80003D49A1A8FDF781FF041E09D07F22037AA6
:106E900093431A00402313430372002303604360AB
:106EA00003235D43053673190293029B9E422FD044
:106EB000251E0ED09CA92000FDF7A6FA051E08D0BD
:106EC0007F22037A93435F3A1343037200230360E4
:106ED0004360777833789CAA17493F0228001F4304
:106EE000FDF782FF010038000227FDF74FFA9CAA48
:106EF00012492800F757FDF777FF002806D07F23B7
:106F0000027A07609A43753B134303720336CCE75A
:106F100000231A4C2EA99CA82E942F93FEF748FC10
:106F2000200007F081FDFFF71BFBC04688540100DD
:106F3000214B0100064B01008C6701000B4B010047
:106F4000104B0100144B01003B4B0100D012634178
:106F50004C4B0100504B0100544B01000000A0417C
:106F6000924B01008D4A0100584B01005E4B01001D
:106F7000654B0100444B0100284B01005C120020CE
:106F8000F8B5B32501246D00174E300006F0CEF899
:106F9000002828D0300006F005F9C0B2134E0A28A8
:106FA00001D00D2814D1124F32683B78002A09D045
:106FB000002B09D10F488354FEF7CEFF0023336026
:106FC0003B70E1E7002BF9D00B48FEF75BFCF5E7DF
:106FD0003368AB4204D85A1C3260064AD054D3E717
:106FE000034B1C70D0E7F8BD5C1200208404002025
:106FF000880400201A030020B04A01001E4B70B51F
:107000001B78002B01D0FFF7EDF9FFF7B9FFFFF771
:1070100045F907F063FF194A194913680400C31AB8
:107020008B4202D91060FDF791FB164A164913688E
:10703000E31A8B4204D91460FEF78EFCFDF7B0FC16
:10704000124B1B78002B15D0114B1B78002B11D045
:10705000104B187800280DD10F4D2B68A34209D88A
:10706000FA21490107F01BFC0C4BE418201828609A
:10707000FFF740F970BDC046140B0020F00200205D
:10708000CF070000F402002087130000DE0200207A
:10709000D80900202C0A0020280A002060EA0000FD
:1070A000E12170B5490286B06A4805F03DFF18201D
:1070B00008F008F905001A2008F004F9040007F0A8
:1070C00013FFA4026840604007F0D8FB624901202A
:1070D00007F0E5FB0125614B012118800C2008F029
:1070E0005FF900210C2008F0A7F9642007F02CFFBD
:1070F0005B4E300002F074F85A49300002F090F80C
:10710000594C00952B003C220221200002F0D6FBB6
:10711000002813D0554B20001D7002F0BDFB290044
:10712000200003F036FB00232361514B514963617A
:10713000200007F081FC200002F082FE4E4C42222B
:107140003100200005F0A6F8002816D001254B4B91
:107150004B4A002120001D7005F001F9484A00212A
:10716000200005F003F9FA222900200005F0F0F8CC
:10717000434A0221200005F001F900230593414B09
:10718000082504930A2312263F4C0293033B0093E5
:107190000395019602333D4A3D49200000F0B6F9BF
:1071A000002808D0FA24E4003A48FEF76BFB2000E0
:1071B00007F0CAFEF8E701223749200000F01AF96B
:1071C0000028EFD13149200000F06AFF0028E9D102
:1071D0002900200000F0E6FF0028E3D1052120006F
:1071E00001F000F80028DDD144223100200001F038
:1071F0001AF80028D6D12949200000F027FB0028E2
:10720000D0D11021200000F04FF90028CAD1290068
:10721000200001F025F80028C4D10121204B009165
:10722000204A200001F0DAF80028BBD120001E49D6
:1072300000F004FA1D49200000F01EFFFDF786FA59
:10724000FEF7BCFAFEF788FBFDF7AAFBFFF752F842
:1072500006B070BD5C120020FFFF0000CA090020CC
:107260004C0B0020801A060070020020DC02002077
:10727000010001009D53010018060020DD020020DE
:107280004C040000CDCCCC3F8C0400200000FA421E
:107290000000D943B2530100CDCC664400000C433A
:1072A000211000000F1D0000FD400000FFFFFF0047
:1072B000F7B51D0008AB1B7804000F001600002175
:1072C0000322083001930BF034FA802222736A46BD
:1072D000104912796161012100236274FF22601854
:1072E000E372A773E6732574A27423766176C3777D
:1072F000A01CC277E01CC27723609623064A9B013C
:1073000062626360054A064B2000E261617323817B
:10731000FEBDC04680841E00983A0000240B002069
:107320000D0A000010B5FF2801D008F039F810BD93
:1073300010B5FF2801D008F07FF810BD10B504008B
:10734000002902D0012910D010BD807B0121FFF758
:10735000E9FFA07B0121FFF7EBFF637B002BF3D05C
:10736000E0690368DB6A9847EEE7437B002BEBD0CC
:10737000006861680368DB699847E5E710B500239A
:10738000FF2802D008F084F80300180010BD10B5E3
:1073900007F0BEF910BD10B507F003FE10BD10B523
:1073A00007F0D2FD10BD10B507F0F0FD10BD10B50F
:1073B00007F094FD10BD10B507F096FD10BD70B537
:1073C000431CDB7F04001500002B08D0831CD87FF2
:1073D0000334FFF7ADFFE07F2900FFF7A9FF70BD81
:1073E00010B5040000F0CEF8014B2000236010BD62
:1073F000A85A010073B50C1C06002049201C15007A
:1074000008F030FB002835D01D49201C08F016FB81
:1074100000282FD0002D0ED01A49201C08F018FB90
:1074200001AD00280CD0184B2B802900300000F053
:1074300092FB002803D1211C300000F057FB76BDE1
:107440001249201C08F004FB002801D0104BEBE788
:107450001049201C08F0FCFA002801D00E4BE3E78D
:107460000E49201C08F0F4FA002801D00C4BDBE791
:107470000C4BD9E70C204042E1E7C0460000164320
:107480000000704400006144E1E9FFFF00805444C3
:10749000D7DBFFFF00804044C1C5FFFF0000E6438B
:1074A0007581FFFF6B6F0000F0B5CDB22B0011337B
:1074B000DBB285B00400272B23D80F2600236E44AF
:1074C000337032000133104900F082F9002816D1E0
:1074D00001270200009707230421200000F0BDFAD5
:1074E00000280CD104222900200000F03DFB0028D8
:1074F00005D13B0032000449200000F095F905B0A9
:10750000F0BD0D204042FAE7E7080000F0B50400A6
:1075100087B00E1C111C1A000CAB1B780DA805932C
:1075200011AB1B780EAD0FAF00782D783F88039319
:10753000109B009002930197059B20006DB201F013
:1075400017FC00280FD10122311C2000FFF752FF49
:10755000002808D129002000FFF7A6FF002802D14B
:10756000200000F09FF907B0F0BD70477047FC3075
:1075700010B5806A00220121FFF721FF012040425F
:1075800010BD000070B504000D00FF22104901F08D
:107590007FFC104B9A210833236023000022012036
:1075A000FC334900DA621A635A6360541031DA63BB
:1075B0001A645A64625202316254023162520021EA
:1075C0009D622000196559659A65DA6570BDC046EF
:1075D0000024743FE05A010070B50400FC34A36A33
:1075E0000E0005000121187CFFF79CFEA36A002114
:1075F000187CFFF79DFE0120FFF7D1FEA36A012151
:10760000187CFFF795FE002E12D0FFF7D0FE060083
:107610002B6828005B689847041E09D0FFF7C7FE57
:10762000054B801B984204D80A20FFF7B8FEEFE70D
:107630000024200070BDC046B70B000010B5FC3020
:10764000836A0422D87BFFF7A2FE10BDF0B589B093
:107650001F0010AB1B781600029311AB1B78019032
:1076600005930300FC339A6A0491130006A91433AE
:10767000D46921CB21C10021907BFFF759FEFFF790
:1076800096FE0390019DFC35AB6A587CFFF776FEB1
:1076900000280FD0FFF77FFEFFF789FE039BC01A7B
:1076A000129B9842EED3AB6A0121987BFFF740FE14
:1076B000444882E023680699DB69079A20009847CE
:1076C000049DAE192368B54205D029789B68200037
:1076D00098470135F6E7002F41D00E270E9D029BFB
:1076E000EE182368AE4257D09B682978200098474F
:1076F00003003B40062B23D10625236820001B6A8C
:107700009847019C0121FC34A36A987BFFF710FE87
:10771000059B002B42D00120FFF745FEFFF747FEF7
:107720000600A36A587CFFF729FE002836D0FFF731
:1077300032FEFFF73CFE129B801B9842F1D3B7E765
:10774000082B01D10825D8E70A2B01D10A25D4E757
:107750000138C0B20135FD28C3D9FF25CDE79B68AC
:107760003900200098470E230340062BC4D0082B75
:10777000E8D00A2BEAD00138C0B2FD28EDD80F9D21
:10778000029BEE182368B54206D09B6800212000BA
:10779000984728700135F5E70025AEE7082D0ED093
:1077A00003D8062D84D0002007E00A2D04D0FF2D39
:1077B000F9D10220404200E0034809B0F0BD03487F
:1077C000FBE7C0463FFDFFFF3DFDFFFF3EFDFFFF26
:1077D00030B51D2589B007AC2570A1700D0A074989
:1077E000657004910293012100230391019200939B
:1077F00003222100FFF72AFF09B030BD88130000E3
:1078000070B586B00AAC24780BAD2D7802940024B4
:10781000044E00930496039501940123FFF716FF8D
:1078200006B070BD8813000030B50D2585B003ACDF
:107830002570A1700D0A012165700191009321004E
:1078400013000322FFF7DCFF05B030BD73B50C1C3D
:1078500006000021201C08F005F9002818D00E4968
:10786000201C08F0EBF8002812D06B46201CDD1D10
:107870000AF0E8FD0022094B09F062FB08F014F958
:10788000012328702A0006493000FFF7CDFF76BD9E
:1078900011204042FBE7C04600000C4300000440BA
:1078A000E708000037B56B46DC1D0023220023707B
:1078B000084901330500FFF78BFF002809D11E237B
:1078C0002278044913432370220001232800FFF784
:1078D000ABFF3EBDD808000073B56B46DC1D00232E
:1078E0000E002370220001330A490500FFF770FFE4
:1078F00000280BD122780423002E08D19A4322704D
:107900000123220003492800FFF78EFF76BD1343B1
:107910002370F5E73607000030B585B003AC63701F
:107920000E2501232570019300920B0002222100F5
:10793000FFF766FF05B030BD30B589B00D000CA96A
:107940000C781F2169440D7002930023054D0193AB
:1079500001330092049503941A00FFF777FE09B0F3
:1079600030BDC046881300000300002230B5FC3350
:1079700085B004000D00986A1100FFF720FD012377
:1079800003AA1570802100932000FFF7D5FF05B0F2
:1079900030BD10B50021FFF7E7FF10BD1FB50F2266
:1079A0006A44002907D1117001239D210093FFF73C
:1079B000C3FF05B000BD01231370F5E71FB50B0C25
:1079C00003AA13700B0A5370012391700093832153
:1079D0000233FFF7B1FF05B000BD1FB50B0C03AAC2
:1079E00013700B0A537001239170009382210233AC
:1079F000FFF7A2FF05B000BDF7B500241049050050
:107A0000FFF7EBFF0A20FFF7CAFC26006B46DF1DDD
:107A100000233A003B700B4901332800FFF7D8FEE2
:107A200001223B781340A340A4181E43F6B2082C51
:107A3000ECD12B6828005B6898473000FEBDC0463B
:107A4000FFFFFF0019080000012307B50093002382
:107A5000C5211A00FFF770FF0EBD30B585B008AC28
:107A6000257803AC637001232170A270E5702200B9
:107A7000009395210333FFF75FFF05B030BD7FB55D
:107A800008AC258802AC6170E27063710E0A110ABD
:107A90001A0A2B0AA3710123A17022712670E571C5
:107AA0000093073322001900FFF746FF04B070BDB2
:107AB0001FB50B0A03AA1370012351700093DB1842
:107AC0001900FFF739FF05B000BD1FB50B0E03AA63
:107AD00013700B0C53700B0A93700123D170009339
:107AE00086210333FFF728FF05B000BD10B5040061
:107AF000081C9821C90508F067FB0AF0A3FC0022C6
:107B0000044B09F027FE07F0CFFF01002000FFF72C
:107B1000DCFF10BD0000A03F030030B5FC330D00BA
:107B200085B0040001220021986AFFF748FC002D6F
:107B30000AD1002303AA137001330093D12120003E
:107B4000FFF7FAFE05B030BD29002000FFF7BDFFAA
:107B50000028EED0F6E7012307B50A00009398212C
:107B6000DB18FFF7E9FE0EBD1FB5012303AC217042
:107B700062708E2100932200DB18FFF7DDFE04B057
:107B800010BDF0B587B002929A222C2503935200C3
:107B9000825C0CAB04000F001B78FF35002A28D054
:107BA0002A230126FF33C35C3000984008F06CFEA6
:107BB0002300FC33596B08F02FF98321C90507F026
:107BC00051FF002813D066556B461B7A05AA5370E7
:107BD0006B461B7B17709370635D8B21D370012301
:107BE000200000930333FFF7A7FE07B0F0BD6055F8
:107BF000EAE74355E8E77FB5089D02AC23712B0CFB
:107C000063712B0AA37101230E0C26700E0AA1705A
:107C1000E2706670E571220000938B210733FFF755
:107C20008BFE04B070BDF0B587B003930CAB1F782A
:107C30000DAB1D780E00290004000292FFF74CFEE8
:107C4000002812D104AA330A13706B461B7B5670AE
:107C5000D3706B461B7A97701371012355718C2179
:107C6000009320000533FFF767FE07B0F0BDF0B5C5
:107C70008BB010AC267811AC24780393049412AC2A
:107C8000257813AC24780B0A059414AC277807AC3C
:107C900023706B461B7B6170E3706B461B7DE2714A
:107CA000A3716B461B7CA77023720123267165713B
:107CB000220000938C210833FFF73EFE0BB0F0BD8D
:107CC0001FB5012303AC217062708F210093220045
:107CD000DB18FFF731FE04B010BD1FB5012303AA66
:107CE000117000939621FFF727FE05B000BD10B577
:107CF0000021FFF7F2FF10BD10B50121FFF7EDFFE6
:107D000010BD1FB5002303AA138001330093072180
:107D10000133FFF711FE05B000BD00000022F0B5F1
:107D20000F0087B011000600FFF7CAFF041E54D1F0
:107D300004AD2F7001272A0000973B008A213000F4
:107D4000FFF7FAFD041E48D120232A002B7093214F
:107D500000973B003000FFF7EFFD041E3DD10323E9
:107D60002B702A23FF33F35CA8800D336B700A233A
:107D7000A8716B802A000097033B88213000FFF731
:107D8000DBFD041E29D116493000FFF791FE2300C8
:107D900003900094220021003000FFF770FE039B47
:107DA00003431CB2002C18D17F232A002B70892199
:107DB00000973B003000FFF7BFFD041E0DD10520EA
:107DC000FFF7EDFA3300FC339B6A587CFFF7D6FAD5
:107DD000002802D0FFF7DFFAF4E7200007B0F0BD7B
:107DE000FF03000070B586B00AAC0BAD24782D7887
:107DF00001930023044E0395049602940093FFF729
:107E000025FC06B070BDC046881300001FB51E24B7
:107E10000B0003A90C801D3C009201940222FFF785
:107E2000E1FF04B010BD000030B589B00D000CA911
:107E30000C781F2169440D7002930023044D0192B8
:107E40000495039400930122FFF700FC09B030BDB4
:107E5000881300001FB5002303AC23800133009377
:107E6000220001331321FFF7DFFF207804B010BD9B
:107E70001FB5002303AC2380A370013322000093BD
:107E800015210233FFF7D0FF207808F0FDFCBF2159
:107E9000090608F099F904B010BD1FB5002303AC22
:107EA000238001330093220001331221FFF7BCFF2E
:107EB000237860781B02184304B010BDF7B503683F
:107EC00001915B68050016009847041E1ED128002A
:107ED000FFF7E3FF60232700184200D0073FFF2E83
:107EE00005D12B6801219B6A280098470600F2B251
:107EF00001992800FFF78AFF041E07D104492800D2
:107F0000FFF7D6FD0400002F00D03C002000FEBD8E
:107F1000FF0300001FB50F24FF236C442370FE3BBA
:107F2000009322001121FFF77FFF207804B010BDDD
:107F3000F7B50500FFF7EEFF0700012840D12B68D9
:107F400028005B689847041E2ED12E00FC360200E4
:107F50003900B06AFFF733FAC022520000942300C0
:107F600011002800FFF78BFD041E1DD115492800C4
:107F7000FFF79EFD041E17D12800FFF765FD041EC4
:107F800012D1B36AD87BFFF7F9F9002802D1FFF7C5
:107F900002FAF6E72800FFF780FFC30506D5094976
:107FA0002800FFF785FD084C2000FEBD01240306D4
:107FB00004D504492800FFF77BFD0F246442F3E752
:107FC0001424FBE7FF03000042FDFFFF002330B550
:107FD00087B00093022226490400FFF750FD051EDA
:107FE00022D1020001002000FFF76AFE051E1BD10E
:107FF00020492000FFF75CFD2000FFF78BFF0128E0
:1080000015D123002E2096222100FC33FF30DB6D9A
:10801000205C5200FE31098EDBB20090A25C01951B
:108020002000FFF700FE0500280007B030BD002843
:108030001BD105300490FA3003904730205C442374
:1080400002904620FF30205CA1220190A220A421B2
:108050004000205CFF33520049000090E35CA25CCA
:10806000615A2000FFF703FEDDE701256D42DBE7E3
:1080700062020000FF03000070B504000D00FFF76E
:10808000A5FF00280AD12300FC3302000121986AD1
:10809000FFF795F929002000FFF79FFC70BD000055
:1080A00073B504000D1CFFF735FF0600012800D052
:1080B0006EE00021281C07F0D5FC00281BD03649B3
:1080C000281C07F0BBFC002815D0FC21281C8905C2
:1080D00008F07AF80AF0B6F9304A314B08F014FC8F
:1080E00007F0E2FCC0B20F2842D00ED8052824D0F9
:1080F00003D803281CD008204BE0072821D00A28E9
:10810000F9D1942309225B0015E03E2838D007D826
:10811000142831D01F28EED1942303225B000AE0FB
:108120007D2831D0FA28E6D1942306225B0002E0B4
:10813000942300225B00E25406E0942308225B00B3
:10814000F9E794235B00E65423002C20FC335D63A5
:10815000942295232A21FF30205C5B005200FF31DE
:108160000090E35CA25C615C2000FFF70AFD76BD35
:10817000942302225B00DEE794230A225B00DAE705
:10818000942304225B00D6E7942305225B00D2E708
:1081900014204042EBE7C0460000FF437B14AE478B
:1081A000E17A843F37B504000D00FFF7B3FE0128E4
:1081B00013D16B1F072B13D82A232C219422FF33B2
:1081C000E554FF31615C013352000091E35CA25C35
:1081D00029002000FFF7D5FC3EBD14204042FBE7FC
:1081E0000920FBE737B505000C00FFF793FE0128D7
:1081F00014D1631F032B14D895222C202A21231F6E
:108200005200DBB2AB54FF30285C023AFF310090E1
:10821000AA5C695C2800FFF7B4FC3EBD1420404214
:10822000FBE70A20FBE773B505000C001600FFF71B
:1082300071FE012811D10F21230030098B430E401C
:10824000E821034301AA2401137034430223C90027
:1082500028005470FFF7E8FA76BD14204042FBE78F
:1082600030B587B004000D00FFF754FE012814D18B
:1082700023000021FE331D86023BDB6D01912E2180
:108280009622FF31615C52000091DBB2A25C2900B2
:108290002000FFF7C8FC07B030BD00281CD1052125
:1082A000A42304915B00FA31E55203914731615CEC
:1082B000442302914621FF31615CA1220191A22158
:1082C0004900615CFF3352000091E35CA25C29002D
:1082D0002000FFF7CCFCDEE701204042DBE7000096
:1082E000F7B504000D1CFFF715FE002837D100215B
:1082F000281C07F099FB002800D01B4D281C0AF011
:10830000A1F81A4A1A4B06000F0007F071FB00286B
:1083100028D01849281C07F091FB002822D0002201
:10832000154B3000390009F015FA83230022DB05D4
:1083300009F010FA0022114B08F002FE07F0B4FB1E
:108340002100A0234222FC3108645B000090FF3230
:10835000E35CA25CC96B2000FFF74DFCFEBD14205E
:108360004042FBE76620FBE79A99193F33333333EA
:108370003333E33F0000484300408F4080847E4118
:1083800037B504000D00FFF7C5FD002820D1042DEE
:1083900021D842222800FF3207F076F90312141682
:1083A000180000232100A354A023FC31086C5B00BB
:1083B0000090E35CA25CC96B2000FFF71CFC3EBD93
:1083C0000823EFE70923EDE70A23EBE70B23E9E7AF
:1083D00014204042F3E76A20FBE70000F0B58BB0C1
:1083E000079310AB04000D0017001E78FFF792FDF5
:1083F000002851D1012D40D0002D03D0022D44D0B2
:10840000344838E0A12301225B00E25405200490A7
:10841000FA3003904730205C442302904620FF301E
:10842000205CA1220190A220A4214000205CFF3307
:10843000520049000090E35CA25C615A2000FFF703
:1084400016FC002817D109AD3B0A2B702A00022325
:10845000214920006F70FFF7E7F900280BD1079B37
:108460002A001B0A2B706B461B7F1C496B70200077
:108470000223FFF7D9F90BB0F0BDA1235B00002E5A
:1084800001D00422C1E7E654C0E7A12306225B0025
:10849000002EBAD1E554B9E7012818D1962252002E
:1084A000002D12D0A054230021000020FC33FE3107
:1084B000DB6D098E01902E20FF30205CDBB2009036
:1084C000A25C2000FFF7AFFBD5E7A554EBE7012046
:1084D0004042D0E743FDFFFFBC060000BE0600009F
:1084E000F0B58BB004000D000792FFF713FD0028D4
:1084F00050D14627FF37002D1AD14423A122A421B1
:1085000005300490FA30E55503904730FF335200B0
:108510004900205CE35CA25C615A02900195A220B4
:108520004000205C00902000FFF7A1FB0BB0F0BDE5
:108530000126D72109ADE65533002A00C9002000E5
:10854000FFF746F90028F1D1079A2B781212B343AE
:1085500016401E436B46D7211B7F2A006B70C90053
:10856000022320002E70FFF75FF90028DED144239C
:10857000A122A42105300490FA3003904730205CFA
:10858000FF330290E05D52004900E35CA25C615A57
:108590000190C4E714204042C8E780224B1E994155
:1085A00010B5C9B25200FFF79BFF10BDF7B504002C
:1085B00000912600FFF7AEFCFC36012851D12A239A
:1085C000FF33E55C2D48A84008F05EF92C49071CF4
:1085D000706B07F0F9FD011C381C07F01DFC07F05B
:1085E0004BFA6B1F0600012B38D800221927254BA8
:1085F000A9009E4202D929003E3189002E23FF3373
:10860000E05CC9B2434243415842142303409620E0
:1086100001934000205C009B4000C0184000451BB7
:10862000AD00019BAD18ED182DB2281C002D00DA0D
:1086300000204B1E00B2C01807F0BAF895235B006B
:1086400082B2E05CFE3404305043238E8000083355
:108650009B00DF19C7197743B808FEBD0822112710
:10866000C5E7009BF56BD800684309F0B9FE00220E
:10867000054B09F06FF807F017FAEEE71027000036
:10868000000020417F3E00000000503FF0B585B063
:108690000293036804005B680E00170098470028E7
:1086A00067D1FF2F67D82000FFF734FC01282ED1B7
:1086B00039002000FFF77AFF032358434308019352
:1086C00023683A00DD683100029B2000A84700289B
:1086D0004FD1FEF770FE05002600FC36B36AD87B4A
:1086E000FEF74CFE00281BD1FEF755FEFEF763FE99
:1086F000019B401B9842EFD921492000FFF7D8F990
:10870000236820005B6898470520404231E000283C
:1087100033D139002000FFF749FF05234343CEE75B
:10872000FEF749FE0190380009F05AFE0022154B71
:1087300009F010F8019B02900391581B08F0A4F86F
:1087400009F080FE0022104B08F0FAFB02000B003B
:108750000298039908F0F4FB09F0C6FE0849706519
:108760002000FFF7A5F9002803D1236820005B68EB
:10877000984705B0F0BD0420C7E70120C5E7C04613
:10878000FF0300000000204080842E41F7B56B46B7
:10879000DC1D002322002370164901330500FFF77A
:1087A00017F8002820D12800FFF7B4FB01281CD1BE
:1087B0002B00FC33586B09F045FE00220E4B09F0EC
:1087C0003BFA49004F080D4A0D4B390007F0FCF801
:1087D00000280AD004222378934323702200012327
:1087E00004492800FFF720F8FEBD04232278134334
:1087F000F3E7C0468908000000407F40FCA9F1D2A1
:108800004D62503FF0B5050087B00F001600FF2AFB
:1088100075D8A2235B00C35C002B01D0FF2A6ED069
:108820002800FFF777FB01284AD129000020FE31FC
:10883000098E01902E209622FF30285C5200009075
:10884000F3B2AA5C2800FFF7EEF9041E59D100909C
:10885000030001222D492800FFF711F9041E50D111
:10886000020001002800FFF72BFA041E49D1030083
:10887000F2B239002800FFF74FF8041E41D1244915
:108880002800FFF715F9041E3BD12800FFF77EFFF3
:10889000041E36D12E00FC3601000122B06AFEF71C
:1088A0008EFD21002800FFF789F8041E29D1B36A44
:1088B000587CFEF763FD002823D0FEF76CFDF6E739
:1088C000002821D105300490F0B20390A32040008D
:1088D000285C442302904620FF30285CA1220190AE
:1088E000A220A4214000285CFF33520049000090E0
:1088F000EB5CAA5C695A2800FFF7B9F9A5E70424E4
:108900006442200007B0F0BD0124F9E70102000035
:10891000FF0300002E2373B5FF33C35C0400012B5B
:1089200002D01420404276BDFFF7F4FA0600012879
:10893000F7D16B4692219A1D0023090113700300A1
:108940002000FEF771FF0028EDD16B46DD1DD871C8
:108950002A00330008492000FEF73AFF0028E2D140
:1089600002232A78044913432B702A003300200085
:10897000FEF75AFFD7E7C04644090000F7B5036881
:1089800001915B68040015009847002800D082E040
:108990002000FFF7BFFA012847D12A23FF33E35C09
:1089A000984007F071FF2300FC33596B07F034FA4D
:1089B00009F048FD00223F4B08F0CCFE00223E4B60
:1089C00008F0C8FE07F070F8060007F05DFF09F038
:1089D00039FD0022394B08F0B3FA07F065F80100C1
:1089E0002000FFF749FB002855D1FEF7E4FC070003
:1089F0002300FC339B6AD87BFEF7C0FC00283FD1E4
:108A0000FEF7C9FCFEF7D7FCC01B8642F0D220005F
:108A1000FFF780FF2A492000FFF74AF8236820006B
:108A20005B6898470620404235E000283FD1281E69
:108A300000D1FF2009F0D4FC0022224B08F08AFE6E
:108A40002300FC330600D86B0F0007F01DFF09F070
:108A5000F9FC02000B0000201B4908F071FA09F034
:108A600043FD09F0EFFC02000B003000390008F074
:108A700067FA0022154B08F06DFE0022144B9FE7A9
:108A80002E23FF33E35C012B06D023682A001B69E9
:108A9000019920009847FEBD2000FFF73BFA01280E
:108AA000F3D12000FFF736FF0028EED0F3E70120D6
:108AB000B9E7C0460000594000408F4000402F40B9
:108AC000FF030000000020408084CE4180842E41BE
:108AD000000014401FB5002303AC2380A3700133B2
:108AE0000093220002331421FFF79EF92078637867
:108AF00000041B021843A378184304B010BD000003
:108B000070B5FFF7E7FFC0B209F030FC0400802029
:108B100000060D180022044B2900200008F01AFE60
:108B200009F0E2FC70BDC0460000E03F10B5040053
:108B3000FFF7F0F9012812D12000FFF7CBFF030A5D
:108B4000D8B21B0608D409F011FC0022054B08F02E
:108B500001FE09F0C9FC10BD0138FF38F3E70248F7
:108B6000F9E7C0460000D03F0000A0C11FB50024B7
:108B7000012303AA148017210093DB18FFF754F98F
:108B8000200004B010BD0000F0B5036889B05B6838
:108B9000039004920E1C98470398FFF7E7FF8306A3
:108BA00002D50398FFF7ADF87000400809F04AFCC1
:108BB0005F4A604B06F008FF0590002805D00121B0
:108BC0000398FEF709FD09B0F0BD301C09F03AFC2E
:108BD000594A5A4B04000D0009F02EF849004F087D
:108BE000534A544B390006F0EFFE002820D06A4665
:108BF000127D07AB1A70049807F046FE09F022FCBC
:108C000000224F4B08F09CF906F04EFF07AA030C18
:108C10005370030A9370039B0499FC3399650123F5
:108C2000D0709721009303980333FEF785FECAE7BF
:108C3000444A454B2000290008F0FEFF49004F0838
:108C40003B4A3C4B390006F0BFFE002802D007AB80
:108C50000122CFE73D4A3E4B2000290008F0ECFFFF
:108C600049004F08324A334B390006F0ADFE002868
:108C700002D007AB0222BDE72F4A364B2000290065
:108C800008F0DAFF49004F08294A2A4B390006F05C
:108C90009BFE002802D007AB0322ABE7294A2E4BEC
:108CA0002000290008F0C8FF49004F08204A214B46
:108CB000390006F089FE002802D007AB042299E7AC
:108CC0001D4A264B2000290008F0B6FF49004F0836
:108CD000174A184B390006F077FE002802D007AB80
:108CE000052287E700221E4B2000290008F0A4FF80
:108CF00049004F080E4A0F4B390006F065FE002868
:108D000002D007AB062275E7164A174B2000290050
:108D100008F092FF49004F08054A064B390006F05B
:108D200053FE002802D007AB072263E70F484AE74B
:108D3000FCA9F1D24D62503F9A9999999999F93FBE
:108D400000402F40333333333333FB3FCDCCCCCCD7
:108D5000CCCCFC3F999901403333034099990540AD
:108D6000000008406666666666660A4041FDFFFFD1
:108D7000F0B5050087B003930CAB1B78FC3504936A
:108D80000DAB1B88040002930FAB1B780F1CA86A65
:108D9000002101920593FEF7D1FAAB6A0021D87B3E
:108DA000FEF7C0FAAB6A0021587CFEF7BBFA6A46B0
:108DB0002A231279FF336F63E2540422013BE25409
:108DC0006A4623001289FE331A8600220126AA650C
:108DD00003329A85DE85FF233100EB652000FEF724
:108DE000FBFB00284AD1236820005B6898470028D5
:108DF00044D131002000FEF791FF00283ED1002130
:108E00000E9806F025FE002831D101992000FFF7C9
:108E1000C9F9002832D1391C2000FFF741F9002898
:108E20002CD103992000FFF7DDF9002826D1442238
:108E300004992000FFF7F7F900281FD102992000BC
:108E4000FFF70EFA002819D10F492000FEF7FEFCAB
:108E5000002813D101212000FEF7A0FD00280DD12C
:108E6000059B2000002B0BD0FEF741FF06E0074AD0
:108E70000E992000FFF788FE0028C6D007B0F0BD8D
:108E8000FEF73AFFFAE7C046000070428813000080
:108E9000034B416003600023826083817047C046BA
:108EA000285B010070B506000C008D18AC4207D09D
:108EB000336821789B683000984720700134F5E7CB
:108EC00070BD7047704710B50400406803F07AFD2C
:108ED0000023237610BD10B5406803F098FD10BD47
:108EE000F8B5050040680C0003F08CFD2B68E7B274
:108EF000260A9B68012810D139002800FF279847CF
:108F00002B68BC4304439B68310028009847030248
:108F100020003840184380B2F8BD3100280098473F
:108F2000FF262B680002344004439B683900280068
:108F30009847B4432043EEE710B5040006F05AF812
:108F4000200010BD10B54B1C0BD0102909D0EFF339
:108F5000108472B6102905DD02234376002C00D15F
:108F600062B610BD0123427E1A43427618224A435C
:108F70000449891816228A569340C2691343C36173
:108F8000ECE7C046EC6F01004B1C17D0102915D040
:108F9000437E9B0712D4EFF3108272B618234B4323
:108FA0000749C9180123897D49B28B40C16999439A
:108FB000C16100D14176002A00D162B67047C04637
:108FC000EC6F0100437E002B05D09A0704D5837E09
:108FD000002B00D062B67047DB07FCD5C369024A9C
:108FE0009BB2D360F7E7C04600180040037E002B19
:108FF00004D143768376C361013303767047000062
:109000007FB5036902AE04000D00029172608B42CD
:1090100003D1828AB3889A4226D0200006223100EA
:10902000103009F06AFB606803F0E3FC7379E17AC1
:10903000013B581E8341227B00936068002303F0AC
:1090400075FE33790021013BDBB2022B01D8074AC0
:10905000D15C074B2A009D4200D91A00606803F0DA
:1090600099FC606803F0BBFC7FBDC046605B0100FB
:10907000001BB70070B518260400FFF7B7FF3300D8
:109080000821207A0D4D4343EB18595606F018FA83
:1090900033000821A07A4343EB18595606F010FA22
:1090A0000821607A4643AD19695606F009FA044B67
:1090B000200006CBFFF7A4FF70BDC046EC6F010097
:1090C000440B002007B5437E00910192002B07D08E
:1090D0009A070AD5EFF310835A425341837672B64A
:1090E0000099019AFFF78CFF07BDDB07F8D5C3692C
:1090F000014A9BB29360F3E7001800400E490F4B02
:1091000010B501220B6000234A710B710C490D4808
:10911000083101600C49427541600C49C2720181FD
:109120001421036181720375094A0A4903760373A6
:1091300006F074FA10BDC046440B002000093D0043
:10914000645B0100240B0020301200201215000087
:1091500000000020C58E00000020704710B5036895
:109160009C6B0123A04710BD8C2300229B00C1549F
:10917000103BC3185A609A60DA6001238375704708
:1091800010B5036801211B6B984710BDF8B50500A9
:109190000E0017000024BC4208D02B68315D1B680C
:1091A00028009847002801D00134F4E72000F8BDDA
:1091B000FC30406A704770478E239B00C150704757
:1091C0008D239B00C15070470300FC335A6A002A6C
:1091D00003D01B6AC018007E704701204042FBE7A5
:1091E00070B5060018250C49006903F0E9FD3069E7
:1091F00003F027FC2B000821307D084C4343E31883
:10920000595606F05DF90821707D45436419615691
:1092100006F056F970BDC046A0860100EC6F010053
:1092200070B504000D00006903F020FC29002069DE
:1092300003F0C6FD206903F004FC70BD10B50069A1
:1092400003F014FC10BD0000F7B50193FA2380264B
:10925000002504009B008360134B760008330F0049
:1092600045602900009203603200183009F061FA6D
:1092700023002000FC332530DD6132001D6229000F
:109280005D62FF3009F055FA88239B00E3185D60AA
:109290009D60DD606B461B78276123756B461B79EB
:1092A000A57520006375FEBDA05B010070B50600CA
:1092B0001825006903F05FFD306903F0C2FB2B0045
:1092C0000821307D064C4343E318595606F0F8F860
:1092D0000821707D45436419615606F0F1F870BDB0
:1092E000EC6F010010B50022FFF7E0FF10BD030096
:1092F000802210B5FC33DC685200944208D05A68D2
:1093000081545A680132D2B25A60DA680132DA60A6
:1093100010BDF7B50400171E019302D100252800E7
:10932000FEBD03000022FC33DA611A625A62006952
:10933000013203F0CDFB061EF0D023002069183364
:10934000009303F058FC01000098FFF7D0FF0125BF
:109350002069BD4214D003F02CFC00280FD02069F6
:1093600003F096FB0221206903F09CFB206903F0C7
:1093700042FC01000098FFF7BAFF0135E8E706005C
:10938000206903F07DFB019B002B06D0002E06D048
:109390000321206903F086FBC1E7002EBFD1013D08
:1093A000BDE7002310B5827D9A420CD0882292003E
:1093B0008218D46880225200944204D02530FF30B5
:1093C000FFF795FF0123180010BD0300FC33DA6896
:1093D000002A09D09A68805C9A680132D2B29A60F9
:1093E000DA68013ADA60704701204042FBE7002268
:1093F0008C2370B59B00827504000E00C15C00696F
:1094000003F066FB002806D10321206903F04AFB24
:109410000225280070BD88239B00E318DD68002D1D
:1094200011D020002530FF302569FFF7CEFFC1B2F3
:10943000280003F08FFB0028EDD10321206903F001
:1094400031FB0325E5E7002EE3D00321206903F07B
:1094500029FBDEE710B51830FFF7B7FF10BD70B578
:109460000400006903F09CFB002815D0206903F07C
:10947000AEFB002811D0206903F00AFB032120690C
:1094800003F010FB8E239B00E558002D35D10023FF
:10949000FC34E3612362636270BD206903F0A1FBC9
:1094A000002809D0206903F097FB002804D0206928
:1094B00003F09CFB0028DED0206903F092FB00281B
:1094C00021D1206903F07EFB0028E5D0206903F05C
:1094D0008DFB002833D088239B00E318DB68FF2135
:1094E000002B05D020002530FF30FFF76EFFC1B202
:1094F000206903F047FBA075CEE7236820001B69B5
:109500009847A847C3E7206903F0C2FA20690321FE
:1095100003F0C8FA206903F069FB0028BCD0882357
:1095200000229B00E3185A609A60DA600123A37559
:109530008D239B00E3589342AED09847ACE72300BD
:10954000FC335A6A802320695B009A4206D103F0FB
:1095500097FA0321206903F0A5FA9DE703F04BFB7E
:10956000010020001830FFF7C2FE206903F090FAD6
:10957000EFE7000010B50248FFF771FF10BDC046CD
:109580004C0B002010B51123102202490248FFF7AE
:109590005BFE10BD281200204C0B00207047F0B578
:1095A00000291BDB0C25445F8C4217DD002A15DBEC
:1095B0000E25445F944211DD847E022C0FD0032CD3
:1095C00016D0012C04D1D2430489A4180A0021B278
:1095D000012B13D0002B22D0022B32D0F0BD0489F6
:1095E000013C611AD443428909B2121912B2EFE761
:1095F0004489013C641A110022B2E9E70725D41717
:109600002C40A4182A4093400827C65FE4107443F6
:109610006118C46A61180A7813430B70DEE70724E7
:10962000D31723409B180826855FDB106B4359181E
:10963000C36A22405918012393401A000B789343C0
:10964000EBE70724D31723400826855F9B18DB1020
:109650006B435918C36A01202240904002005918F8
:109660000B785A400A70B9E770B5002504001E0057
:1096700012B204AB09B25D5700F01EFE104B083366
:109680002360002363629E4200D10E4E2100FF2220
:109690003331A662E3620A704A708A70CA7022008F
:1096A00037321570059A2000A265069AE265064ACF
:1096B00062662200643213710123537170BDC0468B
:1096C000906001004C0B002000093D00054B10B5D7
:1096D000083304000360C06A002801D008F0E2FFEC
:1096E000200010BD90600100F8B50400806A0D00F4
:1096F000002814D02300303319780368DB6A9847B8
:10970000A06A002103681B689847A06A29000368C3
:109710001B689847A06A03685B6B9847F8BD226C8A
:10972000216D1368606A8B431360002804D00368BE
:1097300029009B689847F1E708218020E36BA26B22
:10974000A76C166828420ED03E4316601E68E76C70
:1097500001393E431E601E68E76C4008BE431E6030
:109760000029EDD1DAE7BE43EFE770B50400806A67
:109770000D00002812D00368A16D9B6A984729004C
:109780004D1EA9412000A631FFF7AEFFA06A0028B8
:1097900012D00368E16D9B6A984770BD606A00282B
:1097A00004D00368616EDB69A26E9847626C616DDC
:1097B00013688B431360E2E7626C616D1368606A43
:1097C0000B4313600028E8D003681B6A9847E4E75E
:1097D000F7B50400806A8B180D00019300282BD088
:1097E0002700036830373978DB6A9847A06A002180
:1097F000036801261B689847A06A019A036895428E
:1098000017D0FE2E0CD95B6B9847A06A3978036895
:109810000126DB6A9847A06A002103681B68984705
:10982000A06A2978036801361B689847B6B20135EB
:10983000E2E75B6B9847F7BD226C216D13688B43A1
:109840001360019BAB42F6D02B78606A009300282E
:1098500005D0036800999B6898470135F1E7082017
:109860008026E36BA26BA76C0099BC4617680E427A
:109870000FD061460F4317601F68E16C01380F433A
:109880001F601F68E16C76088F431F600028EAD1D3
:10989000E3E761468F43EEE7072110B50A22835EB6
:1098A0000733DA170A40D2180821435ED2105A4310
:1098B000C06A002108F03DFF10BD0000F0B587B080
:1098C00004930CAB1B7804000593C36A0E001500CB
:1098D000002B1BD02000FFF7DFFF0A23E25E0823E6
:1098E000E15E202A25DC203AD30F9A180B00733B47
:1098F000D90FC918012302931F3352104910019345
:109900005333009312B209B2B04B24E00A22835EB3
:1099100007220733D8171040C0180822A35EC010D2
:10992000584308F0B5FEE062031ED3D1180007B01B
:10993000F0BD403AD30F9A180B00523BD90FC9180B
:10994000012302933F3301931233521049100093C5
:109950009F4B12B209B2200000F0C8FC2300313343
:109960001E70A06A002800D19CE0002D00D097E076
:109970000A23E55E203D6B1E9D413C3523003033BC
:109980001D70059B002B00D11BE10368DB69984724
:10999000049B002B1BD025000020373528560028BB
:1099A00015DBC0B2012105F0FBFC0121287805F090
:1099B00043FD012005F0C8FA0021287805F03CFDA0
:1099C0000A2005F0C1FA2878012105F035FDA06ACA
:1099D000002800D1CBE00368A16D9B6A9847042260
:1099E0007C492000FFF7F4FE618920000139C9B2EB
:1099F000FFF77AFE2500784904222000FFF7E8FEF1
:109A000000233135EB561421012B00D104392000FD
:109A1000FFF76AFE2600042270492000FFF7D8FEF7
:109A20008F2360363370A3686D4A022793420BD0B0
:109A30006C4A934200D0A8E00022AA56CF23012A04
:109A400000D1303B12273370DA212000FFF74CFEA3
:109A500039002000FFF748FE81212000FFF744FE77
:109A600031782000FFF740FED9212000FFF73CFEAF
:109A70000023EB56F121012B00D1CF392000FFF755
:109A800033FE200006225849FFF7A2FEA06A0028F4
:109A900000D188E00368E16D9B6A9847012345E7A0
:109AA0006DB26BE725002700353528780121363760
:109AB00005F076FC3878012105F072FC00231821AE
:109AC0000126EB56494D4B435A574948D2011218CB
:109AD00022643200EB185B689A4000232265FB5633
