:1040000000800020C1EA0000A9EA0000A9EA00003F
:1040100000000000000000000000000000000000A0
:10402000000000000000000000000000A9EA0000FD
:104030000000000000000000A9EA000015EB0000ED
:10404000A9EA0000A9EA0000A9EA0000A9EA000024
:1040500095E40000A9EA0000A9EA0000ADEA00002A
:10406000A9EA000015C40000A9EA0000A9EA0000BE
:10407000C9910000A9EA000025C40000A9EA0000D7
:10408000A9EA0000A9EA0000A9EA0000A9EA0000E4
:1040900091CA0000A9EA0000A9EA0000A9EA00000C
:1040A000A9EA0000A9EA0000A9EA0000A9EA0000C4
:1040B0000000000010B5064C2378002B07D1054BFB
:1040C000002B02D0044800E000BF0123237010BD84
:1040D000280200200000000040750100044B10B5CC
:1040E000002B03D00349044800E000BF10BDC046C8
:1040F000000000002C02002040750100034B1B78DB
:10410000002B02D00122024B1A70704704000020DD
:104110009C0A0020002905D07F220B7A93430028B7
:1041200001D10B727047042213430B720860F9E748
:10413000002907D07F220B7A086093431A000823D6
:1041400013430B727047002907D07F220B7A086057
:1041500093431A000A2313430B72704710B50023D0
:10416000884207D0984207D00133002902D00EF0D0
:10417000AFFE0300180010BD01235B42FAE70A21DD
:10418000435E0200181E01D01B01D018704770B5A5
:104190000D00041E09D0C1682800FFF7DFFF0028CA
:1041A00003D02000FFF7EBFFF3E7200070BD0160B4
:1041B0004160002900D0891800238160C160037428
:1041C00070474A688B681032934204D201230B7403
:1041D000002318007047103B8B60002BF9D0426819
:1041E000002A08D0991A09115181002243605A818E
:1041F0001A72DA60EDE70360F7E7021E07D07F214D
:10420000037A00200B40043B012B00D81068704754
:10421000F7B5037804000D002B2B1DD02D2B1CD1DE
:104220000127013423781A00303A092A02D92E2BAB
:1042300000D0C9E000200A26644922781300303BF0
:10424000DBB2092B0BD8884211D8DA437043824283
:104250000DD3C0180134F0E701340027E2E7002A4B
:1042600005D1002F18D080231B06984209D90026BB
:10427000574B98421AD90A2101360BF00BF876B247
:10428000F6E77F222B7A404293431A000A23134316
:104290002B7228603800FEBD7F222B7A2860934362
:1042A0001A00082313432B720127F3E723781A001F
:1042B000303A092A03D8013676B20134F6E72E2BBC
:1042C0000FD10A21434A01342378303BDBB2092B5A
:1042D00007D8904203D84843013E181876B20134FB
:1042E000F2E7202322789A430023452A3AD16278C4
:1042F0002D2A1FD102340133019300232178303954
:10430000CAB2092A2AD80A225343CB18F1182629FF
:1043100022DD019A2B7A7F20002A11D00024002F61
:1043200001D0802424060C2183430B432B722C6084
:10433000019FAFE72B2A01D00134DDE70234DBE730
:10434000002F06D024490C22834313432B7229608B
:10435000AAE7FF21C905F6E70134CFE7019A002A51
:1043600000D05B422478002C2ED1F6180CF088F88F
:10437000002E1ADD01231E4204D0184AA300D15892
:104380000BF01EFD01347610E4B2002EF2D1002FA6
:1043900002D080231B06C0187F222B7A286093430B
:1043A0001A000C2313432B727EE77642002EEED0C8
:1043B00001231E4204D00A4AA300D1580BF000FD8D
:1043C00001347610E4B2F1E7002763E7999999196F
:1043D000FFFF7F00CBCC0C00000080FF10460100E7
:1043E000F8450100426810B5002A08D08368C46807
:1043F000A34205D300230122436003681A7410BD51
:104400005C1C8460D154FAE710B51D200AF084FDCD
:1044100004001D200AF080FD24181D200AF07CFDF8
:1044200020180BF0E3FF0E490BF0F2FA0D490BF0E8
:10443000C7FCEA2189050BF0C3FC0B490BF0E8FA35
:104440000021041C0BF0ECF8002807D10749201CC0
:104450000BF0FAF8002801D1201C10BD0024FBE766
:104460000000404033335340CA261B3E33334B4198
:10447000F8B5FFF7C9FF54490BF0A2FC0BF0F8F8B0
:10448000524B1870524B1B78002B0AD0514C6421B0
:10449000200007F0D7FD504D504E002802D1287063
:1044A0003070F8BD4E49200007F054FF4C49307081
:1044B000200007F037FF4A490700200007F062FF9D
:1044C000484B47491860200007F074FF46490AF03E
:1044D0006BFFB42149000BF04DF86931FF31080042
:1044E000B42149000BF046F8404B200019803C49AC
:1044F00007F000FF3E4B3A491860200007F072FFBA
:104500003C4B37491880200007F090FE002826D148
:104510000023394A13703378002B52D0032F50D91F
:104520002F49200007F0A6FE344B2D4918602000CB
:1045300007F0B4FE324B2A491860200007F0C2FE93
:10454000304B984239DB304B984238DCFA218900F5
:104550000AF02AFF00B22D4B2F701880A1E72049E6
:10456000200007F073FE0028D2D00123224A1C4904
:104570002000137007F0FAFD254B19491880200020
:1045800007F004FE234B16491870200007F00EFEBA
:10459000214B13491870200007F018FE1F4B1049DB
:1045A0001870200007F022FE1D4B0D4918702000E6
:1045B00007F02CFE1B4B1870ADE71B48CBE71B48E0
:1045C000C9E700232B706CE70000A041DE05002046
:1045D000D5020020E4050020A4090020E305002006
:1045E0004C040000A8090020A0860100E00500207E
:1045F00090090020A2090020AC09002098090020A1
:104600009C09002019FC0BFEFFFFF301DC050020D4
:10461000AE090020A1090020E20500209409002035
:10462000A0090020A50900200080FFFFFF7F0000F7
:104630000023F7B5144F05003A780C009A4201D0D8
:10464000124B1B68009300239A4201D0104B1B6849
:104650002E1969463000042201930DF04AFE201DF8
:10466000281801A904220DF044FE20000830281863
:10467000022208490DF03DFE20003B780C30B37259
:10468000054B1B78F372FEBDA40900209809002099
:104690009C090020DC050020DE0500203E4B73B5A0
:1046A0001B78002B72D03D4C200004F01FFF01212D
:1046B000200005F098FE00232361394B39496361DE
:1046C000200009F0E3FF3849200009F0CAFF37490C
:1046D000200009F0E5FF3649200009F0C2FF354B04
:1046E0000A22196820000AF036F83349200009F040
:1046F000B8FF324B0A22196820000AF02CF8304922
:10470000200009F0AEFF2F4B0A22197820000AF092
:104710002EF82D4D2000290009F0A3FF2B4B18780F
:104720000BF064FE2A490BF073F90DF087FC0B00C7
:1047300001210200009120000AF0E0F82549200044
:1047400009F0A4FF244E3378002B20D02349200009
:1047500009F087FF3100200009F087FF29002000C1
:1047600009F07FFF1E4B18680BF020FE0A220100A3
:10477000200009F0E2FF1B49200009F087FF1A49D9
:10478000200009F08DFF200005F084F973BD174962
:10479000200009F07BFFF6E7D40200206802002029
:1047A00001000100A7460100BA46010005000020F3
:1047B000BF460100A40A0020C3460100A00A002051
:1047C000C8460100A4090020B64F0100DE05002004
:1047D0000000A04165640100D7020020CC46010022
:1047E000F0020020D2460100F8020020D646010067
:1047F000002310B50004014309489A0012588A4268
:104800000CD00133082BF8D1064A13789C002150B4
:104810000721002001330B40137010BD0120FCE77D
:104820004802002044020020F0B585B001930AAB95
:1048300020CB04001F780CAB1B7820480291039317
:1048400016000EF04FFBC3B29C46C4232370C33B3B
:104850006370391E01D080214942029B6671194361
:10486000039B36125A1E93419B010B43A370144BBA
:10487000A6711B88C6B2E3701B1223712000634629
:104880003200E3710D4908300DF033FD019B002B20
:1048900008D0002D06D03000083020182A0019005A
:1048A0000DF027FD280008308019002F03D00100EB
:1048B0002000FFF7BDFE05B0F0BDC046050000209A
:1048C0009609002070B530C80E00A5420AD9210013
:1048D0003068FFF743FC002805D023780134002B13
:1048E000FBD1F2E70024200070BD73B5056886682F
:1048F0006C6801A928000194FFF7E4FF002802D1A9
:104900002000A6196E6076BDF0B5002787B0009034
:104910000C0002910392B9422ED0059005A9100017
:104920001600FFF7CFFF0500B8421CD100980EF02B
:10493000D9FA030075680133B268EB18019093420D
:1049400007D9012333747F22237A002793432372EC
:1049500012E07360002DF6D0019A009928000DF046
:10496000C8FC019BEF547F22237A012793431A004E
:104970000523134323722560380007B0F0BD010002
:10498000802210B5203192000400FFF710FC0023B4
:104990002000237710BD1FB5040001A80AF01FF8FE
:1049A00001A920000AF01BF801A809F0ADFF2000C2
:1049B00004B010BDF0B589B00C1E0291039212D064
:1049C000010005A817000AF00AF8059B0093079B51
:1049D0000193009B002B08D17F22237A93432372FB
:1049E00005A809F091FF09B0F0BD3D687E68AE42B0
:1049F00012D9009BAB4224D0002D06D0019A290089
:104A000018000EF076FA00281BD02B001A7801331C
:104A10001D00002AFAD1EAE7019BBA680133F318B6
:104A2000934202D901233B74D6E77B60002ED3D09A
:104A3000019A009930000DF05CFC00233500019ACA
:104A4000B3547F22237A256093431A000323134330
:104A50002372079B6360C3E770B505000C00160066
:104A6000081E0FD02868FFF792FB00280AD13100FA
:104A70002800FFF7A6FB002804D07F22037AC46039
:104A80001340037270BD70B50300007A7F250400E7
:104A90002C4005D1A8435F3D284318721C605C6020
:104AA00020201C7A0440201E02D01800FFF7D4FFFB
:104AB00070BD70B50D0004002800110014302A00EC
:104AC000FFF7E1FF002809D07F22037A93431A0001
:104AD000202313430372002303604360206065605A
:104AE000200070BD10B5002801D0FFF7B5FF10BD44
:104AF00010B50200037A20200340181E02D010686F
:104B0000FFF745FB10BD437E002B06D143695A1CBD
:104B100042611B78037601234376007E704710B50F
:104B200004002000FFF7EFFF0A2806D8092808D262
:104B3000002809D0012020740CE00D2801D0202885
:104B4000F8D100236376ECE7237C60345A1E93414E
:104B50000133237010BD1FB57F220300007A10407F
:104B6000043808282ED80AF08BFB0F0F052D082DCE
:104B70000D2D1A00187804B010BD1868C343DB1758
:104B80001840F8E71868F6E71868002301AC2372AC
:104B90002100FFF73DFB2000FFF7DDFFEBE7CF2112
:104BA0001C680906201C0AF059FD0028E3D09E214C
:104BB000201CC9050AF03EFD0028DCD0201C0BF0AB
:104BC000F5FBD8E70020D6E770B504000D00FFF72D
:104BD0009AFF0023A84201D163760133180070BD0B
:104BE0002F2815D90123392803D95E2803D97A281B
:104BF00003D81800704740280AD901235A28F8D949
:104C0000002301222D38C0B282425B41DBB2F0E7C3
:104C100001232B28F4D1ECE737B500236A460C00BA
:104C20001370C3B27F2809D85370951C013D2978B1
:104C300000292ED02000FFF7D5FBF7E73F21802287
:104C40006D460B405242134380096B7085B2C3B26C
:104C50001F2D05D8403213436A469370D51CE5E7F3
:104C60006D460B4000041343800DAB70C3B20F2898
:104C700005DC202252421343EB7001ADD6E7194008
:104C8000102380115B420A431843EA7028710535EE
:104C9000CCE737BDF7B505000027FFF734FF6F7687
:104CA00001902800FFF72FFF0024019B01006C7684
:104CB000834258D0A04204D10223603500202B70DB
:104CC000FEBD5C284BD12800FFF71DFF0028F3D064
:104CD0002B4B752839D104266C762800FFF713FF7B
:104CE0000028E9D0402806D83038C0B20F2806D9AD
:104CF00060350323E2E7202398433738F5E70023A4
:104D00002401013E0443F6B2A4B26B769E42E4D184
:104D1000A0239B01E3181B4A9BB2934202D8A4052F
:104D2000A70DBEE790239B01E3189BB2200093429E
:104D300006D880238005BC02800D20435B02C0188A
:104D40002900FFF769FFACE702331A78002ACFD0B9
:104D50009042F9D159780029CAD000236B762800F7
:104D6000FFF740FB9DE728002100FFF73BFB6B6846
:104D70000120002BA4D1042260352A7018009FE77F
:104D8000584F0100FF030000026870B5536804002B
:104D90004360936852689B1AC36000238360FFF7E7
:104DA000B2FE27280DD022280BD02000FFF7ABFE43
:104DB0000600FFF715FF051E09D103236034237099
:104DC00003E02000FFF766FF0500280070BD002308
:104DD000310063762000FFF705FB2000FFF793FE0C
:104DE0000600FFF7FDFE011EF1D12000FFF7FAFAE1
:104DF0006368002BE9D10422603422701D00E4E7CF
:104E0000F7B504000D001F1CFFF789FE0190002874
:104E100001D1002658E02000FFF775FE272800D1B9
:104E20007BE01DD8222800D177E02000FFF76BFE41
:104E3000002600900098F7B2FFF7D2FE002800D1BC
:104E400087E00136402E00D182E06A4600231278C6
:104E50006376A319DA772000FFF755FE0090E9E7A3
:104E60005B2813D07B28E0D17F222B7A2900934343
:104E70001A00202313432B72002300222B606B6047
:104E800020003B1C00F092F806001DE07F222B7AE8
:104E9000FFB293431A00402313432B7200232B606D
:104EA0006B609F4203D1603405332370B1E76376B2
:104EB0002000FFF734FE0028ABD05D212000FFF773
:104EC00083FE061E02D0019E3000FEBDE16928006F
:104ED000FFF777F9011E03D1042360342370F3E751
:104EE0007B1E00222000FFF78BFF002800D190E7F7
:104EF0002000FFF714FE002800D18AE75D21200082
:104F0000FFF762FE0028DED12C212000FFF75CFEB7
:104F10000028DBD160340323C7E7226820005368F0
:104F20006360936852689B1AE3600023A360FFF7F5
:104F3000B1FE061E00D16CE72000FFF7D6FC7F22F1
:104F40002B7A286093431A00052313432B72BBE787
:104F50003F270021E3190133D977631CDB7F742BD2
:104F60000DD17F222B7A93431A00062313432B7211
:104F700001232B70042FA6D06034022395E7662B03
:104F80000AD17F222B7A297093431A0006231343F8
:104F90002B72052FF0D196E76E2BEBD02000290065
:104FA0002030FFF735F90028B4D08CE7F7B5DFB231
:104FB00004000E00002F04D1052360342370002567
:104FC0000DE000234376FFF7AAFD00900028F6D0FD
:104FD0007D212000FFF7F8FD051E26D0009D28004A
:104FE000FEBD61683068FFF7D2F8002831D00100BB
:104FF0007B1E00222000FFF703FF0028DFD02000E7
:10500000FFF78DFD0028DAD07D212000FFF7DCFDC1
:105010000028E3D12C212000FFF7D6FD002814D072
:105020002000FFF77CFD0028C9D02000FFF7ACFE70
:105030000028C4D02000FFF772FD0028BFD03A211D
:105040002000FFF7C1FD0028CBD10323603423707B
:10505000C5E72000FFF749FCE16901903000FFF748
:10506000B0F8002802D160340423F0E78022037AEC
:10507000524213430372019BC360B8E710B50400AA
:10508000006803685B68984763681818606010BD23
:1050900070B5050008000C000DF024FF210002008F
:1050A0002800FFF7EBFF70BDF0B5162407000D00D8
:1050B0000A2687B06C44280031000AF071F9013CDF
:1050C00030312170280031000AF0E4F8051EF2D1D9
:1050D00016236B441A1B21003800FFF7CFFF07B0DF
:1050E000F0BD10B50400006803681B68984763684A
:1050F0001818606010BD000070B50D00040022217A
:105100002000FFF7EEFF2978002909D00A4B01356E
:105110001E78002EF4D05A788A4206D00233F7E780
:1051200022212000FFF7DDFF70BD5C212000FFF78A
:10513000D8FF3100E4E7C0465A4F01007F22F0B5A6
:10514000037A8BB005000C001340062B00D18FE1D1
:1051500006D8022B0DD3032B00D975E106CD49E10A
:105160000C2B24D007D8082B00D17FE10A2B00D1CB
:105170006FE1C44981E1202B00D146E1402BF8D1F9
:105180005B212000FFF7ADFF2D68002D00D135E138
:1051900021002800FFF7D2FF2800FEF7F0FF051ED0
:1051A00000D12BE12C212000FFF79BFFEDE70668E3
:1051B000311C301C0AF02EFA0028DAD00021301CF5
:1051C0000AF028FA002809D1311C301C0AF086FAAE
:1051D000011C301C0AF01EFA0028CAD10021301C24
:1051E0000AF01EFA002806D02D212000FFF779FFD3
:1051F00080231B06F618A449301C0AF02FFA002859
:1052000044D00023142520270093A04B301C59596B
:105210000AF024FA002809D09D4B301C59590AF095
:10522000CFFD009B061CF81803B20093043D7F10CD
:105230002B1DEAD103350021301C0AF005FA0028A5
:1052400028D0301C0CF0FAFE924A934B0AF0B8F9C1
:1052500000281FD0AB0001932B061BD48F4B019A63
:10526000311C98580AF0F0F900280AD0874B019AAF
:10527000301C99580AF0A4FD009B061CD81B03B2F1
:105280000093019B7F10013D043BE4E720270525A7
:105290000090D0E7301C0AF0EBF906230700804DA0
:1052A000029003936B461B7B5BB20193039B013B14
:1052B000DBB20393029B092B0AD90A21280009F0CB
:1052C000E9FF0A210500029809F0E4FF0290E9E7EE
:1052D00038000BF0D5F8011C301C0AF0A3FE061CA8
:1052E00028000BF0CDF8011C301C0AF069FD02907B
:1052F0000AF0BEF906000BF0C3F8011C02980AF090
:1053000091FE011C0AF0EAF90AF0B2F98619B542D9
:105310000BD80026009B0137B34206D0092F04D9D1
:1053200018000127013003B200930A25290030003C
:105330000AF036F800290CD1019B002B09DD300062
:10534000290009F0A7FF019B0600013B5BB2019316
:10535000ECE739002000FFF7A7FE019B002B20D0CF
:105360001D0008AF013D6DB2013F6B1C0BD030003A
:105370000A210AF015F83031397030000A2109F09D
:1053800089FF0600EEE76B461B791025D9432E22D4
:105390004B1904A8C25408AB4A4220005918FFF721
:1053A0006DFE009B002B2DD065212000FFF799FE9C
:1053B0006B461D88009B002B05DA2D212000FFF78E
:1053C00090FE6D42ADB216260A2704ABF6182800EF
:1053D000390009F0E5FF013E303131702800390015
:1053E00009F058FF85B2002DF1D11623310004AA2F
:1053F0009B189A1B2000FFF741FE03E05D2120006F
:10540000FFF76FFE60680BB0F0BD7B212000FFF757
:1054100068FE2D68002D15D0E9682000FFF76CFEAE
:105420003A212000FFF75DFE21002800FFF786FEED
:105430002800FEF7A4FE051E04D02C212000FFF753
:1054400050FEE7E77D21DAE701682000FFF754FE10
:10545000D8E70568002D04DA2D212000FFF741FE72
:105460006D4229002000FFF71FFECBE70168F9E736
:1054700003780C49002B00D10B492000FFF708FEF0
:10548000C0E7C046694F01008096184B10460100E6
:10549000F8450100F168E388B5F8E43EE045010015
:1054A00040420F006E4F0100734F010010B51430E1
:1054B000FFF744FE10BD000030B5B5B004ACA0222B
:1054C0000CA92000FEF773FE002322001C4909A846
:1054D0002377FFF7D8FA01001A48FEF71BFE2200D7
:1054E000194909A8FFF7CFFA01001848FEF712FE84
:1054F0002200174909A8FFF7C6FA002808D07F2222
:10550000037A93431A000C2313430372114B036075
:105510002200114909A8FFF7B6FA220001000F483E
:10552000FFF7F2F900230E4D02A920000393029524
:10553000FFF7BCFF280009F0A1F835B030BDC04628
:1055400064500100884701008E4701009147010027
:1055500095470100CDCC664455460100050000206A
:10556000E411002070B50026AAB002AC05000AA91B
:1055700080222000FEF71BFE22000F4907A8267795
:10558000FFF781FA01000D48FEF7C4FD22000C4927
:1055900007A8FFF778FA01002800FEF7BBFD094DC8
:1055A0006946200000950196FFF780FF280009F06A
:1055B00065F82AB070BDC046645001001147010073
:1055C00015470100E411002070B59AB002AC060046
:1055D00040220D0020000AA9FEF7E9FD0023220069
:1055E000124907A82377FFF74EFA01003000FEF7B3
:1055F00091FD22000E4907A8FFF745FA002807D0C1
:105600007F22037A056093431A000A23134303722F
:105610000023084D6946200001930095FFF746FFDF
:10562000280009F02BF81AB070BDC0466450010084
:1056300068630100E411002070B5F34CA54416AC7A
:105640002000FFF79CF92200F0491BA8FFF71BFA86
:105650000100EF48FEF75EFDEE4D2200EE491BA86B
:105660002E78FFF710FA002809D07F22037A93439F
:105670001A00062313430372731E9E410670220014
:10568000E6491BA8FFF7FFF901002878FEF750FD57
:105690002200E3491BA8FFF7F6F9E24B0100187856
:1056A000FEF746FD2B78002B00D1EFE0DE4B0725FF
:1056B00018680CF057FC0022DC4B0BF03DFA00950B
:1056C0000B0002000AA809F0BDF90AA90DA8FFF70E
:1056D00062F92200D6491BA8FFF7D5F90DA9089059
:1056E00010A8099409F07BF9099A089910A8FFF706
:1056F00061F910A809F008F90DA809F005F90AA840
:1057000009F002F9CB4B18680CF02CFC0022C74BB7
:105710000BF012FA00950B0002000AA809F092F9AA
:105720000AA90DA8FFF737F92200C3491BA8FFF704
:10573000AAF90DA9089010A8099409F050F9089940
:10574000099A10A8FFF736F910A809F0DDF80DA89E
:1057500009F0DAF80AA809F0D7F82200B7491BA81F
:10576000FFF791F9B64B01000020185EFEF7EBFC45
:10577000B44B18680AF03AFEB3490AF021FB012243
:10578000011C0AA809F040F90AA90DA8FFF703F9BE
:105790002200AE491BA8FFF776F90DA9089010A8C2
:1057A000099409F01CF90899099A10A8FFF702F961
:1057B00010A809F0A9F80DA809F0A6F80AA809F0A0
:1057C000A3F82200A2491BA8FFF75DF9002809D021
:1057D0007F22A04B1988037A016093431A000823A3
:1057E000134303729C4B18680AF04AFE9B490AF067
:1057F0000FF90122011C0AA809F006F90AA90DA84F
:10580000FFF7C9F816AA96491BA8FFF73CF916AB93
:1058100008900DA910A8099309F0E1F8099A0899D0
:1058200010A8FFF7C7F810A809F06EF80DA809F046
:105830006BF80AA809F068F88A4B18880AF0D6FDB8
:1058400089490AF0BDFA0122011C0AA809F0DCF816
:105850000AA90DA8FFF79FF816AA84491BA8FFF70D
:1058600012F916AB08900DA910A8099309F0B7F822
:105870000899099A10A8FFF79DF810A809F044F8B4
:105880000DA809F041F80AA809F03EF8784B16ACCB
:105890001B78002B21D0774A774B12781B88049213
:1058A000764A1821127810A80392754A127802924B
:1058B000744A12780192744A12780092734A0DF079
:1058C000B5FA220072491BA8FFF7DDF8220001009B
:1058D000089010A80994FFF717F86E4B18780AF093
:1058E00085FD6D490AF094F80222011C0AA809F00E
:1058F0008BF80AA90DA8FFF74EF8220067491BA8EC
:10590000FFF7C1F80DA9069010A8079409F067F8F1
:105910000699079A10A8FFF74DF810A808F0F4FFB1
:105920000DA808F0F1FF0AA808F0EEFF09F000F951
:10593000220006005A491BA8FFF7A5F8051E0CD047
:105940007F22037AFA2193431A0008231343037238
:105950008900300009F09EFC2860524802F0B2F83D
:105960000122011C0AA809F04FF80AA90DA8FFF7A7
:1059700012F822004C491BA8FFF785F80DA90690E4
:1059800010A8079409F02BF80699079A10A8FFF7BA
:1059900011F810A808F0B8FF0DA808F0B5FF0AA884
:1059A00008F0B2FF220041491BA8FFF76CF800285D
:1059B00009D07F223E4B1B680360037A93431A0091
:1059C00008231343037222003A491BA8FFF75BF830
:1059D000002809D07F22384B1B680360037A934369
:1059E0001A000823134303720023344D10A920002A
:1059F00011931095FFF75AFD280008F03FFE9E23F3
:105A00009B009D445CE0C04688FDFFFF64500100A0
:105A100019470100A40900201D470100214701008A
:105A200026470100E305002098090020D0126341B9
:105A30002E4701009C090020324701003647010033
:105A4000DC050020A8090020FAED6B3B3A47010075
:105A500040470100E00500209009002000007A4442
:105A600047470100A20900200AD7233C4C47010008
:105A7000AC090020A5090020AE090020A0090020E3
:105A800094090020E2050020A109002051470100EF
:105A900070470100DE0500200000A04174470100AE
:105AA00079470100800400207C4701008247010003
:105AB000A40A002085470100A00A0020E41100206C
:105AC00070BDC0461FB5282009F0BAF802230400B3
:105AD000009303220733082101F014FA21000D4836
:105AE00001F0A8FA0C4B0D4C02930D4B4022019390
:105AF00001235B42009380210A4B200003F0DEFB70
:105B0000094A0A49200009F0B3FB094804F076FC71
:105B10001FBDC04680040020A0860100680200204E
:105B2000801A0600D40A0020000000202193000003
:105B3000E40500200023F7B50F000524154E019061
:105B40003370154D280002F01DF80F300AD0C8211F
:105B500032204900013C08F0CCFCE4B209F01EF808
:105B6000002CEED100233A000199280002F0B8FB86
:105B700000220A4B04000A4928001A7002F0A6F815
:105B800001233370002C03D1064A136801331360DC
:105B90002000FEBD04000020800400209C0A00209C
:105BA000FFFFFF00A40A002030B50500BDB00C00C7
:105BB0001E20782108F09DFC08F0F0FF0D4905AB90
:105BC0000A881D70013292B20A8000219C702D1249
:105BD00024125D70DC70029101910431009106A8DD
:105BE0000239FEF721FE010006A8FFF7A3FF3DB032
:105BF00030BDC046A80A0020F0B5C34C0700A5443C
:105C0000B8AC2000FEF7BBFE002F00D1BF4F00262E
:105C1000B89B5AAD6360E3681022A36012A9267492
:105C2000267716A812940CF064FB102216A92800FF
:105C30000CF05FFB2E745F97C8270EAB7F00DB195B
:105C40006E76EC6100221E70BDA90A232800FFF7C2
:105C5000D7F80EABDB191B78B34207D12B7EB342CA
:105C600000D1D6E1237F1B0700D4D2E1A848FFF77B
:105C700079FC07E0A74920000DF02AF9002804D19B
:105C8000FFF71AFCA44B9D44F0BDA44920000DF081
:105C90001FF9061E17D1A249BDA8FEF729FFFEF77E
:105CA000ACFA011E02D00378002B01D19D48DEE73B
:105CB0009D4C102220000DF02DF92674FFF7FCFBFF
:105CC000FEF7ECFCDEE7994920000DF001F9031E18
:105CD00025D197490A88013292B20A8001210290A7
:105CE000019100902800FEF79FFD01002800FFF7BA
:105CF00021FF002802D08F48FFF734FC01228E4B91
:105D00001A7008F015FFFA2104004901002008F07C
:105D1000F0FB8A4BE4188A4B20181860D0E78949B9
:105D200020000DF0D5F8002800D056E18649BDA826
:105D3000FEF7DEFEFEF761FA844C08902100BDA854
:105D4000FEF7D6FE002806D07F22037A1340082BE8
:105D50000CD00A2B0DD001235B420993089B002B2A
:105D600002D01B78002B0FD1794880E70368002B05
:105D7000F1DB2100BDA8FEF7BBFE002801D1099090
:105D8000ECE7FEF7E8FEFAE708980DF0ABF80B90A9
:105D900003000C906F48B42B00D968E76E4B1A785B
:105DA000002A01D000221A700B9B00240593089B47
:105DB0000E940693BC235B0007935AAF059B002B00
:105DC00000D1CDE0069B1B78DE000D93059B3000D3
:105DD000012B02DD069B58788019059D022D06DDFA
:105DE000069B9B7843400E93062D00DD0725F1218D
:105DF00009F0D6FA30000A91F12109F0D1FA0E9893
:105E00000E00F12109F0CCFAB3000F938B00109330
:105E10000A9B9B001193002D47DD012D04D0022D1C
:105E20003AD04E4B109A01E04C4B0F9A9E58337863
:105E30000A93002B37D09D4231D1701C2A0006995D
:105E40000CF048FA00282AD1002C00D1C9E0022227
:105E5000012C00D0A2180799BB188A1A002A00DC6E
:105E6000BDE0013A0792059A0A99521B76180592ED
:105E7000069A71785219197006920133002F00D1D9
:105E8000C0E038001F00012C33D1FE2303701AAB91
:105E90001B784370002491E7304B119AC6E70A9BA8
:105EA0000233F618C3E7013DB5E76A4634215218BC
:105EB00012781AAB1A55059B0134013B0593069BDA
:105EC0000133069380235B009C4207D0059B002B87
:105ED00000D073E738000233012C01D03800A31C36
:105EE000079AFF18D31A079379D4002800D165E7E1
:105EF000C9E7FF230370631E437022001AA9023012
:105F00000CF0F7F9C6E7C046FCFAFFFFB7530100F3
:105F100035460100484601000405000055460100D1
:105F2000785101004D460100050000205A4601004D
:105F3000A80A00205F460100D602002060EA0000A7
:105F4000B009002082470100754601006863010026
:105F50006F4601007A460100B40900209C47010009
:105F60005AA97F1A059B002F05DD0B9ABA4202DD64
:105F700001230C97089101262B4D00212A881AA88D
:105F8000013292B22A8002930C9B01960093089BE7
:105F9000FEF74AFC010004001AA8FFF7CBFD071E1C
:105FA00019D109992148FFF70FFB214B2A881E7050
:105FB000204B1AA91A80204B099A20481A60220007
:105FC0000CF097F91E4B1C6008F0B2FD1D4B1860D9
:105FD0001D4B1F7074E61D4849E61D4847E6002327
:105FE000C9E7079B002BFADD761973783B70079B96
:105FF0000137013B0793059B5B1B0593069B5B19D0
:106000000693DBE680221F005200944200D05DE739
:1060100064E71049BDA8FEF76BFDFEF7EEF8041E1D
:1060200000D027E60C4822E6A80A00208846010096
:10603000B4090020940A002018000020B5090020AF
:10604000900A0020980A0020960A00205F4601006E
:106050008D460100645001003E46010070B50F4CB2
:106060002378002B15D008F063FD0D4D2B68C01A66
:106070000C4B98420DD90C4B1A78002A0AD10132E8
:106080001A7008F055FD094B286019680848FFF799
:1060900051FD70BD00232370FBE7C046B40900200A
:1060A000980A0020C3090000960A0020900A0020E8
:1060B000B50900200023F0B58C4D8D4C8D4F8E4AD4
:1060C000A544012128003B70137001F0EDFC8023F2
:1060D000060003905B00984200D903935AAC039AE0
:1060E0002100280001F014FD0490280002F032FB8A
:1060F0000690280002F044FB80490790280001F038
:10610000E5FD01233B70049B002B00D093E0072E9C
:1061100000D890E02378C42B00D08CE06378012B6A
:1061200000D088E02779E3783F023B430B93744B20
:106130000B9A1B881E0093427DD0E579102D7AD8EA
:106140002F00039B08379F4275D8A37828220A9313
:106150006B469B181B785BB20593002B04DA2B006F
:10616000039A1433934266D83E220CABFF329B183D
:106170001B7801320C930CAB9B181B7827AC2A00C0
:106180005CA920000D930CF0B4F85AAAD719082284
:106190000023059952426355551B1432994200DB86
:1061A0001A00039910936D18AA1A0E2509920CAAC9
:1061B000AD1811932B80059B002B3FDAFFAA8C3280
:1061C00094460B0063441C004E4B0422E41821004B
:1061D00010A80CF08EF8211D042211A80CF089F8EB
:1061E00021000222083128000CF083F8A37A0493DE
:1061F000E37A3F2408930A9B1C40022C21D1099B7F
:10620000032B18D940490B78002B14D07A783B78AF
:10621000120213439E420ED13C48FA78BB780088A4
:1062200012021343984206D100230B70384B3948B1
:106230001968FFF7C9F9384B9D44F0BD002304935A
:10624000D7E70D9B0B981D020C9B1D432900FEF701
:10625000CFFA0600002C00D0CCE129000B98FFF704
:10626000A3FC002EE7D10A9B5B0600D48DE1B42588
:10627000099B2CAC0393039B002B51D03B78FE2B46
:106280000AD1002DD7DD7B78013D2370039B0134BB
:106290000237023B0393EEE7FF2B11D17B785E1CA4
:1062A0000993B542C7DBB91C320020000CF021F87D
:1062B000A419AD1B099E039B0336BF199B1BE9E77D
:1062C000164A9B009B58180009930CF00BFE060021
:1062D0008542B0DB0200099920000CF00AF8039B0C
:1062E000A419AD1B0137013BD4E7C0468004002050
:1062F00074FBFFFF040000209C0A0020FFFFFF004A
:1063000096090020D4FCFFFFB4090020940A002065
:1063100018000020EB4601008C040000604B0100D7
:106320002CABE41AB42C00D985E76A46127B1A55C7
:106330009AA8FEF724FB9AAA9A499FA8FEF7A3FB06
:1063400001009948FDF7E6FE9AAA98499FA8FEF732
:106350009AFB9AAA010027A8FEF7D6FA9AAA9449AE
:106360009FA8FEF790FB9AAA01002CA8FEF7CCFA92
:10637000012206991EA808F047FB1EA921A8FEF7D6
:106380000AFB9AAA8B499FA8FEF77DFB9AAB1C904B
:1063900021A924A81D9308F022FB1C991D9A24A86A
:1063A000FEF708FB24A808F0AFFA21A808F0ACFA21
:1063B0001EA808F0A9FA012207991EA808F024FBDC
:1063C0001EA921A8FEF7E7FA9AAA7B499FA8FEF723
:1063D0005AFB9AAB1C9021A924A81D9308F0FFFA40
:1063E0001C991D9A24A8FEF7E5FA24A808F08CFA57
:1063F00021A808F089FA1EA808F086FA059B002B50
:1064000000DB9CE06D4A9AA912A8FEF752FB129D90
:10641000139C6B4922002800FEF764FB01000498DE
:10642000FDF786FE049B002B61D010980BF09AFDBF
:106430000022644B0AF080FB07260B000200009646
:106440001EA808F0FFFA1EA921A8FEF7A4FA220050
:106450005D492800FEF746FB21A91C9024A81D9445
:1064600008F0BDFA1D9A1C9924A8FEF7A3FA24A8E7
:1064700008F04AFA21A808F047FA1EA808F044FAE2
:1064800011980BF06FFD00224E4B0AF055FB009661
:106490000B0002001EA808F0D5FA1EA921A8FEF7DD
:1064A0007AFA220049492800FEF71CFB21A91C901A
:1064B00024A81D9408F093FA1C991D9A24A8FEF7AD
:1064C00079FA24A808F020FA21A808F01DFA1EA8DD
:1064D00008F01AFA22003E492800FEF703FB0E23BB
:1064E0000CAA9B1801000020185EFDF72CFE0898EE
:1064F00009F07CFF374909F08BFA0222011C1EA823
:1065000008F082FA1EA921A8FEF745FA22003249B6
:106510002800FEF7E7FA21A91C9024A81D9408F092
:106520005EFA1C991D9A24A8FEF744FA24A808F0E4
:10653000EBF921A808F0E8F91EA808F0E5F9002415
:10654000264D24A99AA824952594FEF7AFFF28008C
:1065500008F094F8224A234D136827A901331360E9
:10656000280010220CF0D6FC2C741F4D15222CA9EB
:1065700028000CF0CFFC6C75069A1C4B1A601C4B63
:10658000079A1A60FEF78AF855E6099DB42D00D9DE
:10659000B4252A0039002CA80BF0ABFE00222CAB4E
:1065A0005A55C5E66450010085470100EF460100D9
:1065B00075460100F4460100F9460100FD46010060
:1065C00021470100D01263412E47010032470100EC
:1065D000364701000000A04174470100E41100208B
:1065E000A00A0020D7020020F8020020F0020020BC
:1065F000F4020020012C00D03CE1002800D01AE673
:10660000A0229AAD5200A2A92800FDF7D0FD2A00D1
:1066100087492E779FA8FEF736FA01008548FDF7D7
:1066200079FD2A0084499FA8FEF72DFA2A0001006F
:1066300027A8FEF769F92200069921A808F0E4F9D5
:1066400021A924A8FEF7A7F92A007C499FA8FEF7F4
:106650001AFA24A91E902CA81F9508F0C0F91E99BB
:106660001F9A2CA8FEF7A6F92CA808F04DF924A82B
:1066700008F04AF921A808F047F92200079921A853
:1066800008F0C2F921A924A8FEF785F92A006C496F
:106690009FA8FEF7F8F924A91E902CA81F9508F0D2
:1066A0009EF91E991F9A2CA8FEF784F92CA808F0D1
:1066B0002BF924A808F028F921A808F025F9059B52
:1066C000002B00DB9CE029005E4A14A8FEF7F1F9DC
:1066D000149D159C5C4922002800FEF703FA010076
:1066E0000498FDF725FD049B002B61D010980BF05A
:1066F00039FC0022554B0AF01FFA07360B00020046
:10670000009621A808F09EF921A924A8FEF743F9D4
:1067100022004F492800FEF7E5F924A91E902CA875
:106720001F9408F05CF91F9A1E992CA8FEF742F9F5
:106730002CA808F0E9F824A808F0E6F821A808F049
:10674000E3F811980BF00EFC0022404B0AF0F4F92C
:1067500000960B00020021A808F074F921A924A8D2
:10676000FEF719F922003B492800FEF7BBF924A9DE
:106770001E902CA81F9408F032F91E991F9A2CA87D
:10678000FEF718F92CA808F0BFF824A808F0BCF808
:1067900021A808F0B9F822002F492800FEF7A2F935
:1067A0000E230CAA9B1801000020185EFDF7CBFCFD
:1067B000089809F01BFE294909F02AF90222011C58
:1067C00021A808F021F921A924A8FEF7E4F8220065
:1067D00023492800FEF786F924A91E902CA81F94AF
:1067E00008F0FDF81E991F9A2CA8FEF7E3F82CA8D4
:1067F00008F08AF824A808F087F821A808F084F89F
:106800000025184C2CA99AA82C942D95FEF74EFE25
:10681000200007F033FF144C27A9102220000CF0B1
:1068200079FB15221149124825740CF073FBA3E67D
:10683000645001005A460100EF460100F446010091
:10684000F9460100FD46010021470100D0126341D5
:106850002E47010032470100364701000000A041E9
:1068600074470100E4110020D70200200147010015
:10687000F8020020032C00D0DDE4002800D0DAE488
:10688000059B002B00DBD6E4C0229AAC5200A2A9E3
:106890002000FDF78CFC220026779C499FA8FEF77C
:1068A000F2F801009A48FDF735FC220099499FA8AB
:1068B000FEF7E9F8220001001E9027A81F94FEF7BA
:1068C00023F80122069921A808F09EF821A924A8FE
:1068D000FEF761F8220090499FA8FEF7D4F824A99A
:1068E0001C902CA81D9408F07AF81C991D9A2CA8CD
:1068F000FEF760F82CA808F007F824A808F004F8C0
:1069000021A808F001F80122079921A808F07CF8D5
:1069100021A924A8FEF73FF8220080499FA8FEF78E
:10692000B2F824A91C902CA81D9408F058F81C99C2
:106930001D9A2CA8FEF73EF82CA807F0E5FF24A826
:1069400007F0E2FF21A807F0DFFF2100744A16A834
:10695000FEF7AFF8169D179C724922002800FEF73B
:10696000C1F801000498FDF7E3FB049B002B61D004
:1069700010980BF0F7FA00226B4B0AF0DDF807369F
:106980000B000200009621A808F05CF821A924A8B9
:10699000FEF701F8220065492800FEF7A3F824A9B4
:1069A0001C902CA81D9408F01AF81D9A1C992CA86C
:1069B000FEF700F82CA807F0A7FF24A807F0A4FF13
:1069C00021A807F0A1FF11980BF0CCFA0022564B3A
:1069D0000AF0B2F800960B00020021A808F032F885
:1069E00021A924A8FDF7D7FF220051492800FEF76E
:1069F00079F824A91C902CA81D9407F0F0FF1C998D
:106A00001D9A2CA8FDF7D6FF2CA807F07DFF24A81F
:106A100007F07AFF21A807F077FF220045492800F8
:106A2000FEF760F80E230CAA9B1801000020185EE8
:106A3000FDF789FB089809F0D9FC3F4908F0E8FF09
:106A40000222011C21A807F0DFFF21A924A8FDF7DD
:106A5000A2FF220039492800FEF744F824A91C901F
:106A60002CA81D9407F0BBFF1C991D9A2CA8FDF7BC
:106A7000A1FF2CA807F048FF24A807F045FF21A894
:106A800007F042FF099B032B32D92D4A9AA924A86B
:106A9000FEF70FF8249C259D2A492A002000FEF7C6
:106AA00021F801003878FDF743FB7E782A0026495B
:106AB00020007600FEF716F8002807D07F22037A20
:106AC000066093431A000A23134303722A001F49E6
:106AD0002000FEF707F80100B878FDF729FB1C49F4
:106AE0002A002000FDF7FEFF0100F878FDF720FBEB
:106AF0000023184C2CA99AA82C942D93FEF7D6FCB1
:106B0000200007F0BBFDFFF796FBC0466450010074
:106B10000A470100EF460100F4460100F946010072
:106B2000FD46010021470100D01263412E470100BC
:106B300032470100364701000000A04174470100C0
:106B4000764601003A4701004047010047470100EF
:106B500026470100E4110020F8B5B32501246D009B
:106B6000174E300006F00CF9002828D0300006F04F
:106B700043F9C0B2134E0A2801D00D2814D1124F88
:106B800032683B78002A09D0002B09D10F48835482
:106B9000FFF732F8002333603B70E1E7002BF9D0B8
:106BA0000B48FEF7DFFCF5E73368AB4204D85A1C0C
:106BB0003260064AD054D3E7034B1C70D0E7F8BDCF
:106BC000E4110020780400207C0400200E03002043
:106BD0009946010070B5384BBCB01B78002B01D032
:106BE000FFF768FAFFF7B8FFFFF738FA07F0A0FFE2
:106BF000324A334913680500C31A8B4202D9106028
:106C0000FDF736FC2F4A30491368EB1A8B4204D942
:106C10001560FEF711FDFDF741FD2C4B1B78002B95
:106C200047D02B4B1B78002B43D02A4B1C78002CD1
:106C30003FD1294E3368AB423BD8FA2120004901AD
:106C400007F057FC254BED18254B28181B683060C2
:106C5000002B05DD09202349584308F0A5FB04005B
:106C6000FA21214B8900186808F014FB05ABFF2CB2
:106C700000DDFF241D4A1C70128852085A70FF283C
:106C800000D9FF201A4A1B4912789870DA700A88D6
:106C900006A8013292B20A800021029101310191CD
:106CA000033100910139FDF7BFFD010006A8FEF791
:106CB00041FF3CB070BDC0469C0A0020E8020020A5
:106CC000CF070000EC02002087130000D60200204E
:106CD000A4090020B4090020B009002060EA0000E7
:106CE000A8090020C409000090090020E005002048
:106CF000E3050020A80A0020E12170B5490286B012
:106D0000694805F03BFF182008F006F905001A2035
:106D100008F002F9040007F011FFA4026840604087
:106D200007F0D6FB6149012007F0E3FB0125604B2A
:106D3000012118800C2008F05DF900210C2008F0DA
:106D4000A5F9642007F02AFF5A4E300002F072F8CD
:106D50005949300002F08EF8584C00952B003C2227
:106D60000221200002F0D4FB002813D0544B200055
:106D70001D7002F0BBFB2900200003F034FB002350
:106D80002361504B50496361200007F07FFC2000D5
:106D900002F080FE4D4C42223100200005F0A4F8A4
:106DA000002816D001254A4B4A4A002120001D70B8
:106DB00005F0FFF8474A0021200005F001F9FA220A
:106DC0002900200005F0EEF8424A0221200005F0DB
:106DD000FFF800230593404B082504930A2312264D
:106DE0003E4C0293033B00930395019602333C4AC9
:106DF0003C49200000F0B4F9002808D0FA24E4004F
:106E00003948FEF7AFFB200007F0C8FEF8E7012283
:106E10003649200000F018F90028EFD13049200051
:106E200000F068FF0028E9D12900200000F0E4FF0D
:106E30000028E3D10521200000F0FEFF0028DDD16D
:106E400044223100200001F018F80028D6D128494A
:106E5000200000F025FB0028D0D11021200000F0F8
:106E60004DF90028CAD12900200001F023F800289C
:106E7000C4D101211F4B00911F4A200001F0D8F816
:106E80000028BBD120001D4900F002FA1C49200057
:106E900000F01CFFFDF7ECFAFEF70EFBFEF7CCFB53
:106EA000FDF7FCFB06B070BDE4110020FFFF000001
:106EB00096090020D40A0020801A060068020020EB
:106EC000D402002001000100794F0100E4050020F8
:106ED000D50200204C040000CDCCCC3F8004002023
:106EE0000000FA420000D9438E4F0100CDCC664429
:106EF00000000C43211000000F1D0000FD400000A9
:106F0000FFFFFF00F7B51D0008AB1B7804000F0062
:106F1000160000210322083001930BF006FA8022AC
:106F200022736A461049127961610121002362745B
:106F3000FF226018E372A773E6732574A2742376A8
:106F40006176C377A01CC277E01CC27723609623CA
:106F5000064A9B0162626360054A064B2000E261BB
:106F600061732381FEBDC04680841E00983A0000F4
:106F7000AC0A00200D0A000010B5FF2801D008F06F
:106F800039F810BD10B5FF2801D008F07FF810BD0A
:106F900010B50400002902D0012910D010BD807B5B
:106FA0000121FFF7E9FFA07B0121FFF7EBFF637BE6
:106FB000002BF3D0E0690368DB6A9847EEE7437B78
:106FC000002BEBD0006861680368DB699847E5E750
:106FD00010B50023FF2802D008F084F80300180041
:106FE00010BD10B507F0BEF910BD10B507F003FED7
:106FF00010BD10B507F0D2FD10BD10B507F0F0FDC3
:1070000010BD10B507F094FD10BD10B507F096FD4A
:1070100010BD70B5431CDB7F04001500002B08D0A9
:10702000831CD87F0334FFF7ADFFE07F2900FFF713
:10703000A9FF70BD10B5040000F0CEF8014B200090
:10704000236010BD8456010073B50C1C0600204956
:10705000201C150008F002FB002835D01D49201C1B
:1070600008F0E8FA00282FD0002D0ED01A49201C75
:1070700008F0EAFA01AD00280CD0184B2B8029004B
:10708000300000F092FB002803D1211C300000F0FA
:1070900057FB76BD1249201C08F0D6FA002801D013
:1070A000104BEBE71049201C08F0CEFA002801D065
:1070B0000E4BE3E70E49201C08F0C6FA002801D069
:1070C0000C4BDBE70C4BD9E70C204042E1E7C04614
:1070D000000016430000704400006144E1E9FFFF36
:1070E00000805444D7DBFFFF00804044C1C5FFFF50
:1070F0000000E6437581FFFF6B6F0000F0B5CDB275
:107100002B001133DBB285B00400272B23D80F26C8
:1071100000236E44337032000133104900F082F9CD
:10712000002816D101270200009707230421200020
:1071300000F0BDFA00280CD104222900200000F044
:107140003DFB002805D13B0032000449200000F03F
:1071500095F905B0F0BD0D204042FAE7E7080000C0
:10716000F0B5040087B00E1C111C1A000CAB1B7884
:107170000DA8059311AB1B780EAD0FAF00782D78DD
:107180003F880393109B009002930197059B20007A
:107190006DB201F017FC00280FD10122311C200034
:1071A000FFF752FF002808D129002000FFF7A6FFB3
:1071B000002802D1200000F09FF907B0F0BD704711
:1071C0007047FC3010B5806A00220121FFF721FFD3
:1071D0000120404210BD000070B504000D00FF22E8
:1071E000104901F07FFC104B9A21083323602300E3
:1071F00000220120FC334900DA621A635A636054AA
:107200001031DA631A645A646252023162540231F4
:10721000625200219D622000196559659A65DA6500
:1072200070BDC0460024743FBC56010070B5040018
:10723000FC34A36A0E0005000121187CFFF79CFEB8
:10724000A36A0021187CFFF79DFE0120FFF7D1FE05
:10725000A36A0121187CFFF795FE002E12D0FFF7DC
:10726000D0FE06002B6828005B689847041E09D0F2
:10727000FFF7C7FE054B801B984204D80A20FFF792
:10728000B8FEEFE70024200070BDC046B70B000039
:1072900010B5FC30836A0422D87BFFF7A2FE10BD34
:1072A000F0B589B01F0010AB1B781600029311AB2C
:1072B0001B78019005930300FC339A6A0491130034
:1072C00006A91433D46921CB21C10021907BFFF79B
:1072D00059FEFFF796FE0390019DFC35AB6A587C82
:1072E000FFF776FE00280FD0FFF77FFEFFF789FE3D
:1072F000039BC01A129B9842EED3AB6A0121987B84
:10730000FFF740FE444882E023680699DB69079A4C
:1073100020009847049DAE192368B54205D029780E
:107320009B68200098470135F6E7002F41D00E27D3
:107330000E9D029BEE182368AE4257D09B682978B9
:107340002000984703003B40062B23D106252368E5
:1073500020001B6A9847019C0121FC34A36A987B9A
:10736000FFF710FE059B002B42D00120FFF745FEE2
:10737000FFF747FE0600A36A587CFFF729FE0028A6
:1073800036D0FFF732FEFFF73CFE129B801B98427F
:10739000F1D3B7E7082B01D10825D8E70A2B01D193
:1073A0000A25D4E70138C0B20135FD28C3D9FF252D
:1073B000CDE79B683900200098470E230340062B39
:1073C000C4D0082BE8D00A2BEAD00138C0B2FD287F
:1073D000EDD80F9D029BEE182368B54206D09B683E
:1073E00000212000984728700135F5E70025AEE719
:1073F000082D0ED003D8062D84D0002007E00A2DDA
:1074000004D0FF2DF9D10220404200E0034809B02A
:10741000F0BD0348FBE7C0463FFDFFFF3DFDFFFF1A
:107420003EFDFFFF30B51D2589B007AC2570A1706A
:107430000D0A07496570049102930121002303910D
:107440000192009303222100FFF72AFF09B030BD0B
:107450008813000070B586B00AAC24780BAD2D7887
:1074600002940024044E0093049603950194012392
:10747000FFF716FF06B070BD8813000030B50D256C
:1074800085B003AC2570A1700D0A012165700191D2
:107490000093210013000322FFF7DCFF05B030BD8D
:1074A00073B50C1C06000021201C08F0D7F800283A
:1074B00018D00E49201C08F0BDF8002812D06B46E9
:1074C000201CDD1D0AF0BAFD0022094B09F034FB37
:1074D00008F0E6F8012328702A0006493000FFF77B
:1074E000CDFF76BD11204042FBE7C04600000C43B3
:1074F00000000440E708000037B56B46DC1D0023A0
:1075000022002370084901330500FFF78BFF002894
:1075100009D11E232278044913432370220001233A
:107520002800FFF7ABFF3EBDD808000073B56B46DF
:10753000DC1D00230E002370220001330A490500E0
:10754000FFF770FF00280BD122780423002E08D10A
:107550009A4322700123220003492800FFF78EFF7F
:1075600076BD13432370F5E73607000030B585B0CC
:1075700003AC63700E2501232570019300920B006C
:1075800002222100FFF766FF05B030BD30B589B09B
:107590000D000CA90C781F2169440D700293002383
:1075A000054D019301330092049503941A00FFF7EF
:1075B00077FE09B030BDC0468813000003000022EA
:1075C00030B5FC3385B004000D00986A1100FFF758
:1075D00020FD012303AA1570802100932000FFF7EE
:1075E000D5FF05B030BD10B50021FFF7E7FF10BD96
:1075F0001FB50F226A44002907D1117001239D2174
:107600000093FFF7C3FF05B000BD01231370F5E73A
:107610001FB50B0C03AA13700B0A53700123917052
:10762000009383210233FFF7B1FF05B000BD1FB502
:107630000B0C03AA13700B0A537001239170009373
:1076400082210233FFF7A2FF05B000BDF7B5002489
:1076500010490500FFF7EBFF0A20FFF7CAFC2600E0
:107660006B46DF1D00233A003B700B4901332800B5
:10767000FFF7D8FE01223B781340A340A4181E4315
:10768000F6B2082CECD12B6828005B6898473000D4
:10769000FEBDC046FFFFFF0019080000012307B52B
:1076A00000930023C5211A00FFF770FF0EBD30B50F
:1076B00085B008AC257803AC637001232170A270FB
:1076C000E5702200009395210333FFF75FFF05B0BB
:1076D00030BD7FB508AC258802AC6170E270637183
:1076E0000E0A110A1A0A2B0AA3710123A170227132
:1076F0002670E5710093073322001900FFF746FF5B
:1077000004B070BD1FB50B0A03AA1370012351709A
:107710000093DB181900FFF739FF05B000BD1FB556
:107720000B0E03AA13700B0C53700B0A93700123FA
:10773000D170009386210333FFF728FF05B000BD09
:1077400010B50400081C9821C90508F039FB0AF09F
:1077500075FC0022044B09F0F9FD07F0A1FF0100C0
:107760002000FFF7DCFF10BD0000A03F030030B594
:10777000FC330D0085B0040001220021986AFFF758
:1077800048FC002D0AD1002303AA13700133009393
:10779000D1212000FFF7FAFE05B030BD29002000FE
:1077A000FFF7BDFF0028EED0F6E7012307B50A007A
:1077B00000939821DB18FFF7E9FE0EBD1FB50123EA
:1077C00003AC217062708E2100932200DB18FFF75A
:1077D000DDFE04B010BDF0B587B002929A222C25D0
:1077E00003935200825C0CAB04000F001B78FF3542
:1077F000002A28D02A230126FF33C35C300098409A
:1078000008F03EFE2300FC33596B08F001F9832198
:10781000C90507F023FF002813D066556B461B7A75
:1078200005AA53706B461B7B17709370635D8B21A9
:10783000D3700123200000930333FFF7A7FE07B0A6
:10784000F0BD6055EAE74355E8E77FB5089D02AC17
:1078500023712B0C63712B0AA37101230E0C26706C
:107860000E0AA170E2706670E571220000938B2110
:107870000733FFF78BFE04B070BDF0B587B00393FC
:107880000CAB1F780DAB1D780E002900040002928E
:10789000FFF74CFE002812D104AA330A13706B467E
:1078A0001B7B5670D3706B461B7A97701371012344
:1078B00055718C21009320000533FFF767FE07B058
:1078C000F0BDF0B58BB010AC267811AC24780393E2
:1078D000049412AC257813AC24780B0A059414ACEC
:1078E000277807AC23706B461B7B6170E3706B4697
:1078F0001B7DE271A3716B461B7CA7702372012371
:1079000026716571220000938C210833FFF73EFE3B
:107910000BB0F0BD1FB5012303AC217062708F2145
:1079200000932200DB18FFF731FE04B010BD1FB535
:10793000012303AA117000939621FFF727FE05B0DB
:1079400000BD10B50021FFF7F2FF10BD10B50121F9
:10795000FFF7EDFF10BD1FB5002303AA138001330D
:10796000009307210133FFF711FE05B000BD0000B1
:107970000022F0B50F0087B011000600FFF7CAFF24
:10798000041E54D104AD2F7001272A0000973B003C
:107990008A213000FFF7FAFD041E48D120232A0077
:1079A0002B70932100973B003000FFF7EFFD041E82
:1079B0003DD103232B702A23FF33F35CA8800D33C2
:1079C0006B700A23A8716B802A000097033B882103
:1079D0003000FFF7DBFD041E29D116493000FFF708
:1079E00091FE230003900094220021003000FFF755
:1079F00070FE039B03431CB2002C18D17F232A0086
:107A00002B70892100973B003000FFF7BFFD041E5B
:107A10000DD10520FFF7EDFA3300FC339B6A587C4B
:107A2000FFF7D6FA002802D0FFF7DFFAF4E72000CC
:107A300007B0F0BDFF03000070B586B00AAC0BAD17
:107A400024782D7801930023044E03950496029424
:107A50000093FFF725FC06B070BDC04688130000F8
:107A60001FB51E240B0003A90C801D3C009201943D
:107A70000222FFF7E1FF04B010BD000030B589B06D
:107A80000D000CA90C781F2169440D70029300238E
:107A9000044D01920495039400930122FFF700FC2A
:107AA00009B030BD881300001FB5002303AC23804C
:107AB00001330093220001331321FFF7DFFF207809
:107AC00004B010BD1FB5002303AC2380A3700133A5
:107AD0002200009315210233FFF7D0FF207808F031
:107AE000CFFCBF21090608F06BF904B010BD1FB52B
:107AF000002303AC238001330093220001331221C1
:107B0000FFF7BCFF237860781B02184304B010BD58
:107B1000F7B5036801915B68050016009847041EDD
:107B20001ED12800FFF7E3FF60232700184200D092
:107B3000073FFF2E05D12B6801219B6A280098473B
:107B40000600F2B201992800FFF78AFF041E07D150
:107B500004492800FFF7D6FD0400002F00D03C00A8
:107B60002000FEBDFF0300001FB50F24FF236C445F
:107B70002370FE3B009322001121FFF77FFF207846
:107B800004B010BDF7B50500FFF7EEFF07000128B0
:107B900040D12B6828005B689847041E2ED12E0028
:107BA000FC3602003900B06AFFF733FAC0225200F7
:107BB0000094230011002800FFF78BFD041E1DD147
:107BC00015492800FFF79EFD041E17D12800FFF776
:107BD00065FD041E12D1B36AD87BFFF7F9F90028BE
:107BE00002D1FFF702FAF6E72800FFF780FFC3058E
:107BF00006D509492800FFF785FD084C2000FEBD89
:107C00000124030604D504492800FFF77BFD0F2457
:107C10006442F3E71424FBE7FF03000042FDFFFF8B
:107C2000002330B587B00093022226490400FFF7F5
:107C300050FD051E22D1020001002000FFF76AFE60
:107C4000051E1BD120492000FFF75CFD2000FFF737
:107C50008BFF012815D123002E2096222100FC3312
:107C6000FF30DB6D205C5200FE31098EDBB20090EC
:107C7000A25C01952000FFF700FE0500280007B078
:107C800030BD00281BD105300490FA3003904730F6
:107C9000205C442302904620FF30205CA12201900A
:107CA000A220A4214000205CFF3352004900009034
:107CB000E35CA25C615A2000FFF703FEDDE70125CB
:107CC0006D42DBE762020000FF03000070B50400B4
:107CD0000D00FFF7A5FF00280AD12300FC330200A6
:107CE0000121986AFFF795F929002000FFF79FFC12
:107CF00070BD000073B504000D1CFFF735FF0600D2
:107D0000012800D06EE00021281C07F0A7FC002805
:107D10001BD03649281C07F08DFC002815D0FC210B
:107D2000281C890508F04CF80AF088F9304A314BD4
:107D300008F0E6FB07F0B4FCC0B20F2842D00ED822
:107D4000052824D003D803281CD008204BE007289E
:107D500021D00A28F9D1942309225B0015E03E289E
:107D600038D007D8142831D01F28EED1942303220D
:107D70005B000AE07D2831D0FA28E6D19423062260
:107D80005B0002E0942300225B00E25406E09423AF
:107D900008225B00F9E794235B00E65423002C20C3
:107DA000FC335D63942295232A21FF30205C5B0025
:107DB0005200FF310090E35CA25C615C2000FFF7A1
:107DC0000AFD76BD942302225B00DEE794230A229B
:107DD0005B00DAE7942304225B00D6E794230522B4
:107DE0005B00D2E714204042EBE7C0460000FF43AF
:107DF0007B14AE47E17A843F37B504000D00FFF7EE
:107E0000B3FE012813D16B1F072B13D82A232C2173
:107E10009422FF33E554FF31615C0133520000913D
:107E2000E35CA25C29002000FFF7D5FC3EBD1420D6
:107E30004042FBE70920FBE737B505000C00FFF7E0
:107E400093FE012814D1631F032B14D895222C20F4
:107E50002A21231F5200DBB2AB54FF30285C023AC8
:107E6000FF310090AA5C695C2800FFF7B4FC3EBDBE
:107E700014204042FBE70A20FBE773B505000C0025
:107E80001600FFF771FE012811D10F2123003009E0
:107E90008B430E40E821034301AA240113703443AD
:107EA0000223C90028005470FFF7E8FA76BD1420B9
:107EB0004042FBE730B587B004000D00FFF754FEE9
:107EC000012814D123000021FE331D86023BDB6D07
:107ED00001912E219622FF31615C52000091DBB2AC
:107EE000A25C29002000FFF7C8FC07B030BD0028C5
:107EF0001CD10521A42304915B00FA31E5520391C2
:107F00004731615C442302914621FF31615CA1222B
:107F10000191A2214900615CFF3352000091E35CB2
:107F2000A25C29002000FFF7CCFCDEE701204042E4
:107F3000DBE70000F7B504000D1CFFF715FE002875
:107F400037D10021281C07F06BFB002800D01B4D07
:107F5000281C0AF073F81A4A1A4B06000F0007F0A3
:107F600043FB002828D01849281C07F063FB002891
:107F700022D00022154B3000390009F0E7F98323A5
:107F80000022DB0509F0E2F90022114B08F0D4FDD4
:107F900007F086FB2100A0234222FC3108645B002D
:107FA0000090FF32E35CA25CC96B2000FFF74DFC40
:107FB000FEBD14204042FBE76620FBE79A99193F7B
:107FC000333333333333E33F0000484300408F40C3
:107FD00080847E4137B504000D00FFF7C5FD002801
:107FE00020D1042D21D842222800FF3207F048F981
:107FF00003121416180000232100A354A023FC31FF
:10800000086C5B000090E35CA25CC96B2000FFF78A
:108010001CFC3EBD0823EFE70923EDE70A23EBE74D
:108020000B23E9E714204042F3E76A20FBE7000056
:10803000F0B58BB0079310AB04000D0017001E784D
:10804000FFF792FD002851D1012D40D0002D03D023
:10805000022D44D0344838E0A12301225B00E254D1
:1080600005200490FA3003904730205C44230290AE
:108070004620FF30205CA1220190A220A4214000D4
:10808000205CFF33520049000090E35CA25C615A1F
:108090002000FFF716FC002817D109AD3B0A2B7012
:1080A0002A000223214920006F70FFF7E7F900281A
:1080B0000BD1079B2A001B0A2B706B461B7F1C49A8
:1080C0006B7020000223FFF7D9F90BB0F0BDA1239C
:1080D0005B00002E01D00422C1E7E654C0E7A123D3
:1080E00006225B00002EBAD1E554B9E7012818D169
:1080F00096225200002D12D0A0542300210000200F
:10810000FC33FE31DB6D098E01902E20FF30205CA8
:10811000DBB20090A25C2000FFF7AFFBD5E7A554CF
:10812000EBE701204042D0E743FDFFFFBC06000023
:10813000BE060000F0B58BB004000D000792FFF7FB
:1081400013FD002850D14627FF37002D1AD14423B4
:10815000A122A42105300490FA30E5550390473060
:10816000FF3352004900205CE35CA25C615A02903C
:108170000195A2204000205C00902000FFF7A1FBA9
:108180000BB0F0BD0126D72109ADE65533002A001A
:10819000C9002000FFF746F90028F1D1079A2B7893
:1081A0001212B34316401E436B46D7211B7F2A0091
:1081B0006B70C900022320002E70FFF75FF90028C2
:1081C000DED14423A122A42105300490FA3003908B
:1081D0004730205CFF330290E05D52004900E35CD1
:1081E000A25C615A0190C4E714204042C8E7802293
:1081F0004B1E994110B5C9B25200FFF79BFF10BD4D
:10820000F7B5040000912600FFF7AEFCFC3601280C
:1082100051D12A23FF33E55C2D48A84008F030F9FE
:108220002C49071C706B07F0CBFD011C381C07F0B4
:10823000EFFB07F01DFA6B1F0600012B38D8002258
:108240001927254BA9009E4202D929003E318900F9
:108250002E23FF33E05CC9B243424341584214230A
:108260000340962001934000205C009B4000C01812
:108270004000451BAD00019BAD18ED182DB2281C28
:10828000002D00DA00204B1E00B2C01807F08CF859
:1082900095235B0082B2E05CFE3404305043238EB1
:1082A000800008339B00DF19C7197743B808FEBD6B
:1082B00008221127C5E7009BF56BD800684309F039
:1082C0008BFE0022054B09F041F807F0E9F9EEE7D3
:1082D00010270000000020417F3E00000000503FBA
:1082E000F0B585B00293036804005B680E001700C8
:1082F0009847002867D1FF2F67D82000FFF734FC8C
:1083000001282ED139002000FFF77AFF03235843BC
:108310004308019323683A00DD683100029B200086
:10832000A84700284FD1FEF770FE05002600FC3656
:10833000B36AD87BFEF74CFE00281BD1FEF755FE32
:10834000FEF763FE019B401B9842EFD921492000B4
:10835000FFF7D8F9236820005B6898470520404262
:1083600031E0002833D139002000FFF749FF052311
:108370004343CEE7FEF749FE0190380009F02CFE9A
:108380000022154B08F0E2FF019B02900391581B5D
:1083900008F076F809F052FE0022104B08F0CCFBF2
:1083A00002000B000298039908F0C6FB09F098FE42
:1083B000084970652000FFF7A5F9002803D123685C
:1083C00020005B68984705B0F0BD0420C7E7012096
:1083D000C5E7C046FF0300000000204080842E4116
:1083E000F7B56B46DC1D00232200237016490133CC
:1083F0000500FFF717F8002820D12800FFF7B4FB8D
:1084000001281CD12B00FC33586B09F017FE002209
:108410000E4B09F00DFA49004F080D4A0D4B39007B
:1084200007F0CEF800280AD0042223789343237063
:108430002200012304492800FFF720F8FEBD042391
:1084400022781343F3E7C0468908000000407F40CC
:10845000FCA9F1D24D62503FF0B5050087B00F0086
:108460001600FF2A75D8A2235B00C35C002B01D045
:10847000FF2A6ED02800FFF777FB01284AD1290098
:108480000020FE31098E01902E209622FF30285CBC
:1084900052000090F3B2AA5C2800FFF7EEF9041E28
:1084A00059D10090030001222D492800FFF711F94E
:1084B000041E50D1020001002800FFF72BFA041E11
:1084C00049D10300F2B239002800FFF74FF8041E2B
:1084D00041D124492800FFF715F9041E3BD128009B
:1084E000FFF77EFF041E36D12E00FC36010001226C
:1084F000B06AFEF78EFD21002800FFF789F8041E00
:1085000029D1B36A587CFEF763FD002823D0FEF71B
:108510006CFDF6E7002821D105300490F0B20390FD
:10852000A3204000285C442302904620FF30285CB2
:10853000A1220190A220A4214000285CFF33520018
:1085400049000090EB5CAA5C695A2800FFF7B9F972
:10855000A5E704246442200007B0F0BD0124F9E738
:1085600001020000FF0300002E2373B5FF33C35C3C
:108570000400012B02D01420404276BDFFF7F4FA2C
:1085800006000128F7D16B4692219A1D00230901AC
:10859000137003002000FEF771FF0028EDD16B4639
:1085A000DD1DD8712A00330008492000FEF73AFF8C
:1085B0000028E2D102232A78044913432B702A00B1
:1085C00033002000FEF75AFFD7E7C04644090000F9
:1085D000F7B5036801915B6804001500984700280F
:1085E00000D082E02000FFF7BFFA012847D12A23FC
:1085F000FF33E35C984007F043FF2300FC33596BE3
:1086000007F006FA09F01AFD00223F4B08F09EFE23
:1086100000223E4B08F09AFE07F042F8060007F0F1
:108620002FFF09F00BFD0022394B08F085FA07F007
:1086300037F801002000FFF749FB002855D1FEF76D
:10864000E4FC07002300FC339B6AD87BFEF7C0FCE8
:1086500000283FD1FEF7C9FCFEF7D7FCC01B8642BD
:10866000F0D22000FFF780FF2A492000FFF74AF8E8
:10867000236820005B6898470620404235E00028C8
:108680003FD1281E00D1FF2009F0A6FC0022224B7A
:1086900008F05CFE2300FC330600D86B0F0007F0E7
:1086A000EFFE09F0CBFC02000B0000201B4908F094
:1086B00043FA09F015FD09F0C1FC02000B0030007F
:1086C000390008F039FA0022154B08F03FFE00226D
:1086D000144B9FE72E23FF33E35C012B06D0236866
:1086E0002A001B69019920009847FEBD2000FFF772
:1086F0003BFA0128F3D12000FFF736FF0028EED027
:10870000F3E70120B9E7C0460000594000408F4020
:1087100000402F40FF030000000020408084CE4135
:1087200080842E41000014401FB5002303AC238039
:10873000A37001330093220002331421FFF79EF946
:108740002078637800041B021843A378184304B010
:1087500010BD000070B5FFF7E7FFC0B209F002FCE2
:108760000400802000060D180022044B2900200080
:1087700008F0ECFD09F0B4FC70BDC0460000E03F1D
:1087800010B50400FFF7F0F9012812D12000FFF71F
:10879000CBFF030AD8B21B0608D409F0E3FB002282
:1087A000054B08F0D3FD09F09BFC10BD0138FF38E4
:1087B000F3E70248F9E7C0460000D03F0000A0C13F
:1087C0001FB50024012303AA148017210093DB188E
:1087D000FFF754F9200004B010BD0000F0B50368A5
:1087E00089B05B68039004920E1C98470398FFF7CA
:1087F000E7FF830602D50398FFF7ADF87000400845
:1088000009F01CFC5F4A604B06F0DAFE0590002878
:1088100005D001210398FEF709FD09B0F0BD301C19
:1088200009F00CFC594A5A4B04000D0009F000F8FD
:1088300049004F08534A544B390006F0C1FE002846
:1088400020D06A46127D07AB1A70049807F018FE14
:1088500009F0F4FB00224F4B08F06EF906F020FF00
:1088600007AA030C5370030A9370039B0499FC330B
:1088700099650123D0709721009303980333FEF785
:1088800085FECAE7444A454B2000290008F0D0FF86
:1088900049004F083B4A3C4B390006F091FE002846
:1088A00002D007AB0122CFE73D4A3E4B2000290012
:1088B00008F0BEFF49004F08324A334B390006F03A
:1088C0007FFE002802D007AB0222BDE72F4A364BBD
:1088D0002000290008F0ACFF49004F08294A2A4B24
:1088E000390006F06DFE002802D007AB0322ABE78B
:1088F000294A2E4B2000290008F09AFF49004F0812
:10890000204A214B390006F05BFE002802D007AB5D
:10891000042299E71D4A264B2000290008F088FF11
:1089200049004F08174A184B390006F049FE002845
:1089300002D007AB052287E700221E4B200029004A
:1089400008F076FF49004F080E4A0F4B390006F039
:1089500037FE002802D007AB062275E7164A174BF0
:108960002000290008F064FF49004F08054A064B23
:10897000390006F025FE002802D007AB072263E786
:108980000F484AE7FCA9F1D24D62503F9A99999954
:108990009999F93F00402F40333333333333FB3F52
:1089A000CDCCCCCCCCCCFC3F9999014033330340A7
:1089B00099990540000008406666666666660A404A
:1089C00041FDFFFFF0B5050087B003930CAB1B78AA
:1089D000FC3504930DAB1B88040002930FAB1B788E
:1089E0000F1CA86A002101920593FEF7D1FAAB6A29
:1089F0000021D87BFEF7C0FAAB6A0021587CFEF755
:108A0000BBFA6A462A231279FF336F63E2540422C9
:108A1000013BE2546A4623001289FE331A86002283
:108A20000126AA6503329A85DE85FF233100EB65B6
:108A30002000FEF7FBFB00284AD1236820005B687A
:108A40009847002844D131002000FEF791FF00280C
:108A50003ED100210E9806F0F7FD002831D1019992
:108A60002000FFF7C9F9002832D1391C2000FFF798
:108A700041F900282CD103992000FFF7DDF90028E7
:108A800026D1442204992000FFF7F7F900281FD1CE
:108A900002992000FFF70EFA002819D10F49200093
:108AA000FEF7FEFC002813D101212000FEF7A0FDF7
:108AB00000280DD1059B2000002B0BD0FEF741FFB5
:108AC00006E0074A0E992000FFF788FE0028C6D06E
:108AD00007B0F0BDFEF73AFFFAE7C046000070426B
:108AE00088130000034B4160036000238260838190
:108AF0007047C0460457010070B506000C008D1881
:108B0000AC4207D0336821789B68300098472070CA
:108B10000134F5E770BD7047704710B50400406838
:108B200003F07AFD0023237610BD10B5406803F0F2
:108B300098FD10BDF8B5050040680C0003F08CFDF1
:108B40002B68E7B2260A9B68012810D1390028005B
:108B5000FF2798472B68BC4304439B6831002800DB
:108B60009847030220003840184380B2F8BD310016
:108B700028009847FF262B680002344004439B6876
:108B8000390028009847B4432043EEE710B50400AD
:108B900006F05AF8200010BD10B54B1C0BD0102960
:108BA00009D0EFF3108472B6102905DD0223437655
:108BB000002C00D162B610BD0123427E1A434276DA
:108BC00018224A430449891816228A569340C269DA
:108BD0001343C361ECE7C046C86B01004B1C17D0C0
:108BE000102915D0437E9B0712D4EFF3108272B682
:108BF00018234B430749C9180123897D49B28B408B
:108C0000C1699943C16100D14176002A00D162B6A1
:108C10007047C046C86B0100437E002B05D09A0701
:108C200004D5837E002B00D062B67047DB07FCD5ED
:108C3000C369024A9BB2D360F7E7C0460018004000
:108C4000037E002B04D143768376C3610133037620
:108C5000704700007FB5036902AE04000D00029169
:108C600072608B4203D1828AB3889A4226D0200058
:108C700006223100103009F03CFB606803F0E3FC91
:108C80007379E17A013B581E8341227B009360682F
:108C9000002303F075FE33790021013BDBB2022B88
:108CA00001D8074AD15C074B2A009D4200D91A001F
:108CB000606803F099FC606803F0BBFC7FBDC046B0
:108CC0003C570100001BB70070B518260400FFF7E1
:108CD000B7FF33000821207A0D4D4343EB18595656
:108CE00006F018FA33000821A07A4343EB185956CE
:108CF00006F010FA0821607A4643AD19695606F06D
:108D000009FA044B200006CBFFF7A4FF70BDC04654
:108D1000C86B0100CC0A002007B5437E0091019288
:108D2000002B07D09A070AD5EFF310835A4253411C
:108D3000837672B60099019AFFF78CFF07BDDB07B7
:108D4000F8D5C369014A9BB29360F3E7001800406D
:108D50000E490F4B10B501220B6000234A710B71B5
:108D60000C490D48083101600C49427541600C49BD
:108D7000C27201811421036181720375094A0A4993
:108D80000376037306F074FA10BDC046CC0A0020C7
:108D900000093D0040570100AC0A0020B811002036
:108DA0001215000000000020198B00000020704701
:108DB00010B503689C6B0123A04710BD8C230022D3
:108DC0009B00C154103BC3185A609A60DA600123BB
:108DD0008375704710B5036801211B6B984710BD60
:108DE000F8B505000E0017000024BC4208D02B681F
:108DF000315D1B6828009847002801D00134F4E752
:108E00002000F8BDFC30406A704770478E239B00FD
:108E1000C15070478D239B00C15070470300FC3345
:108E20005A6A002A03D01B6AC018007E70470120CE
:108E30004042FBE770B5060018250C49006903F0B5
:108E4000E9FD306903F027FC2B000821307D084C38
:108E50004343E318595606F05DF90821707D4543F8
:108E60006419615606F056F970BDC046A08601002F
:108E7000C86B010070B504000D00006903F020FC10
:108E80002900206903F0C6FD206903F004FC70BDD1
:108E900010B5006903F014FC10BD0000F7B5019394
:108EA000FA238026002504009B008360134B760084
:108EB00008330F004560290000920360320018302B
:108EC00009F033FA23002000FC332530DD61320045
:108ED0001D6229005D62FF3009F027FA88239B009C
:108EE000E3185D609D60DD606B461B78276123752C
:108EF0006B461B79A57520006375FEBD7C5701008C
:108F000070B506001825006903F05FFD306903F0B5
:108F1000C2FB2B000821307D064C4343E318595611
:108F200006F0F8F80821707D45436419615606F093
:108F3000F1F870BDC86B010010B50022FFF7E0FF2B
:108F400010BD0300802210B5FC33DC68520094424F
:108F500008D05A6881545A680132D2B25A60DA682D
:108F60000132DA6010BDF7B50400171E019302D17B
:108F700000252800FEBD03000022FC33DA611A62DE
:108F80005A620069013203F0CDFB061EF0D02300C7
:108F900020691833009303F058FC01000098FFF794
:108FA000D0FF01252069BD4214D003F02CFC00281D
:108FB0000FD0206903F096FB0221206903F09CFB8F
:108FC000206903F042FC01000098FFF7BAFF013569
:108FD000E8E70600206903F07DFB019B002B06D02B
:108FE000002E06D00321206903F086FBC1E7002E86
:108FF000BFD1013DBDE7002310B5827D9A420CD060
:10900000882292008218D46880225200944204D0B0
:109010002530FF30FFF795FF0123180010BD030036
:10902000FC33DA68002A09D09A68805C9A680132B9
:10903000D2B29A60DA68013ADA60704701204042A1
:10904000FBE700228C2370B59B00827504000E00A4
:10905000C15C006903F066FB002806D1032120698A
:1090600003F04AFB0225280070BD88239B00E3180B
:10907000DD68002D11D020002530FF302569FFF775
:10908000CEFFC1B2280003F08FFB0028EDD10321F1
:10909000206903F031FB0325E5E7002EE3D003212F
:1090A000206903F029FBDEE710B51830FFF7B7FFA2
:1090B00010BD70B50400006903F09CFB002815D0BA
:1090C000206903F0AEFB002811D0206903F00AFBF1
:1090D0000321206903F010FB8E239B00E558002D2F
:1090E00035D10023FC34E3612362636270BD2069E3
:1090F00003F0A1FB002809D0206903F097FB0028AA
:1091000004D0206903F09CFB0028DED0206903F026
:1091100092FB002821D1206903F07EFB0028E5D0D6
:10912000206903F08DFB002833D088239B00E318CF
:10913000DB68FF21002B05D020002530FF30FFF732
:109140006EFFC1B2206903F047FBA075CEE723682C
:1091500020001B699847A847C3E7206903F0C2FABB
:109160002069032103F0C8FA206903F069FB002895
:10917000BCD0882300229B00E3185A609A60DA6012
:109180000123A3758D239B00E3589342AED09847EB
:10919000ACE72300FC335A6A802320695B009A42C3
:1091A00006D103F097FA0321206903F0A5FA9DE7A1
:1091B00003F04BFB010020001830FFF7C2FE2069CE
:1091C00003F090FAEFE7000010B50248FFF771FFD7
:1091D00010BDC046D40A002010B511231022024948
:1091E0000248FFF75BFE10BDB0110020D40A00203A
:1091F0007047F0B500291BDB0C25445F8C4217DD5E
:10920000002A15DB0E25445F944211DD847E022C7A
:109210000FD0032C16D0012C04D1D2430489A418FA
:109220000A0021B2012B13D0002B22D0022B32D006
:10923000F0BD0489013C611AD443428909B2121974
:1092400012B2EFE74489013C641A110022B2E9E747
:109250000725D4172C40A4182A4093400827C65F3E
:10926000E41074436118C46A61180A7813430B70E0
:10927000DEE70724D31723409B180826855FDB1001
:109280006B435918C36A22405918012393401A00AE
:109290000B789343EBE70724D31723400826855F19
:1092A0009B18DB106B435918C36A01202240904081
:1092B000020059180B785A400A70B9E770B50025BA
:1092C00004001E0012B204AB09B25D5700F01EFE8E
:1092D000104B08332360002363629E4200D10E4E80
:1092E0002100FF223331A662E3620A704A708A705D
:1092F000CA70220037321570059A2000A265069ABE
:10930000E265064A626622006432137101235371DA
:1093100070BDC0466C5C0100D40A002000093D000D
:10932000054B10B5083304000360C06A002801D063
:1093300008F0B4FF200010BD6C5C0100F8B504001B
:10934000806A0D00002814D0230030331978036898
:10935000DB6A9847A06A002103681B689847A06AE7
:10936000290003681B689847A06A03685B6B9847ED
:10937000F8BD226C216D1368606A8B43136000286E
:1093800004D0036829009B689847F1E708218020F2
:10939000E36BA26BA76C166828420ED03E431660A2
:1093A0001E68E76C01393E431E601E68E76C40088A
:1093B000BE431E600029EDD1DAE7BE43EFE770B58A
:1093C0000400806A0D00002812D00368A16D9B6A1A
:1093D000984729004D1EA9412000A631FFF7AEFF96
:1093E000A06A002812D00368E16D9B6A984770BD9F
:1093F000606A002804D00368616EDB69A26E98473A
:10940000626C616D13688B431360E2E7626C616D9F
:109410001368606A0B4313600028E8D003681B6A76
:109420009847E4E7F7B50400806A8B180D000193B4
:1094300000282BD02700036830373978DB6A98473B
:10944000A06A0021036801261B689847A06A019A58
:109450000368954217D0FE2E0CD95B6B9847A06A23
:10946000397803680126DB6A9847A06A00210368FF
:109470001B689847A06A2978036801361B689847DB
:10948000B6B20135E2E75B6B9847F7BD226C216D00
:1094900013688B431360019BAB42F6D02B78606A54
:1094A0000093002805D0036800999B689847013510
:1094B000F1E708208026E36BA26BA76C0099BC46FD
:1094C00017680E420FD061460F4317601F68E16CAA
:1094D00001380F431F601F68E16C76088F431F60DF
:1094E0000028EAD1E3E761468F43EEE7072110B594
:1094F0000A22835E0733DA170A40D2180821435E36
:10950000D2105A43C06A002108F00FFF10BD0000BE
:10951000F0B587B004930CAB1B7804000593C36AC5
:109520000E001500002B1BD02000FFF7DFFF0A23E1
:10953000E25E0823E15E202A25DC203AD30F9A1848
:109540000B00733BD90FC918012302931F3352102C
:10955000491001935333009312B209B2B04B24E087
:109560000A22835E07220733D8171040C01808224A
:10957000A35EC010584308F087FEE062031ED3D1FB
:10958000180007B0F0BD403AD30F9A180B00523BB9
:10959000D90FC918012302933F330193123352109C
:1095A000491000939F4B12B209B2200000F0C8FC92
:1095B000230031331E70A06A002800D19CE0002DEA
:1095C00000D097E00A23E55E203D6B1E9D413C35AF
:1095D000230030331D70059B002B00D11BE1036875
:1095E000DB699847049B002B1BD0250000203735F2
:1095F0002856002815DBC0B2012105F0FBFC012133
:10960000287805F043FD012005F0C8FA00212878EC
:1096100005F03CFD0A2005F0C1FA2878012105F08B
:1096200035FDA06A002800D1CBE00368A16D9B6ADC
:10963000984704227C492000FFF7F4FE618920004E
:109640000139C9B2FFF77AFE2500784904222000CB
:10965000FFF7E8FE00233135EB561421012B00D132
:1096600004392000FFF76AFE26000422704920001A
:10967000FFF7D8FE8F2360363370A3686D4A022748
:1096800093420BD06C4A934200D0A8E00022AA5625
:10969000CF23012A00D1303B12273370DA2120007A
:1096A000FFF74CFE39002000FFF748FE8121200023
:1096B000FFF744FE31782000FFF740FED92120005B
:1096C000FFF73CFE0023EB56F121012B00D1CF39EF
:1096D0002000FFF733FE200006225849FFF7A2FEC4
:1096E000A06A002800D188E00368E16D9B6A984772
:1096F000012345E76DB26BE7250027003535287853
:109700000121363705F076FC3878012105F072FC2E
:10971000002318210126EB56494D4B435A5749481F
:10972000D201121822643200EB185B689A400023C1
:109730002265FB564B435A574349D2015118121820
:1097400062643200EB185B68606A9A4013006265DD
:109750000A6913430B61002806D0059B002B00D13A
:1097600040E70368DB6A3CE727003337310038788D
:1097700005F040FC2300343305931878310005F0E0
:1097800039FC00231821FB562E484B435A57EB183F
:10979000D2011218A26332005B689A40059BA26452
:1097A0001B785BB24B435A57ED186B6826499E40B5
:1097B000D2015118E6640B691218B343E2630B61DE
:1097C00010E7606A002804D00368616EDB69A26E4E
:1097D0009847626C616D13688B43136029E71B4ADD
:1097E0000227934200D059E70022AA56AF23012A4C
:1097F00000D19F3B3370022750E7626C616D1368A4
:10980000606A0B4313600123002800D1B8E60368A7
:109810001B6A98476CE7049B002B00D0E5E604E741
:109820008C5A0100CC570100D45C0100D85C0100C7
:10983000DC5C01008000200080004000E05C010052
:10984000C86B01001044004100440041600010005A
:10985000F0B5140005AA1688002C41DB0A25425FEA
:10986000A2423DDD002902DA5B1800211BB208226A
:10987000855E5A18AA4201DD6B1A1BB2002B2FDD40
:109880000727E2173A401219D2105543C26A012045
:109890003C40A04069185218C0B2012E0CD0002ED6
:1098A00013D0022E1CD1013B1BB2591C18D01178C9
:1098B000414011700132F6E7013B1BB2591C0FD039
:1098C0001178014311700132F6E7C043C0B2013B89
:1098D0001BB2591C04D01178014011700132F6E717
:1098E000F0BD0000F0B505AC2588002976DB082422
:1098F000065FB14272DA002A02DA9B1800221BB21C
:109900000A27C45FD718A74201DDA31A1BB2002B98
:1099100064DDD2B2DCB2D30873435918C36A591854
:1099200007231A401FD001339A1A314BD2B29B5CE5
:10993000944254D2FF26171B3E413340012D06D0DE
:10994000002D08D0022D49D10E78734001E00E7829
:1099500033430B7002E00E789E430E7094423DD369
:109960000826835FC918A31ADBB2072B22D9022D60
:1099700010D11A000C78083AE4430C700825445FB3
:10998000D2B20919072AF5D80722134026D0194A5E
:10999000D35C19E02C00621E94411A006442E4B2C8
:1099A0000C700827C65F083AD2B28919072AF7D87F
:1099B00007221340002B11D00E4AD35C012D06D094
:1099C000002D08D0022D09D10A78534001E00A7811
:1099D00013430B7002E00A789A430A70F0BD012D20
:1099E000B5D0002DB7D0022DAED08919BBE7C04647
:1099F000C45C0100CC5C010037B5140006AA1588D0
:109A0000827E022A0DD0032A18D0012A11D1E24306
:109A10000489A41824B20A0000952100FFF762FF10
:109A20000BE0E2434489C918A418028924B2511AF0
:109A300009B200952200FFF70BFF37BD4289C91814
:109A4000511A09B2E7E737B5140006AA1588827ED5
:109A5000022A0DD0032A18D0012A11D10289E41854
:109A6000141B24B20A0000952100FFF7F1FE0BE061
:109A7000CA430189E4188918428909B2141B24B227
:109A800000952200FFF72EFF37BDCA434189891890
:109A900009B2E7E7F7B50400806A00284DD00368F3
:109AA000A16D9B6A9847052250492000FFF7BAFC38
:109AB000218920000139C9B2FFF740FC07210A23A0
:109AC000E25EA06A0732D3170B409B182289DB1095
:109AD00053439BB20093E66A002846D027000368F0
