:104000000080002099EE000081EE000081EE0000AB
:1040100000000000000000000000000000000000A0
:1040200000000000000000000000000081EE000021
:10403000000000000000000081EE0000EDEE000036
:1040400081EE000081EE000081EE000081EE0000B4
:104050006DE8000081EE000081EE000085EE0000BA
:1040600081EE0000EDC7000081EE000081EE00004F
:10407000A195000081EE0000FDC7000081EE000068
:1040800081EE000081EE000081EE000081EE000074
:1040900069CE000081EE000081EE000081EE00009C
:1040A00081EE000081EE000081EE000081EE000054
:1040B0000000000010B5064C2378002B07D1054BFB
:1040C000002B02D0044800E000BF0123237010BD84
:1040D000280200200000000098790100044B10B570
:1040E000002B03D00349044800E000BF10BDC046C8
:1040F000000000002C02002098790100034B1B787F
:10410000002B02D00122024B1A70704704000020DD
:10411000140B0020F0B505001F00140085B00091BD
:1041200002920393009B002B3AD02B78FE2B0ED1EA
:10413000002F03D10398013005B0F0BD6B78013F2B
:104140002370009B01340235023B0093EAE7FF2B0A
:1041500011D16B785E1C0193B742EBDBA91C3200D6
:1041600020000EF0E0FAA419BF1B019E009B03364D
:10417000AD199B1BE9E70C4A9B009B581800019363
:104180000FF0CAF806008742D4DB02000199200034
:104190000EF0C9FA009BA419BF1B0135013BD4E7FF
:1041A000029BE01AC8E7C046B84F0100F0B50024F2
:1041B0001700CDB0029001910792089303930694E3
:1041C000019B002B00D1A1E0029B1B78DE00059330
:1041D000019B3000012B02DD029B58788019019D64
:1041E000022D08DD029B07259B7843400693019B27
:1041F000062B00DC1D00F1210BF0ECFA30000491DD
:10420000F1210BF0E7FA06980E00F1210BF0E2FA2B
:10421000B30009938B000A93049B9B000B93002D22
:1042200048DD012D04D0022D21D0454B0A9A01E032
:10423000434B099A9E5833780493002B38D0AB42F5
:1042400032D1701C2A0002990EF05EFA00282BD1A0
:10425000002C5ED00222012C00D0A2180399BB18BA
:104260008A1A002A06DC089801304DB0F0BD344BA4
:104270000B9ADFE7013A0392019A0499521B7618D0
:104280000192029A71785219197002920133002F2B
:1042900050D038001F00012C2ED1FE2303700CAB30
:1042A0001B78437000248BE7049B0233F618C2E7A7
:1042B000013DB4E76A46127D0CAB1A55019B0134EF
:1042C000013B0193029B0133029380235B009C42DC
:1042D00007D0019B002B00D072E738000233012C7D
:1042E00001D03800A31C039AFF18D31A0393BAD441
:1042F000002800D164E7CEE7FF230370631E4370FC
:1043000022000CA902300EF00EFACBE7079BF81A38
:10431000ABE7039B002BA6DD761973783B70039BFC
:104320000137013B0393019B5B1B0193029B5B19CC
:10433000029345E780221F0052009442C9D1D0E782
:10434000F44B0100002905D07F220B7A934300280B
:1043500001D10B727047042213430B720860F9E716
:10436000002907D07F220B7A086093431A000823A4
:1043700013430B727047002907D07F220B7A086025
:1043800093431A000A2313430B727047002907D086
:104390007F220B7A086093431A00082313430B72A1
:1043A000704710B50023884207D0984207D00133E8
:1043B000002902D00EF0A6FF0300180010BD012353
:1043C0005B42FAE70A21435E0200181E01D01B017E
:1043D000D018704770B50D00041E09D0C1682800C0
:1043E000FFF7DFFF002803D02000FFF7EBFFF3E724
:1043F000200070BD01604160002900D089180023B1
:104400008160C160037470474A688B6810329342C0
:1044100004D201230B74002318007047103B8B60FB
:10442000002BF9D04268002A08D0991A091151814D
:10443000002243605A811A72DA60EDE70360F7E701
:10444000021E07D07F21037A00200B40043B012B82
:1044500000D8106870470000F7B5037804000D001D
:104460002B2B1DD02D2B1CD10127013423781A00B2
:10447000303A092A02D92E2B00D0C9E000200A26A2
:10448000644922781300303BDBB2092B0BD88842F9
:1044900011D8DA43704382420DD3C0180134F0E7DB
:1044A00001340027E2E7002A05D1002F18D080232D
:1044B0001B06984209D90026574B98421AD90A215F
:1044C00001360BF001F976B2F6E77F222B7A4042F3
:1044D00093431A000A2313432B7228603800FEBD51
:1044E0007F222B7A286093431A00082313432B72F0
:1044F0000127F3E723781A00303A092A03D8013656
:1045000076B20134F6E72E2B0FD10A21434A01344B
:104510002378303BDBB2092B07D8904203D84843BD
:10452000013E181876B20134F2E7202322789A432C
:104530000023452A3AD162782D2A1FD10234013353
:104540000193002321783039CAB2092A2AD80A22D5
:104550005343CB18F118262922DD019A2B7A7F20AC
:10456000002A11D00024002F01D0802424060C2121
:1045700083430B432B722C60019FAFE72B2A01D0A2
:104580000134DDE70234DBE7002F06D024490C229A
:10459000834313432B722960AAE7FF21C905F6E77D
:1045A0000134CFE7019A002A00D05B422478002C26
:1045B0002ED1F6180CF07EF9002E1ADD01231E42D2
:1045C00004D0184AA300D1580BF014FE0134761021
:1045D000E4B2002EF2D1002F02D080231B06C018B7
:1045E0007F222B7A286093431A000C2313432B72EB
:1045F0007EE77642002EEED001231E4204D00A4A06
:10460000A300D1580BF0F6FD01347610E4B2F1E7C7
:10461000002763E799999919FFFF7F00CBCC0C0025
:10462000000080FF444A01002C4A0100426810B596
:10463000002A08D08368C468A34205D3002301225E
:10464000436003681A7410BD5C1C8460D154FAE79F
:10465000F8B50500081C0E1C0AF0FEFF80301FDBB9
:10466000301C0AF0F9FF7F24A04203DC301C0AF062
:10467000F3FF44B200260AF047FC184B9C461A7818
:10468000174BF1B28A420ED931000136F700083FCC
:10469000DF5BAF42F5D1C9005B189C705860F8BD74
:1046A00080246442E6E7082A06D06646511C317031
:1046B000D2009D529B18F0E701210022084BCEB298
:1046C000B446CF00D600DF199E197F687668B742DE
:1046D00000D2624601310829F1D1E9E7E40900205E
:1046E000E809002010B51D200AF002FE04001D207C
:1046F0000AF0FEFD24181D200AF0FAFD20180CF027
:104700008FF80E490BF09EFB0D490BF073FDEA216B
:1047100089050BF06FFD0B490BF094FB0021041C85
:104720000BF098F9002807D10749201C0BF0A6F9D7
:10473000002801D1201C10BD0024FBE700004040F0
:1047400033335340CA261B3E33334B41F8B5FFF792
:10475000C9FF5B490BF04EFD0BF0A4F9594B1870E3
:10476000594B1B78002B15D0584CFA21200007F02C
:1047700055FE574D061E0ED12B68002B0AD00AF0AD
:10478000C3FB2B68C01A534B984203D9524B1E707F
:10479000524B1E70F8BD0AF0B7FB5149286020004B
:1047A00007F0C4FF4D4D4E492870200007F0A6FFCA
:1047B0004C4E4B493070200007F0D0FF4A4B48491F
:1047C0001860200007F0E2FF48490BF007F8B42119
:1047D00049000BF0E9F86931FF310800B4214900C4
:1047E0000BF0E2F8424B200019803D4907F06EFFC4
:1047F000404B3B491860200007F0E0FF3E4B384932
:104800001880200007F0FEFE3C4F002825D1002331
:104810003B702B78304D022B50D93149200007F0E6
:1048200015FF374B2E491860200007F023FF354B4A
:104830002B491860200007F031FF334B984239DBD9
:10484000324B984238DCFA2189000AF0C7FF00B2E7
:104850002F4B188033782B709CE72149200007F0FC
:10486000E1FE0028D3D001231D4920003B7007F052
:1048700069FE284B1A491880200007F073FE264B6A
:1048800017491870200007F07DFE244B144918705A
:10489000200007F087FE224B11491870200007F016
:1048A00091FE204B0E491870200007F09BFE1E4B16
:1048B0001870AEE71D48CBE71D48C9E70023CAE7DB
:1048C0000000A041EA050020DD02002018060020BB
:1048D000F8020020983A0000D809002017060020AE
:1048E0004C040000DA090020DC090020A086010049
:1048F00014060020C4090020D6090020E009002089
:10490000CC090020D009002019FC0BFEFFFFF301A9
:10491000E8050020E2090020D50900201606002045
:10492000C8090020D4090020D90900200080FFFF19
:10493000FF7F00000023F7B5144F05003A780C0004
:104940009A4201D0124B1B68009300239A4201D077
:10495000104B1B682E1969463000042201930DF09C
:10496000E2FE201D281801A904220DF0DCFE200023
:1049700008302818022208490DF0D5FE20003B78A7
:104980000C30B372054B1B78F372FEBDD8090020C2
:10499000CC090020D0090020E8050020EA0500200D
:1049A0003E4B73B51B78002B72D03D4C200004F0B9
:1049B00089FF0121200005F002FF00232361394B0C
:1049C0003949636120000AF04DF8384920000AF0A7
:1049D00034F8374920000AF04FF8364920000AF031
:1049E0002CF8354B0A22196820000AF0A0F8334948
:1049F00020000AF022F8324B0A22196820000AF03F
:104A000096F8304920000AF018F82F4B0A2219783E
:104A100020000AF098F82D4D200029000AF00DF82A
:104A20002B4B18780BF0FCFE2A490BF00BFA0DF01B
:104A30001FFD0B0001210200009120000AF04AF93D
:104A4000254920000AF00EF8244E3378002B20D0A0
:104A50002349200009F0F1FF3100200009F0F1FFA7
:104A60002900200009F0E9FF1E4B18680BF0B8FE82
:104A70000A22010020000AF04CF81B49200009F02E
:104A8000F1FF1A49200009F0F7FF200005F0EEF9C8
:104A900073BD1749200009F0E5FFF6E7DC020020AE
:104AA0007002002001000100EA4A0100FD4A0100F5
:104AB00005000020024B01001C0B0020064B0100EA
:104AC000180B00200B4B0100D80900200E540100E8
:104AD000EA0500200000A041BD680100DF020020BF
:104AE0000F4B0100FC020020154B010004030020C5
:104AF000194B0100002310B50004014309489A0036
:104B000012588A420CD00133082BF8D1064A137888
:104B10009C0021500721002001330B40137010BD71
:104B20000120FCE7500200204C020020F0B585B0C7
:104B300001930AAB20CB04001F780CAB1B782048F4
:104B40000291039316000EF0E7FBC3B29C46C42308
:104B50002370C33B6370391E01D080214942029B00
:104B600066711943039B36125A1E93419B010B43F6
:104B7000A370144BA6711B88C6B2E3701B1223717D
:104B8000200063463200E3710D4908300DF0CBFD83
:104B9000019B002B08D0002D06D0300008302018D3
:104BA0002A0019000DF0BFFD280008308019002FE1
:104BB00003D001002000FFF7BDFE05B0F0BDC046E8
:104BC00005000020CA09002070B530C80E00A542BB
:104BD0000AD921003068FFF7E4FB002805D02378CC
:104BE0000134002BFBD1F2E70024200070BD73B527
:104BF000056886686C6801A928000194FFF7E4FF46
:104C0000002802D12000A6196E6076BDF0B50027FD
:104C100087B000900C0002910392B9422ED005900B
:104C200005A910001600FFF7CFFF0500B8421CD100
:104C300000980EF071FB030075680133B268EB1841
:104C40000190934207D9012333747F22237A0027EE
:104C50009343237212E07360002DF6D0019A0099FD
:104C600028000DF060FD019BEF547F22237A01277D
:104C700093431A000523134323722560380007B0BD
:104C8000F0BD0100802210B5203192000400FFF732
:104C9000B1FB00232000237710BD1FB5040001A83D
:104CA0000AF089F801A920000AF085F801A80AF0A5
:104CB00017F8200004B010BDF0B589B00C1E0291A9
:104CC000039212D0010005A817000AF074F8059BA2
:104CD0000093079B0193009B002B08D17F22237A2E
:104CE0009343237205A809F0FBFF09B0F0BD3D68AE
:104CF0007E68AE4212D9009BAB4224D0002D06D074
:104D0000019A290018000EF00EFB00281BD02B0082
:104D10001A7801331D00002AFAD1EAE7019BBA682C
:104D20000133F318934202D901233B74D6E77B6029
:104D3000002ED3D0019A009930000DF0F4FC00232E
:104D40003500019AB3547F22237A256093431A00D9
:104D5000032313432372079B6360C3E770B5050009
:104D60000C001600081E0FD02868FFF733FB002840
:104D70000AD131002800FFF747FB002804D07F222A
:104D8000037AC4601340037270BD70B50300007AEB
:104D90007F2504002C4005D1A8435F3D28431872AD
:104DA0001C605C6020201C7A0440201E02D0180089
:104DB000FFF7D4FF70BD70B50D000400280011008E
:104DC00014302A00FFF7E1FF002809D07F22037A80
:104DD00093431A00202313430372002303604360AC
:104DE00020606560200070BD10B5002801D0FFF77D
:104DF000B5FF10BD10B50200037A20200340181E35
:104E000002D01068FFF7E6FA10BD437E002B06D1F2
:104E100043695A1C42611B78037601234376007E66
:104E2000704710B504002000FFF7EFFF0A2806D8EE
:104E3000092808D2002809D0012020740CE00D2890
:104E400001D02028F8D100236376ECE7237C60347E
:104E50005A1E93410133237010BD1FB57F220300FA
:104E6000007A1040043808282ED80AF023FC0F0FCF
:104E7000052D082D0D2D1A00187804B010BD1868E6
:104E8000C343DB171840F8E71868F6E718680023F3
:104E900001AC23722100FFF7DFFA2000FFF7DDFFEE
:104EA000EBE7CF211C680906201C0AF0F1FD002861
:104EB000E3D09E21201CC9050AF0D6FD0028DCD0D5
:104EC000201C0BF08DFCD8E70020D6E770B504005D
:104ED0000D00FFF79AFF0023A84201D1637601334A
:104EE000180070BD2F2815D90123392803D95E2851
:104EF00003D97A2803D81800704740280AD901231B
:104F00005A28F8D9002301222D38C0B282425B41D1
:104F1000DBB2F0E701232B28F4D1ECE737B500230F
:104F20006A460C001370C3B27F2809D85370951CD1
:104F3000013D297800292ED02000FFF777FBF7E705
:104F40003F2180226D460B405242134380096B7013
:104F500085B2C3B21F2D05D8403213436A46937001
:104F6000D51CE5E76D460B4000041343800DAB7084
:104F7000C3B20F2805DC202252421343EB7001AD6F
:104F8000D6E71940102380115B420A431843EA70A8
:104F900028710535CCE737BDF7B505000027FFF7C9
:104FA00034FF6F7601902800FFF72FFF0024019B4C
:104FB00001006C76834258D0A04204D102236035B0
:104FC00000202B70FEBD5C284BD12800FFF71DFF91
:104FD0000028F3D02B4B752839D104266C76280095
:104FE000FFF713FF0028E9D0402806D83038C0B2B8
:104FF0000F2806D960350323E2E72023984337388A
:10500000F5E700232401013E0443F6B2A4B26B7617
:105010009E42E4D1A0239B01E3181B4A9BB293421A
:1050200002D8A405A70DBEE790239B01E3189BB20D
:105030002000934206D880238005BC02800D2043C7
:105040005B02C0182900FFF769FFACE702331A784A
:10505000002ACFD09042F9D159780029CAD0002334
:105060006B762800FFF7E2FA9DE728002100FFF7A2
:10507000DDFA6B680120002BA4D1042260352A7070
:1050800018009FE7B0530100FF030000026870B5ED
:10509000536804004360936852689B1AC3600023FE
:1050A0008360FFF7B2FE27280DD022280BD0200006
:1050B000FFF7ABFE0600FFF715FF051E09D103231E
:1050C0006034237003E02000FFF766FF050028002E
:1050D00070BD0023310063762000FFF7A7FA20009F
:1050E000FFF793FE0600FFF7FDFE011EF1D1200041
:1050F000FFF79CFA6368002BE9D104226034227028
:105100001D00E4E7F7B504000D001F1CFFF789FE42
:105110000190002801D1002658E02000FFF775FE1D
:10512000272800D17BE01DD8222800D177E020007D
:10513000FFF76BFE002600900098F7B2FFF7D2FE53
:10514000002800D187E00136402E00D182E06A4677
:10515000002312786376A319DA772000FFF755FE53
:105160000090E9E75B2813D07B28E0D17F222B7ADF
:10517000290093431A00202313432B72002300229B
:105180002B606B6020003B1C00F092F806001DE0D5
:105190007F222B7AFFB293431A00402313432B72D2
:1051A00000232B606B609F4203D160340533237072
:1051B000B1E763762000FFF734FE0028ABD05D2115
:1051C0002000FFF783FE061E02D0019E3000FEBDC8
:1051D000E1692800FFF718F9011E03D104236034A8
:1051E0002370F3E77B1E00222000FFF78BFF0028CF
:1051F00000D190E72000FFF714FE002800D18AE7D5
:105200005D212000FFF762FE0028DED12C21200066
:10521000FFF75CFE0028DBD160340323C7E7226878
:10522000200053686360936852689B1AE360002310
:10523000A360FFF7B1FE061E00D16CE72000FFF768
:10524000D6FC7F222B7A286093431A000523134350
:105250002B72BBE73F270021E3190133D977631C89
:10526000DB7F742B0DD17F222B7A93431A00062308
:1052700013432B7201232B70042FA6D0603402231A
:1052800095E7662B0AD17F222B7A297093431A0067
:10529000062313432B72052FF0D196E76E2BEBD02C
:1052A000200029002030FFF7D7F80028B4D08CE781
:1052B000F7B5DFB204000E00002F04D105236034DF
:1052C000237000250DE000234376FFF7AAFD009030
:1052D0000028F6D07D212000FFF7F8FD051E26D01E
:1052E000009D2800FEBD61683068FFF773F8002854
:1052F00031D001007B1E00222000FFF703FF0028B1
:10530000DFD02000FFF78DFD0028DAD07D212000BE
:10531000FFF7DCFD0028E3D12C212000FFF7D6FDAC
:10532000002814D02000FFF77CFD0028C9D0200001
:10533000FFF7ACFE0028C4D02000FFF772FD002864
:10534000BFD03A212000FFF7C1FD0028CBD10323B5
:1053500060342370C5E72000FFF749FCE169019044
:105360003000FFF751F8002802D160340423F0E741
:105370008022037A524213430372019BC360B8E751
:1053800010B50400006803685B68984763681818E4
:10539000606010BD70B5050008000C000DF0BCFF8A
:1053A000210002002800FFF7EBFF70BDF0B51624C6
:1053B00007000D000A2687B06C44280031000AF06F
:1053C00009FA013C30312170280031000AF07CF9E3
:1053D000051EF2D116236B441A1B21003800FFF77B
:1053E000CFFF07B0F0BD10B50400006803681B686C
:1053F000984763681818606010BD000070B50D0014
:10540000040022212000FFF7EEFF2978002909D0AF
:105410000A4B01351E78002EF4D05A788A4206D005
:105420000233F7E722212000FFF7DDFF70BD5C218A
:105430002000FFF7D8FF3100E4E7C046B253010077
:105440007F22F0B5037A8BB005000C001340062BC9
:1054500000D18FE106D8022B0DD3032B00D975E1C3
:1054600006CD49E10C2B24D007D8082B00D17FE1D1
:105470000A2B00D16FE1C44981E1202B00D146E124
:10548000402BF8D15B212000FFF7ADFF2D68002DE8
:1054900000D135E121002800FFF7D2FF2800FEF7F8
:1054A00091FF051E00D12BE12C212000FFF79BFF6F
:1054B000EDE70668311C301C0AF0C6FA0028DAD085
:1054C0000021301C0AF0C0FA002809D1311C301C20
:1054D0000AF01EFB011C301C0AF0B6FA0028CAD1E3
:1054E0000021301C0AF0B6FA002806D02D21200039
:1054F000FFF779FF80231B06F618A449301C0AF039
:10550000C7FA002844D00023142520270093A04B7D
:10551000301C59590AF0BCFA002809D09D4B301CA8
:1055200059590AF067FE009B061CF81803B2009355
:10553000043D7F102B1DEAD103350021301C0AF0F9
:105540009DFA002828D0301C0CF092FF924A934B11
:105550000AF050FA00281FD0AB0001932B061BD491
:105560008F4B019A311C98580AF088FA00280AD00B
:10557000874B019A301C99580AF03CFE009B061C90
:10558000D81B03B20093019B7F10013D043BE4E76D
:10559000202705250090D0E7301C0AF083FA062367
:1055A0000700804D029003936B461B7B5BB2019317
:1055B000039B013BDBB20393029B092B0AD90A210F
:1055C00028000AF081F80A21050002980AF07CF808
:1055D0000290E9E738000BF06DF9011C301C0AF06D
:1055E0003BFF061C28000BF065F9011C301C0AF07B
:1055F00001FE02900AF056FA06000BF05BF9011C5E
:1056000002980AF029FF011C0AF082FA0AF04AFA0D
:105610008619B5420BD80026009B0137B34206D04D
:10562000092F04D918000127013003B200930A257D
:10563000290030000AF0CEF800290CD1019B002B84
:1056400009DD300029000AF03FF8019B0600013B0C
:105650005BB20193ECE739002000FFF7A7FE019B46
:10566000002B20D01D0008AF013D6DB2013F6B1C27
:105670000BD030000A210AF0ADF83031397030001B
:105680000A210AF021F80600EEE76B461B79102587
:10569000D9432E224B1904A8C25408AB4A42200019
:1056A0005918FFF76DFE009B002B2DD065212000BF
:1056B000FFF799FE6B461D88009B002B05DA2D2114
:1056C0002000FFF790FE6D42ADB216260A2704AB0C
:1056D000F618280039000AF07DF8013E30313170AB
:1056E0002800390009F0F0FF85B2002DF1D1162312
:1056F000310004AA9B189A1B2000FFF741FE03E02B
:105700005D212000FFF76FFE60680BB0F0BD7B21CC
:105710002000FFF768FE2D68002D15D0E9682000F5
:10572000FFF76CFE3A212000FFF75DFE2100280004
:10573000FFF786FE2800FEF745FE051E04D02C214B
:105740002000FFF750FEE7E77D21DAE7016820003F
:10575000FFF754FED8E70568002D04DA2D2120005C
:10576000FFF741FE6D4229002000FFF71FFECBE747
:105770000168F9E703780C49002B00D10B492000A0
:10578000FFF708FEC0E7C046C15301008096184BE2
:10579000444A01002C4A0100F168E388B5F8E43E70
:1057A000144A010040420F00C6530100CB530100D0
:1057B00010B51430FFF744FE10BD000030B5B5B091
:1057C00004ACA0220CA92000FEF714FE0023220046
:1057D0002A4909A82377FFF7D8FA01002848FEF7DD
:1057E000B1FD2200274909A8FFF7CFFA010026489A
:1057F000FEF7A8FD2200254909A8FFF7C6FA0028F0
:1058000008D07F22037A93431A000C2313430372B8
:105810001F4B036022001F4909A8FFF7B6FA2200B8
:10582000010000901C480194FFF7F0F922001B4989
:1058300009A8FFF7AAFA1A4B01001888FEF7A6FD7F
:105840002200184909A8FFF7A0FA002808D07F22F3
:10585000037A93431A000623134303720123037050
:105860000023114D02A9200003930295FFF7A0FF2A
:10587000280009F0EFF835B030BDC046BC54010037
:10588000D84B0100DE4B0100E14B0100E54B01006C
:10589000CDCC6644894A010005000020C0670100A4
:1058A000CA090020EA4B01005C12002070B50026F6
:1058B000AAB002AC05000AA980222000FEF79AFDDA
:1058C00022000F4907A82677FFF75FFA01000D486D
:1058D000FEF738FD22000C4907A8FFF756FA010031
:1058E0002800FEF72FFD094D69462000009501961E
:1058F000FFF75EFF280009F0ADF82AB070BDC04682
:10590000BC540100574B01005B4B01005C120020AE
:1059100070B59AB002AC060040220D0020000AA922
:10592000FEF768FD00232200124907A82377FFF73E
:105930002CFA01003000FEF705FD22000E4907A8F1
:10594000FFF723FA002807D07F22037A05609343EC
:105950001A000A23134303720023084D69462000EE
:1059600001930095FFF724FF280009F073F81AB09F
:1059700070BDC046BC540100C06701005C1200202D
:1059800070B5F64CA54416AC2000FFF77AF922005A
:10599000F3491BA8FFF7F9F90100F248FEF7D2FC22
:1059A000F14D2200F1491BA82E78FFF7EEF90028EF
:1059B00009D07F22037A93431A000623134303720C
:1059C000731E9E4106702200E9491BA8FFF7DDF90E
:1059D00001002878FEF7C4FC2200E6491BA8FFF767
:1059E000D4F9E54B01001878FEF7BAFC2200E34930
:1059F0001BA8FFF7CAF9E24B01001878FEF7B0FCCC
:105A00002B78002B00D1E6E0DE4B072518680CF060
:105A1000C3FC0022DC4B0BF0A9FA00950B0002003E
:105A20000AA809F0FBF90AA90DA8FFF736F9220028
:105A3000D6491BA8FFF7A9F90DA9089010A8099449
:105A400009F0B9F9099A089910A8FFF735F910A8D3
:105A500009F046F90DA809F043F90AA809F040F940
:105A6000CB4B18680CF098FC0022C74B0BF07EFA69
:105A700000950B0002000AA809F0D0F90AA90DA8A8
:105A8000FFF70BF92200C3491BA8FFF77EF90DA908
:105A9000089010A8099409F08EF90899099A10A89D
:105AA000FFF70AF910A809F01BF90DA809F018F979
:105AB0000AA809F015F92200B7491BA8FFF765F9F4
:105AC000B64B01000020185EFEF755FCB44B186879
:105AD0000AF0A6FEB3490AF08DFB0122011C0AA8B8
:105AE00009F07EF90AA90DA8FFF7D7F82200AE4900
:105AF0001BA8FFF74AF90DA9089010A8099409F00E
:105B00005AF90899099A10A8FFF7D6F810A809F0D1
:105B1000E7F80DA809F0E4F80AA809F0E1F8220076
:105B2000A2491BA8FFF731F9A14B01001888FEF725
:105B30002DFCA04B18680AF0BDFE9F490AF082F9BF
:105B40000122011C0AA809F04BF90AA90DA8FFF7C8
:105B5000A4F8220099491BA8FFF717F90DA908908E
:105B600010A8099409F027F9099A089910A8FFF7D5
:105B7000A3F810A809F0B4F80DA809F0B1F80AA824
:105B800009F0AEF88E4B18880AF04AFE8D490AF0EB
:105B900031FB0122011C0AA809F022F90AA90DA86B
:105BA000FFF77BF8220088491BA8FFF7EEF80DA944
:105BB000089010A8099409F0FEF80899099A10A80D
:105BC000FFF77AF810A809F08BF80DA809F088F80B
:105BD0000AA809F085F87D4B16AC1B78002B21D064
:105BE0007B4A7C4B12781B8804927B4A18211278DE
:105BF00010A80392794A12780292794A1278019297
:105C0000784A12780092784A0DF02AFB22007749F0
:105C10001BA8FFF7BAF822000100089010A8099409
:105C2000FEF7F4FF724B18780AF0FAFD71490AF09A
:105C300009F90222011C0AA809F0D2F80AA90DA844
:105C4000FFF72BF822006C491BA8FFF79EF80DA95F
:105C5000069010A8079409F0AEF80699079A10A8C4
:105C6000FFF72AF810A809F03BF80DA809F038F85A
:105C70000AA809F035F809F047F9220006005F4943
:105C80001BA8FFF782F8051E0CD07F22037AFA21A9
:105C900093431A000823134303728900300009F06C
:105CA00013FD2860564802F0F9F80122011C0AA8E9
:105CB00009F096F80AA90DA8FEF7EFFF2200514956
:105CC0001BA8FFF762F80DA9069010A8079409F029
:105CD00072F80699079A10A8FEF7EEFF10A808F0D0
:105CE000FFFF0DA808F0FCFF0AA808F0F9FF22004A
:105CF00045491BA8FFF749F8002809D07F22434BEC
:105D00001B680360037A93431A000823134303724A
:105D100022003F491BA8FFF738F8002809D07F224E
:105D20003C4B1B680360037A93431A000823134318
:105D30000372394B1968002976D06420374B1B68F1
:105D4000CB1A584309F0C0FC3549C5B222001BA844
:105D5000FFF71BF80100280064E0C04688FDFFFF44
:105D6000BC5401005F4B0100D8090020634B0100C7
:105D7000674B01006C4B0100DA090020704B0100F9
:105D800017060020CC090020D0126341784B010097
:105D9000D00900207C4B0100804B0100E805002069
:105DA000DC090020FAED6B3B844B01008A4B0100BB
:105DB00014060020C409002000007A44914B010021
:105DC000D60900200AD7233C964B0100E0090020A9
:105DD000D9090020E2090020D4090020C8090020C8
:105DE00016060020D50900209B4B0100BA4B01008C
:105DF000EA0500200000A041BE4B0100C34B01009A
:105E00008C040020C64B0100CC4B01001C0B002071
:105E1000CF4B0100180B0020480200204402002054
:105E2000D24B0100FEF79CFA0023074D10A9200079
:105E300011931095FFF7BCFC280008F00BFE9E2381
:105E40009B009D4470BDC0465C1200201FB52820F9
:105E500009F0E2F80223040000930322073308212B
:105E600001F03CFA21000D4801F0D0FA0C4B0D4C2A
:105E700002930D4B4022019301235B42009380214A
:105E80000A4B200003F006FC094A0A49200009F0E9
:105E9000DBFB094804F09EFC1FBDC0468C040020BB
:105EA000A086010070020020801A06004C0B002022
:105EB00000000020F9960000180600200023F7B526
:105EC0000F000524154E01903370154D280002F087
:105ED00045F80F300AD0C82132204900013C08F0B3
:105EE000F4FCE4B209F046F8002CEED100233A00AD
:105EF0000199280002F0E0FB00220A4B04000A4945
:105F000028001A7002F0CEF801233370002C03D160
:105F1000064A1368013313602000FEBD0400002010
:105F20008C040020140B0020FFFFFF001C0B00203E
:105F300030B50500BDB00C001E20782108F0C5FC6E
:105F400009F018F80D4905AB0A881D70013292B2AC
:105F50000A8000219C702D1224125D70DC70029169
:105F600001910431009106A80239FEF7DFFD01001E
:105F700006A8FFF7A3FF3DB030BDC046200B0020B0
:105F8000F0B5A94C0700A544A0AC2000FEF779FEAF
:105F9000002F00D1A54F0025A09B42AE6360E368AF
:105FA0001022A36004A92574257708A804940CF096
:105FB000BAFB102208A930000CF0B5FB35744797E6
:105FC000B4276B467F00DB197576F46100221D70E3
:105FD000A5A90A233000FFF795F86B46DB191B785B
:105FE000AB4207D1337EAB4200D112E1237F1B07C6
:105FF00000D40EE18E48FFF759FC07E08D492800D8
:106000000DF080F9002804D1FFF7D8FB8A4B9D449E
:10601000F0BD8A4928000DF075F9002811D1884992
:10602000A5A8FEF7E7FEFEF70BFA002802D00378DA
:10603000002B01D18348DEE7FFF7C0FBFEF7B0FC81
:10604000E4E7814928000DF05DF9071E10D17C4975
:10605000A5A8FEF7CFFEFEF7F3F9011E7B48CAD0D4
:106060007B4C2822200028340DF06EF92770CDE7F4
:10607000784928000DF046F9041E3DD1744F3800D0
:106080000DF04AF9051E32D0010060230CAA380039
:10609000FEF78CF800282DDD85422BDD05000CABCA
:1060A00001346D4930000A88013292B20A80012120
:1060B000029401910095FEF739FD01003000FFF7D1
:1060C000FDFE002802D06548FFF7F0FB0122644B7B
:1060D0001A7008F019FFFA2104004901002008F0A5
:1060E000F4FB604BE418604B20181860A6E73B00F7
:1060F0000400D6E73B00D4E75C4928000DF002F924
:10610000002800D083E05A49A5A8FEF773FEFEF7E9
:1061100097F9584C05002100A5A8FEF76BFE002852
:1061200006D07F22037A1340082B0AD00A2B0BD00B
:1061300001246442002D02D02B78002B0FD14E4851
:1061400059E70368002BF3DB2100A5A8FEF752FEF8
:10615000002801D10400EDE7FEF77FFEFAE72800F2
:106160000DF0DAF807004548B42F00D943E7444B57
:106170001B78002B02D00023414A1370BC2332004D
:106180005B0039002800FEF711F800283ADD87424D
:1061900038DD012335003B4A2F4E1168CF193A49AB
:1061A00017600A6812180A6032880021013292B220
:1061B000328002930123009001930CA82B00FEF77C
:1061C000B5FC010005000CA8FFF778FE071E1CD1E6
:1061D00021002E48FFF79CFB0123294A0CA91370CC
:1061E00032882B4B2B481A802B4B2A001C600CF05A
:1061F0009AFA2A4B1D6008F087FE294B1860294B3C
:106200001F701BE738000023C5E71448F3E6264853
:10621000F1E62649A5A8FEF7EDFDFEF711F9051EEA
:1062200000D0EBE62248E6E65CFBFFFF0F580100DA
:10623000694A01007C4A0100A4040000894A010067
:10624000D0550100814A0100964A01008E4A0100A2
:10625000EB0500209D4A0100200B0020A24A01000E
:10626000DE02002060EA0000280A0020CC4B01007A
:10627000B84A0100C0670100B24A0100BD4A0100EE
:106280002C0A00204802002044020020CB4A0100D2
:106290000C0B00202D0A002018000020080B002005
:1062A000100B00200E0B0020D04A0100BC5401004E
:1062B000724A010070B50F4C2378002B15D008F0FE
:1062C00023FE0D4D2B68C01A0C4B98420DD90C4B78
:1062D0001A78002A0AD101321A7008F015FE094B0B
:1062E000286019680848FFF7E9FD70BD0023237096
:1062F000FBE7C0462C0A0020100B0020C309000059
:106300000E0B0020080B00202D0A0020F0B5002500
:10631000314BC5B01B68AB4205DD09202F495843FE
:1063200009F05CFA0500FA212D4B8900186809F084
:10633000CBF908ACFF2D00DDFF252A4B25701B880B
:106340005B086370FF2800D9FF20274BA0701B78E3
:10635000E37008F0D9FD0021244B0A001B78079058
:10636000069305232248844608A80590069EC8B2D5
:1063700086421AD9052A18D86046CE0087197D684A
:106380000798401B1B4DA8420DD86046059D305A0A
:106390000132E854ED1800126870B878059D9E1C13
:1063A000A8550333D2B20131E0E7134922710A88BC
:1063B0000EA8013292B20A800021029101310191AE
:1063C000009302312300FEF7B1FB01000EA8FFF796
:1063D00075FD45B0F0BDC046DC090020C4090000D1
:1063E000C40900201406002017060020E40900203C
:1063F000E8090020E0930400200B00200023F0B502
:10640000604D614C614F624AA544012128003B70F8
:10641000137001F035FD8023060003905B00984265
:1064200000D903935CAC039A2100280001F05CFDC5
:106430000290280002F07AFB0690280002F08CFB04
:1064400054490790280001F02DFE01233B70029B68
:10645000002B00D090E0072E00D88DE02378C42BCD
:1064600000D089E06378012B00D085E02779E378BC
:106470003F021F43484B1B8809939F427CD0E5791C
:10648000102D79D82E00039B08369E4274D8A3782D
:1064900004936B461B7C5BB20593002B04DA2B0044
:1064A000039A1433934267D84E220AABFF329B18EB
:1064B0001B7801320A930AAB9B181B7829AC2A007F
:1064C0005EA920000B930CF02EF95CAA9619082205
:1064D0000023059952426355551B1432994200DB43
:1064E0001A000E2403990E936D18AA1A02920AAA92
:1064F000A4180F932380059B002B40DAAD23DB000B
:106500009B189C460D00254B6544ED18042229007C
:106510000EA80CF008F9291D04220FA80CF003F9AD
:1065200029000222083120000CF0FDF8AB7A039319
:10653000EB7A3F240893049B1C40022C3AD1029B27
:10654000032B19D916490B78002B15D072783378A4
:1065500012021343099A9A420ED11248F278B37884
:10656000008812021343984206D100230B700E4B91
:106570000E481968FFF7CCF90D4B9D44F0BD002380
:106580000393D6E78C0400206CFAFFFF0400002080
:10659000140B0020FFFFFF00CA090020D4FBFFFFFF
:1065A0002C0A00200C0B0020180000202E4B0100AC
:1065B000940500004023049A38001A400B9B09926E
:1065C0001D020A9B1D432900FEF794FA06990490C8
:1065D0003800FEF73DF8002C00D083E12900380098
:1065E000FFF7A6FC049B002BC6D1099B2EAC002B09
:1065F00000D140E1B423220002993000FDF78AFD6A
:10660000B428B9D86B461B7C23549CA8FEF739FBF1
:106610009CAA9F49A1A8FEF7B8FB01009D48FDF781
:1066200091FE9CAA9C49A1A8FEF7AFFB9CAA010081
:1066300029A8FEF7EBFA9CAA9849A1A8FEF7A5FBAA
:1066400001003800FDF7A2FE9CAA9549A1A8FEF71B
:106650009CFB9CAA01002EA8FEF7D8FA01220699FD
:1066600020A808F0BDFB20A923A8FEF716FB9CAAD2
:106670008C49A1A8FEF789FB9CAB1E9023A926A8F4
:106680001F9308F098FB1E991F9A26A8FEF714FB8B
:1066900026A808F025FB23A808F022FB20A808F074
:1066A0001FFB0122079920A808F09AFB20A923A824
:1066B000FEF7F3FA9CAA7C49A1A8FEF766FB9CAB07
:1066C0001E9023A926A81F9308F075FB1E991F9AF8
:1066D00026A8FEF7F1FA26A808F002FB23A808F086
:1066E000FFFA20A808F0FCFA059B002B00DB9CE0D9
:1066F0006E4A9CA910A8FEF75EFB109D119C6C4988
:1067000022002800FEF770FB01000398FDF728FE29
:10671000039B002B61D00E980BF03EFE0022654BD0
:106720000AF024FC07260B000200009620A808F0BF
:1067300075FB20A923A8FEF7B0FA22005E492800C5
:10674000FEF752FB23A91E9026A81F9408F033FBE6
:106750001F9A1E9926A8FEF7AFFA26A808F0C0FADD
:1067600023A808F0BDFA20A808F0BAFA0F980BF099
:1067700013FE00224F4B0AF0F9FB00960B000200BB
:1067800020A808F04BFB20A923A8FEF786FA2200D8
:106790004A492800FEF728FB23A91E9026A81F942B
:1067A00008F009FB1E991F9A26A8FEF785FA26A86D
:1067B00008F096FA23A808F093FA20A808F090FAB7
:1067C00022003F492800FEF70FFB0E230AAA9B1860
:1067D00001000020185EFDF7CEFD08980AF020F8B1
:1067E000384909F02FFB0222011C20A808F0F8FA12
:1067F00020A923A8FEF751FA220033492800FEF70A
:10680000F3FA23A91E9026A81F9408F0D4FA1E9923
:106810001F9A26A8FEF750FA26A808F061FA23A8C6
:1068200008F05EFA20A808F05BFA0024274D26A99C
:106830009CA826952794FEF7BBFF280008F00AF9CC
:10684000234A244D136829A901331360280010221C
:106850000CF07AFD2C74204D15222EA928000CF086
:1068600073FD6C75069A1D4B1A601D4B079A1A60D2
:10687000FEF796F880E6029DB42D00D9B4252A00D3
:10688000310020000BF04FFF00222EAB5A55BCE622
:10689000BC540100CF4B0100324B0100C067010026
:1068A000B84A0100374B01003C4B0100404B01004E
:1068B000674B0100D0126341784B01007C4B010013
:1068C000804B01000000A041BE4B01005C12002083
:1068D000180B0020DF02002004030020FC0200202F
:1068E00000030020012C00D07EE1049B002B00D08F
:1068F00042E6A0229CAD5200A4A92800FDF77AFD33
:106900006B461B7C2A002B77A449A1A8FEF73DFA11
:106910000100A348FDF716FD2A00A249A1A8FEF731
:1069200034FA2A00010029A8FEF770F92A009E49CE
:10693000A1A8FEF72AFA01003800FDF727FD220082
:10694000069923A808F04CFA23A926A8FEF7A5F972
:106950002A009649A1A8FEF718FA2EAF209026A982
:106960003800219508F027FA2099219A3800FEF77F
:10697000A3F9380008F0B4F926A808F0B1F923A863
:1069800008F0AEF92200079923A808F029FA23A9F4
:1069900026A8FEF782F92A008549A1A8FEF7F5F995
:1069A00026A920903800219508F005FA2099219A0F
:1069B0003800FEF781F9380008F092F926A808F0AF
:1069C0008FF923A808F08CF9029B002B19D0099BA2
:1069D000002B00D1CEE028233A0002993000FDF7C9
:1069E00099FB431E272B0CD86B461B7C2A003B547B
:1069F0007049A1A8FEF7C9F92A0001003800FEF786
:106A000005F9059B002B00DB9CE06B4A9CA912A8B2
:106A1000FEF7D1F9129D139C684922002800FEF769
:106A2000E3F901000398FDF79BFC039B002B61D069
:106A30000E980BF0B1FC0022614B0AF097FA072682
:106A40000B000200009620A808F0E8F920A923A86E
:106A5000FEF723F922005B492800FEF7C5F923A9B8
:106A6000189026A8199408F0A6F9199A189926A83A
:106A7000FEF722F926A808F033F923A808F030F928
:106A800020A808F02DF90F980BF086FC00224C4B43
:106A90000AF06CFA00960B00020020A808F0BEF97C
:106AA00020A923A8FEF7F9F8220047492800FEF79D
:106AB0009BF923A9189026A8199408F07CF9189935
:106AC000199A26A8FEF7F8F826A808F009F923A8CD
:106AD00008F006F920A808F003F922003B49280035
:106AE000FEF782F90E230AAA9B1801000020185E07
:106AF000FDF741FC089809F093FE354909F0A2F929
:106B00000222011C20A808F06BF920A923A8FEF797
:106B1000C4F822002F492800FEF766F923A918902F
:106B200026A8199408F047F91899199A26A8FEF78B
:106B3000C3F826A808F0D4F823A808F0D1F820A8B4
:106B400008F0CEF80025244C26A99CA82694279569
:106B5000FEF72EFE200007F07DFF204C29A9102211
:106B600020000CF0F1FB15221D491E4825740CF085
:106B7000EBFB77E6029D282D00D928252A0031005D
:106B800038000BF0D0FD00222EAB5A5509499CAAC3
:106B9000A1A8FEF7FAF89CAA01002FE7BC54010057
:106BA0009D4A0100324B0100C0670100374B0100D4
:106BB0003C4B0100964A0100404B0100674B01002D
:106BC000D0126341784B01007C4B0100804B0100E7
:106BD0000000A041BE4B01005C120020DF0200203B
:106BE000444B010004030020032C00D0C4E4049BA8
:106BF000002B00D0C0E4059B002B00DBBCE4C022CE
:106C00009CAC9200A4A92000FDF7F4FB6B461B7C12
:106C100022002377CB49A1A8FEF7B7F80100CA48A4
:106C2000FDF790FB2200C949A1A8FEF7AEF82200AB
:106C30000100209029A82194FDF7E8FF2200C44913
:106C4000A1A8FEF7A2F801003800FDF79FFB012282
:106C5000069923A808F0C4F823A926A8FEF71DF872
:106C60002200BC49A1A8FEF790F826A91E902EA8E4
:106C70001F9408F0A0F81E991F9A2EA8FEF71CF882
:106C80002EA808F02DF826A808F02AF823A808F066
:106C900027F80122079923A808F0A2F823A926A81B
:106CA000FDF7FBFF2200AC49A1A8FEF76EF826A96C
:106CB0001E902EA81F9408F07EF81E991F9A2EA8E9
:106CC000FDF7FAFF2EA808F00BF826A808F008F840
:106CD00023A808F005F82100A04A14A8FEF76BF8D5
:106CE000149D159C9E4922002800FEF77DF80100A6
:106CF0000398FDF735FB039B002B61D00E980BF03A
:106D00004BFB0022974B0AF031F907270B000200DA
:106D1000009723A808F082F823A926A8FDF7BDFF55
:106D2000220091492800FEF75FF826A91E902EA8A0
:106D30001F9408F040F81F9A1E992EA8FDF7BCFF7B
:106D40002EA807F0CDFF26A807F0CAFF23A807F05A
:106D5000C7FF0F980BF020FB0022824B0AF006F9C8
:106D600000970B00020023A808F058F823A926A8D2
:106D7000FDF793FF22007D492800FEF735F826A98C
:106D80001E902EA81F9408F016F81E991F9A2EA880
:106D9000FDF792FF2EA807F0A3FF26A807F0A0FF9B
:106DA00023A807F09DFF220071492800FEF71CF878
:106DB0000E230AAA9B1801000020185EFDF7DBFADB
:106DC000089809F02DFD6B4909F03CF80222011CDE
:106DD00023A808F005F823A926A8FDF75EFF2200E6
:106DE00065492800FEF700F826A91E902EA81F94DA
:106DF00007F0E1FF1E991F9A2EA8FDF75DFF2EA850
:106E000007F06EFF26A807F06BFF23A807F068FFC6
:106E1000029B032B00D887E0584A9CA926A8FDF7BF
:106E2000CAFF269C279D56492A002000FDF7DCFF5B
:106E300001003078FDF794FA77782A005149200054
:106E40007F00FDF7D1FF002807D07F22037A07607B
:106E500093431A000A23134303722A004A4920006D
:106E6000FDF7C2FF0100B078FDF77AFA2A00474922
:106E70002000FDF7B9FF0100F078FDF771FA029BE1
:106E8000042B51D03579002D4ED003236B43029A49
:106E90000533934248D89CAA3D49A1A8FDF775FF48
:106EA000041E09D07F22037A93431A004023134320
:106EB000037200230360436003235D4305367319A7
:106EC0000293029B9E422FD0251E0ED09CA920002B
:106ED000FDF79AFA051E08D07F22037A93435F3AA2
:106EE00013430372002303604360777833789CAACE
:106EF00017493F0228001F43FDF776FF01003800C5
:106F00000227FDF743FA9CAA12492800F757FDF71C
:106F10006BFF002806D07F23027A07609A43753BF7
:106F2000134303720336CCE700231A4C2EA99CA806
:106F30002E942F93FEF73CFC200007F08BFDFFF70B
:106F40001BFBC046BC5401004D4B0100324B0100FD
:106F5000C0670100374B01003C4B0100404B010072
:106F6000674B0100D0126341784B01007C4B01005C
:106F7000804B01000000A041BE4B0100B94A010056
:106F8000844B01008A4B0100914B0100704B0100C2
:106F9000544B01005C120020F8B5B32501246D00AC
:106FA000174E300006F0D8F8002828D0300006F040
:106FB0000FF9C0B2134E0A2801D00D2814D1124F78
:106FC00032683B78002A09D0002B09D10F4883543E
:106FD000FEF7D6FF002333603B70E1E7002BF9D0CA
:106FE0000B48FEF763FCF5E73368AB4204D85A1C44
:106FF0003260064AD054D3E7034B1C70D0E7F8BD8B
:107000005C12002084040020880400201A03002061
:10701000DC4A01001C4B70B51B78002B01D0FFF738
:10702000EDF9FFF7B9FFFFF745F907F06DFF174AD4
:10703000174913680400C31A8B4202D91060FDF788
:1070400085FB144A14491368E31A8B4204D914606F
:10705000FEF796FCFDF7A4FC104B1B78002B11D01B
:107060000F4B187800280DD10E4D2B68A34209D87C
:10707000FA21490107F029FC0B4BE418201828607D
:10708000FFF744F970BDC046140B0020F002002049
:10709000CF070000F402002087130000DE0200206A
:1070A0002C0A0020280A002060EA0000E12170B5C7
:1070B000490286B06F4805F04DFF182008F018F916
:1070C00005001A2008F014F9040007F023FFA402B9
:1070D0006840604007F0E8FB6749012007F0F5FBD6
:1070E0000125664B012118800C2008F06FF9002162
:1070F0000C2008F0B7F9642007F03CFF604E300028
:1071000002F084F85F49300002F0A0F85E4C009570
:107110002B003C220221200002F0E6FB002813D0C5
:107120005A4B20001D7002F0CDFB2900200003F017
:1071300046FB00232361564B56496361200007F04C
:1071400091FC200002F092FE534C422231002000BC
:1071500005F0B6F8002816D00125504B504A002102
:1071600020001D7005F011F94D4A0021200005F0A6
:1071700013F9FA222900200005F000F9484A0221FB
:10718000200005F011F900230593464B08250493D0
:107190000A231226444C0293033B00930395019665
:1071A0000233424A4249200000F0C6F9002808D0C4
:1071B000FA24E4003F48FEF779FB200007F0DAFEEE
:1071C000F8E701223C49200000F02AF90028EFD11D
:1071D0003649200000F07AFF0028E9D1290020007C
:1071E00000F0F6FF0028E3D10521200001F010F89F
:1071F0000028DDD144223100200001F02AF80028C7
:10720000D6D12E49200000F037FB0028D0D1102124
:10721000200000F05FF90028CAD12900200001F009
:1072200035F80028C4D10121254B0091254A2000C2
:1072300001F0EAF80028BBD12000234900F014FA3D
:107240002249200000F02EFFFDF780FAFEF7B6FA83
:10725000FEF796FBFDF7A4FBFFF758F801221C4B45
:107260001A7007F051FE1B4BC0181B4B186006B07C
:1072700070BDC0465C120020FFFF0000CA0900205C
:107280004C0B0020801A060070020020DC02002057
:1072900001000100D153010018060020DD0200208A
:1072A0004C040000CDCCCC3F8C0400200000FA42FE
:1072B0000000D943E6530100CDCC664400000C43E6
:1072C000211000000F1D0000FD400000FFFFFF0027
:1072D000DE02002010270000280A0020F7B51D005C
:1072E00008AB1B7804000F001600002103220830B1
:1072F00001930BF034FA802222736A461049127906
:107300006161012100236274FF226018E372A77398
:10731000E6732574A27423766176C377A01CC277C6
:10732000E01CC27723609623064A9B016262636079
:10733000054A064B2000E26161732381FEBDC04611
:1073400080841E00983A0000240B00200D0A0000E3
:1073500010B5FF2801D008F039F810BD10B5FF288E
:1073600001D008F07FF810BD10B50400002902D04C
:10737000012910D010BD807B0121FFF7E9FFA07B20
:107380000121FFF7EBFF637B002BF3D0E06903687B
:10739000DB6A9847EEE7437B002BEBD0006861681F
:1073A0000368DB699847E5E710B50023FF2802D0A2
:1073B00008F084F80300180010BD10B507F0BEF9FE
:1073C00010BD10B507F003FE10BD10B507F0D2FDDB
:1073D00010BD10B507F0F0FD10BD10B507F094FD1D
:1073E00010BD10B507F096FD10BD70B5431CDB7FD6
:1073F00004001500002B08D0831CD87F0334FFF74E
:10740000ADFFE07F2900FFF7A9FF70BD10B50400B4
:1074100000F0CEF8014B2000236010BDDC5A0100C3
:1074200073B50C1C06002049201C150008F030FB29
:10743000002835D01D49201C08F016FB00282FD04D
:10744000002D0ED01A49201C08F018FB01AD0028B1
:107450000CD0184B2B802900300000F092FB002844
:1074600003D1211C300000F057FB76BD1249201CCF
:1074700008F004FB002801D0104BEBE71049201C5A
:1074800008F0FCFA002801D00E4BE3E70E49201C5F
:1074900008F0F4FA002801D00C4BDBE70C4BD9E7DD
:1074A0000C204042E1E7C046000016430000704453
:1074B00000006144E1E9FFFF00805444D7DBFFFF97
:1074C00000804044C1C5FFFF0000E6437581FFFF17
:1074D0006B6F0000F0B5CDB22B001133DBB285B07D
:1074E0000400272B23D80F2600236E44337032006C
:1074F0000133104900F082F9002816D1012702005B
:10750000009707230421200000F0BDFA00280CD1C9
:1075100004222900200000F03DFB002805D13B009B
:1075200032000449200000F095F905B0F0BD0D20AF
:107530004042FAE7E7080000F0B5040087B00E1CEF
:10754000111C1A000CAB1B780DA8059311AB1B780E
:107550000EAD0FAF00782D783F880393109B0090FD
:1075600002930197059B20006DB201F017FC0028E3
:107570000FD10122311C2000FFF752FF002808D153
:1075800029002000FFF7A6FF002802D1200000F00C
:107590009FF907B0F0BD70477047FC3010B5806AA6
:1075A00000220121FFF721FF0120404210BD000011
:1075B00070B504000D00FF22104901F07FFC104B54
:1075C0009A2108332360230000220120FC33490064
:1075D000DA621A635A6360541031DA631A645A64C7
:1075E0006252023162540231625200219D622000D7
:1075F000196559659A65DA6570BDC0460024743F07
:10760000145B010070B50400FC34A36A0E00050091
:107610000121187CFFF79CFEA36A0021187CFFF76C
:107620009DFE0120FFF7D1FEA36A0121187CFFF720
:1076300095FE002E12D0FFF7D0FE06002B68280022
:107640005B689847041E09D0FFF7C7FE054B801BF7
:10765000984204D80A20FFF7B8FEEFE70024200084
:1076600070BDC046B70B000010B5FC30836A042221
:10767000D87BFFF7A2FE10BDF0B589B01F0010AB9C
:107680001B781600029311AB1B7801900593030041
:10769000FC339A6A0491130006A91433D46921CBF0
:1076A00021C10021907BFFF759FEFFF796FE039062
:1076B000019DFC35AB6A587CFFF776FE00280FD0A1
:1076C000FFF77FFEFFF789FE039BC01A129B9842CB
:1076D000EED3AB6A0121987BFFF740FE444882E07D
:1076E00023680699DB69079A20009847049DAE1924
:1076F0002368B54205D029789B682000984701355A
:10770000F6E7002F41D00E270E9D029BEE1823684E
:10771000AE4257D09B6829782000984703003B4031
:10772000062B23D10625236820001B6A9847019C5D
:107730000121FC34A36A987BFFF710FE059B002B08
:1077400042D00120FFF745FEFFF747FE0600A36A7F
:10775000587CFFF729FE002836D0FFF732FEFFF7EE
:107760003CFE129B801B9842F1D3B7E7082B01D156
:107770000825D8E70A2B01D10A25D4E70138C0B281
:107780000135FD28C3D9FF25CDE79B6839002000CE
:1077900098470E230340062BC4D0082BE8D00A2BB1
:1077A000EAD00138C0B2FD28EDD80F9D029BEE183B
:1077B0002368B54206D09B680021200098472870B6
:1077C0000135F5E70025AEE7082D0ED003D8062DCC
:1077D00084D0002007E00A2D04D0FF2DF9D102202B
:1077E000404200E0034809B0F0BD0348FBE7C04653
:1077F0003FFDFFFF3DFDFFFF3EFDFFFF30B51D25B7
:1078000089B007AC2570A1700D0A07496570049115
:10781000029301210023039101920093032221008E
:10782000FFF72AFF09B030BD8813000070B586B09D
:107830000AAC24780BAD2D7802940024044E0093FA
:107840000496039501940123FFF716FF06B070BD5F
:107850008813000030B50D2585B003AC2570A170EC
:107860000D0A01216570019100932100130003228C
:10787000FFF7DCFF05B030BD73B50C1C060000211E
:10788000201C08F005F9002818D00E49201C08F02B
:10789000EBF8002812D06B46201CDD1D0AF0E8FD35
:1078A0000022094B09F062FB08F014F9012328704B
:1078B0002A0006493000FFF7CDFF76BD1120404277
:1078C000FBE7C04600000C4300000440E70800004E
:1078D00037B56B46DC1D00232200237008490133B5
:1078E0000500FFF78BFF002809D11E2322780449E9
:1078F00013432370220001232800FFF7ABFF3EBD96
:10790000D808000073B56B46DC1D00230E00237001
:10791000220001330A490500FFF770FF00280BD150
:1079200022780423002E08D19A43227001232200DA
:1079300003492800FFF78EFF76BD13432370F5E758
:107940003607000030B585B003AC63700E25012307
:107950002570019300920B0002222100FFF766FFC1
:1079600005B030BD30B589B00D000CA90C781F21D1
:1079700069440D7002930023054D01930133009279
:10798000049503941A00FFF777FE09B030BDC04696
:10799000881300000300002230B5FC3385B00400DA
:1079A0000D00986A1100FFF720FD012303AA15704E
:1079B000802100932000FFF7D5FF05B030BD10B542
:1079C0000021FFF7E7FF10BD1FB50F226A44002911
:1079D00007D1117001239D210093FFF7C3FF05B06C
:1079E00000BD01231370F5E71FB50B0C03AA13703C
:1079F0000B0A537001239170009383210233FFF728
:107A0000B1FF05B000BD1FB50B0C03AA13700B0A24
:107A1000537001239170009382210233FFF7A2FF7C
:107A200005B000BDF7B5002410490500FFF7EBFFD6
:107A30000A20FFF7CAFC26006B46DF1D00233A0030
:107A40003B700B4901332800FFF7D8FE01223B7839
:107A50001340A340A4181E43F6B2082CECD12B68A7
:107A600028005B6898473000FEBDC046FFFFFF005E
:107A700019080000012307B500930023C5211A004F
:107A8000FFF770FF0EBD30B585B008AC257803ACAC
:107A9000637001232170A270E5702200009395218C
:107AA0000333FFF75FFF05B030BD7FB508AC258815
:107AB00002AC6170E27063710E0A110A1A0A2B0A95
:107AC000A3710123A17022712670E5710093073321
:107AD00022001900FFF746FF04B070BD1FB50B0A66
:107AE00003AA1370012351700093DB181900FFF7EC
:107AF00039FF05B000BD1FB50B0E03AA13700B0CA8
:107B000053700B0A93700123D170009386210333C5
:107B1000FFF728FF05B000BD10B50400081C982130
:107B2000C90508F067FB0AF0A3FC0022044B09F02A
:107B300027FE07F0CFFF01002000FFF7DCFF10BD9C
:107B40000000A03F030030B5FC330D0085B00400F9
:107B500001220021986AFFF748FC002D0AD100237A
:107B600003AA137001330093D1212000FFF7FAFE1E
:107B700005B030BD29002000FFF7BDFF0028EED082
:107B8000F6E7012307B50A0000939821DB18FFF7F9
:107B9000E9FE0EBD1FB5012303AC217062708E217A
:107BA00000932200DB18FFF7DDFE04B010BDF0B536
:107BB00087B002929A222C2503935200825C0CAB70
:107BC00004000F001B78FF35002A28D02A23012645
:107BD000FF33C35C3000984008F06CFE2300FC3398
:107BE000596B08F02FF98321C90507F051FF0028D0
:107BF00013D066556B461B7A05AA53706B461B7BE8
:107C000017709370635D8B21D37001232000009364
:107C10000333FFF7A7FE07B0F0BD6055EAE7435511
:107C2000E8E77FB5089D02AC23712B0C63712B0A2A
:107C3000A37101230E0C26700E0AA170E27066700B
:107C4000E571220000938B210733FFF78BFE04B010
:107C500070BDF0B587B003930CAB1F780DAB1D78EA
:107C60000E00290004000292FFF74CFE002812D1FA
:107C700004AA330A13706B461B7B5670D3706B4695
:107C80001B7A97701371012355718C21009320008A
:107C90000533FFF767FE07B0F0BDF0B58BB010AC51
:107CA000267811AC24780393049412AC257813AC95
:107CB00024780B0A059414AC277807AC23706B4624
:107CC0001B7B6170E3706B461B7DE271A3716B4699
:107CD0001B7CA7702372012326716571220000931B
:107CE0008C210833FFF73EFE0BB0F0BD1FB501231A
:107CF00003AC217062708F2100932200DB18FFF724
:107D000031FE04B010BD1FB5012303AA117000930A
:107D10009621FFF727FE05B000BD10B50021FFF743
:107D2000F2FF10BD10B50121FFF7EDFF10BD1FB52B
:107D3000002303AA13800133009307210133FFF7C7
:107D400011FE05B000BD00000022F0B50F0087B0A5
:107D500011000600FFF7CAFF041E54D104AD2F70B6
:107D600001272A0000973B008A213000FFF7FAFD27
:107D7000041E48D120232A002B70932100973B003A
:107D80003000FFF7EFFD041E3DD103232B702A23A3
:107D9000FF33F35CA8800D336B700A23A8716B80EE
:107DA0002A000097033B88213000FFF7DBFD041E0B
:107DB00029D116493000FFF791FE2300039000946B
:107DC000220021003000FFF770FE039B03431CB22A
:107DD000002C18D17F232A002B70892100973B00AB
:107DE0003000FFF7BFFD041E0DD10520FFF7EDFAAF
:107DF0003300FC339B6A587CFFF7D6FA002802D088
:107E0000FFF7DFFAF4E7200007B0F0BDFF03000042
:107E100070B586B00AAC0BAD24782D7801930023A1
:107E2000044E0395049602940093FFF725FC06B0D8
:107E300070BDC046881300001FB51E240B0003A9A7
:107E40000C801D3C009201940222FFF7E1FF04B078
:107E500010BD000030B589B00D000CA90C781F21B1
:107E600069440D7002930023044D0192049503941C
:107E700000930122FFF700FC09B030BD8813000019
:107E80001FB5002303AC238001330093220001338C
:107E90001321FFF7DFFF207804B010BD1FB50023CA
:107EA00003AC2380A3700133220000931521023319
:107EB000FFF7D0FF207808F0FDFCBF21090608F08D
:107EC00099F904B010BD1FB5002303AC2380013322
:107ED0000093220001331221FFF7BCFF2378607862
:107EE0001B02184304B010BDF7B5036801915B682D
:107EF000050016009847041E1ED12800FFF7E3FF77
:107F000060232700184200D0073FFF2E05D12B68C1
:107F100001219B6A280098470600F2B201992800C7
:107F2000FFF78AFF041E07D104492800FFF7D6FD9A
:107F30000400002F00D03C002000FEBDFF03000025
:107F40001FB50F24FF236C442370FE3B00932200D7
:107F50001121FFF77FFF207804B010BDF7B50500B1
:107F6000FFF7EEFF0700012840D12B6828005B686F
:107F70009847041E2ED12E00FC3602003900B06A4C
:107F8000FFF733FAC02252000094230011002800AA
:107F9000FFF78BFD041E1DD115492800FFF79EFD3C
:107FA000041E17D12800FFF765FD041E12D1B36A25
:107FB000D87BFFF7F9F9002802D1FFF702FAF6E7BC
:107FC0002800FFF780FFC30506D509492800FFF701
:107FD00085FD084C2000FEBD0124030604D504499C
:107FE0002800FFF77BFD0F246442F3E71424FBE72E
:107FF000FF03000042FDFFFF002330B587B0009370
:10800000022226490400FFF750FD051E22D102007E
:1080100001002000FFF76AFE051E1BD12049200049
:10802000FFF75CFD2000FFF78BFF012815D123002F
:108030002E2096222100FC33FF30DB6D205C5200A5
:10804000FE31098EDBB20090A25C01952000FFF7A3
:1080500000FE0500280007B030BD00281BD1053008
:108060000490FA3003904730205C4423029046206D
:10807000FF30205CA1220190A220A4214000205CBE
:10808000FF33520049000090E35CA25C615A20007B
:10809000FFF703FEDDE701256D42DBE7620200002A
:1080A000FF03000070B504000D00FFF7A5FF0028D6
:1080B0000AD12300FC3302000121986AFFF795F9E9
:1080C00029002000FFF79FFC70BD000073B504007D
:1080D0000D1CFFF735FF0600012800D06EE00021DF
:1080E000281C07F0D5FC00281BD03649281C07F0B7
:1080F000BBFC002815D0FC21281C890508F07AF863
:108100000AF0B6F9304A314B08F014FC07F0E2FCF3
:10811000C0B20F2842D00ED8052824D003D8032897
:108120001CD008204BE0072821D00A28F9D194233D
:1081300009225B0015E03E2838D007D8142831D03A
:108140001F28EED1942303225B000AE07D2831D062
:10815000FA28E6D1942306225B0002E09423002251
:108160005B00E25406E0942308225B00F9E79423C5
:108170005B00E65423002C20FC335D63942295239E
:108180002A21FF30205C5B005200FF310090E35C4D
:10819000A25C615C2000FFF70AFD76BD94230222F9
:1081A0005B00DEE794230A225B00DAE794230422D3
:1081B0005B00D6E7942305225B00D2E714204042FF
:1081C000EBE7C0460000FF437B14AE47E17A843FF3
:1081D00037B504000D00FFF7B3FE012813D16B1F64
:1081E000072B13D82A232C219422FF33E554FF3187
:1081F000615C013352000091E35CA25C2900200025
:10820000FFF7D5FC3EBD14204042FBE70920FBE709
:1082100037B505000C00FFF793FE012814D1631F4A
:10822000032B14D895222C202A21231F5200DBB2C5
:10823000AB54FF30285C023AFF310090AA5C695CC5
:108240002800FFF7B4FC3EBD14204042FBE70A20A3
:10825000FBE773B505000C001600FFF771FE01285F
:1082600011D10F21230030098B430E40E821034335
:1082700001AA2401137034430223C900280054705A
:10828000FFF7E8FA76BD14204042FBE730B587B02F
:1082900004000D00FFF754FE012814D12300002133
:1082A000FE331D86023BDB6D01912E219622FF31AC
:1082B000615C52000091DBB2A25C29002000FFF754
:1082C000C8FC07B030BD00281CD10521A4230491AF
:1082D0005B00FA31E55203914731615C442302911E
:1082E0004621FF31615CA1220191A2214900615C1C
:1082F000FF3352000091E35CA25C29002000FFF7ED
:10830000CCFCDEE701204042DBE70000F7B50400CB
:108310000D1CFFF715FE002837D10021281C07F09F
:1083200099FB002800D01B4D281C0AF0A1F81A4A1E
:108330001A4B06000F0007F071FB002828D01849DF
:10834000281C07F091FB002822D00022154B30009A
:10835000390009F015FA83230022DB0509F010FA31
:108360000022114B08F002FE07F0B4FB2100A0230D
:108370004222FC3108645B000090FF32E35CA25CA7
:10838000C96B2000FFF74DFCFEBD14204042FBE707
:108390006620FBE79A99193F333333333333E33F96
:1083A0000000484300408F4080847E4137B5040080
:1083B0000D00FFF7C5FD002820D1042D21D8422251
:1083C0002800FF3207F076F9031214161800002374
:1083D0002100A354A023FC31086C5B000090E35CF7
:1083E000A25CC96B2000FFF71CFC3EBD0823EFE731
:1083F0000923EDE70A23EBE70B23E9E714204042CA
:10840000F3E76A20FBE70000F0B58BB0079310ABF1
:1084100004000D0017001E78FFF792FD002851D1CF
:10842000012D40D0002D03D0022D44D0344838E037
:10843000A12301225B00E25405200490FA3003904E
:108440004730205C442302904620FF30205CA1226C
:108450000190A220A4214000205CFF33520049007B
:108460000090E35CA25C615A2000FFF716FC002834
:1084700017D109AD3B0A2B702A00022321492000A5
:108480006F70FFF7E7F900280BD1079B2A001B0A42
:108490002B706B461B7F1C496B7020000223FFF77B
:1084A000D9F90BB0F0BDA1235B00002E01D004224E
:1084B000C1E7E654C0E7A12306225B00002EBAD133
:1084C000E554B9E7012818D196225200002D12D0A8
:1084D000A054230021000020FC33FE31DB6D098E07
:1084E00001902E20FF30205CDBB20090A25C2000C7
:1084F000FFF7AFFBD5E7A554EBE701204042D0E7FB
:1085000043FDFFFFBC060000BE060000F0B58BB0C7
:1085100004000D000792FFF713FD002850D14627F5
:10852000FF37002D1AD14423A122A4210530049045
:10853000FA30E55503904730FF3352004900205C84
:10854000E35CA25C615A02900195A2204000205C8D
:1085500000902000FFF7A1FB0BB0F0BD0126D72152
:1085600009ADE65533002A00C9002000FFF746F99F
:108570000028F1D1079A2B781212B34316401E43FC
:108580006B46D7211B7F2A006B70C9000223200095
:108590002E70FFF75FF90028DED14423A122A42129
:1085A00005300490FA3003904730205CFF3302908E
:1085B000E05D52004900E35CA25C615A0190C4E7AF
:1085C00014204042C8E780224B1E994110B5C9B221
:1085D0005200FFF79BFF10BDF7B504000091260085
:1085E000FFF7AEFCFC36012851D12A23FF33E55CAE
:1085F0002D48A84008F05EF92C49071C706B07F065
:10860000F9FD011C381C07F01DFC07F04BFA6B1F2D
:108610000600012B38D800221927254BA9009E42BD
:1086200002D929003E3189002E23FF33E05CC9B214
:108630004342434158421423034096200193400093
:10864000205C009B4000C0184000451BAD00019B12
:10865000AD18ED182DB2281C002D00DA00204B1E9D
:1086600000B2C01807F0BAF895235B0082B2E05C54
:10867000FE3404305043238E800008339B00DF1902
:10868000C7197743B808FEBD08221127C5E7009B2C
:10869000F56BD800684309F0B9FE0022054B09F0DC
:1086A0006FF807F017FAEEE71027000000002041EE
:1086B0007F3E00000000503FF0B585B00293036894
:1086C00004005B680E0017009847002867D1FF2F51
:1086D00067D82000FFF734FC01282ED13900200094
:1086E000FFF77AFF032358434308019323683A00B6
:1086F000DD683100029B2000A84700284FD1FEF71B
:1087000070FE05002600FC36B36AD87BFEF74CFEEF
:1087100000281BD1FEF755FEFEF763FE019B401BB0
:108720009842EFD921492000FFF7D8F923682000AB
:108730005B6898470520404231E0002833D139007A
:108740002000FFF749FF05234343CEE7FEF749FE2C
:108750000190380009F05AFE0022154B09F010F87C
:10876000019B02900391581B08F0A4F809F080FEC9
:108770000022104B08F0FAFB02000B00029803994C
:1087800008F0F4FB09F0C6FE084970652000FFF709
:10879000A5F9002803D1236820005B68984705B03D
:1087A000F0BD0420C7E70120C5E7C046FF03000075
:1087B0000000204080842E41F7B56B46DC1D00236D
:1087C00022002370164901330500FFF717F800282F
:1087D00020D12800FFF7B4FB01281CD12B00FC336B
:1087E000586B09F045FE00220E4B09F03BFA490098
:1087F0004F080D4A0D4B390007F0FCF800280AD04D
:108800000422237893432370220001230449280083
:10881000FFF720F8FEBD042322781343F3E7C04698
:108820008908000000407F40FCA9F1D24D62503F12
:10883000F0B5050087B00F001600FF2A75D8A223F7
:108840005B00C35C002B01D0FF2A6ED02800FFF72D
:1088500077FB01284AD129000020FE31098E0190C2
:108860002E209622FF30285C52000090F3B2AA5CC2
:108870002800FFF7EEF9041E59D1009003000122F1
:108880002D492800FFF711F9041E50D10200010004
:108890002800FFF72BFA041E49D10300F2B2390079
:1088A0002800FFF74FF8041E41D124492800FFF7A4
:1088B00015F9041E3BD12800FFF77EFF041E36D1B8
:1088C0002E00FC3601000122B06AFEF78EFD210069
:1088D0002800FFF789F8041E29D1B36A587CFEF7F7
:1088E00063FD002823D0FEF76CFDF6E7002821D1B8
:1088F00005300490F0B20390A3204000285C44238C
:1089000002904620FF30285CA1220190A220A421E1
:108910004000285CFF33520049000090EB5CAA5CE9
:10892000695A2800FFF7B9F9A5E70424644220003A
:1089300007B0F0BD0124F9E701020000FF030000C9
:108940002E2373B5FF33C35C0400012B02D0142027
:10895000404276BDFFF7F4FA06000128F7D16B46D6
:1089600092219A1D00230901137003002000FEF7D5
:1089700071FF0028EDD16B46DD1DD8712A00330050
:1089800008492000FEF73AFF0028E2D102232A78A6
:10899000044913432B702A0033002000FEF75AFFCE
:1089A000D7E7C04644090000F7B5036801915B684A
:1089B000040015009847002800D082E02000FFF74F
:1089C000BFFA012847D12A23FF33E35C984007F020
:1089D00071FF2300FC33596B07F034FA09F048FDAE
:1089E00000223F4B08F0CCFE00223E4B08F0C8FEB0
:1089F00007F070F8060007F05DFF09F039FD00226E
:108A0000394B08F0B3FA07F065F801002000FFF7D2
:108A100049FB002855D1FEF7E4FC07002300FC3396
:108A20009B6AD87BFEF7C0FC00283FD1FEF7C9FC4B
:108A3000FEF7D7FCC01B8642F0D22000FFF780FF74
:108A40002A492000FFF74AF8236820005B6898470E
:108A50000620404235E000283FD1281E00D1FF20EB
:108A600009F0D4FC0022224B08F08AFE2300FC33DC
:108A70000600D86B0F0007F01DFF09F0F9FC02009B
:108A80000B0000201B4908F071FA09F043FD09F0C2
:108A9000EFFC02000B003000390008F067FA0022FA
:108AA000154B08F06DFE0022144B9FE72E23FF3379
:108AB000E35C012B06D023682A001B690199200082
:108AC0009847FEBD2000FFF73BFA0128F3D12000B4
:108AD000FFF736FF0028EED0F3E70120B9E7C046E4
:108AE0000000594000408F4000402F40FF0300002D
:108AF000000020408084CE4180842E41000014403C
:108B00001FB5002303AC2380A37001330093220020
:108B100002331421FFF79EF92078637800041B02CA
:108B20001843A378184304B010BD000070B5FFF7D8
:108B3000E7FFC0B209F030FC0400802000060D18E9
:108B40000022044B2900200008F01AFE09F0E2FC84
:108B500070BDC0460000E03F10B50400FFF7F0F91B
:108B6000012812D12000FFF7CBFF030AD8B21B0661
:108B700008D409F011FC0022054B08F001FE09F0B1
:108B8000C9FC10BD0138FF38F3E70248F9E7C046D9
:108B90000000D03F0000A0C11FB50024012303AA9C
:108BA000148017210093DB18FFF754F9200004B05C
:108BB00010BD0000F0B5036889B05B6803900492B3
:108BC0000E1C98470398FFF7E7FF830602D503982A
:108BD000FFF7ADF87000400809F04AFC5F4A604BAF
:108BE00006F008FF0590002805D001210398FEF744
:108BF00009FD09B0F0BD301C09F03AFC594A5A4B46
:108C000004000D0009F02EF849004F08534A544B58
:108C1000390006F0EFFE002820D06A46127D07AB2F
:108C20001A70049807F046FE09F022FC00224F4B10
:108C300008F09CF906F04EFF07AA030C5370030AD4
:108C40009370039B0499FC3399650123D07097219D
:108C5000009303980333FEF785FECAE7444A454B69
:108C60002000290008F0FEFF49004F083B4A3C4B1A
:108C7000390006F0BFFE002802D007AB0122CFE783
:108C80003D4A3E4B2000290008F0ECFF49004F0808
:108C9000324A334B390006F0ADFE002802D007AB54
:108CA0000222BDE72F4A364B2000290008F0DAFFE8
:108CB00049004F08294A2A4B390006F09BFE00283C
:108CC00002D007AB0322ABE7294A2E4B2000290034
:108CD00008F0C8FF49004F08204A214B390006F030
:108CE00089FE002802D007AB042299E71D4A264BD3
:108CF0002000290008F0B6FF49004F08174A184B1A
:108D0000390006F077FE002802D007AB052287E77E
:108D100000221E4B2000290008F0A4FF49004F0844
:108D20000E4A0F4B390006F065FE002802D007AB53
:108D3000062275E7164A174B2000290008F092FF1B
:108D400049004F08054A064B390006F053FE00283B
:108D500002D007AB072263E70F484AE7FCA9F1D22C
:108D60004D62503F9A9999999999F93F00402F4047
:108D7000333333333333FB3FCDCCCCCCCCCCFC3F83
:108D80009999014033330340999905400000084008
:108D90006666666666660A4041FDFFFFF0B505003F
:108DA00087B003930CAB1B78FC3504930DAB1B8889
:108DB000040002930FAB1B780F1CA86A00210192DC
:108DC0000593FEF7D1FAAB6A0021D87BFEF7C0FA13
:108DD000AB6A0021587CFEF7BBFA6A462A23127957
:108DE000FF336F63E2540422013BE2546A462300DE
:108DF0001289FE331A8600220126AA6503329A855B
:108E0000DE85FF233100EB652000FEF7FBFB002829
:108E10004AD1236820005B689847002844D131007C
:108E20002000FEF791FF00283ED100210E9806F0A9
:108E300025FE002831D101992000FFF7C9F900284B
:108E400032D1391C2000FFF741F900282CD10399B9
:108E50002000FFF7DDF9002826D1442204992000E4
:108E6000FFF7F7F900281FD102992000FFF70EFA4B
:108E7000002819D10F492000FEF7FEFC002813D16D
:108E800001212000FEF7A0FD00280DD1059B200048
:108E9000002B0BD0FEF741FF06E0074A0E99200099
:108EA000FFF788FE0028C6D007B0F0BDFEF73AFFF6
:108EB000FAE7C0460000704288130000034B41608F
:108EC00003600023826083817047C0465C5B0100C1
:108ED00070B506000C008D18AC4207D033682178BD
:108EE0009B683000984720700134F5E770BD7047EB
:108EF000704710B50400406803F07AFD0023237624
:108F000010BD10B5406803F098FD10BDF8B5050020
:108F100040680C0003F08CFD2B68E7B2260A9B68C2
:108F2000012810D139002800FF2798472B68BC433F
:108F300004439B6831002800984703022000384012
:108F4000184380B2F8BD310028009847FF262B68EF
:108F50000002344004439B68390028009847B4431A
:108F60002043EEE710B5040006F05AF8200010BDCB
:108F700010B54B1C0BD0102909D0EFF3108472B63A
:108F8000102905DD02234376002C00D162B610BD06
:108F90000123427E1A43427618224A430449891823
:108FA00016228A569340C2691343C361ECE7C04658
:108FB000207001004B1C17D0102915D0437E9B0751
:108FC00012D4EFF3108272B618234B430749C91825
:108FD0000123897D49B28B40C1699943C16100D1A8
:108FE0004176002A00D162B67047C0462070010069
:108FF000437E002B05D09A0704D5837E002B00D03A
:1090000062B67047DB07FCD5C369024A9BB2D360E6
:10901000F7E7C04600180040037E002B04D14376DA
:109020008376C36101330376704700007FB503691F
:1090300002AE04000D00029172608B4203D1828A5D
:10904000B3889A4226D0200006223100103009F061
:109050006AFB606803F0E3FC7379E17A013B581E18
:109060008341227B00936068002303F075FE33790F
:109070000021013BDBB2022B01D8074AD15C074B30
:109080002A009D4200D91A00606803F099FC6068CC
:1090900003F0BBFC7FBDC046945B0100001BB70022
:1090A00070B518260400FFF7B7FF33000821207AB7
:1090B0000D4D4343EB18595606F018FA33000821BA
:1090C000A07A4343EB18595606F010FA0821607A4B
:1090D0004643AD19695606F009FA044B200006CB49
:1090E000FFF7A4FF70BDC04620700100440B0020B4
:1090F00007B5437E00910192002B07D09A070AD54D
:10910000EFF310835A425341837672B60099019A65
:10911000FFF78CFF07BDDB07F8D5C369014A9BB297
:109120009360F3E7001800400E490F4B10B5012281
:109130000B6000234A710B710C490D480831016026
:109140000C49427541600C49C272018114210361CE
:1091500081720375094A0A490376037306F074FAAB
:1091600010BDC046440B002000093D00985B010083
:10917000240B0020301200201215000000000020F7
:10918000F18E00000020704710B503689C6B01232E
:10919000A04710BD8C2300229B00C154103BC31874
:1091A0005A609A60DA6001238375704710B50368CE
:1091B00001211B6B984710BDF8B505000E00170084
:1091C0000024BC4208D02B68315D1B6828009847FA
:1091D000002801D00134F4E72000F8BDFC30406ADB
:1091E000704770478E239B00C15070478D239B00B2
:1091F000C15070470300FC335A6A002A03D01B6A2F
:10920000C018007E704701204042FBE770B50600A1
:1092100018250C49006903F0E9FD306903F027FCCB
:109220002B000821307D084C4343E318595606F0C3
:109230005DF90821707D45436419615606F056F9C1
:1092400070BDC046A08601002070010070B504000A
:109250000D00006903F020FC2900206903F0C6FD21
:10926000206903F004FC70BD10B5006903F014FC24
:1092700010BD0000F7B50193FA23802600250400F5
:109280009B008360134B760008330F004560290074
:10929000009203603200183009F061FA23002000C8
:1092A000FC332530DD6132001D6229005D62FF3034
:1092B00009F055FA88239B00E3185D609D60DD602E
:1092C0006B461B78276123756B461B79A5752000BB
:1092D0006375FEBDD45B010070B5060018250069FA
:1092E00003F05FFD306903F0C2FB2B000821307DE5
:1092F000064C4343E318595606F0F8F80821707DF0
:1093000045436419615606F0F1F870BD2070010004
:1093100010B50022FFF7E0FF10BD0300802210B55A
:10932000FC33DC685200944208D05A6881545A6871
:109330000132D2B25A60DA680132DA6010BDF7B594
:109340000400171E019302D100252800FEBD030072
:109350000022FC33DA611A625A620069013203F0BA
:10936000CDFB061EF0D0230020691833009303F0D4
:1093700058FC01000098FFF7D0FF01252069BD428D
:1093800014D003F02CFC00280FD0206903F096FBCA
:109390000221206903F09CFB206903F042FC0100DC
:1093A0000098FFF7BAFF0135E8E70600206903F0EF
:1093B0007DFB019B002B06D0002E06D003212069E7
:1093C00003F086FBC1E7002EBFD1013DBDE70023BE
:1093D00010B5827D9A420CD0882292008218D468FF
:1093E00080225200944204D02530FF30FFF795FFD1
:1093F0000123180010BD0300FC33DA68002A09D0ED
:109400009A68805C9A680132D2B29A60DA68013A4E
:10941000DA60704701204042FBE700228C2370B5E0
:109420009B00827504000E00C15C006903F066FBBE
:10943000002806D10321206903F04AFB02252800F9
:1094400070BD88239B00E318DD68002D11D020003B
:109450002530FF302569FFF7CEFFC1B2280003F0A9
:109460008FFB0028EDD10321206903F031FB032598
:10947000E5E7002EE3D00321206903F029FBDEE7B6
:1094800010B51830FFF7B7FF10BD70B504000069C4
:1094900003F09CFB002815D0206903F0AEFB0028E8
:1094A00011D0206903F00AFB0321206903F010FBAF
:1094B0008E239B00E558002D35D10023FC34E36159
:1094C0002362636270BD206903F0A1FB002809D00C
:1094D000206903F097FB002804D0206903F09CFB6F
:1094E0000028DED0206903F092FB002821D12069FA
:1094F00003F07EFB0028E5D0206903F08DFB0028F7
:1095000033D088239B00E318DB68FF21002B05D0B4
:1095100020002530FF30FFF76EFFC1B2206903F055
:1095200047FBA075CEE7236820001B699847A84732
:10953000C3E7206903F0C2FA2069032103F0C8FAE7
:10954000206903F069FB0028BCD0882300229B001F
:10955000E3185A609A60DA600123A3758D239B009B
:10956000E3589342AED09847ACE72300FC335A6AE5
:10957000802320695B009A4206D103F097FA032109
:10958000206903F0A5FA9DE703F04BFB01002000E2
:109590001830FFF7C2FE206903F090FAEFE70000F1
:1095A00010B50248FFF771FF10BDC0464C0B0020FC
:1095B00010B51123102202490248FFF75BFE10BDCF
:1095C000281200204C0B00207047F0B500291BDB4F
:1095D0000C25445F8C4217DD002A15DB0E25445F05
:1095E000944211DD847E022C0FD0032C16D0012C66
:1095F00004D1D2430489A4180A0021B2012B13D04C
:10960000002B22D0022B32D0F0BD0489013C611A1C
:10961000D443428909B2121912B2EFE74489013CDE
:10962000641A110022B2E9E70725D4172C40A418C8
:109630002A4093400827C65FE41074436118C46A47
:1096400061180A7813430B70DEE70724D317234011
:109650009B180826855FDB106B435918C36A2240AC
:109660005918012393401A000B789343EBE7072422
:10967000D31723400826855F9B18DB106B435918CE
:10968000C36A012022409040020059180B785A40CA
:109690000A70B9E770B5002504001E0012B204ABD1
:1096A00009B25D5700F01EFE104B08332360002303
:1096B00063629E4200D10E4E2100FF223331A6622A
:1096C000E3620A704A708A70CA70220037321570DD
:1096D000059A2000A265069AE265064A62662200A3
:1096E000643213710123537170BDC046C460010020
:1096F0004C0B002000093D00054B10B50833040059
:109700000360C06A002801D008F0E2FF200010BD0D
:10971000C4600100F8B50400806A0D00002814D070
:109720002300303319780368DB6A9847A06A002168
:1097300003681B689847A06A290003681B6898475C
:10974000A06A03685B6B9847F8BD226C216D1368B3
:10975000606A8B431360002804D0036829009B686B
:109760009847F1E708218020E36BA26BA76C16688D
:1097700028420ED03E4316601E68E76C01393E4316
:109780001E601E68E76C4008BE431E600029EDD1D4
:10979000DAE7BE43EFE770B50400806A0D000028E9
:1097A00012D00368A16D9B6A984729004D1EA941FC
:1097B0002000A631FFF7AEFFA06A002812D0036890
:1097C000E16D9B6A984770BD606A002804D0036809
:1097D000616EDB69A26E9847626C616D13688B43A2
:1097E0001360E2E7626C616D1368606A0B4313609B
:1097F0000028E8D003681B6A9847E4E7F7B504003F
:10980000806A8B180D00019300282BD02700036875
:1098100030373978DB6A9847A06A0021036801264F
:109820001B689847A06A019A0368954217D0FE2EDC
:109830000CD95B6B9847A06A397803680126DB6A0C
:109840009847A06A002103681B689847A06A297896
:10985000036801361B689847B6B20135E2E75B6BD7
:109860009847F7BD226C216D13688B431360019BF1
:10987000AB42F6D02B78606A0093002805D00368CD
:1098800000999B6898470135F1E708208026E36B33
:10989000A26BA76C0099BC4617680E420FD06146B8
:1098A0000F4317601F68E16C01380F431F601F688A
:1098B000E16C76088F431F600028EAD1E3E7614638
:1098C0008F43EEE7072110B50A22835E0733DA17CC
:1098D0000A40D2180821435ED2105A43C06A0021C0
:1098E00008F03DFF10BD0000F0B587B004930CAB4D
:1098F0001B7804000593C36A0E001500002B1BD0D3
:109900002000FFF7DFFF0A23E25E0823E15E202A42
:1099100025DC203AD30F9A180B00733BD90FC918D6
:10992000012302931F3352104910019353330093C4
:1099300012B209B2B04B24E00A22835E0722073339
:10994000D8171040C0180822A35EC010584308F072
:10995000B5FEE062031ED3D1180007B0F0BD403A57
:10996000D30F9A180B00523BD90FC9180123029349
:109970003F33019312335210491000939F4B12B2A0
:1099800009B2200000F0C8FC230031331E70A06A29
:10999000002800D19CE0002D00D097E00A23E55E6E
:1099A000203D6B1E9D413C35230030331D70059BCF
:1099B000002B00D11BE10368DB699847049B002B57
:1099C0001BD02500002037352856002815DBC0B2F3
:1099D000012105F0FBFC0121287805F043FD012061
:1099E00005F0C8FA0021287805F03CFD0A2005F0B2
:1099F000C1FA2878012105F035FDA06A002800D1C0
:109A0000CBE00368A16D9B6A984704227C49200043
:109A1000FFF7F4FE618920000139C9B2FFF77AFE31
:109A20002500784904222000FFF7E8FE00233135A5
:109A3000EB561421012B00D104392000FFF76AFEF8
:109A40002600042270492000FFF7D8FE8F236036DD
:109A50003370A3686D4A022793420BD06C4A93423D
:109A600000D0A8E00022AA56CF23012A00D1303B23
:109A700012273370DA212000FFF74CFE3900200056
:109A8000FFF748FE81212000FFF744FE31782000D7
:109A9000FFF740FED9212000FFF73CFE0023EB56E4
:109AA000F121012B00D1CF392000FFF733FE200038
:109AB00006225849FFF7A2FEA06A002800D188E0DC
:109AC0000368E16D9B6A9847012345E76DB26BE738
:109AD00025002700353528780121363705F076FC3A
