:104000000080002079F6000061F6000061F60000F3
:1040100000000000000000000000000000000000A0
:1040200000000000000000000000000061F6000039
:10403000000000000000000061F60000CDF6000066
:1040400061F6000061F6000061F6000061F6000014
:104050004DF0000061F6000061F6000065F600001A
:1040600061F60000CDCF000061F6000061F60000AF
:10407000B99A000061F60000DDCF000061F6000093
:1040800061F6000061F6000061F6000061F60000D4
:1040900049D6000061F6000061F6000061F60000FC
:1040A00061F6000061F6000061F6000061F60000B4
:1040B0000000000010B5064C2378002B07D1054BFB
:1040C000002B02D0044800E000BF0123237010BD84
:1040D000300200200000000008850100044B10B5EC
:1040E000002B03D00349044800E000BF10BDC046C8
:1040F000000000003402002008850100034B1B78FB
:10410000002B02D00122024B1A70704704000020DD
:10411000480B0020F0B505001F00140085B0009189
:1041200002920393009B002B3AD02B78FE2B0ED1EA
:10413000002F03D10398013005B0F0BD6B78013F2B
:104140002370009B01340235023B0093EAE7FF2B0A
:1041500011D16B785E1C0193B742EBDBA91C3200D6
:1041600020000FF080F8A419BF1B019E009B0336AE
:10417000AD199B1BE9E70C4A9B009B581800019363
:104180000FF06AFE06008742D4DB0200019920008E
:104190000FF069F8009BA419BF1B0135013BD4E760
:1041A000029BE01AC8E7C046085B0100F0B5002496
:1041B0001700CDB0029001910792089303930694E3
:1041C000019B002B00D1A1E0029B1B78DE00059330
:1041D000019B3000012B02DD029B58788019019D64
:1041E000022D08DD029B07259B7843400693019B27
:1041F000062B00DC1D00F1210CF08CF8300004913E
:10420000F1210CF087F806980E00F1210CF082F8ED
:10421000B30009938B000A93049B9B000B93002D22
:1042200048DD012D04D0022D21D0454B0A9A01E032
:10423000434B099A9E5833780493002B38D0AB42F5
:1042400032D1701C2A0002990EF0FEFF00282BD1FB
:10425000002C5ED00222012C00D0A2180399BB18BA
:104260008A1A002A06DC089801304DB0F0BD344BA4
:104270000B9ADFE7013A0392019A0499521B7618D0
:104280000192029A71785219197002920133002F2B
:1042900050D038001F00012C2ED1FE2303700CAB30
:1042A0001B78437000248BE7049B0233F618C2E7A7
:1042B000013DB4E76A46127D0CAB1A55019B0134EF
:1042C000013B0193029B0133029380235B009C42DC
:1042D00007D0019B002B00D072E738000233012C7D
:1042E00001D03800A31C039AFF18D31A0393BAD441
:1042F000002800D164E7CEE7FF230370631E4370FC
:1043000022000CA902300EF0AEFFCBE7079BF81A93
:10431000ABE7039B002BA6DD761973783B70039BFC
:104320000137013B0393019B5B1B0193029B5B19CC
:10433000029345E780221F0052009442C9D1D0E782
:1043400044570100002905D07F220B7A93430028AF
:1043500001D10B727047042213430B720860F9E716
:10436000002907D07F220B7A086093431A000823A4
:1043700013430B727047002907D07F220B7A086025
:1043800093431A000A2313430B727047002907D086
:104390007F220B7A086093431A00082313430B72A1
:1043A000704710B50023884207D0984207D00133E8
:1043B000002902D00FF046FD0300180010BD0123B4
:1043C0005B42FAE70A21435E0200181E01D01B017E
:1043D000D018704770B50D00041E09D0C1682800C0
:1043E000FFF7DFFF002803D02000FFF7EBFFF3E724
:1043F000200070BD01604160002900D089180023B1
:104400008160C1600374037770474A688B6810321B
:10441000934204D201230B74002318007047103B11
:104420008B60002BF9D04268002A08D0991A091134
:104430005181002243605A811A72DA60EDE703600D
:10444000F7E7021E07D07F21037A00200B40043BD0
:10445000012B00D810687047F7B5037804000D00F1
:104460002B2B1DD02D2B1CD10127013423781A00B2
:10447000303A092A02D92E2B00D0C9E000200A26A2
:10448000644922781300303BDBB2092B0BD88842F9
:1044900011D8DA43704382420DD3C0180134F0E7DB
:1044A00001340027E2E7002A05D1002F18D080232D
:1044B0001B06984209D90026574B98421AD90A215F
:1044C00001360BF0A1FE76B2F6E77F222B7A40424E
:1044D00093431A000A2313432B7228603800FEBD51
:1044E0007F222B7A286093431A00082313432B72F0
:1044F0000127F3E723781A00303A092A03D8013656
:1045000076B20134F6E72E2B0FD10A21434A01344B
:104510002378303BDBB2092B07D8904203D84843BD
:10452000013E181876B20134F2E7202322789A432C
:104530000023452A3AD162782D2A1FD10234013353
:104540000193002321783039CAB2092A2AD80A22D5
:104550005343CB18F118262922DD019A2B7A7F20AC
:10456000002A11D00024002F01D0802424060C2121
:1045700083430B432B722C60019FAFE72B2A01D0A2
:104580000134DDE70234DBE7002F06D024490C229A
:10459000834313432B722960AAE7FF21C905F6E77D
:1045A0000134CFE7019A002A00D05B422478002C26
:1045B0002ED1F6180CF01EFF002E1ADD01231E422C
:1045C00004D0184AA300D1580CF0B4FB0134761083
:1045D000E4B2002EF2D1002F02D080231B06C018B7
:1045E0007F222B7A286093431A000C2313432B72EB
:1045F0007EE77642002EEED001231E4204D00A4A06
:10460000A300D1580CF096FB01347610E4B2F1E728
:10461000002763E799999919FFFF7F00CBCC0C0025
:10462000000080FF845501006C550100426810B500
:10463000002A08D08368C468A34205D3002301225E
:10464000436003681A7410BD5C1C8460D154FAE79F
:10465000F8B50500081C0E1C0BF0EEFB80301FDBCC
:10466000301C0BF0E9FB7F24A04203DC301C0BF074
:10467000E3FB44B200260BF037F8184B9C461A783F
:10468000174BF1B28A420ED931000136F700083FCC
:10469000DF5BAF42F5D1C9005B189C705860F8BD74
:1046A00080246442E6E7082A06D06646511C317031
:1046B000D2009D529B18F0E701210022084BCEB298
:1046C000B446CF00D600DF199E197F687668B742DE
:1046D00000D2624601310829F1D1E9E71A0A002027
:1046E0001C0A002010B51D200BF0F2F904001D205B
:1046F0000BF0EEF924181D200BF0EAF920180CF04D
:104700002FFE0E490CF03EF90D490CF013FBEA2187
:1047100089050CF00FFB0B490CF034F90021041C47
:104720000BF038FF002807D10749201C0BF046FF8B
:10473000002801D1201C10BD0024FBE700004040F0
:1047400033335340CA261B3E33334B410023F7B566
:10475000144F05003A780C009A4201D0124B1B68A6
:10476000009300239A4201D0104B1B682E19694612
:104770003000042201930EF076FD201D281801A9B7
:1047800004220EF070FD200008302818022208498B
:104790000EF069FD20003B780C30B372054B1B789E
:1047A000F372FEBD0C0A0020FC090020000A002064
:1047B00012060020140600204C4B73B51B78002B0A
:1047C00000D18CE04A4C200005F008FB01212000BC
:1047D00006F081FA00232361464B474963612000BC
:1047E0000AF030FD454920000AF017FD4449200039
:1047F0000AF032FD434920000AF00FFD424B0A2225
:10480000196820000AF083FD404920000AF005FDE8
:104810003F4B0A22196820000AF079FD3D4920002B
:104820000AF0FBFC3C4B0A22197820000AF07BFDC1
:104830003A4D200029000AF0F0FC394B18780CF0B2
:104840008FFD38490CF09EF80EF0B2FB0B000121F1
:104850000200009120000AF02DFE334920000AF0EA
:10486000DCFC324B1B78002B12D0290020000AF010
:10487000D4FC2F4B0A210020185E0BF04FFD0A22BA
:1048800001B220000AF035FD2A4920000AF0C5FCDB
:1048900020000AF0CFFC284E3378002B20D0274987
:1048A00020000AF0BAFC310020000AF0BAFC29000E
:1048B00020000AF0B2FC224B18680CF031FD0A22ED
:1048C000010020000AF015FD1E4920000AF0BAFC84
:1048D0001D4920000AF0C0FC200005F053FD73BD07
:1048E0001A4920000AF0AEFCF6E7C046000300209B
:1048F00094020020010001002A5601003D560100EB
:104900000E00002042560100500B002046560100C8
:104910004C0B00204B5601000C0A00205E5F01008A
:10492000140600200000A0410D7401006402002064
:10493000140A00204F5601000403002051560100C4
:1049400024030020575601002C0300205B56010071
:10495000002310B50004014309489A0012588A4206
:104960000CD00133082BF8D1064A13789C00215053
:104970000721002001330B40137010BD0120FCE71C
:104980007402002070020020F0B585B001930AABDC
:1049900020CB04001F780CAB1B78204802910393B6
:1049A00016000FF059FAC3B29C46C4232370C33BD0
:1049B0006370391E01D080214942029B6671194300
:1049C000039B36125A1E93419B010B43A370144B59
:1049D000A6711B88C6B2E3701B12237120006346C8
:1049E0003200E3710D4908300EF03DFC019B002BB5
:1049F00008D0002D06D03000083020182A001900F9
:104A00000EF031FC280008308019002F03D001007F
:104A10002000FFF79BFE05B0F0BDC0460E00002051
:104A2000F809002070B530C80E00A5420AD921004F
:104A30003068FFF7B6FC002805D023780134002B3E
:104A4000FBD1F2E70024200070BD73B505688668CD
:104A50006C6801A928000194FFF7E4FF002802D147
:104A60002000A6196E6076BDF0B5002787B00090D3
:104A70000C0002910392B9422ED0059005A91000B6
:104A80001600FFF7CFFF0500B8421CD100980FF0C9
:104A9000E3F9030075680133B268EB1801909342A3
:104AA00007D9012333747F22237A0027934323728B
:104AB00012E07360002DF6D0019A009928000EF0E4
:104AC000D2FB019BEF547F22237A012793431A00E4
:104AD0000523134323722560380007B0F0BD1FB5CE
:104AE000040001A80AF057FD01A920000AF053FDB7
:104AF00001A80AF0E5FC200004B010BDF0B589B0B3
:104B00000C1E0291039212D0010005A817000AF0B2
:104B100042FD059B0093079B0193009B002B08D14E
:104B20007F22237A9343237205A80AF0C9FC09B0B7
:104B3000F0BD3D687E68AE4212D9009BAB4224D0E6
:104B4000002D06D0019A290018000FF08CF90028DA
:104B50001BD02B001A7801331D00002AFAD1EAE796
:104B6000019BBA680133F318934202D901233B74C5
:104B7000D6E77B60002ED3D0019A009930000EF06A
:104B800072FB00233500019AB3547F22237A2560FB
:104B900093431A00032313432372079B6360C3E705
:104BA00070B505000C001600081E0FD02868FFF72E
:104BB00011FC00280AD131002800FFF726FC00284C
:104BC00004D07F22037AC4601340037270BD70B5B5
:104BD0000300007A7F2504002C4005D1A8435F3DE7
:104BE000284318721C605C6020201C7A0440201E40
:104BF00002D01800FFF7D4FF70BD70B50D0004009F
:104C00002800110014302A00FFF7E1FF002809D026
:104C10007F22037A93431A00202313430372002355
:104C20000360436020606560200070BD10B50028FF
:104C300001D0FFF7B5FF10BD10B50200037A2020A8
:104C40000340181E02D01068FFF7C4FB10BD437E5E
:104C5000002B06D143695A1C42611B78037601235D
:104C60004376007E704710B504002000FFF7EFFF89
:104C70000A2806D8092808D2002809D00120207463
:104C80000CE00D2801D02028F8D100236376ECE752
:104C9000237C60345A1E93410133237010BD1FB52D
:104CA0007F220300007A1040043808282ED80BF029
:104CB000A1FA0F0F052D082D0D2D1A00187804B03C
:104CC00010BD1868C343DB171840F8E71868F6E70B
:104CD0001868002301AC23722100FFF7BDFB200000
:104CE000FFF7DDFFEBE7CF211C680906201C0BF066
:104CF0006FFC0028E3D09E21201CC9050BF054FC5A
:104D00000028DCD0201C0CF00BFBD8E70020D6E7F5
:104D100070B504000D00FFF79AFF0023A84201D1EF
:104D200063760133180070BD2F2815D90123392867
:104D300003D95E2803D97A2803D818007047402881
:104D40000AD901235A28F8D9002301222D38C0B2EC
:104D500082425B41DBB2F0E701232B28F4D1ECE780
:104D600037B500236A460C001370C3B27F2809D8F8
:104D70005370951C013D297800292ED02000FFF7A3
:104D800055FCF7E73F2180226D460B40524213430A
:104D900080096B7085B2C3B21F2D05D84032134312
:104DA0006A469370D51CE5E76D460B40000413433B
:104DB000800DAB70C3B20F2805DC20225242134392
:104DC000EB7001ADD6E71940102380115B420A4316
:104DD0001843EA7028710535CCE737BDF7B50500F3
:104DE0000027FFF734FF6F7601902800FFF72FFFB1
:104DF0000024019B01006C76834258D0A04204D16C
:104E00000223603500202B70FEBD5C284BD12800AA
:104E1000FFF71DFF0028F3D02B4B752839D104264E
:104E20006C762800FFF713FF0028E9D0402806D849
:104E30003038C0B20F2806D960350323E2E72023BB
:104E400098433738F5E700232401013E0443F6B2C6
:104E5000A4B26B769E42E4D1A0239B01E3181B4AC7
:104E60009BB2934202D8A405A70DBEE790239B01F5
:104E7000E3189BB22000934206D880238005BC0231
:104E8000800D20435B02C0182900FFF769FFACE7E3
:104E900002331A78002ACFD09042F9D159780029EC
:104EA000CAD000236B762800FFF7C0FB9DE72800DF
:104EB0002100FFF7BBFB6B680120002BA4D104226B
:104EC00060352A7018009FE7005F0100FF030000B3
:104ED000026870B5536804004360936852689B1A77
:104EE000C36000238360FFF7B2FE27280DD022287D
:104EF0000BD02000FFF7ABFE0600FFF715FF051EE5
:104F000009D103236034237003E02000FFF766FF1C
:104F10000500280070BD0023310063762000FFF7F4
:104F200085FB2000FFF793FE0600FFF7FDFE011E44
:104F3000F1D12000FFF77AFB6368002BE9D104224E
:104F4000603422701D00E4E7F7B504000D001F1C5B
:104F5000FFF789FE0190002801D1002658E02000CB
:104F6000FFF775FE272800D17BE01DD8222800D14D
:104F700077E02000FFF76BFE002600900098F7B264
:104F8000FFF7D2FE002800D187E00136402E00D185
:104F900082E06A46002312786376A319DA7720004C
:104FA000FFF755FE0090E9E75B2813D07B28E0D19E
:104FB0007F222B7A290093431A00202313432B725C
:104FC000002300222B606B6020003B1C00F092F855
:104FD00006001DE07F222B7AFFB293431A00402384
:104FE00013432B7200232B606B609F4203D160340C
:104FF00005332370B1E763762000FFF734FE002805
:10500000ABD05D212000FFF783FE061E02D0019E7B
:105010003000FEBDE1692800FFF7F7F9011E03D15A
:10502000042360342370F3E77B1E00222000FFF787
:105030008BFF002800D190E72000FFF714FE002826
:1050400000D18AE75D212000FFF762FE0028DED153
:105050002C212000FFF75CFE0028DBD16034032305
:10506000C7E72268200053686360936852689B1A00
:10507000E3600023A360FFF7B1FE061E00D16CE7DA
:105080002000FFF7E2FC7F222B7A286093431A006E
:10509000052313432B72BBE73F270021E31901339C
:1050A000D977631CDB7F742B0DD17F222B7A93433E
:1050B0001A00062313432B7201232B70042FA6D052
:1050C0006034022395E7662B0AD17F222B7A297060
:1050D00093431A00062313432B72052FF0D196E752
:1050E0006E2BEBD0200029002030FFF7B5F9002807
:1050F000B4D08CE7F7B5DFB204000E00002F04D166
:1051000005236034237000250DE000234376FFF76C
:10511000AAFD00900028F6D07D212000FFF7F8FDC1
:10512000051E26D0009D2800FEBD61683068FFF78F
:1051300051F9002831D001007B1E00222000FFF72A
:1051400003FF0028DFD02000FFF78DFD0028DAD014
:105150007D212000FFF7DCFD0028E3D12C21200079
:10516000FFF7D6FD002814D02000FFF77CFD0028B3
:10517000C9D02000FFF7ACFE0028C4D02000FFF704
:1051800072FD0028BFD03A212000FFF7C1FD0028A2
:10519000CBD1032360342370C5E72000FFF755FC13
:1051A000E16901903000FFF730F9002802D1603446
:1051B0000423F0E78022037A524213430372019BD7
:1051C000C360B8E710B50400006803685B689847DF
:1051D00063681818606010BD70B5050008000C0009
:1051E0000EF03AFE210002002800FFF7EBFF70BD31
:1051F000F0B5162407000D000A2687B06C4428007D
:1052000031000BF087F8013C30312170280031006B
:105210000AF0FAFF051EF2D116236B441A1B210077
:105220003800FFF7CFFF07B0F0BD10B504000068ED
:1052300003681B68984763681818606010BD000019
:1052400070B50D00040022212000FFF7EEFF297841
:10525000002909D00A4B01351E78002EF4D05A7867
:105260008A4206D00233F7E722212000FFF7DDFF54
:1052700070BD5C212000FFF7D8FF3100E4E7C04695
:10528000025F01007F22F0B5037A8BB005000C00AD
:105290001340062B00D18FE106D8022B0DD3032B30
:1052A00000D975E106CD49E10C2B24D007D8082B95
:1052B00000D17FE10A2B00D16FE1C44981E1202BAD
:1052C00000D146E1402BF8D15B212000FFF7ADFF74
:1052D0002D68002D00D135E121002800FFF7D2FF15
:1052E0002800FFF76FF8051E00D12BE12C212000CC
:1052F000FFF79BFFEDE70668311C301C0BF044F90B
:105300000028DAD00021301C0BF03EF9002809D12A
:10531000311C301C0BF09CF9011C301C0BF034F9D3
:105320000028CAD10021301C0BF034F9002806D027
:105330002D212000FFF779FF80231B06F618A449D2
:10534000301C0BF045F9002844D0002314252027F9
:105350000093A04B301C59590BF03AF9002809D0A2
:105360009D4B301C59590BF0E5FC009B061CF818AE
:1053700003B20093043D7F102B1DEAD103350021B9
:10538000301C0BF01BF9002828D0301C0DF010FE4B
:10539000924A934B0BF0CEF800281FD0AB0001933C
:1053A0002B061BD48F4B019A311C98580BF006F931
:1053B00000280AD0874B019A301C99580BF0BAFC90
:1053C000009B061CD81B03B20093019B7F10013D7C
:1053D000043BE4E7202705250090D0E7301C0BF0C4
:1053E00001F906230700804D029003936B461B7B57
:1053F0005BB20193039B013BDBB20393029B092B3E
:105400000AD90A2128000AF0FFFE0A2105000298A5
:105410000AF0FAFE0290E9E738000BF0EBFF011CFE
:10542000301C0BF0B9FD061C28000BF0E3FF011C3B
:10543000301C0BF07FFC02900BF0D4F806000BF050
:10544000D9FF011C02980BF0A7FD011C0BF000F91D
:105450000BF0C8F88619B5420BD80026009B01371F
:10546000B34206D0092F04D918000127013003B236
:1054700000930A25290030000AF04CFF00290CD1C6
:10548000019B002B09DD300029000AF0BDFE019BC5
:105490000600013B5BB20193ECE739002000FFF707
:1054A000A7FE019B002B20D01D0008AF013D6DB26F
:1054B000013F6B1C0BD030000A210AF02BFF30316A
:1054C000397030000A210AF09FFE0600EEE76B46B5
:1054D0001B791025D9432E224B1904A8C25408ABBE
:1054E0004A4220005918FFF76DFE009B002B2DD07B
:1054F00065212000FFF799FE6B461D88009B002B5D
:1055000005DA2D212000FFF790FE6D42ADB2162680
:105510000A2704ABF618280039000AF0FBFE013E0A
:1055200030313170280039000AF06EFE85B2002D4E
:10553000F1D11623310004AA9B189A1B2000FFF713
:1055400041FE03E05D212000FFF76FFE60680BB0B5
:10555000F0BD7B212000FFF768FE2D68002D15D0DF
:10556000E9682000FFF76CFE3A212000FFF75DFE9E
:1055700021002800FFF786FE2800FEF723FF051E06
:1055800004D02C212000FFF750FEE7E77D21DAE769
:1055900001682000FFF754FED8E70568002D04DA03
:1055A0002D212000FFF741FE6D4229002000FFF76A
:1055B0001FFECBE70168F9E703780C49002B00D107
:1055C0000B492000FFF708FEC0E7C046115F01004D
:1055D0008096184B845501006C550100F168E388F2
:1055E000B5F8E43E5455010040420F00165F01003B
:1055F0001B5F010010B51430FFF744FE10BD000022
:10560000A02270B5F64C9200A54416AC1EA920004D
:10561000FEF7F0FE2200F3491BA8FFF7D8FA0100BD
:10562000F148FEF78FFEF14D2200F1491BA82E78BC
:10563000FFF7CDFA002809D07F22037A93431A009E
:10564000062313430372731E9E4106702200E9492C
:105650001BA8FFF7BCFA01002878FEF781FE2200A4
:10566000E5491BA8FFF7B3FAE44B01001878FEF7F1
:1056700077FE2200E2491BA8FFF7A9FAE14B0100DF
:105680001878FEF76DFE2B78002B00D1E6E0DE4B9C
:10569000072518680DF020FC0022DC4B0CF006FA00
:1056A00000950B0002000AA809F0A8FF0AA90DA89E
:1056B000FFF715FA2200D6491BA8FFF788FA0DA9B3
:1056C000089010A8099409F066FF099A089910A893
:1056D000FFF714FA10A809F0F3FE0DA809F0F0FE88
:1056E0000AA809F0EDFECB4B18680DF0F5FB00227F
:1056F000C64B0CF0DBF900950B0002000AA809F07C
:105700007DFF0AA90DA8FFF7EAF92200C2491BA8EC
:10571000FFF75DFA0DA9089010A8099409F03BFF66
:105720000899099A10A8FFF7E9F910A809F0C8FE2E
:105730000DA809F0C5FE0AA809F0C2FE2200B7496B
:105740001BA8FFF744FAB64B01000020185EFEF7D5
:1057500012FEB44B18680BF003FEB3490BF0EAFAE3
:105760000122011C0AA809F02BFF0AA90DA8FFF7C6
:10577000B6F92200AD491BA8FFF729FA0DA9089038
:1057800010A8099409F007FF0899099A10A8FFF7D3
:10579000B5F910A809F094FE0DA809F091FE0AA829
:1057A00009F08EFE2200A2491BA8FFF710FAA14BB8
:1057B00001001888FEF7EAFD9F4B18680BF01AFEEF
:1057C0009E490BF0DFF80122011C0AA809F0F8FE3F
:1057D0000AA90DA8FFF783F9220099491BA8FFF732
:1057E000F6F90DA9089010A8099409F0D4FE099AB9
:1057F000089910A8FFF782F910A809F061FE0DA81A
:1058000009F05EFE0AA809F05BFE8E4B18880BF0CB
:10581000A7FD8D490BF08EFA0122011C0AA809F0A0
:10582000CFFE0AA90DA8FFF75AF9220087491BA845
:10583000FFF7CDF90DA9089010A8099409F0ABFE67
:105840000899099A10A8FFF759F910A809F038FE2D
:105850000DA809F035FE0AA809F032FE7C4B1B7832
:10586000002B21D07B4A7C4B12781B8804927B4A08
:105870001821127810A80392794A12780292794A74
:1058800012780192784A12780092784A0EF088FADB
:1058900016AA77491BA8FFF79AF916AA01000890E3
:1058A00010A80992FFF7E0F8724B1B78002B54D038
:1058B000714B0020185E0BF053FD70490BF062F83D
:1058C0000122011C0AA809F07BFE0AA90DA8FFF716
:1058D00006F916AA6A491BA8FFF779F916AB0690D4
:1058E0000DA910A8079309F056FE079A069910A86B
:1058F000FFF704F910A809F0E3FD0DA809F0E0FD99
:105900000AA809F0DDFD5F4B18680BF073FD5E49D6
:105910000BF038F80122011C0AA809F051FE0AA96F
:105920000DA8FFF7DCF816AA58491BA8FFF74FF996
:1059300016AB06900DA910A8079309F02CFE069946
:10594000079A10A8FFF7DAF810A809F0B9FD0DA81A
:1059500009F0B6FD0AA809F0B3FD4D4B1B78002BEA
:1059600009D04C4916AA1BA8FFF731F94A4B010090
:105970001888FEF70BFD494B18780BF0F1FC4849ED
:105980000BF000F80222011C0AA809F019FE0AA96E
:105990000DA8FFF7A4F816AA42491BA8FFF717F9AC
:1059A00016AB06900DA910A8079309F0F4FD06990F
:1059B000079A10A8FFF7A2F810A809F081FD0DA81A
:1059C00009F07EFD0AA809F07BFD09F08DFE16AAFC
:1059D000050035491BA8FFF7FAF8041E66E0C0462B
:1059E00008FDFFFF0C600100A15601000C0A002019
:1059F000A5560100A9560100AE5601000E0A00206E
:105A0000B256010041060020FC090020D01263417B
:105A1000BA560100000A0020BE560100C25601001D
:105A200012060020100A0020FAED6B3BC65601005A
:105A3000CC5601003E060020F009002000007A4408
:105A4000D3560100060A00200AD7233CD85601008D
:105A5000160A00200D0A0020180A0020040A00205F
:105A6000F609002040060020050A0020DD5601004E
:105A7000FC56010064020020140A002000002041AE
:105A800000570100080A00200000C8420557010025
:105A9000030300200B570100F40900201406002026
:105AA0000000A0410F57010014570100002C0CD03A
:105AB0007F22037AFA2193431A00082313430372C7
:105AC000890028000AF0A0FB2060364802F072FC32
:105AD0000122011C0AA809F073FD0AA90DA8FEF70E
:105AE000FEFF16AA30491BA8FFF771F816AB069007
:105AF0000DA910A8079309F04EFD0699079A10A862
:105B0000FEF7FCFF10A809F0DBFC0DA809F0D8FC9B
:105B10000AA809F0D5FC16AA24491BA8FFF757F8D4
:105B2000002809D07F22224B1B680360037A93432D
:105B30001A0008231343037216AA1E491BA8FFF775
:105B400046F8002809D07F221B4B1B680360037AAC
:105B500093431A00082313430372184B1968002952
:105B600010D06420164B1B68CB1A58430AF04CFB2C
:105B70001449C4B216AA1BA8FFF729F80100200097
:105B8000FEF7EEFB0023104C10A916A811931094F9
:105B9000FFF730FD200009F04DFBBE239B009D4424
:105BA00070BDC046B4040020175701001D57010006
:105BB000500B0020205701004C0B00206C020020ED
:105BC00068020020235701008C12002030B5B5B0C8
:105BD00004ACA0220CA92000FEF70CFC22002A49EC
:105BE00009A8FEF7F4FF01002848FEF7ABFB2200EE
:105BF000274909A8FEF7EBFF01002648FEF7A2FBA4
:105C00002200254909A8FEF7E2FF002808D07F22DC
:105C1000037A93431A000C23134303721F4B036050
:105C200022001F4909A8FEF7D2FF220001000090C0
:105C30001C480194FEF718FF22001B4909A8FEF733
:105C4000C6FF1A4B01001888FEF7A0FB2200184976
:105C500009A8FEF7BCFF002808D07F22037A9343EF
:105C60001A00062313430372012303700023114D0E
:105C700002A9200003930295FFF7BCFC280009F05D
:105C8000D9FA35B030BDC0460C600100295701007B
:105C90002F5701003257010036570100CDCC664422
:105CA000C95501000E00002010730100F809002002
:105CB0003B5701008C12002010B5AAB004000AA9BD
:105CC000802202A8FEF796FB02AA0F4907A8FEF75A
:105CD0007EFF01000D48FEF735FB02AA0C4907A81C
:105CE000FEF775FF01002000FEF72CFB0023094C96
:105CF000694602A801930094FFF77CFC200009F09C
:105D000099FA2AB010BDC0460C60010099560100F6
:105D10009D5601008C12002030B59BB0050040223A
:105D20000C0002A80AA9FEF765FB02AA114907A800
:105D3000FEF74DFF01002800FEF704FB02AA0E4902
:105D400007A8FEF744FF002807D07F22037A0460EB
:105D500093431A000A23134303720023074C694636
:105D600002A801930094FFF745FC200009F062FAB5
:105D70001BB030BD0C600100107301008C120020BC
:105D80001FB5282009F038FD0223040000930322E8
:105D90000733082101F02EFD21000E4801F0C2FD5D
:105DA0000D4B0E4C02930E4B4022019301235B429C
:105DB000009380210B4B200003F0F8FE0A4A0B49A8
:105DC00020000AF031F80A4805F0F4F8094804F018
:105DD00087FF1FBDB4040020A086010094020020AC
:105DE000801A0600800B002000000020119C00009B
:105DF000440600204C02002037B51D4C1E21200017
:105E000003F054FC0A21200003F06DFD200003F094
:105E100059FC051E01D0002028E001221E2120008F
:105E200003F03EFC0128F6D1200003F0B5FD482820
:105E3000F1D1104B6A460093022393801E2120006B
:105E400003F034FC6B462000595D03F04CFD2B0041
:105E50006B445978200003F046FD200003F032FC2B
:105E60000028D8D10235062DE8D101303EBDC0460C
:105E7000800B002000100120F0B54F4B87B01B783D
:105E8000002B54D04D4D1E21280003F00FFC0321A0
:105E9000280003F028FD280003F014FC041E46D15E
:105EA00006221E21280003F0FBFB06283FD1280014
:105EB00003F072FD04ABE0540134062CF7D104AAC0
:105EC0001B7850781B021843137954793C491B0204
:105ED0001C4300228B5E00B224B2834200DD0880A6
:105EE000384D0022AB5E834200DA2880364B002614
:105EF0009A5FA24200DD1C80344A0027D65FA6428A
:105F000000DA14800026AD5F00268E5F304FA91B9B
:105F100095290ADD0021525E019200229B5E0293C8
:105F2000029A019B9B1A952B03DC00233B7007B060
:105F3000F0BD0BF015FA0390A8190BF011FAFC2133
:105F400089050AF0F7FE011C03980BF025F8051CE3
:105F500020000BF005FA029A019B94466344041C4E
:105F600018000BF0FDF9FC2189050AF0E3FE011C85
:105F7000201C0BF011F8291C09F08CFF15490AF0C0
:105F8000D9FE0021041C0AF005FB002804D0201CC7
:105F900011490AF05DFB041CFC21201C89050AF054
:105FA00057FB0AF01FFBB42180B249000AF0B2F996
:105FB0000A4B19800123B9E710060020800B00204E
:105FC0000A000020060000200C000020080000202D
:105FD00003030020E12E65420000B443F4090020D1
:105FE000F8B5FEF77FFB66490AF0A4FE0AF0FAFA5C
:105FF000644B1870644B1B78002B0FD0634C20004F
:1060000004F03CFF62490AF095FE09F015FF614B70
:106010001880200004F06AFF5F4B1860FFF72CFF28
:106020005E4B1B78002B15D05D4CFA21200006F04A
:10603000E5FD5C4D061E0ED12B68002B0AD009F041
:1060400053FB2B68C01A584B984203D9574B1E700C
:10605000574B1E70F8BD09F047FB564928602000D9
:1060600006F054FF524D53492870200006F036FFC9
:10607000514E50493070200006F060FF4F4B4D49A3
:106080001860200006F072FF4D490AF047F9B4216C
:1060900049000AF029FA6931FF310800B4214900AA
:1060A0000AF022FA474B20001980424906F0FEFE12
:1060B000454B40491860200006F070FF434B3D49B6
:1060C0001880200006F08EFE414F002825D10023C5
:1060D0003B702B78354D022B50D93649200006F005
:1060E000A5FE3C4B33491860200006F0B3FE3A4B46
:1060F00030491860200006F0C1FE384B984239DB69
:10610000374B984238DCFA2189000AF007F900B2CF
:10611000344B188033782B709CE72649200006F01A
:1061200071FE0028D3D00123224920003B7006F0E5
:10613000F9FD2D4B1F491880200006F003FE2B4B64
:106140001C491870200006F00DFE294B19491870E3
:10615000200006F017FE274B16491870200006F0A5
:1061600021FE254B13491870200006F02BFE234B0F
:106170001870AEE72248CBE72248C9E70023CAE7F8
:106180000000A04114060020640200204C02002000
:1061900000002041140A0020080A0020010300200A
:1061A0004406002020030020983A00000C0A00203A
:1061B000410600204C0400000E0A0020100A0020B6
:1061C000A08601003E060020F0090020060A0020FB
:1061D000160A0020FC090020000A002019FC0BFE12
:1061E000FFFFF30112060020180A0020050A002014
:1061F00040060020F6090020040A00200D0A0020B5
:106200000080FFFFFF7F00000023F7B50F0005248B
:10621000154E01903370154D280002F02BF90F3008
:106220000AD0C82132204900013C08F03EFFE4B208
:1062300009F090FA002CEED100233A0001992800D1
:1062400002F0C6FC00220A4B04000A4928001A701A
:1062500002F0B4F901233370002C03D1064A13680D
:10626000013313602000FEBD04000020B4040020B0
:10627000480B0020FFFFFF00500B002030B5050049
:10628000BDB00C001E20782108F00FFF09F062FA63
:106290000D4905AB0A881D70013292B20A800021B7
:1062A0009C702D1224125D70DC70029101910431FA
:1062B000009106A80239FEF767FB010006A8FFF768
:1062C000A3FF3DB030BDC046540B00208022F0B586
:1062D000AA4C0700A544A0AC9200A8A92000FEF794
:1062E00089F8002F00D1A64F0025A09B42AE636025
:1062F000E3681022A36004A92574257708A80494F4
:106300000CF0B1FF102208A930000CF0ACFF35747E
:106310004797B4276B467F00DB197576F46100223E
:106320001D70A5A90A233000FEF70EFE6B46DB198F
:106330001B78AB4207D1337EAB4200D112E1237F01
:106340001B0700D40EE18F48FFF7B6FC07E08E492B
:1063500028000DF077FD002804D1FFF737FC8B4BA8
:106360009D44F0BD8A4928000DF06CFD002811D134
:106370008849A5A8FEF760FCFEF763F8002802D064
:106380000378002B01D18448DEE7FFF71FFCFEF7FE
:1063900013FAE4E7814928000DF054FD071E10D1DF
:1063A0007C49A5A8FEF748FCFEF74BF8011E7C4887
:1063B000CAD07C4C2822200028340DF065FD2770BF
:1063C000CDE7794928000DF03DFD041E3DD1754F04
:1063D00038000DF041FD051E32D0010060230CAAEB
:1063E0003800FDF7E3FE00282DDD85422BDD05009A
:1063F0000CAB01346D4930000A88013292B20A8038
:106400000121029401910095FEF7BEFA01003000CF
:10641000FFF7FAFE002802D06548FFF74DFC012285
:10642000644B1A7009F060F9FA2104004901002058
:1064300008F03BFE604BE418604B20181860A6E79C
:106440003B000400D6E73B00D4E75D4928000DF08F
:10645000F9FC002800D083E05A49A5A8FEF7ECFB20
:10646000FDF7EFFF584C05002100A5A8FEF7E4FB5F
:10647000002806D07F22037A1340082B0AD00A2B6B
:106480000BD001246442002D02D02B78002B0FD1B9
:106490004E4859E70368002BF3DB2100A5A8FEF75F
:1064A000CBFB002801D10400EDE7FEF7F8FBFAE78B
:1064B00028000DF0D1FC07004548B42F00D943E770
:1064C000444B1B78002B02D00023424A1370BC239C
:1064D00032005B0039002800FDF768FE00283ADD35
:1064E000874238DD012335003B4A304E1168CF1911
:1064F0003A4917600A6812180A603288002101328E
:1065000092B2328002930123009001930CA82B00D9
:10651000FEF73AFA010005000CA8FFF775FE071E0A
:106520001CD121002E48FFF7F7FB0123294A0CA9B3
:10653000137032882B4B2C481A802C4B2A001C607D
:106540000CF091FE2A4B1D6009F0CEF8294B186023
:10655000294B1F701BE738000023C5E71448F3E6FA
:106560002648F1E62649A5A8FEF766FBFDF769FF78
:10657000051E00D0EBE62348E6E6C0465CFBFFFFC5
:106580005F630100A9550100BC550100A40400008F
:10659000C955010020610100C1550100D655010017
:1065A000CE55010015060020DD550100540B0020DA
:1065B000E25501000203002060EA00005C0A0020AE
:1065C0001D570100F855010010730100F25501003C
:1065D000FD550100600A00206C02002068020020C6
:1065E0000B560100400B0020610A00202000002013
:1065F0003C0B0020440B0020420B002010560100F1
:106600000C600100B255010070B50F4C2378002BCF
:1066100015D009F069F80D4D2B68C01A0C4B984243
:106620000DD90C4B1A78002A0AD101321A7009F0E0
:106630005BF8094B286019680848FFF7E5FD70BD55
:1066400000232370FBE7C046600A0020440B0020B3
:10665000C3090000420B00203C0B0020610A00200F
:10666000F0B50024504BC9B01B68A34205DD0920DA
:106670004E49584309F052FE0400FA214C4B890060
:10668000186809F0C1FD0BADFF2C00DDFF24494B5C
:106690002C701B885B086B70FF2800D9FF20464BCD
:1066A000A8701B780524EB7009F01EF80022434BFC
:1066B00006901B780BA905931300601C0890A01C82
:1066C0000790059EE01C0990D0B286421BD9052B8D
:1066D00019D8D00084463A48604406000698776886
:1066E000C01B384FB8420CD8674635480133385A7A
:1066F000DBB20855089C00120855079CB078085575
:10670000099C0132D9E70BAA13712F4B1B78002B80
:106710001ED009222D4B0020185EC317934305336A
:10672000C0182B4B98423CDB2A4B7F26984203DC57
:106730000A2109F0F3FD46B2274B0A2118680530FB
:1067400009F062FD254A83B2904203D9130001E0AB
:1067500080267642224A1178FF22002903D0214A5E
:1067600012885208D2B2611C2E556B54A11C1B1208
:106770006B54E31CEA541C4B04341A880321013285
:1067800092B21A80002302930133019300942B00EC
:1067900012A8FEF7F9F8010012A8FFF735FD49B07D
:1067A000F0BD7F267642C7E7100A0020C40900002A
:1067B000F00900203E060020410600201A0A0020B1
:1067C0001C0A0020E093040064020020140A002048
:1067D00001FBFFFFFF040000080A0020FFFF00008C
:1067E00003030020F4090020540B00200023F0B51F
:1067F000614D624C624F634AA544012128003B7001
:10680000137001F0C9FD8023060004905B009842DC
:1068100000D9049360AC049A2100280001F0F0FD37
:106820000390280002F00EFC0790280002F020FCE4
:1068300055490890280001F0C1FE01233B70039BDD
:10684000002B00D092E0072E00D88FE02378C42BD5
:1068500000D08BE06378012B00D087E04B4B277989
:10686000E6781B883F023E430B939E427ED0E5793B
:10687000102D7BD82F00049B08379F4276D8A37831
:1068800028220A936B469B181B785BB20693002B59
:1068900004DA2B00049A1433934267D856220CABC7
:1068A000FF329B181B7801320C930CAB9B181B78A2
:1068B0002DAC2A0062A920000D930CF0D4FC60AA34
:1068C000D71908220023069952426355551B1432EA
:1068D000994200DB1A000E24049910936D18AA1A2D
:1068E00003920CAAA41811932380069B002B40DA74
:1068F000BE23DB009B189C460D00254B6544ED181C
:106900000422290010A80CF0AEFC291D042211A8B5
:106910000CF0A9FC29000222083120000CF0A3FC95
:10692000AB7A0593EB7A3F2409930A9B1C40022C17
:106930003AD1039B032B19D916490B78002B15D09C
:106940007A783B78120213430B9A9A420ED112487E
:10695000FA78BB78008812021343984206D10023CC
:106960000B700E4B0E481968FFF7D6F90D4B9D447E
:10697000F0BD00230593D6E7B4040020DCF9FFFF47
:1069800004000020480B0020FFFFFF00F809002052
:1069900054FBFFFF600A0020400B00202000002075
:1069A000705601002406000040230A9A30001A4065
:1069B0000D9B0A921D020C9B1D432900FDF7C8FF89
:1069C000079904903000FDF743FE002C00D087E1CA
:1069D00029003000FFF752FC049B002BC6D10A9B14
:1069E00032AC002B00D143E1B423220003993800DC
:1069F000FDF790FBB428B9D86B461B7C235480224A
:106A0000A8A99200A0A8FDF7F5FCA0AA9F49A5A8F7
:106A1000FEF7DDF801009E48FDF794FCA0AA9D4911
:106A2000A5A8FEF7D4F8A0AA01002DA8FEF71CF82F
:106A3000A0AA9949A5A8FEF7CAF801003000FDF701
:106A4000A5FCA0AA9549A5A8FEF7C1F8A0AA010037
:106A500032A8FEF709F80122079924A808F0B0FD32
:106A600024A927A8FEF73BF8A0AA8D49A5A8FEF700
:106A7000AEF8A0AB229027A92AA8239308F08BFD9B
:106A80002299239A2AA8FEF739F82AA808F018FDB7
:106A900027A808F015FD24A808F012FD0122089986
:106AA00024A808F08DFD24A927A8FEF718F8A0AAAD
:106AB0007C49A5A8FEF78BF8A0AB229027A92AA8AD
:106AC000239308F068FD2299239A2AA8FEF716F866
:106AD0002AA808F0F5FC27A808F0F2FC24A808F082
:106AE000EFFC069B002B00DB9CE06F4AA0A912A8DC
:106AF000FEF783F8129D139C6C4922002800FEF7D4
:106B000095F801000598FDF72BFC059B002B61D043
:106B100010980CF0E1F90022654B0AF0C7FF072638
:106B20000B000200009624A808F068FD24A927A8FD
:106B3000FDF7D5FF22005F492800FEF777F827A967
:106B400022902AA8239408F026FD239A22992AA8A5
:106B5000FDF7D4FF2AA808F0B3FC27A808F0B0FC82
:106B600024A808F0ADFC11980CF0B6F90022504BA7
:106B70000AF09CFF00960B00020024A808F03EFDDE
:106B800024A927A8FDF7ABFF22004B492800FEF7F8
:106B90004DF827A922902AA8239408F0FCFC2299FA
:106BA000239A2AA8FDF7AAFF2AA808F089FC27A89B
:106BB00008F086FC24A808F083FC22003F49280046
:106BC000FEF734F80E230CAA9B1801000020185E73
:106BD000FDF7D1FB09980AF0C3FB394909F0D2FE51
:106BE0000222011C24A808F0EBFC24A927A8FDF729
:106BF00076FF220033492800FEF718F827A92290D3
:106C00002AA8239408F0C7FC2299239A2AA8FDF702
:106C100075FF2AA808F054FC27A808F051FC24A806
:106C200008F04EFC0024284D2AA9A0A82A952B94F0
:106C3000FEF7E0FC280008F0FDFA244A244D136812
:106C40002DA901331360280010220DF01DF92C74BA
:106C5000204D152232A928000DF016F96C75079AFF
:106C60001D4B1A601D4B089A1A60FDF7A5FD7DE6C5
:106C7000039DB42D00D9B4252A00390020000CF062
:106C8000F2FA002232AB5A55B9E6C0460C60010058
:106C9000205701007456010010730100F8550100DF
:106CA000795601007E56010082560100A956010066
:106CB000D0126341BA560100BE560100C25601000F
:106CC0000000A0410F5701008C1200204C0B002047
:106CD000040300202C0300202403002028030020AC
:106CE000012C00D076E1049B002B00D03EE6A022D0
:106CF000A8A95200A0A8FDF77DFBA0AAA249A5A8BB
:106D0000FDF765FF0100A148FDF71CFBA0AAA04903
:106D1000A5A8FDF75CFFA0AA01002DA8FDF7A4FE21
:106D2000A0AA9C49A5A8FDF752FF01003000FDF77D
:106D30002DFB2200079927A808F042FC27A92AA8C2
:106D4000FDF7CDFEA0AA9449A5A8FDF740FF32AEFD
:106D5000A0AB24902AA93000259308F01CFC2499AC
:106D6000259A3000FDF7CAFE300008F0A9FB2AA8DA
:106D700008F0A6FB27A808F0A3FB2200089927A883
:106D800008F01EFC27A92AA8FDF7A9FEA0AA83499E
:106D9000A5A8FDF71CFFA0AB24902AA930002593DD
:106DA00008F0F9FB2499259A3000FDF7A7FE300082
:106DB00008F086FB2AA808F083FB27A808F080FBD0
:106DC000039B002B19D00A9B002B00D1CEE0282377
:106DD000320003993800FDF79DF9431E272B0CD88C
:106DE0006B461B7C3354A0AA6D49A5A8FDF7EFFEA6
:106DF000A0AA01003000FDF737FE069B002B00DB48
:106E00009CE0684AA0A914A8FDF7F7FE149D159C04
:106E1000654922002800FDF709FF01000598FDF7EC
:106E20009FFA059B002B61D010980CF055F80022BA
:106E30005E4B0AF03BFE07260B000200009624A8DA
:106E400008F0DCFB24A927A8FDF749FE22005849D9
:106E50002800FDF7EBFE27A91C902AA81D9408F036
:106E60009AFB1D9A1C992AA8FDF748FE2AA808F04B
:106E700027FB27A808F024FB24A808F021FB119881
:106E80000CF02AF80022494B0AF010FE00960B0085
:106E9000020024A808F0B2FB24A927A8FDF71FFED2
:106EA000220044492800FDF7C1FE27A91C902AA80A
:106EB0001D9408F070FB1C991D9A2AA8FDF71EFE70
:106EC0002AA808F0FDFA27A808F0FAFA24A808F082
:106ED000F7FA220038492800FDF7A8FE0E230CAA75
:106EE0009B1801000020185EFDF745FA09980AF08A
:106EF00037FA324909F046FD0222011C24A808F0A5
:106F00005FFB24A927A8FDF7EAFD22002C492800F1
:106F1000FDF78CFE27A91C902AA81D9408F03BFBC6
:106F20001C991D9A2AA8FDF7E9FD2AA808F0C8FABD
:106F300027A808F0C5FA24A808F0C2FA0025214CB9
:106F40002AA9A0A82A942B95FEF754FB200008F04C
:106F500071F91D4C2DA9102220000CF095FF15226F
:106F60001A491B4825740CF08FFF78E6039D282DE5
:106F700000D928252A00390030000CF074F90022CD
:106F800032AB5A552FE7C0460C600100DD550100B9
:106F90007456010010730100795601007E560100FD
:106FA000D655010082560100A9560100D012634156
:106FB000BA560100BE560100C25601000000A041B1
:106FC0000F5701008C120020040300208656010098
:106FD0002C030020032C00D0C8E4049B002B00D01D
:106FE000C4E4069B002B00DBC0E4E022A8A99200C9
:106FF000A0A8FDF7FFF9A0AAE349A5A8FDF7E7FDC2
:107000000100E248FDF79EF9A0AAE149A5A8FDF715
:10701000DEFDA0AC0100220024902DA82594FDF7F0
:1070200023FD2200DB49A5A8FDF7D1FD01003000BA
:10703000FDF7ACF90122079927A808F0C1FA27A9A2
:107040002AA8FDF74CFD2200D349A5A8FDF7BFFDF6
:107050002AA9229032A8239408F09DFA2299239A13
:1070600032A8FDF74BFD32A808F02AFA2AA808F04A
:1070700027FA27A808F024FA0122089927A808F07F
:107080009FFA27A92AA8FDF72AFD2200C349A5A82F
:10709000FDF79DFD2AA9229032A8239408F07BFADF
:1070A0002299239A32A8FDF729FD32A808F008FAA0
:1070B0002AA808F005FA27A808F002FA2100B84A21
:1070C00016A8FDF79AFD169D179CB64922002800C8
:1070D000FDF7ACFD01000598FDF742F9059B002B7B
:1070E00061D010980BF0F8FE0022AF4B0AF0DEFCE6
:1070F00007260B000200009627A808F07FFA27A9B0
:107100002AA8FDF7ECFC2200A8492800FDF78EFD17
:107110002AA9229032A8239408F03DFA239A2299B2
:1071200032A8FDF7EBFC32A808F0CAF92AA808F04B
:10713000C7F927A808F0C4F911980BF0CDFE00227A
:10714000994B0AF0B3FC00960B00020027A808F048
:1071500055FA27A92AA8FDF7C2FC22009449280065
:10716000FDF764FD2AA9229032A8239408F013FAAF
:107170002299239A32A8FDF7C1FC32A808F0A0F9A1
:107180002AA808F09DF927A808F09AF92200894951
:107190002800FDF74BFD0E230CAA9B1801000020D0
:1071A000185EFDF7E8F809980AF0DAF8824909F064
:1071B000E9FB0222011C27A808F002FA27A92AA845
:1071C000FDF78DFC22007D492800FDF72FFD2AA93F
:1071D000229032A8239408F0DEF92299239A32A84B
:1071E000FDF78CFC32A808F06BF92AA808F068F9C2
:1071F00027A808F065F9039B042B00D827E13B7909
:1072000005260593002B08D0023E5E43039B0536FE
:107210009E4200D922E101230493694AA0A918A83B
:10722000FDF7EBFC189D199C664922002800FDF72C
:10723000FDFC01003878FDF793F87B7822005B00B5
:10724000614928000693FDF7F1FC002808D07F2251
:10725000037A93431A000A2313430372069B0360C5
:1072600022005A492800FDF7E1FC0100B878FDF73B
:1072700077F8220056492800FDF7D8FC0100F8787D
:10728000FDF76EF8049B002B03D1059B002B00D06B
:10729000E6E0039A331D934259D80022BB199A564F
:1072A0009E7803925A78DB7836020693039B164346
:1072B00080330FD0220047492800FDF7B7FC002893
:1072C00008D07F22037A93431A000A2313430372E0
:1072D000039B0360002E27D030000AF041F83E499E
:1072E00009F050FB0122011C27A808F069F927A921
:1072F0002AA8FDF7F4FB220038492800FDF796FC88
:107300002AA9229032A8239408F045F92299239AB9
:1073100032A8FDF7F3FB32A808F0D2F82AA808F04B
:10732000CFF827A808F0CCF8069BFF2B0FD022003F
:107330002B4928005E00FDF779FC002807D07F224A
:10734000037A066093431A000A2313430372049BD3
:10735000002B00D184E0A0AA2249A5A8FDF737FCA4
:10736000041E09D07F22037A93431A00402313435B
:1073700003720023036043600323059A7E1D534379
:10738000F318039330E0C0460C6001008F560100F3
:107390007456010010730100795601007E560100F9
:1073A00082560100A9560100D0126341BA5601006D
:1073B000BE560100C25601000000A0410F57010057
:1073C000F9550100C6560100CC560100D356010004
:1073D000B25601000057010000002041055701008E
:1073E0000B57010096560100039B9E4238D0251E84
:1073F0000ED0A0A92000FDF708F8051E08D07F22B6
:10740000037A93435F3A134303720023036043609C
:1074100077783378A0AA1B493F0228001F43FDF765
:1074200005FC01003800FCF7B1FFA0AA16492800AE
:10743000B778FDF7FBFB002807D07F23027A7FB2E5
:107440009A43753B1343037207600336CCE7039BF3
:10745000042B05D1002305260593DEE60526DCE690
:10746000A0A8037C002B01D0FFF780FA074C32A9BB
:1074700032943393FEF7BEF8200007F0DBFEFFF7EF
:1074800075FAC04610730100795601008C12002075
:10749000F8B5B32501246D00174E300006F04CFA04
:1074A000002828D0300006F083FAC0B2134E0A2814
:1074B00001D00D2814D1124F32683B78002A09D030
:1074C000002B09D10F488354FEF700FF00233360DF
:1074D0003B70E1E7002BF9D00B48FEF7EDFBF5E739
:1074E0003368AB4204D85A1C3260064AD054D3E702
:1074F000034B1C70D0E7F8BD8C120020AC040020B8
:10750000B0040020420300201C5601001C4B70B543
:107510001B78002B01D0FFF769F9FFF7B9FFFFF7E0
:1075200073F808F0E1F8174A174913680400C31A02
:107530008B4202D91060FEF753FD144A14491368B8
:10754000E31A8B4204D91460FEF75AF8FDF734F9B8
:10755000104B1B78002B11D00F4B187800280DD141
:107560000E4D2B68A34209D8FA21490107F09DFD71
:107570000B4BE41820182860FFF772F870BDC04666
:10758000480B002018030020CF0700001C03002038
:107590008713000002030020600A00205C0A00201C
:1075A00060EA0000E12170B5490286B0744806F037
:1075B000C1F8182008F08CFA05001A2008F088FAA3
:1075C000040008F097F8A4026840604007F05CFDF2
:1075D0006C49012007F069FD01256B4B01211880E2
:1075E0000C2008F0E3FA00210C2008F02BFB6420AB
:1075F00008F0B0F8654E300002F094F864493000AD
:1076000002F0B0F8634C00952B003C2202212000D0
:1076100002F0F6FB002813D05F4B20001D7002F033
:10762000DDFB2900200003F056FB002323615B4BA8
:107630005B496361200007F005FE200002F0A2FE16
:10764000584C42223100200005F02AFA002816D0BA
:107650000125554B554A002120001D7005F085FA83
:10766000524A0021200005F087FAFA222900200062
:1076700005F074FA4D4A0221200005F085FA012137
:107680004B4803F09FFB4B4B08251870FEF7B4FBEB
:10769000494B1226187000230593484B484C04931D
:1076A0000A230293033B0093039501960233454A54
:1076B0004549200000F0CCF9002808D0FA24E40065
:1076C0004248FEF7F9FA200008F044F8F8E70122F2
:1076D0003F49200000F030F90028EFD1394920005F
:1076E00000F080FF0028E9D12900200000F0FCFF15
:1076F0000028E3D10521200001F016F80028DDD193
:1077000044223100200001F030F80028D6D1314960
:10771000200000F03DFB0028D0D11021200000F017
:1077200065F90028CAD12900200001F03BF80028A3
:10773000C4D10121284B0091284A200001F0F0F823
:107740000028BBD12000264900F01AFA2549200064
:1077500000F034FFFEF744FCFEF738FAFDF750FF67
:10776000FDF72AF8FEF77CFF01221F4B1A7007F085
:10777000BBFF1E4BC0181E4B186006B070BDC04644
:107780008C120020FFFF0000F8090020800B002071
:10779000801A06009402002000030020010001006E
:1077A000215F010044060020010300204C0400007A
:1077B0004C0200206402002010060020CDCCCC3FFB
:1077C000B40400200000FA420000D943365F0100F3
:1077D000CDCC664400000C43211000000F1D0000BA
:1077E000FD400000FFFFFF00020300201027000003
:1077F0005C0A0020F7B51D0008AB1B7804000F00E1
:10780000160000210322083001930BF048FD80226E
:1078100022736A4610491279616101210023627462
:10782000FF226018E372A773E6732574A2742376AF
:107830006176C377A01CC277E01CC27723609623D1
:10784000064A9B0162626360054A064B2000E261C2
:1078500061732381FEBDC04680841E00983A0000FB
:10786000580B00200D0A000010B5FF2801D008F0C9
:107870009DF910BD10B5FF2801D008F0E3F910BD47
:1078800010B50400002902D0012910D010BD807B62
:107890000121FFF7E9FFA07B0121FFF7EBFF637BED
:1078A000002BF3D0E0690368DB6A9847EEE7437B7F
:1078B000002BEBD0006861680368DB699847E5E757
:1078C00010B50023FF2802D008F0E8F903001800E3
:1078D00010BD10B507F022FB10BD10B507F067FF13
:1078E00010BD10B507F036FF10BD10B507F054FFFE
:1078F00010BD10B507F0F8FE10BD10B507F0FAFE88
:1079000010BD70B5431CDB7F04001500002B08D0B0
:10791000831CD87F0334FFF7ADFFE07F2900FFF71A
:10792000A9FF70BD10B5040000F0CEF8014B200097
:10793000236010BD2C66010073B50C1C06002049A5
:10794000201C150008F044FE002835D01D49201CDD
:1079500008F02AFE00282FD0002D0ED01A49201C36
:1079600008F02CFE01AD00280CD0184B2B8029000C
:10797000300000F092FB002803D1211C300000F001
:1079800057FB76BD1249201C08F018FE002801D0D4
:10799000104BEBE71049201C08F010FE002801D026
:1079A0000E4BE3E70E49201C08F008FE002801D02A
:1079B0000C4BDBE70C4BD9E70C204042E1E7C0461B
:1079C000000016430000704400006144E1E9FFFF3D
:1079D00000805444D7DBFFFF00804044C1C5FFFF57
:1079E0000000E6437581FFFF6B6F0000F0B5CDB27C
:1079F0002B001133DBB285B00400272B23D80F26D0
:107A000000236E44337032000133104900F082F9D4
:107A1000002816D101270200009707230421200027
:107A200000F0BDFA00280CD104222900200000F04B
:107A30003DFB002805D13B0032000449200000F046
:107A400095F905B0F0BD0D204042FAE7E7080000C7
:107A5000F0B5040087B00E1C111C1A000CAB1B788B
:107A60000DA8059311AB1B780EAD0FAF00782D78E4
:107A70003F880393109B009002930197059B200081
:107A80006DB201F017FC00280FD10122311C20003B
:107A9000FFF752FF002808D129002000FFF7A6FFBA
:107AA000002802D1200000F09FF907B0F0BD704718
:107AB0007047FC3010B5806A00220121FFF721FFDA
:107AC0000120404210BD000070B504000D00FF22EF
:107AD000104901F07FFC104B9A21083323602300EA
:107AE00000220120FC334900DA621A635A636054B1
:107AF0001031DA631A645A646252023162540231FC
:107B0000625200219D622000196559659A65DA6507
:107B100070BDC0460024743F6466010070B5040067
:107B2000FC34A36A0E0005000121187CFFF79CFEBF
:107B3000A36A0021187CFFF79DFE0120FFF7D1FE0C
:107B4000A36A0121187CFFF795FE002E12D0FFF7E3
:107B5000D0FE06002B6828005B689847041E09D0F9
:107B6000FFF7C7FE054B801B984204D80A20FFF799
:107B7000B8FEEFE70024200070BDC046B70B000040
:107B800010B5FC30836A0422D87BFFF7A2FE10BD3B
:107B9000F0B589B01F0010AB1B781600029311AB33
:107BA0001B78019005930300FC339A6A049113003B
:107BB00006A91433D46921CB21C10021907BFFF7A2
:107BC00059FEFFF796FE0390019DFC35AB6A587C89
:107BD000FFF776FE00280FD0FFF77FFEFFF789FE44
:107BE000039BC01A129B9842EED3AB6A0121987B8B
:107BF000FFF740FE444882E023680699DB69079A54
:107C000020009847049DAE192368B54205D0297815
:107C10009B68200098470135F6E7002F41D00E27DA
:107C20000E9D029BEE182368AE4257D09B682978C0
:107C30002000984703003B40062B23D106252368EC
:107C400020001B6A9847019C0121FC34A36A987BA1
:107C5000FFF710FE059B002B42D00120FFF745FEE9
:107C6000FFF747FE0600A36A587CFFF729FE0028AD
:107C700036D0FFF732FEFFF73CFE129B801B984286
:107C8000F1D3B7E7082B01D10825D8E70A2B01D19A
:107C90000A25D4E70138C0B20135FD28C3D9FF2534
:107CA000CDE79B683900200098470E230340062B40
:107CB000C4D0082BE8D00A2BEAD00138C0B2FD2886
:107CC000EDD80F9D029BEE182368B54206D09B6845
:107CD00000212000984728700135F5E70025AEE720
:107CE000082D0ED003D8062D84D0002007E00A2DE1
:107CF00004D0FF2DF9D10220404200E0034809B032
:107D0000F0BD0348FBE7C0463FFDFFFF3DFDFFFF21
:107D10003EFDFFFF30B51D2589B007AC2570A17071
:107D20000D0A074965700491029301210023039114
:107D30000192009303222100FFF72AFF09B030BD12
:107D40008813000070B586B00AAC24780BAD2D788E
:107D500002940024044E0093049603950194012399
:107D6000FFF716FF06B070BD8813000030B50D2573
:107D700085B003AC2570A1700D0A012165700191D9
:107D80000093210013000322FFF7DCFF05B030BD94
:107D900073B50C1C06000021201C08F019FC0028FB
:107DA00018D00E49201C08F0FFFB002812D06B46AB
:107DB000201CDD1D0BF0FCF80022094B09F076FEBB
:107DC00008F028FC012328702A0006493000FFF73C
:107DD000CDFF76BD11204042FBE7C04600000C43BA
:107DE00000000440E708000037B56B46DC1D0023A7
:107DF00022002370084901330500FFF78BFF00289C
:107E000009D11E2322780449134323702200012341
:107E10002800FFF7ABFF3EBDD808000073B56B46E6
:107E2000DC1D00230E002370220001330A490500E7
:107E3000FFF770FF00280BD122780423002E08D111
:107E40009A4322700123220003492800FFF78EFF86
:107E500076BD13432370F5E73607000030B585B0D3
:107E600003AC63700E2501232570019300920B0073
:107E700002222100FFF766FF05B030BD30B589B0A2
:107E80000D000CA90C781F2169440D70029300238A
:107E9000054D019301330092049503941A00FFF7F6
:107EA00077FE09B030BDC0468813000003000022F1
:107EB00030B5FC3385B004000D00986A1100FFF75F
:107EC00020FD012303AA1570802100932000FFF7F5
:107ED000D5FF05B030BD10B50021FFF7E7FF10BD9D
:107EE0001FB50F226A44002907D1117001239D217B
:107EF0000093FFF7C3FF05B000BD01231370F5E742
:107F00001FB50B0C03AA13700B0A53700123917059
:107F1000009383210233FFF7B1FF05B000BD1FB509
:107F20000B0C03AA13700B0A53700123917000937A
:107F300082210233FFF7A2FF05B000BDF7B5002490
:107F400010490500FFF7EBFF0A20FFF7CAFC2600E7
:107F50006B46DF1D00233A003B700B4901332800BC
:107F6000FFF7D8FE01223B781340A340A4181E431C
:107F7000F6B2082CECD12B6828005B6898473000DB
:107F8000FEBDC046FFFFFF0019080000012307B532
:107F900000930023C5211A00FFF770FF0EBD30B516
:107FA00085B008AC257803AC637001232170A27002
:107FB000E5702200009395210333FFF75FFF05B0C2
:107FC00030BD7FB508AC258802AC6170E27063718A
:107FD0000E0A110A1A0A2B0AA3710123A170227139
:107FE0002670E5710093073322001900FFF746FF62
:107FF00004B070BD1FB50B0A03AA137001235170A2
:108000000093DB181900FFF739FF05B000BD1FB55D
:108010000B0E03AA13700B0C53700B0A9370012301
:10802000D170009386210333FFF728FF05B000BD10
:1080300010B50400081C9821C90508F07BFE0AF061
:10804000B7FF0022044B0AF03BF908F0E3FA010005
:108050002000FFF7DCFF10BD0000A03F030030B59B
:10806000FC330D0085B0040001220021986AFFF75F
:1080700048FC002D0AD1002303AA1370013300939A
:10808000D1212000FFF7FAFE05B030BD2900200005
:10809000FFF7BDFF0028EED0F6E7012307B50A0081
:1080A00000939821DB18FFF7E9FE0EBD1FB50123F1
:1080B00003AC217062708E2100932200DB18FFF761
:1080C000DDFE04B010BDF0B587B002929A222C25D7
:1080D00003935200825C0CAB04000F001B78FF3549
:1080E000002A28D02A230126FF33C35C30009840A1
:1080F00009F080F92300FC33596B08F043FC83211D
:10810000C90508F065FA002813D066556B461B7A3E
:1081100005AA53706B461B7B17709370635D8B21B0
:10812000D3700123200000930333FFF7A7FE07B0AD
:10813000F0BD6055EAE74355E8E77FB5089D02AC1E
:1081400023712B0C63712B0AA37101230E0C267073
:108150000E0AA170E2706670E571220000938B2117
:108160000733FFF78BFE04B070BDF0B587B0039303
:108170000CAB1F780DAB1D780E0029000400029295
:10818000FFF74CFE002812D104AA330A13706B4685
:108190001B7B5670D3706B461B7A9770137101234B
:1081A00055718C21009320000533FFF767FE07B05F
:1081B000F0BDF0B58BB010AC267811AC24780393E9
:1081C000049412AC257813AC24780B0A059414ACF3
:1081D000277807AC23706B461B7B6170E3706B469E
:1081E0001B7DE271A3716B461B7CA7702372012378
:1081F00026716571220000938C210833FFF73EFE43
:108200000BB0F0BD1FB5012303AC217062708F214C
:1082100000932200DB18FFF731FE04B010BD1FB53C
:10822000012303AA117000939621FFF727FE05B0E2
:1082300000BD10B50021FFF7F2FF10BD10B5012100
:10824000FFF7EDFF10BD1FB5002303AA1380013314
:10825000009307210133FFF711FE05B000BD0000B8
:108260000022F0B50F0087B011000600FFF7CAFF2B
:10827000041E54D104AD2F7001272A0000973B0043
:108280008A213000FFF7FAFD041E48D120232A007E
:108290002B70932100973B003000FFF7EFFD041E89
:1082A0003DD103232B702A23FF33F35CA8800D33C9
:1082B0006B700A23A8716B802A000097033B88210A
:1082C0003000FFF7DBFD041E29D116493000FFF70F
:1082D00091FE230003900094220021003000FFF75C
:1082E00070FE039B03431CB2002C18D17F232A008D
:1082F0002B70892100973B003000FFF7BFFD041E63
:108300000DD10520FFF7EDFA3300FC339B6A587C52
:10831000FFF7D6FA002802D0FFF7DFFAF4E72000D3
:1083200007B0F0BDFF03000070B586B00AAC0BAD1E
:1083300024782D7801930023044E0395049602942B
:108340000093FFF725FC06B070BDC04688130000FF
:108350001FB51E240B0003A90C801D3C0092019444
:108360000222FFF7E1FF04B010BD000030B589B074
:108370000D000CA90C781F2169440D700293002395
:10838000044D01920495039400930122FFF700FC31
:1083900009B030BD881300001FB5002303AC238053
:1083A00001330093220001331321FFF7DFFF207810
:1083B00004B010BD1FB5002303AC2380A3700133AC
:1083C0002200009315210233FFF7D0FF207809F037
:1083D00011F8BF21090608F0ADFC04B010BD1FB5AF
:1083E000002303AC238001330093220001331221C8
:1083F000FFF7BCFF237860781B02184304B010BD60
:10840000F7B5036801915B68050016009847041EE4
:108410001ED12800FFF7E3FF60232700184200D099
:10842000073FFF2E05D12B6801219B6A2800984742
:108430000600F2B201992800FFF78AFF041E07D157
:1084400004492800FFF7D6FD0400002F00D03C00AF
:108450002000FEBDFF0300001FB50F24FF236C4466
:108460002370FE3B009322001121FFF77FFF20784D
:1084700004B010BDF7B50500FFF7EEFF07000128B7
:1084800040D12B6828005B689847041E2ED12E002F
:10849000FC3602003900B06AFFF733FAC0225200FE
:1084A0000094230011002800FFF78BFD041E1DD14E
:1084B00015492800FFF79EFD041E17D12800FFF77D
:1084C00065FD041E12D1B36AD87BFFF7F9F90028C5
:1084D00002D1FFF702FAF6E72800FFF780FFC30595
:1084E00006D509492800FFF785FD084C2000FEBD90
:1084F0000124030604D504492800FFF77BFD0F245F
:108500006442F3E71424FBE7FF03000042FDFFFF92
:10851000002330B587B00093022226490400FFF7FC
:1085200050FD051E22D1020001002000FFF76AFE67
:10853000051E1BD120492000FFF75CFD2000FFF73E
:108540008BFF012815D123002E2096222100FC3319
:10855000FF30DB6D205C5200FE31098EDBB20090F3
:10856000A25C01952000FFF700FE0500280007B07F
:1085700030BD00281BD105300490FA3003904730FD
:10858000205C442302904620FF30205CA122019011
:10859000A220A4214000205CFF335200490000903B
:1085A000E35CA25C615A2000FFF703FEDDE70125D2
:1085B0006D42DBE762020000FF03000070B50400BB
:1085C0000D00FFF7A5FF00280AD12300FC330200AD
:1085D0000121986AFFF795F929002000FFF79FFC19
:1085E00070BD000073B504000D1CFFF735FF0600D9
:1085F000012800D06EE00021281C07F0E9FF0028C8
:108600001BD03649281C07F0CFFF002815D0FC21CD
:10861000281C890508F08EFB0AF0CAFC304A314B51
:1086200008F028FF07F0F6FFC0B20F2842D00ED89E
:10863000052824D003D803281CD008204BE00728A5
:1086400021D00A28F9D1942309225B0015E03E28A5
:1086500038D007D8142831D01F28EED19423032214
:108660005B000AE07D2831D0FA28E6D19423062267
:108670005B0002E0942300225B00E25406E09423B6
:1086800008225B00F9E794235B00E65423002C20CA
:10869000FC335D63942295232A21FF30205C5B002C
:1086A0005200FF310090E35CA25C615C2000FFF7A8
:1086B0000AFD76BD942302225B00DEE794230A22A2
:1086C0005B00DAE7942304225B00D6E794230522BB
:1086D0005B00D2E714204042EBE7C0460000FF43B6
:1086E0007B14AE47E17A843F37B504000D00FFF7F5
:1086F000B3FE012813D16B1F072B13D82A232C217B
:108700009422FF33E554FF31615C01335200009144
:10871000E35CA25C29002000FFF7D5FC3EBD1420DD
:108720004042FBE70920FBE737B505000C00FFF7E7
:1087300093FE012814D1631F032B14D895222C20FB
:108740002A21231F5200DBB2AB54FF30285C023ACF
:10875000FF310090AA5C695C2800FFF7B4FC3EBDC5
:1087600014204042FBE70A20FBE773B505000C002C
:108770001600FFF771FE012811D10F2123003009E7
:108780008B430E40E821034301AA240113703443B4
:108790000223C90028005470FFF7E8FA76BD1420C0
:1087A0004042FBE730B587B004000D00FFF754FEF0
:1087B000012814D123000021FE331D86023BDB6D0E
:1087C00001912E219622FF31615C52000091DBB2B3
:1087D000A25C29002000FFF7C8FC07B030BD0028CC
:1087E0001CD10521A42304915B00FA31E5520391C9
:1087F0004731615C442302914621FF31615CA12233
:108800000191A2214900615CFF3352000091E35CB9
:10881000A25C29002000FFF7CCFCDEE701204042EB
:10882000DBE70000F7B504000D1CFFF715FE00287C
:1088300037D10021281C07F0ADFE002800D01B4DC9
:10884000281C0AF0B5FB1A4A1A4B06000F0007F065
:1088500085FE002828D01849281C07F0A5FE00280E
:1088600022D00022154B3000390009F029FD832366
:108870000022DB0509F024FD0022114B09F016F956
:1088800007F0C8FE2100A0234222FC3108645B00EF
:108890000090FF32E35CA25CC96B2000FFF74DFC47
:1088A000FEBD14204042FBE76620FBE79A99193F82
:1088B000333333333333E33F0000484300408F40CA
:1088C00080847E4137B504000D00FFF7C5FD002808
:1088D00020D1042D21D842222800FF3207F08AFC43
:1088E00003121416180000232100A354A023FC3106
:1088F000086C5B000090E35CA25CC96B2000FFF792
:108900001CFC3EBD0823EFE70923EDE70A23EBE754
:108910000B23E9E714204042F3E76A20FBE700005D
:10892000F0B58BB0079310AB04000D0017001E7854
:10893000FFF792FD002851D1012D40D0002D03D02A
:10894000022D44D0344838E0A12301225B00E254D8
:1089500005200490FA3003904730205C44230290B5
:108960004620FF30205CA1220190A220A4214000DB
:10897000205CFF33520049000090E35CA25C615A26
:108980002000FFF716FC002817D109AD3B0A2B7019
:108990002A000223214920006F70FFF7E7F9002821
:1089A0000BD1079B2A001B0A2B706B461B7F1C49AF
:1089B0006B7020000223FFF7D9F90BB0F0BDA123A3
:1089C0005B00002E01D00422C1E7E654C0E7A123DA
:1089D00006225B00002EBAD1E554B9E7012818D170
:1089E00096225200002D12D0A05423002100002016
:1089F000FC33FE31DB6D098E01902E20FF30205CB0
:108A0000DBB20090A25C2000FFF7AFFBD5E7A554D6
:108A1000EBE701204042D0E743FDFFFFBC0600002A
:108A2000BE060000F0B58BB004000D000792FFF702
:108A300013FD002850D14627FF37002D1AD14423BB
:108A4000A122A42105300490FA30E5550390473067
:108A5000FF3352004900205CE35CA25C615A029043
:108A60000195A2204000205C00902000FFF7A1FBB0
:108A70000BB0F0BD0126D72109ADE65533002A0021
:108A8000C9002000FFF746F90028F1D1079A2B789A
:108A90001212B34316401E436B46D7211B7F2A0098
:108AA0006B70C900022320002E70FFF75FF90028C9
:108AB000DED14423A122A42105300490FA30039092
:108AC0004730205CFF330290E05D52004900E35CD8
:108AD000A25C615A0190C4E714204042C8E780229A
:108AE0004B1E994110B5C9B25200FFF79BFF10BD54
:108AF000F7B5040000912600FFF7AEFCFC36012814
:108B000051D12A23FF33E55C2D48A84008F072FCC0
:108B10002C49071C706B08F00DF9011C381C07F07C
:108B200031FF07F05FFD6B1F0600012B38D80022D4
:108B30001927254BA9009E4202D929003E31890000
:108B40002E23FF33E05CC9B2434243415842142311
:108B50000340962001934000205C009B4000C01819
:108B60004000451BAD00019BAD18ED182DB2281C2F
:108B7000002D00DA00204B1E00B2C01807F0CEFB1B
:108B800095235B0082B2E05CFE3404305043238EB8
:108B9000800008339B00DF19C7197743B808FEBD72
:108BA00008221127C5E7009BF56BD80068430AF03F
:108BB000CDF90022054B09F083FB07F02BFDEEE712
:108BC00010270000000020417F3E00000000503FC1
:108BD000F0B585B00293036804005B680E001700CF
:108BE0009847002867D1FF2F67D82000FFF734FC93
:108BF00001282ED139002000FFF77AFF03235843C4
:108C00004308019323683A00DD683100029B20008D
:108C1000A84700284FD1FEF770FE05002600FC365D
:108C2000B36AD87BFEF74CFE00281BD1FEF755FE39
:108C3000FEF763FE019B401B9842EFD921492000BB
:108C4000FFF7D8F9236820005B6898470520404269
:108C500031E0002833D139002000FFF749FF052318
:108C60004343CEE7FEF749FE019038000AF06EF963
:108C70000022154B09F024FB019B02900391581B25
:108C800008F0B8FB0AF094F90022104B08F00EFF30
:108C900002000B000298039908F008FF0AF0DAF9C5
:108CA000084970652000FFF7A5F9002803D1236863
:108CB00020005B68984705B0F0BD0420C7E701209D
:108CC000C5E7C046FF0300000000204080842E411D
:108CD000F7B56B46DC1D00232200237016490133D3
:108CE0000500FFF717F8002820D12800FFF7B4FB94
:108CF00001281CD12B00FC33586B0AF059F90022D3
:108D00000E4B09F04FFD49004F080D4A0D4B39003D
:108D100007F010FC00280AD0042223789343237024
:108D20002200012304492800FFF720F8FEBD042398
:108D300022781343F3E7C0468908000000407F40D3
:108D4000FCA9F1D24D62503FF0B5050087B00F008D
:108D50001600FF2A75D8A2235B00C35C002B01D04C
:108D6000FF2A6ED02800FFF777FB01284AD129009F
:108D70000020FE31098E01902E209622FF30285CC3
:108D800052000090F3B2AA5C2800FFF7EEF9041E2F
:108D900059D10090030001222D492800FFF711F955
:108DA000041E50D1020001002800FFF72BFA041E18
:108DB00049D10300F2B239002800FFF74FF8041E32
:108DC00041D124492800FFF715F9041E3BD12800A2
:108DD000FFF77EFF041E36D12E00FC360100012273
:108DE000B06AFEF78EFD21002800FFF789F8041E07
:108DF00029D1B36A587CFEF763FD002823D0FEF723
:108E00006CFDF6E7002821D105300490F0B2039004
:108E1000A3204000285C442302904620FF30285CB9
:108E2000A1220190A220A4214000285CFF3352001F
:108E300049000090EB5CAA5C695A2800FFF7B9F979
:108E4000A5E704246442200007B0F0BD0124F9E73F
:108E500001020000FF0300002E2373B5FF33C35C43
:108E60000400012B02D01420404276BDFFF7F4FA33
:108E700006000128F7D16B4692219A1D00230901B3
:108E8000137003002000FEF771FF0028EDD16B4640
:108E9000DD1DD8712A00330008492000FEF73AFF93
:108EA0000028E2D102232A78044913432B702A00B8
:108EB00033002000FEF75AFFD7E7C0464409000000
:108EC000F7B5036801915B68040015009847002816
:108ED00000D082E02000FFF7BFFA012847D12A2303
:108EE000FF33E35C984008F085FA2300FC33596BAC
:108EF00007F048FD0AF05CF800223F4B09F0E0F96A
:108F000000223E4B09F0DCF907F084FB060008F074
:108F100071FA0AF04DF80022394B08F0C7FD07F04E
:108F200079FB01002000FFF749FB002855D1FEF72F
:108F3000E4FC07002300FC339B6AD87BFEF7C0FCEF
:108F400000283FD1FEF7C9FCFEF7D7FCC01B8642C4
:108F5000F0D22000FFF780FF2A492000FFF74AF8EF
:108F6000236820005B6898470620404235E00028CF
:108F70003FD1281E00D1FF2009F0E8FF0022224B3C
:108F800009F09EF92300FC330600D86B0F0008F0AF
:108F900031FA0AF00DF802000B0000201B4908F01E
:108FA00085FD0AF057F80AF003F802000B003000C4
:108FB000390008F07BFD0022154B09F081F90022F1
:108FC000144B9FE72E23FF33E35C012B06D023686D
:108FD0002A001B69019920009847FEBD2000FFF779
:108FE0003BFA0128F3D12000FFF736FF0028EED02E
:108FF000F3E70120B9E7C0460000594000408F4028
:1090000000402F40FF030000000020408084CE413C
:1090100080842E41000014401FB5002303AC238040
:10902000A37001330093220002331421FFF79EF94D
:109030002078637800041B021843A378184304B017
:1090400010BD000070B5FFF7E7FFC0B209F044FFA4
:109050000400802000060D180022044B2900200087
:1090600009F02EF909F0F6FF70BDC0460000E03FA0
:1090700010B50400FFF7F0F9012812D12000FFF726
:10908000CBFF030AD8B21B0608D409F025FF002243
:10909000054B09F015F909F0DDFF10BD0138FF3867
:1090A000F3E70248F9E7C0460000D03F0000A0C146
:1090B0001FB50024012303AA148017210093DB1895
:1090C000FFF754F9200004B010BD0000F0B50368AC
:1090D00089B05B68039004920E1C98470398FFF7D1
:1090E000E7FF830602D50398FFF7ADF8700040084C
:1090F00009F05EFF5F4A604B07F01CFA05900028FC
:1091000005D001210398FEF709FD09B0F0BD301C20
:1091100009F04EFF594A5A4B04000D0009F042FB7A
:1091200049004F08534A544B390007F003FA00280E
:1091300020D06A46127D07AB1A70049808F05AF9DD
:1091400009F036FF00224F4B08F0B0FC07F062FA3E
:1091500007AA030C5370030A9370039B0499FC3312
:1091600099650123D0709721009303980333FEF78C
:1091700085FECAE7444A454B2000290009F012FB4E
:1091800049004F083B4A3C4B390007F0D3F900280F
:1091900002D007AB0122CFE73D4A3E4B2000290019
:1091A00009F000FB49004F08324A334B390007F001
:1091B000C1F9002802D007AB0222BDE72F4A364B87
:1091C0002000290009F0EEFA49004F08294A2A4BED
:1091D000390007F0AFF9002802D007AB0322ABE754
:1091E000294A2E4B2000290009F0DCFA49004F08DB
:1091F000204A214B390007F09DF9002802D007AB27
:10920000042299E71D4A264B2000290009F0CAFADA
:1092100049004F08174A184B390007F08BF900280E
:1092200002D007AB052287E700221E4B2000290051
:1092300009F0B8FA49004F080E4A0F4B390007F001
:1092400079F9002802D007AB062275E7164A174BBA
:109250002000290009F0A6FA49004F08054A064BEC
:10926000390007F067F9002802D007AB072263E74F
:109270000F484AE7FCA9F1D24D62503F9A9999995B
:109280009999F93F00402F40333333333333FB3F59
:10929000CDCCCCCCCCCCFC3F9999014033330340AE
:1092A00099990540000008406666666666660A4051
:1092B00041FDFFFFF0B5050087B003930CAB1B78B1
:1092C000FC3504930DAB1B88040002930FAB1B7895
:1092D0000F1CA86A002101920593FEF7D1FAAB6A30
:1092E0000021D87BFEF7C0FAAB6A0021587CFEF75C
:1092F000BBFA6A462A231279FF336F63E2540422D1
:10930000013BE2546A4623001289FE331A8600228A
:109310000126AA6503329A85DE85FF233100EB65BD
:109320002000FEF7FBFB00284AD1236820005B6881
:109330009847002844D131002000FEF791FF002813
:109340003ED100210E9807F039F9002831D101995A
:109350002000FFF7C9F9002832D1391C2000FFF79F
:1093600041F900282CD103992000FFF7DDF90028EE
:1093700026D1442204992000FFF7F7F900281FD1D5
:1093800002992000FFF70EFA002819D10F4920009A
:10939000FEF7FEFC002813D101212000FEF7A0FDFE
:1093A00000280DD1059B2000002B0BD0FEF741FFBC
:1093B00006E0074A0E992000FFF788FE0028C6D075
:1093C00007B0F0BDFEF73AFFFAE7C0460000704272
:1093D00088130000034B4160036000238260838197
:1093E0007047C046AC66010070B506000C008D18D1
:1093F000AC4207D0336821789B68300098472070D2
:109400000134F5E770BD7047704710B5040040683F
:1094100003F0DEFE0023237610BD10B5406803F094
:10942000FCFE10BDF8B5050040680C0003F0F0FE2E
:109430002B68E7B2260A9B68012810D13900280062
:10944000FF2798472B68BC4304439B6831002800E2
:109450009847030220003840184380B2F8BD31001D
:1094600028009847FF262B680002344004439B687D
:10947000390028009847B4432043EEE710B50400B4
:1094800006F0BEF9200010BD10B54B1C0BD0102902
:1094900009D0EFF3108472B6102905DD022343765C
:1094A000002C00D162B610BD0123427E1A434276E1
:1094B00018224A430449891816228A569340C269E1
:1094C0001343C361ECE7C046707B01004B1C17D00F
:1094D000102915D0437E9B0712D4EFF3108272B689
:1094E00018234B430749C9180123897D49B28B4092
:1094F000C1699943C16100D14176002A00D162B6A9
:109500007047C046707B0100437E002B05D09A0750
:1095100004D5837E002B00D062B67047DB07FCD5F4
:10952000C369024A9BB2D360F7E7C0460018004007
:10953000037E002B04D143768376C3610133037627
:10954000704700007FB5036902AE04000D00029170
:1095500072608B4203D1828AB3889A4226D020005F
:1095600006223100103009F07EFE606803F047FEED
:109570007379E17A013B581E8341227B0093606836
:10958000002303F0D9FF33790021013BDBB2022B2A
:1095900001D8074AD15C074B2A009D4200D91A0026
:1095A000606803F0FDFD606803F01FFE7FBDC046EC
:1095B000E4660100001BB70070B518260400FFF731
:1095C000B7FF33000821207A0D4D4343EB1859565D
:1095D00006F07CFB33000821A07A4343EB18595670
:1095E00006F074FB0821607A4643AD19695606F00F
:1095F0006DFB044B200006CBFFF7A4FF70BDC046F7
:10960000707B0100780B002007B5437E009101922A
:10961000002B07D09A070AD5EFF310835A42534123
:10962000837672B60099019AFFF78CFF07BDDB07BE
:10963000F8D5C369014A9BB29360F3E70018004074
:109640000E490F4B10B501220B6000234A710B71BC
:109650000C490D48083101600C49427541600C49C4
:10966000C27201811421036181720375094A0A499A
:109670000376037306F0D8FB10BDC046780B0020BC
:1096800000093D00E8660100580B0020641200202C
:10969000121500000000002009940000002070470F
:1096A00010B503689C6B0123A04710BD8C230022DA
:1096B0009B00C154103BC3185A609A60DA600123C2
:1096C0008375704710B5036801211B6B984710BD67
:1096D000F8B505000E0017000024BC4208D02B6826
:1096E000315D1B6828009847002801D00134F4E759
:1096F0002000F8BDFC30406A704770478E239B0005
:10970000C15070478D239B00C15070470300FC334C
:109710005A6A002A03D01B6AC018007E70470120D5
:109720004042FBE770B5060018250C49006903F0BC
:109730004DFF306903F08BFD2B000821307D084C74
:109740004343E318595606F0C1FA0821707D45439A
:109750006419615606F0BAFA70BDC046A0860100D1
:10976000707B010070B504000D00006903F084FDFA
:109770002900206903F02AFF206903F068FD70BD0D
:1097800010B5006903F078FD10BD0000F7B5019336
:10979000FA238026002504009B008360134B76008B
:1097A00008330F0045602900009203603200183032
:1097B00009F075FD23002000FC332530DD61320007
:1097C0001D6229005D62FF3009F069FD88239B005E
:1097D000E3185D609D60DD606B461B782761237533
:1097E0006B461B79A57520006375FEBD24670100DB
:1097F00070B506001825006903F0C3FE306903F058
:1098000026FD2B000821307D064C4343E3185956B2
:1098100006F05CFA0821707D45436419615606F034
:1098200055FA70BD707B010010B50022FFF7E0FF14
:1098300010BD0300802210B5FC33DC685200944256
:1098400008D05A6881545A680132D2B25A60DA6834
:109850000132DA6010BDF7B50400171E019302D182
:1098600000252800FEBD03000022FC33DA611A62E5
:109870005A620069013203F031FD061EF0D0230068
:1098800020691833009303F0BCFD01000098FFF736
:10989000D0FF01252069BD4214D003F090FD0028BF
:1098A0000FD0206903F0FAFC0221206903F000FDCB
:1098B000206903F0A6FD01000098FFF7BAFF01350B
:1098C000E8E70600206903F0E1FC019B002B06D0CD
:1098D000002E06D00321206903F0EAFCC1E7002E28
:1098E000BFD1013DBDE7002310B5827D9A420CD067
:1098F000882292008218D46880225200944204D0B8
:109900002530FF30FFF795FF0123180010BD03003D
:10991000FC33DA68002A09D09A68805C9A680132C0
:10992000D2B29A60DA68013ADA60704701204042A8
:10993000FBE700228C2370B59B00827504000E00AB
:10994000C15C006903F0CAFC002806D1032120692C
:1099500003F0AEFC0225280070BD88239B00E318AD
:10996000DD68002D11D020002530FF302569FFF77C
:10997000CEFFC1B2280003F0F3FC0028EDD1032193
:10998000206903F095FC0325E5E7002EE3D00321D1
:10999000206903F08DFCDEE710B51830FFF7B7FF44
:1099A00010BD70B50400006903F000FD002815D05B
:1099B000206903F012FD002811D0206903F06EFC2D
:1099C0000321206903F074FC8E239B00E558002DD1
:1099D00035D10023FC34E3612362636270BD2069EA
:1099E00003F005FD002809D0206903F0FBFC0028E6
:1099F00004D0206903F000FD0028DED0206903F0C8
:109A0000F6FC002821D1206903F0E2FC0028E5D013
:109A1000206903F0F1FC002833D088239B00E31871
:109A2000DB68FF21002B05D020002530FF30FFF739
:109A30006EFFC1B2206903F0ABFCA075CEE72368CE
:109A400020001B699847A847C3E7206903F026FC5C
:109A50002069032103F02CFC206903F0CDFC0028D1
:109A6000BCD0882300229B00E3185A609A60DA6019
:109A70000123A3758D239B00E3589342AED09847F2
:109A8000ACE72300FC335A6A802320695B009A42CA
:109A900006D103F0FBFB0321206903F009FC9DE7DD
:109AA00003F0AFFC010020001830FFF7C2FE206970
:109AB00003F0F4FBEFE7000010B50248FFF771FF79
:109AC00010BDC046800B002010B5112310220249A2
:109AD0000248FFF75BFE10BD5C120020800B0020E7
