:104000000080002035EC00001DEC00001DEC0000DD
:1040100000000000000000000000000000000000A0
:104020000000000000000000000000001DEC000087
:1040300000000000000000001DEC000089EC000002
:104040001DEC00001DEC00001DEC00001DEC00004C
:1040500009E600001DEC00001DEC000021EC000052
:104060001DEC000089C500001DEC00001DEC0000E7
:104070003D9300001DEC000099C500001DEC000000
:104080001DEC00001DEC00001DEC00001DEC00000C
:1040900005CC00001DEC00001DEC00001DEC000034
:1040A0001DEC00001DEC00001DEC00001DEC0000EC
:1040B0000000000010B5064C2378002B07D1054BFB
:1040C000002B02D0044800E000BF0123237010BD84
:1040D0002802002000000000D0760100044B10B53B
:1040E000002B03D00349044800E000BF10BDC046C8
:1040F000000000002C020020D0760100034B1B784A
:10410000002B02D00122024B1A70704704000020DD
:10411000CC0A0020F0B505001F00140085B0009106
:1041200002920393009B002B3AD02B78FE2B0ED1EA
:10413000002F03D10398013005B0F0BD6B78013F2B
:104140002370009B01340235023B0093EAE7FF2B0A
:1041500011D16B785E1C0193B742EBDBA91C3200D6
:1041600020000EF080F9A419BF1B019E009B0336AE
:10417000AD199B1BE9E70C4A9B009B581800019363
:104180000EF06AFF06008742D4DB0200019920008E
:104190000EF069F9009BA419BF1B0135013BD4E760
:1041A000029BE01AC8E7C046F04C0100F0B50024BD
:1041B0001700CDB0029001910792089303930694E3
:1041C000019B002B00D1A1E0029B1B78DE00059330
:1041D000019B3000012B02DD029B58788019019D64
:1041E000022D08DD029B07259B7843400693019B27
:1041F000062B00DC1D00F1210BF08CF9300004913E
:10420000F1210BF087F906980E00F1210BF082F9ED
:10421000B30009938B000A93049B9B000B93002D22
:1042200048DD012D04D0022D21D0454B0A9A01E032
:10423000434B099A9E5833780493002B38D0AB42F5
:1042400032D1701C2A0002990EF0FEF800282BD102
:10425000002C5ED00222012C00D0A2180399BB18BA
:104260008A1A002A06DC089801304DB0F0BD344BA4
:104270000B9ADFE7013A0392019A0499521B7618D0
:104280000192029A71785219197002920133002F2B
:1042900050D038001F00012C2ED1FE2303700CAB30
:1042A0001B78437000248BE7049B0233F618C2E7A7
:1042B000013DB4E76A46127D0CAB1A55019B0134EF
:1042C000013B0193029B0133029380235B009C42DC
:1042D00007D0019B002B00D072E738000233012C7D
:1042E00001D03800A31C039AFF18D31A0393BAD441
:1042F000002800D164E7CEE7FF230370631E4370FC
:1043000022000CA902300EF0AEF8CBE7079BF81A9A
:10431000ABE7039B002BA6DD761973783B70039BFC
:104320000137013B0393019B5B1B0193029B5B19CC
:10433000029345E780221F0052009442C9D1D0E782
:104340002C490100002905D07F220B7A93430028D5
:1043500001D10B727047042213430B720860F9E716
:10436000002907D07F220B7A086093431A000823A4
:1043700013430B727047002907D07F220B7A086025
:1043800093431A000A2313430B72704710B500239E
:10439000884207D0984207D00133002902D00EF09E
:1043A00051FE0300180010BD01235B42FAE70A2109
:1043B000435E0200181E01D01B01D018704770B573
:1043C0000D00041E09D0C1682800FFF7DFFF002898
:1043D00003D02000FFF7EBFFF3E7200070BD016082
:1043E0004160002900D0891800238160C1600374F6
:1043F00070474A688B681032934204D201230B74D1
:10440000002318007047103B8B60002BF9D04268E6
:10441000002A08D0991A09115181002243605A815B
:104420001A72DA60EDE70360F7E7021E07D07F211A
:10443000037A00200B40043B012B00D81068704722
:10444000F7B5037804000D002B2B1DD02D2B1CD1AC
:104450000127013423781A00303A092A02D92E2B79
:1044600000D0C9E000200A26644922781300303BBE
:10447000DBB2092B0BD8884211D8DA437043824251
:104480000DD3C0180134F0E701340027E2E7002A19
:1044900005D1002F18D080231B06984209D9002689
:1044A000574B98421AD90A2101360AF0ADFF76B26D
:1044B000F6E77F222B7A404293431A000A231343E4
:1044C0002B7228603800FEBD7F222B7A2860934330
:1044D0001A00082313432B720127F3E723781A00ED
:1044E000303A092A03D8013676B20134F6E72E2B8A
:1044F0000FD10A21434A01342378303BDBB2092B28
:1045000007D8904203D84843013E181876B20134C8
:10451000F2E7202322789A430023452A3AD1627891
:104520002D2A1FD102340133019300232178303921
:10453000CAB2092A2AD80A225343CB18F1182629CD
:1045400022DD019A2B7A7F20002A11D00024002F2F
:1045500001D0802424060C2183430B432B722C6052
:10456000019FAFE72B2A01D00134DDE70234DBE7FE
:10457000002F06D024490C22834313432B72296059
:10458000AAE7FF21C905F6E70134CFE7019A002A1F
:1045900000D05B422478002C2ED1F6180CF02AF8BB
:1045A000002E1ADD01231E4204D0184AA300D15860
:1045B0000BF0C0FC01347610E4B2002EF2D1002FD3
:1045C00002D080231B06C0187F222B7A28609343D9
:1045D0001A000C2313432B727EE77642002EEED096
:1045E00001231E4204D00A4AA300D1580BF0A2FCBA
:1045F00001347610E4B2F1E7002763E7999999193D
:10460000FFFF7F00CBCC0C00000080FF844701003F
:104610006C470100426810B5002A08D08368C4685E
:10462000A34205D300230122436003681A7410BD1E
:104630005C1C8460D154FAE710B51D200AF026FDF9
:1046400004001D200AF022FD24181D200AF01EFD82
:1046500020180BF085FF0E490BF094FA0D490BF072
:1046600069FCEA2189050BF065FC0B490BF08AFA1D
:104670000021041C0BF08EF8002807D10749201CEC
:104680000BF09CF8002801D1201C10BD0024FBE792
:104690000000404033335340CA261B3E33334B4166
:1046A000F8B5FFF7C9FF54490BF044FC0BF09AF83A
:1046B000524B1870524B1B78002B0AD0514C64217E
:1046C000200007F079FD504D504E002802D128708F
:1046D0003070F8BD4E49200007F0F6FE4C493070AE
:1046E000200007F0D9FE4A490700200007F004FF28
:1046F000484B47491860200007F016FF46490AF06A
:104700000DFFB42149000AF0EFFF6931FF310800C5
:10471000B42149000AF0E8FF404B200019803C49D1
:1047200007F0A2FE3E4B3A491860200007F014FF44
:104730003C4B37491880200007F032FE002826D174
:104740000023394A13703378002B52D0032F50D9ED
:104750002F49200007F048FE344B2D4918602000F7
:1047600007F056FE324B2A491860200007F064FE1D
:10477000304B984239DB304B984238DCFA218900C3
:104780000AF0CCFE00B22D4B2F701880A1E7204913
:10479000200007F015FE0028D2D00123224A1C4930
:1047A0002000137007F09CFD254B1949188020004C
:1047B00007F0A6FD234B16491870200007F0B0FD46
:1047C000214B13491870200007F0BAFD1F4B104908
:1047D0001870200007F0C4FD1D4B0D491870200013
:1047E00007F0CEFD1B4B1870ADE71B48CBE71B480D
:1047F000C9E700232B706CE70000A041E60500200C
:10480000DD02002014060020D40900201306002039
:104810004C040000D8090020A086010010060020EA
:10482000C0090020D2090020DC090020C8090020AE
:10483000CC09002019FC0BFEFFFFF301E40500206A
:10484000DE090020D109002012060020C409002042
:10485000D0090020D50900200080FFFFFF7F000065
:104860000023F7B5144F05003A780C009A4201D0A6
:10487000124B1B68009300239A4201D0104B1B6817
:104880002E1969463000042201930DF0ECFD201D25
:10489000281801A904220DF0E6FD20000830281890
:1048A000022208490DF0DFFD20003B780C30B37286
:1048B000054B1B78F372FEBDD4090020C809002007
:1048C000CC090020E4050020E60500203E4B73B52E
:1048D0001B78002B72D03D4C200004F0C1FE01215A
:1048E000200005F03AFE00232361394B394963610A
:1048F000200009F085FF3849200009F06CFF374996
:10490000200009F087FF3649200009F064FF354B8D
:104910000A221968200009F0D8FF3349200009F065
:104920005AFF324B0A221968200009F0CEFF3049A5
:10493000200009F050FF2F4B0A221978200009F0BF
:10494000D0FF2D4D2000290009F045FF2B4B187892
:104950000BF006FE2A490BF015F90DF029FC0B00AF
:1049600001210200009120000AF082F82549200070
:1049700009F046FF244E3378002B20D02349200035
:1049800009F029FF3100200009F029FF290020004B
:1049900009F021FF1E4B18680BF0C2FD0A2201002E
:1049A000200009F084FF1B49200009F029FF1A4963
:1049B000200009F02FFF200005F026F973BD1749EC
:1049C000200009F01DFFF6E7DC0200207002002045
:1049D000010001002A4801003D48010005000020B7
:1049E00042480100D40A002046480100D00A0020B5
:1049F0004B480100D409002046510100E605002083
:104A00000000A041F5650100DF0200204F480100D1
:104A1000F802002055480100000300205948010019
:104A2000002310B50004014309489A0012588A4235
:104A30000CD00133082BF8D1064A13789C00215082
:104A40000721002001330B40137010BD0120FCE74B
:104A5000500200204C020020F0B585B001930AAB53
:104A600020CB04001F780CAB1B78204802910393E5
:104A700016000EF0F1FAC3B29C46C4232370C33B68
:104A80006370391E01D080214942029B667119432F
:104A9000039B36125A1E93419B010B43A370144B88
:104AA000A6711B88C6B2E3701B12237120006346F7
:104AB0003200E3710D4908300DF0D5FC019B002B4D
:104AC00008D0002D06D03000083020182A00190028
:104AD0000DF0C9FC280008308019002F03D0010018
:104AE0002000FFF7BDFE05B0F0BDC0460500002068
:104AF000C609002070B530C80E00A5420AD92100B1
:104B00003068FFF743FC002805D023780134002BE0
:104B1000FBD1F2E70024200070BD73B505688668FC
:104B20006C6801A928000194FFF7E4FF002802D176
:104B30002000A6196E6076BDF0B5002787B0009002
:104B40000C0002910392B9422ED0059005A91000E5
:104B50001600FFF7CFFF0500B8421CD100980EF0F9
:104B60007BFA030075680133B268EB180190934239
:104B700007D9012333747F22237A002793432372BA
:104B800012E07360002DF6D0019A009928000DF014
:104B90006AFC019BEF547F22237A012793431A007A
:104BA0000523134323722560380007B0F0BD0100D0
:104BB000802210B5203192000400FFF710FC002382
:104BC0002000237710BD1FB5040001A809F0C1FF24
:104BD00001A9200009F0BDFF01A809F04FFF200046
:104BE00004B010BDF0B589B00C1E0291039212D032
:104BF000010005A8170009F0ACFF059B0093079B77
:104C00000193009B002B08D17F22237A93432372C8
:104C100005A809F033FF09B0F0BD3D687E68AE42DB
:104C200012D9009BAB4224D0002D06D0019A290056
:104C300018000EF018FA00281BD02B001A78013348
:104C40001D00002AFAD1EAE7019BBA680133F31884
:104C5000934202D901233B74D6E77B60002ED3D068
:104C6000019A009930000DF0FEFB00233500019AF7
:104C7000B3547F22237A256093431A0003231343FE
:104C80002372079B6360C3E770B505000C00160034
:104C9000081E0FD02868FFF792FB00280AD13100C8
:104CA0002800FFF7A6FB002804D07F22037AC46007
:104CB0001340037270BD70B50300007A7F250400B5
:104CC0002C4005D1A8435F3D284318721C605C60EE
:104CD00020201C7A0440201E02D01800FFF7D4FFC9
:104CE00070BD70B50D0004002800110014302A00BA
:104CF000FFF7E1FF002809D07F22037A93431A00CF
:104D00002023134303720023036043602060656027
:104D1000200070BD10B5002801D0FFF7B5FF10BD11
:104D200010B50200037A20200340181E02D010683C
:104D3000FFF745FB10BD437E002B06D143695A1C8B
:104D400042611B78037601234376007E704710B5DD
:104D500004002000FFF7EFFF0A2806D8092808D230
:104D6000002809D0012020740CE00D2801D0202853
:104D7000F8D100236376ECE7237C60345A1E93411C
:104D80000133237010BD1FB57F220300007A10404D
:104D9000043808282ED80AF02DFB0F0F052D082DFA
:104DA0000D2D1A00187804B010BD1868C343DB1726
:104DB0001840F8E71868F6E71868002301AC23727A
:104DC0002100FFF73DFB2000FFF7DDFFEBE7CF21E0
:104DD0001C680906201C0AF0FBFC0028E3D09E2179
:104DE000201CC9050AF0E0FC0028DCD0201C0BF0D8
:104DF00097FBD8E70020D6E770B504000D00FFF759
:104E00009AFF0023A84201D163760133180070BDD8
:104E10002F2815D90123392803D95E2803D97A28E8
:104E200003D81800704740280AD901235A28F8D916
:104E3000002301222D38C0B282425B41DBB2F0E791
:104E400001232B28F4D1ECE737B500236A460C0088
:104E50001370C3B27F2809D85370951C013D29787F
:104E600000292ED02000FFF7D5FBF7E73F21802255
:104E70006D460B405242134380096B7085B2C3B23A
:104E80001F2D05D8403213436A469370D51CE5E7C1
:104E90006D460B4000041343800DAB70C3B20F2866
:104EA00005DC202252421343EB7001ADD6E71940D6
:104EB000102380115B420A431843EA7028710535BC
:104EC000CCE737BDF7B505000027FFF734FF6F7655
:104ED00001902800FFF72FFF0024019B01006C7652
:104EE000834258D0A04204D10223603500202B70A9
:104EF000FEBD5C284BD12800FFF71DFF0028F3D032
:104F00002B4B752839D104266C762800FFF713FF48
:104F10000028E9D0402806D83038C0B20F2806D97A
:104F200060350323E2E7202398433738F5E7002371
:104F30002401013E0443F6B2A4B26B769E42E4D152
:104F4000A0239B01E3181B4A9BB2934202D8A405FD
:104F5000A70DBEE790239B01E3189BB2200093426C
:104F600006D880238005BC02800D20435B02C01858
:104F70002900FFF769FFACE702331A78002ACFD087
:104F80009042F9D159780029CAD000236B762800C5
:104F9000FFF740FB9DE728002100FFF73BFB6B6814
:104FA0000120002BA4D1042260352A7018009FE74D
:104FB000E8500100FF030000026870B55368040068
:104FC0004360936852689B1AC36000238360FFF7B5
:104FD000B2FE27280DD022280BD02000FFF7ABFE11
:104FE0000600FFF715FF051E09D103236034237067
:104FF00003E02000FFF766FF0500280070BD0023D6
:10500000310063762000FFF705FB2000FFF793FED9
:105010000600FFF7FDFE011EF1D12000FFF7FAFAAE
:105020006368002BE9D10422603422701D00E4E79C
:10503000F7B504000D001F1CFFF789FE0190002842
:1050400001D1002658E02000FFF775FE272800D187
:105050007BE01DD8222800D177E02000FFF76BFE0F
:10506000002600900098F7B2FFF7D2FE002800D18A
:1050700087E00136402E00D182E06A460023127894
:105080006376A319DA772000FFF755FE0090E9E771
:105090005B2813D07B28E0D17F222B7A2900934311
:1050A0001A00202313432B72002300222B606B6015
:1050B00020003B1C00F092F806001DE07F222B7AB6
:1050C000FFB293431A00402313432B7200232B603B
:1050D0006B609F4203D1603405332370B1E7637680
:1050E0002000FFF734FE0028ABD05D212000FFF741
:1050F00083FE061E02D0019E3000FEBDE16928003D
:10510000FFF777F9011E03D1042360342370F3E71E
:105110007B1E00222000FFF78BFF002800D190E7C4
:105120002000FFF714FE002800D18AE75D2120004F
:10513000FFF762FE0028DED12C212000FFF75CFE85
:105140000028DBD160340323C7E7226820005368BE
:105150006360936852689B1AE3600023A360FFF7C3
:10516000B1FE061E00D16CE72000FFF7D6FC7F22BF
:105170002B7A286093431A00052313432B72BBE755
:105180003F270021E3190133D977631CDB7F742BA0
:105190000DD17F222B7A93431A00062313432B72DF
:1051A00001232B70042FA6D06034022395E7662BD1
:1051B0000AD17F222B7A297093431A0006231343C6
:1051C0002B72052FF0D196E76E2BEBD02000290033
:1051D0002030FFF735F90028B4D08CE7F7B5DFB2FF
:1051E00004000E00002F04D1052360342370002535
:1051F0000DE000234376FFF7AAFD00900028F6D0CB
:105200007D212000FFF7F8FD051E26D0009D280017
:10521000FEBD61683068FFF7D2F8002831D0010088
:105220007B1E00222000FFF703FF0028DFD02000B4
:10523000FFF78DFD0028DAD07D212000FFF7DCFD8F
:105240000028E3D12C212000FFF7D6FD002814D040
:105250002000FFF77CFD0028C9D02000FFF7ACFE3E
:105260000028C4D02000FFF772FD0028BFD03A21EB
:105270002000FFF7C1FD0028CBD103236034237049
:10528000C5E72000FFF749FCE16901903000FFF716
:10529000B0F8002802D160340423F0E78022037ABA
:1052A000524213430372019BC360B8E710B5040078
:1052B000006803685B68984763681818606010BDF1
:1052C00070B5050008000C000DF0C6FE21000200BC
:1052D0002800FFF7EBFF70BDF0B5162407000D00A6
:1052E0000A2687B06C44280031000AF013F9013C0B
:1052F00030312170280031000AF086F8051EF2D105
:1053000016236B441A1B21003800FFF7CFFF07B0AC
:10531000F0BD10B50400006803681B689847636817
:105320001818606010BD000070B50D000400222147
:105330002000FFF7EEFF2978002909D00A4B01353C
:105340001E78002EF4D05A788A4206D00233F7E74E
:1053500022212000FFF7DDFF70BD5C212000FFF758
:10536000D8FF3100E4E7C046EA5001007F22F0B5E3
:10537000037A8BB005000C001340062B00D18FE19F
:1053800006D8022B0DD3032B00D975E106CD49E1D8
:105390000C2B24D007D8082B00D17FE10A2B00D199
:1053A0006FE1C44981E1202B00D146E1402BF8D1C7
:1053B0005B212000FFF7ADFF2D68002D00D135E106
:1053C00021002800FFF7D2FF2800FEF7F0FF051E9E
:1053D00000D12BE12C212000FFF79BFFEDE70668B1
:1053E000311C301C0AF0D0F90028DAD00021301C22
:1053F0000AF0CAF9002809D1311C301C0AF028FA39
:10540000011C301C0AF0C0F90028CAD10021301C50
:105410000AF0C0F9002806D02D212000FFF779FFFF
:1054200080231B06F618A449301C0AF0D1F9002885
:1054300044D00023142520270093A04B301C595939
:105440000AF0C6F9002809D09D4B301C59590AF0C2
:1054500071FD009B061CF81803B20093043D7F10F9
:105460002B1DEAD103350021301C0AF0A7F90028D2
:1054700028D0301C0CF09CFE924A934B0AF05AF94B
:1054800000281FD0AB0001932B061BD48F4B019A31
:10549000311C98580AF092F900280AD0874B019ADB
:1054A000301C99580AF046FD009B061CD81B03B21D
:1054B0000093019B7F10013D043BE4E72027052575
:1054C0000090D0E7301C0AF08DF906230700804DCC
:1054D000029003936B461B7B5BB20193039B013BE2
:1054E000DBB20393029B092B0AD90A21280009F099
:1054F0008BFF0A210500029809F086FF0290E9E778
:1055000038000BF077F8011C301C0AF045FE061C31
:1055100028000BF06FF8011C301C0AF00BFD029004
:105520000AF060F906000BF065F8011C02980AF019
:1055300033FE011C0AF08CF90AF054F98619B542C1
:105540000BD80026009B0137B34206D0092F04D99F
:1055500018000127013003B200930A25290030000A
:1055600009F0D8FF00290CD1019B002B09DD300088
:10557000290009F049FF019B0600013B5BB2019342
:10558000ECE739002000FFF7A7FE019B002B20D09D
:105590001D0008AF013D6DB2013F6B1C0BD0300008
:1055A0000A2109F0B7FF3031397030000A2109F0C3
:1055B0002BFF0600EEE76B461B791025D9432E2200
:1055C0004B1904A8C25408AB4A4220005918FFF7EF
:1055D0006DFE009B002B2DD065212000FFF799FE6A
:1055E0006B461D88009B002B05DA2D212000FFF75C
:1055F00090FE6D42ADB216260A2704ABF6182800BD
:10560000390009F087FF013E303131702800390040
:1056100009F0FAFE85B2002DF1D11623310004AA5B
:105620009B189A1B2000FFF741FE03E05D2120003C
:10563000FFF76FFE60680BB0F0BD7B212000FFF725
:1056400068FE2D68002D15D0E9682000FFF76CFE7C
:105650003A212000FFF75DFE21002800FFF786FEBB
:105660002800FEF7A4FE051E04D02C212000FFF721
:1056700050FEE7E77D21DAE701682000FFF754FEDE
:10568000D8E70568002D04DA2D212000FFF741FE40
:105690006D4229002000FFF71FFECBE70168F9E704
:1056A00003780C49002B00D10B492000FFF708FEBE
:1056B000C0E7C046F95001008096184B84470100AE
:1056C0006C470100F168E388B5F8E43E54470100F7
:1056D00040420F00FE5001000351010010B514308C
:1056E000FFF744FE10BD000030B5B5B004ACA022F9
:1056F0000CA92000FEF773FE00232200254909A80B
:105700002377FFF7D8FA01002348FEF71BFE22009B
:10571000224909A8FFF7CFFA01002148FEF712FE3F
:105720002200204909A8FFF7C6FA002808D07F22E6
:10573000037A93431A000C23134303721A4B03603A
:1057400022001A4909A8FFF7B6FA220001000090CA
:1057500017480194FFF7F0F92200164909A8FFF74E
:10576000AAFA002808D07F22037A93431A0006235E
:10577000134303720123037000230F4D02A920007D
:1057800003930295FFF7AAFF280009F031F835B01E
:1057900030BDC046F4510100114901001749010014
:1057A0001A4901001E490100CDCC6644C9470100D9
:1057B00005000020234901001412002070B50026C6
:1057C000AAB002AC05000AA980222000FEF707FE5D
:1057D00022000F4907A82677FFF76DFA01000D4850
:1057E000FEF7B0FD22000C4907A8FFF764FA01009C
:1057F0002800FEF7A7FD094D694620000095019697
:10580000FFF76CFF280008F0F3FF2AB070BDC04618
:10581000F45101009448010098480100141200203E
:1058200070B59AB002AC060040220D0020000AA913
:10583000FEF7D5FD00232200124907A82377FFF7C2
:105840003AFA01003000FEF77DFD22000E4907A85C
:10585000FFF731FA002807D07F22037A05609343CF
:105860001A000A23134303720023084D69462000DF
:1058700001930095FFF732FF280008F0B9FF1AB036
:1058800070BDC046F4510100F864010014120020FC
:1058900070B5F54CA54416AC2000FFF788F922003E
:1058A000F2491BA8FFF707FA0100F148FEF74AFD8D
:1058B000F04D2200F0491BA82E78FFF7FCF90028D4
:1058C00009D07F22037A93431A00062313430372FD
:1058D000731E9E4106702200E8491BA8FFF7EBF9F2
:1058E00001002878FEF73CFD2200E5491BA8FFF7E0
:1058F000E2F9E44B01001878FEF732FD2B78002B1B
:1059000000D1EFE0E04B072518680CF0E5FB002222
:10591000DE4B0BF0CBF900950B0002000AA809F052
:105920004BF90AA90DA8FFF74EF92200D8491BA888
:10593000FFF7C1F90DA9089010A8099409F009F919
:10594000099A089910A8FFF74DF910A809F096F8E0
:105950000DA809F093F80AA809F090F8CD4B186843
:105960000CF0BAFB0022C94B0BF0A0F900950B001C
:1059700002000AA809F020F90AA90DA8FFF723F9E7
:105980002200C5491BA8FFF796F90DA9089010A899
:10599000099409F0DEF80899099A10A8FFF722F98E
:1059A00010A809F06BF80DA809F068F80AA809F02A
:1059B00065F82200B9491BA8FFF77DF9B84B010033
:1059C0000020185EFEF7D7FCB64B18680AF0C8FD39
:1059D000B5490AF0AFFA0122011C0AA809F0CEF875
:1059E0000AA90DA8FFF7EFF82200B0491BA8FFF79E
:1059F00062F90DA9089010A8099409F0AAF808996D
:105A0000099A10A8FFF7EEF810A809F037F80DA8CA
:105A100009F034F80AA809F031F82200A4491BA8BB
:105A2000FFF749F9002809D07F22A24B1988037A91
:105A3000016093431A000823134303729E4B1868B6
:105A40000AF0D8FD9D490AF09DF80122011C0AA820
:105A500009F094F80AA90DA8FFF7B5F816AA984915
:105A60001BA8FFF728F916AB08900DA910A80993F9
:105A700009F06FF8099A089910A8FFF7B3F810A871
:105A800008F0FCFF0DA808F0F9FF0AA808F0F6FFDF
:105A90008C4B18880AF064FD8B490AF04BFA0122FE
:105AA000011C0AA809F06AF80AA90DA8FFF78BF8EB
:105AB00016AA86491BA8FFF7FEF816AB08900DA999
:105AC00010A8099309F045F80899099A10A8FFF75A
:105AD00089F810A808F0D2FF0DA808F0CFFF0AA897
:105AE00008F0CCFF7A4B16AC1B78002B21D0794AFA
:105AF000794B12781B880492784A1821127810A8E2
:105B00000392774A12780292764A12780192764A84
:105B100012780092754A0DF043FA220074491BA8CE
:105B2000FFF7C9F822000100089010A80994FFF7B8
:105B300003F8704B18780AF013FD6F490AF022F849
:105B40000222011C0AA809F019F80AA90DA8FFF7FA
:105B50003AF8220069491BA8FFF7ADF80DA9069095
:105B600010A8079408F0F5FF0699079A10A8FFF708
:105B700039F810A808F082FF0DA808F07FFF0AA8E6
:105B800008F07CFF09F08EF8220006005C491BA893
:105B9000FFF791F8051E0CD07F22037AFA21934378
:105BA0001A000823134303728900300009F02CFC0B
:105BB0002860544802F040F80122011C0AA808F0AD
:105BC000DDFF0AA90DA8FEF7FEFF22004E491BA823
:105BD000FFF771F80DA9069010A8079408F0B9FF17
:105BE0000699079A10A8FEF7FDFF10A808F046FFD7
:105BF0000DA808F043FF0AA808F040FF220043491F
:105C00001BA8FFF758F8002809D07F22404B1B68DB
:105C10000360037A93431A0008231343037222009C
:105C20003C491BA8FFF747F8002809D07F223A4BD0
:105C30001B680360037A93431A000823134303721B
:105C4000364B1968002972D06420354B1B68CB1A7B
:105C5000584309F0D9FB3349C5B222001BA8FFF70E
:105C60002AF8010060E0C04688FDFFFFF451010002
:105C70009C480100D4090020A0480100A44801006C
:105C8000A948010013060020C8090020D012634172
:105C9000B1480100CC090020B5480100B948010015
:105CA000E4050020D8090020FAED6B3BBD48010057
:105CB000C348010010060020C009002000007A44FB
:105CC000CA480100D20900200AD7233CCF4801006E
:105CD000DC090020D5090020DE090020D0090020C1
:105CE000C409002012060020D1090020D448010078
:105CF000F3480100E60500200000A041F74801003C
:105D0000FC48010088040020FF480100054901000B
:105D1000D40A002008490100D00A002048020020CF
:105D2000440200200B4901002800FEF719FB002364
:105D3000064D10A9200011931095FFF7CFFC280005
:105D400008F056FD9E239B009D4470BD1412002058
:105D50001FB5282009F02EF8022304000093032227
:105D60000733082101F088F921000D4801F01CFAE1
:105D70000C4B0D4C02930D4B4022019301235B42CF
:105D8000009380210A4B200003F052FB094A0A4984
:105D9000200009F027FB094804F0EAFB1FBDC046BC
:105DA00088040020A086010070020020801A0600EE
:105DB000040B002000000020959400001406002031
:105DC0000023F7B50F000524154E01903370154DD3
:105DD000280001F091FF0F300AD0C821322049007D
:105DE000013C08F040FCE4B208F092FF002CEED138
:105DF00000233A000199280002F02CFB00220A4BF4
:105E000004000A4928001A7002F01AF801233370BE
:105E1000002C03D1064A1368013313602000FEBD35
:105E20000400002088040020CC0A0020FFFFFF00AF
:105E3000D40A002030B50500BDB00C001E2078212A
:105E400008F011FC08F064FF0D4905AB0A881D70CD
:105E5000013292B20A8000219C702D1224125D70D2
:105E6000DC70029101910431009106A80239FEF71D
:105E7000F3FD010006A8FFF7A3FF3DB030BDC0460B
:105E8000D80A0020F0B5A94C0700A544A0AC20001A
:105E9000FEF78DFE002F00D1A54F0025A09B42AE3E
:105EA0006360E3681022A36004A92574257708A81D
:105EB00004940CF0D8FA102208A930000CF0D3FAA0
:105EC00035744797B4276B467F00DB197576F4610C
:105ED00000221D70A5A90A233000FFF7A9F86B4620
:105EE000DB191B78AB4207D1337EAB4200D112E104
:105EF000237F1B0700D40EE18E48FFF75FFC07E00D
:105F00008D4928000DF09EF8002804D1FFF7ECFB26
:105F10008A4B9D44F0BD8A4928000DF093F8002873
:105F200011D18849A5A8FEF7FBFEFEF77EFA0028EE
:105F300002D00378002B01D18348DEE7FFF7D4FBC2
:105F4000FEF7C4FCE4E7814928000DF07BF8071E4A
:105F500010D17C49A5A8FEF7E3FEFEF766FA011E04
:105F60007B48CAD07B4C2822200028340DF08CF8C6
:105F70002770CDE7784928000DF064F8041E3DD164
:105F8000744F38000DF068F8051E32D00100602310
:105F90000CAA3800FEF70AF900282DDD85422BDD1A
:105FA00005000CAB01346D4930000A88013292B211
:105FB0000A800121029401910095FEF74DFD010038
:105FC0003000FFF7FDFE002802D06548FFF7F6FB22
:105FD0000122644B1A7008F065FEFA2104004901A1
:105FE000002008F040FB604BE418604B201818605C
:105FF000A6E73B000400D6E73B00D4E75C49280055
:106000000DF020F8002800D083E05A49A5A8FEF73B
:1060100087FEFEF70AFA584C05002100A5A8FEF7F6
:106020007FFE002806D07F22037A1340082B0AD077
:106030000A2B0BD001246442002D02D02B78002BB8
:106040000FD14E4859E70368002BF3DB2100A5A8C8
:10605000FEF766FE002801D10400EDE7FEF793FE8F
:10606000FAE728000CF0F8FF07004548B42F00D9E4
:1060700043E7444B1B78002B02D00023414A1370A6
:10608000BC2332005B0039002800FEF78FF800289F
:106090003ADD874238DD012335003B4A2F4E116837
:1060A000CF193A4917600A6812180A60328800212D
:1060B000013292B2328002930123009001930CA826
:1060C0002B00FEF7C9FC010005000CA8FFF778FEC5
:1060D000071E1CD121002E48FFF7A2FB0123294AED
:1060E0000CA9137032882B4B2B481A802B4B2A009B
:1060F0001C600CF0B8F92A4B1D6008F0D3FD294B49
:106100001860294B1F701BE738000023C5E71448AF
:10611000F3E62648F1E62649A5A8FEF701FEFEF7BC
:1061200084F9051E00D0EBE62248E6E65CFBFFFFA3
:1061300047550100A9470100BC470100A404000025
:10614000C947010008530100C1470100D6470100BB
:10615000CE470100E7050020DD470100D80A0020F6
:10616000E2470100DE02002060EA0000E0090020B2
:1061700005490100F8470100F8640100F2470100F9
:10618000FD470100E40900204802002044020020ED
:106190000B480100C40A0020E50900201800002077
:1061A000C00A0020C80A0020C60A002010480100CA
:1061B000F4510100B247010070B50F4C2378002B59
:1061C00015D008F06FFD0D4D2B68C01A0C4B98428E
:1061D0000DD90C4B1A78002A0AD101321A7008F036
:1061E00061FD094B286019680848FFF7E9FD70BD9B
:1061F00000232370FBE7C046E4090020C80A002002
:10620000C3090000C60A0020C00A0020E5090020DA
:1062100010B500241A4BBCB01B68A34205DD092051
:106220001849584309F07AF90400FA21164B8900FD
:10623000186809F0E9F805ABFF2C00DDFF24134ACC
:106240001C70128852085A70FF2800D9FF20104A8B
:10625000104912789870DA700A8806A8013292B252
:106260000A8000210291013101910331009101392D
:10627000FEF7F2FB010006A8FFF7A2FD3CB010BD3F
:10628000D8090020C4090000C00900201006002021
:1062900013060020D80A00200023F0B5624D634C9D
:1062A000634F644AA544012128003B70137001F03C
:1062B000B5FC8023060004905B00984200D904934B
:1062C0005EAC049A2100280001F0DCFC0390280059
:1062D00002F0FAFA0790280002F00CFB56490890E9
:1062E000280001F0ADFD01233B70039B002B00D083
:1062F00094E0072E00D891E02378C42B00D08DE0E5
:106300006378012B00D089E02779E3783F021F43AF
:106310004A4B1B880B93BB4200D17FE0E579102DDF
:106320007CD82E00049B08369E4277D8A37828227A
:106330000A936B469B181B785BB20593002B04DA1B
:106340002B00049A1433934268D84E220CABFF32D0
:106350009B181B7801320C930CAB9B181B782BAC51
:106360002A0060A920000D930CF07DF85EAA961912
:1063700008220023059952426355551B1432994255
:1063800000DB1A000E24049910936D18AA1A0392C8
:106390000CAAA41811932380059B002B41DAFFAAB5
:1063A0009C3294460B0063441D00254B0422ED18DB
:1063B000290010A80CF057F8291D042211A80CF090
:1063C00052F829000222083120000CF04CF8AB7A78
:1063D0000493EB7A3F2509930A9B2B400693022BEB
:1063E0003AD1039B032B19D916490B78002B15D0F2
:1063F00072783378120213430B9A9A420ED11248E4
:10640000F278B378008812021343984206D1002331
:106410000B700E4B0E481968FFF702FA0D4B9D44A6
:10642000F0BD00230493D5E78804002064FBFFFF40
:1064300004000020CC0A0020FFFFFF00C609002056
:10644000D4FCFFFFE4090020C40A0020180000204B
:106450006E4801009C04000040230A9A38001A404C
:106460000D9B0A921C020C9B1C432100FEF7D8FADC
:10647000069B0500002B00D076E121003800FFF7D5
:10648000D9FC002DCAD10A9B30AC002B00D135E1DC
:10649000B423220003993000FDF73CFEB428BDD898
:1064A00025549EA8FEF783FB9EAA9B49A3A8FEF74E
:1064B00002FC01009948FDF745FF9EAA9849A3A850
:1064C000FEF7F9FB9EAA01002BA8FEF735FB9EAA5A
:1064D0009449A3A8FEF7EFFB9EAA010030A8FEF79F
:1064E0002BFB0122079922A808F048FB22A925A826
:1064F000FEF769FB9EAA8C49A3A8FEF7DCFB9EABC6
:10650000209025A928A8219308F023FB2099219AFF
:1065100028A8FEF767FB28A808F0B0FA25A808F01D
:10652000ADFA22A808F0AAFA0122089922A808F0D8
:1065300025FB22A925A8FEF746FB9EAA7B49A3A816
:10654000FEF7B9FB9EAB209025A928A8219308F05F
:1065500000FB2099219A28A8FEF744FB28A808F000
:106560008DFA25A808F08AFA22A808F087FA059B78
:10657000002B00DB9CE06E4A9EA912A8FEF7B1FB3F
:10658000129D139C6B4922002800FEF7C3FB0100FB
:106590000498FDF7E5FE049B002B61D010980BF0EA
:1065A0009BFD0022644B0AF081FB07260B000200D2
:1065B000009622A808F000FB22A925A8FEF703FBFD
:1065C00022005E492800FEF7A5FB25A9209028A8F7
:1065D000219408F0BEFA219A209928A8FEF702FB20
:1065E00028A808F04BFA25A808F048FA22A808F0D5
:1065F00045FA11980BF070FD00224F4B0AF056FB44
:1066000000960B00020022A808F0D6FA22A925A8BD
:10661000FEF7D9FA22004A492800FEF77BFB25A99C
:10662000209028A8219408F094FA2099219A28A86B
:10663000FEF7D8FA28A808F021FA25A808F01EFAD3
:1066400022A808F01BFA22003E492800FEF762FB50
:106650000E230CAA9B1801000020185EFDF78BFE8C
:10666000099809F07DFF384909F08CFA0222011CD3
:1066700022A808F083FA22A925A8FEF7A4FA22008E
:1066800032492800FEF746FB25A9209028A821942E
:1066900008F05FFA2099219A28A8FEF7A3FA28A803
:1066A00008F0ECF925A808F0E9F922A808F0E6F9C5
:1066B0000024274D28A99EA828952994FFF70EF8B5
:1066C000280008F095F8234A234D13682BA90133BD
:1066D0001360280010220CF0D7FC2C741F4D1522DB
:1066E00030A928000CF0D0FC6C75079A1C4B1A607E
:1066F0001C4B089A1A60FEF7E9F88FE6039DB42D4B
:1067000000D9B4252A00310020000BF0ACFE002295
:1067100030AB5A55C5E6C046F451010008490100A6
:1067200072480100F8470100774801007C480100E9
:1067300080480100A4480100D0126341B148010023
:10674000B5480100B94801000000A041F748010028
:1067500014120020D00A0020DF02002000030020D5
:10676000F8020020FC020020069B012B00D06FE104
:10677000002800D052E6A0229EAC5200A6A920001C
:10678000FDF72DFE2200A0492577A3A8FEF793FA76
:1067900001009E48FDF7D6FD22009D49A3A8FEF703
:1067A0008AFA220001002BA8FEF7C6F9069A07997B
:1067B00025A808F0E3F925A928A8FEF704FA220085
:1067C0009449A3A8FEF777FA30AF229028A93800A1
:1067D000239408F0BEF92299239A3800FEF702FAB2
:1067E000380008F04BF928A808F048F925A808F067
:1067F00045F9069A089925A808F0C0F925A928A8FE
:10680000FEF7E1F922008449A3A8FEF754FA28A96B
:1068100022903800239408F09CF92299239A38009A
:10682000FEF7E0F9380008F029F928A808F026F961
:1068300025A808F023F9039B002B17D00A9B002BF7
:1068400000D1CCE028233A0003993000FDF762FC28
:10685000431E272B0AD83D5422007049A3A8FEF7F7
:106860002AFA220001003800FEF766F9059B002B8A
:1068700000DB9CE06A4A9EA914A8FEF732FA149D38
:10688000159C684922002800FEF744FA010004988C
:10689000FDF766FD049B002B61D010980BF01CFCEB
:1068A0000022614B0AF002FA07260B000200009654
:1068B00022A808F081F922A925A8FEF784F9220070
:1068C0005A492800FEF726FA25A91A9028A81B94F1
:1068D00008F03FF91B9A1A9928A8FEF783F928A80F
:1068E00008F0CCF825A808F0C9F822A808F0C6F8E6
:1068F00011980BF0F1FB00224B4B0AF0D7F90096F0
:106900000B00020022A808F057F922A925A8FEF7DB
:106910005AF9220046492800FEF7FCF925A91A90E9
:1069200028A81B9408F015F91A991B9A28A8FEF7B5
:1069300059F928A808F0A2F825A808F09FF822A87D
:1069400008F09CF822003B492800FEF7E3F90E23EB
:106950000CAA9B1801000020185EFDF70CFD099899
:1069600009F0FEFD344909F00DF90222011C22A8AC
:1069700008F004F922A925A8FEF725F922002F49DD
:106980002800FEF7C7F925A91A9028A81B9408F03B
:10699000E0F81A991B9A28A8FEF724F928A808F00D
:1069A0006DF825A808F06AF822A808F067F8002515
:1069B000234C28A99EA828942995FEF78FFE200035
:1069C00007F016FF1F4C2BA9102220000CF05CFBD7
:1069D00015221D491D4825740CF056FB85E6039DC4
:1069E000282D00D928252A00310038000BF03BFD66
:1069F000002230AB5A5509499EAAA3A8FEF75BF9BD
:106A00009EAA01002FE7C046F4510100DD470100B6
:106A100072480100774801007C480100D647010018
:106A200080480100A4480100D0126341B148010030
:106A3000B5480100B94801000000A041F748010035
:106A400014120020DF02002084480100000300200F
:106A5000069B032B00D0E1E4002800D0DEE4059B78
:106A6000002B00DBDAE4C0229EAC5200A6A9200075
:106A7000FDF7B5FC220025779B49A3A8FEF71BF97B
:106A800001009A48FDF75EFC22009949A3A8FEF791
:106A900012F92200010022902BA82394FEF74CF853
:106AA0000122079925A808F069F825A928A8FEF76A
:106AB0008AF822008F49A3A8FEF7FDF828A92090A4
:106AC00030A8219408F045F82099219A30A8FEF7C3
:106AD00089F830A807F0D2FF28A807F0CFFF25A833
:106AE00007F0CCFF0122089925A808F047F825A94E
:106AF00028A8FEF768F822007F49A3A8FEF7DBF874
:106B000028A9209030A8219408F023F82099219AF0
:106B100030A8FEF767F830A807F0B0FF28A807F004
:106B2000ADFF25A807F0AAFF2100744A16A8FEF7BA
:106B3000D8F8169D179C724922002800FEF7EAF843
:106B400001000498FDF70CFC049B002B61D0109809
:106B50000BF0C2FA00226B4B0AF0A8F807270B00D3
:106B60000200009725A808F027F825A928A8FEF715
:106B70002AF8220064492800FEF7CCF828A92090C2
:106B800030A8219407F0E5FF219A209930A8FEF75C
:106B900029F830A807F072FF28A807F06FFF25A892
:106BA00007F06CFF11980BF097FA0022554B0AF092
:106BB0007DF800970B00020025A807F0FDFF25A92E
:106BC00028A8FEF700F8220050492800FEF7A2F896
:106BD00028A9209030A8219407F0BBFF2099219A82
:106BE00030A8FDF7FFFF30A807F048FF28A807F0FE
:106BF00045FF25A807F042FF220045492800FEF77F
:106C000089F80E230CAA9B1801000020185EFDF7DE
:106C1000B2FB099809F0A4FC3E4908F0B3FF022238
:106C2000011C25A807F0AAFF25A928A8FDF7CBFF7E
:106C3000220039492800FEF76DF828A9209030A8D5
:106C4000219407F086FF2099219A30A8FDF7CAFF0A
:106C500030A807F013FF28A807F010FF25A807F0B9
:106C60000DFF039B032B32D92C4A9EA928A8FEF7BF
:106C700038F8289C299D2A492A002000FEF74AF866
:106C800001003078FDF76CFB77782A002549200059
:106C90007F00FEF73FF8002807D07F22037A0760C5
:106CA00093431A000A23134303722A001E4920004B
:106CB000FEF730F80100B078FDF752FB1B492A00BF
:106CC0002000FEF727F80100F078FDF749FB0023CC
:106CD000174C30A99EA830943193FEF7FFFC20009A
:106CE00007F086FDFFF79AFBF45101008D48010083
:106CF00072480100774801007C480100804801008B
:106D0000A4480100D0126341B1480100B548010018
:106D1000B94801000000A041F7480100F94701000F
:106D2000BD480100C3480100CA480100A94801004C
:106D300014120020F8B5B32501246D00174E300061
:106D400006F0D8F8002828D0300006F00FF9C0B2BD
:106D5000134E0A2801D00D2814D1124F32683B7807
:106D6000002A09D0002B09D10F488354FFF78AF875
:106D7000002333603B70E1E7002BF9D00B48FEF7AE
:106D80001DFDF5E73368AB4204D85A1C3260064A51
:106D9000D054D3E7034B1C70D0E7F8BD1412002089
:106DA0008004002084040020160300201C480100F9
:106DB0001C4B70B51B78002B01D0FFF76DFAFFF765
:106DC000B9FFFFF7F9F907F06DFF174A1749136884
:106DD0000400C31A8B4202D91060FDF761FC144A0B
:106DE00014491368E31A8B4204D91460FEF750FD6E
:106DF000FDF76CFD104B1B78002B11D00F4B187852
:106E000000280DD10E4D2B68A34209D8FA21490163
:106E100007F029FC0B4BE41820182860FFF7F8F95D
:106E200070BDC046CC0A0020F0020020CF07000051
:106E3000F402002087130000DE020020E409002095
:106E4000E009002060EA0000E12170B5490286B047
:106E50006F4805F04DFF182008F018F905001A20BA
:106E600008F014F9040007F023FFA4026840604012
:106E700007F0E8FB6749012007F0F5FB0125664BA9
:106E8000012118800C2008F06FF900210C2008F077
:106E9000B7F9642007F03CFF604E300002F084F840
:106EA0005F49300002F0A0F85E4C00952B003C22B8
:106EB0000221200002F0E6FB002813D05A4B2000EC
:106EC0001D7002F0CDFB2900200003F046FB0023DB
:106ED0002361564B56496361200007F091FC200066
:106EE00002F092FE534C42223100200005F0B6F829
:106EF000002816D00125504B504A002120001D705B
:106F000005F011F94D4A0021200005F013F9FA228D
:106F10002900200005F000F9484A0221200005F070
:106F200011F900230593464B082504930A231226E2
:106F3000444C0293033B0093039501960233424A6B
:106F40004249200000F0C6F9002808D0FA24E400E5
:106F50003F48FEF733FC200007F0DAFEF8E7012295
:106F60003C49200000F02AF90028EFD136492000E2
:106F700000F07AFF0028E9D12900200000F0F6FF98
:106F80000028E3D10521200001F010F80028DDD110
:106F900044223100200001F02AF80028D6D12E49E1
:106FA000200000F037FB0028D0D11021200000F095
:106FB0005FF90028CAD12900200001F035F8002827
:106FC000C4D10121254B0091254A200001F0EAF8A7
:106FD0000028BBD12000234900F014FA22492000E8
:106FE00000F02EFFFDF75CFBFEF77EFBFEF750FC8A
:106FF000FDF76CFCFFF70CF901221C4B1A7007F02F
:1070000051FE1B4BC0181B4B186006B070BDC0462C
:1070100014120020FFFF0000C6090020040B00200E
:10702000801A060070020020DC020020010001002E
:107030000951010014060020DD0200204C0400006C
:10704000CDCCCC3F880400200000FA420000D94398
:107050001E510100CDCC664400000C4321100000FD
:107060000F1D0000FD400000FFFFFF00DE020020BA
:1070700010270000E0090020F7B51D0008AB1B78C1
:1070800004000F00160000210322083001930BF0CA
:1070900006FA802222736A46104912796161012141
:1070A00000236274FF226018E372A773E6732574ED
:1070B000A27423766176C377A01CC277E01CC277E6
:1070C00023609623064A9B0162626360054A064B71
:1070D0002000E26161732381FEBDC04680841E00F2
:1070E000983A0000DC0A00200D0A000010B5FF28C5
:1070F00001D008F039F810BD10B5FF2801D008F014
:107100007FF810BD10B50400002902D0012910D06D
:1071100010BD807B0121FFF7E9FFA07B0121FFF774
:10712000EBFF637B002BF3D0E0690368DB6A9847D1
:10713000EEE7437B002BEBD0006861680368DB69F6
:107140009847E5E710B50023FF2802D008F084F83F
:107150000300180010BD10B507F0BEF910BD10B542
:1071600007F003FE10BD10B507F0D2FD10BD10B53D
:1071700007F0F0FD10BD10B507F094FD10BD10B57F
:1071800007F096FD10BD70B5431CDB7F04001500B1
:10719000002B08D0831CD87F0334FFF7ADFFE07FBE
:1071A0002900FFF7A9FF70BD10B5040000F0CEF86C
:1071B000014B2000236010BD1458010073B50C1C56
:1071C00006002049201C150008F002FB002835D0DD
:1071D0001D49201C08F0E8FA00282FD0002D0ED001
:1071E0001A49201C08F0EAFA01AD00280CD0184B0F
:1071F0002B802900300000F092FB002803D1211CD5
:10720000300000F057FB76BD1249201C08F0D6FA7A
:10721000002801D0104BEBE71049201C08F0CEFAF3
:10722000002801D00E4BE3E70E49201C08F0C6FAF7
:10723000002801D00C4BDBE70C4BD9E70C20404277
:10724000E1E7C046000016430000704400006144BE
:10725000E1E9FFFF00805444D7DBFFFF008040449A
:10726000C1C5FFFF0000E6437581FFFF6B6F0000A3
:10727000F0B5CDB22B001133DBB285B00400272B63
:1072800023D80F2600236E44337032000133104997
:1072900000F082F9002816D1012702000097072389
:1072A0000421200000F0BDFA00280CD1042229009E
:1072B000200000F03DFB002805D13B0032000449CE
:1072C000200000F095F905B0F0BD0D204042FAE72E
:1072D000E7080000F0B5040087B00E1C111C1A006E
:1072E0000CAB1B780DA8059311AB1B780EAD0FAF3F
:1072F00000782D783F880393109B009002930197AC
:10730000059B20006DB201F017FC00280FD101226F
:10731000311C2000FFF752FF002808D1290020006F
:10732000FFF7A6FF002802D1200000F09FF907B068
:10733000F0BD70477047FC3010B5806A0022012113
:10734000FFF721FF0120404210BD000070B504008E
:107350000D00FF22104901F07FFC104B9A210833E9
:107360002360230000220120FC334900DA621A6303
:107370005A6360541031DA631A645A6462520231FB
:1073800062540231625200219D62200019655965E4
:107390009A65DA6570BDC0460024743F4C58010000
:1073A00070B50400FC34A36A0E0005000121187CAE
:1073B000FFF79CFEA36A0021187CFFF79DFE0120C9
:1073C000FFF7D1FEA36A0121187CFFF795FE002E7E
:1073D00012D0FFF7D0FE06002B6828005B689847A4
:1073E000041E09D0FFF7C7FE054B801B984204D846
:1073F0000A20FFF7B8FEEFE70024200070BDC0466A
:10740000B70B000010B5FC30836A0422D87BFFF76D
:10741000A2FE10BDF0B589B01F0010AB1B7816009E
:10742000029311AB1B78019005930300FC339A6A19
:107430000491130006A91433D46921CB21C1002182
:10744000907BFFF759FEFFF796FE0390019DFC35F8
:10745000AB6A587CFFF776FE00280FD0FFF77FFE5F
:10746000FFF789FE039BC01A129B9842EED3AB6ACA
:107470000121987BFFF740FE444882E0236806998B
:10748000DB69079A20009847049DAE192368B5422E
:1074900005D029789B68200098470135F6E7002F32
:1074A00041D00E270E9D029BEE182368AE4257D0A6
:1074B0009B6829782000984703003B40062B23D186
:1074C0000625236820001B6A9847019C0121FC3493
:1074D000A36A987BFFF710FE059B002B42D001208A
:1074E000FFF745FEFFF747FE0600A36A587CFFF74B
:1074F00029FE002836D0FFF732FEFFF73CFE129B34
:10750000801B9842F1D3B7E7082B01D10825D8E7B3
:107510000A2B01D10A25D4E70138C0B20135FD2874
:10752000C3D9FF25CDE79B683900200098470E237B
:107530000340062BC4D0082BE8D00A2BEAD0013830
:10754000C0B2FD28EDD80F9D029BEE182368B5420E
:1075500006D09B6800212000984728700135F5E788
:107560000025AEE7082D0ED003D8062D84D00020CC
:1075700007E00A2D04D0FF2DF9D10220404200E09F
:10758000034809B0F0BD0348FBE7C0463FFDFFFFDD
:107590003DFDFFFF3EFDFFFF30B51D2589B007AC67
:1075A0002570A1700D0A07496570049102930121AD
:1075B000002303910192009303222100FFF72AFF89
:1075C00009B030BD8813000070B586B00AAC2478CD
:1075D0000BAD2D7802940024044E0093049603957D
:1075E00001940123FFF716FF06B070BD8813000059
:1075F00030B50D2585B003AC2570A1700D0A0121B1
:10760000657001910093210013000322FFF7DCFF56
:1076100005B030BD73B50C1C06000021201C08F01D
:10762000D7F8002818D00E49201C08F0BDF8002813
:1076300012D06B46201CDD1D0AF0BAFD0022094B5A
:1076400009F034FB08F0E6F8012328702A00064907
:107650003000FFF7CDFF76BD11204042FBE7C0466A
:1076600000000C4300000440E708000037B56B46FB
:10767000DC1D002322002370084901330500FFF7B9
:107680008BFF002809D11E2322780449134323705D
:10769000220001232800FFF7ABFF3EBDD808000001
:1076A00073B56B46DC1D00230E00237022000133EE
:1076B0000A490500FFF770FF00280BD12278042348
:1076C000002E08D19A43227001232200034928008A
:1076D000FFF78EFF76BD13432370F5E736070000F2
:1076E00030B585B003AC63700E250123257001937E
:1076F00000920B0002222100FFF766FF05B030BDAB
:1077000030B589B00D000CA90C781F2169440D70AB
:1077100002930023054D01930133009204950394D5
:107720001A00FFF777FE09B030BDC046881300008D
:107730000300002230B5FC3385B004000D00986AC8
:107740001100FFF720FD012303AA1570802100938B
:107750002000FFF7D5FF05B030BD10B50021FFF7C1
:10776000E7FF10BD1FB50F226A44002907D1117031
:1077700001239D210093FFF7C3FF05B000BD012346
:107780001370F5E71FB50B0C03AA13700B0A5370A7
:1077900001239170009383210233FFF7B1FF05B0FD
:1077A00000BD1FB50B0C03AA13700B0A5370012305
:1077B0009170009382210233FFF7A2FF05B000BD54
:1077C000F7B5002410490500FFF7EBFF0A20FFF78B
:1077D000CAFC26006B46DF1D00233A003B700B49B4
:1077E00001332800FFF7D8FE01223B781340A34065
:1077F000A4181E43F6B2082CECD12B6828005B6855
:1078000098473000FEBDC046FFFFFF00190800008A
:10781000012307B500930023C5211A00FFF770FF6D
:107820000EBD30B585B008AC257803AC637001237C
:107830002170A270E5702200009395210333FFF7B9
:107840005FFF05B030BD7FB508AC258802AC617024
:10785000E27063710E0A110A1A0A2B0AA37101233E
:10786000A17022712670E571009307332200190080
:10787000FFF746FF04B070BD1FB50B0A03AA1370D3
:10788000012351700093DB181900FFF739FF05B091
:1078900000BD1FB50B0E03AA13700B0C53700B0A1F
:1078A00093700123D170009386210333FFF728FFE3
:1078B00005B000BD10B50400081C9821C90508F0EA
:1078C00039FB0AF075FC0022044B09F0F9FD07F0C2
:1078D000A1FF01002000FFF7DCFF10BD0000A03F6A
:1078E000030030B5FC330D0085B0040001220021F7
:1078F000986AFFF748FC002D0AD1002303AA1370F1
:1079000001330093D1212000FFF7FAFE05B030BD0E
:1079100029002000FFF7BDFF0028EED0F6E7012385
:1079200007B50A0000939821DB18FFF7E9FE0EBDAA
:107930001FB5012303AC217062708E2100932200D9
:10794000DB18FFF7DDFE04B010BDF0B587B0029282
:107950009A222C2503935200825C0CAB04000F008A
:107960001B78FF35002A28D02A230126FF33C35C69
:107970003000984008F03EFE2300FC33596B08F0BD
:1079800001F98321C90507F023FF002813D06655AC
:107990006B461B7A05AA53706B461B7B177093705E
:1079A000635D8B21D3700123200000930333FFF725
:1079B000A7FE07B0F0BD6055EAE74355E8E77FB59D
:1079C000089D02AC23712B0C63712B0AA371012358
:1079D0000E0C26700E0AA170E2706670E57122002E
:1079E00000938B210733FFF78BFE04B070BDF0B519
:1079F00087B003930CAB1F780DAB1D780E002900E8
:107A000004000292FFF74CFE002812D104AA330AA8
:107A100013706B461B7B5670D3706B461B7A977046
:107A20001371012355718C21009320000533FFF75A
:107A300067FE07B0F0BDF0B58BB010AC267811AC86
:107A400024780393049412AC257813AC24780B0AA1
:107A5000059414AC277807AC23706B461B7B6170D0
:107A6000E3706B461B7DE271A3716B461B7CA770B4
:107A70002372012326716571220000938C21083343
:107A8000FFF73EFE0BB0F0BD1FB5012303AC217024
:107A900062708F2100932200DB18FFF731FE04B0E3
:107AA00010BD1FB5012303AA117000939621FFF7A3
:107AB00027FE05B000BD10B50021FFF7F2FF10BD95
:107AC00010B50121FFF7EDFF10BD1FB5002303AA7C
:107AD00013800133009307210133FFF711FE05B036
:107AE00000BD00000022F0B50F0087B011000600B5
:107AF000FFF7CAFF041E54D104AD2F7001272A00DE
:107B000000973B008A213000FFF7FAFD041E48D1A0
:107B100020232A002B70932100973B003000FFF7B1
:107B2000EFFD041E3DD103232B702A23FF33F35CAA
:107B3000A8800D336B700A23A8716B802A00009710
:107B4000033B88213000FFF7DBFD041E29D11649D5
:107B50003000FFF791FE23000390009422002100E3
:107B60003000FFF770FE039B03431CB2002C18D1BA
:107B70007F232A002B70892100973B003000FFF7FC
:107B8000BFFD041E0DD10520FFF7EDFA3300FC33D5
:107B90009B6A587CFFF7D6FA002802D0FFF7DFFA7D
:107BA000F4E7200007B0F0BDFF03000070B586B019
:107BB0000AAC0BAD24782D7801930023044E039575
:107BC000049602940093FFF725FC06B070BDC046F2
:107BD000881300001FB51E240B0003A90C801D3C58
:107BE000009201940222FFF7E1FF04B010BD0000F3
:107BF00030B589B00D000CA90C781F2169440D70B7
:107C000002930023044D01920495039400930122F2
:107C1000FFF700FC09B030BD881300001FB500233A
:107C200003AC238001330093220001331321FFF7BB
:107C3000DFFF207804B010BD1FB5002303AC238004
:107C4000A37001332200009315210233FFF7D0FF08
:107C5000207808F0CFFCBF21090608F06BF904B0CA
:107C600010BD1FB5002303AC238001330093220015
:107C700001331221FFF7BCFF237860781B02184301
:107C800004B010BDF7B5036801915B6805001600EC
:107C90009847041E1ED12800FFF7E3FF602327004A
:107CA000184200D0073FFF2E05D12B6801219B6AA7
:107CB000280098470600F2B201992800FFF78AFFD2
:107CC000041E07D104492800FFF7D6FD0400002F49
:107CD00000D03C002000FEBDFF0300001FB50F24B4
:107CE000FF236C442370FE3B009322001121FFF719
:107CF0007FFF207804B010BDF7B50500FFF7EEFF59
:107D00000700012840D12B6828005B689847041EB3
:107D10002ED12E00FC3602003900B06AFFF733FA8C
:107D2000C02252000094230011002800FFF78BFDB1
:107D3000041E1DD115492800FFF79EFD041E17D112
:107D40002800FFF765FD041E12D1B36AD87BFFF748
:107D5000F9F9002802D1FFF702FAF6E72800FFF749
:107D600080FFC30506D509492800FFF785FD084CAB
:107D70002000FEBD0124030604D504492800FFF7B6
:107D80007BFD0F246442F3E71424FBE7FF030000AC
:107D900042FDFFFF002330B587B000930222264941
:107DA0000400FFF750FD051E22D102000100200053
:107DB000FFF76AFE051E1BD120492000FFF75CFD7E
:107DC0002000FFF78BFF012815D123002E209622DB
:107DD0002100FC33FF30DB6D205C5200FE31098E48
:107DE000DBB20090A25C01952000FFF700FE0500C9
:107DF000280007B030BD00281BD105300490FA30B0
:107E000003904730205C442302904620FF30205CE2
:107E1000A1220190A220A4214000205CFF33520047
:107E200049000090E35CA25C615A2000FFF703FE6A
:107E3000DDE701256D42DBE762020000FF03000081
:107E400070B504000D00FFF7A5FF00280AD123003C
:107E5000FC3302000121986AFFF795F92900200000
:107E6000FFF79FFC70BD000073B504000D1CFFF709
:107E700035FF0600012800D06EE00021281C07F025
:107E8000A7FC00281BD03649281C07F08DFC0028D1
:107E900015D0FC21281C890508F04CF80AF088F957
:107EA000304A314B08F0E6FB07F0B4FCC0B20F28B3
:107EB00042D00ED8052824D003D803281CD008208F
:107EC0004BE0072821D00A28F9D1942309225B002E
:107ED00015E03E2838D007D8142831D01F28EED11D
:107EE000942303225B000AE07D2831D0FA28E6D1F2
:107EF000942306225B0002E0942300225B00E254FC
:107F000006E0942308225B00F9E794235B00E65423
:107F100023002C20FC335D63942295232A21FF301B
:107F2000205C5B005200FF310090E35CA25C615C6E
:107F30002000FFF70AFD76BD942302225B00DEE7F6
:107F400094230A225B00DAE7942304225B00D6E73D
:107F5000942305225B00D2E714204042EBE7C046A1
:107F60000000FF437B14AE47E17A843F37B504003D
:107F70000D00FFF7B3FE012813D16B1F072B13D899
:107F80002A232C219422FF33E554FF31615C013315
:107F900052000091E35CA25C29002000FFF7D5FCB1
:107FA0003EBD14204042FBE70920FBE737B5050042
:107FB0000C00FFF793FE012814D1631F032B14D884
:107FC00095222C202A21231F5200DBB2AB54FF3014
:107FD000285C023AFF310090AA5C695C2800FFF738
:107FE000B4FC3EBD14204042FBE70A20FBE773B51A
:107FF00005000C001600FFF771FE012811D10F21BA
:10800000230030098B430E40E821034301AA2401D9
:10801000137034430223C90028005470FFF7E8FAB4
:1080200076BD14204042FBE730B587B004000D0058
:10803000FFF754FE012814D123000021FE331D86D2
:10804000023BDB6D01912E219622FF31615C5200D3
:108050000091DBB2A25C29002000FFF7C8FC07B04A
:1080600030BD00281CD10521A42304915B00FA3106
:10807000E55203914731615C442302914621FF316F
:10808000615CA1220191A2214900615CFF33520091
:108090000091E35CA25C29002000FFF7CCFCDEE746
:1080A00001204042DBE70000F7B504000D1CFFF79C
:1080B00015FE002837D10021281C07F06BFB002893
:1080C00000D01B4D281C0AF073F81A4A1A4B060000
:1080D0000F0007F043FB002828D01849281C07F0A0
:1080E00063FB002822D00022154B3000390009F034
:1080F000E7F983230022DB0509F0E2F90022114BA6
:1081000008F0D4FD07F086FB2100A0234222FC31B9
:1081100008645B000090FF32E35CA25CC96B200046
:10812000FFF74DFCFEBD14204042FBE76620FBE755
:108130009A99193F333333333333E33F00004843D5
:1081400000408F4080847E4137B504000D00FFF76A
:10815000C5FD002820D1042D21D842222800FF325D
:1081600007F048F903121416180000232100A35445
:10817000A023FC31086C5B000090E35CA25CC96B3F
:108180002000FFF71CFC3EBD0823EFE70923EDE7C5
:108190000A23EBE70B23E9E714204042F3E76A20C8
:1081A000FBE70000F0B58BB0079310AB04000D00A7
:1081B00017001E78FFF792FD002851D1012D40D005
:1081C000002D03D0022D44D0344838E0A1230122F1
:1081D0005B00E25405200490FA3003904730205CA5
:1081E000442302904620FF30205CA1220190A2206F
:1081F000A4214000205CFF33520049000090E35C62
:10820000A25C615A2000FFF716FC002817D109ADC7
:108210003B0A2B702A000223214920006F70FFF7D0
:10822000E7F900280BD1079B2A001B0A2B706B462D
:108230001B7F1C496B7020000223FFF7D9F90BB09C
:10824000F0BDA1235B00002E01D00422C1E7E6545B
:10825000C0E7A12306225B00002EBAD1E554B9E79E
:10826000012818D196225200002D12D0A0542300CC
:1082700021000020FC33FE31DB6D098E01902E20A1
:10828000FF30205CDBB20090A25C2000FFF7AFFB68
:10829000D5E7A554EBE701204042D0E743FDFFFFBF
:1082A000BC060000BE060000F0B58BB004000D0057
:1082B0000792FFF713FD002850D14627FF37002D06
:1082C0001AD14423A122A42105300490FA30E555A7
:1082D00003904730FF3352004900205CE35CA25C0E
:1082E000615A02900195A2204000205C009020007D
:1082F000FFF7A1FB0BB0F0BD0126D72109ADE65574
:1083000033002A00C9002000FFF746F90028F1D108
:10831000079A2B781212B34316401E436B46D7219F
:108320001B7F2A006B70C900022320002E70FFF70C
:108330005FF90028DED14423A122A4210530049056
:10834000FA3003904730205CFF330290E05D52002A
:108350004900E35CA25C615A0190C4E714204042EA
:10836000C8E780224B1E994110B5C9B25200FFF7F1
:108370009BFF10BDF7B5040000912600FFF7AEFC8F
:10838000FC36012851D12A23FF33E55C2D48A84053
:1083900008F030F92C49071C706B07F0CBFD011C6D
:1083A000381C07F0EFFB07F01DFA6B1F0600012BCE
:1083B00038D800221927254BA9009E4202D929004E
:1083C0003E3189002E23FF33E05CC9B24342434172
:1083D000584214230340962001934000205C009BE8
:1083E0004000C0184000451BAD00019BAD18ED18C2
:1083F0002DB2281C002D00DA00204B1E00B2C01840
:1084000007F08CF895235B0082B2E05CFE34043008
:108410005043238E800008339B00DF19C719774330
:10842000B808FEBD08221127C5E7009BF56BD800F0
:10843000684309F08BFE0022054B09F041F807F074
:10844000E9F9EEE710270000000020417F3E000020
:108450000000503FF0B585B00293036804005B68EC
:108460000E0017009847002867D1FF2F67D820001B
:10847000FFF734FC01282ED139002000FFF77AFFE6
:10848000032358434308019323683A00DD68310011
:10849000029B2000A84700284FD1FEF770FE050080
:1084A0002600FC36B36AD87BFEF74CFE00281BD1B1
:1084B000FEF755FEFEF763FE019B401B9842EFD985
:1084C00021492000FFF7D8F9236820005B6898470E
:1084D0000520404231E0002833D139002000FFF769
:1084E00049FF05234343CEE7FEF749FE01903800DC
:1084F00009F02CFE0022154B08F0E2FF019B0290D0
:108500000391581B08F076F809F052FE0022104B38
:1085100008F0CCFB02000B000298039908F0C6FBA0
:1085200009F098FE084970652000FFF7A5F90028BA
:1085300003D1236820005B68984705B0F0BD042094
:10854000C7E70120C5E7C046FF0300000000204048
:1085500080842E41F7B56B46DC1D0023220023707A
:10856000164901330500FFF717F8002820D128002D
:10857000FFF7B4FB01281CD12B00FC33586B09F02A
:1085800017FE00220E4B09F00DFA49004F080D4A64
:108590000D4B390007F0CEF800280AD004222378CA
:1085A000934323702200012304492800FFF720F899
:1085B000FEBD042322781343F3E7C0468908000078
:1085C00000407F40FCA9F1D24D62503FF0B505005C
:1085D00087B00F001600FF2A75D8A2235B00C35C8A
:1085E000002B01D0FF2A6ED02800FFF777FB01286F
:1085F0004AD129000020FE31098E01902E209622BA
:10860000FF30285C52000090F3B2AA5C2800FFF70C
:10861000EEF9041E59D10090030001222D492800D3
:10862000FFF711F9041E50D1020001002800FFF7E6
:108630002BFA041E49D10300F2B239002800FFF7DB
:108640004FF8041E41D124492800FFF715F9041EF4
:108650003BD12800FFF77EFF041E36D12E00FC36EA
:1086600001000122B06AFEF78EFD21002800FFF70D
:1086700089F8041E29D1B36A587CFEF763FD0028EF
:1086800023D0FEF76CFDF6E7002821D105300490D9
:10869000F0B20390A3204000285C442302904620BF
:1086A000FF30285CA1220190A220A4214000285C78
:1086B000FF33520049000090EB5CAA5C695A280025
:1086C000FFF7B9F9A5E704246442200007B0F0BD24
:1086D0000124F9E701020000FF0300002E2373B517
:1086E000FF33C35C0400012B02D01420404276BD4E
:1086F000FFF7F4FA06000128F7D16B4692219A1D84
:1087000000230901137003002000FEF771FF002809
:10871000EDD16B46DD1DD8712A00330008492000D9
:10872000FEF73AFF0028E2D102232A7804491343D6
:108730002B702A0033002000FEF75AFFD7E7C0460F
:1087400044090000F7B5036801915B680400150057
:108750009847002800D082E02000FFF7BFFA0128E8
:1087600047D12A23FF33E35C984007F043FF2300FF
:10877000FC33596B07F006FA09F01AFD00223F4B53
:1087800008F09EFE00223E4B08F09AFE07F042F8E9
:10879000060007F02FFF09F00BFD0022394B08F00F
:1087A00085FA07F037F801002000FFF749FB0028A1
:1087B00055D1FEF7E4FC07002300FC339B6AD87B0D
:1087C000FEF7C0FC00283FD1FEF7C9FCFEF7D7FC3E
:1087D000C01B8642F0D22000FFF780FF2A4920000C
:1087E000FFF74AF8236820005B689847062040425C
:1087F00035E000283FD1281E00D1FF2009F0A6FC5B
:108800000022224B08F05CFE2300FC330600D86BEC
:108810000F0007F0EFFE09F0CBFC02000B00002078
:108820001B4908F043FA09F015FD09F0C1FC0200EC
:108830000B003000390008F039FA0022154B08F01F
:108840003FFE0022144B9FE72E23FF33E35C012BF6
:1088500006D023682A001B69019920009847FEBDB5
:108860002000FFF73BFA0128F3D12000FFF736FF85
:108870000028EED0F3E70120B9E7C04600005940D8
:1088800000408F4000402F40FF03000000002040C8
:108890008084CE4180842E41000014401FB5002307
:1088A00003AC2380A3700133009322000233142110
:1088B000FFF79EF92078637800041B021843A37821
:1088C000184304B010BD000070B5FFF7E7FFC0B259
:1088D00009F002FC0400802000060D180022044B61
:1088E0002900200008F0ECFD09F0B4FC70BDC04682
:1088F0000000E03F10B50400FFF7F0F9012812D1A5
:108900002000FFF7CBFF030AD8B21B0608D409F0FA
:10891000E3FB0022054B08F0D3FD09F09BFC10BDE2
:108920000138FF38F3E70248F9E7C0460000D03FBE
:108930000000A0C11FB50024012303AA1480172141
:108940000093DB18FFF754F9200004B010BD0000BD
:10895000F0B5036889B05B68039004920E1C9847D9
:108960000398FFF7E7FF830602D50398FFF7ADF8FA
:108970007000400809F01CFC5F4A604B06F0DAFE0C
:108980000590002805D001210398FEF709FD09B0E4
:10899000F0BD301C09F00CFC594A5A4B04000D0084
:1089A00009F000F849004F08534A544B390006F0CB
:1089B000C1FE002820D06A46127D07AB1A700498C9
:1089C00007F018FE09F0F4FB00224F4B08F06EF997
:1089D00006F020FF07AA030C5370030A9370039B51
:1089E0000499FC3399650123D07097210093039873
:1089F0000333FEF785FECAE7444A454B20002900B1
:108A000008F0D0FF49004F083B4A3C4B390006F0C4
:108A100091FE002802D007AB0122CFE73D4A3E4B32
:108A20002000290008F0BEFF49004F08324A334BAE
:108A3000390006F07FFE002802D007AB0222BDE716
:108A40002F4A364B2000290008F0ACFF49004F08A0
:108A5000294A2A4B390006F06DFE002802D007ABE8
:108A60000322ABE7294A2E4B2000290008F09AFF89
:108A700049004F08204A214B390006F05BFE0028D0
:108A800002D007AB042299E71D4A264B200029009B
:108A900008F088FF49004F08174A184B390006F0C4
:108AA00049FE002802D007AB052287E700221E4BB3
:108AB0002000290008F076FF49004F080E4A0F4BAE
:108AC000390006F037FE002802D007AB062275E712
:108AD000164A174B2000290008F064FF49004F0890
:108AE000054A064B390006F025FE002802D007ABE8
:108AF000072263E70F484AE7FCA9F1D24D62503FD5
:108B00009A9999999999F93F00402F40333333331B
:108B10003333FB3FCDCCCCCCCCCCFC3F999901403E
:108B20003333034099990540000008406666666645
:108B300066660A4041FDFFFFF0B5050087B003936C
:108B40000CAB1B78FC3504930DAB1B88040002931F
:108B50000FAB1B780F1CA86A002101920593FEF74A
:108B6000D1FAAB6A0021D87BFEF7C0FAAB6A0021CC
:108B7000587CFEF7BBFA6A462A231279FF336F63EB
:108B8000E2540422013BE2546A4623001289FE3378
:108B90001A8600220126AA6503329A85DE85FF2304
:108BA0003100EB652000FEF7FBFB00284AD123686B
:108BB00020005B689847002844D131002000FEF770
:108BC00091FF00283ED100210E9806F0F7FD002805
:108BD00031D101992000FFF7C9F9002832D1391CA1
:108BE0002000FFF741F900282CD103992000FFF75E
:108BF000DDF9002826D1442204992000FFF7F7F977
:108C000000281FD102992000FFF70EFA002819D181
:108C10000F492000FEF7FEFC002813D1012120009F
:108C2000FEF7A0FD00280DD1059B2000002B0BD0E6
:108C3000FEF741FF06E0074A0E992000FFF788FE85
:108C40000028C6D007B0F0BDFEF73AFFFAE7C046ED
:108C50000000704288130000034B41600360002352
:108C6000826083817047C0469458010070B5060049
:108C70000C008D18AC4207D0336821789B68300017
:108C8000984720700134F5E770BD7047704710B504
:108C90000400406803F07AFD0023237610BD10B570
:108CA000406803F098FD10BDF8B5050040680C0061
:108CB00003F08CFD2B68E7B2260A9B68012810D1CF
:108CC00039002800FF2798472B68BC4304439B6862
:108CD000310028009847030220003840184380B232
:108CE000F8BD310028009847FF262B680002344069
:108CF00004439B68390028009847B4432043EEE7BB
:108D000010B5040006F05AF8200010BD10B54B1C39
:108D10000BD0102909D0EFF3108472B6102905DDAD
:108D200002234376002C00D162B610BD0123427E9F
:108D30001A43427618224A430449891816228A5651
:108D40009340C2691343C361ECE7C046586D01000C
:108D50004B1C17D0102915D0437E9B0712D4EFF37C
:108D6000108272B618234B430749C9180123897D25
:108D700049B28B40C1699943C16100D14176002A53
:108D800000D162B67047C046586D0100437E002B8B
:108D900005D09A0704D5837E002B00D062B67047B9
:108DA000DB07FCD5C369024A9BB2D360F7E7C04634
:108DB00000180040037E002B04D143768376C36104
:108DC00001330376704700007FB5036902AE0400EB
:108DD0000D00029172608B4203D1828AB3889A425D
:108DE00026D0200006223100103009F03CFB6068DC
:108DF00003F0E3FC7379E17A013B581E8341227B47
:108E000000936068002303F075FE33790021013B75
:108E1000DBB2022B01D8074AD15C074B2A009D42E6
:108E200000D91A00606803F099FC606803F0BBFC8D
:108E30007FBDC046CC580100001BB70070B5182696
:108E40000400FFF7B7FF33000821207A0D4D43439C
:108E5000EB18595606F018FA33000821A07A43435C
:108E6000EB18595606F010FA0821607A4643AD19FE
:108E7000695606F009FA044B200006CBFFF7A4FF61
:108E800070BDC046586D0100FC0A002007B5437E46
:108E900000910192002B07D09A070AD5EFF31083B7
:108EA0005A425341837672B60099019AFFF78CFFBC
:108EB00007BDDB07F8D5C369014A9BB29360F3E7AE
:108EC000001800400E490F4B10B501220B60002323
:108ED0004A710B710C490D48083101600C4942750B
:108EE00041600C49C27201811421036181720375D2
:108EF000094A0A490376037306F074FA10BDC046A6
:108F0000FC0A002000093D00D0580100DC0A0020C6
:108F1000E811002012150000000000208D8C0000D8
:108F20000020704710B503689C6B0123A04710BD5B
:108F30008C2300229B00C154103BC3185A609A60D6
:108F4000DA6001238375704710B5036801211B6B3C
:108F5000984710BDF8B505000E0017000024BC426C
:108F600008D02B68315D1B6828009847002801D085
:108F70000134F4E72000F8BDFC30406A70477047C8
:108F80008E239B00C15070478D239B00C1507047BA
:108F90000300FC335A6A002A03D01B6AC018007E03
:108FA000704701204042FBE770B5060018250C49C8
:108FB000006903F0E9FD306903F027FC2B0008216C
:108FC000307D084C4343E318595606F05DF90821FB
:108FD000707D45436419615606F056F970BDC04670
:108FE000A0860100586D010070B504000D000069F5
:108FF00003F020FC2900206903F0C6FD206903F07E
:1090000004FC70BD10B5006903F014FC10BD000035
:10901000F7B50193FA238026002504009B008360A6
:10902000134B760008330F0045602900009203605F
:109030003200183009F033FA23002000FC332530C9
:10904000DD6132001D6229005D62FF3009F027FA00
:1090500088239B00E3185D609D60DD606B461B7894
:10906000276123756B461B79A57520006375FEBDCE
:109070000C59010070B506001825006903F05FFD6A
:10908000306903F0C2FB2B000821307D064C4343BE
:10909000E318595606F0F8F80821707D4543641925
:1090A000615606F0F1F870BD586D010010B5002250
:1090B000FFF7E0FF10BD0300802210B5FC33DC6831
:1090C0005200944208D05A6881545A680132D2B290
:1090D0005A60DA680132DA6010BDF7B50400171E75
:1090E000019302D100252800FEBD03000022FC33BD
:1090F000DA611A625A620069013203F0CDFB061E82
:10910000F0D0230020691833009303F058FC0100CD
:109110000098FFF7D0FF01252069BD4214D003F06D
:109120002CFC00280FD0206903F096FB0221206957
:1091300003F09CFB206903F042FC01000098FFF75C
:10914000BAFF0135E8E70600206903F07DFB019BCB
:10915000002B06D0002E06D00321206903F086FBE9
:10916000C1E7002EBFD1013DBDE7002310B5827DD0
:109170009A420CD0882292008218D4688022520031
:10918000944204D02530FF30FFF795FF01231800EB
:1091900010BD0300FC33DA68002A09D09A68805CAD
:1091A0009A680132D2B29A60DA68013ADA6070479E
:1091B00001204042FBE700228C2370B59B008275A2
:1091C00004000E00C15C006903F066FB002806D1B4
:1091D0000321206903F04AFB0225280070BD882383
:1091E0009B00E318DD68002D11D020002530FF30F2
:1091F0002569FFF7CEFFC1B2280003F08FFB0028DE
:10920000EDD10321206903F031FB0325E5E7002EB2
:10921000E3D00321206903F029FBDEE710B5183005
:10922000FFF7B7FF10BD70B50400006903F09CFBA9
:10923000002815D0206903F0AEFB002811D020696A
:1092400003F00AFB0321206903F010FB8E239B002F
:10925000E558002D35D10023FC34E36123626362BD
:1092600070BD206903F0A1FB002809D0206903F03C
:1092700097FB002804D0206903F09CFB0028DED077
:10928000206903F092FB002821D1206903F07EFBC6
:109290000028E5D0206903F08DFB002833D0882317
:1092A0009B00E318DB68FF21002B05D02000253050
:1092B000FF30FFF76EFFC1B2206903F047FBA075D6
:1092C000CEE7236820001B699847A847C3E72069B9
:1092D00003F0C2FA2069032103F0C8FA206903F001
:1092E00069FB0028BCD0882300229B00E3185A6049
:1092F0009A60DA600123A3758D239B00E3589342A3
:10930000AED09847ACE72300FC335A6A802320692B
:109310005B009A4206D103F097FA0321206903F01B
:10932000A5FA9DE703F04BFB010020001830FFF782
:10933000C2FE206903F090FAEFE7000010B5024882
:10934000FFF771FF10BDC046040B002010B51123BC
:10935000102202490248FFF75BFE10BDE011002019
:10936000040B00207047F0B500291BDB0C25445F7F
:109370008C4217DD002A15DB0E25445F944211DD77
:10938000847E022C0FD0032C16D0012C04D1D243A2
:109390000489A4180A0021B2012B13D0002B22D07B
:1093A000022B32D0F0BD0489013C611AD4434289BA
:1093B00009B2121912B2EFE74489013C641A110094
:1093C00022B2E9E70725D4172C40A4182A4093407D
:1093D0000827C65FE41074436118C46A61180A78EC
:1093E00013430B70DEE70724D31723409B1808268E
:1093F000855FDB106B435918C36A2240591801235B
:1094000093401A000B789343EBE70724D3172340CC
:109410000826855F9B18DB106B435918C36A01202F
:1094200022409040020059180B785A400A70B9E760
:1094300070B5002504001E0012B204AB09B25D57DE
:1094400000F01EFE104B08332360002363629E422F
:1094500000D10E4E2100FF223331A662E3620A7072
:109460004A708A70CA70220037321570059A20003F
:10947000A265069AE265064A6266220064321371AA
:109480000123537170BDC046FC5D0100040B002038
:1094900000093D00054B10B5083304000360C06AA5
:1094A000002801D008F0B4FF200010BDFC5D0100D1
:1094B000F8B50400806A0D00002814D02300303372
:1094C00019780368DB6A9847A06A002103681B6863
:1094D0009847A06A290003681B689847A06A036838
:1094E0005B6B9847F8BD226C216D1368606A8B43F3
:1094F0001360002804D0036829009B689847F1E7AF
:1095000008218020E36BA26BA76C166828420ED05E
:109510003E4316601E68E76C01393E431E601E68BC
:10952000E76C4008BE431E600029EDD1DAE7BE4378
:10953000EFE770B50400806A0D00002812D00368C0
:10954000A16D9B6A984729004D1EA9412000A631B4
:10955000FFF7AEFFA06A002812D00368E16D9B6A96
:10956000984770BD606A002804D00368616EDB69AB
:10957000A26E9847626C616D13688B431360E2E7DB
:10958000626C616D1368606A0B4313600028E8D059
:1095900003681B6A9847E4E7F7B50400806A8B18F4
:1095A0000D00019300282BD027000368303739784D
:1095B000DB6A9847A06A0021036801261B68984768
:1095C000A06A019A0368954217D0FE2E0CD95B6BF6
:1095D0009847A06A397803680126DB6A9847A06A31
:1095E000002103681B689847A06A29780368013640
:1095F0001B689847B6B20135E2E75B6B9847F7BD49
:10960000226C216D13688B431360019BAB42F6D033
:109610002B78606A0093002805D0036800999B6846
:1096200098470135F1E708208026E36BA26BA76C11
:109630000099BC4617680E420FD061460F43176071
:109640001F68E16C01380F431F601F68E16C7608EA
:109650008F431F600028EAD1E3E761468F43EEE7BE
:10966000072110B50A22835E0733DA170A40D218A1
:109670000821435ED2105A43C06A002108F00FFF50
:1096800010BD0000F0B587B004930CAB1B7804004C
:109690000593C36A0E001500002B1BD02000FFF7B6
:1096A000DFFF0A23E25E0823E15E202A25DC203A60
:1096B000D30F9A180B00733BD90FC91801230293DB
:1096C0001F335210491001935333009312B209B261
:1096D000B04B24E00A22835E07220733D8171040DC
:1096E000C0180822A35EC010584308F087FEE0624D
:1096F000031ED3D1180007B0F0BD403AD30F9A181B
:109700000B00523BD90FC918012302933F33019339
:1097100012335210491000939F4B12B209B220002D
:1097200000F0C8FC230031331E70A06A002800D16D
:109730009CE0002D00D097E00A23E55E203D6B1EE3
:109740009D413C35230030331D70059B002B00D11B
:109750001BE10368DB699847049B002B1BD02500A5
:10976000002037352856002815DBC0B2012105F04E
:10977000FBFC0121287805F043FD012005F0C8FA23
:109780000021287805F03CFD0A2005F0C1FA287870
:10979000012105F035FDA06A002800D1CBE0036867
:1097A000A16D9B6A984704227C492000FFF7F4FED4
:1097B000618920000139C9B2FFF77AFE2500784996
:1097C00004222000FFF7E8FE00233135EB56142178
:1097D000012B00D104392000FFF76AFE2600042285
:1097E00070492000FFF7D8FE8F2360363370A368DE
:1097F0006D4A022793420BD06C4A934200D0A8E0F6
:109800000022AA56CF23012A00D1303B1227337001
:10981000DA212000FFF74CFE39002000FFF748FE58
:1098200081212000FFF744FE31782000FFF740FE41
:10983000D9212000FFF73CFE0023EB56F121012B3C
:1098400000D1CF392000FFF733FE2000062258490F
:10985000FFF7A2FEA06A002800D188E00368E16D4E
:109860009B6A9847012345E76DB26BE72500270007
:10987000353528780121363705F076FC3878012116
:1098800005F072FC002318210126EB56494D4B438D
:109890005A574948D201121822643200EB185B680B
:1098A0009A4000232265FB564B435A574349D20145
:1098B0005118121862643200EB185B68606A9A40B3
:1098C000130062650A6913430B61002806D0059BEB
:1098D000002B00D140E70368DB6A3CE72700333701
:1098E0003100387805F040FC2300343305931878B4
:1098F000310005F039FC00231821FB562E484B435C
:109900005A57EB18D2011218A26332005B689A40D2
:10991000059BA2641B785BB24B435A57ED186B68EA
:1099200026499E40D2015118E6640B691218B343D0
:10993000E2630B6110E7606A002804D00368616E7F
:10994000DB69A26E9847626C616D13688B4313608C
:1099500029E71B4A0227934200D059E70022AA5662
:10996000AF23012A00D19F3B3370022750E7626C7E
:10997000616D1368606A0B4313600123002800D1F6
:10998000B8E603681B6A98476CE7049B002B00D07D
:10999000E5E604E71C5C01005C590100645E01001F
:1099A000685E01006C5E01008000200080004000C5
:1099B000705E0100586D01001044004100440041F8
:1099C00060001000F0B5140005AA1688002C41DBD9
:1099D0000A25425FA2423DDD002902DA5B18002120
:1099E0001BB20822855E5A18AA4201DD6B1A1BB20F
:1099F000002B2FDD0727E2173A401219D2105543EA
:109A0000C26A01203C40A04069185218C0B2012E21
:109A10000CD0002E13D0022E1CD1013B1BB2591CBE
:109A200018D01178414011700132F6E7013B1BB2AA
:109A3000591C0FD01178014311700132F6E7C04371
:109A4000C0B2013B1BB2591C04D011780140117007
:109A50000132F6E7F0BD0000F0B505AC258800291D
:109A600076DB0824065FB14272DA002A02DA9B181C
:109A700000221BB20A27C45FD718A74201DDA31A30
:109A80001BB2002B64DDD2B2DCB2D3087343591889
:109A9000C36A591807231A401FD001339A1A314B51
:109AA000D2B29B5C944254D2FF26171B3E413340F6
:109AB000012D06D0002D08D0022D49D10E7873401B
:109AC00001E00E7833430B7002E00E789E430E7077
:109AD00094423DD30826835FC918A31ADBB2072B33
