:104000000080002079CD000061CD000061CD00006E
:1040100000000000000000000000000000000000A0
:1040200000000000000000000000000061CD000062
:10403000000000000000000061CD0000CDCD0000B8
:1040400061CD000061CD000061CD000061CD0000B8
:1040500005C9000061CD000061CD000065CD000004
:1040600061CD000085A8000061CD000061CD000099
:104070003177000061CD000095A8000061CD0000FF
:1040800061CD000061CD000061CD000061CD000078
:1040900001AF000061CD000061CD000061CD0000E6
:1040A00061CD000061CD000061CD000061CD000058
:1040B0000000000010B5064C2378002B07D1054BFB
:1040C000002B02D0044800E000BF0123237010BD84
:1040D000D00000200000000010480100044B10B583
:1040E000002B03D00349044800E000BF10BDC046C8
:1040F00000000000D400002010480100034B1B7892
:10410000002B02D00122024B1A70704718000020C9
:10411000A406002010B5074C200005F031FCF02368
:104120005B0323610449200008F0D6FC200005F061
:10413000FBFE10BD240100204324010010B5074CF4
:10414000200005F01DFCF0235B03236104492000DF
:1041500008F0C2FC200005F0E7FE10BD240100209D
:10416000AD260100F0B589B00492059312AB1B781F
:1041700004000D00020007930B000E980F990DF03C
:1041800025FA3B4A3B4B0CF0AFFF00223A4B0CF0B8
:10419000ABFF09F017FA364A06000F00354B200036
:1041A00029000CF0A1FF09F0C7F9314A314B00900A
:1041B00001910E980F990CF097FF09F0BDF9049A40
:1041C000059B02900391109811990DF0FFF9284A70
:1041D000284B0CF089FF0022274B0CF085FF09F0DB
:1041E000F1F9029A039B04000D00009801990CF06C
:1041F0007BFF2200009001912B00200029000CF091
:1042000073FF02000B00009801990CF06DFF320063
:1042100004000D003B00300039000CF065FF020087
:104220000B00200029000CF039F804000D0009F003
:1042300015FA22002B0006000F0000200F490DF098
:10424000C5F909F00BFA02000B003000390009F043
:1042500001FA02000B000CF021F8079B0022002B52
:1042600004D0074B0CF040FF09B0F0BD054BF9E757
:10427000399D52A246DF913F0000E03F0000F03F31
:1042800000DFB84000E8AE4073B5914C9149200082
:1042900008F018FC9049200008F0FFFB8F4D022623
:1042A00028680DF099FD009602000B00200008F030
:1042B0004BFD8B49200008F0F0FB68680DF08CFD89
:1042C000009602000B00200008F03EFD854920000A
:1042D00008F0E3FBA8680DF07FFD00960B000200DC
:1042E000200008F031FD8049200008F0D6FBE86886
:1042F0000BF02AFF0A220100200008F03EFC7B4957
:10430000200008F0CAFB28690BF01EFF0A220100FA
:10431000200008F032FC7649200008F0BEFB6869F6
:104320000DF05AFD009602000B00200008F00CFD75
:104330007049200008F0B1FBA8690DF04DFD009612
:1043400002000B00200008F0FFFC6B49200008F081
:10435000A4FBE8690DF040FD009602000B00200070
:1043600008F0F2FC6549200008F097FB286A0DF080
:1043700033FD009602000B00200008F0E5FC6049C8
:10438000200008F08AFB686A0DF026FD0096020006
:104390000B00200008F0D8FC5A49200008F07DFBF3
:1043A000A86A0DF019FD009602000B00200008F02D
:1043B000CBFC5549200008F070FBE86A0DF00CFDBD
:1043C000009602000B00200008F0BEFC4F492000C0
:1043D00008F063FB286B0DF0FFFC009602000B0059
:1043E000200008F0B1FC4A49200008F056FB686B39
:1043F0000DF0F2FC009602000B00200008F0A4FC77
:104400004449200008F049FBA86B0DF0E5FC00963C
:1044100002000B00200008F097FC3F49200008F044
:104420003CFBE86B0DF0D8FC009602000B0020006E
:1044300008F08AFC3949200008F02FFB286C0DF0A9
:10444000CBFC009602000B00200008F07DFC3449F4
:10445000200008F022FB686C0DF0BEFC0096020004
:104460000B00200008F070FC2E49200008F015FB1E
:10447000A86C0DF0B1FC009602000B00200008F0C3
:1044800063FC2949200008F008FBE86C0DF0A4FC4F
:1044900000960B000200200008F056FC2349200083
:1044A00008F0FBFA286D0BF04FFE0A2201002000F5
:1044B00008F063FB1E49200008F0EFFA686D0BF06E
:1044C00043FE0A220100200008F057FB73BDC046DE
:1044D0003C0E0020562401007E240100AC06002082
:1044E000862401008E240100962401009E240100F0
:1044F000A7240100AF240100B7240100BF2401005C
:10450000C7240100D2240100DD240100E8240100B9
:10451000F6240100042501001225010020250100D8
:104520002E2501003C2501004A25010058250100E7
:104530006025010073B5384C3849200008F0C2FAF4
:104540003749200008F0A9FA364E0225300002F063
:10455000D5FA0DF041FC009502000B00200008F098
:10456000EDFB3149200008F098FA3049200008F0AE
:1045700094FA300002F0D8FA0DF02EFC00950200FB
:104580000B00200008F0DAFB2949200008F085FA2A
:104590002849200008F081FA274B18680DF01CFC10
:1045A000009502000B00200008F0C8FB2349200002
:1045B00008F073FA224B18680DF00EFC009502000B
:1045C0000B00200008F0BAFB1E49200008F065FA35
:1045D0001D4B0A221978200008F0E5FA1B4920003B
:1045E00008F05BFA00211A4B0A225956200008F005
:1045F000C0FA1849200008F050FA0A225821200079
:1046000008F0DFFA1449200008F05CFA1349200092
:1046100008F058FA73BDC0463C0E00206C2501001E
:10462000DD25010098010020E4250100E9250100B5
:10463000F1250100F525010020000020FE250100E4
:104640001C0000200E260100280000201826010072
:104650002500002022260100362601003D2601000B
:10466000F0B55F4C87B05F49200008F016FA0023D0
:1046700005935D4B0A27049308235C4D0393DB19D4
:1046800001930B3B009302970233594A5949280082
:1046900000F0A4FF061E11D1574E2000310008F093
:1046A00011FA564B01221968280000F00BFF0C305C
:1046B0000ED15349200008F005FAFEE751492000C9
:1046C00008F0EBF93A003100200008F056FAFEE756
:1046D0004D4B2800196801F0E1FC083004D14B492A
:1046E000200008F0EFF9FEE7494B2800197801F0A7
:1046F00057FD093004D14749200008F0E3F9FEE7EF
:10470000454B2800197801F06BFD0A3004D143496C
:10471000200008F0D7F9FEE7414B44221978280021
:1047200001F07FFD002804D03E49200008F0CAF9BE
:10473000FEE73D49280001F0F1F8113004D13B4972
:104740003B4808F0BFF9FEE700213A4B28005956D4
:1047500000F012FF0D3004D13749200008F0B2F903
:10476000FEE7364B2800198801F078FD123004D19D
:104770003349200008F0A6F9FEE7324B324A197897
:10478000012328000093314B01F026FE304B984264
:1047900004D13049200008F095F9FEE72E492000A9
:1047A00008F090F928002D4900F0B0FF2C492000B6
:1047B00008F073F928002B4901F05CFC051E05D1B7
:1047C0003100200008F07EF907B0F0BD0D4920004F
:1047D00008F063F90A222900200008F0CEF9FEE76C
:1047E0003C0E0020CB260100CDCCCC3F9801002010
:1047F0000000FA420000D943F82601002000002002
:104800000F270100012701001C0000203E270100A6
:10481000280000206D2701000C000020A3270100C4
:1048200029000020D427010000000C43ED270100DF
:104830006809002025000020202801002600002013
:1048400052280100040000200F1D0000211000006C
:1048500043FDFFFF87280100B0280100FD40000054
:10486000D2280100FFFFFF0070B51D24200008F0D2
:10487000AFFC0BF089FC051C200008F0A9FC0BF034
:1048800083FC291C0AF0F8FD051C200008F0A0FCA0
:104890000BF07AFC291C0AF0EFFD0D490AF086FFA7
:1048A0000DF09AFA0B4A0C4B0CF01EFC00220B4B3D
:1048B0000CF01AFC0DF0E2FA09490AF077FF0949F9
:1048C000051C0AF08FFD0028D0D1281C70BDC04601
:1048D000000040406666666666660A400000503F1B
:1048E000CA261B3E0000A041F7B50125224C0095C9
:1048F0002B003C220221200005F054F8002804D1AE
:104900001E491F4808F0DEF8FEE7200005F038F8E1
:104910002000290005F0B1FF1A4B1B4863611B4BB7
:104920001B4F1B681B4E1C4D1C4C002B13D11C49EC
:104930000DF05EFC1B4938000DF05AFC1A4930009E
:104940000DF056FC194928000DF052FC18492000C2
:104950000DF04EFCF7BD17490DF04AFC1649380022
:104960000DF046FC154930000DF042FC14492800BA
:104970000DF03EFC1349EAE72401002096230100D4
:104980003C0E002001000100F6000020F40200208F
:104990000201002000010020FB000020EC000020AC
:1049A000B0230100B3230100B9230100BB230100A0
:1049B000BF230100C6230100CA230100F02D01001E
:1049C000CF230100D32301001FB5282008F094FA5B
:1049D00002230400032200930821073300F0D0FCD7
:1049E00021000E4800F064FD0D4802F0BBFE0D48AA
:1049F00002F0B0FB0C4B0D4C02930D4B4022019387
:104A000001235B42009380210A4B200004F0A0FEAA
:104A1000094A0A49200008F087FD1FBD98010020BF
:104A2000F80200200A010020A086010024010020D5
:104A3000801A06002C07002000000020B597000017
:104A4000F0B5BA4C8FB00B90200004F099FF002312
:104A50002361B74BB74D1B68B74EB8492800002BF0
:104A600038D104F0AFFD0BF08FFBB5490AF09EFE84
:104A7000B2490890280004F0EDFD0BF085FBB14928
:104A80000BF06CF80990300002F032FC0A90AB4950
:104A9000280004F0C7FD002840D10026002708F0B8
:104AA000A3F90022A84B07921B68934205D0FA2174
:104AB000C01A89000AF0BCFA07900B980138042844
:104AC00000D9C4E2A14D0AF0A9FA7400D9007D0111
:104AD000E3015B0204F076FD0DF012F99C4A9D4B58
:104AE0000CF002FB00229C4B0BF0F4FE0DF0C6F91B
:104AF00092490890280004F0ADFD0BF045FB974962
:104B00000BF02CF80990300002F0F2FB94490BF006
:104B100025F88421C9050AF0AFFCB7E787492800CA
:104B200004F068FD0328B8D98E4F00213E68301C80
:104B30000AF03EFC0028B0D17F680021381C0AF042
:104B400037FC0028A9D17D49280004F013FD7B49DA
:104B50000790280004F022FD0500381C0DF03CF9F8
:104B60000C900D91301C0DF037F9714B06001B684D
:104B700028005A1E93410F0004930BF005FB7A495D
:104B80000AF014FE0DF028F90290039107980BF03B
:104B9000FBFA75490AF00AFE0DF01EF90C9A0D9BFE
:104BA0000090019130003900FFF7DCFA06000F0099
:104BB00075E76E49200007F08FFF2900200007F0FD
:104BC0008BFF6B49200007F06CFF664D0226686D75
:104BD0000BF0BAFA0A220100200007F0CEFF654967
:104BE000200007F05EFF644B0A221968200007F0DE
:104BF000C0FF6249200007F054FF286D0BF0A4FAB3
:104C00000A220100200007F0B8FF5D49200007F0EC
:104C100048FF5C4D280001F071FF0DF0DDF80096B3
:104C200002000B00200008F089F85749200007F027
:104C300053FF5649200007F034FF280001F074FFAD
:104C40000DF0CAF8009602000B00200008F076F87C
:104C50004F49200007F040FF4E49200007F021FF98
:104C60000121280001F056F90A220100200007F076
:104C7000A8FF4949200007F02FFF04E14749200021
:104C800007F02AFF2900200007F026FF44492000F2
:104C900007F007FF334F0225B8690DF09DF8009526
:104CA00002000B00200008F049F83E49200007F000
:104CB00013FF3D49200007F0F4FEF8690DF08CF871
:104CC000009502000B00200008F038F8374920005A
:104CD00007F002FF3649200007F0E3FE386A0DF0C6
:104CE0007BF800950B000200200008F027F83149FE
:104CF000200007F0F1FE079B2F492000632B08DC02
:104D000007F0CFFE07990A22200007F032FF2B4957
:104D1000B0E707F0C6FE3C2107980AF013FA0A2212
:104D20000100200007F025FF2549A3E7240100200A
:104D3000F4020020F80200200A0100204C040000C8
:104D400000007A44FAED6B3B940100204A440100D4
:104D5000984B4FFD283F0A4000408F40A099123BDE
:104D60006666E63FAC0600208096184B482201009C
:104D70005C22010067220100A806002072220100C7
:104D80007422010098010020E42501007F22010027
:104D9000F12501008A22010036260100952201003A
:104DA000A9220100FD2C0100B42201000001002015
:104DB0004D250100BF220100C3220100CE220100C7
:104DC000D8220100A349200007F086FE2900200018
:104DD00007F082FEA049200007F063FE9F4D0226E7
:104DE000E8680BF0B1F90A220100200007F0C5FEC7
:104DF0009B49200007F055FE68690CF0EDFF009616
:104E00000B000200200007F099FF9649200007F0F0
:104E100063FE9549200007F044FE28690BF094F9E1
:104E20000A220100200007F0A4FE9049200007F0AC
:104E300053FE8F49200007F034FEA8680BF084F978
:104E40000A220100200007F094FE8A49200007F0A2
:104E500043FE8949200007F024FE28680CF0BCFFBF
:104E6000009602000B00200007F06EFF834920002F
:104E700007F017FE68680CF0AFFF009602000B0009
:104E8000200007F061FF7E4805F04EF80FB0F0BD3E
:104E90007C49200007F020FE2900200007F01CFEBE
:104EA0007949200007F0FDFD6C4E0225306B0CF0B7
:104EB00093FF009502000B00200007F03FFF7349AD
:104EC000200007F0EEFD706B0CF086FF00950200ED
:104ED0000B00200007F038FF6D49200007F0E1FDCE
:104EE000B06B0CF079FF009502000B00200007F07A
:104EF00025FF6849200007F0D4FDF06B0CF06CFF33
:104F0000009502000B00200007F01EFF6249200000
:104F100007F0C7FD306C0CF05FFF009502000B003E
:104F2000200007F00BFF5D49200007F0BAFD706C10
:104F30000CF052FF009502000B00200007F004FF68
:104F40005749200007F0ADFDF06C0CF045FF0095CF
:104F500002000B00200007F0F1FE5249200007F08C
:104F6000BBFD5149200007F09CFDB06C0CF034FFF4
:104F7000009502000B00200007F0E0FE3D4979E6B5
:104F80003F4C4A49200007F0A7FD4949200007F09F
:104F9000A3FD3149200007F084FD4649464804F04E
:104FA00029FB0A220100200007F0E7FD2C49200020
:104FB00007F077FD09980CF00FFF02250B000200A7
:104FC0000095200007F0BAFE2649200007F084FD76
:104FD0002749200007F065FD08980BF0B5F80A2274
:104FE0000100200007F0C5FD2249200007F074FDF4
:104FF0003249200007F055FDFFF736FC0CF0ECFEBF
:10500000009502000B00200007F098FE2C492000BC
:1050100007F062FD2B49200007F043FD0A980CF0D1
:10502000DBFE009502000B00200007F087FE2649FA
:10503000200007F051FD2549200007F032FD0095C2
:1050400032003B00200007F079FE214912E6214999
:10505000214810E6E2220100F4220100AC06002003
:10506000FF220100020100200A2301001523010094
:105070003F250100F60000201E2301002923010026
:1050800024010020342301004423010049230100AE
:105090004F230100542301005A2301005F23010024
:1050A00065230100BF220100702301007923010064
:1050B0004A4401004C040000F8020020A92201002B
:1050C000FD2C0100B4220100000100208323010017
:1050D000FB0000208E2301003C0E0020F0B599B0AB
:1050E000FFF7C2FB3D4B19680AF07CF9002800D19C
:1050F0006EE03B4D2B78002B34D00024FFF70AF8EC
:10510000384E394B02AF5822390030001C702C70D9
:1051100000F020FF23000500344901AA385DD05477
:10512000032B3DD1A31001989B005850002301345C
:10513000582CF3D1002D35D107F056FE01222C4B0F
:1051400018602C4B1A60FFF79FF8FFF7F3F92A4A13
:105150001368013313602949300000F08BFF0123ED
:10516000214A13702649274804F070F907F03CFEE5
:10517000254D2B68C01A254B1A68FA239B00534310
:1051800098420BD91B4C2068FFF75AFC07F02CFE05
:10519000236828600133062B18D0236019B0F0BDB6
:1051A0000133C4E71A4CEB1D06D11A49200007F061
:1051B00089FCFEF7C3FFCEE71749200007F06DFC1E
:1051C0000A222900200007F0D8FCC4E70223E4E704
:1051D00012490F4807F076FCE0E7C04608000020BF
:1051E000A40600209801002018000020AC06002032
:1051F0009401002014000020A8060020FFFFFF00FB
:105200004C040000F8020020900100201000002053
:105210003C0E002005290100012701001029010092
:1052200070B500210C2008F08DF8642007F012FE04
:10523000204D280002F0B2F803211F4801F0FCFFC6
:1052400028001E4902F0CAF81D4C29004222200005
:1052500003F0FEFF1B4D002804D11B49280007F076
:1052600031FCFEE7194A0021200004F080F8174ABB
:105270000021200004F082F8FA220121200004F02D
:105280006FF8134B114A1978200004F07FF80F498A
:10529000200004F0B5F806000E49280007F001FCD4
:1052A00031000A22280007F082FC0849200003F0A0
:1052B000EFFF70BD2C0700200A010020801A0600B5
:1052C000F80200203C0E0020DC2301004C0400000A
:1052D000240000202A24010070B51920022107F0C3
:1052E000E5FF192008F05AF8002800D1FEE71E4813
:1052F00007F0B0FD01210C2007F0D8FF00210C20A1
:1053000008F020F8E121194C4902200005F06EFE5A
:1053100007F06AFD050007F067FD154B401B98423A
:1053200004D8200005F0B2FF0028F4D0200007F0D8
:10533000C1FB1049200007F0C5FB200007F0BAFBB5
:105340000D49200007F0BEFBFFF78AF90B4920004A
:1053500007F0B8FBFFF764FFFA20C00007F07AFD02
:10536000FFF7C2FA70BDC046881300003C0E002053
:1053700087130000412901004A2901006229010028
:10538000F7B51D0008AB1B7804000F0016000021C4
:105390000322083001930CF068FE802222736A46D3
:1053A000104912796161012100236274FF226018A3
:1053B000E372A773E6732574A27423766176C377CC
:1053C000A01CC277E01CC27723609623064A9B018B
:1053D00062626360054A064B2000E26161732381CB
:1053E000FEBDC04680841E00983A000004070020DD
:1053F0000D0A000010B5FF2801D007F057FF10BDBF
:1054000010B5FF2801D007F09DFF10BD10B50400B6
:10541000002902D0012910D010BD807B0121FFF7A7
:10542000E9FFA07B0121FFF7EBFF637B002BF3D0AB
:10543000E0690368DB6A9847EEE7437B002BEBD01B
:10544000006861680368DB699847E5E710B50023E9
:10545000FF2802D007F0A2FF0300180010BD10B50E
:1054600007F0B8F910BD10B507F021FD10BD10B55B
:1054700007F0F0FC10BD10B507F00EFD10BD10B523
:1054800007F0B2FC10BD10B507F0B4FC10BD70B54C
:10549000431CDB7F04001500002B08D0831CD87F41
:1054A0000334FFF7ADFFE07F2900FFF7A9FF70BDD0
:1054B00010B5040000F0CEF8014B2000236010BDB1
:1054C0009429010073B50C1C06002049201C15000E
:1054D00009F092FF002835D01D49201C09F078FF03
:1054E00000282FD0002D0ED01A49201C09F07AFF79
:1054F00001AD00280CD0184B2B802900300000F0A3
:105500008AFB002803D1211C300000F04FFB76BD40
:105510001249201C09F066FF002801D0104BEBE770
:105520001049201C09F05EFF002801D00E4BE3E774
:105530000E49201C09F056FF002801D00C4BDBE778
:105540000C4BD9E70C204042E1E7C046000016436F
:105550000000704400006144E1E9FFFF0080544412
:10556000D7DBFFFF00804044C1C5FFFF0000E643DA
:105570007581FFFF6B6F0000F0B5CDB22B001133CA
:10558000DBB285B00400272B23D80F2600236E44FE
:10559000337032000133104900F082F9002816D12F
:1055A00001270200009707230421200000F0B4FA2D
:1055B00000280CD104222900200000F035FB00282F
:1055C00005D13B0032000449200000F095F905B0F8
:1055D000F0BD0D204042FAE7E7080000F0B50400F6
:1055E00087B00E1C111C1A000CAB1B780DA805937C
:1055F00011AB1B780EAD0FAF00782D783F88039369
:10560000109B009002930197059B20006DB201F062
:10561000ADFB00280FD10122311C2000FFF752FF03
:10562000002808D129002000FFF7A6FF002802D19A
:10563000200000F09FF907B0F0BD70477047FC30C4
:1056400010B5806A00220121FFF721FF01204042AE
:1056500010BD000070B504000D00FF22104901F0DC
:1056600015FC104B9A2108332360230000220120EF
:10567000FC334900DA621A635A6360541031DA630A
:105680001A645A6462520231625402316252002139
:105690009D622000196559659A65DA6570BDC0463E
:1056A0000024743FCC29010070B50400FC34A36AC7
:1056B0000E0005000121187CFFF79CFEA36A002163
:1056C000187CFFF79DFE0120FFF7D1FEA36A0121A0
:1056D000187CFFF795FE002E12D0FFF7D0FE0600D3
:1056E0002B6828005B689847041E09D0FFF7C7FEA7
:1056F000054B801B984204D80A20FFF7B8FEEFE75D
:105700000024200070BDC046B70B000010B5FC306F
:10571000836A0422D87BFFF7A2FE10BDF0B589B0E2
:105720001F0010AB1B781600029311AB1B78019081
:1057300005930300FC339A6A0491130006A91433FD
:10574000D46921CB21C10021907BFFF759FEFFF7DF
:1057500096FE0390019DFC35AB6A587CFFF776FE00
:1057600000280FD0FFF77FFEFFF789FE039BC01ACA
:10577000129B9842EED3AB6A0121987BFFF740FE63
:10578000444882E023680699DB69079A200098471D
:10579000049DAE192368B54205D029789B68200086
:1057A00098470135F6E7002F41D00E270E9D029B4A
:1057B000EE182368AE4257D09B682978200098479E
:1057C00003003B40062B23D10625236820001B6ADB
:1057D0009847019C0121FC34A36A987BFFF710FED7
:1057E000059B002B42D00120FFF745FEFFF747FE47
:1057F0000600A36A587CFFF729FE002836D0FFF781
:1058000032FEFFF73CFE129B801B9842F1D3B7E7B4
:10581000082B01D10825D8E70A2B01D10A25D4E7A6
:105820000138C0B20135FD28C3D9FF25CDE79B68FB
:105830003900200098470E230340062BC4D0082BC4
:10584000E8D00A2BEAD00138C0B2FD28EDD80F9D70
:10585000029BEE182368B54206D09B680021200009
:10586000984728700135F5E70025AEE7082D0ED0E2
:1058700003D8062D84D0002007E00A2D04D0FF2D88
:10588000F9D10220404200E0034809B0F0BD0348CE
:10589000FBE7C0463FFDFFFF3DFDFFFF3EFDFFFF75
:1058A00030B51D2589B007AC2570A1700D0A0749D8
:1058B00065700491029301210023039101920093EA
:1058C00003222100FFF72AFF09B030BD8813000032
:1058D00070B586B00AAC24780BAD2D780294002404
:1058E000044E00930496039501940123FFF716FFDD
:1058F00006B070BD8813000030B50D2585B003AC2F
:105900002570A1700D0A012165700191009321009D
:1059100013000322FFF7DCFF05B030BD73B50C1C8C
:1059200006000021201C09F067FD002818D00E4950
:10593000201C09F04DFD002812D06B46201CDD1DF7
:105940000CF04AFA0022094B0AF0C4FF09F076FD78
:10595000012328702A0006493000FFF7CDFF76BDED
:1059600011204042FBE7C04600000C430000044009
:10597000E708000037B56B46DC1D002322002370CA
:10598000084901330500FFF78BFF002809D11E23CA
:105990002278044913432370220001232800FFF7D3
:1059A000ABFF3EBDD808000073B56B46DC1D00237D
:1059B0000E002370220001330A490500FFF770FF33
:1059C00000280BD122780423002E08D19A4322709C
:1059D0000123220003492800FFF78EFF76BD134301
:1059E0002370F5E73607000030B585B003AC63706F
:1059F0000E2501232570019300920B000222210045
:105A0000FFF766FF05B030BD30B589B00D000CA9B9
:105A10000C781F2169440D7002930023054D0193FA
:105A200001330092049503941A00FFF777FE09B042
:105A300030BDC046881300000300002230B5FC339F
:105A400085B004000D00986A1100FFF720FD0123C6
:105A500003AA1570802100932000FFF7D5FF05B041
:105A600030BD10B50021FFF7E7FF10BD1FB50F22B5
:105A70006A44002907D1117001239D210093FFF78B
:105A8000C3FF05B000BD01231370F5E71FB50B0C74
:105A900003AA13700B0A53700123917000938321A2
:105AA0000233FFF7B1FF05B000BD1FB50B0C03AA11
:105AB00013700B0A537001239170009382210233FB
:105AC000FFF7A2FF05B000BDF7B50024104905009F
:105AD000FFF7EBFF0A20FFF7CAFC26006B46DF1D2D
:105AE00000233A003B700B4901332800FFF7D8FE32
:105AF00001223B781340A340A4181E43F6B2082CA1
:105B0000ECD12B6828005B6898473000FEBDC0468A
:105B1000FFFFFF001908000030B585B008AC2578FC
:105B200003AC637001232170A270E5702200009322
:105B300095210333FFF768FF05B030BD7FB508AC92
:105B4000258802AC6170E27063710E0A110A1A0AAC
:105B50002B0AA3710123A17022712670E5710093B5
:105B6000073322001900FFF74FFF04B070BD1FB5C7
:105B70000B0A03AA1370012351700093DB1819005C
:105B8000FFF742FF05B000BD1FB50B0E03AA13704F
:105B90000B0C53700B0A93700123D1700093862174
:105BA0000333FFF731FF05B000BD000010B504005E
:105BB000081C9821C90509F0D1FF0CF00DF900224D
:105BC000044B0BF091FA09F039FC01002000FFF7BB
:105BD000DBFF10BD0000A03F030030B5FC330D001B
:105BE00085B0040001220021986AFFF750FC002DC7
:105BF0000AD1002303AA137001330093D12120009E
:105C0000FFF702FF05B030BD29002000FFF7BCFF01
:105C10000028EED0F6E7012307B50A00009398218B
:105C2000DB18FFF7F1FE0EBD1FB5012303AC217099
:105C300062708E2100932200DB18FFF7E5FE04B0AE
:105C400010BDF0B587B002929A222C250393520022
:105C5000825C0CAB04000F001B78FF35002A28D0B3
:105C60002A230126FF33C35C300098400AF0D6FA9D
:105C70002300FC33596B09F099FD8321C90509F014
:105C8000BBFB002813D066556B461B7A05AA5370E0
:105C90006B461B7B17709370635D8B21D370012360
:105CA000200000930333FFF7AFFE07B0F0BD60554F
:105CB000EAE74355E8E77FB5089D02AC23712B0C5A
:105CC00063712B0AA37101230E0C26700E0AA170BA
:105CD000E2706670E571220000938B210733FFF7B5
:105CE00093FE04B070BDF0B587B003930CAB1F7882
:105CF0000DAB1D780E00290004000292FFF754FE40
:105D0000002812D104AA330A13706B461B7B56700D
:105D1000D3706B461B7A97701371012355718C21D8
:105D2000009320000533FFF76FFE07B0F0BDF0B51C
:105D30008BB010AC267811AC24780393049412AC89
:105D4000257813AC24780B0A059414AC277807AC9B
:105D500023706B461B7B6170E3706B461B7DE271A9
:105D6000A3716B461B7CA77023720123267165719A
:105D7000220000938C210833FFF746FE0BB0F0BDE4
:105D80001FB5012303AC217062708F2100932200A4
:105D9000DB18FFF739FE04B010BD1FB5012303AABD
:105DA000117000939621FFF72FFE05B000BD10B5CE
:105DB0000021FFF7F2FF10BD10B50121FFF7EDFF45
:105DC00010BD1FB5002303AA1380013300930721E0
:105DD0000133FFF719FE05B000BD00000022F0B549
:105DE0000F0087B011000600FFF7CAFF041E54D150
:105DF00004AD2F7001272A0000973B008A21300054
:105E0000FFF702FE041E48D120232A002B709321A5
:105E100000973B003000FFF7F7FD041E3DD1032340
:105E20002B702A23FF33F35CA8800D336B700A2399
:105E3000A8716B802A000097033B88213000FFF790
:105E4000E3FD041E29D116493000FFF790FE230020
:105E500003900094220021003000FFF76FFE039BA7
:105E600003431CB2002C18D17F232A002B708921F8
:105E700000973B003000FFF7C7FD041E0DD1052041
:105E8000FFF7F5FA3300FC339B6A587CFFF7DEFA24
:105E9000002802D0FFF7E7FAF4E7200007B0F0BDD2
:105EA000FF03000070B586B00AAC0BAD24782D78E6
:105EB00001930023044E0395049602940093FFF788
:105EC0002DFC06B070BDC046881300001FB51E240F
:105ED0000B0003A90C801D3C009201940222FFF7E5
:105EE000E1FF04B010BD000030B589B00D000CA971
:105EF0000C781F2169440D7002930023044D019218
:105F00000495039400930122FFF708FC09B030BD0B
:105F1000881300001FB5002303AC238001330093D6
:105F2000220001331321FFF7DFFF207804B010BDFA
:105F30001FB5002303AC23800133009322000133FB
:105F40001221FFF7D1FF237860781B02184304B0B9
:105F500010BD0000F7B5036801915B6805001600ED
:105F60009847041E1ED12800FFF7E2FF6023270098
:105F7000184200D0073FFF2E05D12B6801219B6AF4
:105F8000280098470600F2B201992800FFF79EFF0B
:105F9000041E07D104492800FFF7E9FD0400002F83
:105FA00000D03C002000FEBDFF0300001FB50F2401
:105FB000FF236C442370FE3B009322001121FFF766
:105FC00093FF207804B010BD002330B587B0009354
:105FD000022226490400FFF7B1FD051E22D102006E
:105FE00001002000FFF7CCFE051E1BD12049200038
:105FF000FFF7BDFD2000FFF7D9FF012815D12300D1
:106000002E2096222100FC33FF30DB6D205C5200F5
:10601000FE31098EDBB20090A25C01952000FFF7F3
:1060200062FE0500280007B030BD00281BD10530F6
:106030000490FA3003904730205C442302904620BD
:10604000FF30205CA1220190A220A4214000205C0E
:10605000FF33520049000090E35CA25C615A2000CB
:10606000FFF765FEDDE701256D42DBE76202000018
:10607000FF03000070B504000D00FFF7A5FF002826
:106080000AD12300FC3302000121986AFFF7FFF9CF
:1060900029002000FFF709FD70BD000073B5040062
:1060A0000D1CFFF783FF0600012800D06EE00021E1
:1060B000281C09F0A1F900281BD03649281C09F03A
:1060C00087F9002815D0FC21281C890509F046FD18
:1060D0000BF082FE304A314B0AF0E0F809F0AEF9DD
:1060E000C0B20F2842D00ED8052824D003D80328E8
:1060F0001CD008204BE0072821D00A28F9D194238E
:1061000009225B0015E03E2838D007D8142831D08A
:106110001F28EED1942303225B000AE07D2831D0B2
:10612000FA28E6D1942306225B0002E094230022A1
:106130005B00E25406E0942308225B00F9E7942315
:106140005B00E65423002C20FC335D6394229523EE
:106150002A21FF30205C5B005200FF310090E35C9D
:10616000A25C615C2000FFF76CFD76BD94230222E7
:106170005B00DEE794230A225B00DAE79423042223
:106180005B00D6E7942305225B00D2E7142040424F
:10619000EBE7C0460000FF437B14AE47E17A843F43
:1061A00037B504000D00FFF701FF012813D16B1F65
:1061B000072B13D82A232C219422FF33E554FF31D7
:1061C000615C013352000091E35CA25C2900200075
:1061D000FFF737FD3EBD14204042FBE70920FBE7F7
:1061E00037B505000C00FFF7E1FE012814D1631F4D
:1061F000032B14D895222C202A21231F5200DBB216
:10620000AB54FF30285C023AFF310090AA5C695C15
:106210002800FFF716FD3EBD14204042FBE70A2090
:10622000FBE773B505000C001600FFF7BFFE012861
:1062300011D10F21230030098B430E40E821034385
:1062400001AA2401137034430223C90028005470AA
:10625000FFF752FB76BD14204042FBE730B587B014
:1062600004000D00FFF7A2FE012814D12300002135
:10627000FE331D86023BDB6D01912E219622FF31FC
:10628000615C52000091DBB2A25C29002000FFF7A4
:106290002AFD07B030BD00281CD10521A42304919C
:1062A0005B00FA31E55203914731615C442302916E
:1062B0004621FF31615CA1220191A2214900615C6C
:1062C000FF3352000091E35CA25C29002000FFF73D
:1062D0002EFDDEE701204042DBE70000F7B50400B9
:1062E0000D1CFFF763FE002837D10021281C09F0A0
:1062F00065F8002800D01B4D281C0BF06DFD1A4AD4
:106300001A4B06000F0009F03DF8002828D0184964
:10631000281C09F05DF8002822D00022154B30001F
:1063200039000AF0E1FE83230022DB050AF0DCFEDF
:106330000022114B0AF0CEFA09F080F82100A023C8
:106340004222FC3108645B000090FF32E35CA25CF7
:10635000C96B2000FFF7AFFCFEBD14204042FBE7F5
:106360006620FBE79A99193F333333333333E33FE6
:106370000000484300408F4080847E4137B50400D0
:106380000D00FFF713FE002820D1042D21D8422252
:106390002800FF3208F038FE0312141618000023FC
:1063A0002100A354A023FC31086C5B000090E35C47
:1063B000A25CC96B2000FFF77EFC3EBD0823EFE71F
:1063C0000923EDE70A23EBE70B23E9E7142040421A
:1063D000F3E76A20FBE70000F0B58BB0079310AB42
:1063E00004000D0017001E78FFF7E0FD002851D1D2
:1063F000012D40D0002D03D0022D44D0344838E088
:10640000A12301225B00E25405200490FA3003909E
:106410004730205C442302904620FF30205CA122BC
:106420000190A220A4214000205CFF3352004900CB
:106430000090E35CA25C615A2000FFF778FC002822
:1064400017D109AD3B0A2B702A00022321492000F5
:106450006F70FFF751FA00280BD1079B2A001B0A27
:106460002B706B461B7F1C496B7020000223FFF7CB
:1064700043FA0BB0F0BDA1235B00002E01D0042233
:10648000C1E7E654C0E7A12306225B00002EBAD183
:10649000E554B9E7012818D196225200002D12D0F8
:1064A000A054230021000020FC33FE31DB6D098E57
:1064B00001902E20FF30205CDBB20090A25C200017
:1064C000FFF711FCD5E7A554EBE701204042D0E7E8
:1064D00043FDFFFFBC060000BE060000F0B58BB018
:1064E00004000D000792FFF761FD002850D14627F8
:1064F000FF37002D1AD14423A122A4210530049096
:10650000FA30E55503904730FF3352004900205CD4
:10651000E35CA25C615A02900195A2204000205CDD
:1065200000902000FFF703FC0BB0F0BD0126D7213F
:1065300009ADE65533002A00C9002000FFF7B0F985
:106540000028F1D1079A2B781212B34316401E434C
:106550006B46D7211B7F2A006B70C90002232000E5
:106560002E70FFF7C9F90028DED14423A122A4210F
:1065700005300490FA3003904730205CFF330290DE
:10658000E05D52004900E35CA25C615A0190C4E7FF
:1065900014204042C8E780224B1E994110B5C9B271
:1065A0005200FFF79BFF10BDF7B5040000912600D5
:1065B000FFF7FCFCFC36012851D12A23FF33E55CB0
:1065C0002D48A84009F02AFE2C49071C706B09F0E1
:1065D000C5FA011C381C09F0E9F808F017FF6B1F19
:1065E0000600012B38D800221927254BA9009E420E
:1065F00002D929003E3189002E23FF33E05CC9B265
:1066000043424341584214230340962001934000E3
:10661000205C009B4000C0184000451BAD00019B62
:10662000AD18ED182DB2281C002D00DA00204B1EED
:1066300000B2C01808F086FD95235B0082B2E05CD2
:10664000FE3404305043238E800008339B00DF1952
:10665000C7197743B808FEBD08221127C5E7009B7C
:10666000F56BD80068430BF085FB0022054B0AF060
:106670003BFD08F0E3FEEEE710270000000020419C
:106680007F3E00000000503FF0B585B002930368E4
:1066900004005B680E0017009847002867D1FF2FA1
:1066A00067D82000FFF782FC01282ED13900200096
:1066B000FFF77AFF032358434308019323683A0006
:1066C000DD683100029B2000A84700284FD1FEF76B
:1066D000DAFE05002600FC36B36AD87BFEF7B6FE6C
:1066E00000281BD1FEF7BFFEFEF7CDFE019B401B2D
:1066F0009842EFD921492000FFF739FA236820009A
:106700005B6898470520404231E0002833D13900CA
:106710002000FFF749FF05234343CEE7FEF7B3FE12
:10672000019038000BF026FB0022154B0AF0DCFC30
:10673000019B02900391581B09F070FD0BF04CFB7C
:106740000022104B0AF0C6F802000B0002980399D1
:106750000AF0C0F80BF092FB084970652000FFF7C3
:1067600006FA002803D1236820005B68984705B02B
:10677000F0BD0420C7E70120C5E7C046FF030000C5
:106780000000204080842E41F7B56B46DC1D0023BD
:1067900022002370164901330500FFF781F8002815
:1067A00020D12800FFF702FC01281CD12B00FC336C
:1067B000586B0BF011FB00220E4B0AF007FF49004B
:1067C0004F080D4A0D4B390008F0C8FD00280AD0CB
:1067D00004222378934323702200012304492800D4
:1067E000FFF78AF8FEBD042322781343F3E7C0467F
:1067F0008908000000407F40FCA9F1D24D62503F63
:10680000F0B5050087B00F001600FF2A75D8A22347
:106810005B00C35C002B01D0FF2A6ED02800FFF77D
:10682000C5FB01284AD129000020FE31098E0190C4
:106830002E209622FF30285C52000090F3B2AA5C12
:106840002800FFF750FA041E59D1009003000122DE
:106850002D492800FFF772F9041E50D102000100F3
:106860002800FFF78DFA041E49D10300F2B2390067
:106870002800FFF7B9F8041E41D124492800FFF78A
:1068800076F9041E3BD12800FFF77EFF041E36D1A7
:106890002E00FC3601000122B06AFEF7F8FD21004F
:1068A0002800FFF7F3F8041E29D1B36A587CFEF7DD
:1068B000CDFD002823D0FEF7D6FDF6E7002821D134
:1068C00005300490F0B20390A3204000285C4423DC
:1068D00002904620FF30285CA1220190A220A42132
:1068E0004000285CFF33520049000090EB5CAA5C3A
:1068F000695A2800FFF71BFAA5E704246442200028
:1069000007B0F0BD0124F9E701020000FF03000019
:106910002E2373B5FF33C35C0400012B02D0142077
:10692000404276BDFFF742FB06000128F7D16B46D7
:1069300092219A1D00230901137003002000FEF725
:10694000DBFF0028EDD16B46DD1DD8712A00330036
:1069500008492000FEF7A4FF0028E2D102232A788C
:10696000044913432B702A0033002000FEF7C4FFB4
:10697000D7E7C04644090000F7B5036801915B689A
:10698000040015009847002800D082E02000FFF79F
:106990000DFB012847D12A23FF33E35C984009F01F
:1069A0003DFC2300FC33596B08F000FF0BF014FA98
:1069B00000223F4B0AF098FB00223E4B0AF094FB6A
:1069C00008F03CFD060009F029FC0BF005FA002256
:1069D000394B09F07FFF08F031FD01002000FFF77F
:1069E00049FB002855D1FEF74EFD07002300FC337C
:1069F0009B6AD87BFEF72AFD00283FD1FEF733FDC6
:106A0000FEF741FDC01B8642F0D22000FFF780FF59
:106A10002A492000FFF7ABF8236820005B689847FD
:106A20000620404235E000283FD1281E00D1FF203B
:106A30000BF0A0F90022224B0AF056FB2300FC3396
:106A40000600D86B0F0009F0E9FB0BF0C5F9020056
:106A50000B0000201B4909F03DFF0BF00FFA0BF073
:106A6000BBF902000B003000390009F033FF0022AF
:106A7000154B0AF039FB0022144B9FE72E23FF33FE
:106A8000E35C012B06D023682A001B6901992000D2
:106A90009847FEBD2000FFF789FA0128F3D12000B6
:106AA000FFF736FF0028EED0F3E70120B9E7C04634
:106AB0000000594000408F4000402F40FF0300007D
:106AC000000020408084CE4180842E41000014408C
:106AD0001FB5002303AC2380A37001330093220071
:106AE00002331421FFF700FA2078637800041B02B8
:106AF0001843A378184304B010BD000070B5FFF729
:106B0000E7FFC0B20BF0FCF80400802000060D186F
:106B10000022044B290020000AF0E6FA0BF0AEF93F
:106B200070BDC0460000E03F10B50400FFF73EFA1C
:106B3000012812D12000FFF7CBFF030AD8B21B06B1
:106B400008D40BF0DDF80022054B0AF0CDFA0BF06B
:106B500095F910BD0138FF38F3E70248F9E7C04660
:106B60000000D03F0000A0C11FB50024012303AAEC
:106B7000148017210093DB18FFF7B6F9200004B04A
:106B800010BD0000F0B5036889B05B680390049203
:106B90000E1C98470398FFF7E7FF830602D503987A
:106BA000FFF70FF9700040080BF016F95F4A604BD1
:106BB00008F0D4FB0590002805D001210398FEF7CA
:106BC00073FD09B0F0BD301C0BF006F9594A5A4B61
:106BD00004000D000AF0FAFC49004F08534A544BD8
:106BE000390008F0BBFB002820D06A46127D07ABB5
:106BF0001A70049809F012FB0BF0EEF800224F4BCC
:106C000009F068FE08F01AFC07AA030C5370030A87
:106C10009370039B0499FC3399650123D0709721ED
:106C2000009303980333FEF7EFFECAE7444A454B4F
:106C3000200029000AF0CAFC49004F083B4A3C4B9F
:106C4000390008F08BFB002802D007AB0122CFE708
:106C50003D4A3E4B200029000AF0B8FC49004F088D
:106C6000324A334B390008F079FB002802D007ABD9
:106C70000222BDE72F4A364B200029000AF0A6FC6D
:106C800049004F08294A2A4B390008F067FB0028C1
:106C900002D007AB0322ABE7294A2E4B2000290084
:106CA0000AF094FC49004F08204A214B390008F0B3
:106CB00055FB002802D007AB042299E71D4A264B5A
:106CC000200029000AF082FC49004F08174A184B9F
:106CD000390008F043FB002802D007AB052287E704
:106CE00000221E4B200029000AF070FC49004F08CA
:106CF0000E4A0F4B390008F031FB002802D007ABD9
:106D0000062275E7164A174B200029000AF05EFCA0
:106D100049004F08054A064B390008F01FFB0028C0
:106D200002D007AB072263E70F484AE7FCA9F1D27C
:106D30004D62503F9A9999999999F93F00402F4097
:106D4000333333333333FB3FCDCCCCCCCCCCFC3FD3
:106D50009999014033330340999905400000084058
:106D60006666666666660A4041FDFFFFF0B505008F
:106D700087B003930CAB1B78FC3504930DAB1B88D9
:106D8000040002930FAB1B780F1CA86A002101922C
:106D90000593FEF73BFBAB6A0021D87BFEF72AFB8D
:106DA000AB6A0021587CFEF725FB6A462A2312793C
:106DB000FF336F63E2540422013BE2546A4623002E
:106DC0001289FE331A8600220126AA6503329A85AB
:106DD000DE85FF233100EB652000FEF765FC00280F
:106DE0004AD1236820005B689847002844D13100CD
:106DF0002000FEF7F3FF00283ED100210E9808F096
:106E0000F1FA002831D101992000FFF7C9F90028D3
:106E100032D1391C2000FFF741F900282CD1039909
:106E20002000FFF7DDF9002826D144220499200034
:106E3000FFF7F7F900281FD102992000FFF70EFA9B
:106E4000002819D10F492000FEF768FD002813D152
:106E500001212000FEF70AFE00280DD1059B20002D
:106E6000002B0BD0FEF7A3FF06E0074A0E99200087
:106E7000FFF788FE0028C6D007B0F0BDFEF79CFFE4
:106E8000FAE7C0460000704288130000034B4160DF
:106E900003600023826083817047C046142A01008A
:106EA00070B506000C008D18AC4207D0336821780D
:106EB0009B683000984720700134F5E770BD70473B
:106EC000704710B50400406803F0DEFD0023237610
:106ED00010BD10B5406803F0FCFD10BDF8B505000D
:106EE00040680C0003F0F0FD2B68E7B2260A9B68AF
:106EF000012810D139002800FF2798472B68BC4390
:106F000004439B6831002800984703022000384062
:106F1000184380B2F8BD310028009847FF262B683F
:106F20000002344004439B68390028009847B4436A
:106F30002043EEE710B5040005F0E2FF200010BD8D
:106F400010B54B1C0BD0102909D0EFF3108472B68A
:106F5000102905DD02234376002C00D162B610BD56
:106F60000123427E1A43427618224A430449891873
:106F700016228A569340C2691343C361ECE7C046A8
:106F8000D03E01004B1C17D0102915D0437E9B0723
:106F900012D4EFF3108272B618234B430749C91875
:106FA0000123897D49B28B40C1699943C16100D1F8
:106FB0004176002A00D162B67047C046D03E01003B
:106FC000437E002B05D09A0704D5837E002B00D08A
:106FD00062B67047DB07FCD5C369024A9BB2D36037
:106FE000F7E7C04600180040037E002B04D143762B
:106FF0008376C36101330376704700007FB5036970
:1070000002AE04000D00029172608B4203D1828AAD
:10701000B3889A4226D020000622310010300BF0AF
:107020001BF8606803F047FD7379E17A013B581E55
:107030008341227B00936068002303F0D9FE3379FB
:107040000021013BDBB2022B01D8074AD15C074B80
:107050002A009D4200D91A00606803F0FDFC6068B8
:1070600003F01FFD7FBDC0464C2A0100001BB70086
:1070700070B518260400FFF7B7FF33000821207A07
:107080000D4D4343EB18595606F0A0F93300082183
:10709000A07A4343EB18595606F098F90821607A14
:1070A0004643AD19695606F091F9044B200006CB12
:1070B000FFF7A4FF70BDC046D03E010024070020AA
:1070C00007B5437E00910192002B07D09A070AD59D
:1070D000EFF310835A425341837672B60099019AB6
:1070E000FFF78CFF07BDDB07F8D5C369014A9BB2E8
:1070F0009360F3E7001800400E490F4B10B50122D2
:107100000B6000234A710B710C490D480831016076
:107110000C49427541600C49C2720181142103611E
:1071200081720375094A0A490376037306F0FCF974
:1071300010BDC0462407002000093D00502A010070
:1071400004070020100E002012150000000000208F
:10715000C16E00007047030010B5C48A091B848A01
:107160000E22805E4C431021595EE4130919C002BF
:1071700007F0E8FF001910BD70B50E001500084CAF
:107180007721200000F0CEF83100200000F0E7F970
:107190002900200000F0E3F9200000F0CFF870BDD6
:1071A0002C07002070B50D000E4C7721200000F058
:1071B000B9F82900200000F0D2F9200000F0BEF854
:1071C0002000772100F0AEF801227721200000F0A6
:1071D000A3F8200000F01CFA0500200000F0AEF833
:1071E000E8B270BD2C07002070B50C00114D77215E
:1071F000280000F097F82100280000F0B0F92800DE
:1072000000F09CF82800772100F08CF8022277210A
:10721000280000F081F8280000F0FAF984B2280074
:1072200000F0F6F92402044324B2280000F086F8A6
:10723000A0B270BD2C07002010B50B1C0400032960
:1072400000D903232370224800F0A8F8D0212000A1
:10725000FFF7A8FF0023552837D1AA212000FFF708
:10726000C3FFAC2160802000FFF7BEFFAE21A080ED
:107270002000FFF7B9FFB021E0802000FFF7B4FF46
:10728000B22160822000FFF7AFFFB421A08220006E
:10729000FFF7AAFFB621E0822000FFF7A5FFB82183
:1072A00020812000FFF7A0FFBA2160812000FFF7B6
:1072B0009BFFBC21A0812000FFF796FFBE21E0814B
:1072C0002000FFF791FF01232082180010BDC04667
:1072D0002C07002010B504002E22F421FFF74CFFEC
:1072E000052005F0B7FDF6212000FFF77DFF10BD5A
:1072F00010B50400FFF7EEFF01002000FFF72BFFA1
:107300000830001108F040FF014908F04FFA10BDA5
:10731000000020410020704710B503689C6B0123DA
:10732000A04710BD8C2300229B00C154103BC31802
:107330005A609A60DA6001238375704710B503685C
:1073400001211B6B984710BDF8B505000E00170012
:107350000024BC4208D02B68315D1B682800984788
:10736000002801D00134F4E72000F8BDFC30406A69
:10737000704770478E239B00C15070478D239B0040
:10738000C15070470300FC335A6A002A03D01B6ABD
:10739000C018007E704701204042FBE770B5060030
:1073A00018250C49006903F06DFD306903F0ABFB53
:1073B0002B000821307D084C4343E318595606F052
:1073C00005F80821707D45436419615605F0FEFFFC
:1073D00070BDC046A0860100D03E010070B504001B
:1073E0000D00006903F0A4FB2900206903F04AFDA9
:1073F000206903F088FB70BD10B5006903F098FBAD
:1074000010BD0000F7B50193FA2380260025040083
:107410009B008360134B760008330F004560290002
:1074200000920360320018300AF01FFE2300200093
:10743000FC332530DD6132001D6229005D62FF30C2
:107440000AF013FE88239B00E3185D609D60DD60F9
:107450006B461B78276123756B461B79A575200049
:107460006375FEBD8C2A010070B506001825006901
:1074700003F0E3FC306903F046FB2B000821307D6C
:10748000064C4343E318595605F0A0FF0821707DD0
:1074900045436419615605F099FF70BDD03E010067
:1074A00010B50022FFF7E0FF10BD0300802210B5E9
:1074B000FC33DC685200944208D05A6881545A6800
:1074C0000132D2B25A60DA680132DA6010BDF7B523
:1074D0000400171E019302D100252800FEBD030001
:1074E0000022FC33DA611A625A620069013203F049
:1074F00051FB061EF0D0230020691833009303F0DF
:10750000DCFB01000098FFF7D0FF01252069BD4298
:1075100014D003F0B0FB00280FD0206903F01AFB51
:107520000221206903F020FB206903F0C6FB010063
:107530000098FFF7BAFF0135E8E70600206903F07D
:1075400001FB019B002B06D0002E06D003212069F1
:1075500003F00AFBC1E7002EBFD1013DBDE70023C8
:1075600010B5827D9A420CD0882292008218D4688D
:1075700080225200944204D02530FF30FFF795FF5F
:107580000123180010BD0300FC33DA68002A09D07B
:107590009A68805C9A680132D2B29A60DA68013ADD
:1075A000DA60704701204042FBE700228C2370B56F
:1075B0009B00827504000E00C15C006903F0EAFACA
:1075C000002806D10321206903F0CEFA0225280005
:1075D00070BD88239B00E318DD68002D11D02000CA
:1075E0002530FF302569FFF7CEFFC1B2280003F038
:1075F00013FB0028EDD10321206903F0B5FA032520
:10760000E5E7002EE3D00321206903F0ADFADEE7C1
:1076100010B51830FFF7B7FF10BD70B50400006952
:1076200003F020FB002815D0206903F032FB00286E
:1076300011D0206903F08EFA0321206903F094FA37
:107640008E239B00E558002D35D10023FC34E361E7
:107650002362636270BD206903F025FB002809D016
:10766000206903F01BFB002804D0206903F020FBF5
:107670000028DED0206903F016FB002821D1206904
:1076800003F002FB0028E5D0206903F011FB00287D
:1076900033D088239B00E318DB68FF21002B05D043
:1076A00020002530FF30FFF76EFFC1B2206903F0E4
:1076B000CBFAA075CEE7236820001B699847A8473E
:1076C000C3E7206903F046FA2069032103F04CFA6E
:1076D000206903F0EDFA0028BCD0882300229B002B
:1076E000E3185A609A60DA600123A3758D239B002A
:1076F000E3589342AED09847ACE72300FC335A6A74
:10770000802320695B009A4206D103F01BFA032113
:10771000206903F029FA9DE703F0CFFA0100200069
:107720001830FFF7C2FE206903F014FAEFE70000FB
:1077300010B50248FFF771FF10BDC0462C070020AE
:1077400010B51123102202490248FFF75BFE10BD5D
:10775000080E00202C07002010B50368C9B21B6872
:10776000984710BD2023020003700023F43210B5A7
:1077700013808D22422192008354344A8354344A28
:1077800083540A32835008328154324A8354324A35
:1077900083540732FF328350043283502F4A8118BA
:1077A0000E32FF3281500432835202222C4942545D
:1077B0002C49425401314350043143502A49441862
:1077C0001C31FF3144500431435228494254284966
:1077D00042540131435004314350264944182B315F
:1077E0004450043143522449425424494254013103
:1077F0004354234942546421224A81540232835023
:1078000004328354012220494254204943542049E0
:107810004254891843541F4942541F4943541F4935
:107820004254891843541E4942541E4943541E4928
:107830004254EA22920083520371E62308219B00FE
:10784000C21813798B43137110BDC0463502000076
:1078500036020000490200004A0200004B0200000C
:107860005E0300005F0300004D0200006E03000095
:107870006F0300004D0300007E0300007F03000043
:107880008103000082030000890300008A030000D6
:107890008B0300008D0300008E0300008F030000A7
:1078A000910300009203000093030000902310B5A1
:1078B0009B00C058002802D003681B68984710BD81
:1078C000704770B505000400EA20F4352B8880006D
:1078D000012B14D1C0260A02B600324022520133D5
:1078E0002B802000FFF7ECFFEA239B002A88E35A55
:1078F0009A4203D18D2300229B00E25470BD022BDB
:10790000EDD1225A0A430632E8E7F0B58E259226D9
:107910000400AD004059B600036887B0DB6A0F0071
:10792000A15D9847FF216059FFF716FF60590021BC
:1079300003681B6B98470190002802D00C2007B009
:10794000F0BD6059A15D0368DB6A98476059B521B5
:1079500003681B6898476059622103681B68984751
:107960006059397803681B689847605979780368CB
:107970001B689847B9786059FFF7EEFE798860591F
:107980000912FFF7E9FE6059019903681B6B9847DC
:107990000028D3D17B88039001930596059A6059FE
:1079A000A15C0368019ADB6A012A2AD96A46167922
:1079B0002278B24200D9321CD2B2049298470026F3
:1079C0006B461B8A605902930299B3B202688B42DC
:1079D00007D20399BB685B18995D13689847013615
:1079E000EEE7136B002198470028A7D1029A039B6A
:1079F000944663449BB20393019B9E1AB3B20193D6
:107A0000CCE79847019B012B05D16059019A036887
:107A1000B9685B6898476059397B03681B68984769
:107A20006059797B03681B689847605903685B6BF2
:107A30009847002800D182E780E7F8B58F24060038
:107A40000D00A4000059B521036800271B68984762
:107A50003059622103681B689847305929780368B8
:107A60001B6898473059697803681B6898473059F4
:107A7000A97803681B689847305969880368090A20
:107A80001B68984730596A8803681B68BA4204DD4E
:107A9000AA68D15D98470137F4E7297B98473059A8
:107AA000697B03681B689847F8BD70B50E784D7800
:107AB00048887519EDB22C18E4B20212A218D3B29C
:107AC0000022751964190B731B194B7393B29842FA
:107AD0000AD98B680C7B9B5C01321B194C7BDBB297
:107AE0000B731B194B73F1E770BD0000044BC25CB4
:107AF0008918C9B2C154034BC25C8918C15470477C
:107B00009603000097030000F8B53A4B0400C35CED
:107B10000F00002B6DD09125AD003749405904F07E
:107B2000BCFF3B78012B34D13449605904F0B5FFD8
:107B30009125AD003249605904F0AFFF3B88314ACE
:107B400093423AD13049605904F0A7FF9125AD0026
:107B50002E49605904F0A1FF79881022605905F080
:107B600008F8E0239B00E65C002E39D128496059D3
:107B700004F093FF7B886059B34235DD254904F05A
:107B80008CFFBB681022995D605905F00CF8013636
:107B9000F0E76059052B01D11F49C7E71F49062BA4
:107BA000C4D01F490A2BC1D01E4904F076FF397892
:107BB0001022605904F0F7FFBAE71B4A605993425C
:107BC00001D11A49C0E71A4A1A499342BCD0154953
:107BD00004F063FF79781022605904F0E4FFB5E700
:107BE0001549605904F059FF91239B00E05804F0B7
:107BF00061FFF8BD49020000F62C0100FB2C0100DA
:107C00000B2D010001070000102D01001E2D0100A9
:107C1000272D0100F6260100FF2C0100032D010095
:107C2000072D0100822B010006080000142D010021
:107C300006090000192D0100312D01000A4B4118E1
:107C4000CB181878094B0002CB181B781B0418437B
:107C5000074BCB181B78184394239B00C9180B784B
:107C60001B0618437047C0464E0200004F0200003A
:107C70004D020000F8B50D780400012D03D0282D29
:107C800000D103E2F8BDFF200B68E64A834393422C
:107C900000D021E100212000FFF7D0FF2300D033E6
:107CA000186000212000FFF7C9FFFA21890007F0C2
:107CB00045FA230078331980DB4B2000E25CDB4B74
:107CC0001202E35C08271343220070321380230062
:107CD000D74A7233A25C10261A7095229200A25CD9
:107CE0005A70D44AA25C9A70D34AA25CDA70D34A22
:107CF000A25C1A7196239B00E35C220019005B08CA
:107D000080322B402940117053701021FFF796FFED
:107D10002300CB4AE067A25CAD331A70C94B220046
:107D2000E35C823219002940117021005A082A4070
:107D300083310A7022009911AE325B0911702B4019
:107D40002A3A1370992223009200A25CAC331A7075
:107D500018212000FFF772FF23008C3318601C21CC
:107D60002000FFF76BFF23008833186020212000DC
:107D7000FFF764FF23009033186024212000FFF7F1
:107D80005DFF23009433186028212000FFF756FF81
:107D90002300983318602C212000FFF74FFF2300A9
:107DA0009C33186030212000FFF748FF2300A033E8
:107DB000186034212000FFF741FF2300A43318602E
:107DC00038212000FFF73AFF2300A83318603C2138
:107DD0002000FFF733FF2300B0331860402120005C
:107DE000FFF72CFF2300B433186044212000FFF775
:107DF00025FF2300B833186048212000FFF71EFF3D
:107E00002300BC331860904B5421E25C8F4B12026C
:107E1000E35C200013432200C03213808C4BE35CF0
:107E20002B409370FFF70AFF2300C4331860894B7F
:107E30000221E25C884B1202E35C20201343220003
:107E4000C8321380AA239B00E25C844B1202E35CDD
:107E500013432200CA321380E62304229B00E35C12
:107E60002B430B4313433B433343034300188446E4
:107E70000343C0380343E620800023542418202005
:107E800063782B430B4313433B4333430343604625
:107E90000343C03803436370A378A0302B430B43E4
:107EA00013433B433343034360460343C038034318
:107EB000A370E378A0302B430B4313431F43634667
:107EC0003E4306431E432379A0381D4329433043D4
:107ED0000A43E0702271D5E6614A93425DD10421E4
:107EE0002000FFF7ABFE2300D033186008212000EC
:107EF000FFF7A4FE2300D83318600C212000FFF701
:107F00009DFE2300D433186010212000FFF796FE59
:107F10002300DC33186014212000FFF78FFE2300BC
:107F2000504AE0331860A25C12335A704E4A1C214A
:107F3000A25C20001A704D4A023BA25CE8261A702F
:107F40009A229200A25C04275A70FFF777FE230062
:107F5000E833186020212000FFF770FE2300EC3387
:107F600018600823B600A15DA0194278294339435F
:107F700019431A43DB181A430E3B1A430E330B43C3
:107F800020213A4349422A430B43A3554270E6223B
:107F90009200A35C1D43A55474E6354A934200D079
:107FA00070E6214BE25C214B1202E35C134322009A
:107FB000F632138095239B00E25C1D4B1202E35CBA
:107FC00013432200F83213801B4BE25C194B120260
:107FD000E35C13432200FA32138096239B00E25C99
:107FE000164B1202E35C13432200FC321380214B38
:107FF000214AE35CA25C1B021A432300FE331A8071
:1080000097229200A15C1D4A0902A25C0A435A8091
:108010001B4AA15C1B4A0902A25C0A439A801A4BC4
:10802000E0542FE600075C005202000051020000FD
:1080300053020000550200005602000057020000E3
:1080400061020000620200009A0200009902000032
:108050009B020000A6020000A5020000A70200008B
:1080600000142400650200006602000067020000A0
:10807000000412005A020000590200005B020000D6
:108080005E0200005D020000A2030000FF220B68F8
:108090009343A24A934234D10021FFF7CFFDD4236A
:1080A0005B00E05008212000FFF7C8FDD6235B00ED
:1080B000E0500C212000FFF7C1FDD8235B00E05009
:1080C00010212000FFF7BAFDDA235B00E0501421F5
:1080D0002000FFF7B3FDDC235B00E05018212000F7
:1080E000FFF7ACFDDE235B00E0501C212000FFF712
:1080F000A5FDE02301225B00E050E533FF33E254AD
:10810000C0E5874A934253D10821FFF797FDE62344
:108110005B00E0500C212000FFF790FDE8235B009E
:10812000E05010212000FFF789FDEA235B00E050BA
:1081300014212000FFF782FDEC235B00E0501821A2
:108140002000FFF77BFDEE235B00E0501C212000A8
:10815000FFF774FDF0235B00E05020212000FFF7C3
:108160006DFDF2235B00E05000212000FFF766FD6B
:108170000123E221020A1A4049006254C621420A40
:108180001A40FF316254820A1A40C9186254C82149
:10819000C20A1A40FF316254020B1A40C9186254D5
:1081A000CA22400BFF321840A0545E4AA35469E52E
:1081B0009022D203934200D064E50021FFF73EFDF8
:1081C000F4235B00E050584B0C21E25C574B120249
:1081D000E35C20001343F6225200A352544BE25CAE
:1081E000653BE2546633E25CF023FF33E254514BCB
:1081F000E25C653BE254504BE25CF223FF33E25415
:108200004E4BE25C653BE254FFF718FDFC235B003C
:10821000E0504B4B1421E25C613BE2542000FFF73D
:108220000DFD81239B00E05018212000FFF706FD83
:1082300082239B00E0501C212000FFF7FFFC8323DA
:108240009B00E05020212000FFF7F8FC84239B00D6
:10825000E05024212000FFF7F1FC85239B00E05033
:1082600029002000FFF7EAFC86239B00E0502C2128
:108270002000FFF7E3FC87239B00E0503021200023
:10828000FFF7DCFC88239B00E05034212000FFF73F
:10829000D5FC89239B00E05038212000FFF7CEFC5D
:1082A0008A239B00E0503C212000FFF7C7FC8B2372
:1082B0009B00E05040212000FFF7C0FC8C239B0076
:1082C000E0502833E35C01221800F4211040FF3114
:1082D0006054FA205908114040002154F6219B08AF
:1082E0001340FF316354174BFE21E35CFF3118004C
:1082F00010406054FF205908114040002154990853
:10830000114811402154D9081140801821541B09EB
:108310000E49134063540E4BF1E6C04600012000A5
:1083200000022400A50300005202000051020000D8
:1083300053020000550200005602000057020000E0
:108340005D0200005E020000FF010000010200006B
:10835000A6030000F7B515000222009308AB1E78B3
:10836000994B0400C35C0F000192002B02D1013332
:10837000FF3301936B88AA880333934203DB3900F0
:108380002000FFF7B3FBAB88002B02D12F70002633
:1083900071E0012B01D16F70F9E7022B01D16F80E1
:1083A000F5E76A88032B03D13F023A436A80EEE780
:1083B000111D8B4201D12F73E9E70532934200D0A2
:1083C00089E18D2300226F739B00804FE254A889BE
:1083D000E15B2B78884200D01CE10132AA73009A3D
:1083E000934268D16A78B24265D10123EB73784B2E
:1083F000E35C002B36D09126B6007649A05904F0F4
:108400004CFB0A226988A05904F0B3FB7249A059B9
:1084100004F043FB29002000FFF776FBAB7B012B28
:1084200003D16E49A05904F04DFB6D4BE35C012B69
:1084300005D191239B006B49E05804F043FBEB7B93
:10844000012B05D191239B006749E05804F03AFBCA
:10845000664BE35C012B05D191239B006449E058F6
:1084600004F030FBE0239B00E65C002E8FD1290056
:108470002000FFF7FFFBAB8801339BB2AB80002EDF
:1084800003D180225200934214D18D2300229B00FD
:10849000E2544F4BE35C934203D1564BE35C93426F
:1084A00008D091239B00E0585349002E00D1534936
:1084B00004F008FBF7BD06212A88FF318A422CD13F
:1084C000AA6800981178814203D15278B24200D153
:1084D0008BE7009A934200D089E76B78072B44D151
:1084E000320009339A43042A00D080E7384BE35C1A
:1084F000002BB7D091274249BF00E05904F0CDFAD4
:1085000010223100E05904F04EFB3E49E05904F0DE
:10851000C4FA69781022E05924E0052AD9D1AA6862
:10852000009811788142D4D15278B242D1D103233C
:10853000EB73274BE35C002B00D193E79126B60049
:108540003149A05904F0A9FAAB6810221978A05952
:1085500004F029FB2D49A05904F09FFA1022AB68C2
:10856000A059597804F023FB41E7142B05D1072EBD
:10857000BCD0042E00D03AE7B8E7042B05D1072E73
:10858000B4D0142E00D032E7B0E7012B0DD1320069
:1085900001339A4300D02AE70D4BE35C002B00D156
:1085A00060E791271A49BF00A7E7022B03D1012EEC
:1085B00000D91CE7F0E7002B00D018E7731E012B51
:1085C00000D914E7E8E7C0468103000096030000E5
:1085D00049020000D22B0100E32B0100EF2B010028
:1085E0005E030000032C0100172C01005F03000054
:1085F000312C01004A020000A92C0100CD2C010001
:10860000432B0100852B0100142B0100732B01006B
:10861000952B0100AA73009A934251D16A78B24215
:108620004ED10023EB73394BE35C002B04D1384B64
:10863000E35C002B00D1AAE69126B6003549A0598B
:1086400004F02BFA3449A05904F027FA297B0A22B6
:10865000A05904F0A8FA3149A05904F01EFA697B28
:108660000A22A05904F09FFA2D49A05904F015FAE6
:10867000E15D0A22A05904F096FA2A49A05904F0B3
:108680000CFA294B0A22E15CA05904F08CFAA0599B
:1086900004F010FA2549A05904F0FFF92449A05923
:1086A00004F0FBF969880A22A05904F062FA214912
:1086B000A05904F0F2F929002000FFF725FA66E638
:1086C000052BB0D1AB6800991A788A42ABD15B78A0
:1086D000B342A8D1A5E718492888EA88884200D182
:1086E0000022E0218900665C002E00D04FE6D91EF2
:1086F000914200DC4BE6043B9B1A019A934202D262
:10870000AA68D754B7E60126B5E6C046490200007C
:108710004A0200004B2C01005C2C0100692C010076
:10872000762C01008A2C0100970300009E2C01008A
:10873000DC2B0100E32B010001070000F0B587B03E
:1087400003930CAB1F788D2302929B00C25C040044
:108750000D00012A0ED8B52926D1E5210022890075
:1087600042520221C1544133FF33C2520C33C2542E
:10877000B54BC1548D229200A15C022900D099E131
:10878000E5239B00E35A002B1AD1B52D01D000231D
:10879000A354AD4BE35C012B00D077E1D422039BC3
:1087A00000979200A21876E10122242906D0D3294D
:1087B000E0D102000021F43211800322E254D9E713
:1087C000012B02D1622DE2D1E3E7022B0ED1DC2294
:1087D0009200A55400229D496252223962529C4A5D
:1087E000A354029BDA889B4BE252D2E7032B00D0C2
:1087F0007FE0DC23984A9B00A554E35C052BC8D09E
:108800000399994243D1BD420ED100238E4963544E
:108810006946029B097B1970A35C029A5370DD23A1
:108820009B00E35A9380B4E7072D2AD11022390028
:10883000914304292BD1002283496254029A137078
:10884000854BE35C5370DD239B00E35A9380834B9D
:10885000E35C002B9DD091268149B600A05904F01D
:108860001CF910223900A05904F09DF97D49A05946
:1088700004F013F9784B1022E15CA05904F097F949
:1088800087E7142D08D1072FD5D0042FD3D0E023AC
:1088900001229B00E2547CE7042D04D1072FCAD0AB
:1088A000142FF4D1C7E7012D18D1022239009143CA
:1088B000EDD1002264496254029A1370664BE35C66
:1088C0005370DD239B00E35A9380644BE35C002BE1
:1088D00000D15EE791266449B600BFE7022D02D1C0
:1088E000012FD4D8E5E7002DD1D17A1E012ACED8A8
:1088F000DFE7042B02D15D4BE5524AE7052B05D19A
:108900005A492A02635A1343635242E7062B27D17E
:10891000564BE35A002B1ED1504BE35C002B16D074
:108920009126B6005249A05904F0B7F8DC239B0009
:10893000E15C1022A05904F036F94E49A05904F028
:10894000ACF8454B1022E15CA05904F030F9DF236C
:108950009B00E5541DE7DE239B00E3581D7018E7DC
:10896000072B00D015E7414AA35A0492002B36D1B9
:10897000414BE554344BE35C022B00D009E7DC2388
:108980009B00E15C052900D090E00833E358039890
:108990001A78824200D089E05A78BA4200D085E045
:1089A000049AA25A022A24D10120274EA055D4208D
:1089B000800021542849605C30496054304962523B
:1089C000DD229200A15A203AA1520432A1581B780C
:1089D0000B70A3582032A25852785A70D9E6012B56
:1089E00002D1DF239B00C4E7DE239B00E3585D70C8
:1089F000C0E71A4BE35C002B58D09126B600214902
:108A0000A05904F04AF8DE239B00E258A0590592D1
:108A10001178102204F0C7F81649A05904F03DF867
:108A2000DE239B00E35810225978A05904F0BBF8CC
:108A30001549A05904F031F8049B0A22E15AA059C3
:108A400004F09BF8A5E6C0468103000096030000F1
:108A50007E0300007603000071030000490200005D
:108A6000A6320100852B0100E532010072030000EF
:108A70001F3301007D2B01007D0300005103000026
:108A8000520300004F3301007F330100002B0DD152
:108A9000039B029A009729002000FFF75BFCE52268
:108AA0009200A35A0133A35207B0F0BD0097039B75
:108AB000DC2276E6012904D129002000FEF7F6FE2B
:108AC000F2E70329F0D129002000FEF7FAFEEBE7D8
:108AD000F0B587B0040005930391049204F084F983
:108AE000E1239B00E358C01A764BE35C984200D226
:108AF000D3E08E269225B600A059AD000368615DD3
:108B0000DB6A9847FD21A059FEF726FEA0590021F7
:108B100003681B6B9847002802D0002007B0F0BD07
:108B2000A059615D03680222DB6B9847A059036876
:108B30001B699847002805D1634BE35C002B1BD0D1
:108B4000624914E0A05903685B6998470500A05981
:108B500003685B699847C0B2FF2813D15A4BE35CA6
:108B6000002B03D15A4BE35C002B05D059499123CC
:108B70009B00E05803F0A6FF04F036F9E1239B00C8
:108B8000E050CAE72D02284300B285B2002DD3D0B1
:108B9000002814DA4C4B6D04E35C6D0C002B03D100
:108BA0004B4BE35C002B7AD09126B6004A49A05982
:108BB00003F073FF0A222900A05903F0DEFF642DA1
:108BC0006FD9414BE35C002B0ED09126B600434990
:108BD000A05903F062FF29000A22A05903F0C9FF3F
:108BE0003F49A05903F06EFF8E27BF00002D54D0DF
:108BF0009223E0599B00E15C0368DB6A9847FF2100
:108C0000E059FEF7A9FDE059002103681B6B984766
:108C1000002800D081E72278131CAA4200D92B1C1F
:108C20009BB202939223E0599B00E15C0368029A95
:108C3000DB6B9847E05903681B699847002800D10F
:108C40006BE70026029B9E4224D0E05903685B69D3
:108C50009847C1B2002E13D17F2911D11A4BE35C82
:108C6000002B03D11A4BE35C002B05D091239B0012
:108C70001C49E05803F026FF052004F0EBF8D1E78B
:108C8000059B039A00932000049B0136FFF756FDD5
:108C9000B6B2D7E7AD1BADB2A8E701203EE7642D21
:108CA000A2D8094BE35C002B9ED09126B6000E495A
:108CB000A05903F0F2FE29000A22A05903F059FF3F
:108CC0000A498EE78203000049020000F22D0100EC
:108CD0004A020000C42D01001A2E0100402E01009E
:108CE000602E0100882E0100702E01003626010042
:108CF000F0B58F25040016001F0085B00391AD006C
:108D0000605903681B69984700280BD060590368B5
:108D10005B6998470097C1B23300039A2000FFF7C0
:108D20000DFDEDE7012005B0F0BD000070B50400B9
:108D30000748255C002D03D12000FFF7C9FE70BD58
:108D40000020012DFBD12000FFF7D2FFF7E7C0463E
:108D500036020000F0B585B01F000AAB1B88160074
:108D6000039302238B4A8B7383548B4A04008354EE
:108D70008A4ACB7383548A4A0D00835404F034F832
:108D8000864B0090019304F02FF8009BC01A039BC0
:108D9000984200D3B2E03B00320029002000FFF7E8
:108DA000C5FF002800D1A4E0019BEA7BE35C012A17
:108DB00026D1012B5ED1A87B297801283DD1B14273
:108DC0003BD16878B84238D1764BE35C002B03D1B5
:108DD0000B25280005B0F0BD91257349AD00605901
:108DE00003F05BFE665903F0FFFF009B0A22C11AE5
:108DF000300003F0CCFE6D49605903F063FEE7E7F5
:108E0000022A28D1012B35D1664B0A25E35C002BC1
:108E1000DFD091266649B600A05903F03EFEA7595F
:108E200003F0E2FF009B0A22C11A380003F0AFFEF4
:108E30005E49A05903F046FECBE7B14202D1697802
:108E4000B9420AD0574B0D25E35C002BC1D09126C7
:108E50005849B600E0E7012B0CD1E989002900D080
:108E600087E0504B0225E35C002BB2D0912652499B
:108E7000B600D1E7032B08D14A4B0425E35C002B55
:108E8000A7D091264D49B600C6E7012A73D1002B21
:108E900011D1AB7B012B2CD12B78B34229D16B782C
:108EA000BB4226D13F4BE35C002B00D190E79125DC
:108EB0004349AD0093E7022B1BD13A4BE35C002BF7
:108EC00017D091239B003F49E05803F0E6FD912322
:108ED0009B00E258029203F087FF009A811A0A224F
:108EE000029803F054FE91239B003749E05803F0A9
:108EF000E9FDFA20400003F0CFFF44E7294BEA7B6D
:108F0000E35C012A20D1019AA25C022A1CD1AA7B2F
:108F1000012A19D12A78B24216D16A78BA4213D1FD
:108F2000002B00D154E79125AD002849605903F08A
:108F3000B4FD665903F058FF009B0A22C11A3000A5
:108F400003F025FE224957E70325002B00D140E717
:108F50009126B6001F49A05903F09FFDA75903F0C1
:108F600043FF009B0A22C11A380003F010FE1A4981
:108F70005FE7012ABDD0002ABBD1002BB9D1094B34
:108F80000125E35C002B00D123E791261349B600AD
:108F900042E7C0465E0300007E0300005F0300005E
:108FA0007F03000049020000C02E0100FD2E0100D9
:108FB000032F0100342F0100662F01008C2F0100C8
:108FC000C72F0100473001006D30010085300100DE
:108FD000B8300100C0300100E3300100063001006C
:108FE000F7B51E0008AB1B881700019302233F4A08
:108FF0008B7383543E4A040083543E4ACB7383549C
:109000003D4A0D00835403F0EFFE009003F0ECFEA8
:10901000009BC01A019B984251D233003A002900AC
:109020002000FFF783FE002844D00223EA89FF33A3
:109030009A421FD12B78BB421CD16B78B34219D115
:109040002E4B0B25E35C002B12D091262C49B60049
:10905000A05903F022FDA75903F0C6FE009B0A2287
:10906000C11A380003F093FD2649A05903F02AFDE8
:109070002800FEBDEB7B012B0ED12B78BB4202D129
:109080006B78B34216D01D4B0D25E35C002BEFD05F
:1090900091261D49B600DBE71C498A420AD0002B05
:1090A00008D1164B0225E35C002BE1D0912618492C
:1090B000B600CDE7FA20400003F0EEFEA6E70F4B26
:1090C0000325E35C002BD3D09126B6001149A059AB
:1090D00003F0E3FCA75903F087FE009B0A22C11AA4
:1090E000380003F054FD0C49BFE7C0465E030000A2
:1090F0007E0300005F0300007F03000049020000C0
:10910000EA300100FD2E01002431010001020000BF
:109110005831010091310100B6310100F0B5040071
:1091200085B017000D00FEF7C0FC2A4BE25C0393EC
:10913000002A08D0053B2849E05803F0AEFC29007E
:109140002000FEF7E1FC254BE35C002B13D13A0035
:1091500029002000FEF7D9FB061E12D0039BE35C1A
:10916000002B05D091239B001D49E05803F0AAFC79
:10917000300005B0F0BD012B03D129002000FEF71F
:109180005CFC0026B742F3D0039B2A78E35C062AF6
:1091900010D1B34205D091239B001249E05803F04F
:1091A00091FC6B782A78009729002000FFF7D2FD08
:1091B0000600DDE7002B05D091239B000A49E0580B
:1091C00003F080FC6B782A78009729002000FFF7D5
:1091D00007FFEDE749020000432D010036020000C1
:1091E0004E2D0100662D01008C2D0100F8B5154BA8
:1091F0000500C45C0E00002C13D0D823124A9B003B
:10920000EA500022114B2800EA52063BE9183200CE
:10921000FFF784FFFD240B38204044426041C0B278
:10922000F8BD8E279223BF00C0599B00E95C0368FC
:10923000DB6A9847E85903685B6B98470028DCD0E5
:109240002000EDE73602000006080000660300007B
:1092500010B5040000200C4BE0540233E1501033F1
:10926000E2540A492000FFF7C1FF002801D0012085
:1092700010BD06492000FFF7B9FF0028F7D10349C8
:109280002000FFF7B3FFF3E7360200004C040000B4
:10929000F8B5D8230A0010499B00C15000230F499C
:1092A000DA24435219000E4EA400875B0559BB42D5
:1092B00003DAE9540133DBB2F7E7FF232B710159DD
:1092C0004B71D8239B00C118FFF728FF0A3843428F
:1092D0005841C0B2F8BDC04606090C006603000044
:1092E00062030000D82310B5084C9B00C450002432
:1092F000074BC452074BC1541433FF33C118FFF757
:109300000DFF0B3843425841C0B210BD06000100AA
:10931000660300004D02000070B516001A0004003C
:109320001D00FFF7DFFF002813D0D823094A9B0058
:10933000E2500022084B2000E252084B2A00E6547B
:109340000633FF33E118FFF7E9FE0A38434258417C
:10935000C0B270BD06001400660300005B0200008E
:1093600010B513000A000021FFF7D6FF10BD10B59D
:1093700013000A000121FFF7CFFF10BD10B5130045
:109380000A000221FFF7C8FF10BD0000F8B5040075
:10939000FA200F0080008900160005F0D3FE134B61
:1093A000134AE054223BE2500022124B2000E252CA
:1093B000063BE51832002900FFF7B0FE030000204D
:1093C0000B2B12D1FA203900800005F0BBFE0A4BAE
:1093D0003200E054094B0012E05429002000FFF74E
:1093E0009DFE0A3843425841C0B2F8BD82030000D6
:1093F00006080000660300004D0200004E02000057
:10940000D82370B500240A000C499B00C1500C4BB6
:109410000500C452063BC118FFF780FE0B280AD195
:10942000FA20084B084AEB5CA95C1B021943800038
:1094300005F088FEC4B2200070BDC04606080000DA
:10944000660300004E0200004D020000F8B5E22362
:109450009B00C55C3B4F04000E00C35D002D24D073
:10946000394A855C002D15D0002B05D091239B0037
:109470003649C05803F026FBD8239B00E11801228F
:1094800007232000FFF752FC314BE55C6D07ED0F21
:109490002800F8BD002B01D10025F9E72D499123C3
:1094A0009B00E05803F00EFBF2E7002B05D0912360
:1094B0009B002949C05803F005FBD82292001100F7
:1094C000264B6118A35020003200FFF727FE06004C
:1094D0000B282AD0E75D0D2815D1D8239B00E35C2B
:1094E000012B0AD11D00002FD2D091239B001C49D3
:1094F000E05803F0E7FA3D00CAE7282B17D1002F08
:10950000CAD01849CBE7002FC6D09127BF00164913
:10951000E05903F0C2FAE05914490D2E02D8144B59
:10952000B600F15803F0D8FAB2E70125B0E7002FF2
:10953000B2D09127BF000C49E05903F0AEFAE059D0
:10954000EDE7C0464902000089030000D131010067
:1095500099030000E731010000320100010700001B
:10956000103201005432010096320100B52D010085
:10957000DC2A010010B5084B0400C35C7F2B01D826
:10958000FFF764FFE6237B219B00E21853788834C1
:109590000B405370206810BD9903000010B5084BB4
:1095A0000400C35C5B0601D4FFF750FFE623BB2138
:1095B0009B00E21853788C340B405370206810BD28
:1095C0009903000010B50A4B0400C35CDB0701D40B
:1095D000FFF73CFFE62301219B00E3189A789034C3
:1095E0008A439A705A7803318A435A70206810BDB2
:1095F0009A03000010B50A4B0400C35C7F2B01D80E
:10960000FFF724FFE6237F219B00E3189A78AC3410
:109610000A409A705A787B398A435A70207810BD74
:109620009A03000010B50A4B0400C35CDB0701D4A9
:10963000FFF70CFFE62301219B00E318DA78AD3435
:109640008A43DA705A7803318A435A70207810BD01
:109650009B03000010B50A4B0400C35C5B0701D4F8
:10966000FFF7F4FEE62304219B00E318DA78B03418
:109670008A43DA705A788A435A70206810BDC0460F
:109680009B0300007047F0B500291BDB0C25445FED
:109690008C4217DD002A15DB0E25445F944211DD54
:1096A000847E022C0FD0032C16D0012C04D1D2437F
:1096B0000489A4180A0021B2012B13D0002B22D058
:1096C000022B32D0F0BD0489013C611AD443428997
:1096D00009B2121912B2EFE74489013C641A110071
:1096E00022B2E9E70725D4172C40A4182A4093405A
:1096F0000827C65FE41074436118C46A61180A78C9
:1097000013430B70DEE70724D31723409B1808266A
:10971000855FDB106B435918C36A22405918012337
:1097200093401A000B789343EBE70724D3172340A9
:109730000826855F9B18DB106B435918C36A01200C
:1097400022409040020059180B785A400A70B9E73D
:1097500070B5002504001E0012B204AB09B25D57BB
:1097600000F01EFE104B08332360002363629E420C
:1097700000D10E4E2100FF223331A662E3620A704F
:109780004A708A70CA70220037321570059A20001C
:10979000A265069AE265064A626622006432137187
:1097A0000123537170BDC046F83801002C0700201A
:1097B00000093D00054B10B5083304000360C06A82
:1097C000002801D008F03EFC200010BDF838010050
:1097D000F8B50400806A0D00002814D0230030334F
:1097E00019780368DB6A9847A06A002103681B6840
:1097F0009847A06A290003681B689847A06A036815
:109800005B6B9847F8BD226C216D1368606A8B43CF
:109810001360002804D0036829009B689847F1E78B
:1098200008218020E36BA26BA76C166828420ED03B
:109830003E4316601E68E76C01393E431E601E6899
:10984000E76C4008BE431E600029EDD1DAE7BE4355
:10985000EFE770B50400806A0D00002812D003689D
:10986000A16D9B6A984729004D1EA9412000A63191
:10987000FFF7AEFFA06A002812D00368E16D9B6A73
:10988000984770BD606A002804D00368616EDB6988
:10989000A26E9847626C616D13688B431360E2E7B8
:1098A000626C616D1368606A0B4313600028E8D036
:1098B00003681B6A9847E4E7F7B50400806A8B18D1
:1098C0000D00019300282BD027000368303739782A
:1098D000DB6A9847A06A0021036801261B68984745
:1098E000A06A019A0368954217D0FE2E0CD95B6BD3
:1098F0009847A06A397803680126DB6A9847A06A0E
:10990000002103681B689847A06A2978036801361C
:109910001B689847B6B20135E2E75B6B9847F7BD25
:10992000226C216D13688B431360019BAB42F6D010
:109930002B78606A0093002805D0036800999B6823
:1099400098470135F1E708208026E36BA26BA76CEE
:109950000099BC4617680E420FD061460F4317604E
:109960001F68E16C01380F431F601F68E16C7608C7
:109970008F431F600028EAD1E3E761468F43EEE79B
:10998000072110B50A22835E0733DA170A40D2187E
:109990000821435ED2105A43C06A002108F065FBDB
:1099A00010BD0000F0B587B004930CAB1B78040029
:1099B0000593C36A0E001500002B1BD02000FFF793
:1099C000DFFF0A23E25E0823E15E202A25DC203A3D
:1099D000D30F9A180B00733BD90FC91801230293B8
:1099E0001F335210491001935333009312B209B23E
:1099F000B04B24E00A22835E07220733D8171040B9
:109A0000C0180822A35EC010584308F011FBE062A2
:109A1000031ED3D1180007B0F0BD403AD30F9A18F7
:109A20000B00523BD90FC918012302933F33019316
:109A300012335210491000939F4B12B209B220000A
:109A400000F0C8FC230031331E70A06A002800D14A
:109A50009CE0002D00D097E00A23E55E203D6B1EC0
:109A60009D413C35230030331D70059B002B00D1F8
:109A70001BE10368DB699847049B002B1BD0250082
:109A8000002037352856002815DBC0B2012103F02D
:109A90000DFC0121287803F055FC012003F0DAF9D0
:109AA0000021287803F04EFC0A2003F0D3F928782F
:109AB000012103F047FCA06A002800D1CBE0036835
:109AC000A16D9B6A984704227C492000FFF7F4FEB1
:109AD000618920000139C9B2FFF77AFE2500784973
